:020000040800F2
:1000000000A00020D51501083FC7000871F70008BF
:100010003DC700083BC7000839C7000800000000C2
:1000200000000000000000000000000037C70008CA
:1000300035C700080000000033C70008E3C000080F
:100040003D1601083D1601083D1601083D16010840
:100050003D1601083D1601083D1601083D16010830
:100060003D1601083D1601083D1601083D16010820
:100070003D160108FD500008F3AF00083D160108C9
:100080003D1601083D1601083D1601083D16010800
:10009000E5C700083D1601083D1601083D16010898
:1000A000F9DB000825DC0008E9DB000835DC000886
:1000B00019DC000809DC00083D1601083D1601089E
:1000C0003D1601083D1601083D1601083D160108C0
:1000D0003D160108F1DD0008E5DD0008D9DD000866
:1000E000F1C000083D160108F9FA00083D160108A4
:1000F0003D1601083D1601083D1601083D16010890
:100100000000000000000000000000003D16010893
:100110003D1601083D1601083D1601083D1601086F
:100120003D1601083D1601083D1601083D1601085F
:100130003D1601083D160108000000000000000007
:100140003D1601083D1601083D160108000000009B
:10015000000000000000000000000000000000009F
:1001600000000000000000003D1601083D160108D7
:100170003D16010800000000000000000000000023
:08018000000000003D1601081B
:100188002DE9F04FAD4C2378092B9CBFAC4A3421A4
:100198002DED0E8B98BF01FB032395B094BF9E6A8B
:1001A8000026A84DA84FEB680DA898479DF8343055
:1001B80023B12378092B0CD900230FE00BF05CFF47
:1001C800A24B1B68F31A18443B6864339842E8D37F
:1001D800EFE79B4A342101FB03239B6AD7ED007AA2
:1001E8009B4CDFED9C8A2380F8EE677A9A4B9B48FC
:1001F80067EEA87AC3ED007A6B68984D9847069425
:1002080028B9974E3368980700F1D880FDE3954CDC
:1002180028462946227806F01FFE94F80180B8F196
:10022800000F33D0A378BBB9874A126872B36360F2
:1002380066688C4F022E0CDC07F10803242101FBB1
:10024800063140469FED880A013605F0B6FA7E6011
:10025800EEE70123BB7019E0002363606668814FF5
:10026800022E13DC35F9163000EE103A242007F17F
:10027800080300FB0630B8EEC00A05F075FA13F063
:1002880007FC25F8160001367E60E7E7774EDFF8B1
:10029800F0813388002B6AD0636F93F800B0A8F11F
:1002A8004807A8F13C044FF000093188B1F57A7F7E
:1002B80002BF00233B6023613A6835F919301A44BC
:1002C80007EE903A23693A600133012B4FEA490A55
:1002D800F8EEE77A236106D10023C4ED017AC4ED74
:1002E800007AA3601BE0D4ED006A07EE103A37EEFF
:1002F800E66AB8EEC77A86EE077A36EE877AD4EDE4
:10030800026A84ED017A77EEC77A84ED007AE6EE28
:10031800276AF0EE667AC4ED036AC4ED026A002328
:10032800012925F80A3028F80A302BD12369012B36
:10033800C3BF03F1FF3300EE103AD4ED037A9FED0B
:100348004A0AC4BFB8EEC00A87EE800A13F088FCD8
:10035800BBF1000F0DD007EE90BAF8EEE77AB4EED5
:10036800E70AF1EE10FA04DD4FF47A7333800023C4
:1003780019E03B684FF47A7203F5FA7393FBF2F3D2
:1003880028F80A3009F10109B9F1030F07F1040748
:1003980004F1140489D13088012801D10BF0CEFE74
:1003A8003388013BE2E735F8132038F81310521A66
:1003B80025F813200133032BF5D122E72C4B1B78AA
:1003C800002B00F02283274C0BF056FED4F8C830DF
:1003D800C4F8C800C31A09EE103A0027D4F8CCA014
:1003E800204A9AF80030002B4CD092F8D03002F115
:1003F800D4088BB11F4B33F9173000EE103A242084
:1004080000FB0780B8EEC00A05F0AEF913F040FB18
:10041800194B23F817003BE01F4608EB07019AF831
:1004280000009FED160A243705F0C7F96C2FF4D1A8
:100438000C4B012283F8D020032729E01003002069
:100448007C000020082E0020382F0020D80F002024
:1004580008120020BD3786351C2E002044120020CB
:10046800141200208808002000000000C82F002077
:10047800AC2F00207C2F00203E12002000007A4480
:1004880048090020A74B33F81720A74B23F817205B
:100498000137022FA2DDA448A44F4388B0F800B06A
:1004A800828813FB03F91BFB0B9912FB0299642149
:1004B80001FB09F1B7F80090376817F0080709FB46
:1004C80009F9804691FBF9F9A9F152090DD098492B
:1004D800B1F900703FB1B1F9027027B1B1F90470F8
:1004E800003718BF012707F001070B93B5F9003053
:1004F800D4ED505A8E490A920AEE903AB5F9023074
:1005080008884E88898809900BEE903AF8EEEBBA85
:10051800B5F9043004916BEEA5BAF8EEEAAA0BEE31
:10052800103A6AEEA5AA2BEEAB0AB8EECBBAAAEE41
:10053800AA0A804D2BEE25BAF8EE497AABEE0B0AE3
:1005480067EEA88A13F08CFB09A8F0EE40CA9FED6D
:100558007AAA0499F7EE009A0DC8002F5AD000B273
:1005680007EE900A30B2B8EEE7DA08EE100A2DEE80
:100578000D0AB8EEC88A09B207EE901AA8EE080A62
:10058800B8EEE7CADFED6D7AACEE0C0AB4EEE70A16
:10059800F1EE10FA3EDD0993049213F061FB89EE47
:1005A800800AD5ED017A95ED007A28EE008A2DEEC5
:1005B80000DA68EE277A2CEE00CAE7EE0D7A95EDA0
:1005C800040A95ED027A28EE008AE7EE0C7A95ED9A
:1005D800037AA7EE0D8A95ED057AA7EE0C8AB0EEA0
:1005E8004ADA28EE080AB0EE4ACAA7EEA70A13F0BC
:1005F80037FBD5ED067A049A099B20EE480AA7EE48
:1006080080DAD5ED077AA7EE80CAD5ED087AA7EE8D
:1006180080AA03E0B0EE4ACAB0EE4ADAB9F1260F72
:100628003ED80FFA8BFB07EE90BA1BB2B8EEE78AFA
:1006380007EE903A28EE080AF8EEE7DA12B207EE6B
:10064800902AADEEAD0AB8EEE7EADFED3C7AAEEE01
:100658000E0AB4EEE70AF1EE10FA21DD13F000FB02
:1006680089EE800AD5ED076A95ED087A2EEE00EA44
:100678006DEE80DA66EECE7A28EE008AEDEE877AA5
:1006880027EE487A3DEE27DAD5ED067AAEEE277AE0
:1006980067EEED7A3CEE07CAE8EE267A3AEE27AA2C
:1006A800DAED017AF5EEC07AF1EE10FA4FF00003B8
:1006B8001FDD9FED237AF4EEC7CAF1EE10FA1ED5BE
:1006C80067EE8D6A94ED517AA6EEA87A67EE8C6A89
:1006D80084ED517A94ED527AA6EEA87A67EE8A7A7A
:1006E80084ED527A94ED537AA7EEA87A84ED537A82
:1006F80005E0C4F84431C4F84831C4F84C31114E0F
:10070800DAED027A3378590720D40F4B1A6844F689
:100718001F639A42F7EE005AB2EE047A98BFF0EEE1
:10072800475A15E07C2F00203E12002008000020C8
:10073800921200208C200020000000000AD7233CE1
:10074800C2B8B23ECB2F00204C2F0020F7EE005A43
:1007580067EEA55AD4ED536A94ED517AD4ED527AE6
:10076800DFF8AC93DB4B99ED004ADFF8A8B3D3ED83
:10077800003AD94F0493E5EE8A6AA5EE8D7AE5EE44
:100788008C7A3BEE26BAF6EE006A68EEA66A7BEE35
:10079800A77A3AEE877A27EEA66A27EE267A6BEED4
:1007A800266A26EE445A24EE260ADBED007AD7EDB7
:1007B800004A9FEDCA8AA7EEC75AA3EE870AF1EE50
:1007C800645AA5EEA65AA5EE860A66EEE75A37EEF3
:1007D800800AE3EE865A67EE867A33EE855AE4EEAF
:1007E800875AE3EEA67A8BED000A20EE000A74EE33
:1007F800255AA5EE050AE4EE477AA5EEA50A74EE99
:10080800A77A83ED005AA7EEA70AC9ED005AC7EDEB
:10081800007A13F025FA89EE800A049BD3ED007A5A
:10082800D7ED009A67EE807AC3ED007ADBED007AA7
:1008380067EE807ACBED007AD9ED007A67EE807AA0
:1008480029EE800AC9ED007A87ED000A0BF00CFF4B
:10085800D5ED080A95ED070AA14F13F0FFF920EE30
:10086800080A13F015F995ED060A3880B1EE400A2A
:1008780013F096F9DFED9B7A37EEC00A20EE080AEE
:1008880013F006F9D5ED000A95ED030A788013F008
:10089800E5F9D4ED547AE0EE487AB0EE670A13F041
:1008A800F7F883B21A0458BFBB80D5ED085A8E4BAF
:1008B800D4ED557A1A7895ED010A95ED048A95EDEF
:1008C800065A48BF00F56160F4EEE75A48BFB880A1
:1008D800F1EE10FACCBF42F0080222F008021A70BA
:1008E800B8F90030D5ED007A06EE103AB8F90230C2
:1008F80007EE103AB8EEC77AB8EEC66AB8F904300F
:1009080027EE000A06EE903AA7EE860A9AF801301A
:10091800F8EEE66AD5ED027AA7EEA60A012BD5ED28
:10092800077A27EE088A67EE277A95ED037AA7EE0D
:10093800068A95ED057AE5EE067AA7EE268AE5EEB3
:10094800A67AB1EE488A18D1337858070FD4D4F86C
:100958005831402293FBF2F29B1A07EE103AB8EE98
:10096800C77A37EE277ABDEEC77A84ED567AD4F87F
:100978005831402293FBF2F301E05C4B1B88D4ED25
:10098800586A78EEA66A07EE103AC8EEA68AB8EE5C
:10099800C77A77EEC77A94ED577A77EEC77AA8EEDA
:1009A800A77AF0EE478A84ED577A13F071F8D4F8F5
:1009B8006451297805F094F9D4F86831B0EE480A02
:1009C8001844C4F8680113F063F8297805F088F929
:1009D800D4F86C31B0EE680A1844C4F86C0113F00E
:1009E80057F8697805F07CF9D4F87031404A184412
:1009F80019EE101A1368C4F870011944D4F8743148
:100A080011600133C4F8743104E03A4B00221A80B3
:100A18005A809A80384BB3F90620384B1B6859899D
:100A28008A420EDBB2F5FA6FD879BDBF531A434339
:100A3800A1F5FA60C0F16400BCBF93FBF0F064302C
:100A480000E064202E4B2F49B3F8947193F95E317E
:100A5800D1F800909BB204930021274B33F911C0C1
:100A6800C7EB0C0303F2F31540F2E634A5424FEA54
:100A7800410E03D8002BB8BF5B4201E04FF4FA7374
:100A880002294FF06405204C48D099F81D611EB129
:100A9800B342CCBF9B1B0023DFF87CB093FBF5F679
:100AA8006FF0630A3BF816800AFB063301360FFA2B
:100AB80088FA3BF91660CAEB060A0AFB03F393FBB4
:100AC800F5F5124B4544BC4524F80E5058544CDB00
:100AD80051E000BF78000020882000204C3D0F44E2
:100AE80078120020DB0FC93FD81000200800002032
:100AF800B02F00207C2F0020DE220020841200204E
:100B08009C2300205C1200208C1E0020941E0020D4
:100B180084200020802000204A16002099F81E61B9
:100B28001EB1B342CCBF9B1B0023C54E93FBF5F807
:100B380006EB480A06EB4806BAF978A1B6F97A61D5
:100B48006FF0630B0BFB0833CAEB0606734393FB8A
:100B5800FBFBBDF81030CAEB0B0A1AFB03FAB94BC2
:100B6800A4F804A0BC459D7009DAB74D3EF80530DD
:100B78005B422EF80530013103297FF46EAFB34D87
:100B8800B5F896118A4205DBB2F5FA6FA8BF4FF4A3
:100B9800FA6200E00A46DFF8E4E2AB4F521A4FF47B
:100BA8007A736FF063005A43C1F5FA616423B2FBAC
:100BB800F1F292FBF3F13EF8116000FB01220131E2
:100BC80030B23EF91110091A4A4392FBF3F3334449
:100BD800E3809F4B9A4EB3F8008018F0400F3BD04B
:100BE8009C4BDFED9D7AB3F904309FED9C0A0A22F5
:100BF80093FBF2F3B6F886219B1A1BB208EE103A63
:100C0800B8EEC88A28EE278A38EE000A05F077F889
:100C1800F0EE408AB0EE480A05F071F8B7F90230F4
:100C280006EE903AB7F90030F8EEE66A07EE903A29
:100C380020EE667AF8EEE77AA7EEA87A67EE807A71
:100C4800BDEEC77AE6EEA87A17EE103AFDEEE77A1F
:100C58003B8017EE903A7B8095F89A3113B9B8F13A
:100C6800000F72D096F88A31754FB6F888814BB963
:100C7800012007F5C6719FED7A0A04F09EFD012355
:100C880087F88A31069B6E4F1B8800EE103A07F5ED
:100C9800C670B8EE400A04F067FDBCEEC00A8DEDE0
:100CA800040ABDF81030B8FBF3F06E4B00F1010EEA
:100CB8001B781FFA8EFEA6F8B0E11BB3B7F8B29105
:100CC80000215F4E34F811C006F5DE7706F5DA78B4
:100CD80037F8113038F8112027F811C0C3EB0C0A87
:100CE80012FB09F20FFA8EF392FBF3F3534428F840
:100CF800113001310429E4D15A4BA6F8B20100227F
:100D08001A7004E0B7F8B231013BA7F8B2314C4A87
:100D1800B2F8B20103B2002B4FF0000313DDB2F9B1
:100D2800B041514931F81320083112FB00F231F873
:100D3800131092FBF4F28A1A434921F81320013365
:100D4800042BEED101E0A2F8B23195F89B31002BCB
:100D58006BD03F4A1288510667D407EE903A9FED50
:100D68003E7A394C414DF8EEE77A67EE877A17EE0E
:100D7800900A0FF09BFD41EC100B41EC180B12F0A0
:100D88009FFDB4F900005BEC10AB0FF07DFDB0EEF9
:100D9800480AF0EE680A06460F4612F0E5FDB4F977
:100DA80004008DED040B0FF06FFD32468046894636
:100DB8003B46504659460FF0CDFD42464B46CDE9DD
:100DC8000601DDE904010FF0C5FD02460B46DDE929
:100DD80006010FF00DFC10F057F8B0F5FA7FA8BF28
:100DE8004FF4FA70A842B8BF284642464B462080C6
:100DF800594650460FF0AEFD3246804689463B467E
:100E0800DDE904010FF0A6FD02460B4640464946BF
:100E18000FF0EEFB10F038F8B0F5FA7FA8BF4FF4EA
:100E2800FA70A842B8BF2846A080114A114E13781C
:100E380013F0040F904623D00F4B20221A8557E059
:100E480088080020941E00208C1E00209C2300206F
:100E5800181200207812002035FA8E3CDB0FC93FAB
:100E680000000000381100203C0A00200CFEFFFFA3
:100E7800CB2F00201C12002000040048321600204E
:100E88003268D2075CBF43F0010388F80030974B03
:100E98001B781F075EBF98F8003023F0010388F81D
:100EA8000030934B1A88934B1AB1934A12689507EE
:100EB80006D4924A12881AB991490988642908D92E
:100EC80002221A7098F8003023F0010388F80030E5
:100ED80005E098F80010CC0758BF02221A700BF0F2
:100EE800CBF8884B1B68C01A002801DB0FF054FAB6
:100EF800854B9B680BB1854898473368844C854F70
:100F0800854D13F4801F00F09580B5F8009009F422
:100F180000691FFA89F9B9F1000F78D198F8003003
:100F2800580774D54FF4006004F05AFF3B68C4F8C2
:100F3800C4311A78D4F8C411022A04BF012284F8F3
:100F4800C821B3F85A2018BF84F8C8914FF47A73AF
:100F58005343724A94F8C8A1128893FBF2F35B4298
:100F68009AB26F4BA4F8CA2193F8009001F1200EB1
:100F7800002091F856C091F85330BCF1000F01D011
:100F8800634504D8B9F1030F05D8022803D14FF0FF
:100F9800000C81F856C0DFF8A4C1BAF1000F19D0CF
:100FA80007EE903A9EED007AF2EE046AF8EEE77AE0
:100FB80027EE267AB4EEE77AF1EE10FA44BFC7EED0
:100FC800A67ACEED007ADEED007AFDEEE77A17EE2E
:100FD800903A05E091F801B09B4538BF4B704B78CB
:100FE8009B012CF810304A4B03F5E97C4FF0000BBD
:100FF8002CF810B003F5EC7C01312CF810200130EE
:1010080003280EF1040EB4D1012283F8DE212B88C7
:1010180019051AD498F8003003F0040303F0FF0808
:101028009BB994F8DE3183B105F08EF9384B83F81B
:10103800DE810AE02B881A0507D598F800305B078F
:1010480003D54FF4006004F0BBFE364BDFF8F09098
:101058001B78B3B1344BB3F90620B9F896319A42EC
:101068000FDC99F80530012B01D0192B02D199F822
:10107800E62132B90E2B04D0082B1EBF2B4B0022C1
:101088009A803B6893F82481B8F1000F5FD02B88D1
:101098009D075CD0264BDFED277A93ED080AB4EE66
:1010A800E70AF1EE10FA4DD912F07AFDD4ED787A0C
:1010B80020EE270A12F0ECFCB0F5617FA8BF4FF4D0
:1010C800617007EE900AB8EEE70ADFED1B7A80EE52
:1010D800270A04F014FE07EE908AF8EEE77A27EE66
:1010E800800A12F0D5FC80B22DE000BFD810002095
:1010F800E8100020742F002014120020C82F0020B0
:101108007C220020782F0020082E0020421D00207D
:10111800880800205C120020181200200812002005
:10112800341F002002000020DE2200208C1E002038
:101138008C2000208FC2753CEFB6B044540A0020C2
:101148009C2300200020944AD3881844D080934BD5
:101158001B784BB1924B00221A605A609A60914BEF
:1011680000221A605A609A608F4B3868B9F86A2171
:1011780000938E4B1D688E4B196800F16403A847D5
:101188008C4B8D4993F803808C4B1D78032D16D911
:10119800D4F8E4315F88B7F5FA7F10D27E4BB1F905
:1011A80004E0B3F904000028B8BF40427A42131A99
:1011B8009E4503DB3B187345A8BF73468B80326896
:1011C80012F000620CD00020B1F802E0B1F800C0C3
:1011D800D4F8E491B1F904A0794E0246074675E0C7
:1011E800784B4E881A706C4B0F88B1F904E0D88898
:1011F800D4F8E4417449AA4201F1100180F07B81DE
:1012080094F9003051ED045ADFF8D0C15B420EFB6F
:1012180003F307EE903A3BB206EE903A03B206EEBD
:10122800103A33B2B8EEE77A07EE903AF8EEE77A7A
:10123800B8EEC66A67EEA57A51ED065AE6EE257A4B
:10124800F8EEE66A11ED056AE6EE867A51ED036A74
:10125800E7EE267AFDEEE77A17EE903A2CF8123090
:101268000132C8E799F9001096ED016A49420AFB74
:1012780001F107EE901A0FFA8EF306EE903A0FFA84
:101288008CF3B8EEE77A07EE903AF8EEE77AF8EEE4
:10129800E66A67EE867A96ED026AE6EE867A0DA928
:1012A8000FFA82FBD6ED036AE7EE267AFDEEE77ABF
:1012B800CDED047ABDF8103021F8173019B2594530
:1012C80007DD1A460346013710361846AF42C9D320
:1012D80005E00FFA80FB5945F5DB1346F1E7121AD2
:1012E80093B23A4E3A4AD7883268D00424D539495D
:1012F80009688888B1F806E03AB2CEEB000C62457E
:1013080006DC354AB1F800C012680121128808E0ED
:1013180086447245304A1268B2F802C04A8803DB34
:10132800002184F8A81200E01746A4F8AAC2A4F87D
:10133800AC22A4F8AE7204E0274A11680A88B1F812
:1013480002C020481FFA82FE1FFA8CFCCEEB0C0963
:101358001FFA89F91BB20FFA89F293424FF0000184
:101368003EDD4FF0010C80F800C0A9420BD20DF110
:10137800340C3CF8110010FB09F090FBF3F02CF84A
:1013880011000131F1E7022392FBF3F30EEB0302A4
:1013980092B204922FE000BF8C1E002004000020AF
:1013A800801E0020F02D002022250020140300209C
:1013B80084120020502F0020BC1E0020341F002063
:1013C800700A0020CF2F0020780A0020402F00202C
:1013D800DE220020002000200420002060120020CF
:1013E8000170022193FBF1F30EEB0302C3EB0C0334
:1013F8009BB292B20493336894F8A802874E03F420
:10140800805A03F010030A93854BD6F800901B7896
:1014180003F00403DBB2014606938248824B00685E
:10142800B3F906E0D4F8B032804C09930026AE42F6
:1014380061D20DAB33F9163007EE903A3BB206EEA7
:10144800903A7B4B03EB0613B8EEE77AF8EEE66AC0
:10145800D3ED007A13B266EEA76A07EE903AF8EE7B
:10146800E77AF4EEE76AF1EE10FA0CD4BDF9103021
:1014780007EE903AF8EEE77AF4EEE76AF1EE10FA42
:10148800D8BFF0EE667A77EE277AFDEEE77ACDEDF3
:101498000B7ABDF82C3024F8023F1BB2B8F1000FCC
:1014A80002D0B0F804C00DE0BAF1000F08D021B1A5
:1014B800B0F800C0B9F800B006E0B9F802C001E021
:1014C800B0F800C0B0F802B0634503DB5B45A8BFC5
:1014D8005B469C460A9BA4F800C053B1069B43B1E7
:1014E800BAF1000F05D1099B1B8A9E45BCBF8388B2
:1014F800238001369BE74A490A7802F0040202F089
:10150800FF038B4612B94B4A127867E04A4B1B68B7
:1015180013F0006308D0494890F8B432013BDBB2BD
:10152800182B00F2988163E0454A424E17684549F6
:1015380017F4805C15D10A8835780124AC4210B2C2
:1015480007D231F914209042B8BF104682B2013454
:10155800F4E7344B1B685B889842C6BFD31A9BB22A
:101568000023314A3678B2F90640344AD2F8B0E25C
:101578002A4A15682B4A1068324A01EB4606B242DD
:10158800C9D0BCF1000F40F0F8831188C91A89B29C
:101598001180B0F8029009B2B8F1000F0AD0B0F883
:1015A80004A0514503DB4945A8BF49468A46A2F82D
:1015B80000A011E0B0F800A0514503DB4945A8BFE1
:1015C80049468A46A2F800A0BEF810108C4203DAF9
:1015D800F90601D5818811800232D0E793429AD268
:1015E800194931F81300174921F813000133F5E7B9
:1015F80001229A40154B1340002B00F02C81144B0C
:1016080009491B8813F4807F26D0124B1A88ADF83D
:1016180034205A88ADF836209B8833E0002000201B
:10162800CB2F002004200020DE2200205E120020A4
:10163800700A0020341F00201C1200208808002097
:10164800402F002060120020562200209920980187
:10165800181200208C1E0020B34B1A88ADF83420D5
:101668005A88ADF83620B14A9B881268ADF83830F0
:10167800D40409D5D0F8B022B1F90640D2899442F1
:1016880002DA5B42ADF83830A94DB5F902304FF4B3
:101698007A7203F5E16353434FF4616493FBF4F307
:1016A800A3F5FA73ADF84C30B5F9003003F5E163F2
:1016B8005A43A04B92FBF4F21B88A3F2DC53A2F529
:1016C800FA72ADF83A30D0F8B032ADF84E20DB8976
:1016D8000A88D21AADF83C204A88D21AADF83E20C2
:1016E8008A88D21AADF84020CA88D21AADF84220AA
:1016F8000A89D21AADF844204A89D21AADF8462090
:101708008A89D21AADF84820CA89D31AADF84A3066
:101718000023894A002122F813100133082BF8D13D
:10172800864A874B12680492864A1B781268864953
:101738000692864D072202FB0318414572D00B78AA
:1017480033B103F1150201239340049A134065D085
:1017580011F806EC069B11F805AC11F8034C11F8CA
:1017680001CCCEEBCE0703EB47076420B7F9002086
:10177800B7F902309B1A9BB211F9022C4FEA5309B0
:101788005A434FEA4A0692FBF0F214A8C9EB020248
:1017980092B2064414B936F81C0C0CE0B5F90000F6
:1017A80036F91C6CB04208DA0444844203DBA642D2
:1017B8003046A8BF2046288008E007DD041BB44255
:1017C80003DB8442A8BF044626462E80D7F80A4089
:1017D80011F9046C012000FA0AF02042288812B29C
:1017E80016FB00F014BF4FF0FF340124642690FB71
:1017F800F6F090420ADB4FFA8CF25A4392FBF6F26B
:10180800C9EB020212B28242A8BF02464A4B33F821
:101818001E9002FB049423F81E4000E02B80023542
:1018280007318AE7474B4A4E1F6800250E2202FB04
:10183800057236F8023F92F90640E8B214FB03F34A
:10184800642493FBF4F434800AF0F4FE0135204458
:10185800082D3080EAD1354F374D3B68394E13F0AB
:10186800200F32D000200AF0E5FE2880044601202F
:101878000AF0E0FE314B68801B68190625D5354B08
:101888002B4AD3F8D8321B78012B22D13168138820
:1018980091F914E0B2F902201EFB03F34FF0320C69
:1018A80093FBFCF31FFA83FE91F906305B42534326
:1018B8006FF0310193FBF1F10EEB0102A11893FBDC
:1018C800FCF37344298018446880D6F800E00023AC
:1018D80018E0D6F800E053889EF9061011FB03F1D2
:1018E800322391FBF3F12144298011889EF91420B9
:1018F80012FB01F292FBF3F21044E5E70133082BE7
:101908002A5329D00E2101FB03E135F91300B1F95F
:101918000020B1F9021090424FEA4304EEDB0AB20C
:101928008242A8BF0246E9E7BC1E0020402F0020E3
:1019380078120020601200204A1200201C12002099
:1019480008200020DC1500200F2000203E0B00207E
:101958004812002088080020A34CD4F8E49199F993
:101968000830A3B994F8B48208F1FF33182B72D861
:10197800DFE803F03571714F7171714871717171E0
:10198800715971717171714F657171593500DFF855
:1019980078A24FF00008954B3AF9021FB9F90620D2
:1019A800882000FB08300AF06FFC32680E2380B2F2
:1019B80003FB0822AAF80000B2F90030B2F90220AD
:1019C80000B2984203DB13B28342A8BF034608F172
:1019D8000108B8F1080FAAF80030DCD1C2E799F87D
:1019E800043013B10020698908E09BF8003003F047
:1019F800040303F0FF00002BF4D1014603F06EFB53
:101A0800012629E00020E98803F068FB01202989E4
:101A180005E00020298903F061FB6989012003F0B2
:101A28005DFB022618E00226B01E35F81610C0B27B
:101A3800013603F053FB082EF6D106260CE00326E8
:101A4800F01E35F81610C0B2013603F047FB072E1A
:101A5800F6D1042600E000263B689A0602D4B8F1C5
:101A6800050F0AD13046298803F038FB701CC0B234
:101A7800698803F033FB0236F6B23B68DB0205D413
:101A880094F820377BB10AF01BFD0CE0DFF87C816D
:101A980000257019C0B238F8021F03F01FFB0D2D86
:101AA800EED00135F5E7524B1878002840F09181C7
:101AB8003B681D0340F18D8194F82137023B052BCB
:101AC80020D84C4B93F8D03733B1012B0AD108F00A
:101AD800B7FAC0F17F0005E0434BD3F82407036849
:101AE8009B689847D4F8283794F82C271344B3F503
:101AF800807FA8BF4FF480738342D4BFC4F82837CF
:101B0800C4F8280794F82137023B082B00F22E81ED
:101B1800DFE813F009003F002C012C0158007E007B
:101B2800F0000E011B01344B1A68D4F834376433C3
:101B38009A4240F21B8140200BF0E6FC002840F05E
:101B4800158140272D4BD4F83027274E985C1D4629
:101B580070B108F021FDD6F82837013BC6F82837C0
:101B6800D6F83037013F03F10103C6F83037E9D121
:101B7800D4F830271C4BAA5C002A40F0F780C3F841
:101B880030274FF0FF32C3F83427032283F8212788
:101B9800ECE0252300931A4B019303F10C02029207
:101BA8004920A3F10A025021023309F019F800284C
:101BB80040F0DC804FF0FF33C4F83437C4F8300706
:101BC8000623CCE00F4A05230021009301910291DE
:101BD800532002F1080309F003F8002840F0C680FA
:101BE800C4F830070723BAE088080020680B0020F3
:101BF800CC2F00209C2300204C2F00205863010884
:101C0800C26301087465010848120020E42200201C
:101C180040200BF079FC002840F0A880D4F8303739
:101C28000C2B00F2CC80DFE803F0070B0E1219250D
:101C38002A2F33374550540068480BF0F3FD53E022
:101C48006748684913E068486849694A4AE0694B47
:101C5800694893F8CE1793F8CF2743E0654B674858
:101C680093F8A8270C2101FB023393F8AA170BF06D
:101C7800D9FD39E05F4B6248B3F84011F7E75D4B97
:101C88006048B3F84211F2E75F4B60481969EEE724
:101C98005F4B60481988EAE7D4F83837D80404D588
:101CA800544B5D4893F87811E1E75C4B0B22C3F87D
:101CB800302719E04F4B5A4893F87C1193F87D214F
:101CC80093F87B310BF0AEFD0EE05648B4F83C17A4
:101CD800CDE73B68190507D5464B5348B3F8801143
:101CE800B3F97E210BF09EFDD4F830370133C4F8E8
:101CF80030373BE04D4B1B689A0116D5B4F8403796
:101D0800464D93B9D5F844370D93494B0E201B68BF
:101D18000E930DA908F0E4FC4FF48053A5F83E3764
:101D2800092385F8213708F033FD08F0BBFC1DE0D6
:101D380094F84837002BF6D03C4B1B689B01F2D433
:101D4800364B082283F82127EFE73A4B1A68D4F874
:101D58003437C8339A4205D90BF01CFC012384F8A8
:101D6800213703E00BF030FC0028F5D10BF0FCFB29
:101D780078B3012384F821372BE0BEF80E90E98868
:101D8800C1EB090A544502DD49448C4212DB4C453B
:101D9800C8BF6988B2F90090D6BF8188B0F802A0A0
:101DA800B5F800A08945FFF616ACD1454946A8BF4D
:101DB800514610E44C45CCBF698829880BE40BF0E8
:101DC80003FC0028D2D04FF48053A4F83E370923EF
:101DD800C5E715B0BDEC0E8BBDE8F08F1C86010879
:101DE800368601084B860108538601086786010874
:101DF800738601089C2300207C8601088D860108D3
:101E080097860108A6860108082E0020B5860108D5
:101E180008000020C5860108CF8601088808002030
:101E2800DC860108F5860108008701081C120020DD
:101E3800D80F00204C2F00202DE9F04F9F4C22682E
:101E480002F59C432DED028B203363609C4B1E787A
:101E580087B0C6B19B4909688A4240F20181013EB8
:101E68001E70FDE0984F99483B68072D98BF595D53
:101E7800974B88BF29461B689847032D09D904EB5F
:101E88004505013628810EF01DFAF5B28542E9D3E1
:101E98001FE03A6805F10E0302EB8303D9881A891B
:101EA8000028ECD04FF47A73401A5843531A90FB29
:101EB800F3F040F6C90300F57A70984205DC40F269
:101EC800EE239842B8BF184601E040F6CA0080B237
:101ED800D5E7804B804F1B68D7F8008042F2010994
:101EE80003EA0909B9FA89F94FEA59197B4BB9F19B
:101EF800000F05D194F82C201A70794A5178117086
:101F08001E781EB1764B1E7886F001060F23DFF887
:101F1800ECA184F82D3000250EF0D4F9854264DA5E
:101F28004FEA450B1EB16F4B33F8150000E0304601
:101F3800654BDFF8CCE11968CB8A83424FEA85020A
:101F4800694B02D8098B814219D25EF802205B499D
:101F5800904502D233F80B0015E0E8B28DE80A008C
:101F68000EF0C8F9032D019B0DDC0099012291F8B0
:101F78002DE0AA402EEA020281F82D2003E008F5A0
:101F880096714EF80210B9F1000F28D194F8C010DC
:101F98000322B1FBF2F202EB42028A1A0BEB050EA6
:101FA8005EFA82F204EB4202D08594F8C1202AB985
:101FB800022914D9414A012182F8C110BAF8002037
:101FC8003AF8020C1044BAF802201044474A80B28A
:101FD80022F80B0000B2032290FBF2F080B223F843
:101FE8000B0001350AF1060A96E794F82D20404BBC
:101FF800A2F10F0EDEF1000242EB0E0284F8DA20A5
:102008006AB13C4A1268560109D43A68D9689A609C
:10201800521AC82A1FD9012283F821201BE0304A0E
:102028000121517011703A689968DA605B68521A38
:102038009A4282BF2E4B002283F8212000250EF001
:1020480041F9854207DAE8B20EF054F9264B23F835
:1020580015000135F3E794F8C030013384F8C03037
:102068001C4B1A6812F4805F984605D0214B1B68F8
:10207800DD0701D40DF042FB134B104E1F68216899
:10208800BB7A002B3ED0013B17483A7B30F813301F
:102098001AB1C3F53B6308339BB21BB2A3F57A733D
:1020A800B3F57A7FA8BF4FF47A7323EAE37307EE98
:1020B800903A9FED117AF8EEE77A5BE0D80F0020AE
:1020C800482F0020442F00203C2F00207C2B00208C
:1020D800B8020020402F00204C2F00201C170020A1
:1020E80000000020E00F0020DE2200209A100020CF
:1020F800502F00201C12002000007A4408100020F5
:1021080050100020D8F8002010043FD5D6F8DC2065
:102118008A1A002A3ADB01F59C422032C6F8DC20F4
:10212800AC4A5079AC4A32F81050A8B2FD7A90FB0C
:10213800F5F596F8E000013000F00F0286F8E0208F
:10214800324482F8E1501A46A448185C013302442C
:10215800102B92B2F8D112B292FBF3F31BB2642B9C
:10216800A8BF642323EAE37307EE903A9FED9C7AB5
:10217800F8EEE77AC7EE877A9A4A9FED9B7A67EE80
:10218800877AFCEEE77A17EE903A1380D8F8003099
:10219800964D13F4807F00F0EA80954BDFF8549257
:1021A800994205D999F8022012B9012289F802202A
:1021B80099F80220002A00F0DA808E4A2F7892F8E7
:1021C8002160721E564256418B4A1168002EC1F397
:1021D8008063C7F380070093924614BF4FF0000B4B
:1021E8004FF0030B99F82020052A00F2BA80DFE8A7
:1021F80002F0034D527584A1002F3AD0D4F8F400B0
:10220800B4F8F81009F0F4FE012809D17B497C4A9A
:1022180009681268C988642000FB0122C9F81020E7
:10222800009B6BB1754A126812794AB10DF048FFEC
:10223800032289F820204FF47A72C9F81C20D1E7CC
:10224800002E40F08E806E4AD9F810101068694A46
:1022580088420AD901920DF033FF019A032182F8CE
:10226800201040F6B831D161BCE7012182F8201076
:10227800B8E7009B4FF4806013B103F0B1FD01E0B3
:1022880003F09EFD0022C9F810206AE0002E46D116
:102298000DF016FFA6E726B1052289F820200120B7
:1022A80000E0304667B1D4F8F420D189554A11804E
:1022B80051809180514909684988D1804FF0020BBB
:1022C8004F4A1168D9F81420914201D8002F45D1FE
:1022D80047F23052C9F81C20032221E02A7842F044
:1022E80002022A700DF00AFA454AD9F81C10126841
:1022F8000A44C9F81820042212E0414A9EB1116824
:10230800D9F8182091422CD93F4A92781AB9DAF8AC
:102318000020D30725D42A7822F002022A70052249
:1023280089F820205EE71268D9F81C100A44C9F819
:10233800182016E03149324A09681268C9886420B1
:1023480000FB0122C9F810204FF48060002289F8B0
:10235800202089F8032003F033FD43E700287FF4A9
:1023680041AFBBF1000F02D0584609F0E7FE274EF7
:10237800254FB6F84E1106F5C37009F039FE8246AE
:10238800002847D11C4B1B6813F0006908D0FB7864
:1023980033B90CF0D9FF1E4B012818BF0020187064
:1023A8002B78580709D5D8F80030D90605D4B9F1E3
:1023B800000F02D0FB78002B4BD0114B1B6803F5A4
:1023C8007A730122C4F8FC30114B3A71FA7000227A
:1023D8001A703EE0F014002000150020B91000200B
:1023E8000000C8427E12002000C07F44CB2F00208E
:1023F800404B4C00502F00201C120020202E0020A3
:102408004C2F0020DE220020000000209C2300200A
:10241800D02F0020D8F80030DA0615D42B785B07C7
:1024280012D5924B1B6818010ED5FB7863B1904BFF
:102438001A68D4F8FC309A4209D90CF085FF30B9F3
:102448008C4BF870187002E08A4B00221A70002337
:102458003B712B7859073AD5D8F80030DA0636D5CB
:1024680094F80031DFF81092DB0630D4BB7843B320
:1024780096F8E031BAF1000F11D15BB17C4B1A68C4
:10248800D9F804319B1A002B04DA0DF037F989F8D2
:1024980008A11CE0102009F051FE01230EE03BB119
:1024A800734A12684FF47A7101FB0323C9F80431A7
:1024B80094F808315BB109F029FE002384F808314B
:1024C80005E0BAF1000FE5D099F80831F2E70022EB
:1024D80096F8DEB196F8DF11B6F896E1B6F898C12D
:1024E8001346DFF8A491CDF8009039F912009B0843
:1024F8007045C4BF63F07F03DBB201326045B8BFEB
:1025080043F04003042AECD194F809215A489A422E
:1025180005D190F80A21F92A04D8013200E00022F6
:1025280080F80A2184F80931BB78534ADFF83C91D6
:1025380033BBD9F80000C0070AD582F80B31BAF1CD
:10254800000F1DD12B78DA071AD50CF03BFF17E0E6
:102558002B785B0714D5494B1B788BB1484BDB783C
:1025680073B992F80B310133DBB2032B82F80B31CC
:1025780006D911B10DF0C2F802E0BAF1000FF9D096
:1025880094F80A313C4ADFF804A1142B40F08F80FC
:10259800BB781BF1000B18BF4FF0010B6BB392F81F
:1025A80009315F2B11D12B7803F0040303F0FF01ED
:1025B80013B10DF0A3F808E00B200291019209F085
:1025C800BDFD019A029982F80A11BBF1000F14D0DF
:1025D80094F809317D2B10D12B7803F0040303F014
:1025E800FF0213B10DF08AF807E00B20019209F001
:1025F800A5FD214B019A83F80A212B7803F00403E7
:1026080003F0FF01002B52D194F809311A4A572BD5
:1026180004D11C4B4FF47A721A8048E0D8F80000B5
:10262800400717D55A2B15D192F80C312BB101233D
:1026380082F80C1182F80D3139E092F80E3183F0EE
:10264800010382F80E310BB10C2000E00D2009F0D7
:1026580075FD2CE05D2B00F026845B2B00F02584B3
:102668005E2B15D1032000F021BC00BF1C120020F6
:102678004C2F0020D02F0020D80F00201C1700203E
:10268800502F0020C82F0020DE2200205C120020DE
:10269800562B01D103F058FEBB78002B00F01984AB
:1026A80094F809316F2B40F00E840CF08BFED8F8AB
:1026B80000305F0738D594F80E31B74A9BB12B78B4
:1026C800580710D5009BB3F90610B6F89631994211
:1026D80009DDD9F8003013F0010302BF3221A2F856
:1026E800201182F80E31D9F80030D9030DD594F8AD
:1026F8002221A94B2AB993F80C2112B93222A3F846
:102708002021012384F822310EE094F80C31A24AEA
:1027180053B12B7803F0040303F0FF0123B901231D
:1027280082F80C1182F80D31DAF800A00023C9F8FC
:1027380000300AF187070AF1D70B3A787B7817F847
:10274800010C9A420DD2394606F070F948B117F8D3
:10275800022C012303FA02F2D9F800301343C9F816
:10276800003004375F45E8D18C4B1B783BB18C4B6C
:102778001A6812F0020F994640F036832DE30AF1E9
:10278800D6070AF58F793A787B7817F8010C9A42C0
:1027980025D2394606F04AF908B3BB7897F804C041
:1027A800804A97F803A07C480C21013B01FB0C41AF
:1027B80003EB43031344D1F828219A420FD0C1F800
:1027C8002831002390F85421C1F82C31012303FA51
:1027D8000CF322EA030381F824A180F85431063768
:1027E8004F45D0D1704B1F68704B1B680293704BDC
:1027F8001B7803936F4B009300230193009B1A6887
:10280800002A00F0DF8292F800A0BAF1000F00F071
:10281800D9825B680299CB1A002B0CDB01F5FA739D
:1028280000994B60019901238B4094F8541121EAD7
:10283800030384F85431039B002B00F0C382009BF0
:10284800517813F8043C0433DBB2002940F0798254
:10285800594931F91310B6F8943103F1C80081428F
:1028680002DD92F802B015E0C83B994203DA91788C
:10287800C1F1000B0EE0019A0123934094F8542112
:1028880022EA030384F85431029B009A03F5FA7391
:10289800536097E2019A94F854311341DA0700F132
:1028A8009182BBF1000FCCBF0220012009F080FC0F
:1028B8000AF1FF33DFF8E090132B00F27B82DFE8A8
:1028C80013F01400250037004B0064008300E60075
:1028D8004901B001DE010E0279024B005A00830063
:1028E800E6004901B8001B01800197F80090D9441F
:1028F800B9F1FA0FA8BF4FF0FA0929EAE979384681
:1029080087F8009006F078F801200FE097F801901A
:10291800D944B9F1640FA8BF4FF0640929EAE979ED
:10292800384687F8019006F067F802204946D3E157
:1029380097F803A0DA44BAF1640FA8BF4FF0640A0D
:102948002AEAEA7A87F803A03846D9F8581106F037
:1029580009F803205146BFE1797959446429A8BF91
:10296800642121EAE17179710D2009F071FBBAF156
:102978000D0F00F01F82397959446429A8BF6421DA
:1029880021EAE17139710E20A6E1B979594481F340
:102998000801B97105209FE1D80F0020CC2F002035
:1029A8001C1200209C650108841200204C2F002076
:1029B8001C17002000110020DE22002000007A44AD
:1029C8000000C84200000000D9F85C311A78022AD9
:1029D80020D107EE90BAB8EEE70A5FED077A93EDDB
:1029E800097A80EE270A30EE070AB5EEC00AF1EE42
:1029F80010FA07D4B4EE670AF1EE10FAC8BFB0EEC9
:102A0800670A01E01FED110A83ED090A0F2009F09A
:102A180009FB0AE099785944C829A8BFC82121EAC6
:102A2800E17199700F2009F013FBBAF10F0F00F054
:102A3800C181D9F85C311A78022A1ED107EE90BA02
:102A4800B8EEE78A5FED227A93ED080A88EE278AC6
:102A580038EE000AB5EEC00AF1EE10FA07D4B4EE6B
:102A6800670AF1EE10FAC8BFB0EE670A01E01FED81
:102A78002B0A83ED080A122056E159785944C829CF
:102A8800A8BFC82121EAE1715970122024E1D9F8C0
:102A98005C311A78022A20D107EE90BAB8EEE70A1C
:102AA8005FED397A93ED0C7A80EE270A30EE070A4B
:102AB800B5EEC00AF1EE10FA07D4B4EE670AF1EEEB
:102AC80010FAC8BFB0EE670A01E01FED420A83EDB5
:102AD8000C0A102009F0A6FA0AE0197B5944C82903
:102AE800A8BFC82121EAE1711973102009F0B0FAD2
:102AF800BAF1100F00F05E81D9F85C311A78022A19
:102B08001ED107EE90BAB8EEE78A5FED537A93EDDF
:102B18000B0A88EE278A38EE000AB5EEC00AF1EEF5
:102B280010FA07D4B4EE670AF1EE10FAC8BFB0EE97
:102B3800670A01E01FED5D0A83ED0B0A1320F3E03D
:102B4800D97A5944C829A8BFC82121EAE171D972A4
:102B58001320C1E0D9F85C311A78022A22D107EE95
:102B680090BA1FED6A0AF8EEE77A87EE800AD3ED8D
:102B78000F7A30EE270AB5EEC00AF1EE10FA09D442
:102B88005FED717AB4EE670AF1EE10FAC8BFB0EEE5
:102B9800670A01E01FED750A83ED0F0A112009F09D
:102BA80041FA0AE0997D5944C829A8BFC82121EAF9
:102BB800E1719975112009F04BFABAF1110F00F083
:102BC800F980D9F85C311A78022A20D107EE90BA38
:102BD8001FED860AB8EEE78A88EE008A93ED0E0AA2
:102BE80038EE000AB5EEC00AF1EE10FA09D45FED2E
:102BF8008C7AB4EE670AF1EE10FAC8BFB0EE670A35
:102C080001E01FED900A83ED0E0A14208CE0597D37
:102C18005944C829A8BFC82121EAE171597514206F
:102C28005AE0D9F85C311A78022A1ED107EE90BA18
:102C3800B8EEE78A5FED9E7A93ED0A0A88EE278A56
:102C480038EE000AB5EEC00AF1EE10FA07D4B4EE79
:102C5800670AF1EE10FAC8BFB0EE670A01E01FED8F
:102C6800A70A83ED0A0A09205EE0D9785944C829E1
:102C7800A8BFC82121EAE171D97009202CE0D9F850
:102C88005C311A78022A1ED107EE90BAB8EEE78AAC
:102C98005FEDB57A93ED0D0A88EE278A38EE000AC3
:102CA800B5EEC00AF1EE10FA07D4B4EE670AF1EEF9
:102CB80010FAC8BFB0EE670A01E01FEDBE0A83ED47
:102CC8000D0A0A2030E0597B5944C829A8BFC821F9
:102CD80021EAE17159730A2009F0BAF96AE0D9F8D2
:102CE8005C311A78022A22D107EE90BA1FEDCD0A7C
:102CF800B8EEE78A88EE008A93ED100A38EE000AEB
:102D0800B5EEC00AF1EE10FA09D45FEDD37AB4EE4D
:102D1800670AF1EE10FAC8BFB0EE670A01E01FEDCE
:102D2800D70A83ED100A0B2009F07CF942E0D97D1F
:102D38005944C829A8BFC82121EAE171D9750B20D7
:102D4800CAE7012936D190788C4A32F91390B9F53F
:102D5800617F05DB40F633039945A8BF994601E03A
:102D68004FF46179BAF10C0F24D1854A4FF4966378
:102D780093FBF0F01378A9F5617999FBF0F95FFA04
:102D880089F94B4516D0B9F1040F34BF4B460223DD
:102D980013707C4A0AFB036303F2AA73136003F0FF
:102DA80003F95046494609F053F909F10100C0B248
:102DB80009F0FEF9019A0123934094F85421134332
:102DC80084F85431019B01330193009B0C33009329
:102DD800019B042B7FF412ADC9E4D8F80030DB0561
:102DE8000FD5694BDB7863B1684B1B689F0708D523
:102DF800674B1B8813F0010708D1012002F0F0FF90
:102E080004E0012002F0DCFF012300E00023D9F8F0
:102E1800002050070BD553B1012002F0D1FF5C4BC5
:102E28001B88990706D4022002F0DAFF02E002208C
:102E380002F0C6FFD9F800301A054FF4807002D5A9
:102E480002F0CEFF01E002F0BBFF7379082B01D03E
:102E58000E2B02D1402002F0B3FFD8F800305B05FA
:102E680019D596F810321BB92B7813F0040F03E02C
:102E7800D9F8003013F4002F09D0464B00221A70FD
:102E88003C200CF02DFA30B10BF0DAF8F8E705F039
:102E980045FE0CF034F9012384F8603107B0BDEC2D
:102EA800028BBDE8F08F012000E00220C7B27B1E34
:102EB80086F8A83702F0DEFF03F09AF8384609F0E2
:102EC80077F9FFF7F4BBBBF1000F02D07E2B3FF47C
:102ED800ECAB94F80931304A972B05D14FF4C873FD
:102EE800A2F81031FFF7E3BBA72B07D192F8003106
:102EF80043F0040382F80031FFF7D9BB0021BB2B54
:102F0800059101D1022303E0B72B04D14FF6FE73DC
:102F1800ADF8163009E0BE2B01D1022303E0BD2B2A
:102F28001AD14FF6FE73ADF81430DAF80030BDF858
:102F38001410B3F864200A44A3F86420BDF81610EE
:102F4800B3F866200A44A3F8662003F0FDF90023CD
:102F580084F80A31FFF7ABBB792B04D192F817310B
:102F680023F0010306E07A2B7FF4A1AB92F8173126
:102F780043F0010382F81731FFF799BBDE220020E6
:102F88005422002084120020502F00201412002008
:102F980018120020882B0020D80F00202DE9F04FB0
:102FA8002DED028BAF4F8DB03D780097002D00F0CE
:102FB800A980AD4B1A689846002A00F0C387D8F854
:102FC800000009F05BF9002800F0BC87A64BA74D6C
:102FD800186809F050F9092801D03F284AD14FF064
:102FE800000A2F68A24C56462FB1A24821683A46DB
:102FF80013F02EF910B9A24606B926469E4B103496
:103008009C42F1D3C6B1D6F800E0DAF800C02B68CC
:103018001EF803401CF80300A0420DD15A1C954924
:1030280038B92D2B05D8914C22602024CC548854D3
:1030380002E0CC542A60EAE72B680BB1564510D061
:103048008E480BF007F9564507D856F8100B0BF0C9
:1030580001F909200BF0F6F8F5E789480BF0FAF8C2
:1030680000272B689F42AAD2824BD85D0BF0EAF862
:103078000137F6E72B68002B40F0EB86042840F078
:1030880046877C4804F01CF900F05CBFDBF80000C0
:10309800DFF818A209F0F2F810B3DAF8000009F026
:1030A800EAF8236893F84810074600293DD12428F8
:1030B80075D1012283F848202368724F93F848207D
:1030C800062AE3D193F8490000F056FF0446002889
:1030D80000F08D800BF000F83368002283F8482058
:1030E800694B9B7953B158F8050005F039FA09F096
:1030F80039FA02F095FE654B654ADA604C35982D31
:1031080000F02087DFF8A88105EB080393F84A2030
:10311800012AF3D15B4EDFF89491336055F80830FB
:10312800C9F800303446CB46B0E7012904D14D2810
:1031380014BF00220222BDE7022904D13C2814BF93
:1031480000220322B6E703290CD140284FF00001E2
:1031580002D983F84810AFE758711971D97198717D
:103168000422A7E7042907D1997983F8490080EA5E
:1031780001029A7105229DE705299DD1587919798F
:103188008842987906D978409871481C18710B4480
:103198001F7291E7B8420CBF062200228AE73D4B16
:1031A80019784A0788D42328DAF8001012D1019335
:1031B800009B012018702C48016033480160364894
:1031C8000BF048F82E480BF045F8019B197841F0B0
:1031D80002011970314B1B681B78BB4201BF304B91
:1031E800304A1A60294B04BF294ADA6064E73A6812
:1031F80092F849304A2B00F0238676D8332B00F01A
:10320800608422D8292B00F0FD8309D8252B00F0F3
:10321800B783272B00F0D683232B40F0168675E260
:103228002D2B00F0018408D82B2B40F00E860AF0D5
:1032380027FF1D4B587100F003BE2F2B00F0A3840D
:10324800312B00F0B38400F000BE3E2B00F0298142
:1032580038D8372B00F067842CD8352B00F08E82B5
:1032680000F0F3BDCC2F002078220020D0150020DC
:1032780074670108A015002044690108C487010883
:10328800C9870108702200203C11002000ED00E0F1
:103298000400FA05CB2F0020F9870108842B0020B1
:1032A800FC9F0020EFBEADDE9C230020742200208E
:1032B80004230020392B00F093833C2B00F0FC8082
:1032C80000F0C3BD432B00F00C8404D8412B40F020
:1032D800BC850024FBE3442B00F09C84482B40F081
:1032E800B48506F099FF00F0ABBDD02B00F0228327
:1032F80061D8CA2B00F0F58017D84E2B00F0B783A1
:10330800C82B00F0A1804C2B40F09F850AF0B8FE36
:10331800BD4C84F8D6010AF0B3FE84F8D7010AF050
:10332800B9FEA4F8D80100F08BBDCD2B00F00E83B8
:1033380004D8CC2B00F0498200F087BDCE2B00F0DA
:103348000F83CF2B40F081850AF0A4FE6FF4AF679E
:10335800C3199BB2AC4CC62B98BFA4F894010AF0D1
:1033680099FEA4F840010AF095FEA4F842010AF07B
:1033780091FEA4F844010AF08DFEA4F8D8010AF0E1
:103388007FFE0AF07DFE0AF07BFE0AF079FE84F8E3
:1033980083010AF075FE84F890010AF071FE9B4BD8
:1033A8001F680AF077FE00EB80004000A7F8620073
:1033B8000AF066FE17E3D82B00F03C810ED8D32B19
:1033C8003CD003D8D22B25D000F03FBDD42B00F041
:1033D8004382D62B40F03985002434E2F22B00F0EA
:1033E80080820FD8EF2B40F03085884C27680AF090
:1033F80051FEA7F8660024680AF04CFEA4F86400A1
:1034080000F01EBDF32B00F00984FA2B00F0B38204
:1034180000F01BBD7E4B1B7803F0040303F0FF0490
:10342800002B40F00D850AF02BFE774B022883F81D
:10343800A80740F2868283F8A84782E20AF02AFEAB
:10344800744B988000F0FCBC54796408122C03D9A2
:103458000BF096FF00F0F4BC4FF00009A14507D22D
:103468000AF018FE03AB23F8190009F10109F5E782
:1034780022460023A34207DA03A931F8130066495C
:1034880021F813000133F5E7122A05D0624B002119
:1034980023F812100132F7E7604B01221A7000F08E
:1034A800CFBC0AF0EDFD584C84F8E0010AF0E8FDC5
:1034B80084F8DF0100F0C4BC544C27680AF0E0FD32
:1034C80018B10228A8BF022000E001203870236844
:1034D8001B78022B524B14BF524A534A1A6000F011
:1034E800AFBC4A4B1A681278022A99466ED1D9F8AD
:1034F80000700AF0C5FD07EE900AF8EE677AB2EEA2
:10350800048AC7EE887A07EB840AD9F80070CAEDF6
:10351800087A0AF0B5FD07EE900A9FED447AF8EEB6
:10352800677A07EB840AC7EE877AD9F80070CAED84
:103538000B7A0AF0A5FD07EE900A9FED3D7AF8EEAA
:10354800677A07EB840AC7EE877A0134032CCAED41
:103558000E7ACCD1072CD9F800701CD10AF090FD56
:1035680007EE900AF8EE677AC7EE887AC7ED117A07
:10357800D9F800700AF084FD07EE900AF8EE677A31
:10358800C7EE887AC7ED127AD9F800700AF078FD8C
:1035980087F84C0015E00AF073FD07EB040A8AF877
:1035A8000100D9F800700AF06BFD07EB040AD9F89E
:1035B80000708AF80B000AF063FD07EB040A8AF82A
:1035C800150001340A2CC5D100F03ABCD9F80070B6
:1035D8000AF056FD07EB040A8AF80100D9F80070D2
:1035E8000AF04EFD07EB040AD9F800708AF80B00C0
:1035F8000AF046FD07EB040A01340A2C8AF8150084
:10360800E4D100F01DBC00BF9C2300205C12002008
:10361800CB2F00203C1100208C2E0020AD22002052
:10362800140300209DBC000815FC00080000C842D7
:1036380000007A44D64F9FEDD78AD7F800A00AF049
:1036480029FD07EE900AF8EE677A0AEB840AC7EEBE
:10365800887AB946CAED087AD7F800A00AF01AFDA8
:1036680007EE900AF8EE677A0AEB840AC7EE887AC2
:10367800CAED0B7AD7F800A00AF00CFD07EE900A05
:10368800F8EE677A0AEB840AC7EE887A0134032CCD
:10369800CAED0E7ACED1072CD9F800701CD10AF0E9
:1036A800F9FC07EE900AF8EE677AC7EE887AC7ED5C
:1036B800117AD9F800700AF0EDFC07EE900AF8EEDE
:1036C800677AC7EE887AC7ED127AD9F800700AF0DF
:1036D800E1FC87F84C0015E00AF0DCFC07EB040A73
:1036E8008AF80100D9F800700AF0D4FC07EB040A44
:1036F800D9F800708AF80B000AF0CCFC07EB040A32
:103708008AF8150001340A2CC5D199E30AF0B8FCEF
:10371800132881463FF69CAE9D4F3C680AF0B0FCEA
:1037280000239D490C2202FB0312117A814221D108
:103738000FFA89F904EB8904137884F885300AF0C4
:103748009FFC84F886000AF09BFC84F887000AF046
:1037580097FC924B924A1A6084F88800914B38681B
:1037680018600021853005F09BF98F4B80F001002F
:10377800187065E301331D2BD3D169E60AF080FC8C
:103788000B2881463FF664AE814B1C680AF078FC32
:1037980003283FF65DAE062303FB094484F8DA00EC
:1037A8000AF06EFC84F8D5000AF06AFC84F8D600AA
:1037B8000AF066FC84F8D7000AF062FC84F8D800A6
:1037C8000AF05EFC84F8D9003AE35379092B7FF6B6
:1037D8003FAE764C27680AF053FC387027680AF029
:1037E8004FFC78700AF04CFC23686428A8BF64205A
:1037F80018710AF045FC23686428A8BF6420587132
:103808000AF03EFC2368FF28A8BFFF2098710AF041
:1038180037FC2768642828BF6420F8710AF030FC58
:10382800B87027680AF02CFCF87027680AF032FC98
:10383800336878815B790A2B40F2028324680AF0A6
:103848001FFC2072FCE20AF025FC594B23F81400F7
:103858000134082CF7D1F3E253790F2B7FF4F8AD3C
:103868000AF00EFC072804463FF6F2AD484FD7F899
:1038780000A00AF00FFC0E235C43A244AAF825011D
:10388800D7F800A00AF006FCA244AAF82701D7F846
:1038980000A00AF0FFFBA244AAF82901D7F800A06B
:1038A8000AF0EEFBA2448AF82B01D7F800A00AF030
:1038B800E7FBA2448AF82C01D7F800A00AF0E0FB45
:1038C800A2448AF82D01D7F800A00AF0D9FBA24437
:1038D8003F688AF82E010AF0E7FB3B19C3F82F016D
:1038E800AEE20AF0CDFB0F2804463FF6B1AD0AF070
:1038F800C7FB304BC4EBC4041C4484F8D0000AF066
:10390800BFFB84F8D1000AF0BBFB84F8D2000AF0B0
:10391800B7FB84F8D3000AF0B3FB84F8D4000AF0AC
:10392800AFFB84F8D5000AF0ABFB84F8D60008F0AA
:1039380059FE85E2204B1B785C0700F1818209F073
:103948000BFB02F097FA02F053FB79E21A4B1B7853
:10395800580700F17582194B4FF4C8721A806FE24C
:10396800154B1B78590700F16B82154A137843F001
:103978000403137064E2104B1B785A07E1D564E224
:103988000C4B98600AF090FB02F042FA58E200BF34
:103998005C12002000007A440866010830110020FB
:1039A800DC240020341100200200002084120020B2
:1039B800562200209C230020CB2F0020E810002056
:1039C800D81000200AF066FBCB4CA4F858010AF086
:1039D80061FBA4F85A010AF05DFBA4F85C012FE230
:1039E8000AF04EFBC44C84F878010AF049FB84F8CD
:1039F8007C010AF045FB84F87B010AF041FB84F85E
:103A08007D011DE20AF046FBBB4CA4F87E010AF0DA
:103A180041FBA4F880010AF033FB84F882010AF024
:103A280039FBA4F884010BE20AF02AFBB24C84F8B3
:103A38008E010AF02FFBA4F898010AF02BFBA4F8DA
:103A480094010AF027FBA4F896010AF019FB3B68D9
:103A580084F88F015B79082B40F2F2810AF01AFB97
:103A6800A4F89C010AF016FBA4F89E01E8E1547939
:103A78000323B4FBF3F4122C3FF6EAAC9E4F4FF04D
:103A8800000AA24580F0DC810AF0FAFA87F8A00162
:103A98000AF000FB40F2ED23984205DD40F6CA0328
:103AA8009842A8BF184601E040F2EE20A0F2EE20AE
:103AB80019230AF1010A90FBF3F0023787F89F01F6
:103AC800DFE70AF0DDFA8C4B83F89001B8E10AF0E1
:103AD800D7FA894B23440134082C83F88601F6D1A0
:103AE800AEE10AF0CDFA844F7871BC600AF0DCFAD6
:103AF80002F08EF90AF0C4FA87F88E010AF0CAFAC1
:103B0800A7F858010AF0C6FAA7F85A010AF0C2FA4B
:103B1800A7F85C010AF0BEFAA7F87E010AF0BAFA23
:103B2800A7F880018CE153790724B3FBF4F2C2EBC8
:103B3800C2029A1A12F0FF0F7FF48AACB3FBF4F4B6
:103B4800013CE4B2FF2C00F07B810AF099FA5FFA9D
:103B580080FA4FFA8AF004F021FE074600283FF465
:103B680077AC80F800A00AF095FA78800AF088FA15
:103B780038710AF085FA78710AF082FAF8710AF059
:103B88007FFAB871DCE75C4C04F140090AF082FA6C
:103B9800A4F8A0020AF074FA84F8A2020AF070FAF3
:103BA800043484F89F024C45F0D149E10AF068FAE0
:103BB8001F2804463FF64CAC33685B79082B7FF42A
:103BC80047AC0AF067FA4C4F883407EB840900F0D9
:103BD8003F00A9F802000AF05DFAB9F80230800146
:103BE80000F4FE501843A9F802000AF049FA00014F
:103BF80007F824000AF044FA17F8243000F00F0000
:103C0800184307F824000AF03BFA89F8010005F088
:103C180067FB15E1394B01229A7111E10AF030FA7C
:103C2800FF288246354C6DD14FF0000904F1080099
:103C38004946602284F8079012F0C2FA8DF80B907A
:103C48009DF80B3094F86A202C4F9A424BD99DF876
:103C58000B3007EBC30393F86D30DB073CD59DF8B9
:103C68000B3007EBC30393F86C20254B33F9123064
:103C7800002B31DD9DF80B3097F8079007EBC30355
:103C88004FEAC90E1B6F58689DF80B3007EBC30A43
:103C980007EB0E01DAF8703088601A89CA8192B28F
:103CA800002101238B40134003D101311029F8D1A1
:103CB80000E00B4604EB0E0109F101098B81042396
:103CC8008DF80E3003A90123ADF80C208DF80F30C4
:103CD80001F006FB84F807909DF80B300133DBB246
:103CE8008DF80B30ACE701200AF01AFAF8790AF0DF
:103CF800E4F9FFF7EFB900BF9C2300203C11002036
:103D080060120020E3799842BFF4A2AB00200AF0C9
:103D180007FA0AF0E1F93368186804F021FCD9F8C9
:103D280000000AF08DF908F0F1F972B6DFF8209278
:103D380080234027A9F828304FF0010BA9F82870F4
:103D48004846ADF80C3003A904238DF80E308DF8E1
:103D58000FB04FEACA0A01F0C3FA484603A9ADF802
:103D68000C708DF80EB08DF80FB001F0B9FA04EBB5
:103D78000A00816883890A6803FA0BF30BFA03F3D4
:103D880013430B60C3898B614846C9F81870038ACE
:103D98001F06FCD404EB0A0301229868B3F80CE070
:103DA80001684FEA4E0E02FA0EF20A4302609A6860
:103DB800DB891385664A402111852021916140F6EF
:103DC8000559DFF88CB1BBF81020110605D4B9F1FC
:103DD800000FF6D009F1FF39F3E78361ADF80C3035
:103DE80004238DF80E3003A901238DF80F3001F05C
:103DF80077FAB9F1000F13D0554B1A8A1206C9D5B4
:103E080004EB0A018A68C989128A11424FF020021C
:103E18004FF0400115BF996119859A611A85EBE742
:103E28004023CBF818302023CBF8183062B60A208C
:103E380008F049F90BF063F93368F32283F8492055
:103E480000200AF06DF9FFF745B90BF099FAFFF772
:103E580041B90C2803D13F480AF0FCF949E00A2887
:103E680001D00D2847D13C4C3C480AF0F3F92046D4
:103E7800232112F0D8F908B1001B28602B687BB306
:103E88005A1EA15C202901D11346F8E7324A2B605B
:103E98000021D154324B334CD3F800A0D4F800B0F1
:103EA8002D4F584612F0CCF9064632463846594648
:103EB80012F0CEF92C4A20B9BB5D53445B78590700
:103EC80003D010349442E9D306E0944204D2701C23
:103ED800E3683844984702E024480AF0BBF9002315
:103EE8001D482B600021302212F06AF9009B1B78D4
:103EF80043B31F4807E07F280FD1013B164A1D48EE
:103F08002B600021D1540AF0A5F9FFF758B80C2806
:103F1800A1D07F2804D1FFF752B82F2B3FF64FA826
:103F2800A0F12002D2B25E2A3FF649A813B9202890
:103F38003FF445A85A1C2A60074AD0540AF082F96F
:103F4800FFF73DB80DB0BDEC028BBDE8F08F00BFA8
:103F580000040048CE870108A015002062950108DA
:103F6800200300207467010844690108D987010803
:103F7800C9870108F58701082DE9F04F2DED028B5F
:103F88004728A1B0044600F05A8600F2CE802E28B9
:103F980000F0098667D8222800F0B18423D80328C6
:103FA80000F0408214D8012800F03182022840F045
:103FB800928604200AF0B4F842200AF07EF85420D1
:103FC8000AF07BF846200AF078F84C2000F0BDBDD6
:103FD800042800F03182052840F07D861A200AF076
:103FE8009FF8002438E2282800F0768515D8242880
:103FF80000F05D85262840F06E86C64C06200AF043
:104008008FF8B4F858010AF08EF8B4F85A010AF09B
:104018008AF8B4F85C0100F0A9BD2A2800F06F8581
:104028002C2840F05886BB4C0C200AF079F894F8FC
:104038008E010AF042F8B4F898010AF074F8B4F85E
:1040480094010AF070F8B4F896010AF06CF894F844
:104058008F010AF032F8B4F89C010AF064F8B4F859
:104068009E0100F083BD3A2800F0E2821DD8342872
:1040780000F078840DD8302800F0AB85322840F065
:104088002A8601200AF04CF8A24B93F8900100F020
:104098005CBD362800F06D85382840F01C86042069
:1040A8000AF03EF89B4C00F008BD402800F050850F
:1040B80011D83B2800F01C843D2840F00C86954C14
:1040C80002200AF02DF894F8E00109F0F6FF94F8C0
:1040D800DF0100F03ABD452800F0EA8500F29E8530
:1040E800422840F0F8858B4C10200AF019F86079C6
:1040F80009F0E3FFA0680AF01FF894F88E0109F0B0
:10410800DCFFB4F858010AF00EF8B4F85A010AF0C6
:104118000AF8B4F85C010AF006F8B4F87E010AF06F
:1041280002F8B4F8800100F021BD6F2800F0CF82BA
:1041380000F2F880662800F0CB8100F2C2804D289A
:1041480000F0E38415D8492800F0BB824B2840F0E2
:10415800C285704C042009F0E3FF94F8D60109F0F9
:10416800ACFF94F8D70109F0A8FFB4F8D80100F023
:10417800FDBC642800F08981652840F0AC85664C58
:104188000B2009F0CDFF208809F0CDFF6268634B52
:104198009A420CBF2089608980B209F0C4FFE368A5
:1041A800C3F3C000C3F38002800040EA4200C3F3B7
:1041B80040021043C3F3401240EAC20003F0100368
:1041C800184309F0B0FF218A6369247E01F00802D0
:1041D80003F4475A4AEA020A03F480424AEA020A06
:1041E80003F400424AEA020A03F480324AEA020A65
:1041F80003F400324AEA020A03F480224AEA020A75
:1042080003F400224AEA020A03F480124AEA020A84
:10421800434A03F0007B12784AEA0B0A03F0006372
:1042280011F0010FC2F380024AEA030314BF4FF0F2
:1042380002094FF00009134311F0020F14BF4FF0A9
:1042480004084FF0000843EA090911F0040F14BFED
:104258004FF0100C4FF0000C49EA080811F0400F1D
:1042680014BF4FF0200E4FF0000E48EA0C0C11F06E
:10427800100F14BF4FF4007700274CEA0E0E11F010
:10428800200F14BF4FF4806600264EEA070711F48A
:10429800807F14BF4FF4006500253E4311F4007F72
:1042A80014BF4FF400100020354311F4806F40EA2A
:1042B800050014BF4FF08061002101430020034630
:1042C800F3E0692800F09A810AD8672800F0218174
:1042D800682840F00085102009F022FF002485E1BD
:1042E8006D2800F09E8100F2BF816C2840F0F384B5
:1042F800094C062009F014FFB4F8700009F013FF08
:10430800B4F8720009F00FFFB4F974300A2093FB77
:10431800F0F0D4E19C230020081200200054004053
:10432800CB2F0020772800F07B834BD8732800F030
:1043380097833CD8702800F0F481722840F0CB8431
:10434800BD4C162009F0ECFEB4F8940109F0EBFE20
:10435800B4F8400109F0E7FEB4F8420109F0E3FEC1
:10436800B4F8440109F0DFFEB4F8D80109F0DBFE27
:10437800002009F0A2FE002009F09FFE002009F0AD
:104388009CFE94F8830109F098FE94F8900109F0D6
:1043980094FE002009F091FEA84B5B6D0A20B3F94A
:1043A800623093FBF0F080B209F0BDFE85E374281B
:1043B80000F0FD82752840F08E842F2009F0B0FEB1
:1043C8009F4C8DE2A02800F064830AD8782800F07A
:1043D800AC807B2840F07F843C2009F0A1FE0024BB
:1043E80028E2F12800F0DC80FE2800F04483F02861
:1043F80040F07184914C042009F092FE636DB3F88B
:10440800660009F090FE636DB3F86400AEE3032024
:1044180009F086FE002009F050FE204609F04DFE06
:104428000D2092E309F07CFE022009F046FE2046AA
:1044380009F043FE042088E3062009F071FE4D20B0
:1044480009F03BFE4F2009F038FE542009F035FEF4
:104458004F2009F032FE1AE37A4B185D013409F057
:104468002CFE0B2CF8D10024774B185D013409F091
:1044780024FE082CF8D10024744B185D013409F08F
:104488001CFE072CF8D100F024BC072009F048FED8
:10449800E72009F012FE684B587909F00EFE00205B
:1044A80009F00BFE042000F012BCA3420AD2684AAD
:1044B8009D5C012202FA05F50D421CBF9A4010438B
:1044C8000133F2E709F038FE5B4B93F8A8073CE3A9
:1044D800122009F025FE5F4B1B88B3F5806F8CBF57
:1044E800082601260025554C04F1360333F915003A
:1044F80090FBF6F0013580B209F015FE032DF2D1DC
:10450800A08F09F010FEE08F09F00DFEB4F840000E
:10451800B5E2102009F004FE00244F4B185D013469
:1045280009F0CBFD102CF8D1D3E3702009F0F8FD89
:104538000026424D0E246B6D744323440136B3F8B4
:10454800250109F0F0FD6B6D2344B3F8270109F04C
:10455800EAFD6B6D2344B3F8290109F0E4FD6B6DA6
:10456800234493F82B0109F0A8FD6B6D234493F8BD
:104578002C0109F0A2FD6B6D234493F82D0109F07D
:104588009CFD6B6D234493F82E0109F096FD6B6D2D
:104598001C44D4F82F0109F0CFFD082EC9D198E3A7
:1045A8007020254C09F0BCFD04F1700594F8D0008A
:1045B80009F083FD94F8D10009F07FFD94F8D2004A
:1045C80009F07BFD94F8D30009F077FD94F8D40046
:1045D80009F073FD94F8D50009F06FFD073494F8DD
:1045E800CF0009F06AFDAC42E0D172E31B4B185DC5
:1045F800013409F062FD102CF8D16AE3184D2878CF
:10460800400000F0FE0009F08BFD00242B789C424E
:1046180080F05F83134B33F8140009F084FD0134F4
:10462800F4E7062009F07CFD002009F085FD2EE264
:10463800042009F075FD49E39C230020081200209E
:10464800D765010867860108738601084B8601084B
:1046580021120020080000204A12002060120020C9
:104668007C2B0020DE220020072009F059FDB54BE5
:10467800B54C1888FF28A8BFFF20C0B209F01DFD5F
:10468800B24B18684FF6FF75A842A8BF284620EA23
:10469800E07080B209F047FDB4F8760009F043FDF8
:1046A800AB4BA06F93F883313BB10A235843A84220
:1046B800A8BF284620EAE07001E000F30F0080B2AE
:1046C80054E2022009F02CFDA24B18884EE29E4CC1
:1046D8000B2009F025FDE36F187809F0EEFCE36F75
:1046E800587809F0EAFC00262546EB6F964C3344CF
:1046F8000136187909F0E1FC032EF6D1E36FD87979
:1047080009F0DBFCE36F987809F0D7FCE36FD87801
:1047180009F0D3FCE36F588909F005FDE36F187AB7
:1047280013E2894C1E2009F0FBFC636D1B78022BF9
:104738004FF000056BD1636D03EB850393ED080A19
:10474800B2EE048A20EE080A0FF0A2F980F30800FE
:10475800C0B209F0B2FC636DDFED7F7A03EB85032D
:1047680093ED0B0A20EE270A0FF092F980F3080068
:10477800C0B209F0A2FC636DDFED787A03EB850324
:1047880093ED0E0A20EE270A0FF082F980F3080055
:10479800C0B2013509F091FC032DCCD1072D636D12
:1047A80023D193ED110A20EE080A0FF071F980F376
:1047B8000800C0B209F081FC636D93ED120A20EE87
:1047C800080A0FF065F980F30800C0B209F075FC1B
:1047D800636D93F84C3000EE103AB8EE400A0FF0D3
:1047E80057F980F30800C0B20BE02B44587809F061
:1047F80064FC636D2B44D87A09F05FFC636D2B442D
:10480800587D013509F059FC0A2DC7D161E2636D65
:104818002B44587809F051FC636D2B44D87A09F081
:104828004CFC636D2B440135587D09F046FC0A2D7C
:10483800EDD14EE2444D9FED498A6B6D03EB840345
:1048480093ED080A20EE080A0FF022F980B209F069
:104858006AFC6B6D03EB840393ED0B0A20EE080AE8
:104868000FF016F980B209F05EFC6B6D03EB840360
:1048780093ED0E0A20EE080A0FF00AF9013480B20F
:1048880009F051FC032CD5D1072C6B6D16D193ED93
:10489800110A20EE080A0FF0FBF880B209F043FC79
:1048A8006B6D93ED120A20EE080A0FF0F1F880B252
:1048B80009F039FC6B6D93F84C000BE023445878F1
:1048C80009F031FC6B6D2344D87A09F02CFC6B6D30
:1048D8002344587D013409F026FC0A2CD4D1F8E190
:1048E80014F8010F002800F0F48109F0E6FBF7E75F
:1048F800012009F015FC144B5B6D187825E1502058
:1049080009F00EFC0025104B5C6D154B04EB85047B
:104918000C2194F8852001FB0233013593F8380007
:1049280009F0CBFB94F8860009F0C7FB94F88700E0
:1049380009F0C3FB94F8880009F0BFFB142DE2D1FD
:10494800C7E100BF9815002008120020EC140020D1
:104958009C230020382F00200000C84200007A4421
:10496800D8650108482009F0DBFB0025C54B5C6DC4
:10497800062303FB0544013594F8DA0009F09DFB92
:1049880094F8D50009F099FB94F8D60009F095FB46
:1049980094F8D70009F091FB94F8D80009F08DFB42
:1049A80094F8D90009F089FB0C2DDFD191E14FF083
:1049B800000801260027B34B1A7E974227DA1933DD
:1049C8000024FA5CB04D0C2305F130016343595CB7
:1049D800914207D12B44586B11F032FC82462EB914
:1049E800B14605E001341D2CECD10EE080440CE00A
:1049F800D1450ADA0C2303FB04535B6B13F8090057
:104A080009F05BFB09F10109F2E70137D3E7002E52
:104A180000F05F815FFA88F009F082FB0026C9E7A1
:104A2800984D287E09F07CFB00242B7E9C4280F068
:104A38005081964BE65C002193480C2200F1300728
:104A480002FB01F3DA5DB24205D1034493F8380062
:104A580009F033FB02E001311D29EDD10134E4E70F
:104A6800082009F05DFB0124E0B2013409F025FBC0
:104A7800092CF9D12DE1082009F052FB002009F09A
:104A880052FB002009F04FFB002009F04CFB0020EE
:104A98006CE00C2009F044FB7D4B186809F04CFBD6
:104AA8007C4B186809F048FB7B4B18680FE1042021
:104AB80009F036FB794B986809E194F8780109F018
:104AC800FCFA94F87C0109F0F8FA94F87B0109F0F3
:104AD800F4FA94F87D0138E0704C072009F020FBC7
:104AE800B4F87E0109F01FFBB4F8800109F01BFB44
:104AF80094F8820109F0E1FAB4F8840136E0012063
:104B080009F00EFB654B58791FE0654C654D207820
:104B180000EB4000C0B209F003FB002623789E4258
:104B280005F1020580F0D58015F8020C09F0C5FAE8
:104B380015F8010C00EB800000EB800000F2EE207D
:104B480080B209F0F0FA0136E8E709F0B6FAC0E0F9
:104B5800082009F0E5FA0024504B2344013493F867
:104B6800860109F0AAFA082CF6D1B2E009F0DBFABE
:104B7800AFE0444B494C93F88000C0EBC000C0B292
:104B880009F0CEFA04F1200594F8F0010023464A12
:104B9800D25C904200F0A1800C33302BF7D108345E
:104BA800AC42F1D195E040203C4C09F0B9FA04F14F
:104BB8004005B4F8A00209F0B6FA94F8A20209F088
:104BC8007CFA043494F89F0209F077FAAC42F0D1E9
:104BD8007FE0E020314C09F0A3FA04F18005B4F835
:104BE800220200F03F0009F09EFAB4F82202C0F356
:104BF800861009F098FA94F82002000909F05DFA85
:104C080094F8200200F00F0009F057FA043494F8E1
:104C18001D0209F052FAAC42E1D15AE0234C0D20B2
:104C280009F07EFA05F01CFA09F047FAA08809F0A5
:104C380083FA206909F080FA05F0F2F947E009F0F3
:104C480033FA0546842009F06BFA284609F074FA0D
:104C5800164B1C6905F18003A3428CBF641B80249A
:104C680004F092FC28462246694605F0FDFA002425
:104C78000546AC422DDA1DF8040009F01EFA01348D
:104C8800F7E700BF08120020D865010821120020AC
:104C9800ACF7FF1FB0F7FF1FB4F7FF1F9C230020DE
:104CA8007C2B00203C2500208C2B002008000020B5
:104CB800132009F035FA0024164B185D013409F069
:104CC800FCF90B2CF8D1002009F036FA002009F085
:104CD80033FA012018E0002016E009F0EEF9B4F8E4
:104CE800F20109F020FA94F8F40109F0E6F994F8D1
:104CF800F50109F0E2F994F8F70109F0DEF994F802
:104D0800F60109F0DAF94AE721B0BDEC028BBDE8FB
:104D1800F08F00BF6786010810F80A3C0133DBB248
:104D28000A2B84BF10F8131C044A00F80A3C82BFFF
:104D3800002322F8113000F80A3C7047B02E0020FA
:104D4800334A136C90681944081A40F68C23984229
:104D580070B513469160D06051603BD9127893F9D1
:104D680045108A4210460BD1111F082908D893F81C
:104D78004610182901D8013103E083F8442002E0E5
:104D8800002183F8461093F944402149A24219D1E1
:104D980091F84740B4B10C310024944206DA1D4D15
:104DA80051F8046F25F814600134F6E70C2805D093
:104DB8001849002421F810400130F7E71648017817
:104DC8000131017083F84520002201211A7083F80F
:104DD800471070BD92F84710C9B1A0F2EF2440F215
:104DE800DA518C4208D811780B2905D80B1D0131EE
:104DF800117042F8230070BD002283F84720074B4A
:104E080003F13002002143F8041F9342FAD170BD28
:104E1800B8030020B02E0020AE220020C4030020DA
:104E2800024A136C0133194411647047B803002017
:104E3800024B53F820301B6819607047041F00208C
:104E4800064B53F820301A681B89A1F57A7159432B
:104E58004FF47A7391FBF3F111607047041F00203F
:104E6800F0B5046D8668236823F001032360837915
:104E7800054613F0020F40790CBF4FF0000E4FF4B7
:104E8800005E13F0040F14BF4FF48067002710F082
:104E9800010F14BF042100218307206820F00100BE
:104EA8002060626822F440524EEA02026260226880
:104EB80022F4B05323F00C0348BF41F008013B43F0
:104EC8000B432360A36895B023F44073A36068463E
:104ED80001F054FE284B9C4201D10C9B0EE0274B5D
:104EE8009C4201D10D9B09E0254B9C4201D10E9BB0
:104EF80004E0244B9C420CBF0F9B109B2268A879AE
:104F0800170448BF5B00B3FBF6F206FB1233B3EBA2
:104F1800560F236828BF01321E0441BF4FF6F073B5
:104F2800C2F34201134041EA03026B7992B213F0D3
:104F3800020FA28100F0010114BF4FF400320022D9
:104F4800DC0748BF42F480322B6D11B159680A431F
:104F580002E0596821EA02025A609A6801074CBFC8
:104F680042F0080222F008029A601A6842F0010230
:104F78001A6015B0F0BD00BF003801400044004081
:104F880000480040004C00403D4B1B78012B30B5D9
:104F980014BF00240324B1B9036A23F00103036298
:104FA8008169036A21F0F30123F00A0341F001014A
:104FB80042F001021A4341EA0411816102628369E5
:104FC80023F00C031BE004291DD1016A4FF6EF738F
:104FD8000B4003628169056A120121F473414FF69F
:104FE8005F7342F0100241F480712B4092B2134378
:104FF80041EA043181610362836923F44063836178
:105008008369836130BD0829016A1AD14FF6FF63AD
:105018000B400362C169036A9BB289B223F420631F
:1050280043F4807321F0F30143EA022241F00101C5
:1050380092B241EA0411C1610262C2694FF6F37388
:1050480019E04EF6FF730B400362C369056A40F628
:10505800FF41194045F6FF732B4043F4805343EA60
:10506800023241F4807192B241EA0431C1610262B4
:10507800C2694FF2FF331340C361C369C36130BDD6
:10508800B403002038B510F80E2C50F8043C044640
:1050980052B9012200F80E2C20F80C1C997A1868D5
:1050A8000222BDE838406FE730F80C2C20F80A1CC3
:1050B800891A89B220F8081C074A10F80F0C002535
:1050C80022F8101004F80E5C1868997A2A46FFF73F
:1050D8005BFF04F8065C38BDB02E0020044B53F883
:1050E80020301BB107289CBF1B681960704700BFA0
:1050F800E0040020084A13689B050BD5074B0021E4
:105108001970074908684FF6FE7303400B604FF4A7
:1051180000735360704700BF00000240CD2F00208D
:10512800300002402DE9F047664D2B6866490A7841
:10513800581C02F0FF068E460AB10346F6E72B60BC
:1051480095F80880687AAA7AEB68374639B2202938
:1051580000F09B80DFF880C10CEB81033CF8211044
:10516800DC789B78C3F1FF039BB2002B65D0C3F1B9
:10517800FF0363434FF03C0C1B12B1FBFCF9B9F180
:10518800050F5DD8DFE809F0030B1A293A4AE01A3F
:10519800DAB24143B1FBFCF01044C0B251E0B1FBBC
:1051A800FCF00CFB101189B2DAB2C1F13C01E31A30
:1051B8004B432046B3FBFCFC94442CE0B1FBFCF0D1
:1051C8000CFB10115FFA83F8E21A89B24A43B2FB6A
:1051D800FCF24244D2B2204632E0B1FBFCF90CFBAF
:1051E800191189B25FFA83F8E01AC1F13C0148430A
:1051F800B0FBFCF04044C0B2224621E0B1FBFCF811
:105208000CFB1811D8B289B2E31A01FB03F2B2FB06
:10521800FCFC224684445FFA8CF412E0B1FBFCF8F3
:105228000CFB181189B2D8B2C1F13C01E31A4B4307
:10523800B3FBFCF20244D2B203E02246204600E06F
:1052480044464FEA042C4CEA004C4CEA020C172363
:1052580006F117014FF0010808FA03F8C91A18EA0D
:105268000C0F89B2DFF8748014BF4FF011094FF0AA
:10527800090913F1FF3308F80190E9D2183601370C
:10528800B6B2BFB2114BA04660E7AA72EB60104AF3
:10529800E98001238EF800300E4985F8088040F235
:1052A8002A336872AE80536000234B620B889BB22E
:1052B80043F001030B80136843F001031360BDE85A
:1052C800F08700BF98120020CD2F0020A0120020E8
:1052D80030000240004401408A16002028050020C2
:1052E80073B506460D46002401232A88A3401342BD
:1052F8001AD0AA78009302F003038DF80430EB78F3
:10530800022B03D0032B0CBF032301238DF8053098
:105318003046C2F301136946C2F381028DF80630A4
:105328008DF8072001F0EEFB0134102CDCD102B01F
:1053380070BD2DE9F04F734E357C07460C4687B09B
:1053480011469A4600686B1C914622464FF0020BA4
:10535800337408F073FC3B897868ADF8043001A910
:105368008DF806B08DF807B0FFF7BAFF0023ADF847
:105378000A30ADF81230ADF8163070230193BA7ABE
:105388003C68CDF80CA0012306F114082D01ADF8F6
:1053980008304FF48073A844ADF810B0ADF814305D
:1053A8000C2A7ED8DFE802F0077D7D7D0F7D7D7DAC
:1053B800387D7D7D5E00204601A901F0ADFAA36924
:1053C80043F0080326E0236A4F4823F010032362C2
:1053D800236A6168A26922F0807222F4E64284425C
:1053E80042F4E04206D000F50060844202D043F067
:1053F800300307E023F0E00321F4406143F0300379
:1054080041F480616160A261C4F838A02362A36995
:1054180043F40063A36144E0236A3B4823F48073A8
:105428002362226A6168E369844223F0730343F0CC
:10543800700306D000F50060844202D042F4407246
:1054480007E022F4606221F4405142F4407241F4D2
:1054580080516160E361C4F83CA02262E36943F0D3
:1054680008031DE0236A284823F480532362226A34
:105478006168E369844223F4E64343F4E04342F479
:10548800405203D000F50060844201D141F48041CC
:105498006160E361C4F840A02262E36943F40063F9
:1054A800E3613A7B3B681AB15A6C42F400425A6491
:1054B8001A8892B242F001021A80BA7A0C2A18D8D5
:1054C800DFE802F0071717170B1717170F1717172B
:1054D8001300721903F134010AE0721903F138015B
:1054E80006E0721903F13C0102E0721903F1400170
:1054F800516135444046A5F81C90AB6107B0BDE842
:10550800F08F00BF98120020002C0140054B9842F4
:105518000CBF054A054A138801339BB2138000204B
:10552800704700BF005400401012002012120020E3
:10553800400070B5C5B22D482D4B00684FF420448B
:105548001C608669360404D52646013C002EF8D135
:1055580012E04668274C344044F0807444F4903498
:105568002C4344604FF420441C608669B60726D457
:105578002646013C002EF8D11C601AE02146013C69
:105588000029F9D081690E06F8D5446819492140E7
:1055980041F0007141F48031294341604FF42041CA
:1055A80019608469A4070FD40C460139002CF8D17E
:1055B8001960FFF7ABFF003018BF012070BD4FF432
:1055C800204481621C60DDE782624FF420421A6049
:1055D8008169890605D41146013A0029F8D11A6073
:1055E800E7E71A602023C361012070BD0C12002078
:1055F80050210020009800FC144810B5046854B1EC
:1056080013490B6864225343124AB3FBF4F3138023
:10561800002303600B60002213460F491144087DE4
:10562800062803D0496A8B4238BF0B463432B2F59C
:10563800027FF2D1092B05DDB3F5967FA8BF4FF4A1
:10564800967300E00A23054A136010BD8008002005
:10565800840800207C2200207C0000207C08002098
:10566800F0B50124B0FBF4F58D4201D34C43F9E7C2
:105678000026D4B1B0FBF4F504FB1500B4FBF1F43B
:105688001EB9002D01DC002CF3D1092D03F1010E08
:10569800EFB204DD002A14BF3725572500E0302576
:1056A8003D441D7001367346E3E71C70F0BDF0B54C
:1056B8000124B0FBF4F58D4201D34C43F9E70026F1
:1056C800D4B1B0FBF4F504FB1500B4FBF1F41EB93A
:1056D800002D01DC002CF3D1092D03F1010EEFB2EE
:1056E80004DD002A14BF3725572500E030253D4446
:1056F8001D7001367346E3E71C70F0BD03685A1C41
:105708000260197070472DE9F843089E002B074680
:105718008846144614BF4FF030094FF0200933462D
:1057280013F8012B0AB9254603E0002CFBDD013CE8
:10573800F6E7002D04DD38464946C047013DF8E745
:1057480024EAE4743546A01B284415F8011B11B15E
:105758003846C047F7E7BDE8F883024B186806F0FB
:1057680090BD00BF3C11002090ED056AD0ED017A94
:10577800D0ED004A90ED024A90ED077AD0ED035A39
:1057880090ED045A66EE277AF0EE406AE4EE807AED
:10579800D0ED064AC0ED056AE4EE247A80ED066A8B
:1057A800E5EEC77AD0ED085A80ED087AE5EE657A1D
:1057B800B0EE670AC0ED077A7047B5EE400AF1EE21
:1057C80010FA10B504BF2D4B93ED000A2DED048B94
:1057D80002BFB8EE400A9FED2A8A20EE080AF7EECB
:1057E800008A08BF88EE800A0C4607EE900A9FEDF3
:1057F800258AF8EE677A67EE887A87EE808AB0EEB7
:10580800480A0EF08FF9F0EE409AB0EE480A0EF012
:1058180003F9B0EE409A9FED1C0A28EE000A80EECC
:10582800290A0EF07FF90023A36163612362E36113
:10583800B0EE687AA9EE807A78EEC96AF6EE007A58
:1058480066EEA77AE9EEC08AC7EE877AC8EE878A3D
:10585800C4ED007AC4ED027AF8EE007A29EE279AB0
:10586800C6EE876A89EE079AC4ED048A84ED039A26
:10587800BDEC048BC4ED016A10BD00BF382F0020B9
:10588800BD378635DB0FC940CA92283F10B502786C
:10589800202A034600F10100F9D0092AF7D02D2A61
:1058A80003D10346BFEE000A04E02B2A08BF0346D3
:1058B800B7EE000ADFED387A1A46134612F8010BE4
:1058C800A0F13001CCB2092C0AD807EE101AB8EEB4
:1058D800C77AF2EE046AA7EEA67AF0EE477AECE70A
:1058E8002E2816D1F2EE046A1146B0EE666A0B460F
:1058F80011F8012B303AD0B209280AD807EE102A3D
:10590800B8EEC77A87EE267A66EE866A77EE877AE9
:10591800EDE71A7802F0DF02452A35D15A782D2AA8
:1059280002D10233012004E02B2A14BF01330233D1
:105938000020013B002213F8011F3039CCB2092C9A
:1059480003D80A2404FB0212F5E7B2F59A7F28BFB0
:105958004FF49A721346B7EE007A072B05D9DFED9C
:105968000F6A083B27EE267AF7E702F007032BB108
:10597800F2EE046A27EE267A013BF8E7F0EE476A72
:1059880020B1C7EE877A03E0F7EE006A67EEA67AE1
:1059980020EE270A10BD00BF0000000020BCBE4C4E
:1059A80030B52DED028B87B0B0EE408A0C22002175
:1059B800054603A810F004FCB5EEC08ADFED2A7A8C
:1059C800F1EE10FACCBF38EE278A38EE678ADFEDA1
:1059D800277A28EE278A6946FDEEC87A17EE904A9C
:1059E80084EAE470A0EBE47009F028FC002CACBF5A
:1059F80020232D2368468DF80C3010F021FC012857
:105A080007D130238DF80D308DF80E308DF80F301A
:105A18000CE0022805D130238DF80D308DF80E30BA
:105A280004E0032804BF30238DF80D30694603A82D
:105A380010F0ECFB03A810F003FC0338C4B22246B4
:105A480003A9284610F026FC00232B5528460849B0
:105A580010F0DCFB03AB2846191910F0D7FB2846D9
:105A680007B0BDEC028B30BD6F12033A00007A44D8
:105A78001D89010870B5064615460846B6FBF2F4BE
:105A880014B12046FFF7F6FF05FB1464024B1B5DBB
:105A980000F8013B70BD00BF1F8901082DE9F04FD8
:105AA800814689B08A4616461C4600253178002969
:105AB80000F0DD80252902D00136484675E072786D
:105AC800302A08BFB278A2F1300319BFB71C4FF0D3
