:020000040800F2
:1000000000500020D9410108794201084915010832
:100010007942010879420108794201080000000094
:10002000000000000000000000000000794201080C
:10003000794201080000000079420108EDAC000897
:1000400079420108794201087942010879420108A0
:100050007942010879420108CD740008CB74000888
:100060007942010879420108794201087942010880
:1000700029AA000819AA0008F921010879420108F3
:1000800009AA0008F9A90008794201087942010883
:10009000794201087942010879420108C9740008CF
:1000A00079420108C51F010879420108D51F0108DE
:1000B000B91F0108A91F0108991F01085557000819
:1000C000595700084D570008515700087942010858
:1000D00079420108ED210108E1210108D52101083B
:1000E000FDAC0008794201087942010800000000D7
:1000F0000000000000000000000000000000000000
:0C01000000000000000000005FF808F1A3
:100110002DE9F04FA04BAFB01C780193002C00F0FC
:10012000E4809E4B1868002801F03E860AF03CFCF3
:100130009B4C20680DF05BFE002801F0358620689E
:100140000DF052FE0928974C01D03F2852D10027CC
:10015000B8462668944D2EB194482968324619F065
:10016000C1FD20B92F46B8F1000F00D1A846904B31
:1001700010359D42EFD34546B8F1000F1DD0D8F899
:1001800000C0D7F8009023681CF803E019F80300BA
:10019000704512D15A1C854958B92D2B09D8DFF862
:1001A00004E2CEF800204FF0200E01F803E088545E
:1001B00003E001F803E02260E5E723680BB1B845EE
:1001C0000FD07C480FF040F8BD4207D855F8100B0F
:1001D0000FF03AF809200EF0DDFEF5E70AF0F0FB2B
:1001E000002623689E42A3D2704B985D0EF0D2FE8B
:1001F0000136F6E72368002B41F05B85042841F0C7
:10020000AC856A480CF0EAFF01F0CEBD3068DFF83B
:10021000C4A10DF0ECFD002850D0DAF800000DF07C
:10022000E3FDDBF80030024693F84810002978D14E
:10023000242840F0D780012283F84820DBF80030E2
:1002400093F848000628E1D193F849604D2E00F05C
:10025000188600F2C681322E00F0348600F26181E9
:10026000242E00F0AC8500F21581032E00F08C8264
:1002700040F2EF80052E40F001811A200EF01EFEA4
:1002800000264D4B985D01360EF0D3FD0B2EF8D1B4
:1002900000264A4B985D01360EF0CBFD082EF8D1B2
:1002A0000026474B985D01360EF0C3FD072EF8D1AE
:1002B0000EF0CEFD2B68002283F84820414B1868D1
:1002C0000AF072FB404B93F8313053B158F80400F8
:1002D0000AF0E3FB0DF002FE0EF0B4FB3B4A3C4B90
:1002E000DA604C34982C01F05F85DFF8F48054F824
:1002F000083004EB0802002BF3D0364E079333602E
:100300000023354D354F8DF82130DFF8B890142398
:100310008DF8203006AB2A600697C9F80030AB464E
:1003200074E7012904D14D2814BF0022022283E77B
:10033000022904D13C2814BF002203227CE70329B0
:100340000CD140284FF0000102D983F8481075E71E
:1003500058711971D971987104226DE7042906D179
:10036000997983F849004A409A71052264E7052982
:100370007FF464AF587919798842987906D950404A
:100380009871481C18710B441A7257E790420CBFC1
:100390000622002250E700BFC2320020C8240020FD
:1003A000382000208820002064AB0108582000205D
:1003B00054AD0108BCC0010824C1010830C10108C6
:1003C00039C10108BC240020280900200400FA05D6
:1003D00000ED00E0C0240020B8240020FBDD000870
:1003E00030310020D6490B7803F0040303F0FF0EF0
:1003F000002B7FF423AF232ADAF800001CD10292ED
:10040000019A01231370CF4B03911860CE4B1860F3
:10041000986010201873CD485F6083F80DE00433B6
:100420000360CB480EF010FF0AF0CAFA0399029A53
:100430000B7843F002030B70C64B1B681B7893428A
:1004400001BFC54AC54B1A60C54A04BFC54BDA6037
:10045000F4E6012E00F06781022E40F0728604203F
:100460000EF02CFD42200EF0E4FC54200EF0E1FCD6
:1004700046200EF0DEFC4C2000F048BEC0F090811B
:10048000222E40F05E86B84E50200EF017FD06F189
:10049000500796E32A2E00F0D38419D8262E00F0B8
:1004A000AD84282E40F04D86AF4E07200EF006FD9D
:1004B000B6F81A020EF005FDB6F81C020EF001FDAA
:1004C00096F81E020EF0B5FCB6F8200200F0CEBD84
:1004D0002E2E00F03E85302E00F052852C2E40F05E
:1004E0003086A14E0C200EF0E9FC96F83C020EF08E
:1004F000A0FCB6F848020EF0E4FCB6F844020EF098
:10050000E0FCB6F846020EF0DCFC96F83E020EF077
:1005100090FCB6F850020EF0D4FCB6F8520200F08F
:10052000A5BD402E00F0D58424D8382E00F0758467
:1005300011D8342E00F06083362E40F002868B4BAB
:10054000894E187806F12807C0EBC000C0B20EF043
:10055000B5FC00F0FABC3B2E00F02C833D2E00F0E1
:1005600039823A2E40F0ED8504200EF0A7FC804B36
:1005700000F023BC462E00F029850BD8422E00F057
:10058000B784452E40F0DD8513200EF097FC002641
:1005900000F04BBD492E00F028824B2E00F056840F
:1005A000472E40F0CE850EF03BFC074684200EF02F
:1005B00085FC38460EF08EFC6E4B0DF13809DE6876
:1005C00007F18003B3428CBFF61B802609F06CF85C
:1005D00038463246494607F0B9FA0026074600F089
:1005E00009BD702E00F05A8259D8672E00F03E8166
:1005F00034D8522E00F0148518D84F2E00F0038501
:10060000502E40F09E85584E04200EF057FC0120DD
:100610000EF00FFC96F859050EF00BFC96F85705F6
:100620000EF007FC96F8580500F070BD652E00F03E
:10063000CA8000F2F280642E40F0838507200EF01D
:100640003DFCE7200EF0F5FB474B58790EF0F1FB2F
:1006500000200EF0EEFB042000F0F2BC6C2E00F047
:100660007D810ED8682E00F06281692E40F0698588
:10067000414F00263878400000F0FE000EF01EFCCE
:1006800061E16E2E00F0798100F2B58106200EF056
:1006900015FC3A4B18680EF01DFC394BA9E17C2E75
:1006A00000F0D2841CD8742E00F0C9820AD8722EB1
:1006B00000F02C83732E40F0448508200EF0FEFBE2
:1006C000012658E3772E00F0FF82782E00F0DA80C2
:1006D000752E40F036852F200EF0F0FB294E61E29A
:1006E000A02E00F05E8309D87E2E00F0D284C0F0E8
:1006F000C184962E40F025850C2065E0F12E00F097
:10070000F080FE2E00F03F83F02E40F01A85164E4A
:1007100004200EF0D3FBB6F8F2010EF0D2FBB6F8CF
:10072000F00100F0A3BC03200EF0C8FB00200EF087
:1007300080FB01200EF07DFB102000F0E7BC00BF25
:10074000C33200203820002028090020C8240020BF
:10075000ECC0010814180020EFBEADDEF04F002001
:100760000400FA0500ED00E0C82B00204819002025
:100770000C2A002090000020CC310020342A0020D8
:10078000140E00204B9E010830460EF097FB02200D
:100790000EF04FFB05200EF04CFB304600F0B6BCCF
:1007A00006200EF08BFB41200EF043FB46200EF09E
:1007B00040FB4E200EF03DFB41200EF03AFBA44BD7
:1007C000187800F053BC0B200EF078FBA14B188872
:1007D0000EF077FBA04B188880B20EF072FB9F4B97
:1007E0001B68C3F3C000C3F38002800040EA4200EC
:1007F000C3F340021043C3F3401240EAC20003F0C7
:10080000100318430EF05DFB0EF03CFA0EF062FB95
:10081000934B93F8AC0400F079BC12200EF04EFB21
:10082000904B00261B88B3F5806F8CBF08270127EB
:100830008D4B53F82600013690FBF7F080B20EF096
:1008400040FB032EF4D1894E30880EF03AFBB0887D
:100850000EF037FB3089864E0EF033FB30880EF0F9
:1008600030FBB0880EF02DFB3089FFE310200EF036
:1008700025FB00267F4B985D01360EF0DAFA102E2C
:10088000F8D115E5764E70200EF018FBB146002722
:10089000B6F856010EF015FBB6F858010EF011FB34
:1008A000B6F85A010EF00DFB96F85C010EF0C1FA95
:1008B00096F85D010EF0BDFA96F85E010EF0B9FAF9
:1008C00096F85F010EF0B5FA0E2303FB079301378C
:1008D000D3F860010EF0FEFA082F06F10E06D7D10C
:1008E000E6E470200EF0EAFA5D4E06F1700796F825
:1008F000E6000EF09EFA96F8E7000EF09AFA96F8E7
:10090000E8000EF096FA96F8E9000EF092FA96F8E2
:10091000EA000EF08EFA96F8EB000EF08AFA07362F
:1009200096F8E5000EF085FABE42E0D1C0E4102052
:100930000EF0C4FA0026504B985D01360EF079FA9D
:10094000102EF8D1B4E43B789E42BFF4B1AC4B4BCF
:1009500033F816000EF0B5FA0136F4E7484E0EF003
:10096000ADFA30880EF0ADFA70880EF0AAFAB6F93A
:1009700004300A2093FBF0F027E04FF6FF760720C3
:100980000EF09CFA3F4B1888FF28A8BFFF20C0B28A
:100990000EF04FFA3C4B1868B042A8BF304620EA30
:1009A000E07080B20EF08DFA384B18880EF089FA9C
:1009B0002B4B93F81F22364B186842B10A23584339
:1009C000B042A8BF304620EAE07080B24EE300F3A8
:1009D0000F00FAE7224E02200EF070FA96F88B0212
:1009E0000EF027FA96F88A0290E302200EF066FADB
:1009F000284B18883AE3284E0B200EF05FFA336834
:100A0000374618780EF015FA33684FF00009587819
:100A10000EF00FFA3B68204E4B44187909F101099A
:100A20000EF007FAB9F1030FF4D13368D8790EF05C
:100A300000FA336898780EF0FCF93368D8780EF035
:100A4000F8F9336858890EF03CFA3368187A5DE398
:100A5000BF320020BA32002014250020F8170020F1
:100A6000C82B002004000020080E0020C821002010
:100A7000602A002048090020A82200207C2B0020AA
:100A8000C0210020B411002064110020AA0E002013
:100A9000280E0020001800203C200020CB4E1E20F5
:100AA0000EF00CFA336800271B78022B66D13368EE
:100AB00007F1080253F82200C54912F0A5FE15F00F
:100AC000C7FE80F30800C0B20EF0B3F93368C14925
:100AD00003EB8703D86A12F097FE15F0B9FE80F396
:100AE0000800C0B20EF0A5F9336807F10E0253F802
:100AF0002200B94912F088FE15F0AAFE80F3080022
:100B0000C0B201370EF095F9032FD0D1072F33680B
:100B100021D1586CAE4912F077FE15F099FE80F3A2
:100B20000800C0B20EF085F93368A949986C12F03C
:100B30006BFE15F08DFE80F30800C0B20EF079F95F
:100B4000336893F84C0012F007FE15F081FE80F335
:100B50000800C0B20BE03B4458780EF06AF93368E5
:100B60003B44D87A0EF065F933683B44587D013731
:100B70000EF05FF90A2FC9D1FFF79ABB33683B44E7
:100B800058780EF056F933683B44D87A0EF051F994
:100B900033683B44587D01370EF04BF90A2FEDD1F5
:100BA000FFF786BB16F8010F00283FF481AB0EF06B
:100BB00040F9F7E701200EF081F9844B1B681878A3
:100BC000A4E296F8AD24854B0C2101FB023393F887
:100BD00038000EF02EF996F8AE040EF02AF996F8C9
:100BE000AF040EF026F9043696F8AC040EF021F9A5
:100BF000BE42E6D1FFF75CBB5A200EF05FF9784E9B
:100C000006F15A0796F802050EF013F996F8FD045E
:100C10000EF00FF996F8FE040EF00BF996F8FF04AB
:100C20000EF007F996F800050EF003F9063696F86F
:100C3000FB040EF0FEF8BE42E4D1FFF739BB0026FC
:100C40004FF0010A4FF0000B664B1B789B4531DAE1
:100C5000654B4FF000091BF803200C2303FB09F33D
:100C60005E4F07F13001595C914209D13B44586B0A
:100C700019F030F80146BAF1000F07D1534607E0EA
:100C800009F10109B9F11E0FE7D110E006440EE0A9
:100C90008B420CDA0C2202FB0972526B0391D05C7E
:100CA00002930EF0C6F8029B03990133F0E70BF1B3
:100CB000010BC9E7BAF1000F3FF4FAAAF0B20EF047
:100CC000FDF84FF0000ABDE7464F002638780EF0D9
:100CD000F5F83B789E42BFF4EBAA434B002116F88F
:100CE00003E00C2202FB01F33C4800F1300C13F846
:100CF0000C20724505D1034493F838000EF099F8A2
:100D000002E001311E29ECD10136E2E7344E162013
:100D10000EF0D4F8B6F844020EF0D3F8B6F8D000CE
:100D20000EF0CFF8B6F8D2000EF0CBF8B6F8D4003B
:100D30000EF0C7F8B6F89C020EF0C3F800200EF0D3
:100D400078F800200EF075F800200EF072F896F892
:100D50001F020EF06EF896F840020EF06AF80020BE
:100D60000EF067F8B6F9EE310A2093FBF0F080B28E
:100D70000EF0A7F855E0F0B201360EF05AF8092E41
:100D8000F9D1FFF795BA08200EF098F80026174B16
:100D900033F8160001360EF094F8042EF7D1FFF761
:100DA00087BA0C200EF08AF8114B18680EF092F8F2
:100DB000104B18680EF08EF80F4B186840E10420B5
:100DC0000EF07CF8064B98683AE100BFC42400207E
:100DD000000020410000C84200007A444C9E0108F7
:100DE000C82B002098240020992400208411002082
:100DF000E8F7FF1FECF7FF1FF0F7FF1FE04E06209C
:100E00000EF05CF8B6F8CC010EF05BF8B6F8D00145
:100E10000EF057F8B6F8D40128E104200EF04EF891
:100E2000D74E96F812020EF004F896F816020EF05D
:100E300000F896F815020DF0FCFF96F8170265E130
:100E400001200EF03BF8CE4B58795FE1CC4E0820E4
:100E50000EF034F896F89A020DF0EBFF96F89B022C
:100E60000DF0E7FFB6F89C020EF02BF896F89E0204
:100E70000DF0DFFFB6F8A0020EF023F896F8A202FC
:100E800044E1C04EC04F30784FF0000900EB400005
:100E9000C0B20EF013F8337802379945BFF408AAB0
:100EA00017F8020C0DF0C5FF17F8010C09F1010944
:100EB00000EB800000EB800000F2EE2080B20EF02C
:100EC00000F8E8E701200DF0F9FFAD4B93F8400280
:100ED0001CE108200DF0F2FF0026A94B334493F8E3
:100EE000340201360DF0A5FF082EF6D1FFF7E0B968
:100EF000A34E10200DF0E2FF70790DF09AFFB0685C
:100F00000DF0E8FF96F83C020DF093FFB6F8CC0127
:100F10000DF0D7FFB6F8D0010DF0D3FFB6F8D4012D
:100F20000DF0CFFFB6F81A020DF0CBFFB6F81C0299
:100F30009CE0964AD25C904200F0EC800C333C2B53
:100F4000F7D10836BE423FF4B3A996F8A6020023B3
:100F5000EFE740200DF0B2FF894E06F14007B6F8EA
:100F600064030DF0AEFF96F866030DF062FF0436E1
:100F700096F863030DF05DFFBE42F0D1FFF798B91C
:100F8000E0200DF09BFF7E4E06F18007B6F8E602EA
:100F9000043600F03F000DF094FFB6F8E202C0F313
:100FA00086100DF08EFF96F8E00200090DF041FF6B
:100FB00096F8E00200F00F000DF03BFF96F8E1021A
:100FC0000DF037FFBE42E1D1FFF772B90D200DF0F1
:100FD00075FF0FF0E5FD6E4E40F00200C0B20DF05F
:100FE00028FF30880DF076FFF0680DF073FF10F0E9
:100FF000E1FE25E0BE42BFF65BA919F806000DF040
:1010000018FF0136F6E70B200DF058FF00200DF019
:1010100010FF00200DF00DFF00200DF00AFF0BE087
:1010200001200DF04BFF002070E05A4B985D013617
:101030000DF0FFFE0B2EF8D100200DF04BFF00202D
:101040000DF048FFFFF734B94D4E08200DF036FF84
:10105000B6F8D8000DF035FFB6F8DA000DF031FF24
:10106000B6F8DC000DF02DFFB6F8DE000DF029FF1C
:10107000FFF71EB9424E03200DF020FF96F8220222
:101080000DF0D7FE96F823020DF0D3FE96F8240259
:101090003CE03B4E03200DF011FF96F8C7010DF028
:1010A000C8FE96F8C8010DF0C4FE96F8C9012DE0FF
:1010B00040F27A82DB2E00F08D8040F2FD83F22E2A
:1010C00000F05E8440F27E84F32E40F0D2850DF075
:1010D00093FEFF28304F40F0E184002607F13400F2
:1010E0003146602287F8326018F0B3FD8DF8176042
:1010F0009DF8173097F89620DFF89C909A4200F2FE
:10110000808401200DF0DAFE99F832000DF091FE96
:10111000FFF7CEB80DF08DFEB6F8A8020DF0D1FEA7
:1011200096F8AA020DF085FE96F8AB020DF081FE4E
:1011300096F8AD020DF07DFE96F8AC020DF079FE4A
:10114000FFE64E2E4BD10DF057FE1128074602D96F
:1011500007F0F6F93EE00DF04FFE094E07F59477E3
:1011600006EB470318710DF051FE40F2ED23984253
:1011700014DD40F6CA039842A8BF184610E000BF2D
:10118000C82B0020CC3100201C2E00201C18002071
:101190009000002024C101082809002040F2EE2020
:1011A000A0F2EE20192390FBF3F006EB47067071D6
:1011B00010E0C0F04583D02E00F06883D22E40F0BE
:1011C0007485C64B1B7803F0040303F0FF06002B65
:1011D00000F0688300200DF071FEFFF769B800F29F
:1011E000DB81352E23D10DF007FE0E280746AFD840
:1011F0000DF002FE0328ABD8B94B062606FB0736D6
:1012000086F802050DF0F8FD86F8FD040DF0F4FDFA
:1012100086F8FE040DF0F0FD86F8FF040DF0ECFDFD
:1012200086F800050DF0E8FD86F80105D2E700F22A
:10123000D6802B2E04D10DF0DFFDA94B5871C9E7E4
:101240006BD8252E07D1A64B00229A600DF0E8FD41
:101250000DF0F0FBBEE73BD8232E40F026850DF0C5
:10126000CBFD132806463FF673AF0DF0C5FD0021F8
:101270000C2202FB01F3DFF87CE20EEB030292F892
:101280003820824220D17344954F93F8303006F5D0
:10129000957607EB860673710DF0AEFDB0710DF01B
:1012A000ABFDF0710DF0A8FD8E4BD0371A688E4B58
:1012B00030721F608D4B00201A6011F0BBF88C4B10
:1012C00080F00100187085E701311E29D0D13FE779
:1012D000272E0DD10DF09AFD814EC6F8CC010DF0F0
:1012E00095FDC6F8D0010DF091FDC6F8D40171E767
:1012F000292E40F0DA840DF089FD794EA6F81A0205
:101300000DF084FDA6F81C020DF076FD86F81E0295
:101310000DF07CFDA6F820025CE72F2E00F0B184D2
:1013200025D82D2E40F0C1840DF066FD6C4E86F858
:101330003C020DF06BFDA6F848020DF067FDA6F823
:1013400044020DF063FDA6F846020DF055FD2B6832
:1013500086F83E025B79082B7FF63CAF0DF056FD18
:10136000A6F850020DF052FDA6F8520232E7312ED7
:101370002CD10DF041FD1F2806463FF6E9AE2B6843
:101380005B79082B7FF4E4AE0DF040FD544BB8368A
:1013900003EB860600F03F00F0800DF037FDF38888
:1013A000800100F4FE501843F0800DF025FD00018F
:1013B00030710DF021FD337900F00F0018433071CA
:1013C0000DF01AFD707108F00FF903E7332E40F0AD
:1013D0006C840DF011FD424B83F84002FAE6412E79
:1013E0000AD100260DF008FD3D4B33440136082E8E
:1013F00083F83402F6D1EDE66AD8392E11D10DF01A
:10140000FBFC374E86F812020DF0F6FC86F8160249
:101410000DF0F2FC86F815020DF0EEFC86F81702CE
:10142000D8E632D8372E40F040845B790726B3FBEC
:10143000F6F2C2EBC2029A1A12F0FF0F7FF488AEE6
:10144000B3FBF6F6013EF6B2FF2E3FF4C3AE0DF04D
:10145000D3FC5FFA80F94FFA89F009F087F8074664
:1014600000283FF475AE80F800900DF0CFFC788036
:101470000DF0C2FC38710DF0BFFC78710DF0BCFCB2
:10148000F8710DF0B9FCB871DCE73C2E13D1154EA4
:10149000376897F800900DF0AFFC38703368187813
:1014A0000CF038FE33681B784B453FF493AE0020B8
:1014B0000DF019FD8EE63E2E40F0F7830DF09CFCFA
:1014C000074E86F88B020DF097FC86F88A0281E6BB
:1014D000482E11D110F038FD7CE600BFC332002049
:1014E000C82B0020C4240020800B0020840B002087
:1014F000020000204C9E01082CD8432E22D10DF072
:101500007BFCD54E0023B36070710DF089FC0DF0AB
:1015100091FA0DF071FC86F83C020DF077FCC6F8EC
:10152000CC010DF073FCC6F8D0010DF06FFCC6F8CD
:10153000D4010DF06BFCA6F81A020DF067FCA6F8BA
:101540001C0247E6442E40F0B083C44B012283F8CE
:1015500031203FE64A2E02D10DF058FCA8E74C2E70
:1015600040F0A3830DF048FCBB4E86F89A020DF0C4
:1015700043FC86F89B020DF049FCA6F89C020DF096
:101580003BFC86F89E020DF041FCA6F8A0020DF08F
:1015900033FC86F8A2021DE6D32E7FF489AD0DF050
:1015A00035FCAF4B188015E6CD2E09D1AD4B1B781D
:1015B0005B073FF50FAEAC4B4FF4C8721A8009E6DB
:1015C00000F20681C82E26D15E797608122E3FF6EB
:1015D000BFAD0027B74206D20DF018FC0EAB23F8C2
:1015E00017000137F6E732460023B34207DA0EA9A7
:1015F00031F813009D4921F813000133F5E7122A51
:1016000005D09A4B002123F812100132F7E7984BCE
:1016100001221A70DEE516D8512E40F046838F4B1A
:1016200093F83030012B3FF6D5AD0DF0E5FB8A4E37
:1016300086F859050DF0E0FB86F857050DF0DCFB48
:1016400086F85805C6E5CA2E40F08180894E0027ED
:1016500033681B78022B61D1D6F800900DF0CCFBDB
:1016600012F07AF8844912F083F907F1080A49F870
:101670002A00D6F800900DF0BFFB07F10A0309EB32
:10168000830912F069F87D4912F072F9C9F8040073
:10169000D6F800900DF0B0FB12F05EF8784912F029
:1016A00067F907F10E0A0137032F49F82A00D3D151
:1016B000072FD6F800901AD10DF09EFB12F04CF8CF
:1016C0006D4912F055F9C9F84400D6F800900DF0B4
:1016D00093FB12F041F8684912F04AF9C9F8480042
:1016E000D6F800900DF088FB89F84C0012E00DF060
:1016F00083FBB94489F80100D6F800900DF07CFB1B
:10170000B94489F80B00D6F800900DF075FBB94488
:1017100089F8150001370A2FCAD15BE5D6F8009089
:101720000DF06AFBB94489F80100D6F800900DF07D
:1017300063FBB94489F80B00D6F800900DF05CFB10
:10174000B94401370A2F89F81500E7D142E5CC2EBC
:1017500040F0AB825B79092B7FF6FAAC494E3768D3
:101760000DF04AFB387037680DF046FB78700DF0CD
:1017700043FB33686428A8BF642018710DF03CFB5C
:1017800033686428A8BF642058710DF035FB3368B6
:10179000FF28A8BFFF2098710DF02EFB3768642842
:1017A00028BF6420F8710DF027FBB87037680DF082
:1017B00023FBF87037680DF029FB2B6878815B7983
:1017C0000A2B7FF607AD36680DF016FB307201E587
:1017D000CF2E7FF4EEAC0DF019FB6FF4AF61431820
:1017E0009BB21D4EC62B98BFA6F844020DF00EFB0F
:1017F000A6F8D0000DF00AFBA6F8D2000DF006FB0B
:10180000A6F8D4000DF002FBA6F89C020DF0F4FA45
:101810000DF0F2FA0DF0F0FA0DF0EEFA86F81F0274
:101820000DF0EAFA86F840020DF0E6FA0DF0EEFA55
:1018300000EB80004000A6F8EE010DF0DDFAE1E5D6
:10184000084B1B785F073FF5C5AC0F4A137843F090
:1018500004031370BEE400BFC82B00202809002039
:10186000880B0020C3320020380B0020EC0F002032
:101870001D250020C4240020000020410000C84293
:1018800000007A443C200020AC0E0020D34B1B7893
:101890005A073FF59FAC09F045FC0DF0FDF809F043
:1018A00085FA97E40DF0A8FACD4B012883F8AC0433
:1018B000F3D983F8AC64F0E7D62E09D100260DF0F9
:1018C000A5FAC84B23F816000136082EF7D181E49B
:1018D00031D8D42E40F0E9815B790F2B7FF438ACFE
:1018E0000DF08AFA072807463FF632AC0DF08EFA63
:1018F000BB4B0E2606FB0736A6F856010DF086FAFE
:10190000A6F858010DF082FAA6F85A010DF074FA03
:1019100086F85C010DF070FA86F85D010DF06CFA46
:1019200086F85E010DF068FA86F85F010DF078FA2E
:10193000C6F860014EE4D92E11D10DF067FAA84E19
:10194000A6F8D8000DF062FAA6F8DA000DF05EFAFB
:10195000A6F8DC000DF05AFAA6F8DE003AE4DA2E1A
:1019600040F0A3810DF048FA9D4E86F822020DF05A
:1019700043FA86F823020DF03FFA86F8240229E4A0
:101980000DF03AFA0F2806463FF6E2AB0DF034FAB6
:10199000954BC6EBC6061E44B0710DF02DFAF071E2
:1019A0000DF02AFA30720DF027FA70720DF024FA59
:1019B000B0720DF021FAF0720DF01EFA30730CF0D7
:1019C000CDFA07E4DC2E0ED10DF016FA844E86F81F
:1019D000C7010DF011FA86F8C8010DF00DFA86F86E
:1019E000C901FFF7F7BBEF2E40F05F810DF00EFA53
:1019F0007B4EA6F8F2010DF009FAA6F8F001FFF708
:101A0000E9BB9DF8173009EBC30393F89930D80769
:101A10003CD59DF8173009EBC30393F89820734B1E
:101A200033F91230002B31DD9DF8173099F8326010
:101A300009EBC303D3F89C304FEAC60E58689DF8F3
:101A4000173009EB0E0109EBC309D9F89C30486344
:101A50001A894A8792B2002101238B40134003D197
:101A600001311029F8D100E00B4607EB0E010B877E
:101A700048238DF83A300EA901230136ADF83820FD
:101A80008DF83B3005F017FE87F832609DF817306F
:101A90000133DBB28DF81730FFF72ABB97F83220FD
:101AA000534E9042BFF454AB029000200DF006FA62
:101AB0000DF0CEF9D9F8000008F076FF2A6810681A
:101AC00008F0EBFF4B4A10680DF076F908F00AFFBA
:101AD00072B6494F4FF480624FF4007A7A614FF04A
:101AE000010BC7F814A03846ADF838200EA94822DB
:101AF0008DF83A208DF83BB005F0DDFD1022384618
:101B00000EA98DF83A208DF83BB0ADF838A005F05D
:101B1000D2FD029B4FEAC30906EB09010B8FD1F8F6
:101B200034C0D8080CEB8002C6F8F8205CF82020FE
:101B300003F00703C6F8FC209B00C6F800210F2223
:101B40009A40D243D6F800E10BFA03FB02EA0E0EEC
:101B5000C6F800E1D6F8FCE002EA0E02C6F8FC2066
:101B6000D6F800214FF0080E0EFA03FE4EEA0202EC
:101B7000C6F80021D6F8FC204BEA0202C6F8FC2089
:101B8000D6F8FC304A8F4CF820304B6B1A61C7F8FE
:101B900010A0BB685905FCD4DFF854E040F6055BA3
:101BA000F246DEF8FC10DEF8F820144E11600EEB61
:101BB0000902506B518F4FF40072416133687A61B2
:101BC000B2881A61B289B3685A61BB685A0517D4E2
:101BD000BBF1000FF9D00BF1FF3BF6E7C332002059
:101BE000C82B002040200020A82C0020A822002084
:101BF00028090020C024002000080140742400208F
:101C000048230161ADF838108DF83A300EA9012350
:101C10008DF83B3005F04FFDB189B268644B11611E
:101C2000B188BBF1000F12D01E68BB6861485B052C
:101C3000B2D50AEB09035A6B5B8F926813424FF4DB
:101C4000007315BF0361436131617161EDE7594A6A
:101C50001B684FF400701061196162B60A2008F029
:101C600012FF10F0FFFB2B68F32283F84920FFF7E7
:101C7000B1BAFA2E19D1504B1B785E077FF50DAE25
:101C800013E04E4E06F140070DF0C0F8A6F86403CD
:101C90000DF0B2F886F866030DF0AEF8043686F85B
:101CA0006303BE42F0D1FFF795BA06F049FCFEF798
:101CB000FFBA0C2803D142480DF0C6FA49E00A28C1
:101CC00001D00D2864D13F4D3F480DF0BDFA2846A4
:101CD000232117F0F2FF08B1401B206023687BB37B
:101CE0005A1EA95C202901D11346F8E7354A002184
:101CF0002360D154354B364DD3F80080D5F8009091
:101D0000304F484617F0E6FF064649463246384609
:101D100017F0E8FF2F4A20B9BB5D43445B785807B2
:101D200003D010359542E9D306E0954204D2701CE9
:101D3000EB683844984702E027480DF085FA002305
:101D4000204800213022236017F083FF019B1B787D
:101D500053B308F035FEFEF7EBB90C28ABD07F2863
:101D600004D1FEF7E5B92F2B3EF6E2A9A0F120023F
:101D7000D2B25E2A3EF6DCA913B920283EF4D8A9D7
:101D80005A1C22600F4AD0540DF004F9FEF7D0B966
:101D90007F28E8D10B4A013B002110482360D15431
:101DA0000DF052FAFEF7C4B92FB0BDE8F08F00BFB6
:101DB0007424002000080140C3320020C82B0020FA
:101DC000C1C001085820002021D50108DC030020F3
:101DD00064AB010854AD0108CCC00108E8C001089B
:101DE0009F492DE9F04F0A689E4C02F59C43203331
:101DF00023609D4B89B01E788846BEB19B49096817
:101E00008A4240F20381013E1E70FFE0984F072D89
:101E10003B688CBF2946595D964B97481B6898478D
:101E2000032D09D904EB4505A880013605F0E6F835
:101E3000F5B28542EAD31FE03A6805F1100302EBE0
:101E400083039988DA880028ECD04FF47A73401A1B
:101E50005843531A90FBF3F040F6C90300F57A702B
:101E6000984205DC40F2EE239842B8BF184601E0E4
:101E700040F6CA0080B2D5E742F2010A7F4B804E9D
:101E80001B68376803EA0A0ABAFA8AFA4FEA5A1A4A
:101E90007C4BBAF1000F05D194F828201A707A4AC9
:101EA000517811701B782BB1774B93F8009089F023
:101EB000010900E099460F23DFF8E8B184F82930E2
:101EC000002505F09BF8854267DA6B00B9F1000F39
:101ED00003D06E4A32F8150000E04846644ADFF845
:101EE000C8C111684FEA850E8A8B8242684A02D8BF
:101EF000C98B81421CD25CF80E005A49874201D23C
:101F0000D05A19E0E8B204920293009105F08EF8DD
:101F1000032D029B049A0FDC00994FF0010E91F8FB
:101F200029C00EFA05FE2CEA0E0E81F829E003E026
:101F300007F596714CF80E10BAF1000F28D194F8FD
:101F4000BC100322B1FBF2F202EB42028A1AD2B2B7
:101F500003EB050E724404EB4202508594F8BD2059
:101F60002AB9022913D93F4A012182F8BD10BBF8D2
:101F700000203BF8020C1044BBF802201044454AF4
:101F800080B2D05200B2032290FBF2F080B2404AFD
:101F9000D05201350BF1060B93E794F829203E4B04
:101FA000A2F10F077A427A4184F8D6206AB13B4AFF
:101FB0001268550109D43268D9689A60521AC82A41
:101FC0001FD9012283F821201BE02F4A01215170E3
:101FD000117032689968DA605B68521A9A4282BF5F
:101FE0002D4B002283F82120002505F007F88542BB
:101FF00007DAE8B205F01AF8254B23F81500013589
:10200000F3E794F8BC30013384F8BC301B4F3B68D5
:10201000D80405D5214B1B68D90701D40FF060FA0D
:10202000134BD8F800601B68187B00283ED0184A74
:102030009B7B013832F810001BB1C0F53B600830C3
:1020400080B200B2A0F57A70B0F57A7FA8BF4FF4E5
:102050007A7020EAE07011F083FB11495BE000BF69
:10206000A03200202C0A002044240020402400201C
:10207000B8110020B0000020CC310020BC1100209D
:1020800048240020EC18002000000020300A002026
:102090007C2B0020EA0A00204C24002094240020FD
:1020A00000007A44580A0020A00A00203A6812046E
:1020B0003AD5D4F8D820AE4DB21A002A34DB06F552
:1020C0009C422032C5F8D820AA4A5179AA4A32F84F
:1020D00011108AB2597B92FBF1F195F8DC200132A4
:1020E00002F00F0385F8DC302B4483F8DD10034643
:1020F000A24A825C0130134410289BB2F8D11BB273
:1021000093FBF0F000B26428A8BF642020EAE070DE
:1021100011F026FB9A4911F02BFC9A4911F074FB3F
:1021200011F05EFD984B18803B68984D13F4807F4A
:1021300000F0FF80964BDFF85C929E4205D999F83B
:10214000022012B9012289F8022099F80220002AFF
:1021500000F0EF808F4A95F8008092F821608E4A57
:1021600006F1FF3E9246DEF10006116846EB0E06D0
:10217000002EC1F38063C8F38008009314BF4FF0B2
:10218000000B4FF0020B99F82020052A00F2CB80BB
:10219000DFE802F0034C608695B2B8F1000F38D04A
:1021A000D4F8F000B4F8F41008F05AFB012809D173
:1021B0007A497B4A09681268C988642000FB0122B9
:1021C000C9F81020009B5BB1744A126812793AB1C9
:1021D00010F020FD032289F820204FF47A7236E0B7
:1021E000002E40F0A0806E4AD9F810101068694A9D
:1021F00088420AD9029210F00DFD029A032182F85A
:10220000201040F6B831D161BDE7012182F82010DD
:10221000B9E7009B4FF4806013B10CF0F3FB01E0D1
:102220000CF0E0FB0022C9F810207CE0002E58D111
:102230005A4A1268127A012A02D010F0EBFCA2E787
:1022400010F0E8FC032289F8202040F6B832C9F8E3
:102250001C2098E726B1052289F82020012000E003
:102260003046B8F1000F0CD0D4F8F0204FF0030B3B
:10227000118A4C4A118051809180484909684988E7
:10228000D180474A1168D9F81420914202D8B8F198
:10229000000F45D147F23052C9F81C20032221E03B
:1022A0002A7842F002022A700FF01AF93C4AD9F853
:1022B0001C1012680A44C9F81820042212E0384A97
:1022C0009EB11168D9F8182091422CD9364A9278DB
:1022D0001AB9DAF80020D00725D42A7822F00202B1
:1022E0002A70052289F820204DE71268D9F81C10C1
:1022F0000A44C9F8182016E02849294A09681268D2
:10230000C988642000FB01224FF48060C9F81020C6
:10231000002289F8202089F803200CF063FB32E7C3
:1023200000287FF430AFBBF1000F02D0584608F010
:10233000EDFA1E4EB6F8DE1006F50D7008F090FAB4
:10234000184AB6F84432B2F90210824603F10B0083
:10235000884290462CDB0B3B8B4229DCB2F9001003
:10236000884225DB8B42CCBF0023012321E000BF44
:102370002C0A00206811002078110020090B002091
:102380000000C84200C07F44AA0E0020C3320020D3
:10239000404B4C004C240020942400209832002014
:1023A000482400207C2B002000000020C82B0020A7
:1023B0000023BAF1000F30D19B490968090106D505
:1023C0009A49C97899B929784A0710D528E0984BD5
:1023D00000219848196059609960974B0121C0F815
:1023E00000A0C0F804A0C0F808A019700BE0904944
:1023F0000020904A0860486088608F49002313607D
:10240000536093600B708D4B00211960596000235D
:10241000C4F8F830C4F8FC3004E0874900230B709E
:1024200087490B702B78580735D53B68D90632D5CC
:10243000844B1B78DA062ED4834B9B7893B196F8A5
:102440008B32BAF1000F15D17BB1804B1968D4F8EB
:1024500000315B1A002B08DA0FF042F87C4B83F84E
:1024600004A118E0BAF1000F0DD1102008F04EFAC7
:1024700001230EE03BB175494FF47A70096800FB07
:102480000313C4F8003194F8043123B108F02AFA98
:10249000002384F8043196F88932002100930B461A
:1024A00096F88A02B6F846C2B6F8489238F911E0B2
:1024B0009B08E645C4BF63F07F03DBB20131CE4524
:1024C000B8BF43F040030429F0D194F80511604AE5
:1024D000994205D192F80611F92904D8013100E09A
:1024E000002182F8061184F80531574B58499A7833
:1024F0009B46DFF8349132BBD9F80030DB070AD5B0
:1025000081F80721BAF1000F1DD12B78D9071AD510
:102510000EF02AFE17E02B785A0714D54D4B1B7886
:102520008BB1424BDB7873B991F807310133DBB2E1
:10253000032B81F8073106D910B10EF0D1FF02E06C
:10254000BAF1000FF9D094F80631414A142B40F04B
:10255000A280009B13F1000A9BF8023018BF4FF0D5
:10256000010A6BB392F805315F2B11D12B7803F080
:10257000040303F0FF0113B10EF0B2FF08E00B20DB
:102580000291009208F0C2F9009A029982F80611AD
:10259000BAF1000F14D094F805317D2B10D12B78AF
:1025A00003F0040303F0FF0213B10EF099FF07E0FC
:1025B0000B20009208F0AAF9254B009A83F8062117
:1025C0002B7803F0040303F0FF01002B63D194F890
:1025D00005311F4A572B0BD11F4B4FF47A721A80CB
:1025E0001E4B1B685B0756D51D4B0A221A8052E012
:1025F0003868400736D55A2B34D192F808312BB1C0
:10260000012382F8081182F8093144E092F80A3176
:1026100083F0010382F80A310BB10C2000E00D2099
:1026200008F074F937E000BF942400204C24002007
:10263000D8310020AC210020D42100208C220020A1
:10264000D9210020AC0E00200000002048240020EA
:102650002C0A0020EC180020B8320020F8170020C7
:10266000BC3200205D2B00F0E3865B2B00F0E2869D
:102670005E2B00F0E186562B01D10CF0B3FA9BF8EB
:102680000230002B00F0A88694F805316F2B40F043
:102690009D860EF069FD3B68580737D594F80A31DE
:1026A000AE4A93B12B7859070FD5B8F90610B6F892
:1026B0004632994209DDD9F8003013F0010302BF18
:1026C0003221A2F81C1182F80A31D9F80030DA035D
:1026D0000DD594F81E21A14B2AB993F8082112B9FF
:1026E0003222A3F81C21012384F81E310EE094F855
:1026F00008319A4A53B12B7803F0040303F0FF0129
:1027000023B9012382F8081182F80931944D00237E
:10271000C9F8003005F150062A786B7815F8010CDD
:102720009A420DD2294608F063F848B115F8022CF8
:10273000012303FA02F2D9F800301343C9F800303C
:102740000435B542E8D1874B1B7853B1864EDFF88C
:1027500038923368DFF8348213F0020F40F02E8392
:1027600026E3824D05F15A062A786B7815F8010C9C
:102770009A4225D2294608F03BF808B3AB787C4A48
:10278000013B03EB430395F804E013440C2202FBE6
:102790000E42D2F8240195F8038098426F490FD079
:1027A000C2F824310023C2F8283182F820810123A5
:1027B00091F8502103FA0EF322EA030381F8503115
:1027C0000635B542D0D16B4BDFF8C4B11E686A4BF9
:1027D0004FF0000A1B680093684B1B780293DBF8EC
:1027E0000020002A00F0DB8292F80090B9F1000F7F
:1027F00000F0D582DBF804300099CB1A002B0CDBFB
:1028000001F5FA73CBF8043094F85011012303FA60
:102810000AF321EA030384F85031029B002B00F0F5
:10282000BE821BF8043C51780433DBB2002940F02F
:102830006E82534931F91310524BB3F8443203F10D
:10284000C800814201DD957814E0C83B994202DA64
:1028500091784D420EE094F85021012303FA0AF3D7
:1028600022EA030384F85031009B03F5FA73CBF896
:10287000043094E294F8503143FA0AF3DB0700F194
:102880008E82002DCCBF0220012008F075F809F1DE
:10289000FF33DFF8C880132B00F27982DFE813F0F2
:1028A000140021002E003E0057007A00DE00420195
:1028B000A601D801070277023E004D007A00DE0033
:1028C0004201B10015017901317830460D44FA2DED
:1028D000A8BFFA2525EAE575357007F06FFF0120DE
:1028E0001AE0717830460D44642DA8BF642525EAAE
:1028F000E575757007F062FF02200DE0F178304653
:102900000D44642DA8BF642525EAE575F570D8F857
:10291000541107F00BFF03202946C5E171790D2002
:1029200029446429A8BF642121EAE171717107F08B
:10293000C5FFB9F10D0F00F02A8231790E2029442C
:102940006429A8BF642121EAE1713171ACE1B17958
:102950000520294481F30801B171A5E12C0A00206A
:1029600077300020C232002094240020C63000209E
:10297000E49F01083C20002048240020EC1800209F
:102980007C2B0020C82B0020F8170020902400206A
:10299000500B0020D8F858311A78022A22D1284644
:1029A000049310F0DDFEA84910F0E2FF049B596A81
:1029B000059310F021FE0021049011F0C3F8059B4F
:1029C00048B9049AA049104611F0DAF8049A059B18
:1029D00010B19D4A00E000225A620F20114607F014
:1029E00059FF0AE099780F202944C829A8BFC821B7
:1029F00021EAE171997007F061FFB9F10F0F00F062
:102A0000C681D8F8588198F80030022B1AD1284690
:102A100010F0A6FE8C4910F0ABFFD8F8201010F093
:102A2000EBFD0021054611F08DF830B928468649A6
:102A300011F0A6F810B1844D00E00025C8F8205030
:102A4000122054E198F8011012202944C829A8BF87
:102A5000C82121EAE17188F8011025E1D8F8583140
:102A60001A78022A22D12846049310F079FE76497A
:102A700010F07EFF049B196B059310F0BDFD002143
:102A8000049011F05FF8059B48B9049A6E4910460E
:102A900011F076F8049A059B10B16B4A00E0002211
:102AA0001A631020114607F0F5FE0AE0197B10208A
:102AB0002944C829A8BFC82121EAE171197307F088
:102AC000FDFEB9F1100F00F06281D8F8588198F836
:102AD0000030022B1AD1284610F042FE5A4910F05D
:102AE00047FFD8F82C1010F087FD0021054611F0A3
:102AF00029F830B92846544911F042F810B1524D26
:102B000000E00025C8F82C501320F0E098F80B10D6
:102B100013202944C829A8BFC82121EAE17188F8F7
:102B20000B10C1E0D8F858311A78022A22D1284671
:102B3000049310F015FE454910F01AFF049BD96B61
:102B4000059310F059FD0021049010F0FBFF059B48
:102B500048B9049A3C49104611F012F8049A059BB2
:102B600010B1394A00E00022DA631120114607F063
:102B700091FE0AE0997D11202944C829A8BFC821E7
:102B800021EAE171997507F099FEB9F1110F00F092
:102B9000FE80D8F8588198F80030022B1AD12846C8
:102BA00010F0DEFD294910F0E3FED8F8381010F0DF
:102BB00023FD0021054610F0C5FF30B92846224903
:102BC00010F0DEFF10B1204D00E00025C8F83850AD
:102BD00014208CE098F8151014202944C829A8BFA7
:102BE000C82121EAE17188F815105DE0D8F8588114
:102BF00098F80030022B1AD1284610F0B1FD124986
:102C000010F0B6FED8F8281010F0F6FC00210546AA
:102C100010F098FF30B928460B4910F0B1FF10B101
:102C2000094D00E00025C8F8285009205FE098F819
:102C3000031009202944C829A8BFC82121EAE1714D
:102C400088F8031030E000BF0000C84200007A445A
:102C5000D8F8588198F80030022B1AD1284610F085
:102C60007FFDA94910F084FED8F8341010F0C4FCA0
:102C70000021054610F066FF30B92846A24910F041
:102C80007FFF10B1A04D00E00025C8F834500A20A5
:102C90002DE098F80D100A202944C829A8BFC821A2
:102CA00021EAE17188F80D1007F008FE6FE0D8F80E
:102CB000588198F80030022B1DD1284610F050FDA5
:102CC000924910F055FED8F8401010F095FC002104
:102CD000054610F037FF30B928468B4910F050FFF9
:102CE00010B1894D00E00025C8F840500B2029465E
:102CF00007F0D0FD4BE098F817100B202944C829A5
:102D0000A8BFC82121EAE17188F81710CCE7012992
:102D10003DD190787E4A32F91350B5F5617F05DBDD
:102D200040F633039D42A8BF1D4601E04FF4617594
:102D3000B9F10C0F2BD14FF4966393FBF0F0A5F58E
:102D4000617595FBF0F5734AEDB21378AB421ED076
:102D5000042D38BF2B46704928BF022391F8AC04DC
:102D6000137084224243881880F8003409FB03233F
:102D70006A4A0B4403F20243136007F0D2FF48464D
:102D8000294607F09BFD681CC0B207F0F5FD94F8DA
:102D90005021012303FA0AF3134384F850310AF156
:102DA000010ABAF1040F0BF10C0B7FF418ADCDE45E
:102DB0003B68D8050FD55A4BDB7863B1D9F80030A2
:102DC000990708D5B8F8003013F0010508D10120A3
:102DD0000BF018FE04E001200BF004FE012300E0DC
:102DE0000023326852070BD553B101200BF0FAFDD6
:102DF000B8F800309B0706D402200BF003FE02E077
:102E000002200BF0EFFD474BB8F8002099689B8932
:102E100012F0030F14BF4B610B61D9F8003013F0AF
:102E20000A0F2DD03368DD060DD550070ED40420CF
:102E30000BF0E8FD3C4B0A22B3F9043093FBF2F3AC
:102E4000A4F85C3102E004200BF0CCFD3368990655
:102E500007D5B8F800305A0606D440200BF0D2FD52
:102E600002E040200BF0BEFD33685B0641BF2E4BF5
:102E70000A22B3F9043093FBF2F348BFA4F85E31A1
:102E800033684FF480701D0502D50BF0BBFD01E0E7
:102E90000BF0A8FD204D6B79082B01D00E2B02D131
:102EA00040200BF09FFD3B68580519D595F8D032AE
:102EB00023B91E4B1B7813F0040F02E0336813F4A0
:102EC000002F09D01A4B00221A703C2005F006FB97
:102ED00030B10BF071FFF8E705F0AAFF0FF0C2FA6E
:102EE000012384F8603194F86131094F002B3BD005
:102EF000D9F80030590737D533681A071AD4082093
:102F00000BF070FD30E000BF0000C84200007A44C2
:102F10007C2B002010250020C82B00203C20002006
:102F20004C24002074240020C0210020C332002043
:102F300018180020B8F800A00AF0080A1FFA8AFA48
:102F4000BAF1000F10D108200BF05CFD7F4B1A681E
:102F50007F4B1A607F4BFA88A3F862217E4BC3F83F
:102F600000A07E4BC3F800A094F861310BB3D9F8F0
:102F70000030DB061DD533689E0204D44FF4007088
:102F80000BF030FD15E0B8F8004004F40074A4B272
:102F90007CB94FF400700BF035FD6C4B1A686C4B2C
:102FA0001A606C4BFA88A3F862216B4B1C606B4B68
:102FB0001C606B4BB7F90610D3F800E0BEF80A208E
:102FC00091420FDBB1F5FA6F9EF80740BFBF8B1A35
:102FD0006343A2F5FA6493FBF4F4ACBFC4F1640458
:102FE000643400E0642495F82232B5F844820093FA
:102FF00095F823320022029395F9D8319BB20493BD
:10300000584B1E6840F2E630574B4FEA420A33F9FC
:103010001290C8EB090303F2F315854203D8002B85
:10302000B8BF5B4201E04FF4FA73022A4FF064002C
:1030300029D0009D1DB1AB42CCBF5B1B002393FB8D
:10304000F0F74A4D6FF0630B35F817C00BFB073BE9
:10305000013735F917500FFA8CF7ED1B05FB0BF50F
:1030600095FBF0F5424F654427F80A500EEB020538
:103070002D796B433F4D93FBF5F364339BB2634370
:1030800093FBF0F02CE0029D1DB1AB42CCBF5B1B6B
:10309000002393FBF0F02F4D6FF0630C0CFB003B13
:1030A00005EB400705EB4000B7F96471B0F9660124
:1030B000002BA0EB070000FB0BFB9BFBFCFB049829
:1030C000C7EB0B0B0BFB00FB2948B8BF5B42A0F81A
:1030D00004B09EF806004343264893FBF0F06430AA
:1030E00073786425434393FBF5F3234F022ABB54C3
:1030F000F37A224F00FB03F393FBF5F3BB54737D8C
:1031000000FB03F090FBF5F01D4B9854184B1D4845
:103110000DD1C14585700DDB1B4CB4F846028142D0
:1031200034DBB1F5FA6FA8BF4FF4FA612FE0C14567
:10313000845404DA33F80A00404223F80A000132CA
:10314000032A06F101067FF45DAFE5E7342A00208B
:10315000402A00202C0A0020482A00204C2A002067
:103160003C200020C42400207C2B00206219002079
:10317000B82100200CFEFFFF942200209E0B0020AF
:10318000A4220020D5210020C82B00200146091AC6
:103190004FF47A725143C0F5FA60B1FBF0F164224A
:1031A00091FBF2F0DFF850E36FF063063EF8107029
:1031B00006FB001101303EF910003EB2801B414376
:1031C00091FBF2F23A44DA80B84BB94D1B8803F018
:1031D00040039EB2002E43D0B64B0A20B3F9043010
:1031E00093FBF0F0B44BB3F85E31C01A00B210F0AC
:1031F000B7FAB24910F008FBB149074610F0FCF9E4
:103200000BF07FFB804638460BF07BFB0746B5F999
:10321000020010F0A5FA8146B5F9000010F0A0FAFE
:103220004146824610F0F0FA39468346484610F08F
:10323000EBFA0146584610F0DDF910F0ABFC4146C0
:103240002880484610F0E0FA39468046504610F093
:10325000DBFA0146404610F0CFF910F09BFC688085
:1032600094F84B02002860D0002E5ED110F078FA5E
:10327000924910F0C9FA0FF053FE06460F4613F0BC
:1032800021FA8B4C8046B4F9000089460FF036FED7
:10329000CDE900013046394613F05AFA0646B4F932
:1032A00004000F460FF02AFEDDE9002382468B461C
:1032B000404649460FF088FE5246CDE902015B4682
:1032C000304639460FF080FE02460B46DDE902012A
:1032D0000FF0C6FC10F012F97A4DB0F5FA7FA8BFD6
:1032E0004FF4FA70A842B8BF28464946208052469B
:1032F00040465B460FF068FEDDE9002380468946C4
:10330000304639460FF060FE02460B4640464946BD
:103310000FF0A8FC10F0F2F8B0F5FA7FA8BF4FF458
:10332000FA70A842B8BF2846A080674B1A785407A5
:1033300004D5664B1A689B8853613EE0644909686E
:10334000C8075CBF42F001021A70624A1278110786
:1033500058BF1A7860495CBF22F001021A705F4AB8
:10336000126812F0040F02D05D48008878B9524804
:10337000B0F80C0108B1920709D45A4A12880032F9
:1033800018BF01221AB958480088642806D90222B9
:103390000A701A7822F001021A7005E01B78DB0728
:1033A00056BF02230A700B7007F046FB4F4B1B6899
:1033B000C01A002801DB0BF045FC4D4B9B68002B2D
:1033C00071D04C4809B0BDE8F04F1847BAF1000F72
:1033D00002D07E2B3FF45DA994F80531364A972B35
:1033E00005D14FF4C873A2F80C31FFF754B9A72BDD
:1033F00006D1384A137843F004031370FFF74BB932
:103400000021BB2B079101D1022303E0B72B04D18C
:103410004FF6FE73ADF81E301EE0BE2B01D1022325
:1034200003E0BD2B2DD14FF6FE73ADF81C3013E039
:10343000012002E0022000E003205FFA80FA0AF196
:10344000FF3386F8AC340BF027FB07F0AFFC504697
:1034500007F092FAFFF71FB9BDF81C20B6F8F0315B
:103460001344A6F8F031BDF81E20B6F8F23113442B
:10347000A6F8F2310BF0B6FB002384F80631FFF713
:103480000AB9792B04D192F8133123F0010306E035
:103490007A2B7FF400A992F8133143F0010382F8EC
:1034A0001331FFF7F8B809B0BDE8F08F9024002081
:1034B000B8210020C02100202C0A002035FA8E3CC3
:1034C000DB0FC93F0CFEFFFFC33200207424002035
:1034D00094240020AC0E002070240020F817002057
:1034E000BC320020B8320020122500208C2400209D
:1034F00044170020A20B00204A1900202DE9F04FAC
:103500009E4B9FB01B689E4C9D6A07F095FA2368FE
:103510009C4FC01A388007F08FFA9B4E206033789A
:10352000012B01BF3A88994B1A80994A04BF12882F
:103530005A80984B17A8DB6898479DF85C3023B1F8
:103540002379002B00F055830AE007F075FA924AC0
:1035500023681268EB1A184450329042E9D3EFE71F
:103560000DF0F6FC08B90DF009FD8C4D95F84A32C6
:103570001BB98B4B1B88002B4ED08A4AE1881268FE
:103580007F4BB1FBF2F1884A481C127880B220814F
:103590001AB3B3F90AB00023794F844A07F10C0932
:1035A00032F8138039F913200FFA80FA0BFB02F27C
:1035B00092FBFAF207F1140C3CF813E02CF813809C
:1035C000CEEB080E964429F813E00133042BE3D127
:1035D000754B00221A70798102E05A89013A5A81AA
:1035E000B4F90A00664A00284FF0000313DDB2F96F
:1035F00008706F49A1F1080232F9132031F8131055
:10360000424392FBF7F28A1A684921F813200133EA
:10361000042BEED100E05381664B01221A70664BF9
:103620005E4F186810F0080F44D06049DFF8B4C14D
:10363000B1F804E00EF10E039BB21C2B5F4BB3F903
:10364000043032D8564A128852072ED50A2293FBEC
:10365000F2F2BCF80030D21A92B293B20FFA83FCA5
:103660001CF1B30FBCBF02F5B4739BB2DFF854C1B9
:103670001AB2B32A9CF800C0C4BFA3F5B4739BB2BE
:103680001CF0080F97F8D82114D052B2524253437D
:103690004B4A1BB21268527A53436FF01D0293FBE0
:1036A000F2F39E44A1F804E004E00A2293FBF2F353
:1036B000ACF8003010F0140F00F0B180384B1B88CC
:1036C00003F40273002B00F0AA803E4B37491B78AD
:1036D00003F0100303F0FF0C43B13B4B97F9980242
:1036E0001A684B8800FB02334B8098E0E26924485B
:1036F00092F803E0354BDFF8F0809278BEF1000FCE
:1037000025D0B8F900E0B3F90680CEEB0803002B12
:10371000B8BF5B4293420DDD2D4BF045C3F800C0AE
:103720004FF0010380F82030C8BF5242CB8892B2DC
:103730001A4473E090F820302BB1264B80F820C05B
:103740001A68254B1A60204B1B6873445DE0B8F97A
:1037500000C0B3F90630CCEB030383EAE378A8EBAF
:10376000E378904542DD022293FBF2F31B4A13609B
:103770001B4A0123137080F8203043E0F029002019
:10378000A40B0020BA3200208211002084110020F6
:10379000122500204417002000180020C82B00200C
:1037A00090240020182100208C0B0020B82100203C
:1037B000B80B00208D0B0020F8170020C02100203E
:1037C000C4240020AC0E00204C2A00207C2B0020BA
:1037D000482A0020342A0020402A0020A832002055
:1037E000502A0020880B00208E0B002090F82030FB
:1037F00043B1A34B80F820E01A68A24B1A60A24B99
:1038000083F800E0A14B1B686344606A028840882B
:10381000934203DB8342A8BF03461A46CA809C4BEF
:103820001B78B3B19B4BB3F90620B7F846329A42E6
:103830000FDC994B5B79012B01D0192B02D197F842
:10384000922232B90E2B04D0082B1EBF934B0022BC
:103850009A8097F81082B8F1000F2FD0904B1B88F8
:103860009B072BD08F4B9049D3F82090484610F0FF
:1038700073F9F0B9484613F067F8A16A0FF0C4FF76
:1038800012F0E6FFB0F5617FA8BF4FF461700FF052
:1038900067FF864910F06CF80BF033F8814640461C
:1038A0000FF05EFF49460FF0AFFF12F0D1FF80B27C
:1038B00000E00020794AD3881844D0807C4B1878E7
:1038C000002840F094817B4B1A68994612F4002F2F
:1038D00000F08D81784A13789046033B052B1AD867
:1038E00097F8593533B1012B08D10EF01DFBC0F10B
:1038F0007F0003E0E06A03689B689847236B94F8B5
:1039000034201344B3F5807FA8BF4FF48073834203
:10391000D4BF2363206398F80030023B092B00F2E8
:103920006081DFE813F00A0012003F005E015E01D3
:103930005600670019013601420100232363A36387
:103940005E4B1B68E363032349E15C4B1A68E36B3E
:1039500064339A4240F24581402007F039FE002846
:1039600040F03F814FF04009554DA36B554FE85C47
:1039700060B105F0F9FE3B6BB9F1010903F1FF33CA
:103980003B63BB6B03F10103BB63EDD1A26B4D4BFA
:10399000AA5C002A40F025819A634FF0FF32DA6377
:1039A00004231CE12A230093474B492003F10C0216
:1039B000019302925021A3F10A02023305F0D0FFD5
:1039C000002840F00E814FF0FF33E363A06307232C
:1039D00005E13E4A05230021009301910291532005
:1039E00002F1080305F0BCFF002840F0FA80A06354
:1039F0000823F4E0402007F0EBFD002840F0F180C0
:103A0000A36B0C2B00F23E86DFE803F0070B0E12CF
:103A100018292D31357E899397002D4807F04CFFEA
:103A200096E02C482C4917E02C482D492D4A8DE072
:103A30002D4897F8571597F8582587E095F8AC2446
:103A400084235343EA1892F800240C2101FB02332B
:103A50001D44264895F8021407F02EFF78E024480C
:103A6000B7F8D010F8E72348B7F8D210F4E7224BA4
:103A700022481969F0E7224B22481988ECE700BF79
:103A8000342A0020402A0020502A00204C2A0020FE
:103A9000020000207C2B0020C82B0020B821002031
:103AA000902400201C2400208FC2753CEFB6B04447
:103AB000C2320020BC1100205809002048240020F8
:103AC00020A00108A40B00208AA0010878A2010808
:103AD00038C2010852C2010839C1010867C2010891
:103AE00024C1010830C101087BC201088CC2010851
:103AF00096C20108A5C2010844170020B4C20108FB
:103B000004000020C4C20108236CD80403D5AF48C8
:103B100097F81212A0E7AE4B0B229A6318E0AD485B
:103B200097F8161297F8172297F8153207F0C4FE87
:103B30000EE0A948B4F844108EE7D9F80030190512
:103B400006D5A648B7F81C12B7F91A2207F0B4FE3A
:103B5000A36B0133A36344E0A14B1B689A0115D505
:103B6000B4F848309A4D8BB9EB6C0E2017939D4BEF
:103B700017A91B68189305F09BFE4FF48053A5F816
:103B800046300A2388F8003006F06AF805F072FE25
:103B900027E094F85030002BF6D0914B1B689B0126
:103BA000F2D4092388F80030F0E78F4B1A68E36BF2
:103BB000C8339A4203D997F859557DB904E007F004
:103BC0004DFD0028F7D10CE0E06A06F06BFC94F89C
:103BD0005130E562022B01D10EF044FC012388F83C
:103BE000003007F025FD10B1012388F800300023D4
:103BF00023717E4B0FAD5B6828469847002800F084
:103C00001A81307800237A4E032804BF56F8231017
:103C1000784F4FEA830208BF27F8131035F91310C5
:103C20000133032BB150EED17148734B01461A7822
:103C300003F09CF8D4F85480002140460FF078FF40
:103C400078B16E4F3B88002B00F0B280D4F8C830BA
:103C5000DFF8B4811B7808F10C0505934FF00009DB
:103C60006BE05B4B93F8585095B9654B1A681F464B
:103C700072B1DFF85C91404609F15C0129443A6871
:103C800024350AF096FB6C2DF3D1012389F85830C6
:103C900094F85830002BD4D0002556F825000FF0AA
:103CA0005FFD584B242101FB05310AF04FFB12F058
:103CB000CFFD46F825000135032DEED1C1E7D5F83B
:103CC00000C009936146CDF81CC008900FF092FC2B
:103CD000099B834618460FF043FD014658460FF0F6
:103CE00047FEDDF81CC0014660460FF085FC034628
:103CF000089A19466860104607930FF07BFC01464E
:103D000058460FF081FDA9680FF076FC079BE8602C
:103D10002B60A860DFF8F4B0002346F80A304AF8B8
:103D20000B30069B012B26D009F10109B9F1030FD5
:103D300008F1040805F114056AD03B8856F82900FB
:103D4000B3F57A7F069302BF0023C8F800302B61D9
:103D5000D8F800304FEA890A0344C8F800300FF061
:103D6000FFFC2B690133012B2B61A8D10023686074
:103D70002860AB60CEE72869012807DD01380FF025
:103D8000EFFC0146E8680FF0F3FD00E0002012F0C0
:103D9000B5FF059A72B1069010460FF0E1FC069B44
:103DA000014618460FF0ECFE20B14FF47A733B80C9
:103DB000002335E0D8F800304FF47A7203F5FA7337
:103DC00093FBF2F34BF80A30AEE700BFCEC2010816
:103DD000A40B0020DBC20108F4C20108FFC20108E5
:103DE00094240020A0320020482400204417002002
:103DF000C8210020841100206D170020B832002057
:103E000000180020000C0020700C0020B80C0020CE
:103E10003888012801D106F079FD3B88013BC6E7CF
:103E2000B54956F8232051F82310521A46F823209A
:103E30000133032BF4D194F82051B04E25B1013D4C
:103E400086F8205100F02ABCAD4B93F8E82103F529
:103E50000D71013A86F82021B3F826220091A94974
:103E600003F5F8730F68A8490868A8490968B847B6
:103E7000A74BDB780893A74B1B68DF0005D4A64B44
:103E8000A64A1E78032E72D889E0A54BD6F82421C5
:103E90001968967E4B880F8806EB8606DF1BA14BC0
:103EA000BFB21B6892F819E003F4805C9E4B0FFAD6
:103EB00087FAD3F8009006F10A0B9C4B4FEA4508AD
:103EC00033F81510BCF1000F0AD0B9F80220B9F888
:103ED00000309B1A5344022293FBF2F292B200E0AC
:103EE0003A46BEF1000F2ED009B2B1F5FA7F904BE1
:103EF000A8BF4FF4FA719942B8BF194681EAE1733D
:103F0000A3EBE1735B4522DD0029CCBF891B891936
:103F100089B209B281EAE173A3EBE1730EFB03F30B
:103F2000642093FBF0F012B24A434FF4FA7300039B
:103F300090FBF3F092FBF3F31BB24343C0F58050C8
:103F4000C3F30F3306E04FF48050734602E04FF4A2
:103F500080500023714A012D38F9021000FB01F056
:103F600003EB203028F8020089D00125A5E7634B38
:103F7000D3F828315D88B5F5FA7F10D26B4BB2F9D2
:103F80000470B3F9040069420028B8BF40420B1A1C
:103F90009F4203DB2B18BB42A8BF3B469380654B77
:103FA0001B6893F806B0BBF1000F1CD05D4909688F
:103FB000880715D560490978012911D9DB785F4D4B
:103FC00059432D88CB1A9D4288B203DBA9420B4688
:103FD000A8BF2B4601B209031BB291FBF3F301E02A
:103FE0004FF4805304931388002705933D46D4F87B
:103FF00028313C460693524BB2F80290B2F904A025
:104000001B78DFF84C81B5424ED20FFA89F0099344
:104010000FF0A6FBD8F808100FF0F6FB0790BDF9DB
:1040200014000FF09DFBD8F804100FF0EDFB079A79
:10403000014610460FF0E0FA069B079093F9000046
:1040400040420AFB00F00FF08BFBD8F80C100FF089
:10405000DBFB079A014610460FF0CEFA0FF09AFDEF
:1040600011AA80B2099BBBF1000F03D0049900B2E2
:104070004843001322F8150011AA32F8152020B287
:1040800011B2814204DC38B28142B8BF174600E069
:104090001446052B04D1042D9CBF2A4921F8152074
:1040A000013508F11008AEE71E4BE71B1A689E4663
:1040B00012F4805FBFB21148194B62D0224A0F4CF4
:1040C000127851075EBFD0F82421128AA0F8EC21A3
:1040D0001E4AB2F80680D0F824210FFA88FCB2F804
:1040E0001090114A1168CA88C2EB0905AC4531DC51
:1040F0001B680A881D8833E0B80C0020A40B002040
:10410000C82B0020C4000020C42400203C20002034
:104110004C24002094240020D821002000220020DC
:1041200094230020BC11002090230020B8210020FF
:104130000CFEFFFF60110020C8000020B411002019
:104140008211002084110020C33200207C2B00202B
:10415000D00C00204A44944505DB1B684D885A88E2
:10416000A4F8EC8113E0B4F9EC21AA42D9BF0A8883
:104170001B681B684D88D9BF1D8890465A88A84681
:1041800005E0764A1B68B2F806801D885A881FFA37
:1041900082FCA9B2C1EB0C053AB22DB2AA42704B17
:1041A00024DD01241C702C0394FBF2F24FF0000C70
:1041B000C0F8F021B4450BD211AB33F91C9002FBCF
:1041C00009F9C9F30F3923F81C900CF1010CF1E740
:1041D000022395FBF3F3CD18624BADB21B78062B8F
:1041E0000FD1022E0DD8604B5F800AE000241C70B6
:1041F000022492FBF4F28D18C2EB0C02ADB294B221
:1042000000E02C46DEF80010B0F9EC3101F48052E9
:1042100001F010010991554904930978D0F824312F
:1042200001F00401C9B20591514952480968D0F81A
:1042300000B001F0006106914F495048B1F90610F5
:1042400007680791DFF8549171000A914FF0000A56
:104250000A998A4551D011A93AF801C00FFA88F09D
:104260000D920C93CDF82CC00FF07AFA444951F816
:104270003A100FF0C9FA0FF08DFC29B28842DDF830
:104280002CC00C9B0D9A03DB21B28142A8BF0146D2
:104290008C4408991FFA8CFC29F802CF0FFA8CFC89
:1042A00009B1B9880FE06AB1BBF80600198A091A8A
:1042B0000498884203DC3988BBF8000004E0BBF8AE
:1042C000021000E0398878888C4503DB844561461C
:1042D000A8BF0146A9F80010099959B1059949B13B
:1042E00042B9069931B9598A07988842BCBFB98842
:1042F000A9F800100AF1020AAAE71C4B1A7802F08A
:10430000040202F0FF034AB11E491F4F91F8F43135
:10431000013BDBB2182B00F2448109E0B342F3D237
:104320001A4A32F813101A4A22F813100133F5E72B
:1043300001229A40174B1340002B00F03281164B9C
:104340000D481B8813F4807F2AD0044B1A88ADF8DF
:104350005C205A889B88ADF85E2037E0B8210020A9
:10436000DA2100208211002084110020C3320020B5
:1043700094240020902300207C2B002094230020F4
:10438000D00C0020A40B0020480900204020002071
:10439000A82200209920980190240020A622002025
:1043A000C04B1A88ADF85C205A889B88ADF85E2017
:1043B000BD4AADF860301268D20409D5D1F8242185
:1043C000B0F90640128A944202DA5B42ADF86030DE
:1043D000B64D4FF47A72B5F902304FF4616403F5CB
:1043E000E163534393FBF4F3A3F5FA73ADF8743030
:1043F000B5F9003003F5E1635A4392FBF4F2AC4B9C
:10440000A2F5FA721B88ADF87620A3F2DC53ADF862
:104410006230D1F8243102881B8AD21AADF86420A8
:104420004288D21AADF866208288D21AADF8682088
:10443000C288D21AADF86A200289D21AADF86C206F
:104440004289D21AADF86E208289D21AADF8702056
:10445000C289D31AADF872300023002227F8132046
:104460000133082BF9D1934B93491B68934D049367
:10447000934B1B680593934B1B78C3EBC30301EB72
:10448000030B594574D00B7833B103F115020123A6
:104490009340049A134067D0059B11F806CC4FF067
:1044A0000E0E0EFB0C3EBEF90020BEF90230642059
:1044B0009B1A11F9022C9BB25A4392FBF0F211F8AD
:1044C00005AC4FEA530911F8034CC9EB02024FEA5D
:1044D0004A061EA892B211F8018C064414B936F8A7
:1044E0001C0C0CE0B5F9000036F91C6CB04208DA7F
:1044F0000444844203DBA6423046A8BF20462880FD
:1045000008E007DD041BB44203DB8442A8BF044675
:1045100026462E80DEF80A40012000FA0AF02042EA
:10452000B5F9006011F9040C12B200FB06F04FF06F
:10453000640690FBF6F014BF4FF0FF340124904264
:104540000ADB4FFA88F25A4392FBF6F2C9EB0202F9
:1045500012B28242A8BF02465B4B33F81C9002FBAA
:10456000049423F81C4000E02B800235073188E7D3
:10457000534B564ED3F8008000250E2303FB0583D2
:1045800093F9064036F9023FE8B26343642493FB93
:10459000F4F4348009F00AFD01352044082D308000
:1045A000EBD1414B464D1B6813F0200F33D0002058
:1045B00009F0FCFC38800646012009F0F7FC3D4B71
:1045C000414C1B6878801B0625D5414B374AD3F8F0
:1045D00018321B78012B21D12968B2F9003091F9EA
:1045E00014E0B2F9022003FB0EFE91F906304FF001
:1045F000320C5B4253439EFBFCFE6FF0310293FB97
:10460000F2F293FBFCF31FFA8EFE7244B11873446E
:104610002180184460802D68002319E0D5F800E05F
:10462000B2F902309EF906105943322391FBF3F19F
:10463000314421809EF91460B2F9001001FB06F2AA
:1046400092FBF3F21044E5E70133082B3A5310D004
:104650000E2101FB035137F91300B1F900205C0072
:104660009042B1F90210EFDB0AB28242A8BF0246C3
:10467000EAE70CF06DFC08B10CF080FC144B012251
:104680001A710BE006F0EAFF00283FF4AAAA4FF4E3
:104690008053A4F846300A23FFF7A1BA1FB0BDE843
:1046A000F08F00BF00220020BC110020C02100209C
:1046B000A8220020942400209F2300209A0D00208F
:1046C0008C20002098230020480900204609002063
:1046D000A40B00209148F0B50368914A9C8AA4B2CB
:1046E000E1B211F0010F2ED0198821F40061090404
:1046F000090C1980198889B241F480611980002160
:104700001170517899B1917811B9D178FF290ED1F2
:10471000012191701179022901BF198889B241F4F0
:1047200000611980517941F001011982E1E051796C
:1047300001F0FE011982D378FF2B00F0DA80784B6C
:10474000FF211970D5E08E073AD5BFF35F8F14793A
:10475000E4B2012C13D1517889B1917879B11988DB
:1047600021F480610904090C1980BFF35F8F198B54
:104770001988947189B241F4007119801BE0198B7A
:10478000BFF35F8F14796649022C0AD14C7844B18B
:10479000897831B1198821F480610904090C1980E4
:1047A000A1E014795E49032C05D14C781CB18978BD
:1047B000002940F09880998889B241F4806197E09F
:1047C0004D0756D5012191715178002937D0917844
:1047D000002934D011791C88022911781DD924F4BC
:1047E00080642404240C1C801E8A9568CCB2F6B226
:1047F00049B26E54198889B241F400711980016878
:10480000A31C13700B8A0134DBB264B22B558B8866
:104810009BB243F480638B8026E0A4B244F400741E
:104820001C801D8A9668CCB2EDB249B275541B8AC1
:10483000611C49B2DBB203347354147014E09178F4
:10484000374C09B9217B41B1198889B241F4007113
:10485000198013780133137006E0198889B241F486
:10486000807119800123A37001680B88DB05FCD4DB
:104870003FE001F0400101F0FF05E1B114781F8A2B
:104880009668E5B2691C64B2FFB23755C9B21679B1
:10489000117049B2CC1CA64201BF9C8824F48064EC
:1048A0002404240C08BF9C8013798B4221D11C4B1B
:1048B00002351D701DE027061BD511784CB2661C11
:1048C0000AD0156901312C5DC9B21C8214791170AE
:1048D00049B28C420DD106E0D17815701982517819
:1048E00009B9117929B9998821F480610904090C61
:1048F0009980137992F9004001339C4208490CD108
:1049000000238B708B7933B101688B8823F440735B
:104910001B041B0C8B8000231375F0BD1826002090
:10492000C40D00206B4B6C4A2DE9F04F5E899469F1
:104930004FEA062AB4EB0A0A9C884FF000054FEABA
:1049400004481C894FF0000BA4FB0A6765EB0B0BB6
:1049500004FB0B77F40944EA476418EB04065C880F
:104960004FF000094FEAE7154FEAC438DC8849EBFD
:10497000050787B0CDE90467A4FB0A6704FB0B7742
:10498000340A44EA076418EB04064FEA27259C8999
:104990004FF0000949EB0507CDE90067AAFB046762
:1049A00004FB0B77F40D44EA472414F5FA664FEA4A
:1049B000E75545F10007B6F5FA6F77F10003CDE949
:1049C0000267964666DADDE90489A4FB046704FB06
:1049D00005F34FF0050C07EB4307A6FB0C230CFB7C
:1049E00007335F104FEA3206B8EB06084FEA92062B
:1049F00046EA837669EB07099F10DDE90023921BE5
:104A000063EB0703CDE90023DDE90267334A4FF08A
:104A1000FF33964277EB0303CDE9048927DA40F6AA
:104A2000AC520023A4185D4104FB05F3A4FB04452C
:104A30006FF0060205EB4305664202FB0566A4FB28
:104A40000223334418EB020649EB0307CDE9046760
:104A50000B26A4FB062306FB0533DDE900455B10AE
:104A60004FEA3202A41A65EB0305CDE90045DDE902
:104A700002450AFB0BF3AAFB0AAB0BEB430B4FEA15
:104A8000DA7242EA4B02A41A4FEAEB7365EB0305B4
:104A9000CDE90245DEF81C40009B019DA4FB0323E9
:104AA00004FB05334FEA525848EAC3284FEA6359DA
:104AB000DDE90423B8EB020269EB03039946D30B4B
:104AC00043EA494300B1036009B1029B0B6007B0A0
:104AD000BDE8F08F70170020C40D002024FAFFFFFE
:104AE0002DE9F04F87B06C4C02916C4922880E6A18
:104AF0000546C2EB26135B435200C2EBE602B4F953
:104B000002601B135643B4F90420B4F90A0053435E
:104B10009B1303EBE62606EB860380331B12B6F5E8
:104B2000FA384FEAE67704934B6A47F1FF39A8FB5E
:104B300008AB039308FB09F3B4F908200BEB430B14
:104B4000E389A6610593D31708FB03F102FB091162
:104B5000A8FB02230B44C1171F030AFB01F300FB50
:104B60000B33AAFB00011603194447EA1257020A45
:104B700042EA016292194FEA2123E6887B41003222
:104B8000A2FB060143F5004306FB03114B10009303
:104B9000CB170193DDE900231343B4F810E0B4F818
:104BA0000CC06DD00FFA8EF0C1170AFB01F1AAFB01
:104BB000002300FB0B11BDF914600B44F71708FB31
:104BC00007F106FB0911A8FB06670F44790470047E
:104BD000801841EAD6315941039B0FFA8CF8C3F58E
:104BE000801E7246D317002212184FEACE764FEA83
:104BF000C3774FEAC8034B4147EA5E07B61A67EB33
:104C0000030740F63543A6FB030103FB0711DDE96B
:104C100000230FF005F8B4F916204E1302FB06FE30
:104C2000470B47EAC147D31707FB03EEA2FB072355
:104C30005643734407FB0366A2FB07233344560E17
:104C400046EAC3168219B4F914604FEA636741EB70
:104C500007037143F71700FB0717A6FB0001394450
:104C6000C60C46EA413692194FEAE1474FEA122153
:104C7000B4F912207B4141EA036113010B4400E0C7
:104C800000230DB11B0A2B60029B13B11A46049B33
:104C9000136007B0BDE8F08FDC170020C40D0020C2
:104CA000704770472DE9F041324C334D62892B8DAE
:104CB000B4F904809A1A2389B4F902E05A43B4F98A
:104CC0001230D613B4F91420DB02324493FBF2F213
:104CD00032440A26E2615643A2F57A6202FB02F3ED
:104CE000B4F90EC002FB0EFE02FB08F2B4F90C8010
:104CF0001B130CFB03FC03FB08F31B1403EB6232D6
:104D00000232E388921002F5004253434CF25032D3
:104D1000B4F920704FEAEE2EB4F900400EEBEC2C03
:104D20000CEB8404BC40ED6A0234A5EBA4043A41C8
:104D300062434FEAD3384EBFB2FBF8F35400B4FBE2
:104D4000F8F340F6DE3448BF5B001A125243624368
:104D50000A4C08365C43241404EB224202F6CF626C
:104D6000361103EB221300B1036001B10E60BDE800
:104D7000F08100BF84170020C40D002043E3FFFF33
:104D800013B50C4B04465B681B20022101AA98470F
:104D900070B19DF804209DF8053043EA022303F525
:104DA0004E5310334FF48C7293FBF2F32333238072
:104DB00002B010BD5C170020064B93F8302002F0C3
:104DC000FF012AB101220270002283F830207047CF
:104DD00001707047C40D002037B5104B04465D6864
:104DE000187806216A46A847A8B19DF800209DF8CA
:104DF0000130012043EA022323809DF802209DF820
:104E0000033043EA022363809DF804209DF80530B7
:104E100043EA0223A38003B030BD00BF5C1700202B
:104E200013B5104B04465B683B2006216A46984741
:104E3000A8B19DF800209DF80130012043EA02232B
:104E400023809DF802209DF8033043EA022363800B
:104E50009DF804209DF8053043EA0223A38002B0A8
:104E600010BD00BF5C17002010B5224C2368998A42
:104E700089B211F4706F1EBF1F4A012082F8310001
:104E800011F4E06F2BD01A8B9A88890522F4806286
:104E90004FEA02424FEA12429A8020D41A889205C1
:104EA0001DD41A88D0050FD51A88D105FCD41A88CC
:104EB00092B242F400721A801A889205FCD40F4B09
:104EC00018780BF04AFF0AE01A8892B242F4007296
:104ED0001A809A8822F440721204120C9A80226876
:104EE000938A23F470631B041B0C9382024B0022F1
:104EF0001A7510BD18260020C40D00201C260020A5
:104F0000054A08B5138801339BB21380034B187808
:104F10000BF023FF002008BD142500201C260020D4
:104F200008B54FF4804001F0DBFC012801BF044BC1
:104F30004FF480425A61034B08BF83F8320008BD2A
:104F400000040140C40D002010B5074C2368186907
:104F500001F0C6FC38B123681A69044B5A61044B4E
:104F6000012283F8302010BD6817002000040140A2
:104F7000C40D0020F8B50E461746084C4FF4805576
:104F8000656140F080000DF0A1F9384600213246FD
:104F90000DF06EF925610120F8BD00BF000C014045
:104FA00070B50E46054C4FF4805565610DF08EF9D5
:104FB00030460DF08BF92561012070BD000C0140D9
:104FC00070B5104C0546192005F05DFDA36815204D
:104FD0000021984710B9022005F03AFEA36845F079
:104FE000180116209847A368002117209847A36846
:104FF00001213D209847A3683E200121BDE8704073
:10500000184700BF5C170020F0B5284D85B095F813
:105010003330002B47D1264C2368002B43D01A682D
:10502000244E12B1B1690A43B2619A889868ADF80A
:10503000002002228DF80320694604228DF8022008
:1050400002F039FBB369002743F00103B361236821
:105050000126187B197D02F019FB2368164993F984
:10506000150008F09DFE2368144A1B6953610293E2
:1050700008230DEB03008DF80D308DF80C708DF8C2
:105080000E6001F0FDFB236801A85B7D8DF80670C2
:105090008DF8043003238DF805308DF807600DF08E
:1050A000C9F885F8336005B0F0BD00BFC40D00201D
:1050B0006817002000100240494F0008000401401A
:1050C00037B50546FFF7A0FF2C4B1A682C4B9A42C8
:1050D0000ED14FF40053ADF8043002238DF80730A1
:1050E000042328480DEB03018DF8063002F0E3FAA3
:1050F000254CFFF789FFA36880216B209847642027
:1051000005F0C1FCA368072168209847642005F0DA
:10511000BAFCA36800216B209847642005F0B3FC1B
:10512000A36801216B2098470F2005F0ACFCA36811
:1051300018211B2098470F2005F0A5FCA368182113
:105140001C2098470F2005F09EFCA36829461A20D2
:1051500098470F2005F097FC0C4AA3681178192096
:105160009847642005F08FFCA368102137209847EA
:10517000A36801213820984703B030BD7C0000208F
:10518000001BB700001001405C170020FC17002036
:1051900008B5FFF739FF024B4FF400621A8008BDD3
:1051A0000400002070B50546154CFFF72DFFA368DD
:1051B00080216B209847642005F065FCA3680321DB
:1051C0006B2098470F4AA3681178192098470F2041
:1051D00005F059FCA36829461A209847A3681821AE
:1051E0001B209847A36818211C209847A368022118
:1051F00037209847A36838200121BDE87040184740
:105200005C170020FC17002008B5FFF7FDFE074BD8
:105210005B7813B1012B03D008BD4FF4806201E02D
:105220004FF40062024B1A8008BD00BF58170020DF
:105230000400002010B51E4C4000C0B2A3602361E2
:105240001C4B6071E170012000212173607022719C
:105250002075186884F8311040B383889B0515D4F5
:105260000388D9050DD44FF480530288920502D5E6
:10527000013BFAD112E08BB103889BB243F48073F7
:10528000038083889BB243F4407383804FF4805340
:10529000227D12B1013BFBD100E013B9BDE8104003
:1052A0002EE6034B93F8310080F0010010BD00BFE3
:1052B000C40D00201826002007B5002101AB0322F1
:1052C0007720FFF7B7FF9DF805309DF804001B021B
:1052D00043EA00439DF80600184303B05DF804FB61
:1052E00008B5FFF7E9FF014BD86108BDC40D0020E8
:1052F00008B5FFF7E1FF014B986108BDC40D002020
:1053000007B5F7216B4606227620FFF793FF9DF83D
:1053100000309DF801101B0343EA01139DF80210B1
:10532000094A43EA111353629DF803309DF80410B3
:105330001B0343EA01139DF8051043EA111313629E
:1053400003B05DF804FB00BFC40D0020104B13B583
:105350001B78104C13B194F83230B3B1032201AB77
:105360007720F621FFF766FF9DF805309DF80420B1
:105370001B0243EA02439DF806201343064AB2F992
:105380002020C2F10802D340E36202B010BD00BF8A
:1053900084000020C40D0020841700200B4B13B59F
:1053A0001B780B4C13B194F8323063B1022201AB7D
:1053B0007720F621FFF73EFF9DF804209DF8053089
:1053C00043EA0223238502B010BD00BF8400002001
:1053D000C40D002030B505460C461346294622462A
:1053E000BDE83040682025E713B5062204460121B8
:1053F0001C206B46FFF71EFF08B39DF801309DF897
:105400000020042143EA022242F38D0292FBF1F2D2
:105410009DF8023022809DF8032042EA032242F3E5
:105420008D0292FBF1F29DF8043062809DF8052018
:1054300042EA032343F38D0393FBF1F3A38002B00D
:1054400010BD13B506220446022118206B46FFF753
:10545000F1FEB8B19DF800309DF801209B0803EBE8
:10546000022323809DF802309DF803209B0803EB64
:10547000022363809DF804309DF805209B0803EB10
:105480000223A38002B010BD314B2DE9F3411B78FC
:105490000546002B3CD0002426462746A046013472
:1054A0005320322108226B46E4B2FFF7C3FE08B94D
:1054B00000204AE09DF801209DF80030202C03EBED
:1054C00002231BB29DF8032098449DF8023003EBA1
:1054D00002231BB21F449DF805209DF8043003EB06
:1054E00002231BB21E449DF8073003F07F0301D056
:1054F000002BD4D198FBF4F897FBF4F796FBF4F665
:10550000144BA5F800806F80AE8083F834401CE017
:105510005320322106226B46FFF78CFE0028C7D0AD
:105520009DF801209DF8003003EB02232B809DF8AD
:1055300003209DF8023003EB02236B809DF80520C9
:105540009DF8043003EB0223AB8002B0BDE8F0818C
:105550006E170020C40D002013B5204B400002AC94
:10556000C0B2587104F8012DD970012200211A73BC
:1055700059701A711A751A4A1C6110689C6083F878
:10558000311040B38288920515D40288D4050DD419
:105590004FF480520188890502D5013AFAD112E010
:1055A0008AB1028892B242F480720280828892B2FA
:1055B00042F4407282804FF48052197D11B1013A59
:1055C000FBD100E012B9FFF79BFC04E0034B93F81A
:1055D000310080F0010002B010BD00BFC40D0020FA
:1055E00018260020772048210122B5E7772058218E
:1055F0000122B1E77620F4213122ADE7064B0021EC
:1056000093F82020054B9201343283F83210772032
:10561000F42102F0FC029FE784170020C40D002053
:10562000034B002283F832207720F4212E2293E7C7
:10563000C40D002003460A46682019468CE713B5BE
:1056400000222A211C20FFF787FF0E2102221C20A6
:10565000FFF782FF0F2103221C20FFF77DFF2B2184
:1056600012221C20FFF778FF164A0224936916487D
:1056700043F0040393612023ADF8043004230DEBC1
:1056800003018DF806308DF8074002F014F8224629
:105690002C211C20FFF760FF2D2101221C20FFF789
:1056A0005BFF2E2100221C20FFF756FF2A21052236
:1056B0001C20FFF751FF054B4FF480721A8002B097
:1056C00010BD00BF0010024000080140040000208F
:1056D00008B50F2108221820FFF73EFF0E221820E0
:1056E0001021FFF739FF024B4FF480521A8008BD9A
:1056F0000400002008B5134B53201B782D210822ED
:105700007BB1FFF729FF31210A225320FFF724FF45
:105710002C210C225320FFF71FFF53203821902209
:1057200009E0FFF719FF31210A225320FFF714FF88
:1057300053202C210A22FFF70FFF40F20912024BDF
:105740001A8008BD6E17002004000020FEF7C2BFBB
:10575000FFF78ABBFEF7BEBFFFF786BB2DE9F04F10
:1057600085B003F065FB8F4B1F78002F40F0A885B4
:105770008D4D2B685A0540F1A3858C4B8C4CB3F8AA
:10578000DE8023788B4E002B00F0858132686368C1
:10579000D31A7C2B40F27F81237A6260013323721B
:1057A00007F12400DFF80892C0B203F031FB09F1E1
:1057B0000C0353F827000DF0D3FF7F4B8246188867
:1057C0000DF0CEFF014650460EF0D2F87B490EF0A8
:1057D0001BF80EF0DFF9013700B203F007FB032FCF
:1057E000DED1302003F014FBB9F9180003F0FEFA03
:1057F00003F006FB99F808309B0732D141F2883359
:10580000D9F804209A4219D9102003F001FBD9F8E5
:105810001C00642790FBF7F000B203F0E7FA2120A8
:1058200003F0F6FAD9F81C0090FBF7F307FB13001E
:105830000028B8BF404200B203F0D8FA142003F0A9
:10584000E7FA5F4BB3F904000A2390FBF3F003F08F
:10585000CDFA1C2003F0DCFA002003F0C7FA03F0B5
:10586000CFFA237A5F0740F0F280022003F0D0FAEB
:105870004F4B4FF00509186A6423323090FBF3F068
:1058800000B203F0B3FA4F4B0320B3F9067003F0F4
:10589000BFFA97FBF9F74C4BBFB21B7858070BD5F3
:1058A0004A48414604F0DCFF20B92B6813F0100F82
:1058B00018BF002738B205E0454B1B68D889B0FBFC
:1058C000F9F000B203F092FA2B68990740F18D804D
:1058D000DFF80491DFF8FC8099F80010B8F8002098
:1058E000642303FB02124B00B2FBF3F3A78C0620E8
:1058F0003F01BFB247EA0327BFB2C3F303231F43ED
:1059000003F086FA38B203F071FAA38C99F80020FC
:1059100001339BB293FBF2F102FB1133A16AA38422
:105920008B7B012B05D1392003F072FAB8F9000006
:1059300021E0B8F800706E237B43152793FBF7F73F
:10594000CB7BBFB20BB197FBF2F73A204FF0640963
:1059500003F05EFAB7FBF9F809FB18770FFA88F045
:1059600003F044FA3B2003F053FAB8B2471D0A2073
:1059700097FBF0F000B203F039FA282003F048FA60
:10598000E36A0A2093FBF0F000B203F02FFA042040
:1059900003F03EFA0E4B1B68DB89FBB101F0A4FA61
:1059A00020E000BFC2320020BC110020C82B002024
:1059B000FC0D0020482400200400002000007A4450
:1059C000C0210020B8210020C3320020FC2D00207F
:1059D00060110020B4110020C8000020C94B1868D5
:1059E00080F3100000B203F001FA03A9C64803F0E7
:1059F000D3F9132003F00CFABDF90C0003F0F6F90B
:105A00001B2003F005FABDF90E0003F0EFF9232087
:105A100003F0FEF94E2003F0E9F903A9BA4803F0B8
:105A2000BBF9122003F0F4F9BDF90C0003F0DEF924
:105A30001A2003F0EDF9BDF90E0003F0D7F922208A
:105A400003F0E6F9452003F0D1F903F0D9F9237A00
:105A5000282B20D1AD4B002230681A724FF47A7394
:105A6000B0FBF3F84FF03C09172003F0D1F9B8FB75
:105A7000F9F7B7FBF9F009FB1070000200B203F070
:105A8000B5F9182003F0C4F909FB178000B203F040
:105A9000ADF903F0B5F994F830309C4F002B00F0CD
:105AA000B88004F0C9FF7B6B994AC31A93428046C1
:105AB0003CD9002387F83A3087F83C30954B1B8857
:105AC000DAB21B0A87F8562087F8573087F84C203F
:105AD00087F84D307A6E33689A1ABB6E197C4FF492
