:020000040800F2
:1000000000A000208123010823CD0008B10A0108C7
:1000100021CD00081FCD00081DCD00080000000004
:100020000000000000000000000000001BCD0008E0
:1000300019CD00080000000017CD0008D5B2000857
:10004000E9230108E9230108E9230108E92301085C
:10005000E9230108E9230108E9230108E92301084C
:10006000E9230108E9230108E9230108E92301083C
:10007000BDAF0008ADAF0008B3BD0008E92301081B
:100080009DAF00088DAF0008E9230108E9230108AE
:1000900045CE0008E9230108E9230108E923010806
:1000A00055FC000881FC000845FC000891FC000894
:1000B00075FC000865FC0008E9230108E923010834
:1000C000E9230108E9230108E9230108E9230108DC
:1000D000E92301084DFE000841FE000835FE000836
:1000E000E5B20008E9230108F50D0108E92301083C
:1000F000E9230108E9230108E9230108E9230108AC
:10010000000000000000000000000000E9230108DA
:10011000E9230108E9230108E9230108E92301088B
:10012000E9230108E9230108E9230108E92301087B
:10013000E9230108E9230108000000000000000095
:10014000E9230108E9230108E92301080000000070
:10015000000000000000000000000000000000009F
:100160000000000000000000E9230108E923010865
:10017000E92301080000000000000000000000006A
:0801800000000000E923010862
:100188002DE9F04F2DED028BA64EAFB034780096D6
:10019800002C00F0EF80A44B1868002801F00087BD
:1001A8000AF0C8FEA14C20680DF0A1FD002801F05E
:1001B800F78620689E4C0DF097FD092801D03F284E
:1001C8004BD14FF0000927689A4E4D462FB19A48F7
:1001D80031683A4616F0ECFF10B9B14605B9354614
:1001E800964B10369E42F1D3D5B12E68D9F80080CF
:1001F800236816F803E018F80300704510D15A1C5C
:100208008D4948B92D2B07D8894E4FF0200E01F89B
:1002180003E03260885403E001F803E02260E7E776
:1002280023680BB14D450FD085480CF025F94D4595
:1002380007D855F8100B0CF01FF9092006F0E8F95B
:10024800F5E70AF083FE002723689F42AAD27A4B7B
:10025800D85D06F0DDF90137F6E72368002B41F099
:100268002486042841F0758673480CF031FB01F0B0
:1002780097BEDFF8F4A1DAF800000DF038FD002889
:1002880062D0DAF800000DF02FFDDBF8003093F8AB
:1002980048100646002940F08980242840F0E8806C
:1002A800012283F84820DBF8003093F8480006283C
:1002B800DFD193F849A0BAF14D0F00F07A8600F229
:1002C800F081BAF1320F00F0998600F27881BAF124
:1002D800240F00F0258600F22581BAF1030F00F003
:1002E800C38240F2FB80BAF1050F40F00E811A205C
:1002F80006F02CF94FF00009524B13F8090009F1E8
:10030800010906F0DAF8B9F10B0FF5D14FF0000941
:100318004D4B13F8090009F1010906F0CEF8B9F1BF
:10032800080FF5D14FF00009484B13F8090009F1FF
:10033800010906F0C2F8B9F1070FF5D106F0CEF8B9
:100348002B68002283F84820D8F800000AF0F2FD54
:100358003F4B93F835304BB138590AF064FE0DF035
:100368003BFD07F0CBF83B4B3B4ADA604C34982C0A
:1003780001F01686394FE359E219002BF6D0DFF861
:10038800E890374DC9F80030079300238DF82130E5
:10039800DFF8D8802A601423324A8DF8203006AB63
:1003A8000692C8F80030AB46019262E7012904D1F1
:1003B8004D2814BF0022022273E7022904D13C28E9
:1003C80014BF002203226CE703290CD140284FF008
:1003D800000102D983F8481065E758711971D9717D
:1003E800987104225DE7042907D1997983F84900B7
:1003F80080EA01029A71052253E705297FF453AF79
:10040800587919798842987906D970409871481CAA
:1004180018710B441E7246E7B0420CBF0622002238
:100428003FE700BF982C0020C4100020241B0020A8
:10043800581B0020C48F0108281B0020B491010814
:10044800B8940108209501082C95010835950108F4
:100458003409002000ED00E00400FA05A027002080
:10046800B410002003DD0008BC100020B8100020E4
:10047800DD490B7803F0040303F0FF0E002B7FF433
:1004880012AF232EDAF800001BD1009A0291012343
:100498001370D64B019A1860D54B186098601020DD
:1004A8001873D4485A6083F80DE004330360D248C7
:1004B8000BF0E2FF0AF04AFD02990B7843F00203C1
:1004C8000B70CE4B1B681B78B34201BFCC4BCD4A97
:1004D8001A60CD4B04BFCD4ADA60E4E6BAF1010FE9
:1004E80000F0B681BAF1020F40F0E986042006F068
:1004F8002DF8422005F0E1FF542005F0DEFF4620EC
:1005080005F0DBFF4C2000F0AABEC0F0B981BAF1BB
:10051800220F40F0D486BE4E502006F017F806F1A0
:10052800500AE2E3BAF12A0F00F022851BD8BAF18B
:10053800260F00F0FB84BAF1280F40F0C086B44EB5
:10054800072006F003F8B6F81A0206F002F8B6F823
:100558001C0205F0FEFF96F81E0205F0AEFFB6F885
:10056800200200F027BEBAF12E0F00F09285BAF1F2
:10057800300F00F0A585BAF12C0F40F0A086A44EEC
:100588000C2005F0E3FF96F83C0205F096FFB6F85C
:10059800480205F0DEFFB6F8440205F0DAFFB6F8C7
:1005A800460205F0D6FF96F83E0205F086FFB6F83B
:1005B800500205F0CEFFB6F8520200F0FBBDBAF1CA
:1005C800400F00F022852BD8BAF1380F00F0BD8417
:1005D80015D8BAF1340F00F0A383BAF1360F40F002
:1005E8006E86834BDFF8289293F83000C0EBC0008A
:1005F800C0B205F0ABFF09F1200A00F046BDBAF120
:100608003B0F00F06B83BAF13D0F00F06182BAF145
:100618003A0F40F05486042005F098FF00F0B3BD6F
:10062800BAF1460F00F072850ED8BAF1420F00F009
:10063800FE84BAF1450F40F04286132005F086FF8C
:100648004FF0000900F092BDBAF1490F00F04B825B
:10065800BAF14B0F00F09284BAF1470F40F02F86A1
:1006680005F022FF8246842005F070FF504605F011
:1006780079FF684BDA680AF1800393428CBFCAEBB2
:1006880002094FF080090DF1380B0BF075FA50464E
:100698004A46594607F0BAFC4FF00009824600F076
:1006A80049BDBAF1700F00F0738263D8BAF1670FD1
:1006B80000F04D8139D8BAF1520F00F052851AD89E
:1006C800BAF14F0F00F04085BAF1500F40F0F785AE
:1006D8004F4E042005F03AFF012005F0EEFE96F893
:1006E800510505F0EAFE96F84F0505F0E6FE96F886
:1006F800500500F0B4BDBAF1650F00F0D18000F2EA
:10070800F880BAF1640F40F0DA85072005F01EFF83
:10071800E72005F0D2FE3E4B587905F0CEFE0020CA
:1007280005F0CBFE042000F02FBDBAF16C0F00F0ED
:10073800938112D8BAF1680F00F07181BAF1690F8C
:1007480040F0BD85344E3078400000F0FE0005F0E2
:10075800FDFE4FF00009B24671E1BAF16E0F00F0EC
:100768008A8100F2C681062005F0F0FE002005F01F
:10077800F9FEE9E0BAF17C0F00F00A8523D8BAF156
:10078800740F00F0F0820DD8BAF1720F00F05883A0
:10079800BAF1730F40F09385082005F0D7FE4FF0AB
:1007A800010982E3BAF1770F00F02483BAF1780FD8
:1007B80000F0DD80BAF1750F40F081852F2005F03B
:1007C800C5FE164E82E2BAF1A00F00F09B8327D82F
:1007D800BAF17E0F00F00185C0F0F084BAF1960FEF
:1007E80040F06D850C205CE0952C0020241B002037
:1007F80034090020C4100020E8940108442800208F
:10080800FC9F0020EFBEADDE00ED00E00400FA051D
:1008180040220020DC0000203C280020AF720108A4
:10082800BAF1F10F00F0D580BAF1FE0F00F048835D
:10083800BAF1F00F40F04385C54E042005F086FE5E
:10084800B6F8F20105F085FEB6F8F00100F0B2BC8A
:10085800032005F07BFE002005F02FFE012005F0A7
:100868002CFE102000F0FBBC504605F06FFE022065
:1008780005F023FE052005F020FE504600F0EFBCF1
:10088800062005F063FE4D2005F017FE4F2005F009
:1008980014FE542005F011FE4F2005F00EFE53E023
:1008A8000B2005F053FEAB4B188805F052FE07F0FD
:1008B800E5FF05F04EFEA84B1B68C3F3C000C3F369
:1008C8008002800040EA4200C3F340021043C3F3B1
:1008D800401240EAC20003F01003184305F039FE45
:1008E80005F010FD05F03EFE994B93F8A40400F0C6
:1008F800B6BC122005F02AFE984B1B88B3F5806F12
:100908008CBF4FF0080A4FF0010A4FF00009944BD2
:1009180053F8290090FBFAF009F1010980B205F0BB
:1009280018FEB9F1030FF2D18E4E308805F011FE92
:10093800B08805F00EFE308905F00BFE002005F0AA
:1009480008FE002005F005FE002000F033BC102052
:1009580005F0FCFD4FF00009834B13F8090009F17D
:10096800010905F0AAFDB9F1100FF5D1E6E47020F0
:10097800774E05F0EBFD4FF0000AB346B6F8560186
:1009880005F0E7FDB6F8580105F0E3FDB6F85A01A1
:1009980005F0DFFD96F85C0105F08FFD96F85D0126
:1009A80005F08BFD96F85E0105F087FD96F85F016E
:1009B80005F083FD0E2303FB0AB30AF1010AD3F8FD
:1009C800600105F0CFFDBAF1080F06F10E06D5D18A
:1009D800B4E470205E4E05F0B9FD06F1700A96F891
:1009E800E60005F06AFD96F8E70005F066FD96F862
:1009F800E80005F062FD96F8E90005F05EFD96F85E
:100A0800EA0005F05AFD96F8EB0005F056FD0736AA
:100A180096F8E50005F051FD5645E0D18EE410202A
:100A280005F094FD4FF00009504B13F8090009F147
:100A3800010905F042FDB9F1100FF5D17EE49AF8ED
:100A480000309945BFF47AAC494B33F8190005F0EA
:100A580080FD09F10109F2E7464E05F077FD30887F
:100A680005F077FD708805F074FDB6F904300A20AA
:100A780093FBF0F027E0072005F068FD3E4B18884F
:100A8800FF28A8BFFF20C0B205F017FD3B4B186830
:100A98004FF6FF794845A8BF484620EAE07080B283
:100AA80005F057FD364B188805F053FD284B93F891
:100AB8001F22344B186842B10A2358434845A8BF3F
:100AC800484620EAE07080B274E300F30F00FAE7CA
:100AD8001F4E022005F03AFD96F88B0205F0EDFC5A
:100AE80096F88A02BBE3022005F030FD264B1888F1
:100AF80060E3264E0B2005F029FD3368187805F0D1
:100B0800DCFC3368587805F0D8FC4FF0000BB2468F
:100B1800DAF800301D4E5B440BF1010B187905F033
:100B2800CCFCBBF1030FF3D13368D87905F0C5FCD1
:100B38003368987805F0C1FC3368D87805F0BDFCB7
:100B48003368588905F005FD3368187A87E300BFD4
:100B580040220020922C00200011002004000020D8
:100B6800D80D0020B01C002054090020901D002042
:100B7800F4210020A81C00203C140020EC130020C5
:100B88006E0E0020EC0D0020C0100020081B002075
:100B98001E2005F0DBFCD34B1A681278022A4FF0AE
:100BA800000A994679D1D9F8003003EB8A0393ED0E
:100BB800080AB2EE048A20EE080A13F0FDFE80F35C
:100BC8000800C0B205F079FCD9F80030DFEDC67A2C
:100BD80003EB8A0393ED0B0A20EE270A13F0ECFED1
:100BE80080F30800C0B205F068FCD9F80030DFEDEA
:100BF800BF7A03EB8A0393ED0E0A20EE270A13F05F
:100C0800DBFE80F30800C0B20AF1010A05F055FCCA
:100C1800BAF1030FC7D1BAF1070FD9F8003025D1BF
:100C280093ED110A20EE080A13F0C6FE80F30800BF
:100C3800C0B205F042FCD9F8003093ED120A20EE5C
:100C4800080A13F0B9FE80F30800C0B205F035FCBD
:100C5800D9F8003093F84C3000EE103AB8EE400A5C
:100C680013F0AAFE80F30800C0B20DE05344587890
:100C780005F023FCD9F800305344D87A05F01DFC60
:100C8800D9F800305344587D0AF1010A05F015FCE3
:100C9800BAF10A0FBFD1FFF751BBD9F8003053445E
:100CA800587805F00AFCD9F800305344D87A05F092
:100CB80004FCD9F8003053440AF1010A587D05F0C4
:100CC800FCFBBAF10A0FE8D1FFF738BB16F8010FA1
:100CD80000283FF433AB05F0F0FBF7E7012005F0FF
:100CE80035FC804B1B681878B9E296F8A524804B30
:100CF8000C2101FB0233043693F8380005F0DDFBC4
:100D080096F8A20405F0D9FB96F8A30405F0D5FBE4
:100D180096F8A40405F0D1FB5645E6D1FFF70EBBC3
:100D28005A20744E05F012FC06F15A0A96F8FA0495
:100D380005F0C3FB96F8F50405F0BFFB96F8F6043A
:100D480005F0BBFB96F8F70405F0B7FB96F8F80436
:100D580005F0B3FB063696F8F30405F0AEFB5645EE
:100D6800E4D1FFF7EBBA4FF0000A01264FF0000973
:100D7800614B1B78994534DA604B19F803E04FF062
:100D8800000B5B4801900C2300F1300C03FB0BF3C4
:100D980013F80CC0F44507D10344586B16F000FA59
:100DA80084463EB9334607E00BF1010BBBF11E0F39
:100DB800E7D113E0824411E063450FDA019ACDF8D8
:100DC8000CC00C2000FB0B200293406BC05C05F0AC
:100DD80074FB029BDDF80CC00133EDE709F1010952
:100DE800C6E7002E3FF4AAAA5FFA8AF005F0AEFB28
:100DF8000026BBE7404E307805F0A8FB4FF000090D
:100E0800B2469AF800309945BFF498AA3B4B19F8B6
:100E180003E0002136480C2200F1300C02FB01F3FC
:100E280013F80C20724505D1034493F8380005F0F7
:100E380044FB02E001311E29ECD109F10109E0E788
:100E48002C4E162005F082FBB6F8440205F081FB13
:100E5800B6F8D00005F07DFBB6F8D20005F079FBB6
:100E6800B6F8D40005F075FBB6F89C0205F071FBE6
:100E7800002005F022FB002005F01FFB002005F0F4
:100E88001CFB96F81F0205F018FB96F8400205F0C7
:100E980014FB002005F011FBB6F9EE310A2093FB94
:100EA800F0F080B205F055FB53E05FFA89F009F1E4
:100EB800010905F002FBB9F1090FF6D1FFF73EBAB7
:100EC800082005F043FB4FF000090D4B33F81900DB
:100ED80009F1010905F03DFBB9F1040FF5D1FFF760
:100EE8002DBA00BF9C0B00200000C84200007A44C5
:100EF800B0720108402200209410002095100020B4
:100F08000C1400200C2005F021FBD74B186805F0C5
:100F180029FBD64B186805F025FBD54B186833E13B
:100F2800042005F013FBD34B98682DE1D14E062021
:100F380005F00CFBB6F8CC0105F00BFBB6F8D001B8
:100F480005F007FBB6F8D40134E1042005F0FEFAF9
:100F5800C84E96F8120205F0B0FA96F8160205F097
:100F6800ACFA96F8150205F0A8FA96F8170276E199
:100F7800012005F0EBFABF4B587970E1BD4E08200F
:100F880005F0E4FA96F89A0205F097FA96F89B02AB
:100F980005F093FAB6F89C0205F0DBFA96F89E0283
:100FA80005F08BFAB6F8A00205F0D3FA96F8A2027B
:100FB80055E1DFF8D892B04E99F8000000EB4000F8
:100FC800C0B205F0C3FA4FF0000B99F800309B450A
:100FD80006F10206BFF4B2A916F8020C05F06DFA84
:100FE80016F8010C00EB800000EB800000F2EE2008
:100FF80080B205F0AEFA0BF1010BE6E7012005F02F
:10100800A5FA9C4B93F8400229E1082005F09EFAC6
:101018004FF00009974B4B4409F1010993F834024A
:1010280005F04BFAB9F1080FF4D1FFF787B9914EE3
:10103800102005F08BFA707905F03FFAB06805F0DA
:1010480091FA96F83C0205F038FAB6F8CC0105F0AA
:1010580080FAB6F8D00105F07CFAB6F8D40105F0AC
:1010680078FAB6F81A0205F074FAB6F81C02A1E08C
:10107800824AD25C904200F00B810C33302BF7D1BE
:1010880009F10809D1453FF459A999F8A6020023A6
:10109800EEE74020774E05F059FA06F1400AB6F817
:1010A8005C0305F056FA96F85E0305F006FA043676
:1010B80096F85B0305F001FA5645F0D1FFF73EB903
:1010C800E0206C4E05F042FA06F1800AB6F8DE021E
:1010D80000F03F0005F03DFAB6F8DE02C0F38610D6
:1010E80005F037FA96F8DC02000905F0E6F996F8FB
:1010F800DC0200F00F0005F0E0F9043696F8D9029A
:1011080005F0DBF95645E1D1FFF718B90D2005F0D8
:101118001DFA06F077FE5A4E40F00200C0B205F004
:10112800CCF9308805F01EFAF06805F01BFA0AF0D1
:1011380079FD29E0D145BFF601A91BF8090005F0A2
:10114800BCF909F10109F5E70B2005F0FFF90020CA
:1011580005F0B3F9002005F0B0F9002005F0ADF96D
:101168000EE0012005F0F2F9002078E0454B13F875
:10117800090009F1010905F0A0F9B9F10B0FF5D142
:10118800002005F0EFF9002005F0ECF9FFF7D6B8DC
:10119800384E082005F0DAF9B6F8D80005F0D9F984
:1011A800B6F8DA0005F0D5F9B6F8DC0005F0D1F9A3
:1011B800B6F8DE0005F0CDF9FFF7C0B82D4E0320D4
:1011C80005F0C4F996F8220205F077F996F823029B
:1011D80005F073F996F8240241E0264E032005F045
:1011E800B5F996F8C70105F068F996F8C80105F051
:1011F80064F996F8C90132E040F2B482BAF1DB0F23
:1012080000F09C8040F25B84BAF1F20F00F0C684D3
:1012180040F2EE84BAF1F30F40F0248605F02EF97F
:10122800FF288246184E40F065854FF0000906F108
:1012380038004946602286F8369015F070FF8DF820
:1012480017909DF8173096F89A20DFF83C909A424C
:1012580000F2EF84012005F079F999F8360005F0DD
:101268002CF9FFF76BB800BFACF7FF1FB0F7FF1FF3
:10127800B4F7FF1F40220020942400204C280020AF
:10128800DC00002020950108340900203C280020BB
:1012980005F013F9B9F8A80205F05BF999F8AA0264
:1012A80005F00BF999F8AB0205F007F999F8AD02CA
:1012B80005F003F999F8AC0205F0FFF8E0E6BAF199
:1012C8004E0F40D105F0DAF81128824602D90FF006
:1012D800E7F833E0D74E05F0D1F80AF5947A06EB33
:1012E8004A03B146187105F0D5F840F2ED2398424B
:1012F80005DD40F6CA039842A8BF184601E040F24F
:10130800EE2009EB4A09A0F2EE20192390FBF3F036
:1013180089F8050012E0C0F0B183BAF1D00F00F0EF
:10132800B883BAF1D20F40F0BC85C34B1B7803F0E9
:10133800040303F0FF09002B00F0B783002005F039
:1013480005F9FEF7FBBF00F20482BAF1350F24D18C
:1013580005F094F80E288246B9D805F08FF80328CE
:10136800B5D8B44B4FF0060909FB0A3989F8FA04D5
:1013780005F084F889F8F50405F080F889F8F60492
:1013880005F07CF889F8F70405F078F889F8F8048E
:1013980005F074F889F8F904D0E700F2EA80BAF1A8
:1013A8002B0F04D105F06AF8A24B5871C6E772D822
:1013B800BAF1250F07D19F4B00229A6005F074F807
:1013C80006F094F8BAE73FD8BAF1230F40F06985E0
:1013D80005F054F8132881463FF679AF05F04EF82A
:1013E800002296490C23534301EB030E9EF838E084
:1013F800864525D18F4E0B4409F5947906EB89096A
:1014080093F8303089F8053005F038F889F8060087
:1014180005F034F889F8070005F030F8884B894959
:101428001A6889F8080006F1D0030B60864B002083
:101438001A600EF0F9FE854B80F0010018707DE708
:1014480001321E2ACDD142E7BAF1270F0DD105F09E
:1014580021F8784EC6F8CC0105F01CF8C6F8D00182
:1014680005F018F8C6F8D40168E7BAF1290F40F07A
:10147800188505F00FF86F4EA6F81A0205F00AF85D
:10148800A6F81C0204F0FAFF86F81E0205F002F81E
:10149800A6F8200252E7BAF12F0F00F0EC8426D804
:1014A800BAF12D0F40F0FD8404F0E8FF614E86F894
:1014B8003C0204F0EFFFA6F8480204F0EBFFA6F8A0
:1014C800440204F0E7FFA6F8460204F0D7FF2B68B1
:1014D80086F83E025B79082B7FF630AF04F0DAFF1E
:1014E800A6F8500204F0D6FFA6F8520226E7BAF191
:1014F800310F34D104F0C2FF1F2881463FF6E7AE12
:101508002B685B79082B7FF4E2AE04F0C3FF494BEC
:1015180009F1B60903EB890900F03F00A9F80600B4
:1015280004F0B8FFB9F80630800100F4FE50184303
:10153800A9F8060004F0A2FF000189F8040004F0ED
:101548009DFF99F8043000F00F00184389F8040053
:1015580004F094FF89F805000AF0B2FAEEE6BAF151
:10156800330F40F09E8404F089FF324B83F8400229
:10157800E4E6BAF1410F0DD14FF0000904F07EFF07
:101588002C4B4B4409F10109B9F1080F83F83402D7
:10159800F4D1D3E600F28380BAF1390F11D104F007
:1015A8006DFF244E86F8120204F068FF86F81602D2
:1015B80004F064FF86F8150204F060FF86F817024D
:1015C800BCE645D8BAF1370F40F06B845B794FF031
:1015D8000709B3FBF9F2C2EBC2029A1A12F0FF0F25
:1015E8007FF475AEB3FBF9F909F1FF395FFA89F9B0
:1015F800B9F1FF0F3FF4A2AE04F040FF5FFA80FBA1
:101608004FFA8BF009F072FA064600283FF45FAEF5
:1016180080F800B004F03EFF708004F02FFF3071B6
:1016280004F02CFF707104F029FFF07104F026FF1C
:10163800B071D9E740220020952C0020B072010833
:101648009C0B0020900B0020940B0020020000202F
:10165800BAF13C0F15D1BD4ED6F800A09AF800B0EB
:1016680004F00CFF8AF80000336818780CF096FC38
:1016780033681B785B453FF461AE002004F07BFFC4
:101688005CE6BAF13E0F40F00C8404F0F7FEB04E71
:1016980086F88B0204F0F2FE86F88A024EE6BAF16A
:1016A800480F02D106F08AFC48E62ED8BAF1430F5B
:1016B80022D104F0E3FEA64E0023B360707104F05B
:1016C800F3FE05F013FF04F0D9FE86F83C0204F09F
:1016D800E1FEC6F8CC0104F0DDFEC6F8D00104F046
:1016E800D9FEC6F8D40104F0D5FEA6F81A0204F013
:1016F800D1FEA6F81C0221E6BAF1440F40F0D183CE
:10170800944B012283F8352018E6BAF14A0F02D12A
:1017180004F0C0FEB2E7BAF14C0F40F0C28304F007
:10172800ADFE8B4E86F89A0204F0A8FE86F89B025E
:1017380004F0B0FEA6F89C0204F0A0FE86F89E0213
:1017480004F0A8FEA6F8A00204F098FE86F8A2020B
:10175800F4E5BAF1D30F7FF44FAD04F09BFE7D4B57
:101768005886EBE5BAF1CD0F09D17B4B1B785B07A7
:101778003FF5E4AD794B4FF4C8721A80DEE500F20C
:101788004481BAF1C80F2BD193F805904FEA590953
:10179800B9F1120F3FF69BAD4FF0000ACA4507D2C8
:1017A80004F078FE0EAB23F81A000AF1010AF5E7F7
:1017B8004A4600234B4507DA0EA931F81300684959
:1017C80021F813000133F5E7122A05D0644B0021F4
:1017D80023F812100132F7E7624B01221A70ADE5C7
:1017E80017D8BAF1510F40F05C835A4B93F8343054
:1017F800012B3FF6A3AD04F041FE554E86F8510586
:1018080004F03CFE86F84F0504F038FE86F85005D3
:1018180094E5BAF1CA0F40F0AB804C4B1A681278C5
:10182800022A4FF0000A994672D1D9F8006004F0F4
:1018380025FE07EE900AF8EE677AB2EE048AC7EE44
:10184800887A06EB8A0BD9F80060CBED087A04F0A9
:1018580015FE07EE900A9FED447AF8EE677A06EBDC
:101868008A0BC7EE877AD9F80060CBED0B7A04F0C3
:1018780005FE07EE900A9FED3D7AF8EE677A06EBD3
:101888008A0BC7EE877A0AF1010ABAF1030FCBED8A
:101898000E7ACAD1BAF1070FD9F800601CD104F04A
:1018A800EDFD07EE900AF8EE677AC7EE887AC6ED86
:1018B800117AD9F8006004F0E1FD07EE900AF8EE1D
:1018C800677AC7EE887AC6ED127AD9F8006004F014
:1018D800D5FD86F84C0015E004F0D0FD06EB0A0BA8
:1018E8008BF80100D9F8006004F0C8FD06EB0A0B7C
:1018F800D9F800608BF80B0004F0C0FD06EB0A0B6A
:101908008BF815000AF1010ABAF10A0FC2D115E5E0
:10191800D9F8006004F0B2FD06EB0A0B8BF8010061
:10192800D9F8006004F0AAFD06EB0A0BD9F80060AC
:101938008BF80B0004F0A2FD06EB0A0B0AF1010A72
:10194800BAF10A0F8BF81500E2D1F7E49C0B0020DE
:101958004022002034090020952C0020480B00204C
:10196800600F0020DD1F00200000C84200007A44FC
:10197800BAF1CC0F40F095825B79092B7FF6A7ACC2
:10198800D54ED6F800A004F079FD8AF80000D6F804
:1019980000A004F073FD8AF8010004F06FFD3368BD
:1019A8006428A8BF6420187104F068FD33686428AF
:1019B800A8BF6420587104F061FD3368FF28A8BFF0
:1019C800FF20987104F05AFDD6F800A0642828BFBB
:1019D80064208AF8070004F051FD8AF80200D6F85E
:1019E80000A004F04BFD8AF80300D6F800A004F02C
:1019F80051FD2B68AAF80A005B790A2B7FF69EAC8A
:101A0800366804F03BFD307298E4BAF1CF0F7FF4EA
:101A180082AC04F03FFD6FF4AF6143189BB2AF4E48
:101A2800C62B98BFA6F8440204F034FDA6F8D000EF
:101A380004F030FDA6F8D20004F02CFDA6F8D4007E
:101A480004F028FDA6F89C0204F018FD04F016FD29
:101A580004F014FD04F012FD86F81F0204F00EFDD8
:101A680086F8400204F00AFD04F014FD00EB800043
:101A78004000A6F8EE0104F001FD93E5984B1B78B1
:101A88005E073FF55BAC974A137843F00403137085
:101A980054E4934B1B785A073FF550AC0CF0D8FA36
:101AA80005F056FD05F0EEFD48E404F0E7FC8B4B2D
:101AB800012883F8A404F3D983F8A494F0E7BAF1D1
:101AC800D60F0CD14FF0000904F0E4FC864B23F844
:101AD800190009F10109B9F1080FF5D12EE434D83C
:101AE800BAF1D40F40F0DD815B790F2B7FF4EFABB7
:101AF80004F0C4FC072882463FF6E9AB04F0CAFCB0
:101B0800764B4FF00E0909FB0A39A9F8560104F083
:101B1800C1FCA9F8580104F0BDFCA9F85A0104F069
:101B2800ADFC89F85C0104F0A9FC89F85D0104F0BA
:101B3800A5FC89F85E0104F0A1FC89F85F0104F0B6
:101B4800B3FCC9F86001FFF7F9BBBAF1D90F12D19C
:101B580004F0A0FC614EA6F8D80004F09BFCA6F89F
:101B6800DA0004F097FCA6F8DC0004F093FCA6F871
:101B7800DE00FFF7E3BBBAF1DA0F40F0928104F020
:101B88007DFC564E86F8220204F078FC86F8230283
:101B980004F074FC86F82402FFF7D0BB04F06EFC56
:101BA8000F2881463FF693AB04F068FC4F4BC9EB16
:101BB800C909994489F8060004F060FC89F807000F
:101BC80004F05CFC89F8080004F058FC89F8090066
:101BD80004F054FC89F80A0004F050FC89F80B0062
:101BE80004F04CFC89F80C000CF036F9FFF7A6BBA2
:101BF800BAF1DC0F0ED104F041FC384E86F8C7016B
:101C080004F03CFC86F8C80104F038FC86F8C901E9
:101C1800FFF794BBBAF1EF0F40F0438104F03AFCB0
:101C28002E4EA6F8F20104F035FCA6F8F001FFF7F5
:101C380085BB9DF8173009EBC30393F89D30D9078E
:101C480042D59DF8173009EBC30393F89C20284B25
:101C580033F91230002B37DD9DF8173099F836A08C
:101C680009EBC3034FEACA01D3F8A03058689DF8BE
:101C7800173009EB010E09EBC309CEF83800D9F883
:101C8800A0301A89AEF83E2092B24FF0000E012320
:101C980003FA0EF3134005D10EF1010EBEF1100F39
:101CA800F5D100E0734631440AF1010A8B87042319
:101CB8008DF83A300EA90123ADF838208DF83B3065
:101CC80006F0C6FC86F836A09DF817300133DBB263
:101CD8008DF81730FFF7B5BA081B00204022002006
:101CE800952C0020700E00200C1B002020230020C3
:101CF800901D002096F836309842BFF4E8AA0020DC
:101D080004F024FC04F0EAFBD8F8000009F012F90A
:101D18002B68186809F087F9D9F8000004F08EFBE1
:101D280009F0A6F872B6DFF8889280224026A9F852
:101D380028204FF0010BA9F828604846ADF8382054
:101D48000EA904228DF83A208DF83BB006F080FCED
:101D580048460EA98DF83AB08DF83BB0ADF838601A
:101D680006F076FC914A4FEACA0A5244916BB2F8DF
:101D78003CE00868D28F0EFA0BFE0BFA0EFB4BEA1A
:101D8800000008608A61C9F81860B9F810301A06AE
:101D9800FBD4DFF818B2DFF840920BEB0A030122FC
:101DA800986BB3F83CE001684FEA4E0E02FA0EF267
:101DB8000A4302609A6BD98F7D4B118540221A85A0
:101DC800D9F80030B9F804209A6140F605534A461C
:101DD800DFF8DCC1BCF810E01EF0800F03D1002B47
:101DE800F6D0013BF4E78161ADF8381004218DF895
:101DF8003A1001218DF83B100EA90392CDF808C0C6
:101E0800019306F025FC019BDDF808C0039ABBB1DD
:101E1800D9F80000B9F804E065490B8A1B06B8D563
:101E28000BEB0A039A6BDB8F128A13424FF04003C5
:101E380015BF8B610B85C0F818E0A0F828E0EBE728
:101E48004023CCF81830136892889A6162B60A2049
:101E580009F0DFF80EF000FA2B68F32283F8492026
:101E6800FFF76CBABAF1FA0F1BD1524B1B7858071F
:101E78007FF516AE15E0DFF8649109F1400A04F029
:101E880009FBA9F85C0304F0F9FA89F85E0304F089
:101E9800F5FA09F1040989F85B03D145EFD1FFF799
:101EA8004DBA0EF0FDFAFEF749BA0C2803D14248A4
:101EB8000AF0E2FA49E00A2801D00D2864D13F4D22
:101EC8003F480AF0D9FA2846232115F05CF908B1F1
:101ED800401B206023687BB35A1EA95C202901D1CE
:101EE8001346F8E7354A23600021D154354B364F65
:101EF800D3F80090D7F800A0304E504615F050F9AE
:101F080005462A463046514615F052F92F4A20B95F
:101F1800735D4B445B78580703D010379742E9D379
:101F280006E0974204D2681CFB683044984702E0F8
:101F380027480AF0A1FA0023204823600021302214
:101F480015F0EDF8009B1B7853B308F0FFFFFEF780
:101F580029B90C28ABD07F2804D1FEF723B92F2B41
:101F68003EF620A9A0F12002D2B25E2A3EF61AA9B6
:101F780013B920283EF416A95A1C22600F4AD054DF
:101F880004F046FBFEF70EB97F28E8D1013B0B4A67
:101F9800104823600021D1540AF06EFAFEF702B906
:101FA8002FB0BDEC028BBDE8F08F00BF34090020D4
:101FB80000040048952C0020BD940108281B00202F
:101FC800A09C0108CC030020C48F0108B49101082B
:101FD800C8940108E49401087010002040220020F1
:101FE8002DE9F04FA24FA34C3A6802F59C432DED22
:101FF800028B20332360A04B1E7889B0D6B19F494D
:1020080009688A4240F20881013E1E7004E1DFF847
:102018008C829B48D8F80030072D98BF595D994BA2
:1020280088BF29461B689847032D09D904EB450545
:102038000136A88004F0D2F8F5B28542E7D320E053
:10204800D8F8002005F1100302EB83039988DA8899
:102058000028EBD04FF47A73401A5843531A90FB78
:10206800F3F040F6C90300F57A70984205DC40F2B7
:10207800EE239842B8BF184601E040F6CA0080B285
:10208800D4E7814B814E1B68D6F8008042F2010AE2
:1020980003EA0A0ABAFA8AFA4FEA5A1A7C4BBAF1E0
:1020A800000F05D194F828201A707A4A51781170D7
:1020B8001B782BB1774B93F8009089F0010900E069
:1020C80099460F23DFF8ECB184F82930002504F095
:1020D80085F8854267DA6B00B9F1000F03D06E4AC4
:1020E80032F8150000E048466C4ADFF8CCC11168A8
:1020F8008A8B82424FEA850E694A02D8C98B81428F
:102108001CD25CF80E005B49804501D2D05A19E018
:10211800E8B205920293009104F078F8032D029B2F
:10212800059A0FDC00994FF0010E91F829C00EFABC
:1021380005FE2CEA0E0E81F829E003E008F59671F9
:102148004CF80E10BAF1000F28D194F8BC100322F5
:10215800B1FBF2F202EB42028A1A03EB050E5EFAB9
:1021680082F204EB4202508594F8BD202AB9022974
:1021780013D9404A012182F8BD10BBF800203BF872
:10218800020C1044BBF802201044464A80B2D052D8
:1021980000B2032290FBF2F080B2414AD0520135DE
:1021A8000BF1060B93E794F829203F4BA2F10F019E
:1021B8004A424A4184F8D6206AB13C4A1268520120
:1021C80009D43268D9689A60521AC82A1FD90122DC
:1021D80083F821201BE02F4A0121517011703268C9
:1021E8009968DA605B68521A9A4282BF2E4B0022C5
:1021F80083F82120002503F0F1FF854207DAE8B2D1
:1022080004F004F8264B23F815000135F3E794F899
:10221800BC30013384F8BC301B4E3368DB0405D571
:10222800224B1B68DD0701D40EF00AFC1B4B3968F2
:102238001A68137B002B41D0013B1948927B30F878
:1022480013301AB1C3F53B6308339BB21BB2A3F535
:102258007A73B3F57A7FA8BF4FF47A7323EAE373EE
:1022680007EE903A9FED127AF8EEE77A5EE000BF4B
:10227800742C00203C0A0020401000203C10002054
:102288003C2800202801002038100020441000209D
:10229800D412002000000020400A00203410002042
:1022A800F4210020FA0A0020481000209010002095
:1022B80000007A44680A0020B00A00203068000450
:1022C80040D5D4F8D800B14F081A00283ADB01F5F8
:1022D8009C402030C7F8D800AD484579AD4830F863
:1022E8001550A8B2557B90FBF5F597F8DC00013046
:1022F80000F00F0287F8DC203A4482F8DD501A46D5
:10230800A548185C01330244102B92B2F8D112B2DE
:1023180092FBF3F31BB2642BA8BF642323EAE37395
:1023280007EE903A9FED9D7AF8EEE77AC7EE877A46
:102338009B4A9FED9C7A67EE877AFCEEE77A17EE68
:10234800903A13803368984D13F4807F00F0FF8033
:10235800964BDFF85C92994205D999F8022012B998
:10236800012289F8022099F80220002A00F0EF8063
:102378008F4A95F8008092F821708E4A07F1FF3E47
:10238800DEF10007116847EB0E07002FC1F38063E9
:10239800C8F380080093924614BF4FF0000B4FF02B
:1023A800020B99F82020052A00F2CB80DFE802F022
:1023B800034C608695B2B8F1000F38D0D4F8F0001D
:1023C800B4F8F41008F010FD012809D17A497B4AC5
:1023D80009681268C988642000FB0122C9F8102026
:1023E800009B5BB1744A126812793AB10EF0FEFF95
:1023F800032289F820204FF47A7236E0002F40F04B
:10240800A0806E4AD9F810101068694A88420AD923
:1024180002920EF0EBFF029A032182F8201040F698
:10242800B831D161BDE7012182F82010B9E7009BDE
:102438004FF4806013B105F041F801E005F02EF883
:102448000022C9F810207CE0002F58D15A4A12689F
:10245800127A012A02D00EF0C9FFA2E70EF0C6FFD9
:10246800032289F8202040F6B832C9F81C2098E7E2
:1024780027B1052289F82020012000E03846B8F16C
:10248800000F0CD0D4F8F020118A4D4A11805180E9
:102498009180494909684988D1804FF0030B474A20
:1024A8001168D9F81420914202D8B8F1000F45D12B
:1024B80047F23052C9F81C20032221E02A7842F062
:1024C80002022A700EF0BCFA3C4AD9F81C101268B5
:1024D8000A44C9F81820042212E0384A9FB111684A
:1024E800D9F8182091422CD9364A92781AB9DAF8D4
:1024F8000020D00725D42A7822F002022A7005226B
:1025080089F820204DE71268D9F81C100A44C9F848
:10251800182016E02849294A09681268C9886420E1
:1025280000FB0122C9F810204FF48060002289F8CE
:10253800202089F8032004F0B1FF32E700287FF457
:1025480030AFBBF1000F02D0584608F0A5FC1E4F73
:10255800B7F8DE1007F50D7008F046FC184AB7F812
:102568004432B2F90210824603F10B0088429046C9
:102578002CDB0B3B8B4229DCB2F90010884225DBAF
:102588008B42CCBF0023012321E000BF3C0A00207E
:10259800F013002000140020190B00200000C8428E
:1025A8006E0E002000C07F44952C0020404B4C004C
:1025B8004810002090100020702C002044100020AB
:1025C800F421002000000020402200200023BAF15E
:1025D800000F30D19D490968090106D59C49C97881
:1025E80099B929784A0710D528E09A4B9A480021CA
:1025F800196059609960994BC0F800A00121C0F892
:1026080004A0C0F808A019700BE09249924A002073
:1026180008604860886091490023136053609360A4
:102628000B708F4B0021196059600023C4F8F830F3
:10263800C4F8FC3004E0894900230B7089490B7009
:102648002B78580735D53368D90632D5864B1B7891
:10265800DA062ED4854B9B7893B197F88B32BAF172
:10266800000F15D17BB1824B1968D4F800315B1A81
:10267800002B08DA0EF0E4F97E4B83F804A118E089
:10268800BAF1000F0DD1102008F006FC01230EE06E
:102698003BB1774909684FF47A7000FB0313C4F81B
:1026A800003194F8043123B108F0E2FB002384F8E8
:1026B800043197F8893297F88A02B7F846C2B7F812
:1026C8004892009300210B4638F911E09B08E64533
:1026D800C4BF63F07F03DBB20131CE45B8BF43F01E
:1026E80040030429F0D194F80511624A994205D1B2
:1026F80092F80611F92904D8013100E0002182F886
:10270800061184F80531594B5A499A78DFF83C91FB
:102718009B4632BBD9F80030DB070AD581F8072180
:10272800BAF1000F1DD12B78DA071AD50DF0ECFF9E
:1027380017E02B785B0714D54F4B1B788BB1444BB4
:10274800DB7873B991F807310133DBB2032B81F8D9
:10275800073106D910B10EF073F902E0BAF1000F93
:10276800F9D094F80631434A142B40F09980009B25
:1027780013F1000A9BF8023018BF4FF0010A6BB33F
:1027880092F805315F2B11D12B7803F0040303F085
:10279800FF0113B10EF054F908E00B2002910092EA
:1027A80008F07AFB009A029982F80611BAF1000F34
:1027B80014D094F805317D2B10D12B7803F0040345
:1027C80003F0FF0213B10EF03BF907E00B20009273
:1027D80008F062FB274B009A83F806212B7803F058
:1027E800040303F0FF01002B5AD194F80531214A64
:1027F800572B04D1214B4FF47A721A8050E030687D
:10280800400717D55A2B15D192F808312BB101235F
:1028180082F8081182F8093142E092F80A3183F00F
:10282800010382F80A310BB10C2000E00D2008F0FA
:1028380033FB35E05D2B00F02F865B2B00F02E86F6
:102848005E2B1DD1032000F02ABE00BF901000208F
:10285800481000209C2B0020941C0020BC1C002049
:10286800741D0020C11C0020700E002000000020F4
:10287800441000203C0A0020D4120020902C002094
:10288800562B01D105F088F89BF80230002B00F098
:102898001B8694F805316F2B40F010860DF034FF3D
:1028A8003368580737D594F80A31B14A93B12B7871
:1028B80059070FD5B8F90610B7F84632994209DD1D
:1028C800D9F8003013F0010302BF3221A2F81C111D
:1028D80082F80A31D9F80030DB030DD594F81E21AF
:1028E800A34B2AB993F8082112B93222A3F81C2164
:1028F800012384F81E310EE094F808319C4A53B144
:102908002B7803F0040303F0FF0123B9012382F8B5
:10291800081182F80931974D0023C9F8003005F1F4
:1029280050072A786B7815F8010C9A420DD229467F
:1029380008F020FA48B115F8022C012303FA02F234
:10294800D9F800301343C9F800300435BD42E8D146
:10295800894B1B783BB1894B1A6812F0020F9846D5
:1029680040F037832FE3864D05F15A072A786B78B4
:1029780015F8010C9A4225D2294608F0FBF908B34C
:10298800AB78804A95F804E095F803807849013BD4
:1029980003EB430313440C2202FB0E42D2F824013A
:1029A80098420FD0C2F824310023C2F8283182F8A7
:1029B8002081012391F8502103FA0EF322EA030340
:1029C80081F850310635BD42D0D16F4BDFF8CCA12C
:1029D8001D686E4B1B6800936D4B1B7802934FF07C
:1029E8000009DAF80020002A00F0E48292F800805A
:1029F800B8F1000F00F0DE82DAF804300099CB1A43
:102A0800002B0CDB01F5FA73CAF8043094F8501166
:102A1800012303FA09F321EA030384F85031029BE6
:102A2800002B00F0C7821AF8043C51780433DBB25B
:102A3800002940F07882574931F91310564BB3F802
:102A4800443203F1C800814202DD92F802B015E079
:102A5800C83B994203DA9178C1F1000B0EE094F873
:102A68005021012303FA09F322EA030384F85031C1
:102A7800009B03F5FA73CAF804309BE294F85031CE
:102A880043FA09F3DF0700F19582BBF1000FCCBFD1
:102A98000220012008F036FA08F1FF33344F132BD7
:102AA80000F28082DFE813F0140021002F004300B9
:102AB8005C008200E5004801AF01DD010D027E02E5
:102AC800430052008200E5004801B7001A017F0167
:102AD8002F785F44FA2FA8BFFA2727EAE777284616
:102AE8002F7008F02DF901200BE06F785F44642FF8
:102AF800A8BF642727EAE77728466F7008F020F90F
:102B080002203946DAE195F80380D844B8F1640F19
:102B1800A8BF4FF0640828EAE87885F803802846BB
:102B2800D7F8541108F0C2F803204146C6E1697984
:102B380059446429A8BF642121EAE17169710D2013
:102B480008F082F9B8F10D0F00F02C822979594468
:102B58006429A8BF642121EAE17129710E20ADE141
:102B6800A979594481F30801A9710520A6E100BF9C
:102B78003C0A0020E7260020982C00209010002016
:102B88003627002048740108081B00204410002044
:102B9800D4120020F421002040220020600B0020E5
:102BA80000007A440000C84200000000D7F85831FD
:102BB8001A78022A20D107EE90BAB8EEE70A5FED3C
:102BC800077A93ED097A80EE270A30EE070AB5EE08
:102BD800C00AF1EE10FA07D4B4EE670AF1EE10FA63
:102BE800C8BFB0EE670A01E01FED110A83ED090ABC
:102BF8000F2008F013F90AE099785944C829A8BFAA
:102C0800C82121EAE17199700F2008F01DF9B8F187
:102C18000F0F00F0C781D7F858311A78022A1ED151
:102C280007EE90BAB8EEE78A5FED227A93ED080ACC
:102C380088EE278A38EE000AB5EEC00AF1EE10FADF
:102C480007D4B4EE670AF1EE10FAC8BFB0EE670A0F
:102C580001E01FED2B0A83ED080A122056E159788E
:102C68005944C829A8BFC82121EAE1715970122026
:102C780024E1D7F858311A78022A20D107EE90BA01
:102C8800B8EEE70A5FED397A93ED0C7A80EE270A01
:102C980030EE070AB5EEC00AF1EE10FA07D4B4EE2A
:102CA800670AF1EE10FAC8BFB0EE670A01E01FED3F
:102CB800420A83ED0C0A102008F0B0F80AE0197BEC
:102CC8005944C829A8BFC82121EAE1711973102005
:102CD80008F0BAF8B8F1100F00F06481D7F858314D
:102CE8001A78022A1ED107EE90BAB8EEE78A5FED8D
:102CF800537A93ED0B0A88EE278A38EE000AB5EE70
:102D0800C00AF1EE10FA07D4B4EE670AF1EE10FA31
:102D1800C8BFB0EE670A01E01FED5D0A83ED0B0A3C
:102D28001320F3E0D97A5944C829A8BFC82121EA59
:102D3800E171D9721320C1E0D7F858311A78022A04
:102D480022D107EE90BA1FED6A0AF8EEE77A87EE0D
:102D5800800AD3ED0F7A30EE270AB5EEC00AF1EEFD
:102D680010FA09D45FED717AB4EE670AF1EE10FA41
:102D7800C8BFB0EE670A01E01FED750A83ED0F0AC0
:102D8800112008F04BF80AE0997D5944C829A8BFDA
:102D9800C82121EAE1719975112008F055F8B8F1B8
:102DA800110F00F0FF80D7F858311A78022A20D185
:102DB80007EE90BA1FED860AB8EEE78A88EE008A19
:102DC80093ED0E0A38EE000AB5EEC00AF1EE10FADD
:102DD80009D45FED8C7AB4EE670AF1EE10FAC8BF39
:102DE800B0EE670A01E01FED900A83ED0E0A142089
:102DF8008CE0597D5944C829A8BFC82121EAE1714E
:102E0800597514205AE0D7F858311A78022A1ED179
:102E180007EE90BAB8EEE78A5FED9E7A93ED0A0A5C
:102E280088EE278A38EE000AB5EEC00AF1EE10FAED
:102E380007D4B4EE670AF1EE10FAC8BFB0EE670A1D
:102E480001E01FEDA70A83ED0A0A09205EE0D978A0
:102E58005944C829A8BFC82121EAE171D9700920BD
:102E68002CE0D7F858311A78022A1ED107EE90BA0A
:102E7800B8EEE78A5FEDB57A93ED0D0A88EE278AFA
:102E880038EE000AB5EEC00AF1EE10FA07D4B4EE37
:102E9800670AF1EE10FAC8BFB0EE670A01E01FED4D
:102EA800BE0A83ED0D0A0A2030E0597B5944C8292F
:102EB800A8BFC82121EAE17159730A2007F0C4FFAD
:102EC80070E0D7F858311A78022A22D107EE90BA62
:102ED8001FEDCD0AB8EEE78A88EE008A93ED100A56
:102EE80038EE000AB5EEC00AF1EE10FA09D45FED2B
:102EF800D37AB4EE670AF1EE10FAC8BFB0EE670AEB
:102F080001E01FEDD70A83ED100A0B2007F086FFBA
:102F180048E0D97D5944C829A8BFC82121EAE171F0
:102F2800D9750B20CAE701293CD19078BC4A32F9FF
:102F38001370B7F5617F05DB40F633039F42A8BFE6
:102F48001F4601E04FF46177B8F10C0F2AD1B54A5A
:102F58004FF4966393FBF0F01378A7F5617797FB2E
:102F6800F0F7FFB2BB421DD0AF49042F34BF3B4638
:102F7800022391F8A404137084224243881880F82D
:102F8800F83308FB03230B44A84A03F2FA3313600F
:102F98000BF019F84046394607F056FF781CC0B2C6
:102FA80007F0B0FF94F85021012303FA09F3134303
:102FB80084F8503109F10109B9F1040F0AF10C0A3A
:102FC8007FF40FADC7E43368D8050FD5984BDB788D
:102FD80063B1984B1B68990708D5974B1B8813F06A
:102FE800010508D1012004F069FA04E0012004F089
:102FF80055FA012300E00023D8F8002052070BD52A
:1030080053B1012004F04AFA8B4B1B889B0706D466
:10301800022004F053FA02E0022004F03FFAD8F844
:1030280000301F054FF4807002D504F047FA01E024
:1030380004F034FA7C4F7B79082B01D00E2B02D197
:10304800402004F02BFA33685E051AD597F8C83289
:1030580023B97A4B1B7813F0040F03E0D8F800303B
:1030680013F4002F09D0764B00221A703C200DF083
:10307800E3F930B103F0E2F9F8E708F067F90DF089
:10308800EBF8012384F85C31654BB3F90610674B04
:10309800D3F800E0BEF80A2091420FDBB1F5FA6FD1
:1030A8009EF80750BDBF8B1A6B43A2F5FA65C5F1B0
:1030B8006405BCBF93FBF5F5643500E0642597F81B
:1030C8002232009397F82332029397F9D831B7F850
:1030D8004482D4F860619BB205930022504B33F9C7
:1030E8001290C8EB090303F2F31440F2E63084426D
:1030F8004FEA420A03D8002BB8BF5B4201E04FF405
:10310800FA73022A4FF0640029D0009C1CB1A34234
:10311800CCBF1B1B00234B4C93FBF0F76FF0630BEA
:1031280034F817C00BFB073B013734F917400FFA87
:103138008CF7E41B444F04FB0BF494FBF0F4644459
:1031480027F80A400EEB0204247963433F4C93FBB3
:10315800F4F364339BB26B4393FBF0F02CE0029CD6
:103168001CB1A342CCBF1B1B0023394C93FBF0F0CE
:103178006FF0630C0CFB003B04EB400704EB4000D2
:10318800B7F96471B0F96601C01B00FB0BFBBDF811
:1031980014009BFBFCFBC7EB0B0B1BFB00FB2A483B
:1031A800A0F804B09EF80600002BB8BF5B4243436A
:1031B800264893FBF0F064307378264F6424434329
:1031C80093FBF4F3BB54244FF37A434393FBF4F398
:1031D800BB54737D5843214B90FBF4F0022A98545A
:1031E800194B1F480DD1C14584700DDB0E4CB4F846
:1031F8004602814236DBB1F5FA6FA8BF4FF4FA6197
:1032080031E0C145855404DA33F80A00404223F816
:103218000A000132032A06F101067FF45FAFE5E7F1
:10322800F42100201011002040220020081B00205B
:1032380048100020001100208C100020952C002040
:10324800482800205A140020A01C00200CFEFFFF74
:103258003C0A00207C1D0020AE0B00208C1D0020A5
:10326800BD1C00200146DFF858E3C34D091A4FF48E
:103278007A726FF063065143C0F5FA606422B1FBBD
:10328800F0F191FBF2F03EF8107006FB00110130EE
:103298003EB23EF91000801B414391FBF2F23A44E2
:1032A800DA80B64B1E8806F04006B6B2002E3CD037
:1032B800B34BDFEDB47AB3F904309FEDB30A0A22B9
:1032C80093FBF2F3B14AB2F876219B1A1BB208EECF
:1032D800103AB8EEC88A28EE278A38EE000A04F0B9
:1032E8007CF8F0EE408AB0EE480A04F076F8B5F9BA
:1032F800023006EE903AB5F90030F8EEE66A07EECD
:10330800903A20EE667AF8EEE77AA7EEA87A67EEAA
:10331800807ABDEEC77AE6EEA87A17EE103AFDEE8F
:10332800E77A2B8017EE903A6B8094F84B32002B9B
:1033380069D0002E67D107EE903A9FED927A8E4CB5
:10334800934DF8EEE77A67EE877A17EE900A0EF05B
:10335800DBF941EC100B41EC180B11F045FAB4F90C
:1033680000005BEC10AB0EF0BDF9B0EE480AF0EED1
:10337800680A06460F4611F08BFAB4F904008DED81
:10338800000B0EF0AFF93246804689463B46504660
:1033980059460EF00DFA42464B46CDE90201DDE9E9
:1033A80000010EF005FA02460B46DDE902010EF0B7
:1033B8004BF80EF097FCB0F5FA7FA8BF4FF4FA70FF
:1033C800A842B8BF284642464B4620805946504638
:1033D8000EF0EEF93246804689463B46DDE90001AB
:1033E8000EF0E6F902460B46404649460EF02EF826
:1033F8000EF078FCB0F5FA7FA8BF4FF4FA70A84237
:10340800B8BF2846A080634B1A78550704D5624B8D
:103418001A689B88138534E060490968CC075CBF4B
:1034280042F001021A705E4A127810075EBF1A78DD
:1034380022F001021A70554AB2F80C11594A19B112
:1034480059490968890706D45849098819B9584853
:103458000088642806D9022111701A7822F0010226
:103468001A7005E01B78DB0756BF02231170137032
:1034780007F0A8FD4F4B1B68C01A002801DB02F0BB
:1034880019FF4D4B9B68002B71D04C4809B0BDEC1F
:10349800028BBDE8F04F1847012000E002205FFAD8
:1034A80080FA0AF1FF3387F8A43404F051F804F0E5
:1034B800E9F8504607F026FDFFF7F2B9BAF1000F18
:1034C80002D07E2B3FF4EAA994F805312F4A972BB6
:1034D80005D14FF4C873A2F80C31FFF7E1B9A72B57
:1034E80006D12F4A137843F004031370FFF7D8B9B5
:1034F8000021BB2B079101D1022303E0B72B04D194
:103508004FF6FE73ADF81E301CE0BE2B01D102232E
:1035180003E0BD2B04D14FF6FE73ADF81C3011E06B
:10352800792B04D192F8133123F0010306E07A2BAA
:103538007FF4B6A992F8133143F0010382F81331EE
:10354800FFF7AEB9BDF81C20B7F8F0311344A7F85F
:10355800F031BDF81E20B7F8F2311344A7F8F23164
:1035680004F01AFA002384F80631FFF799B909B074
:10357800BDEC028BBDE8F08FA01C00208C10002051
:10358800A81C002035FA8E3CDB0FC93F3C0A0020FE
:103598000CFEFFFF952C00207010002090100020DA
:1035A800700E00206C10002000110020902C0020CC
:1035B800FE100020881000205C2C0020E40D002064
:1035C800421400202DE9F04F934C944F2368944EF9
:1035D8009D6A2DED028B9BB007F0F4FC6368C01A5E
:1035E800388007F0EFFC33786060012B01BF8D4B0A
:1035F8003A881A808C4A04BF12885A808B4B13A8C9
:10360800DB6898479DF84C3023B1237A002B00F0F3
:103618003B820AE007F0D6FC854A63681268EB1A19
:10362800184450329042E9D3EFE70CF05BFF08B939
:103638000CF06EFF7F4D95F84A321BB97E4B1B8804
:10364800002B4ED07D4A61891268B1FBF2F17C4AA9
:10365800714B1278481C80B2A0811AB3B3F80EB02F
:1036680000236D4F774A07F1180C07F1100932F85B
:1036780013803CF813E039F813202CF81380CEEBB4
:10368800080E12FB0BF20FFA80FA92FBFAF296443C
:1036980029F813E00133042BE3D1694BF9810022A7
:1036A8001A7002E0DA89013ADA81E0895A4A03B2EB
:1036B800002B4FF0000313DDB2F90C70624931F8AA
:1036C8001320083112FB00F231F8131092FBF7F2C5
:1036D8008A1A5C4921F813200133042BEED100E04B
:1036E800D3815A4B534F1B78ABB1594BB3F90620D2
:1036F800B7F846329A420EDC7B79012B01D0192BA0
:1037080002D197F8922232B90E2B04D0082B1EBF93
:103718004C4B00229A8097F81082B8F1000F33D0F2
:10372800454B1B889B072FD04A4BDFED4B7A93ED17
:10373800080AB4EEE70AF1EE10FA20D911F0C4F93C
:10374800D4ED087A20EE270A11F036F9B0F5617F3A
:10375800A8BF4FF4617007EE900AB8EEE70ADFEDF4
:103768003F7A80EE270A03F038FE07EE908AF8EEDB
:10377800E77A27EE800A11F01FF980B200E00020F6
:10378800304AD3881844D080354B1878002840F048
:103798007981344B1A6812F4002F994600F072812F
:1037A800314A1378033B052B90461AD897F85135C0
:1037B80033B1012B08D104F015FBC0F17F0003E001
:1037C800606A03689B689847A36A94F82C2013449E
:1037D800B3F5807FA8BF4FF480738342D4BFA36240
:1037E800A06298F80030023B092B00F24581DFE81F
:1037F80013F00A003F006B0043014301820093006D
:10380800FF001B0127010023A3622363174B1B68DA
:10381800636303232EE100BFB40B0020922C002029
:103828000A1400200C140020FE1000205C2C00203C
:10383800C0100020402200208C100020001C002016
:10384800980B0020A01C0020C40B002002000020C0
:10385800F42100202C1F00208FC2753CEFB6B04425
:10386800982C0020381000206809002044100020FF
:10387800A24B1A68636B64339A4240F2FD80402081
:103888000AF074FE002840F0F7804FF040099C4D84
:10389800236B9C4FE85C58B105F0FEFCBB6A013B0A
:1038A800BB623B6BB9F1010903F101033B63EED144
:1038B800226B944BAA5C002A40F0DE801A634FF01A
:1038C800FF325A630423D5E0252300938E4B0193DE
:1038D80003F10C0202924920A3F10A02502102339B
:1038E80005F0FCFF002840F0C7804FF0FF3363630A
:1038F80020630723BEE0854A052300210093019138
:103908000291532002F1080305F0E8FF002840F077
:10391800B38020630823ADE040200AF027FE00288A
:1039280040F0AA80236B0C2B00F21586DFE803F029
:10393800070B0E1218292D313539444E51007448A1
:103948000AF088FF50E07348734917E073487449D8
:10395800744A47E0744897F84F1597F8502541E0A6
:1039680095F8A424714884235343EA180C2192F84B
:10397800F82301FB02331D4495F8FA130AF06AFF95
:1039880032E06B48B7F8D010F8E76A48B7F8D210B9
:10399800F4E7694B69481969F0E7694B6948198880
:1039A800ECE7A36BD80403D5674897F81212E5E74C
:1039B800544B0B221A6317E0644897F8161297F8CD
:1039C800172297F815320AF045FF0DE06048A18FDD
:1039D800D4E7D9F80030190506D55E48B7F81C12A7
:1039E800B7F91A220AF036FF236B0133236343E049
:1039F800594B1B689A0114D5B4F84030414D83B92E
:103A08006B6C1393554B0E201B68149313A905F088
:103A1800E7FC4FF48053EB870A2388F8003005F061
:103A280037FD05F0BFFC27E094F84830002BF6D0AE
:103A3800494B1B689B01F2D4092388F80030F0E752
:103A48002E4B1A68636BC8339A4203D997F85155BD
:103A58007DB904E00AF0D0FD0028F7D10CE0606AD7
:103A680007F030F894F849306562022B01D10CF068
:103A7800F3FB012388F800300AF0A8FD10B10123F8
:103A880088F80030002323722B4B0BAD5B68284667
:103A98009847002800F02881307800230328304E0A
:103AA80002BF304F56F8231027F813109A0035F943
:103AB8001310B1500133032BF0D1294894F84A2050
:103AC800014606F087FD94ED138AB5EE408AF1EEC3
:103AD80010FA4DD1244FDFF894903B88002B00F06A
:103AE800E480D4F8C0301B78A9F1480808EE103AF1
:103AF800A9F13C054FF0000A97E000BF44100020F0
:103B080084740108B40B0020EE740108A076010843
:103B1800349601084E960108359501086396010808
:103B2800209501082C9501087796010888960108C8
:103B380092960108A19601085C2C0020B096010815
:103B480004000020C0960108CA960108D79601080B
:103B5800F0960108FB96010890100020742C0020B4
:103B6800B01C00200C140020902C0020C00C002059
:103B7800AE4B93F850509DB9AD4B1A681F467AB1B9
:103B8800DFF8A882396808F154002844B0EE480AE2
:103B9800243503F08EF96C2DF2D1012388F85030CA
:103BA80094F85030002B95D0002556F8253007EEB4
:103BB800903AA04B242000FB0530B8EEE70A03F04A
:103BC8004FF910F0F9FE46F825000135032DECD128
:103BD80080E7D5ED006A07EE103A37EEE66AB8EEF0
:103BE800C77A86EE077A36EE877AD5ED026A85EDD2
:103BF800017A77EEC77A85ED007AE6EE276AF0EE6D
:103C0800667AC5ED036AC5ED026A0023012A46F803
:103C18000B3049F80B3029D00AF1010ABAF1030F29
:103C280008F1040805F114054CD03A8856F82A1012
:103C3800B2F57A7F02BF0023C8F800302B61D8F8AC
:103C480000300B44C8F800302B6907EE901A013396
:103C5800012B4FEA8A0BF8EEE77A2B61B9D10023E2
:103C6800C5ED017AC5ED007AAB60CEE72B69012B73
:103C7800C3BF03F1FF3300EE103AD5ED037A9FED91
:103C88006E0AC4BFB8EEC00A87EE800A10F07CFF47
:103C980018EE103A5BB1F8EEC87AB4EEE70AF1EE26
:103CA80010FA04DD4FF47A733B80002312E0D8F851
:103CB80000304FF47A7203F5FA7393FBF2F349F884
:103CC8000B30A9E73888012801D107F0E5F83B88CF
:103CD800013BE9E756F8232059F82310521A46F811
:103CE80023200133032BF5D194F818A14F4DBAF1D5
:103CF800000F05D00AF1FF3085F8180100F036BC36
:103D08004E4B93F8E82103F50D71013A85F8182117
:103D1800B3F8262200914A490E684A4908684A4978
:103D280003F5F8730968B047484BDB780893484BAC
:103D38001B68DF0008D4474B474A93F800B0BBF133
:103D4800030F00F29580ACE0444BD5F81C211968AC
:103D5800957E4B880E88577E9E1B414B1B6803F44B
:103D6800805E404BB6B205EB8505D3F800800FFAAC
:103D780086FB05F10A0950463B4B4FEA400C33F8E5
:103D88001030BEF1000F0AD0B8F80210B8F80020C1
:103D9800521A5A44022192FBF1F292B200E03246E2
:103DA8007FB31BB2B3F5FA7F3049A8BF4FF4FA735B
:103DB8008B42B8BF0B4683EAE371A1EBE371494537
:103DC80023DD002BCCBF5B1B5B199BB20FFA83FA78
:103DD8008AEAEA71A1EBEA7179434FF0640A13FBAE
:103DE80002F391FBFAF14FF4FA7A93FBFAF31BB260
:103DF800090391FBFAF14B43C3F30F33C1F580512B
:103E080006E04FF480513B4602E04FF48051002316
:103E1800114A3CF902A001FB0AF103EB2131012808
:103E28002CF8021087D00120A6E700BFB40B0020B1
:103E3800C0100020080C00200000000040220020D4
:103E4800C80300209C0B0020081B002048100020FD
:103E580090100020C01C0020E81C0020A41E002098
:103E680038100020A01E0020A01C00200CFEFFFF20
:103E7800AD4BD3F820315D88B5F5FA7F11D2AB4B45
:103E8800B2F90460B3F9040080EAE077A7EBE077C1
:103E98006942CB1B9E4203DBEB19B342A8BF3346F2
:103EA8009380A34B1B689D79E5B1A24909688E07E9
:103EB80015D5A1490978012911D9DB789F4E5943B5
:103EC8003688CB1A9E4288B203DBB1420B46A8BFA4
:103ED800334601B209031BB291FBF3F301E04FF43F
:103EE8008053049353880593954BD4F820C1954883
:103EF800B2F800E0B2F9048093F8009000210B4674
:103F08000A465A4548D29CF9004090ED016A64423D
:103F180008FB04F407EE904ABDF9144006EE904AF7
:103F28000FFA8EF4B8EEE77A07EE904AF8EEE77AE1
:103F3800F8EEE66A67EE867A90ED026AE6EE867A31
:103F48000DAED0ED036AE7EE267AFDEEE77ACDED09
:103F5800067ABDF818401DB1049F24B27C4324138F
:103F680026F812400DAC0FFA83FA34F8124026B244
:103F7800564505DC0FFA81FA5645B8BF214600E0E0
:103F88002346B9F1050F04D1042A9CBF6E4E26F8CA
:103F9800124001321030B4E7664F6C4A591A3B6838
:103FA80013F4805F89B2604B34D06948D3F81C4160
:103FB8000078B4F81080674C5B4E2468400758BFFF
:103FC800D3F81C01E5885CBF008AA3F8E4016248C5
:103FD800C088C5EB080E0FFA80FCF44503DC1268B4
:103FE8002588128805E04544AC4505DB12685588EC
:103FF8006288A6F8E40112E0B6F9E4017045CDBF85
:104008001268258812685588CDBF628812882846AC
:10401800104604E0146845482288C08865884F4CDB
:104028001FFA85FE96B2C6EB0E020DB212B2954289
:1040380027DD4FF0010E84F800E014034FF0000E66
:1040480094FBF5F5C3F8E851DE450BD20DAC34F915
:104058001EC005FB0CFCCCF30F3C24F81EC00EF16F
:10406800010EF1E7022492FBF4F43219344C24785F
:10407800062C92B210D1BBF1020F0DD8324C6180E0
:104088000AE000220221227095FBF1F57219C5EBB6
:104098000E0592B2A9B200E01146B3F9E441D3F893
:1040A8001C812C4B3F68D3F800E0284B04941C6813
:1040B8002B4D07F010030993254B1B7803F00403DD
:1040C800DBB20593274B1B6803F000630693224B72
:1040D800B3F90630079307F4805900265E4575D278
:1040E8000DAB33F816C003B207EE903A154B03EB4D
:1040F800061393ED007AF8EEE77A13B267EE877A43
:10410800FDEEE77A17EE90AA9A4503DB0BB253450A
:10411800A8BF53466344089F9BB225F8023F1BB2D1
:1041280017B3B4F804C035E0B40B0020A01C00207D
:10413800E813002038100020840100203C140020DF
:104148000A140020D80C00200C140020A41E002003
:10415800952C0020A01E0020F4210020C21C002065
:104168008E1D002090100020B9F1000F10D0B8F873
:1041780010C0BEF806A0049FCAEB0C0C674504DC0F
:10418800B4F800C0BEF800A006E0BEF802C001E026
:10419800B4F800C0B4F802A0634503DB5345A8BFD8
:1041A80053469C46099BA5F800C06BB1059B5BB1C3
:1041B800B9F1000F08D1069B33B9B8F81230079F40
:1041C8009F42BCBFA3882B80013687E7C04B1A7873
:1041D80002F0040202F0FF034AB1BE49BE4F91F853
:1041E800EC31013BDBB2182B00F2208109E05B4582
:1041F800F3D2BA4A32F81310B94A22F8131001332D
:10420800F5E701229A40B74B1340002B00F00E81CE
:10421800B54BB6481B8813F4807F08D0B44B1A8876
:10422800ADF84C205A88ADF84E209B8815E0B14B6C
:104238001A88ADF84C205A88ADF84E20AE4A9B88B3
:104248001268ADF85030D20409D5D1F81C21B0F964
:104258000640128A944202DA5B42ADF85030A74D0C
:10426800B5F902304FF47A7203F5E16353434FF422
:10427800616493FBF4F3A3F5FA73ADF86430B5F910
:10428800003003F5E1635A43954B92FBF4F21B8827
:10429800A3F2DC53A2F5FA72ADF85230D1F81C3112
:1042A800ADF866201B8A0288D21AADF854204288DD
:1042B800D21AADF856208288D21AADF85820C28892
:1042C800D21AADF85A200289D21AADF85C20428978
:1042D800D21AADF85E208289D21AADF86020C28960
:1042E800D31AADF862300023002227F813200133D7
:1042F800082BF9D1824A834B12680492824A1B78B0
:10430800126882490592824D072202FB031B594518
:1043180072D00B7833B103F1150201239340049A4C
:10432800134065D011F806CC059B11F805AC11F8BF
:10433800034C11F8018CCCEBCC0E03EB4E0E642031
:10434800BEF90020BEF902309B1A9BB211F9022C6B
:104358004FEA53095A434FEA4A0692FBF0F21AA869
:10436800C9EB020292B2064414B936F81C0C0CE0F0
:10437800B5F9000036F91C6CB04208DA04448442EE
:1043880003DBA6423046A8BF2046288008E007DDA8
:10439800041BB44203DB8442A8BF044626462E8091
:1043A800DEF80A4011F9046C012000FA0AF02042F4
:1043B800288812B216FB00F014BF4FF0FF34012416
:1043C800642690FBF6F090420ADB4FFA88F25A43D3
:1043D80092FBF6F2C9EB020212B28242A8BF024671
:1043E8003D4B33F81C9002FB049423F81C4000E07A
:1043F8002B80023507318AE7434B464ED3F80080BD
:1044080000250E2202FB058236F8023F92F906408B
:10441800E8B214FB03F3642493FBF4F4348009F04A
:1044280043FD01352044082D3080EAD1324B364D0A
:104438001B6813F0200F32D0002009F035FD3880BA
:104448000646012009F030FD2D4B234C1B6878806F
:104458001B0624D51F4B294AD3F810321B78012B91
:1044680020D12968138891F914E0B2F902201EFBC3
:1044780003FE91F906304FF0320C5B429EFBFCFEC6
:104488001FFA8EFE53436FF0310293FBF2F272442F
:10449800B11893FBFCF373442180184460802D68A5
:1044A80000233DE0D5F800E053889EF9061011FB83
:1044B80003F1322391FBF3F13144218011889EF9F5
:1044C800142012FB01F292FBF3F21044E6E700BF5E
:1044D800952C0020B40B0020540900200C1B002050
:1044E800901D0020992098018C100020F4210020B4
:1044F800A01C0020E81C002038100020A81C002068
:1045080090100020A81E00205C1B0020AF1E002079
:10451800A20D0020520900200133082B3A5311D074
:104528000E2101FB035137F91300B1F90020B1F94D
:10453800021090424FEA4304EEDB0AB28242A8BF5F
:104548000246E9E70BF0CEFF08B10BF0E1FF0A4B9A
:1045580001221A720AE00AF04FF800283FF48CAAE8
:104568004FF48053E3870A23FFF784BA1BB0BDECEE
:10457800028BBDE8F08F00BFB40B00202DE9F04F8F
:1045880085B006F0E3FE8A4B1F78002F40F0928535
:10459800884D2B68590540F18D85874B874CB3F8BA
:1045A800DE802378864E002B00F07B8132686368BA
:1045B800D31A7C2B40F27581237A6260013323720F
:1045C80007F12400DFF8F491C0B205F005FB09F10A
:1045D8000C0353F8273007EE903A7A4B1B88B8EE55
:1045E800E77A07EE903AF8EEE77A0137C7EE277ACE
:1045F8009FED757A67EE877AFDEEE77ACDED007A62
:10460800BDF9000005F0D6FA032FD9D1302005F006
:10461800E3FA002005F0CEFA05F0D7FA99F8087009
:1046280017F0030724D1D9F8042041F288339A42BD
:104638000BD9102005F0D0FA384605F0BBFA212036
:1046480005F0CAFA384605F0B5FA142005F0C4FAA0
:104658005E4BB3F904000A2390FBF3F005F0AAFAC5
:104668001C2005F0B9FA002005F0A4FA05F0ADFA0F
:10467800237A5A0740F0F180022005F0ADFA4F4B3B
:10468800B3F918000A2390FBF3F005F093FA504BA6
:104698000320B3F9067005F09FFA4E4B1B785B07B1
:1046A8004FF0050997FBF9F7BFB20BD54A484146C9
:1046B80006F09AFB20B92B6813F0100F18BF0027DB
:1046C80038B205E0454B1B68D889B0FBF9F000B259
:1046D80005F070FA2B689F0740F18D80DFF8049190
:1046E800678BDFF8FC8099F80010B8F800203F01CC
:1046F8006423BFB203FB02124B00B2FBF3F347EA99
:104708000327BFB2C3F303231F43062005F064FA4F
:1047180038B205F04FFA638B99F8002001339BB249
:1047280093FBF2F102FB1133E16963838B7B012B6D
:1047380005D1392005F050FAB8F9000021E0B8F8A1
:1047480000706E237B43152793FBF7F7CB7BBFB233
:104758000BB197FBF2F73A2005F03EFA4FF06409E7
:10476800B7FBF9F80FFA88F005F024FA09FB187777
:104778003B2005F031FAB8B2471D0A2097FBF0F04C
:1047880000B205F017FA282005F026FA236A0A2055
:1047980093FBF0F000B205F00DFA042005F01CFAC6
:1047A8000E4B1B68DB89FBB105F0AAFF20E000BFB8
:1047B800982C00203810002040220020CC0D00202A
:1047C800441000200400002000007A44A81C0020A7
:1047D800A01C0020952C002074240020E813002041
:1047E8003C14002084010020C74B186880F3100097
:1047F80000B205F0DFF903A9C44805F0B1F91320A8
:1048080005F0EAF9BDF90C0005F0D4F91B2005F014
:10481800E3F9BDF90E0005F0CDF9232005F0DCF928
:104828004E2005F0C7F903A9B84805F099F91220F8
:1048380005F0D2F9BDF90C0005F0BCF91A2005F015
:10484800CBF9BDF90E0005F0B5F9222005F0C4F941
:10485800452005F0AFF905F0B8F9237A282B20D1C7
:10486800AB4B306800221A724FF03C094FF47A7350
:10487800B0FBF3F8172005F0AFF9B8FBF9F7B7FB71
:10488800F9F009FB1070000200B205F093F9182046
:1048980005F0A2F909FB178000B205F08BF905F0C5
:1048A80094F994F824309A4F002B00F0B58006F064
:1048B80089FBBB6A974AC31A934280463CD90023B6
:1048C80087F82E3087F83030934B1B88DAB21B0AF2
:1048D80087F84A2087F84B3087F8402087F841301E
:1048E800BA6D33689A1AFB6D197C4FF47A734B438F
:1048F8009A420DD3894B1B68BB65894B1B78013BDA
:10490800012B9FBF102387F82E30022387F8303001
:104918007D4B226A1B68C4F828800A2192FBF1F2B9
:1049280093FBF1F384F8482084F84C3012121B12E0
:1049380084F8492084F84D3094F860A0744FBAF197
:10494800000F0ED1B86E09F0D2F9012809D9022852
:10495800DFF8D49100F0828305F0F4F8012389F898
:104968000230E76E6A4B002F56D093F860203AB1B8
:104978005A6F40F6B731C2EB08028A4214D84BE0AE
:10498800012283F860209A6F986E1278022A04D860
:104998000430022105F0C0F802E0022109F09EF976
:1049A800002384F87C3035E093F8702092B9DA66F9
:1049B80083F860209A6F986E1278022A04D804301F
:1049C800012105F0A9F802E0012109F087F905F0B5
:1049D800B9F81FE0013AD2B283F8702093F87C103E
:1049E80093F87D003AB901304A1C83F87D0083F8BA
:1049F8007C20986E0CE03A46013012F801EB83F8FF
:104A08007D000EEB0107986E83F87C70DA667146BC
:104A180009F070F9C4F8748094F87E2037683C4B2C
:104A2800002A00F04881D3F88020002A00F0438152
:104A380093F88430013B012B00F23D81D4F88000CB
:104A4800DFF8CC8009F053F9E0B1D8F8800009F01C
:104A58004BF998F88530D6F800A07E2B81460ED108
:104A680002231B2888F8843009D1D8F8800009F07F
:104A78003EF920B90123C8F888A088F88C3084F85A
:104A88008590DBE7D8F8882033689B1A41F65832BE
:104A980093421FD9032388F884300CE1214A32F865
:104AA800130010B903464FF403600133B0F5826F69
:104AB800DBB200F0EB807FD8B0F5007F00F0AA8071
:104AC80019D9B0F5047F31D184F88D302B68980757
:104AD80000F1908094F88C1094F88D30002900F043
:104AE800E8803268D21B012AD8D984F88D30002397
:104AF80084F88C30DFE0B0F5807F00F0A780B0F557
:104B0800887F00F0A380E9E7EC13002080969800E6
:104B1800CC0D00203F0D03003C1400204410002061
:104B2800FC100020C497010804000020B0F5806F35
:104B3800D4D184F88D3094F89430BD4A0133DBB277
:104B4800032B88BF012382F8943094F8941042F222
:104B580010735943B74B1B78D80748BF01319A07E0
:104B680048BF02315B07B44B1B8848BF0431D807E4
:104B780048BF0A319A0748BF1431180648BF283180
:104B8800DA0548BF2831580748BF64311A0748BFBB
:104B9800C831980548BF01F5C8719A0648BF01F5A4
:104BA8007A71D80648BF01F5FA615A0648BF01F57F
:104BB8007A614FF4806062E0B0F5E26F4FD009D8B7
:104BC800B0F5C06F39D0B0F5E06F87D184F88D307B
:104BD800E16847E0B0F5E46F4DD0B0F5046F7FF4BD
:104BE8007DAF84F88D30954BB3F9041001EB81014A
:104BF80049003AE08E4BD3F89030DA7B904B1B8813
:104C08001AB1904A117893FBF1F30A214FF404701A
:104C180059432AE084F88D302B68DFF8148219058F
:104C28007FF558AFD8F820300A2193FBF1F104F052
:104C38003FFF002388F88C304CE784F88D302B68D0
:104C48001A057FF547AF804B196818E084F88D3056
:104C58007E4B1B685B077FF53DAF00210FE02169A4
:104C680084F88D302C2391FBF3F104F021FF00230D
:104C780084F88C302EE784F88D306169F2E704F00F
:104C880017FF6B4B002283F88C2023E784F88D30C4
:104C98006E4B1B6813F020087FF41CAF2B681B06B3
:104CA8007FF518AF414604F003FF614B83F88C8011
:104CB80010E784F88D3094F895305D4D002B00F0A6
:104CC8009E80D5F89830002B00F099803668D5F88A
:104CD8009C30F31A632B40F29280DFF86081412008
:104CE80004F0CDFE0A27B8F9020090FBF7F080B275
:104CF80004F0BCFEB8F9000090FBF7F080B204F0B5
:104D0800B5FEB8F9040090FBF7F080B204F0AEFEEF
:104D180004F092FE95F8A05015F001054AD1464BD3
:104D28001B88D90518D4DA060DD49F060DD4580669
:104D38000DD419070DD4DA070DD413F0020F14BFE0
:104D48000325012508E00D2506E0092504E00425D2
:104D580002E0082500E00225364B1F783C4BDB7843
:104D6800C7F3800713B147F00207FFB2532004F0DE
:104D780086FE334B188800EB800000EB8000800033
:104D880080B204F073FE002004F070FEB4F8A200B4
:104D9800FE23584340F2FF3390FBF3F0C0B204F017
:104DA80055FE002004F052FE47EA850004F04EFE4E
:104DB80004F042FE94F8A030A3B94F2004F05FFE3F
:104DC8000BF016FA0BF014FA0BF012FA012004F0AB
:104DD8003DFE174B93F8A40000F0010004F036FEE6
:104DE80004F02AFE94F8A030C4F89C600133DBB2CA
:104DF8000A21B3FBF1F201FB123384F8A030154D00
:104E080095F80080B8F1020FA94640F00F8106F02E
:104E1800D9F8114B1F6840F6B833C71B9F421DD9FC
:104E280000232B70B4F8A6300133A4F8A63041E172
:104E3800CC0D0020952C00208C100020A81C0020F0
:104E48003C14002084010020EC13002000110020F5
:104E580048100020531300208C130020974D2B7905
:104E68003A2B40F0F7802846A97805F0C3FC0028C3
:104E780040F0F080924B934E1B88F361236AF362F3
:104E8800914BD4F8A8A01B68F364B4F8A630F0637B
:104E9800F766F365504606F00CFFDFF844B20746A4
:104EA800002840F0C3805046414608F017FF04230D
:104EB80086F874309BF8AC3095F803A0DFF81C82B4
:104EC800642B4BD19BF8AD30072B08BF8BF8AD7026
:104ED80094F8AD5006EB051303F1040B59680191E2
:104EE800084612F05DF9DBF804300093C7B21846A3
:104EF80012F056F95FFA80FB07EB0B02083288F8CC
:104F0800072025F00F0288F80A2005F00F0288F81C
:104F18000D200BEBC70288F80E2001996B483A4622
:104F280012F0D9F8009B07F10900694F19465A4653
:104F3800384412F0D0F898F807B058460BF03CF90E
:104F48007A1C02F80B0050460BF016F9002384F87F
:104F5800AC306B1C84F8AD3000234FE096F87550E8
:104F68005C4A2B0704BF0135EDB2072D4FF0000353
:104F780028BF012588F80A3017462801311802F1A0
:104F8800010E0B7CC96840EA030C82F800C0DFF808
:104F980054C11CF80320012A0EF1010306D9013A75
:104FA80003F8011C9E46090AD2B2F4E730440135E1
:104FB800407C21F06001EDB20143082D1A468EF8BD
:104FC800001009D03F4800EB0510D91B007C1CF8E5
:104FD800000001441329D0DDDF1B0637FFB247F07C
:104FE800400388F8073038460BF0E6F83A4B86F865
:104FF8007550D85550460BF0BFF8ADE798F8022029
:105008005D1CDBB29A4207D9344AD4F8A800D15CB7
:1050180008F070FE2B46F1E794F8AC300322013318
:1050280086F8742084F8AC3089F80020254D95F86E
:105038007430032B3ED1D4F8A80008F052FE0028A3
:1050480038D0274B0121D3F8A80008F047FE0223E7
:1050580085F87430002389F800302BE099F8023085
:1050680023B1C7F8648089F802A07AE47B6EC3EBA9
:105078000803B3F57A6FFFF474AC0123B86E89F8AE
:10508800023008F031FE8146B86E08F02DFE19F0A6
:105098007F0F7FF466AC8E287FF463AC97F860309E
:1050A800002B7FF45EAC07F12C03FB662D2387F8F9
:1050B800703056E405B0BDE8F08F00BF80130020C3
:1050C8003C14002004000020EC13002027220020BC
:1050D8001E220020252200201F2200201822002046
:1050E800CC0D002033980108F0B503788BB0054645
:1050F8000BB1002431E0484C1D46B4F95A11B4F9FB
:105108005621B4F95831009194F85D11019194F841
:105118005E11029194F95C11039194F95F11049165
:105128003E482946013501F07BFA082D04F10E04AA
:10513800E3D16FE02D2B14D1072C1BDC28460FF090
:10514800E1F90AAB661C03EB440424F8100C15F8CB
:10515800013F303B092BFAD934462B78002BE9D193
:1051680004E0A3F13002092A09D8E5E7082CBDF8C4
:10517800183009D00BB0BDE8F04005F005BC202B75
:10518800F8D101352646E7E7072BF3D8BDF81A0012
:10519800A0F2EE2292B240F2DC54A242EAD8BDF864
:1051A8001C10A1F2EE2292B2A242E3D8BDF81EE092
:1051B80002B20FFA8EF59542DCDB0CB2A542D9DCBF
:1051C8009442D7DBBDF8245005F1640292B2C82A94
:1051D800D0D8BDF8264022B2112ACBDCBDF8207009
:1051E800B42FC7D8BDF82260B42EC3D81AB20A4B60
:1051F8004FF00E0C0CFB0233A3F85601A3F858111C
:10520800A3F85AE183F85D7183F85E6183F85C5115
:1052180083F85F410BB0F0BD4022002018990108C7
:10522800F0B504468FB0204611F0BAFFC5B225BBD1
:10523800A848A94C07F020F994F8E81009B9A7483C
:105248004FE049B294F8E62094F8E730009194F8DA
:10525800E910019194F9EA10029194F9EB10039185
:1052680094F8EC1004919E482946013501F0D8F9CC
:10527800102D04F10704DFD1E1E720469949052202
:1052880011F096FF054690B997482946702211F00B
:1052980046FF2846904A0E2303FB002301300022D4
:1052A8000828A3F86021A3F86221F3D10FE1204672
:1052B8008E49042211F07CFF05462046002D49D175
:1052C800202111F060FF002800F00181461C3046C3
:1052D80011F066FF2C460746854B53F824502DB92C
:1052E80084480FB0BDE8F04001F09AB9304629462D
:1052F800FAB211F05DFF01340028EDD1764A02F1CF
:1053080070011646002382F8EC3082F8E83082F803
:10531800E73082F8E63007328A42F3D1764911F84D
:105328003420934211DA01EBC401C3EBC3024F6886
:10533800B0183A4400F1E6011768C0F8E6709088A2
:10534800888092798A710133E8E76C48294601F030
:1053580067F98FE06A49072211F02AFF05462046BF
:10536800002D49D1202111F00EFF064611F018FF3B
:10537800C4B26CBB634801F053F92146624801345A
:1053880001F04EF90E2CF8D1544801F049F90024E7
:105398005E48214601F044F900254F495C480E2239
:1053A80002FB04120123D2F860215A49AB40134290
:1053B800594B05F1010508BF194601F031F90E2DC9
:1053C800EBD14648013401F02BF9082CE0D17EE0FE
:1053D800304652490FF09AF82C4600284CD0022C3F
:1053E8004FD00FF08FF806AB4C4943F8240000204B
:1053F8000FF08CF80134F0E748490FF087F80024E3
:1054080060B1082C38D00FF07DF806AB434943F85B
:10541800240000200FF07AF80134F1E7082C2BD192
:10542800069B0F2B28D8DDF81CE0BEF1070F23D808
:10543800089F0D2F20D8099E06F16402C82A1BD8A0
:105448000A9DFF2D18D80B98642815D80C99642943
:1054580012D8884210DA0D9C032C0DD8304AC3EBC1
:10546800C303134483F806E0DF711E725D729872FD
:10547800D9721C732B4CD6E60FB0BDE8F04005F08E
:1054880083BA069B072B1ED807990D291BD80278CB
:10549800722A0CD06E2A16D10F4A0E2000FB032365
:1054A80001228A40D3F8601121EA020208E00A4A80
:1054B8000E2000FB032301228A40D3F860110A431F
:1054C800C3F8602101E005F05FFA0D4CABE60FB0C0
:1054D800F0BD00BF4099010840220020A09C0108AF
:1054E8006B99010860A0010826230020879901080C
:1054F800588F01088C990108C87601089B99010802
:105508003899010897AA0108A799010823A9010851
:10551800AC99010827A00108F2A00108B099010878
:1055280020230020E79401082DE9F7430478054675
:105538008CB9324D95F85F13B5F85C2395F85E3356
:105548002F4800912146013401F06AF8102C05F12A
:105558000405EFD14EE00EF0D5FF0F28044636DCE7
:105568002846202111F00FFE264EE4B2D6F800801E
:10557800451CA400002728460EF0C4FF5FFA87F9EF
:10558800B9F1010F83B208D0B9F1020F0BD0B3F50E
:10559800B47F24D2326813530AE0FF2B1FD8336834
:1055A8002344987004E0FF2B19D833682344D8703B
:1055B80028462C2111F0E7FD054608B1013502E027
:1055C800B9F1020F0BD10137032FD4D112E00E48E5
:1055D80000210F2203B0BDE8F04305F04FB908EBF6
:1055E80004000021042211F09AFD03B0BDE8F04345
:1055F80005F0CAB903B0BDE8F08300BF402200201F
:10560800B29901087C0E0020C69901082DE9F043E3
:1056180004788FB00546002C59D17C4B0021142208
:1056280009A807AED3F8048011F079FD07223046A7
:10563800002111F074FD05A80023A700059308EBCD
:10564800070583801A467249B5F802E031F813C09D
:105658001CEA0E0F0AD00DF1380C0E3102F1010EC2
:105668006244595C02F81C1C5FFA8EF20133072B66
:10567800E9D100210B46674AB5F802E011F802C0EB
:105688001CEA0E0F0AD00DF1380C063203F1010E98
:1056980063448A5C03F8242C5FFA8EF301310629EF
:1056A800E9D118F807305C498DE841006A78029220
:1056B80009A81A0903F00F0301F04BFE21465748C9
:1056C80009AA013400F0ACFF202CA6D19BE00EF013
:1056D80019FF1F28044600F3898028462021E4B2D8
:1056E80011F051FD1F2C02D905F04EF98BE0474B04
:1056F8005B6803EB8404451C00212046042211F05A
:105708000EFD0027464B09AE304600210A2217F845
:1057180003905FFA87F811F002FD002315F8012BBA
:1057280032B10A2B04D04A4502D0F2540133F5E7CE
:105738004A4561D108F1FF33032B09D8DFE803F0AC
:10574800100502420DF1230037E00DF123011FE09F
:1057580030460EF0D7FE2378C0B243EA001006E0C8
:1057680030460EF0CFFE237800F00F00184320706B
:1057780034E00133062B0BD02A4800F1F3069E5D76
:105788009642F6D1034493F8ED206388134363806F
:1057980011F8012F12B30023EEE70133072B0CD0C9
:1057A800204A02F1E6069E5D8E42F6D102EB4303E3
:1057B800B3F8D82063881343638010F8011F69B1D8
:1057C8000023EDE730460EF09DFE0F2804DC30463E
:1057D8000EF098FE607001E0002363700137052F1A
:1057E80090D1012406F06CF96CB97DE70E480021D0
:1057F8001F2205F043F806E020460021042211F09C
:105808008EFC0024EEE70FB0BDE8F0837C0E00208C
:10581800A0770108B5770108CC990108DB99010840
:10582800C1770108C8760108C6990108F8B5047857
:10583800064674B9314DB5F87822B5F87A32304851
:105848002146013400F0ECFE042C05F10405F2D1E8
:10585800F8BD2C4911F06CFCA8B9284B4FF47A71AB
:105868004FF4FA62A3F87812A3F87A22A3F87C120C
:10587800A3F87E22A3F88012A3F88222A3F8841248
:10588800A3F88622F8BD30460EF03CFE03280546F4
:105898002CD83046202111F076FC044630B1013472
:1058A80020460EF02FFE0126074600E00646204659
:1058B800202111F068FC18B9BDE8F84005F064B87B
:1058C80001300EF01FFE012EF6D1A7F2EE2240F2B3
:1058D800DC539A42F0D8A0F2EE229A42ECD8074B59
:1058E8009C3503EB85031F815881F8BD06480021CC
:1058F8000322BDE8F84004F0C1BF00BF40220020E9
:10590800E799010860A00108919E01082DE9FF416F
:1059180004780546002C39D17348744D06F0ACFD67
:10592800D5ED047AF5EE407AF1EE10FA00F0D88061
:1059380021466F4800F074FE95ED040A684601F0B0
:105948009DFB01466B4800F06BFE95ED050A684625
:1059580001F094FB0146674800F062FE95ED060AE7
:10596800684601F08BFB0146624800F059FE95ED50
:10597800070A684601F082FB013401465E4800F0E0
:105988004FFE0C2C05F11005CAD1A9E05B49052290
:1059980011F00EFC40B9554B03F1C002002143F849
:1059A800101F9342FAD19BE028465549042211F072
:1059B800FFFB04462846002C40D1202111F0E3FBD0
:1059C800002800F08D80451C284611F0E9FB0746A9
:1059D8004C4B53F824601EB94B4806F04DFD7FE050
:1059E80028463146FAB211F0E3FB01340028EFD122
:1059F8003E4B03F1C0029E46002143F8101F93421C
:105A0800FAD1424B03EBC4029846D2F804C0BCF169
:105A1800000F04D13E48314600F002FE57E000274F
:105A280018F834309F42F5DA3B010EEB0305634466
:105A38000FCB103585E80F000137F1E70EF062FD56
:105A48000B28064647DC2846202111F09CFB05461A
:105A580050B10135284601F087FA244B03EB0613B1
:105A680083ED040A012400E004462846202111F0B1
:105A78008AFB054648B10135284601F075FA1B4BEB
:105A880003EB061383ED050A01342846202111F0A3
:105A98007AFB054648B10135284601F065FA134BF3
:105AA80003EB061383ED060A01342846202111F082
:105AB8006AFB10B904F068FF12E0013001F054FAF3
:105AC8000A4B032C03EB061686ED070AF2D11148A0
