:020000040800F2
:1000000000A00020951A0108F3D40008E5030108B8
:10001000F1D40008EFD40008EDD40008000000007F
:10002000000000000000000000000000EBD4000809
:10003000E9D4000800000000E7D400088DF90008AA
:10004000FD1A0108FD1A0108FD1A0108FD1A010830
:10005000FD1A0108FD1A0108FD1A0108FD1A010820
:10006000FD1A0108FD1A0108FD1A0108FD1A010810
:1000700089F6000879F600085BD00008FD1A01082F
:1000800069F6000859F60008FD1A0108FD1A010872
:1000900015D60008FD1A0108FD1A0108FD1A01080D
:1000A0001DF1000849F100080DF1000859F10008A0
:1000B0003DF100082DF10008FD1A0108FD1A0108A4
:1000C000FD1A0108FD1A0108FD1A0108FD1A0108B0
:1000D000FD1A010815F3000809F30008FDF20008F5
:1000E0009DF90008FD1A010829070108FD1A0108F9
:1000F000FD1A0108FD1A0108FD1A0108FD1A010880
:10010000000000000000000000000000FD1A0108CF
:10011000FD1A0108FD1A0108FD1A0108FD1A01085F
:10012000FD1A0108FD1A0108FD1A0108FD1A01084F
:10013000FD1A0108FD1A010800000000000000007F
:10014000FD1A0108FD1A0108FD1A0108000000004F
:10015000000000000000000000000000000000009F
:100160000000000000000000FD1A0108FD1A01084F
:10017000FD1A01080000000000000000000000005F
:0801800000000000FD1A010857
:100188002DE9F04F2DED0E8B844C854E854F9DB09B
:100198000FF07EFA2368C01A30800FF079FA824A8D
:1001A8003388396813805B1A5380804B20601B8822
:1001B80093807F4D15A8EB6898479DF85430A84662
:1001C8004BB935880FF064FA2368ED1A3B68284468
:1001D80050339842EDD30FF05BFA23686F4D143318
:1001E8009842F8D3D8F804300DA89847002800F0B2
:1001F800F580704EBDF934303360BDF93630736028
:100208003046BDF938302A79B360314605F0FAFF37
:1002180095ED028AB5EE408AF1EE10FA11D1664FDB
:10022800DFF8A0913B88002B00F0A380E36F1B78D8
:10023800A9F1480808EE103AA9F13C054FF0000A68
:1002480057E02D7B8DB93B687BB1DFF85081396869
:1002580008F110002844B0EE480A243509F0B5F931
:100268006C2DF2D1012388F80C30237B002BD6D0DB
:10027800002556F8253007EE903A504B242000FB15
:100288000530B8EEE70A09F077F913F0D5FE46F81D
:1002980025000135032DECD1C1E7D5ED006A07EE45
:1002A800103A37EEE66AB8EEC77A86EE077A36EE87
:1002B800877AD5ED026A85ED017A77EEC77A85ED02
:1002C800007AE6EE276AF0EE667AC5ED036AC5EDB8
:1002D800026A0023012A46F80B3049F80B3029D06E
:1002E8000AF1010ABAF1030F08F1040805F114052F
:1002F8004CD03A8856F82A10B2F57A7F02BF00230C
:10030800C8F800302B61D8F800300B44C8F800302A
:100318002B6907EE901A0133012B4FEA8A0BF8EE8E
:10032800E77A2B61B9D10023C5ED017AC5ED007AD2
:10033800AB60CEE72B69012BC3BF03F1FF3300EE9F
:10034800103AD5ED037A9FED1E0AC4BFB8EEC00A75
:1003580087EE800A13F058FF18EE103A5BB1F8EEFA
:10036800C87AB4EEE70AF1EE10FA04DD4FF47A73B6
:100378003B80002328E0D8F800304FF47A7203F568
:10038800FA7393FBF2F349F80B30A9E73888012890
:1003980001D10FF0F5F83B88013BE9E70809002097
:1003A800DA2B002040130020BC0C00201E1A00206D
:1003B800FC140020F0130020D82B0020180900207E
:1003C80000000000D009002056F8232059F8231017
:1003D800521A46F823200133032BF5D1DFF8C8A2BF
:1003E800DFF8C8B2DAF8003013F0020F00F0B98273
:1003F800A24B1B78002B00F0B4820FF049F99BE860
:100408006000D4F8D430DBF808709D49C4F8D400F3
:1004180006FB06F8C31A05FB058807FB07880EEEDE
:10042800103A642303FB08F3B1F8008008FB08F8CE
:1004380093FBF8F8DAF8003013F008038946A8F1BE
:100448005208904909D00B682BB14B681BB18B68D7
:10045800003318BF012303F001038B48DFED8B7ACB
:10046800D4ED365AD0ED02AA0B93B8EE4E9AF8EEB8
:10047800EAAA29EE279AD0ED007A0B680493B8EE21
:10048800E7AAD0ED017A4B680693B8EEE7BA2AEEF0
:1004980025AA2BEE25BA6AEEA5AA2BEE0B0A8B68C5
:1004A8000993AAEE0A0ADFF808A2DFED798AAAEE14
:1004B800AA0A13F0A9FE0B9BF0EE40BAF7EE009AD9
:1004C800002B53D0DDED047AB8EEE7CADDED067AED
:1004D8002CEE0C0AB8EEE78ADDED097AA8EE080AD8
:1004E800F8EEE7CADFED6B7AACEEAC0AB4EEE70AD9
:1004F800F1EE10FA3ADD13F087FE89EE800ADAEDA4
:10050800017A9AED007A28EE008A2CEE00CA68EE8D
:10051800277A2CEE800AE7EE0C7A9AED027AE7EE5B
:10052800007A9AED047A28EE078A9AED037AA7EE04
:100538000C8A9AED057AA7EE008AB0EE68CA28EE12
:10054800080AA7EEA70A13F05FFEDAED067A20EE96
:10055800480AB0EE688AA7EE80CADAED077AA7EEF5
:10056800808ADAED087AE7EE808A03E0B0EE688ADE
:10057800B0EE68CAB8F1260F3AD807EE905AF8EEEE
:10058800E7DA07EE906A2DEEAD0AB8EEE7DA07EE85
:10059800907AADEE0D0AF8EEE7CADFED3E7AACEEE2
:1005A800AC0AB4EEE70AF1EE10FA21DD13F02CFEE6
:1005B80089EE800ADAED075A9AED086A2DEE807AFC
:1005C8006DEE006A2CEE800A65EEC07AE6EE867A59
:1005D80026EE476A3CEE27CADAED067AA0EE276ACD
:1005E80067EEE67A38EE068AE7EE257A78EEA78A8D
:1005F800D4F8DC60284BD6ED017AF5EEC07AF1EE3E
:1006080010FA4FF000011FDD9FED247AF4EEC7BA0F
:10061800F1EE10FA1ED567EE8C6A93ED387AA6EEE5
:10062800897A67EE886A83ED387A93ED397AA6EE8F
:10063800897A67EEA87A83ED397A93ED3A7AA7EE4C
:10064800897A83ED3A7A05E0C3F8E010C3F8E4103C
:10065800C3F8E810124DD6ED027A2B78590729D441
:10066800104B196844F61F639942F7EE005AB2EE30
:10067800047A98BFF0EE475A1EE000BFB42B002062
:1006880004000020900D0020F0130020BD378635AF
:10069800000000000AD7233C08090020C2B8B23E77
:1006A800E02B00209C190020201A00200C0F0020AD
:1006B80020170020F7EE005A67EEA55AD4ED3A6AE3
:1006C80094ED387AD4ED397ADFF84C83C64998ED41
:1006D800004AC64BD1ED003AC54F0691E5EEA86A2F
:1006E8000493E5EE887AA5EE8C7A7AEEA6AAF6EE61
:1006F800006A69EE266A7BEE277A3AEE077A27EED9
:10070800A66A27EE267A6AEEA66A26EE445A24EEF0
:10071800260AD3ED007AD7ED004A9FEDB68AA7EEF8
:10072800C75AA3EE870AF1EE645AA5EEA65AA5EEBB
:10073800860A66EEE75A37EE800AE3EE865A67EED7
:10074800867A33EE855AE4EE875AE3EEA67A83ED8D
:10075800000A20EE000A74EE255AA5EE050AE4EE1A
:10076800477AA5EEA50A74EEA77A81ED005AA7EE9E
:10077800A70AC8ED005AC7ED007A13F045FD89EEC7
:10078800800A0699049BD1ED007AD7ED009A67EEAE
:10079800807AC1ED007AD3ED007A67EE807AC3EDF6
:1007A800007AD8ED007A67EE807A29EE800AC8EDE3
:1007B800007A87ED000A08F0C5FDDAED080A9AED1F
:1007C800070A8D4F13F01EFD20EE080A13F034FCC3
:1007D8009AED060A3880B1EE400A13F0B5FCDFED59
:1007E800877A37EEC00A20EE080A13F025FCDAED06
:1007F800000A9AED030A788013F004FDD4ED3B7AE1
:10080800E0EE487AB0EE670A13F016FCDAED085A03
:10081800D4ED3C7A9AED010ADBED026A9AED065AAC
:10082800F4EEE75ADBED007AB8EEE76ADBED017A21
:10083800B8EEE77ADAED007A27EE000AF8EEE66A13
:10084800A7EE860A83B21A04DAED027A58BFBB8093
:10085800A7EEA60A6A4BDAED077A197867EE277AC7
:1008680048BF00F56160E5EE067A48BFB880F1EE52
:1008780010FAE5EEA67ACCBF41F0080121F0080194
:10088800DAED045A197027EE257ADAED035A7378EF
:10089800A5EE867A012B9AED056AA6EE267AF1EE88
:1008A800478A18D12B7859070FD4D4F8F43040224E
:1008B80093FBF2F29B1A07EE103AB8EEC77A37EEBE
:1008C800277ABDEEC77A84ED3D7AD4F8F430402219
:1008D80093FBF2F301E0B9F8003094ED3E8A07EE9D
:1008E800103AB8EEC77A77EEC77A94ED3F7A39EEC8
:1008F800077A77EEC87A89EE079AA9EE278A84EDF7
:100908003E8A13F099FBD4F80051297809F0C2F80F
:10091800D4F80431B0EE680A1844C4F8040113F09E
:100928008BFB297809F0B6F8D4F80831B0EE480AFC
:100938001844C4F8080113F07FFB697809F0AAF895
:10094800D4F80C312F4A18441EEE101A1368C4F854
:100958000C011944D4F8103111600133C4F8103176
:1009680006E00023CBF80030CBF80430CBF8083091
:10097800254BB3F90610254BD3F800E0BEF80A2042
:1009880091420FDBB1F5FA6F9EF80740BDBF8B1A95
:100998006343A2F5FA64C4F16404BCBF93FBF4F4A6
:1009A800643400E064241A4B93F82622B3F846A274
:1009B800069293F8272293F9DC3109929BB20B93A4
:1009C800144B1E680022104B33F91280CAEB08033F
:1009D80003F2F31540F2E63085424FEA42091DD88A
:1009E800002BB8BF5B421BE0B400002014170020A6
:1009F8001C1700204C3D0F44E8130020DB0FC93FB3
:100A08009C0F0020C02B0020AC2200207017002073
:100A1800F8220020B80C0020181700204FF4FA73B1
:100A2800022A04934FF064002DD0069B2BB1049D3D
:100A38009D42CCBFEB1A00230493049BA14D93FB6A
:100A4800F0F76FF0630B35F817C00BFB073B013766
:100A58009D4B35F917500FFA8CF7ED1B05FB0BF57D
:100A680095FBF0F5654423F809500EEB0205049B4D
:100A78002D796B43954D93FBF5F364339BB2634338
:100A880093FBF0F030E0099B2BB1049D9D42CCBF55
:100A9800EB1A00230493049B8D4D93FBF0F06FF049
:100AA800630C0CFB003B05EB400705EB4000B7F976
:100AB8001471B0F91601BDF82C30C01B00FB0BFBFC
:100AC8009BFBFCFBC7EB0B0B1BFB03FB7E4BA3F851
:100AD80004B0049B9EF80600002BB8BF5B4243435A
:100AE8007A4893FBF0F0643073787A4F6425434377
:100AF80093FBF5F3BB54784FF37A434393FBF5F339
:100B0800BB54737D704F5843744B90FBF5F0022A29
:100B18009854734B0DD1D0459D700DDB714CB4F8D2
:100B28004822914214DBB1F5FA6FA8BF4FF4FA617D
:100B38000FE0D0459C5404DA37F809305B4227F8B7
:100B480009300132032A06F101067FF43CAFE5E7DC
:100B58001146891A4FF47A73DFF8A8E15A4E5943BF
:100B68006FF063036425C2F5FA62B1FBF2F191FB01
:100B7800F5F23EF8120003FB0211013203B23EF90E
:100B88001220D21A514391FBF5F30344FB80564BD4
:100B98004F4DB3F8008018F0400F3BD0534BDFEDBA
:100BA800547AB3F904309FED530A0A2293FBF2F307
:100BB800B5F826219B1A1BB208EE103AB8EEC88A7F
:100BC80028EE278A38EE000A08F073FFF0EE408A14
:100BD800B0EE480A08F06DFFB6F9023006EE903A1A
:100BE800B6F90030F8EEE66A07EE903A20EE667A3B
:100BF800F8EEE77AA7EEA87A67EE807ABDEEC77AB4
:100C0800E6EEA87A17EE103AFDEEE77A338017EE93
:100C1800903A738094F84C3213B9B8F1000F75D03C
:100C2800354AB5F828111268B1FBF2F1334A284B5E
:100C38001278481C80B2A5F82A011AB3B3F82CA17F
:100C48000023234D37F813C005F59B7E05F59778EB
:100C58003EF8136038F813202EF813C0C6EB0C06C4
:100C680012FB0AF20FFA80F992FBF9F2164428F8FF
:100C780013600133042BE4D1204BA5F82C1100227A
:100C88001A7004E0B3F82C21013AA3F82C21104A79
:100C9800B2F82C0103B2002B4FF0000334DDB2F997
:100CA8002A51174931F81320083112FB00F231F8A4
:100CB800131092FBF5F28A1A27F813200133042B3C
:100CC800EFD123E01E220020E01300200CFEFFFFDE
:100CD80008090020781500202A0A00208015002025
:100CE800FC130020F8220020E4190020E81300205B
:100CF80035FA8E3CDB0FC93F40130020FC0E002064
:100D0800360A002006220020A2F82C3194F84D3231
:100D1800002B6FD0A54A128852066BD407EE903A82
:100D28009FEDA37ADFF8C8A2F8EEE77A67EE877A34
:100D380017EE900A10F072F841EC100B41EC180B0A
:100D480013F092F8BAF900008DED040B10F054F886
:100D5800B0EE480AF0EE680A04460D4613F0D8F8DB
:100D6800BAF904008DED060B10F046F82246064647
:100D78000F462B46DDE9040110F0A4F83246804600
:100D88003B468946DDE9060110F09CF802460B4611
:100D9800404649460FF0E2FE10F02EFBDFF88C8249
:100DA800B0F5FA7FA8BF4FF4FA704045B8BF404687
:100DB80032463B46AAF80000DDE9040110F082F84B
:100DC800224606460F462B46DDE9060110F07AF862
:100DD80002460B46304639460FF0C2FE10F00CFBB7
:100DE800B0F5FA7FA8BF4FF4FA704045B8BF404647
:100DF800AAF804006F4B704D1A7812F0040F04D053
:100E08006E4B1A689B88138532E02968CF075CBF50
:100E180042F001021A706A4A127816075EBF1A7801
:100E280022F001021A70674A1188674A19B16749A6
:100E380009688C0706D46649098819B96548008885
:100E4800642806D9022111701A7822F001021A705A
:100E580005E01B78D80756BF0223117013700EF0F7
:100E680017FC5D4B1B68C01A002801DB0BF042FC25
:100E78005A4B9B680BB15A4898475A4B5A4E1B78A5
:100E8800ABB15A4BB3F90620B6F848329A420EDC99
:100E98007379012B01D0192B02D196F8942232B91B
:100EA8000E2B04D0082B1EBF514B00229A8096F8B7
:100EB8001442504F9CB33D4B1B889B072FD04E4B81
:100EC800DFED4E7A93ED080AB4EEE70AF1EE10FA78
:100ED80020D913F039F9D7ED507A20EE270A13F00C
:100EE800ABF8B0F5617FA8BF4FF4617007EE900AC8
:100EF800B8EEE70ADFED427A80EE270A08F0D9FD5E
:100F080007EE904AF8EEE77A27EE800A13F094F895
:100F180080B200E00020364AD3881844D080394B8C
:100F28003949B6F82A2200930C68384908683849C4
:100F3800463B0968A047374B2E68DB780B93340192
:100F480007D4354B2B491C78344A032C00F2C08057
:100F5800D8E0334BD7F844111A68087E53881488B0
:100F680091F817E01C1B2F4B1B6803F48053049364
:100F78002D4BA4B200EB8000D3F800A00FFA84FC3C
:100F880000F10A0B00271A4B33F81750049B4FEA5D
:100F98004709002B4CD0BAF80220BAF800309B1A47
:100FA8006344022293FBF2F39BB242E0E41900206F
:100FB80035FA8E3CE02B0020E8190020C8190020E3
:100FC8009C0F0020AC0E0020C4190020201A00201D
:100FD800D82B00201E1A0020E0190020FC14002045
:100FE800180F002002000020F8220020AC22002068
:100FF800E013002008090020201700208FC2753C4C
:10100800EFB6B0443025002090030020B80C002033
:1010180070170020A0190020831500201C14002040
:101028009816002090190020941600200CFEFFFF4F
:101038002346BEF1000F31D02DB2B5F5FA7FB24A82
:10104800A8BF4FF4FA759542B8BF154685EAE57210
:10105800A2EBE5725A4526DD002DCCBF2D1A2D18BE
:10106800ADB229B281EAE172A2EBE17215FB03F39A
:101078004FF4FA7593FBF5F31BB264210EFB02F2F1
:10108800DB0092FBF1F24FF4805191FBF2F293FBFB
:10109800F2F391B2083A9BB292B208E04FF4805151
:1010A8000A46734603E04FF480510A460023DFF8EE
:1010B800888239F8085009B215FB02F292FBF1F266
:1010C8001A4429F80820002F7FF43BAF01275AE77C
:1010D800D1F848315F88B7F5FA7F13D28B4BB2F954
:1010E80004E0B3F9045085EAE57CACEBE57C784292
:1010F800CCEB00039E4504DB07EB0C037345A8BF4C
:1011080073469380824B1B689F7937B38148006888
:1011180080071ED58048007801281AD9DB78DFF8C7
:101128001CE25843BEF800E0C31A9E4585B203DBB3
:1011380070450346A8BF73464FF480501BB290FB1E
:10114800F3F39BB20A932BB290FBF3F083B20893AC
:1011580003E04FF4805308930A93D1F84891B2F80A
:1011680002C0B2F80080B2F904A06C4D00210B4611
:101178000846A04247D299F9002095ED016A5242EB
:101188000AFB02F207EE902A0FFA8CF206EE902A7A
:101198000FFA88F2B8EEE77A07EE902AF8EEE77AC7
:1011A800F8EEE66A67EE867A95ED026AE6EE867AEA
:1011B8000DF13C0ED5ED036AE7EE267AFDEEE77AEF
:1011C800CDED047ABDF810203FB1BDF828B012FB70
:1011D8000BF2BDF920B092FBFBF22EF810200FAAFB
:1011E8000FFA83FB32F810200FFA82FEDE4504DC8A
:1011F8000FFA81FBDE4502DB1A4613460A46013028
:1012080010351146B5E7591A424B454F1A6812F482
:10121800805F89B29E463AD0424BDFF80CC11B78FA
:1012280013F0040F404B02BFD3F84421D289A3F82E
:101238000C223E4AD3F84431D588DA893C4BD3F89E
:101248000080B8F8063028B2C3EB0209484504DC30
:101258003B68B8F800001A8806E01344984206DB99
:101268003B68B8F802205888ACF80C5214E0BCF976
:101278000C324B45D9BFB8F800003B683B68B8F85A
:101288000220D5BF1A8858880546154604E01F4B2A
:10129800DD883B681A885888264F1FFA80F91FFA9C
:1012A80082FCCCEB090309B20FFA83F8414547DD0C
:1012B80001233B7000274FF4805393FBF1F193FB1C
:1012C800F8F3A7420BD20DF13C0A3AF9179001FB4B
:1012D80009F999FBF3F92AF817900137F1E7642720
:1012E800794391FBF3F1104BD3F848315B7809B29D
:1012F800994230DD76012ED5022298FBF2F30CEBF1
:10130800030292B2104626E00CFEFFFFE013002015
:10131800D41000209019002098030020540A0020BF
:1013280098160020E02B002008090020AC2200209D
:1013380094160020001400201C1400201C1100200A
:101348000220002391FBF0F10CEB0102C1EB090034
:101358003B7092B280B2DEF80030AF49AF4EB1F9BF
:101368000CE2D1F84491AE4903F4805A03F010031B
:101378000A93AC4BD1F800C01B78AB4903F00403C7
:10138800DBB20893A94B09681B6803F080630693D6
:10139800A74BB3F90630099300230493049BA34297
:1013A80056D20FAB049F33F817802BB207EE903A52
:1013B800A04B03EB071393ED007AF8EEE77A13B22C
:1013C80067EE877AFDEEE77A17EE90BA9B4503DB66
:1013D80003B25B45A8BF5B4643440B9F9BB226F80C
:1013E800023F1BB217B1B1F8048014E0BAF1000F44
:1013F8000FD0B9F80E80BCF806B0CBEB0808C6458C
:1014080004DCB1F80080BCF800B006E0BCF802804B
:1014180001E0B1F80080B1F802B0434503DB5B4559
:10142800A8BF5B4698460A9BA6F800806BB1089B4C
:101438005BB1BAF1000F08D1069B33B9B9F8103087
:10144800099F9F42BCBF8B883380049B0133A4E76C
:10145800744908910A7802F0040202F0FF0342B1CD
:101468006D4991F80E32013BDBB2182B00F24C812A
:1014780009E0A342F4D2704A32F813106F4A22F8F6
:1014880013100133F5E701229A406D4B1340002BEE
:1014980000F03A816B4B66481B8813F4807F08D0B4
:1014A800694B1A88ADF854205A88ADF856209B88A5
:1014B80015E0664B1A88ADF854205A88ADF85620C6
:1014C800634A9B881268ADF85830D40409D5D1F81E
:1014D8004421B0F90640D289944202DA5B42ADF861
:1014E80058305C4DB5F902304FF47A7203F5E16378
:1014F80053434FF4616493FBF4F3A3F5FA73ADF827
:101508006C30B5F9003003F5E1635A434B4B92FB5D
:10151800F4F21B88A3F2DC53A2F5FA72ADF85A3044
:10152800D1F84431ADF86E20DB890288D21AADF8C3
:101538005C204288D21AADF85E208288D21AADF8B3
:101548006020C288D21AADF862200289D21AADF89A
:1015580064204289D21AADF866208289D21AADF881
:101568006820C289D31AADF86A3000233A4A0021AC
:1015780022F813100133082BF8D12C4A374B126884
:101588000492374A1B783749D2F800B0364D072203
:1015980002FB0318414500F09E800B783BB103F134
:1015A800140201239340049A134000F0908011F82C
:1015B80006EC11F805AC11F8034C11F801CCCEEB90
:1015C800CE070BEB47076420B7F90020B7F90230C4
:1015D8009B1A9BB211F9022C4FEA53095A434FEA5E
:1015E8004A0692FBF0F21CA8C9EB020292B206442A
:1015F80014B936F81C0C0CE0B5F9000036F91C6C6F
:10160800B04233DA0444844203DBA6423046A8BF22
:101618002046288033E000BF0809002082150020FA
:1016280094160020E02B002098160020E8190020CE
:10163800AC220020540A00207417002084150020D2
:1016480099209801E4190020E01300201C140020C0
:1016580090190020E8130020A80C00209C160020F8
:10166800C0170020A3160020180B002007DD041B5C
:10167800B44203DB8442A8BF044626462E80D7F82E
:101688000A4011F9046C012000FA0AF02042288867
:1016980012B216FB00F014BF4FF0FF340124642689
:1016A80090FBF6F090420ADB4FFA8CF25A4392FB19
:1016B800F6F2C9EB020212B28242A8BF0246B34B4D
:1016C80033F81E9002FB049423F81E4000E02B80A0
:1016D800023507315EE7AE4BAE4E1F6800250E227D
:1016E80002FB057236F8023F92F90640E8B214FB95
:1016F80003F3642493FBF4F4348007F009FE013506
:101708002044082D3080EAD1A34FA04D3B68A04E5D
:1017180013F0200F32D0002007F0FAFD288004468D
:10172800012007F0F5FD9D4B68801B68190625D53B
:101738009B4B9C4AD3F830321B78012B22D131685D
:10174800138891F914E0B2F902201EFB03F34FF05D
:10175800320C93FBFCF31FFA83FE91F906305B42CF
:1017680053436FF0310193FBF1F10EEB0102A11825
:1017780093FBFCF37344298018446880D6F800E092
:10178800002318E0D6F800E053889EF9061011FBF4
:1017980003F1322391FBF3F12144298011889EF94A
:1017A800142012FB01F292FBF3F21044E5E7013337
:1017B800082B2A5311D00E2101FB03E135F9130040
:1017C800B1F90020B1F9021090424FEA4304EEDB70
:1017D8000AB28242A8BF0246E9E7714CD4F84891A0
:1017E80099F90830ABB994F80E8208F1FF33182B39
:1017F80000F28A80DFE803F04C8888668888885F72
:101808008888888888708888888888667C888870AE
:101818004C00DFF880B104F50D7A4FF0000894F819
:10182800543373B9B9F9063000EE103A5E4BB8EE8E
:10183800C00A1968504607F0C8FE594B012283F8C0
:1018480054233BF9023F00EE103A5046B8EEC00A66
:1018580007F092FE12F0F0FB33680E2280B202FB12
:101868000832ABF80000B2F90030B2F9022000B239
:10187800984203DB13B28342A8BF034608F101086C
:10188800B8F1080FABF800300AF1240AC7D1AAE76B
:1018980099F8043013B10020698908E0089B1B7887
:1018A80003F0040303F0FF00002BF4D1014605F018
:1018B800E7FE012629E00020E98805F0E1FE012085
:1018C800298905E00020298905F0DAFE69890120C7
:1018D80005F0D6FE022618E00226B01E35F81610CE
:1018E800C0B2013605F0CCFE082EF6D106260CE073
:1018F8000326F01E35F81610C0B2013605F0C0FEFA
:10190800072EF6D1042600E000263B689A0602D48A
:10191800B8F1050F0AD13046298805F0B1FE701CD0
:10192800C0B2698805F0ACFE0236F6B23B68DB024D
:1019380005D494F855337BB107F031FC0CE0DFF89F
:10194800788000257019C0B238F8021F05F098FE9B
:101958000D2DEED00135F5E7144B1878002840F02E
:101968008F813B681D0340F18B81114D2B78033B20
:10197800052B38D80F4B93F84D35FBB1012B22D1ED
:1019880004F07CFFC0F17F001DE000BFA80C002020
:10199800C0170020A60C002090190020E81900208C
:1019A80008090020E813002040130020DF2B002046
:1019B800C80C0020F8220020B2220020D4F85803D6
:1019C80003689B689847D4F85C3394F86023134401
:1019D800B3F5807FA8BF4FF480738342D4BFC4F8A7
:1019E8005C33C4F85C032B78023B092B00F2388186
:1019F800DFE813F00A0015004B00360136016400D9
:101A08007600EF000C0117010023C4F85C33C4F81A
:101A180064339E4B1B68C4F8683303231FE19B4B58
:101A28001A68D4F8683364339A4240F21981402026
:101A38000CF03CFC002840F013814FF04008944B18
:101A4800D4F86423934F985C1E4678B106F040F9A9
:101A5800D7F85C33013BC7F85C33D7F86433B8F187
:101A6800010803F10103C7F86433E8D1D4F864230B
:101A7800884BB25C002A40F0F380C3F864234FF02F
:101A8800FF32C3F868230423E9E025230093824B3F
:101A9800019303F10C0202924920A3F10A0250219A
:101AA800023306F029FC002840F0DA804FF0FF33BB
:101AB800C4F86833C4F864030723D0E0774A0523E1
:101AC8000021009301910291532002F1080306F0CE
:101AD80013FC002840F0C480C4F864030823BEE067
:101AE80040200CF0E3FB002840F0BA80D4F86433BF
:101AF8000C2B00F2BB80DFE803F0070B0E12192C49
:101B080031363A3E4C575B0065480CF043FD5AE0CD
:101B1800644865491AE065486549664A51E0664B7C
:101B2800664893F84B1593F84C254AE0624890F8BC
:101B3800A034842202FB03F1431893F8F4230C2306
:101B480003FB021303445E4893F8F6130CF022FDDE
:101B580039E0594B5B48B3F8D410F7E7564B5A486D
:101B6800B3F8D610F2E7594B59481969EEE7594BC3
:101B780059481988EAE7D4F86C33D80404D54E4B91
:101B8800564893F81612E1E7424B0B22C3F8642338
:101B980019E0494B524893F81A1293F81B2293F80C
:101BA80019320CF0F7FC0EE04E48B4F87013CDE78C
:101BB8003B68190507D5404B4B48B3F82012B3F9D9
:101BC8001E220CF0E7FCD4F864330133C4F8643304
:101BD80046E0464B1B68DA0115D5B4F874332D4E30
:101BE8008BB9D6F878331593414B0E201B681693A2
:101BF80015A906F011F94FF48053A6F872330A2399
:101C08002B7006F053F906F0E9F829E094F87C33D4
:101C1800002BF6D0354B1B68DB01F2D409232B705F
:101C2800F1E71A4B1A68D4F86833C8339A4204D9D2
:101C3800214B93F84D658EB904E00CF07DFB00282C
:101C4800F6D10DE0D4F8580309F0B3FE94F87D33CB
:101C5800C4F85863022B01D10EF0ACF801232B70A5
:101C68000CF054FB60B101232B7009E00CF064FB0D
:101C78000028F5D04FF48053A4F872330A23EEE716
:101C88001DB0BDEC0E8BBDE8F08F00BF9C19002085
:101C9800F86801080809002062690108146B010846
:101CA8001C8B0108368B01084B8B0108538B0108EC
:101CB800678B0108738B0108F82200207C8B0108D0
:101CC8008D8B0108978B0108A68B0108FC14002056
:101CD800B58B010804000020C58B0108CF8B0108D3
:101CE800DC8B0108F58B0108008C0108E81900203D
:101CF8009C0D00202DE9F04F2DED028BA34EAFB0C7
:101D080034780096002C00F0EA80A14B186800286F
:101D180001F094860DF082FC9E4C206807F01BFAB7
:101D2800002801F08B8620689B4C07F011FA0928DF
:101D380001D03F284BD14FF000092768974E4D46F8
:101D48002FB1974831683A4614F056FD10B9B1469C
:101D580005B93546934B10369E42F1D3D5B12E685E
:101D6800D9F80080236816F803E018F803007045D6
:101D780010D15A1C8A4948B92D2B07D8864E4FF0E6
:101D8800200E01F803E03260885403E001F803E014
:101D98002260E7E723680BB14D450FD082480AF06F
:101DA800E5FE4D4507D855F8100B0AF0DFFE09206F
:101DB8000AF0FDFDF5E709F0E3FD002723689F42DF
:101DC800AAD2774BD85D0AF0F2FD0137F6E723680F
:101DD800002B41F0B885042841F00986704808F0C6
:101DE80087FC01F02BBEDFF8E8A1DAF8000007F065
:101DF800B2F900285DD0DAF8000007F0A9F9DBF89D
:101E0800003093F848100646002940F084802428C2
:101E180040F0E280012283F84820DBF8002092F8A5
:101E280048000628DFD192F849304D2B00F049864A
:101E380000F2D581322B00F0698600F26B81242BE9
:101E480000F0F68500F21F81032B00F0778240F244
:101E5800F980052B40F00B811A200AF093FD4FF012
:101E68000009524B13F8090009F101090AF041FD74
:101E7800B9F10B0FF5D14FF000094D4B13F80900DC
:101E880009F101090AF035FDB9F1080FF5D14FF054
:101E98000009484B13F8090009F101090AF029FD66
:101EA800B9F1070FF5D10AF035FD2B68002283F848
:101EB8004820D8F800000DF0B1FB3F4B93F84130B3
:101EC8004BB1385909F06AFD07F0BAF907F082FEFC
:101ED8003A4B3B4ADA604C34982C01F0AF85394FC5
:101EE800E359E219002BF6D0DFF8E490364DC9F833
:101EF8000030079300238DF82130DFF8D8802A605E
:101F08001423324A8DF8203006AB0692C8F8003008
:101F1800AB46019267E7012904D14D2814BF00227E
:101F2800022278E7022904D13C2814BF00220322A8
:101F380071E703290CD140284FF0000102D983F83A
:101F480048106AE758711971D9719871042262E7CB
:101F5800042907D1997983F8490080EA01029A7126
:101F6800052258E705297FF458AF5879197988422E
:101F7800987906D970409871481C18710B441E72E4
:101F88004BE7B0420CBF0622002244E7DF2B0020BB
:101F9800181A00206C170020BC170020EC6F0108ED
:101FA8008C170020BC710108C98C0108678B0108D7
:101FB800738B01084B8B0108880C002000ED00E0B2
:101FC8000400FA05482800200C1A00206B9100082C
:101FD800141A0020101A0020DE490B7803F00403BD
:101FE80003F0FF0E002B7FF418AF232EDAF8000061
:101FF8001BD1009A029101231370D74B019A1860E4
:10200800D64B1860986010201873D5485A6083F82A
:102018000DE004330360D3480AF0A8FD09F0B0FCD2
:1020280002990B7843F002030B70CF4B1B681B78A7
:10203800B34201BFCD4BCE4A1A60CE4B04BFCE4A45
:10204800DA60EAE6012B00F06D81022B40F0BC86D5
:1020580004200AF097FC42200AF04BFC54200AF0B6
:1020680048FC46200AF045FC4C2000F07DBEC0F03C
:102078008D81222B40F0A886C04E50200AF082FCA9
:1020880006F1500AB9E32A2B00F0FA8419D8262B56
:1020980000F0D484282B40F09786B84E07200AF029
:1020A80071FCB6F81E020AF070FCB6F820020AF0BD
:1020B8006CFC96F822020AF01CFCB6F8240200F028
:1020C80001BE2E2B00F06D85302B00F081852C2B66
:1020D80040F07A86A94E0C200AF054FC96F840028B
:1020E8000AF007FCB6F84A020AF04FFCB6F84602B6
:1020F8000AF04BFCB6F848020AF047FC96F8410291
:102108000AF0F7FBB6F852020AF03FFCB6F85402A0
:1021180000F0D8BD402B00F0008525D8382B00F002
:102128009C8413D8342B00F08383362B40F04C86E4
:102138008A4BDFF8489293F83C00C0EBC000C0B26D
:102148000AF020FC09F1200A00F027BD3B2B00F023
:102158004D833D2B00F045823A2B40F03586042014
:102168000AF010FC00F097BD462B00F057850CD8FC
:10217800422B00F0E484452B40F0268613200AF019
:1021880001FC4FF0000900F079BD492B00F03482C2
:102198004B2B00F07B84472B40F016860AF0A0FBFF
:1021A800824684200AF0EEFB50460AF0F7FB744B97
:1021B800DA680AF1800393428CBFCAEB02094FF038
:1021C80080090DF1380B0AF049F850464A4659463D
:1021D80004F068FC4FF00009824600F033BD702B14
:1021E80000F05E8259D8672B00F0378134D8522B23
:1021F80000F03F8518D84F2B00F02E85502B40F06B
:10220800E3855E4E04200AF0BDFB01200AF071FB55
:1022180096F84D050AF06DFB96F84B050AF069FB38
:1022280096F84C0500F0A0BD652B00F0BF8000F2C9
:10223800E680642B40F0C88507200AF0A3FBE7205E
:102248000AF057FB4D4B58790AF053FB00200AF06F
:1022580050FB042000F020BD6C2B00F0868110D8C4
:10226800682B00F06581692B40F0AE85454E3078CB
:10227800400000F0FE000AF085FB4FF00009B2466E
:1022880066E16E2B00F0808100F2BC8106200AF026
:1022980079FB00200AF082FBDCE07C2B00F0008553
:1022A8001DD8742B00F0E7820BD8722B00F05083F6
:1022B800732B40F0898508200AF064FB4FF0010970
:1022C8007BE3772B00F01E83782B00F0D680752BEC
:1022D80040F07A852F200AF055FB2B4E7EE2A02B8A
:1022E80000F0988309D87E2B00F0FF84C0F0EE84BC
:1022F800962B40F069850C2059E0F12B00F0F28014
:10230800FE2B00F06583F02B40F05E851B4E042009
:102318000AF038FBB6F8F4010AF037FBB6F8F20118
:1023280000F0D0BC03200AF02DFB00200AF0E1FAEF
:1023380001200AF0DEFA102000F016BD18460AF057
:1023480021FB02200AF0D5FA04200AF0D2FA012073
:1023580000F00ABDE02B00206C170020880C00203C
:10236800181A0020F98C0108EC280020FC9F002096
:10237800EFBEADDE00ED00E00400FA05F822002013
:10238800BC000020E42800203B6B010806200AF06E
:10239800F9FA4D200AF0ADFA4F200AF0AAFA5420B3
:1023A8000AF0A7FA4F200AF0A4FA53E00B200AF02B
:1023B800E9FAAB4B18880AF0E8FA05F083FA0AF054
:1023C800E4FAA84B1B68C3F3C000C3F38002800083
:1023D80040EA4200C3F340021043C3F3401240EA0C
:1023E800C20003F0100318430AF0CFFA0AF0AAF962
:1023F8000AF0D4FA9C4B93F8A00400F0B5BC122064
:102408000AF0C0FA994B1B88B3F5806F8CBF4FF068
:10241800080A4FF0010A4FF00009954B53F82900BC
:1024280090FBFAF009F1010980B20AF0AEFAB9F1AD
:10243800030FF2D18F4E30880AF0A7FAB0880AF05D
:10244800A4FA30890AF0A1FA00200AF09EFA0020C6
:102458000AF09BFA002000F035BC10200AF092FA2E
:102468004FF00009844B13F8090009F101090AF03B
:1024780040FAB9F1100FF5D115E57B4E70200AF03E
:1024880081FA4FF0000A32464FF00E0B0BFB0A2B75
:102498000192BBF859010AF078FABBF85B010AF01F
:1024A80074FABBF85D010AF070FA96F85F010AF059
:1024B80020FA96F860010AF01CFA96F861010AF011
:1024C80018FA96F862010AF014FA0AF1010ADBF820
:1024D80063010AF063FABAF1080F06F10E06019AD1
:1024E800D2D1E0E47020604E0AF04CFA06F1700A8E
:1024F80096F8E9000AF0FDF996F8EA000AF0F9F909
:1025080096F8EB000AF0F5F996F8EC000AF0F1F904
:1025180096F8ED000AF0EDF996F8EE000AF0E9F900
:10252800073696F8E8000AF0E4F95645E0D1BAE42F
:1025380010200AF027FA4FF00009504B13F8090051
:1025480009F101090AF0D5F9B9F1100FF5D1AAE49A
:102558009AF800309945BFF4A6AC494B33F81900F6
:102568000AF013FA09F10109F2E7464E0AF00AFAED
:1025780030880AF00AFA70880AF007FAB6F90430C7
:102588000A2093FBF0F027E007200AF0FBF93E4B06
:102598001888FF28A8BFFF20C0B20AF0AAF93B4B51
:1025A80018684FF6FF794845A8BF484620EAE0700A
:1025B80080B20AF0EAF9364B18880AF0E6F92A4B95
:1025C80093F82322334B186842B10A2358434845ED
:1025D800A8BF484620EAE07080B273E300F30F001A
:1025E800FAE7214E02200AF0CDF996F88D020AF09A
:1025F80080F996F88C02B7E302200AF0C3F9264B5B
:1026080018885FE3254E0B200AF0BCF93368187868
:102618000AF06FF9336858780AF06BF94FF0000B3D
:10262800B246DAF800301D4E5B440BF1010B187905
:102638000AF05FF9BBF1030FF3D13368D8790AF0D8
:1026480058F9336898780AF054F93368D8780AF05A
:1026580050F9336858890AF098F93368187A83E38F
:10266800DA2B0020201A0020F82200200400002085
:102678000C0F0020F0130020A80C00208415002067
:10268800AC220020E81300201C110020D8100020E4
:102698009A0F0020200F0020401300207017002000
:1026A8001E200AF06FF9D34B1A6B1278022A4FF0EA
:1026B800000A994679D1D9F8303003EB8A0393EDB3
:1026C800080AB2EE048A20EE080A11F0B5FC80F37D
:1026D8000800C0B20AF00DF9D9F83030DFEDC67A3B
:1026E80003EB8A0393ED0B0A20EE270A11F0A4FCF2
:1026F80080F30800C0B20AF0FCF8D9F83030DFEDFA
:10270800BF7A03EB8A0393ED0E0A20EE270A11F035
:1027180093FC80F30800C0B20AF1010A0AF0E9F854
:10272800BAF1030FC7D1BAF1070FD9F8303025D164
:1027380093ED110A20EE080A11F07EFC80F30800E0
:10274800C0B20AF0D6F8D9F8303093ED120A20EE6C
:10275800080A11F071FC80F30800C0B20AF0C9F849
:10276800D9F8303093F84C3000EE103AB8EE400A01
:1027780011F062FC80F30800C0B20DE053445878B1
:102788000AF0B7F8D9F830305344D87A0AF0B1F8DB
:10279800D9F830305344587D0AF1010A0AF0A9F8F3
:1027A800BAF10A0FBFD1FFF77EBBD9F830305344D6
:1027B80058780AF09EF8D9F830305344D87A0AF09D
:1027C80098F8D9F8303053440AF1010A587D0AF0D4
:1027D80090F8BAF10A0FE8D1FFF765BB16F8010FB8
:1027E80000283FF460AB0AF084F8F7E701200AF00C
:1027F800C9F8804B1B6B1878B6E296F8A124804B79
:102808000C2101FB0233043693F838000AF071F802
:1028180096F89E040AF06DF896F89F040AF069F895
:1028280096F8A0040AF065F85645E6D1FFF73BBBD9
:102838005A20744E0AF0A6F806F15A0A96F8F604D9
:102848000AF057F896F8F1040AF053F896F8F204EB
:102858000AF04FF896F8F3040AF04BF896F8F404E7
:102868000AF047F8063696F8EF040AF042F856459B
:10287800E4D1FFF718BB4FF0000A01264FF000091A
:10288800614B1B78994534DA604B19F803E04FF037
:10289800000B5B4801900C2300F1300C03FB0BF399
:1028A80013F80CC0F44507D10344586B13F09CFF90
:1028B80084463EB9334607E00BF1010BBBF11D0F0F
:1028C800E7D113E0824411E063450FDA019ACDF8AD
:1028D8000CC00C2000FB0B200293406BC05C0AF07C
:1028E80008F8029BDDF80CC00133EDE709F1010996
:1028F800C6E7002E3FF4D7AA5FFA8AF00AF042F83A
:102908000026BBE7404E30780AF03CF84FF000094B
:10291800B2469AF800309945BFF4C5AA3B4B19F85E
:1029280003E0002136480C2200F1300C02FB01F3D1
:1029380013F80C20724505D1034493F8380009F0C8
:10294800D8FF02E001311D29ECD109F10109E0E7C6
:102958002C4E16200AF016F8B6F846020AF015F8BA
:10296800B6F8D4000AF011F8B6F8D6000AF00DF857
:10297800B6F8D8000AF009F8B6F89E020AF005F889
:10298800002009F0B6FF002009F0B3FF002009F08D
:10299800B0FF96F8230209F0ACFF96F8420209F05E
:1029A800A8FF002009F0A5FFB6F9F0310A2093FB33
:1029B800F0F080B209F0E9FF53E05FFA89F009F11D
:1029C800010909F096FFB9F1090FF6D1FFF76BBAC3
:1029D800082009F0D7FF4FF000090D4B33F8190014
:1029E80009F1010909F0D1FFB9F1040FF5D1FFF799
:1029F8005ABA00BF880C00200000C84200007A4480
:102A08003C6B0108F8220020EC190020ED19002089
:102A1800BC0C00200C2009F0B5FFE14B186809F048
:102A2800BDFFE04B186809F0B9FFDF4B186833E1C8
:102A3800042009F0A7FFDD4B98682DE1DB4E062046
:102A480009F0A0FFB6F8D00109F09FFFB6F8D4014D
:102A580009F09BFFB6F8D80134E1042009F092FF91
:102A6800D24E96F8160209F044FF96F81A0209F0B9
:102A780040FF96F8190209F03CFF96F81B0273E133
:102A8800012009F07FFFC94B58796DE1C74E082036
:102A980009F078FF96F89C0209F02BFF96F89D0242
:102AA80009F027FFB6F89E0209F06FFF96F8A0021A
:102AB80009F01FFFB6F8A20209F067FF96F8A40212
:102AC80052E1DFF80093BA4E99F8000000EB40009D
:102AD800C0B209F057FF4FF0000B99F800309B4542
:102AE80006F10206BFF4DFA916F8020C09F001FF8F
:102AF80016F8010C00EB800000EB800000F2EE20DD
:102B080080B209F042FF0BF1010BE6E7012009F062
:102B180039FFA64B93F8420226E1082009F032FF5C
:102B28004FF00009A14B4B4409F1010993F8380211
:102B380009F0DFFEB9F1080FF4D1FFF7B4B99B4EE5
:102B4800102009F01FFF707909F0D3FEB06809F072
:102B580025FF96F8400209F0CCFEB6F8D00109F03E
:102B680014FFB6F8D40109F010FFB6F8D80109F03F
:102B78000CFFB6F81E0209F008FFB6F82002A1E023
:102B88008C4AD25C904200F0F3800C33302BF7D1A2
:102B980009F10809D1453FF486A999F8A80200234C
:102BA800EEE74020814E09F0EDFE06F1400AB6F846
:102BB800580309F0EAFE96F85A0309F09AFE04361B
:102BC80096F8570309F095FE5645F0D1FFF76BB913
:102BD800E020764E09F0D6FE06F1800AB6F8DA0251
:102BE80000F03F0009F0D1FEB6F8DA02C0F3861013
:102BF80009F0CBFE96F8D802000909F07AFE96F89B
:102C0800D80200F00F0009F074FE043696F8D502D9
:102C180009F06FFE5645E1D1FFF745B90D2009F0DF
:102C2800B1FE03F03BFE644E40F00200C0B209F072
:102C380060FE308809F0B2FEF06809F0AFFE09F0D6
:102C480063FB29E0D145BFF62EA91BF8090009F05E
:102C580050FE09F10109F5E70B2009F093FE002069
:102C680009F047FE002009F044FE002009F041FE6B
:102C78000EE0012009F086FE002075E04F4B13F8A6
:102C8800090009F1010909F034FEB9F10B0FF5D17A
:102C9800002009F083FE002009F080FEFFF703B949
:102CA800424E082009F06EFEB6F8DC0009F06DFE11
:102CB800B6F8DE0009F069FEB6F8E00009F065FE36
:102CC800B6F8E20009F061FEFFF7EDB8374E0320D1
:102CD80009F058FE96F8260209F00BFE96F827022E
:102CE80009F007FE96F828023EE0304E032009F06E
:102CF80049FE96F8CA0109F0FCFD96F8CB0109F0E7
:102D0800F8FD96F8CC012FE040F2A982DB2B00F009
:102D1800978040F22A84F22B00F08F8440F2B78427
:102D2800F32B40F0EE8509F0C5FDFF288246244EBE
:102D380040F02C854FF0000906F144004946602216
:102D480086F8429013F010FD8DF817909DF8173013
:102D580096F8A620DFF868909A4200F2B78401201E
:102D680009F010FE99F8420009F0C3FDFFF79BB87F
:102D780009F0BFFDB9F8AA0209F007FE99F8AC02FC
:102D880009F0B7FD99F8AD0209F0B3FD99F8AF0263
:102D980009F0AFFD99F8AE0209F0ABFDF8E600BF07
:102DA800ACF7FF1FB0F7FF1FB4F7FF1FF822002092
:102DB8004E250020F4280020BC000020678B010865
:102DC800880C0020E42800204E2B3ED109F072FD2B
:102DD8001128824602D90DF011F931E0D44E09F0DC
:102DE80069FD0AF5947A06EB4A03B146987109F031
:102DF8006DFD40F2ED23984205DD40F6CA03984286
:102E0800A8BF184601E040F2EE2009EB4A09A0F2FB
:102E1800EE20192390FBF3F089F8070010E0C0F0CA
:102E28008383D02B00F08B83D22B40F08885C14B55
:102E38001B7803F0040303F0FF09002B00F08B83D9
:102E4800002009F09FFDFFF72EB800F20082352B15
:102E580024D109F02FFD0E288246BCD809F02AFD9E
:102E68000328B8D8B24B4FF0060909FB0A3989F88C
:102E7800F60409F01FFD89F8F10409F01BFD89F833
:102E8800F20409F017FD89F8F30409F013FD89F835
:102E9800F40409F00FFD89F8F504D1E700F2E180A8
:102EA8002B2B04D109F006FDA14B5871C8E76ED849
:102EB800252B07D19E4B00229A6009F011FD06F0E0
:102EC80081FEBDE73ED8232B40F0398509F0F2FC9E
:102ED800132881463FF67FAF09F0ECFC00229649A3
:102EE8000C23534301EB030E9EF838E0864525D1A9
:102EF8008F4E0B4409F5947906EB890993F8303025
:102F080089F8013009F0D6FC89F8020009F0D2FCF2
:102F180089F8030009F0CEFC884B89491A6B89F8B7
:102F2800040006F1D4030B60864B00201A600CF0F5
:102F380029FF854B80F00100187081E701321D2AB6
:102F4800CDD148E7272B0DD109F0C0FC784EC6F843
:102F5800D00109F0BBFCC6F8D40109F0B7FCC6F8EB
:102F6800D8016DE7292B40F0EA8409F0AFFC704ED8
:102F7800A6F81E0209F0AAFCA6F8200209F09AFC9D
:102F880086F8220209F0A2FCA6F8240258E72F2BA3
:102F980000F0BF8425D82D2B40F0D18409F08AFC9D
:102FA800634E86F8400209F091FCA6F84A0209F03F
:102FB8008DFCA6F8460209F089FCA6F8480209F03B
:102FC80079FC2B6886F841025B79082B7FF638AFCD
:102FD80009F07CFCA6F8520209F078FCA6F8540225
:102FE8002EE7312B34D109F065FC1F2881463FF6C6
:102FF800F2AE2B685B79082B7FF4EDAE09F066FC26
:103008004B4E09F1B60906EB890A00F03F00AAF811
:10301800020009F05BFCBAF80230800100F4FE50AF
:103028001843AAF8020009F045FC000106F8290037
:1030380009F040FC16F8293000F00F00184306F894
:10304800290009F037FC8AF8010009F0ABF8F7E627
:10305800332B40F0748409F02DFC354B83F8420281
:10306800EEE6412B0DD14FF0000909F023FC304B5F
:103078004B4409F10109B9F1080F83F83802F4D17A
:10308800DEE670D8392B11D109F014FC284E86F8E9
:10309800160209F00FFC86F81A0209F00BFC86F8F4
:1030A800190209F007FC86F81B02C9E636D8372B47
:1030B80040F0458453794FF00709B3FBF9F2C2EBAE
:1030C800C2029A1A12F0FF0F7FF485AEB3FBF9F92A
:1030D80009F1FF395FFA89F9B9F1FF0F3FF4B0AE92
:1030E80009F0E8FB5FFA80FB4FFA8BF00CF014F95B
:1030F800064600283FF46FAE80F800B009F0E6FB02
:10310800708009F0D7FB307109F0D4FB707109F0B9
:10311800D1FBF07109F0CEFBB071D9E73C2B15D18A
:10312800064B1E6B09F0C6FB307006F073F987E694
:10313800F8220020E02B00203C6B0108880C0020BE
:10314800F40E0020F80E0020020000203E2B40F074
:10315800F68309F0AFFBCE4E86F88D0209F0AAFB84
:1031680086F88C026CE6482B02D103F073FC67E604
:103178002CD8432B22D109F09DFBC54E0023B36008
:10318800707109F0ADFB06F01DFD09F093FB86F8A0
:10319800400209F09BFBC6F8D00109F097FBC6F87E
:1031A800D40109F093FBC6F8D80109F08FFBA6F803
:1031B8001E0209F08BFBA6F8200241E6442B40F0E2
:1031C800BE83B44B012283F8412039E64A2B21D132
:1031D80009F07CFBB04B1B6898423FF431AEB0F568
:1031E8007A7FAB4A39BF00237D2101234FF47A71DE
:1031F800B0FBF1F080B236BF82F8DF3182F8DF3100
:10320800082318B19842A8BF184600E0012082F8A8
:10321800E00115E64C2B40F0928309F04BFB9C4EE5
:1032280086F89C0209F046FB86F89D0209F04EFBE1
:10323800A6F89E0209F03EFB86F8A00209F046FBBC
:10324800A6F8A20209F036FB86F8A402F8E5D32B0B
:103258007FF45AAD09F03AFB8E4BD887F0E5CD2BB9
:1032680009D18E4B1B785B073FF5EAAD8C4B4FF4C9
:10327800C8721A80E4E500F21F81C82B2BD192F89E
:1032880005904FEA5909B9F1120F3FF6A4AD4FF076
:10329800000ACA4507D209F019FB0EAB23F81A0039
:1032A8000AF1010AF5E74A4600234B4507DA0EA959
:1032B80031F813007B4921F813000133F5E7122A8E
:1032C80005D0784B002123F812100132F7E7764B2E
:1032D80001221A70B4E5DFF8BCA115D8512B40F0D3
:1032E8002E839AF84030012B3FF6AAAD09F0E2FA96
:1032F800674E86F84D0509F0DDFA86F84B0509F0AA
:10330800D9FA86F84C059BE5CA2B74D1DAF8303027
:103318001A78022A5DD103F1200B03F12C0909F078
:10332800C9FA07EE900AF8EE677AB2EE048AC7EE99
:10333800887AEBEC017A09F0BDFA07EE900A9FED66
:103348005B7AF8EE677AC7EE877ACBED027A09F0F6
:10335800B1FA07EE900A9FED567AF8EE677ACB45F8
:10336800C7EE877ACBED057AD9D14FF00309B9F1C9
:10337800070FDAF8306018D109F09CFA07EE900AC6
:10338800F8EE677AC7EE887AC6ED117A09F092FAF4
:1033980007EE900AF8EE677AC7EE887AC6ED127AD9
:1033A80009F088FA86F84C000DE009F083FA06EB7C
:1033B800090B8BF8010009F07DFA8BF80B0009F076
:1033C80079FA8BF8150009F10109B9F10A0FCED184
:1033D80036E5994603F10A0A09F06CFA09F8010F73
:1033E80009F068FA89F80A0009F064FAD14589F801
:1033F8001400F1D124E5CC2B40F0A1825379092B9C
:103408007FF6E9AC2B4ED6F800A009F053FA8AF8FB
:103418000000D6F800A009F04DFA8AF8010009F07A
:1034280049FA33686428A8BF6420187109F042FA81
:1034380033686428A8BF6420587109F03BFA3368E0
:10344800FF28A8BFFF20987109F034FAD6F800A029
:10345800642828BF64208AF8070009F02BFA8AF844
:103468000200D6F800A009F025FA8AF80300D6F879
:1034780000A009F02BFA2B68AAF80A005B790A2B3E
:103488007FF6DEAC366809F015FA3072D8E400BF72
:10349800F8220020880C002040130020E02B002098
:1034A800AC0E0020C0180020D52000200000C84223
:1034B80000007A4470170020CF2B7FF4B0AC09F0DD
:1034C80005FA6FF4AF6143189BB2AA4EC62B98BF9A
:1034D800A6F8460209F0FAF9A6F8D40009F0F6F9B8
:1034E800A6F8D60009F0F2F9A6F8D80009F0EEF926
:1034F800A6F89E0209F0DEF909F0DCF909F0DAF91C
:1035080009F0D8F986F8230209F0D4F986F84202BE
:1035180009F0D0F909F0DAF900EB80004000A6F8CC
:10352800F00109F0C7F9B2E5934B1B785E073FF548
:1035380087AC924A137843F00403137080E48E4BEF
:103548001B785A073FF57CAC0AF018FC06F06CFBB8
:1035580006F028FC74E409F0ADF9864B012883F8DD
:10356800A004F3D983F8A094F0E7D62B0CD14FF040
:10357800000909F0ABF9824B23F8190009F1010998
:10358800B9F1080FF5D15BE432D8D42B40F0D781DC
:1035980053790F2B7FF41FAC09F08CF9072882466A
:1035A8003FF619AC09F092F9724B4FF00E0909FB7E
:1035B8000A39A9F8590109F089F9A9F85B0109F054
:1035C80085F9A9F85D0109F075F989F85F0109F035
:1035D80071F989F8600109F06DF989F8610109F05C
:1035E80069F989F8620109F07BF9C9F8630127E4F0
:1035F800D92B11D109F06AF95E4EA6F8DC0009F062
:1036080065F9A6F8DE0009F061F9A6F8E00009F00E
:103618005DF9A6F8E20013E4DA2B40F0908109F096
:1036280049F9544E86F8260209F044F986F827022B
:1036380009F040F986F8280202E409F03BF90F285E
:1036480081463FF6C8AB09F035F94E4BC9EBC909BD
:10365800994489F8010009F02DF989F8020009F068
:1036680029F989F8030009F025F989F8040009F017
:1036780021F989F8050009F01DF989F8060009F013
:1036880019F989F8070005F01BFEFFF7D9BBDC2BF9
:103698000ED109F00FF9374E86F8CA0109F00AF978
:1036A80086F8CB0109F006F986F8CC01FFF7C8BB0C
:1036B800EF2B40F0448109F009F92E4EA6F8F401E9
:1036C80009F004F9A6F8F201FFF7BABB9DF8173024
:1036D80009EBC30393F8A930D90743D59DF81730F0
:1036E80009EBC30393F8A820274B33F91230002BBA
:1036F80038DD9DF8173099F842A009EBC3034FEA6B
:10370800CA01D3F8AC3058689DF8173009EB010EA0
:1037180009EBC309CEF84400D9F8AC301A89AEF8E1
:103728004A2092B24FF0000E012303FA0EF3134021
:1037380005D10EF1010EBEF1100FF5D100E0734670
:1037480031440AF1010AA1F8483004238DF83A30CF
:103758000EA90123ADF838208DF83B3003F09CFF0B
:1037680086F842A09DF817300133DBB28DF8173088
:10377800FFF7ECBAF8220020E02B00209C0F002075
:1037880074170020E02300208415002096F84230AA
:103798009842BFF420AB002009F0F4F809F0BAF819
:1037A800D8F800000BF03AFF2B68186808F0F6F814
:1037B800D9F8000009F05EF80BF0CEFE72B6DFF81B
:1037C8008C9280224026A9F828204FF0010BA9F8F6
:1037D80028604846ADF838200EA904228DF83A2012
:1037E8008DF83BB003F058FF48460EA98DF83AB063
:1037F8008DF83BB0ADF8386003F04EFF924A4FEABF
:10380800CA0A5244516CB2F848E00868B2F84A2033
:103818000EFA0BFE0BFA0EFB4BEA000008608A61F9
:10382800C9F81860B9F810301A06FBD4DFF818B2D6
:10383800DFF840920BEB0A030122586CB3F848E01A
:1038480001684FEA4E0E02FA0EF20A4302605A6C01
:10385800B3F84A107D4B118540221A85D9F80030FB
:10386800B9F804209A6140F605534A46DFF8DCC1EE
:10387800BCF810E01EF0800F03D1002BF6D0013BFE
:10388800F4E78161ADF8381004218DF83A10012170
:103898008DF83B100EA90392CDF808C0019303F0F0
:1038A800FBFE019BDDF808C0039AC3B1D9F80000FC
:1038B800B9F804E065490B8A1B06B7D50BEB0A0378
:1038C8005A6CB3F84A30128A13424FF0400315BFBE
:1038D8008B610B85C0F818E0A0F828E0EAE74023E0
:1038E800CCF81830136892889A6162B60A200BF0F7
:1038F800F6FE0CF05FFA2B68F32283F84920FFF7F5
:103908009FBAFA2B1BD1524B1B7858077FF51EAE76
:1039180015E0DFF8649109F1400A08F0D7FFA9F82B
:10392800580308F0C7FF89F85A0308F0C3FF09F1E4
:10393800040989F85703D145EFD1FFF781BA0CF094
:103948005DFBFEF7B0BA0C2803D1424809F00EF926
:1039580049E00A2801D00D2864D13F4D3F4809F0BD
:1039680005F92846232112F032FF08B1401B2060D8
:1039780023687BB35A1EA95C202901D11346F8E7B6
:10398800354A23600021D154354B364FD3F8009087
:10399800D7F800A0304E504612F026FF05462A46BA
:1039A8003046514612F028FF2F4A20B9735D4B4428
:1039B8005B78580703D010379742E9D306E097425F
:1039C80004D2681CFB683044984702E0274809F095
:1039D800CDF80023204823600021302212F0C4FED5
:1039E800009B1B7853B307F0CBFFFEF795B90C2863
:1039F800ABD07F2804D1FEF78FB92F2B3EF68CA9C8
:103A0800A0F12002D2B25E2A3EF686A913B9202878
:103A18003EF482A95A1C22600F4AD05408F0C7FF0E
:103A2800FEF77AB97F28E8D1013B0B4A104823609A
:103A38000021D15409F09AF8FEF76EB92FB0BDEC09
:103A4800028BBDE8F08F00BF880C002000040048FE
:103A5800E02B0020CE8C01088C1700204F9C010819
:103A68009C030020EC6F0108BC710108D98C010887
:103A7800F58C0108C8190020F82200202DE9F04F24
:103A88009D4C226802F59C432DED028B2033636028
:103A98009A4B1E7885B0C6B1994909688A4240F2A6
:103AA800FF80013E1E70FBE0964F97483B68072D4C
:103AB80098BF595D954B88BF29461B689847032DC9
:103AC80009D904EB45050136288108F0A9FDF5B2AE
:103AD8008542E9D31FE03A6805F1100302EB83033E
:103AE80059889A880028ECD04FF47A73401A5843C2
:103AF800531A90FBF3F040F6C90300F57A70984228
:103B080005DC40F2EE239842B8BF184601E040F6C3
:103B1800CA0080B2D5E77E4B7E4F1B68D7F800807D
:103B280042F2010903EA0909B9FA89F94FEA591970
:103B3800794BB9F1000F05D194F82C201A70774A07
:103B4800517811701E781EB1744B1E7886F00106EC
:103B58000F23DFF8E4A184F82D30002508F060FD7C
:103B6800854264DA4FEA450B1EB16D4B33F81500F8
:103B780000E03046634BDFF8C4E119684B8B8342A1
:103B88004FEA8502674B02D8898B814219D25EF8C9
:103B980002205949904502D233F80B0015E0E8B2EB
:103BA8008DE80A0008F054FD032D019B0DDC0099F7
:103BB800012291F82DE0AA402EEA020281F82D2078
:103BC80003E008F596714EF80210B9F1000F28D1FC
:103BD80094F8C0100322B1FBF2F202EB42028A1AF7
:103BE8000BEB050E5EFA82F204EB4202D08594F8E4
:103BF800C1202AB9022914D93F4A012182F8C110EB
:103C0800BAF800203AF8020C1044BAF8022010441E
:103C1800454A80B222F80B0000B2032290FBF2F072
:103C280080B223F80B0001350AF1060A96E794F8EA
:103C38002D203E4BA2F10F014A424A4184F8DA2076
:103C48006AB13B4A1268920109D43A68D9689A6005
:103C5800521AC82A1FD9012283F821201BE02F4AB3
:103C68000121517011703A689968DA605B68521ADC
:103C78009A4282BF2D4B002283F82120002508F0AC
:103C8800CFFC854207DAE8B208F0E2FC254B23F8BE
:103C980015000135F3E794F8C030013384F8C030DB
:103CA8001B4E3368DF0405D5214B1B68DD0701D4A3
:103CB8000CF060FB134B104F1A682168937A002BA5
:103CC8003ED0013B1748127B30F813301AB1C3F5C8
:103CD8003B6308339BB21BB2A3F57A73B3F57A7FC3
:103CE800A8BF4FF47A7323EAE37307EE903A9FED87
:103CF800117AF8EEE77A5AE09C0D00209819002016
:103D0800941900208C190020E4280020300300209A
:103D1800901900209C190020C811002000000020E4
:103D2800A40D0020AC2200205E0E0020A019002067
:103D3800E819002000007A44CC0D0020140E002061
:103D4800306800043FD5D7F8DC00081A00283ADBB1
:103D580001F59C402030C7F8DC00AC484579AC48F8
:103D680030F81550A8B2D57A90FBF5F597F8E00031
:103D7800013000F00F0287F8E0203A4482F8E15061
:103D88001A46A448185C01330244102B92B2F8D1A9
:103D980012B292FBF3F31BB2642BA8BF642323EA8D
:103DA800E37307EE903A9FED9C7AF8EEE77AC7EE58
:103DB800877A9A4A9FED9A7A67EE877AFCEEE77AD5
:103DC80017EE903A13803368964D13F4807F00F015
:103DD800FF80954BDFF85492994205D999F8022053
:103DE80012B9012289F8022099F80220002A00F06D
:103DF800EF808E4A95F8008092F821708C4A07F17E
:103E0800FF3EDEF10007116847EB0E07002FC1F3F4
:103E18004063C8F380080093924614BF4FF0000B2C
:103E28004FF0030B99F82020052A00F2CB80DFE839
:103E380002F0034C608695B2B8F1000F38D0D4F880
:103E4800F400B4F8F8100BF043FB012809D17949C4
:103E5800794A09681268C988642000FB0122C9F8F8
:103E68001020009B5BB1734A126812793AB10CF0CA
:103E780049FE032289F820204FF47A7236E0002F99
:103E880040F0A0806C4AD9F810101068674A884240
:103E98000AD901920CF036FE019A032182F820100B
:103EA80040F6B831D161BDE7012182F82010B9E7A9
:103EB800009B4FF4806013B105F06CFE01E005F043
:103EC80059FE0022C9F810207CE0002F58D1594A29
:103ED8001268127A012A02D00CF014FEA2E70CF044
:103EE80011FE032289F8202040F6B832C9F81C20B8
:103EF80098E727B1052289F82020012000E03846FC
:103F0800B8F1000F0CD0D4F8F420D1894B4A1180B5
:103F180051809180474909684988D1804FF0020B48
:103F2800454A1168D9F81420914202D8B8F1000F17
:103F380045D147F23052C9F81C20032221E02A78E3
:103F480042F002022A700CF015FA3B4AD9F81C100C
:103F580012680A44C9F81820042212E0364A9FB1B0
:103F68001168D9F8182091422CD9354A92781AB993
:103F7800DAF80020D00725D42A7822F002022A7025
:103F8800052289F820204DE71268D9F81C100A4448
:103F9800C9F8182016E02749274A09681268C9880D
:103FA800642000FB0122C9F810204FF48060002231
:103FB80089F8202089F8032005F0DCFD32E7002885
:103FC8007FF430AFBBF1000F02D058460BF0D8FA9F
:103FD8001C4FB7F8E21007F50E700BF079FA174A84
:103FE800B7F84632B2F90210824603F10B00884254
:103FF800904629DB0B3B8B4226DCB2F90010884245
:1040080022DB8B42CCBF002301231EE0DC10002002
:10401800EC1000207D0E00200000C8429A0F0020FE
:1040280000C07F44E02B0020404B4C00A01900202A
:10403800E8190020BC2B00209C190020AC2200208D
:1040480000000020F82200200023BAF1000F30D130
:104058009D490968490106D59C49C97899B92978C3
:104068004A0710D528E09A4B9A48002119605960F0
:104078009960994BC0F800A00121C0F804A0C0F8CD
:1040880008A019700BE09249924A00200860486025
:104098008860914900231360536093600B708F4BC5
:1040A8000021196059600023C4F8FC30C4F80031BD
:1040B80004E0894900230B7089490B702B78580755
:1040C80035D53368D90632D5864B1B78DA062ED417
:1040D800854B9B7893B197F88D32BAF1000F15D1C3
:1040E8007BB1824B1968D4F804315B1A002B08DACB
:1040F8000CF040F97E4B83F808A118E0BAF1000FE4
:104108000DD110200BF03CFA01230EE03BB17749AA
:1041180009684FF47A7000FB0313C4F8043194F86B
:10412800083123B10BF018FA002384F8083197F806
:104138008B3297F88C02B7F848C2B7F84A920093C6
:1041480000210B4638F911E09B08E645C4BF63F02F
:104158007F03DBB20131CE45B8BF43F040030429E9
:10416800F0D194F80911624A994205D192F80A11DE
:10417800F92904D8013100E0002182F80A1184F8F5
:104188000931594B5A499A78DFF83C919B4632BB22
:10419800D9F80030DB070AD581F80B21BAF1000FF6
:1041A8001DD12B78DA071AD50BF04AFF17E02B78C8
:1041B8005B0714D54F4B1B788BB1444BDB7873B935
:1041C80091F80B310133DBB2032B81F80B3106D99F
:1041D80010B10CF0CFF802E0BAF1000FF9D094F862
:1041E8000A31434A142B40F09980009B13F1000ACE
:1041F8009BF8023018BF4FF0010A6BB392F80931EF
:104208005F2B11D12B7803F0040303F0FF0113B1E6
:104218000CF0B0F808E00B20019100920BF0B0F917
:10422800009A019982F80A11BAF1000F14D094F893
:1042380009317D2B10D12B7803F0040303F0FF0222
:1042480013B10CF097F807E00B2000920BF098F9E7
:10425800274B009A83F80A212B7803F0040303F014
:10426800FF01002B5AD194F80931214A572B04D168
:10427800214B4FF47A721A8050E03068400717D506
:104288005A2B15D192F80C312BB1012382F80C115D
:1042980082F80D3142E092F80E3183F0010382F882
:1042A8000E310BB10C2000E00D200BF069F935E060
:1042B8005D2B00F028845B2B00F027845E2B1DD13A
:1042C800032000F023BC00BFE8190020A01900203B
:1042D800E4140020D41300202214002070150020BC
:1042E800FF1300209C0F0020000000209C190020D4
:1042F8009C0D0020C8110020D82B0020562B01D17E
:1043080005F0DAFE9BF80230002B00F0148494F8D4
:1043180009316F2B40F009840BF092FE33685A077D
:1043280037D594F80E31B04A93B12B785B070FD587
:10433800B8F90610B7F84832994209DDD9F80030C3
:1043480013F0010302BF3221A2F8201182F80E31C6
:10435800D9F80030D8030DD594F82221A24B2AB9F8
:1043680093F80C2112B93222A3F82021012384F8F2
:1043780022310EE094F80C319B4A53B12B7803F0AC
:10438800040303F0FF0123B9012382F80C1182F81A
:104398000D31964D0023C9F8003005F150072A78F1
:1043A8006B7815F8010C9A420DD229460BF056F895
:1043B80048B115F8022C012303FA02F2D9F80030AB
:1043C8001343C9F800300435BD42E8D1884B1B7847
:1043D8002BB1884F3B68990700F137832FE3864D4F
:1043E80005F15A072A786B7815F8010C9A4225D2FC
:1043F80029460BF033F808B3AB78804A95F804E007
:1044080095F803807849013B03EB430313440C22DE
:1044180002FB0E42D2F8280198420FD0C2F8283188
:104428000023C2F82C3182F82481012391F8542109
:1044380003FA0EF322EA030381F854310635BD422C
:10444800D0D16F4BDFF8CCA11D686E4B1B68009371
:104458006D4B1B7801934FF00009DAF80020002A11
:1044680000F0E48292F80080B8F1000F00F0DE82DC
:10447800DAF804300099CB1A002B0CDB01F5FA733B
:10448800CAF8043094F85411012303FA09F321EA15
:10449800030384F85431019B002B00F0C7821AF8FB
:1044A800043C51780433DBB2002940F07882574944
:1044B80031F91310564BB3F8463203F1C800814264
:1044C80002DD92F802B015E0C83B994203DA917810
:1044D800C1F1000B0EE094F85421012303FA09F30B
:1044E80022EA030384F85431009B03F5FA73CAF8EF
:1044F80004309BE294F8543143FA09F3DA0700F1E7
:104508009582BBF1000FCCBF022001200BF06EF8A2
:1045180008F1FF33344F132B00F28082DFE813F0E9
:10452800140021002F0043005C008200E5004801D0
:10453800AF01DD010D027E02430052008200E5005A
:104548004801B7001A017F012F785F44FA2FA8BFEE
:10455800FA2727EAE77728462F700AF065FF012037
:104568000BE06F785F44642FA8BF642727EAE777DA
:1045780028466F700AF058FF02203946DAE195F8AC
:104588000380D844B8F1640FA8BF4FF0640828EA44
:10459800E87885F803802846D7F858110AF0FAFE1B
:1045A80003204146C6E1697959446429A8BF6421BA
:1045B80021EAE17169710D200AF0BAFFB8F10D0F17
:1045C80000F02C82297959446429A8BF642121EA82
:1045D800E17129710E20ADE1A979594481F30801EF
:1045E800A9710520A6E100BF9C0D00209B27002093
:1045F800DF2B0020E8190020EA270020C86C0108FA
:10460800701700209C190020C8110020AC2200203F
:10461800F8220020C40E002000007A440000C8429E
:1046280000000000D7F85C311A78022A20D107EE82
:1046380090BAB8EEE70A5FED077A93ED097A80EE53
:10464800270A30EE070AB5EEC00AF1EE10FA07D4D1
:10465800B4EE670AF1EE10FAC8BFB0EE670A01E0DF
:104668001FED110A83ED090A0F200AF04BFF0AE03B
:1046780099785944C829A8BFC82121EAE1719970DD
:104688000F200AF055FFB8F10F0F00F0C781D7F8D7
:104698005C311A78022A1ED107EE90BAB8EEE78A82
:1046A8005FED227A93ED080A88EE278A38EE000A31
:1046B800B5EEC00AF1EE10FA07D4B4EE670AF1EECF
:1046C80010FAC8BFB0EE670A01E01FED2B0A83EDB0
:1046D800080A122056E159785944C829A8BFC821A8
:1046E80021EAE1715970122024E1D7F85C311A7877
:1046F800022A20D107EE90BAB8EEE70A5FED397AC0
:1047080093ED0C7A80EE270A30EE070AB5EEC00A60
:10471800F1EE10FA07D4B4EE670AF1EE10FAC8BF4A
:10472800B0EE670A01E01FED420A83ED0C0A102083
:104738000AF0E8FE0AE0197B5944C829A8BFC82135
:1047480021EAE171197310200AF0F2FEB8F1100F96
:1047580000F06481D7F85C311A78022A1ED107EE7E
:1047680090BAB8EEE78A5FED537A93ED0B0A88EEBC
:10477800278A38EE000AB5EEC00AF1EE10FA07D41F
:10478800B4EE670AF1EE10FAC8BFB0EE670A01E0AE
:104798001FED5D0A83ED0B0A1320F3E0D97A594423
:1047A800C829A8BFC82121EAE171D9721320C1E044
:1047B800D7F85C311A78022A22D107EE90BA1FED99
:1047C8006A0AF8EEE77A87EE800AD3ED0F7A30EEC0
:1047D800270AB5EEC00AF1EE10FA09D45FED717A36
:1047E800B4EE670AF1EE10FAC8BFB0EE670A01E04E
:1047F8001FED750A83ED0F0A11200AF083FE0AE007
:10480800997D5944C829A8BFC82121EAE171997541
:1048180011200AF08DFEB8F1110F00F0FF80D7F8D3
:104828005C311A78022A20D107EE90BA1FED860A69
:10483800B8EEE78A88EE008A93ED0E0A38EE000A91
:10484800B5EEC00AF1EE10FA09D45FED8C7AB4EE39
:10485800670AF1EE10FAC8BFB0EE670A01E01FED73
:10486800900A83ED0E0A14208CE0597D5944C8291A
:10487800A8BFC82121EAE171597514205AE0D7F878
:104888005C311A78022A1ED107EE90BAB8EEE78A90
:104898005FED9E7A93ED0A0A88EE278A38EE000AC1
:1048A800B5EEC00AF1EE10FA07D4B4EE670AF1EEDD
:1048B80010FAC8BFB0EE670A01E01FEDA70A83ED42
:1048C8000A0A09205EE0D9785944C829A8BFC82136
:1048D80021EAE171D97009202CE0D7F85C311A7807
:1048E800022A1ED107EE90BAB8EEE78A5FEDB57AD4
:1048F80093ED0D0A88EE278A38EE000AB5EEC00A55
:10490800F1EE10FA07D4B4EE670AF1EE10FAC8BF58
:10491800B0EE670A01E01FEDBE0A83ED0D0A0A201A
:1049280030E0597B5944C829A8BFC82121EAE17160
:1049380059730A200AF0FCFD70E0D7F85C311A7848
:10494800022A22D107EE90BA1FEDCD0AB8EEE78A07
:1049580088EE008A93ED100A38EE000AB5EEC00A18
:10496800F1EE10FA09D45FEDD37AB4EE670AF1EEEE
:1049780010FAC8BFB0EE670A01E01FEDD70A83ED51
:10498800100A0B200AF0BEFD48E0D97D5944C82919
:10499800A8BFC82121EAE171D9750B20CAE701290E
:1049A8003CD190788D4A32F91370B7F5617F05DBF9
:1049B80040F633039F42A8BF1F4601E04FF46177DA
:1049C800B8F10C0F2AD1864A4FF4966393FBF0F0A6
:1049D8001378A7F5617797FBF0F7FFB2BB421DD0BC
:1049E8008049042F34BF3B46022391F8A00413707A
:1049F80084224243881880F8F43308FB03230B44CD
:104A0800794A03F2F633136005F0A8F940463946AF
:104A18000AF08EFD781CC0B20AF0E8FD94F8542123
:104A2800012303FA09F3134384F8543109F1010906
:104A3800B9F1040F0AF10C0A7FF40FADC9E4336829
:104A4800DB050FD5694BDB7863B1694B1B689D07A4
:104A580008D5684B1B8813F0010508D1012005F023
:104A680099F804E0012005F085F8012300E000230F
:104A78003A6850070BD553B1012005F07BF85D4B20
:104A88001B88990706D4022005F084F802E002206A
:104A980005F070F83B681A054FF4807002D505F0F0
:104AA80079F801E005F066F84E4B5A79082A1D4658
:104AB80001D00E2A02D1402005F05CF833685B056E
:104AC80019D595F8C83223B94B4B1B7813F0040F4E
:104AD80002E03B6813F4002F09D0484B00221A70FB
:104AE8003C200BF057FA30B107F0C4FEF8E706F0A7
:104AF8009FFF0BF05FF9012384F8603105B0BDEC2E
:104B0800028BBDE8F08F012000E002205FFA80FAF6
:104B18000AF1FF3387F8A03405F086F805F042F96A
:104B280050460AF063FDFFF7F9BBBAF1000F02D057
:104B38007E2B3FF4F1AB94F80931314A972B05D11C
:104B48004FF4C873A2F81031FFF7E8BBA72B06D1C2
:104B58002C4A137843F004031370FFF7DFBB0021DE
:104B6800BB2B039101D1022303E0B72B04D14FF6ED
:104B7800FE73ADF80E301CE0BE2B01D1022303E01A
:104B8800BD2B04D14FF6FE73ADF80C3011E0792B34
:104B980004D192F8173123F0010306E07A2B7FF451
:104BA800BDAB92F8173143F0010382F81731FFF7D4
:104BB800B5BBBDF80C20B7F8F2311344A7F8F231B1
:104BC800BDF80E20B7F8F4311344A7F8F43105F016
:104BD80073FA002384F80A31FFF7A0BBAC22002047
:104BE8001C1A0020F822002070170020A0190020AD
:104BF800201A0020E4190020E02B0020F0280020D3
:104C08009C0D00209C0F00202DE9F04F85B006F088
:104C18000FFF894B1F78002F40F07E85874D2B684A
:104C28005C0540F17985864B864CB3F8E2802378A1
:104C3800854E002B00F0798132686368D31A7C2B8B
:104C480040F27381237A62600133237207F12400F2
:104C5800DFF8F091C0B203F0CDFC09F10C0353F872
:104C6800273007EE903A794B1B88B8EEE77A07EEC3
:104C7800903AF8EEE77A0137C7EE277A9FED747A13
:104C880067EE877AFDEEE77ACDED007ABDF9000090
:104C980003F09EFC032FD9D1302003F0ABFC002099
:104CA80003F096FC03F09FFC99F8087017F00307CF
:104CB80024D1D9F8042041F288339A420BD9102024
:104CC80003F098FC384603F083FC212003F092FCA3
:104CD800384603F07DFC142003F08CFC5D4BB3F9DF
:104CE80004000A2390FBF3F003F072FC1C2003F08D
:104CF80081FC002003F06CFC03F075FC237A580754
:104D080040F0EF80022003F075FC4E4BB3F9180019
:104D18000A2390FBF3F003F05BFC4F4B0320B3F93D
:104D2800067003F067FC4D4B1B7859074FF00509D7
:104D380097FBF9F7BFB20BD5494841460AF0C8FBC3
:104D480020B92B6813F0100F18BF002738B205E000
:104D5800444B1B68D889B0FBF9F000B203F038FC6B
:104D68002B689A0740F18B80DFF800A1B4F81A800D
:104D78003D4F9AF800303A884FEA08184FF0640916
:104D88001FFA88F809FB02325B00B2FBF3F348EA2A
:104D980003281FFA88F8C3F3032348EA0308062008
:104DA80003F028FC0FFA88F003F012FC638B9AF8E2
:104DB800001001339BB293FBF1F201FB12336383C2
:104DC800E3699B7B012B05D1392003F013FCB7F96C
:104DD80000001BE03F886E233A205F434FF0150820
:104DE80003F008FC97FBF8F71FFA87F8B8FBF9F708
:104DF80038B203F0EDFB09FB17873B2003F0FAFB01
:104E0800B8B2471D0A2097FBF0F000B203F0E0FBB0
:104E1800282003F0EFFB236A0A2093FBF0F000B28E
:104E280003F0D6FB042003F0E5FB0E4B1B68DB897F
:104E3800F3B101F07FFA1FE0DF2B0020901900206A
:104E4800F8220020000F00209C19002004000020F8
:104E580000007A44E8130020E0130020E02B002033
:104E680030250020D41000201C11002098030020B9
:104E7800C64B186880F3100000B203F0A9FB03A921
:104E8800C34803F07BFB132003F0B4FBBDF90C000F
:104E980003F09EFB1B2003F0ADFBBDF90E0003F0F1
:104EA80097FB232003F0A6FB4E2003F091FB03A9F8
:104EB800B74803F063FB122003F09CFBBDF90C001C
:104EC80003F086FB1A2003F095FBBDF90E0003F0F2
:104ED8007FFB222003F08EFB452003F079FB03F0D3
:104EE80082FB237A282B20D1AA4B306800221A7221
:104EF8004FF03C094FF47A73B0FBF3F8172003F036
:104F080079FBB8FBF9F7B7FBF9F009FB1070000261
:104F180000B203F05DFB182003F06CFB09FB17805F
:104F280000B203F055FB03F05EFB94F82430994F70
:104F3800002B00F0B5800AF0ABFBBB6A964AC31A97
:104F4800934280463CD9002387F82E3087F83030CA
:104F5800924B1B88DAB21B0A87F84A2087F84B3035
:104F680087F8402087F84130BA6D33689A1AFB6D8C
:104F7800D97B4FF47A734B439A420DD3884B1B6805
:104F8800BB65884B1B78013B012B9FBF102387F81B
:104F98002E30022387F830307C4B226A1B68C4F815
:104FA80028800A2192FBF1F293FBF1F384F8482060
:104FB80084F84C3012121B1284F8492084F84D30C2
:104FC80094F860A0734FBAF1000F0ED1B86E04F0D8
:104FD800C2F8012809D90228DFF8D09100F07083BF
:104FE80003F0BEFA012389F80230E76E694B002FFF
:104FF80056D093F860203AB15A6F40F6B731C2EBF9
:1050080008028A4214D84BE0012283F860209A6F84
:10501800986E1278022A04D80430022103F08AFA22
:1050280002E0022104F08EF8002384F87C3035E099
:1050380093F8702092B9DA6683F860209A6F986EB8
:105048001278022A04D80430012103F073FA02E02E
:10505800012104F077F803F083FA1FE0013AD2B295
:1050680083F8702093F87C1093F87D003AB90130EA
:105078004A1C83F87D0083F87C20986E0CE03A4641
:10508800013012F801EB83F87D000EEB0107986EF2
:1050980083F87C70DA66714604F060F8C4F87480AE
:1050A80094F87E2037683B4B002A00F03881D3F80B
:1050B8008020002A00F0338193F88430013B012BD3
:1050C80000F22D81D4F88000DFF8C88004F043F89E
:1050D800E0B1D8F8800004F03BF898F88530D6F8AD
:1050E80000A07E2B81460ED102231B2888F884302D
:1050F80009D1D8F8800004F02EF820B90123C8F8A7
:1051080088A088F88C3084F88590DBE7D8F8882068
:1051180033689B1A41F65832934226D9032388F8FC
:105128008430FCE0204A32F8130010B903464FF4EB
:1051380003600133B0F5826FDBB200F0DB8000F270
:105148008880B0F5007F33D184F88D302B68DFF884
:105158004480190509D5D8F820300A2193FBF1F1CC
:1051680003F0B4F9002388F88C3094F88C1094F884
:105178008D30002900F0D1803268D21B012AD1D9A4
:1051880084F88D30002384F88C30C8E0D8100020D3
:1051980080969800000F00203F0D03001C1100208E
:1051A8009C1900201D1A0020228E010804000020EE
:1051B80006D8B0F5807F75D0B0F5887F72D0D8E773
:1051C800B0F5047F63D0B0F5806FD2D184F88D300C
:1051D80094F88E30B04A0133DBB2032B88BF012329
:1051E80082F88E3094F88E1042F210735943AB4B0C
:1051F8001B78D80748BF01319A0748BF02315B07BF
:10520800A74B1B8848BF0431D80748BF0A319A0703
:1052180048BF1431180648BF2831DA0548BF28317D
:10522800580748BF64311A0748BFC831980548BFB6
:1052380001F5C8719A0648BF01F57A71D80648BFCA
:1052480001F5FA615A0648BF01F57A614FF48060AA
:1052580030E0B0F5E26F3DD009D8B0F5C06F30D07E
:10526800B0F5E06F85D184F88D30E16839E0B0F5AC
:10527800E46F33D0B0F5046F7FF47BAF84F88D30E2
:10528800884BB3F9041001EB810149002CE084F844
:105298008D302B689B077FF568AF834B1B880A21ED
:1052A800594307E084F88D30804B1B685A077FF517
:1052B8005CAF002103F00AF9774B002283F88C20B9
:1052C80053E784F88D302B681B057FF54EAF784B7C
:1052D8001968EFE784F88D30216902E0616984F884
:1052E8008D302C2391FBF3F103F0F0F8002384F8C0
:1052F8008C303AE784F88D306C4B1B6813F020082B
:105308007FF433AF2B681B067FF52FAF414603F0C0
:10531800DDF8614B83F88C8027E784F88D3094F8AA
:105328008F305D4D002B00F09E80D5F89030002B1B
:1053380000F099803668D5F89430F31A632B40F260
:105348009280DFF86081412003F0A7F80A27B8F9B6
:10535800020090FBF7F080B203F096F8B8F900006D
:1053680090FBF7F080B203F08FF8B8F9040090FBD7
:10537800F7F080B203F088F803F06CF895F89850CD
:1053880015F001054AD1464B1B88D90518D4DA0611
:105398000DD49F060DD458060DD419070DD4DA077D
:1053A8000DD413F0020F14BF0325012508E00D25C5
:1053B80006E0092504E0042502E0082500E00225AE
:1053C800364B1F783B4BDB78C7F3800713B147F0A8
:1053D8000207FFB2532003F060F8334B188800EB44
:1053E800800000EB8000800080B203F04DF80020C0
:1053F80003F04AF8B4F89A00FE23584340F2FF330A
:1054080090FBF3F0C0B203F02FF8002003F02CF863
:1054180047EA850003F028F803F01CF894F8983060
:10542800A3B94F2003F039F80AF090FC0AF08EFC7B
:105438000AF08CFC012003F017F8174B93F89C0036
:1054480000F0010003F010F803F004F894F8983025
:10545800C4F894600133DBB20A21B3FBF1F201FB1B
:10546800123384F89830144D95F80080B8F1020F83
:10547800A94640F00D810AF00BF9104B1F6840F661
:10548800B833C71B9F421BD900232B70B4F89E303A
:105498000133A4F89E303FE1000F0020E02B0020EC
:1054A800E4190020E81300201C110020201A002015
:1054B800D8100020A01900200F100020481000204C
:1054C800974D2B793A2B40F0F7802846A97800F0C1
:1054D800A1FF002840F0F080924B934E1B88F361A7
:1054E800236AF362914BD4F8A0A01B68F364B4F864
:1054F8009E30F063F766F365504607F02EFDDFF83F
:1055080044B20746002840F0C3805046414603F0A5
:1055180019FE042386F874309BF8A43095F803A08C
:10552800DFF81C82642B4BD19BF8A530072B08BFF2
:105538008BF8A57094F8A55006EB051303F1040B3E
:1055480059680191084611F04FF9DBF804300093CF
:10555800C7B2184611F048F95FFA80FB07EB0B0257
:10556800083288F8072025F00F0288F80A2005F08D
:105578000F0288F80D200BEBC70288F80E2001995E
:105588006B483A4611F0E7F8009B07F10900694FAC
:1055980019465A46384411F0DEF898F807B05846CC
:1055A8000AF0B8FB7A1C02F80B0050460AF092FB8E
:1055B800002384F8A4306B1C84F8A53000234FE046
:1055C80096F875505C4A2B0704BF0135EDB2072DDC
:1055D8004FF0000328BF012588F80A301746280134
:1055E800311802F1010E0B7CC96840EA030C82F8FD
:1055F80000C0DFF854C11CF80320012A0EF1010392
:1056080006D9013A03F8011C9E46090AD2B2F4E70A
:1056180030440135407C21F06001EDB20143082D92
:105628001A468EF8001009D03F4800EB0510D91B28
:10563800007C1CF8000001441329D0DDDF1B06376D
:10564800FFB247F0400388F8073038460AF062FB9B
:105658003A4B86F87550D85550460AF03BFBADE7F3
:1056680098F802205D1CDBB29A4207D9344AD4F874
:10567800A000D15C03F072FD2B46F1E794F8A4304A
:105688000322013386F8742084F8A43089F80020B6
:10569800254D95F87430032B3ED1D4F8A00003F0C3
:1056A80054FD002838D0274B0121D3F8A00003F07F
:1056B80049FD022385F87430002389F800302BE077
:1056C80099F8023023B1C7F8648089F802A08CE405
:1056D8007B6EC3EB0803B3F57A6FFFF486AC012346
:1056E800B86E89F8023003F033FD8146B86E03F0D6
:1056F8002FFD19F07F0F7FF478AC8E287FF475ACFE
:1057080097F86030002B7FF470AC07F12C03FB6630
:105718002D2387F8703068E405B0BDE8F08F00BF2E
:105728003C1000201C11002004000020D81000208C
:10573800DF220020D6220020DD220020D7220020F0
:10574800D0220020000F0020918E010810B5214AB8
:1057580018B9136802221A8210BD1F481468002362
:105768000380217811F07F0102460DD1637A9906F2
:1057780044BF0221017013F0400F037814BF43F0B7
:10578800010323F0010315E0012921D002291ED1CC
:10579800637913F0800F03F00F034FEA830303F1DB
:1057A800804303F5B8431B6806D003F03003102B81
:1057B80007D10123137004E003F44053B3F5805F6D
:1057C800F6E7064B1B681B699847034810BD184647
:1057D80010BD00BFA8220020A80F002038200020FC
:1057E80010B5064C18B9236801221A8210BD044B63
:1057F8001B689B68984720680C3010BDA8220020C1
:105808003820002010B5064C18B9236801221A82E6
:1058180010BD044B1B681B68984720680A3010BDF0
:10582800A82200203820002003788B4283BF034B36
:1058380003EB410148880020704700BFA80F0020F3
:10584800024B03EB8101888C704700BFA80F002032
:1058580003788B4283BF034B03EB4101B1F844004B
:1058680000207047A80F002038B5374C054609F0CE
:105878000FFFE36DE065C31AB3F57A7F2366C1BFF6
:10588800002384F8643084F8663084F8673094F82C
:105898006430C4BF282284F865202B4A7BB93D2D8B
:1058A80007D03E2D4ED1012182F8661002F16C011D
:1058B80004E0012182F8671002F194019166A16E5B
:1058C800214ACD540133DBB2062B84F864301CD155
:1058D80092F86630012B02D18B78282B07D994F8DF
:1058E8006730012B06D18B78092B03D8164A82F82A
:1058F800653038BD0023282284F8643084F8652098
:1059080084F8663084F8673038BD92F8651099429B
:1059180018D192F866300C4D012B04BF022382F88F
:10592800663094F86730012B06D1022385F867307A
:1059380009F0AEFEC5F8A000002384F864302823DF
:1059480084F8653038BD00BFA80F002010B50446A4
:1059580009F09EFE0F4BD3F8A420C3F8A400821AC6
:1059680040F6B8318A4284BF002283F8A82093F811
:10597800A8200AB9202C0CD113441F2A054983F802
:10598800A94003D1012381F8C93010BD013281F843
:10599800A82010BDA80F002070B5354C054609F0A9
:1059A80077FED4F8CC30C4F8CC00C31AB3F5FA5F4C
:1059B800C4F8D03082BF002384F8D43084F8D530BE
:1059C80094F8D4302BB9A12D02BF294A012182F8BD
:1059D800D51094F8D510264A31B1D118EDB201335B
:1059E80081F8D65082F8D43094F8D45094F8F7302F
:1059F800AB423CD11E4B93F8F830052B02D0062B56
:105A080003D02FE0002006F0BFFD94F8D7301E2BFE
:105A180028D100200246C1B26B1E99421ADA2144ED
:105A280091F8D6300821DBB283EA0206F60744BFB4
:105A380083F01803C3F3460301F1FF3154BF5B0839
:105A480043F0800311F0FF01C2F34702ECD10130AB
:105A58001A46E0E7234493F8D6309A4202D103204D
:105A680006F092FD002384F8D53084F8D43070BD58
:105A7800A80F002008B50C4B002093F82C1007F055
:105A880087FD0A4B1B68187A082801BF084B4FF49A
:105A980080521A80074B04BF10221A80A0F1090314
:105AA8005842584108BD00BF50030020A8220020DA
:105AB80034200020362000202DE9F843324F3D687D
:105AC8002A8A2E7AB2B9042E14D1304C3048237861
