:020000040800F2
:1000000000A000208D2C0108CDDD0008911A010808
:10001000CBDD0008C9DD0008C7DD000800000000D6
:10002000000000000000000000000000C5DD000826
:10003000C3DD000800000000C1DD000813BC00089B
:10004000F52C0108F52C0108F52C0108F52C010808
:10005000F52C0108F52C0108F52C0108F52C0108F8
:10006000F52C0108F52C0108F52C0108F52C0108E8
:100070009DBB000889BB0008BFCD0008F52C010816
:1000800075BB000861BB0008F52C0108F52C0108C0
:10009000ADDE0008F52C0108F52C0108F52C01084F
:1000A000C5F50008F1F50008B5F5000801F60008EF
:1000B000E5F50008D5F50008F52C0108F52C010838
:1000C000F52C0108F52C0108F52C0108F52C010888
:1000D000F52C0108BDF70008B1F70008A5F70008E6
:1000E00021BC0008F52C0108191E0108F52C010897
:1000F000F52C0108F52C0108F52C0108F52C010858
:10010000000000000000000000000000F52C0108C5
:10011000F52C0108F52C0108F52C0108F52C010837
:10012000F52C0108F52C0108F52C0108F52C010827
:10013000F52C0108F52C010800000000000000006B
:10014000F52C0108F52C0108F52C01080000000031
:10015000000000000000000000000000000000009F
:100160000000000000000000F52C0108F52C01083B
:10017000F52C010800000000000000000000000055
:0801800000000000F52C01084D
:100188002DE9F04F9C4BDDB01E780293002E00F055
:10019800DE809A4B1868002801F0BB870BF0C2FC80
:1001A800974C20680BF00DFE002801F0B2872068FC
:1001B800944C0BF003FE092801D03F2849D14FF099
:1001C80000082768904D46462FB1904829683A465E
:1001D80014F0CEFE10B9A84606B92E468C4B103541
:1001E8009D42F1D3C6B1D6F800E0D8F800C0236824
:1001F8001EF803501CF80300A8420DD15A1C83496D
:1002080038B92D2B05D87F4D2A602025CD54885428
:1002180002E0CD542260EAE723680BB146450FD0CF
:100228007C4810F0C9FF464507D856F8100B10F067
:10023800C3FF092010F04EFEF5E70AF0FDFE002787
:1002480023689F42ACD2714BD85D10F043FE013752
:10025800F6E72368002B41F0E186042841F0328755
:100268006A4808F0EFFE01F054BF2068DFF8C48147
:100278000BF0A7FD002850D0D8F800000BF09EFD29
:10028800DAF8003093F848208346002A79D12428E8
:1002980040F0D880012283F84820DAF8002092F84C
:1002A80048000628E1D192F849304D2B00F08085AE
:1002B80000F2C581322B00F09D8500F26081242B6D
:1002C80000F02D8500F21481032B00F0648240F2C7
:1002D800EE80052B40F000811A200EF00BFF002461
:1002E8004D4B185D01340EF0C0FE0B2CF8D10024E4
:1002F8004A4B185D01340EF0B8FE082CF8D10024E2
:10030800474B185D01340EF0B0FE072CF8D10EF003
:10031800BDFE3B68002283F84820424CD9F8000013
:100328000BF000FC94F834306BB13F4B985906F051
:10033800FBFE0BF0BDFD0DF021FC002384F83430EA
:100348003A4B3B4ADA604C36982E01F0E286364A40
:10035800354BB258F318002AF5D0364C364F226088
:100368001592DFF8DC903B60002214AB334D8DF81A
:100378005920142214958DF85820C9F80030BA462F
:1003880073E7012A04D14D2814BF0022022282E714
:10039800022A04D13C2814BF002203227BE7032A47
:1003A8000AD140284FF000029FBF1A71DA715871C4
:1003B800987198BF04226EE7042A08D19A7983F8C5
:1003C800490080EA020B83F806B0052263E7052A94
:1003D8007FF463AF59791A799142997906D94140E6
:1003E8009971511C19711344187256E781420CBF58
:1003F800062200224FE700BFDB2B00209C290020AB
:10040800B8290020501500202C870108201500204D
:100418001C890108128A01087A8A0108868A01085B
:100428008F8A0108640900209428002000ED00E06C
:100438000400FA05442100203C210020D7BD000813
:1004480040210020DA4A137803F0040303F0FF0088
:10045800002B7FF422AFBBF1230FD8F8001019D17D
:100468000192029A01231370D24B1960D24B196082
:10047800996010211973D14958735D60D0480433CD
:100488000B6010F099FE0AF0D7FD019A137843F03B
:1004980002031370CB4B1B681B785B4501BFCA4B2B
:1004A800CA4A1A60CA4B04BFCA4ADA60F5E6012B89
:1004B80000F06581022B40F0C48504200EF01AFE7E
:1004C80042200EF0D2FD54200EF0CFFD46200EF053
:1004D800CCFD4C2000F09ABDC0F08681222B40F064
:1004E800B085BD4C50200EF005FE04F15005F4E235
:1004F8002A2B00F03C8419D8262B00F01684282BD0
:1005080040F09F85B44C07200EF0F4FDB4F81602B5
:100518000EF0F3FDB4F818020EF0EFFD94F81A028D
:100528000EF0A3FDB4F81C0200F04FBD2E2B00F016
:10053800BF84302B00F0D3842C2B40F08285A64C4E
:100548000C200EF0D7FD94F838020EF08EFDB4F8AA
:1005580044020EF0D2FDB4F840020EF0CEFDB4F81D
:1005680042020EF0CAFD94F83A020EF07EFDB4F88D
:100578004C020EF0C2FDB4F84E0200F026BD402B2E
:1005880000F03F8424D8382B00F0DE8312D8342BB7
:1005980000F0E282362B40F05485874B8E4C93F85E
:1005A8003000C0EBC000C0B20EF0A4FD04F120057D
:1005B80000F063BC3B2B00F089823D2B00F02882C1
:1005C8003A2B40F03E8504200EF094FD00F0E6BC86
:1005D800462B00F0AA840BD8422B00F02184452B2F
:1005E80040F02F8513200EF085FD002400F0CCBCD0
:1005F800492B00F018824B2B00F0BF83472B40F0AB
:1006080020850EF029FD054684200EF073FD28464E
:100618000EF07CFD714BDC6805F18003A3428CBFB2
:10062800641B80240DF1700808F072FC28462246ED
:10063800414607F0C1FA0024054600F08ABC702B39
:1006480000F0248257D8672B00F02E8134D8522B23
:1006580000F0958418D84F2B00F08484502B40F07C
:10066800F0845D4C04200EF045FD01200EF0FDFCE9
:1006780094F8E7040EF0F9FC94F8E5040EF0F5FCA4
:1006880094F8E60400F0C2BC652B00F0BD8000F2CF
:10069800E380642B40F0D58407200EF02BFDE72083
:1006A8000EF0E3FC4C4B58790EF0DFFC00200EF006
:1006B800DCFC042000F073BC6C2B00F06D810ED8BC
:1006C800682B00F05281692B40F0BB84444D287898
:1006D800400000F0FE000EF00DFD002451E16E2BED
:1006E80000F0698100F2A58106200EF003FD0020CC
:1006F8000EF00CFDD6E07C2B00F055841CD8742B32
:1007080000F04D820AD8722B00F0B082732B40F0B3
:10071800988408200EF0EEFC0124DCE2772B00F030
:100728008382782B00F0CC80752B40F08A842F20B0
:100738000EF0E0FC2B4CC1E1A02B00F0E28209D8BE
:100748007E2B00F05584C0F04484962B40F07984C9
:100758000C205AE0F12B00F0E280FE2B00F0C3825F
:10076800F02B40F06E841C4C04200EF0C3FCB4F84F
:10077800EE010EF0C2FCB4F8EC0100F026BC032038
:100788000EF0B8FC00200EF070FC01200EF06DFC9D
:10079800102000F03BBC18460EF0ACFC02200EF016
:1007A80064FC08200EF061FC012000F02FBC00BFA3
:1007B800DE2B0020B8290020640900209C29002095
:1007C800428A010838290020FC9F0020EFBEADDED8
:1007D80000ED00E00400FA05A0230020D800002066
:1007E800302900204768010806200EF083FC4D20C0
:1007F8000EF03BFC4F200EF038FC54200EF035FC78
:100808004F200EF032FC4DE00B200EF073FCC04B75
:1008180018880EF072FC05F02BFA0EF06EFCBD4B3A
:100828001B68C3F3C000C3F38002800040EA4200A3
:10083800C3F340021043C3F3401240EAC20003F07E
:10084800100318430EF059FC0EF038FB0EF05EFC56
:10085800B14B93F83A04D9E312200EF04BFCAF4B9E
:100868001B88B3F5806F8CBF082501250024AC4B8D
:1008780053F8240090FBF5F0013480B20EF03DFCF3
:10088800032CF4D1A74C20880EF037FCA0880EF07A
:1008980034FC20890EF031FC00200EF02EFC0020E4
:1008A8000EF02BFC002090E310200EF023FC002417
:1008B8009D4B185D01340EF0D8FB102CF8D126E5BD
:1008C8007020954C0EF016FC0025A046B4F858018F
:1008D8000EF013FCB4F85A010EF00FFCB4F85C01EA
:1008E8000EF00BFC94F85E010EF0BFFB94F85F016C
:1008F8000EF0BBFB94F860010EF0B7FB94F86101B1
:100908000EF0B3FB0E2303FB05830135D3F8620118
:100918000EF0FCFB082D04F10E04D7D1F7E470208B
:100928007D4C0EF0E7FB04F1700594F8E8000EF03A
:100938009CFB94F8E9000EF098FB94F8EA000EF09E
:1009480094FB94F8EB000EF090FB94F8EC000EF09A
:100958008CFB94F8ED000EF088FB073494F8E70060
:100968000EF083FBAC42E0D1D1E410200EF0C2FBC4
:1009780000246E4B185D01340EF077FB102CF8D173
:10098800C5E42B789C42BFF4C2AC694B33F8140021
:100998000EF0B3FB0134F4E7664C0EF0ABFB208895
:1009A8000EF0ABFB60880EF0A8FBB4F904300A2007
:1009B80093FBF0F027E007200EF09CFB5E4B1888B5
:1009C800FF28A8BFFF20C0B20EF04FFB5B4B186892
:1009D8004FF6FF74A042A8BF204620EAE07080B21C
:1009E8000EF08BFB564B18880EF087FB4A4B93F89A
:1009F8001B22544B186842B10A235843A042A8BF8F
:100A0800204620EAE07080B2DFE200F30F00FAE748
:100A1800414C02200EF06EFB94F887020EF025FB85
:100A280094F88602F2E202200EF064FB464B188826
:100A3800CBE2464C0B200EF05DFB236818780EF0D5
:100A480014FB236898780EF010FB4FF00008254639
:100A58002B683E4C434408F1010858790EF005FB19
:100A6800B8F1030FF4D12368187A0EF0FEFA236860
:100A7800D8780EF0FAFA236818790EF0F6FA236897
:100A880058890EF03AFB2368587ABFE21E200EF010
:100A980031FB00242E4D2B68234458780EF0E5FADC
:100AA8002B682344D87A0EF0E0FA2B6823440134EB
:100AB800587D0EF0DAFA0A2CECD128E414F8010F6C
:100AC80000283FF424AC0EF0D0FAF7E701200EF02E
:100AD80011FB1F4B1B68187898E294F83B241D4BB8
:100AE8000C2101FB0233043493F838000EF0BDFAF0
:100AF80094F838040EF0B9FA94F839040EF0B5FAFF
:100B080094F83A040EF0B1FAAC42E6D1FFF7FFBB15
:100B1800D62B0020AC200020A023002008000020B5
:100B2800980E0020A815002084090020A016002097
:100B380054230020A0150020F8120020B012002035
:100B48002E0F0020AC0E002048210020700E00203F
:100B580060150020486801085A20CA4C0EF0CAFAED
:100B680004F15A0594F890040EF07FFA94F88B0477
:100B78000EF07BFA94F88C040EF077FA94F88D0452
:100B88000EF073FA94F88E040EF06FFA063494F8A7
:100B980089040EF06AFAAC42E4D1FFF7B8BB00252D
:100BA8004FF0010A4FF0000BB74B1B789B4531DA29
:100BB800B64B1BF803204FF00008B54C0C2304F18A
:100BC800300103FB08F3595C914209D12344586B67
:100BD80014F0C5F90246BAF1000F07D1534607E0F1
:100BE80008F10108B8F11E0FE7D110E005440EE046
:100BF80093420CDA0C2101FB08410392496B0193E3
:100C0800C85C0EF032FA019B039A0133F0E70BF14E
:100C1800010BC9E7BAF1000F3FF479ABE8B20EF067
:100C280069FA4FF0000ABDE7974D28780EF062FA8E
:100C380000242B789C42BFF46AAB944B14F803E071
:100C4800002193480C2200F1300C02FB01F313F849
:100C58000C20724505D1034493F838000EF005FACC
:100C680002E001311E29ECD10134E2E7854C16205F
:100C78000EF040FAB4F840020EF03FFAB4F8D00093
:100C88000EF03BFAB4F8D2000EF037FAB4F8D400FC
:100C98000EF033FAB4F894020EF02FFA00200EF09A
:100CA800E4F900200EF0E1F900200EF0DEF994F8E6
:100CB8001B020EF0DAF994F83C020EF0D6F9002087
:100CC8000EF0D3F9B4F9EA310A2093FBF0F080B2C0
:100CD8000EF013FA3CE0E0B201340EF0C6F9092C2C
:100CE800F9D1FFF714BB08200EF004FA0024694B71
:100CF80033F8140001340EF000FA042CF7D1FFF792
:100D080006BB0C200EF0F6F9634B18680EF0FEF9DE
:100D1800624B18680EF0FAF9614B18683FE104203D
:100D28000EF0E8F9574B986839E1564C06200EF05A
:100D3800E1F9B4F8CC010EF0E0F9B4F8D0010EF006
:100D4800DCF9B4F8D40140E104200EF0D3F94D4C9D
:100D580094F80E020EF089F994F812020EF085F953
:100D680094F811020EF081F994F813024EE1012073
:100D78000EF0C0F9434B587948E1424C08200EF078
:100D8800B9F994F892020EF070F994F893020EF003
:100D98006CF9B4F894020EF0B0F994F896020EF0DB
:100DA80064F9B4F898020EF0A8F994F89A022DE1C3
:100DB8003C4C3D4D207800EB4000C0B20EF09AF953
:100DC8004FF000082378984505F10205BFF49FAA63
:100DD80015F8020C0EF049F915F8010C00EB80002B
:100DE80000EB800000F2EE2080B20EF086F908F1E8
:100DF8000108E7E701200EF07DF9224B93F83C0249
:100E080004E108200EF076F900241E4B2344013437
:100E180093F830020EF029F9082CF6D1FFF777BACB
:100E2800184C10200EF066F960790EF01EF9A068D3
:100E38000EF06CF994F838020EF017F9B4F8CC01FA
:100E48000EF05BF9B4F8D0010EF057F9B4F8D401FC
:100E58000EF053F9B4F816020EF04FF9B4F8180270
:100E6800B3E0124AD25C904200F0D4800C33302BAD
:100E7800F7D10834AC423FF44AAA94F89E02002302
:100E8800EFE700BFA02300201C2100201D21002027
:100E980048680108D0120020ACF7FF1FB0F7FF1F09
:100EA800B4F7FF1F30290020F02500203C2900203E
:100EB8004020D04C0EF01EF904F14005B4F854035C
:100EC8000EF01BF994F856030EF0CFF8043494F89A
:100ED80053030EF0CAF8AC42F0D1FFF718BAE0207D
:100EE800C44C0EF007F904F18005B4F8D60200F0FE
:100EF8003F000EF002F9B4F8D602C0F386100EF0E7
:100F0800FCF894F8D40200090EF0AFF894F8D40273
:100F180000F00F000EF0A9F8043494F8D1020EF096
:100F2800A4F8AC42E1D1FFF7F2B90D200EF0E2F8D7
:100F380006F01CFDB04C40F00200C0B20EF095F86F
:100F480020880EF0E3F8E0680EF0E0F806F0EEFC1A
:100F580025E0AC42BFF6DBA918F804000EF085F8CE
:100F68000134F6E70B200EF0C5F800200EF07DF8EE
:100F780000200EF07AF800200EF077F80BE0012040
:100F88000EF0B8F8002041E09C4B185D01340EF0DB
:100F98006CF80B2CF8D100200EF0B8F800200EF0F9
:100FA800B5F8FFF7B4B9934C08200EF0A3F8B4F8DD
:100FB800DA000EF0A2F8B4F8DC000EF09EF8B4F8EF
:100FC800DE000EF09AF8B4F8E0000EF096F8FFF79D
:100FD8009EB9884C03200EF08DF894F81E020EF08E
:100FE80044F894F81F020EF040F894F820020DE03F
:100FF800804C03200EF07EF894F8C9010EF035F805
:1010080094F8CA010EF031F894F8CB010EF02DF8DF
:10101800FFF77DB90EF029F8B4F8A0020EF06DF8CC
:1010280094F8A2020EF021F894F8A3020EF01DF82D
:1010380094F8A5020EF019F894F8A4020EF015F829
:1010480017E74E2B3BD10DF0F1FF1128054602D9C9
:101058000FF0D6FE2EE00DF0E9FF664C05F594750D
:1010680004F815000DF0EEFF40F2ED23984205DD7F
:1010780040F6CA039842A8BF184601E040F2EE20A5
:1010880004EB4504A0F2EE20192390FBF3F0607006
:1010980010E0C0F0FC82D02B00F00783D22B40F088
:1010A800B987574B1B7803F0040303F0FF04002BA8
:1010B80000F0078300200EF01DF8FFF728B900F2B2
:1010C800E381352B23D10DF0B1FF0E280546BFD89B
:1010D8000DF0ACFF0328BBD8464B062404FB0534AF
:1010E80084F890040DF0A2FF84F88B040DF09EFFA5
:1010F80084F88C040DF09AFF84F88D040DF096FFA7
:1011080084F88E040DF092FF84F88F04D2E700F281
:10111800E5802B2B04D10DF089FF364B5871C9E7B8
:101128007AD8252B07D1334B00229A600DF094FF13
:101138000CF01CFDBEE738D8232B40F06B870DF070
:1011480075FF1328044683D80DF070FF00222D493F
:101158000C235343CD1895F83850854221D1254D9D
:101168000B4404F5877405EB840493F83030E3707E
:101178000DF05CFF20710DF059FF60710DF056FF06
:10118800214B22491A68A07105F1D0030B60204B4E
:1011980000201A600FF0F8FC1E4B80F00100187058
:1011A80088E701321E2AD2D152E7272B0DD10DF044
:1011B80049FF104CC4F8CC010DF044FFC4F8D0012D
:1011C8000DF040FFC4F8D40174E7292B40F02287C2
:1011D8000DF038FF074CA4F816020DF033FFA4F801
:1011E80018020DF023FF84F81A020DF02BFFA4F863
:1011F8001C025FE7A0230020D80000207A8A01089B
:10120800DE2B00204868010860150020740E0020BD
:10121800780E0020020000202F2B00F06E8425D8C5
:101228002D2B40F0F7860DF001FFC34C84F83802EF
:101238000DF008FFA4F844020DF004FFA4F84002E2
:101248000DF000FFA4F842020DF0F0FE3B6884F8B0
:101258003A025B79082B7FF62DAF0DF0F3FEA4F868
:101268004C020DF0EFFEA4F84E0223E7312B2CD1EF
:101278000DF0DCFE1F2804463FF6EAAE3B685B79BA
:10128800082B7FF4E5AE0DF0DDFEAB4BB43403EB79
:10129800840400F03F00E0800DF0D4FEE388800174
:1012A80000F4FE501843E0800DF0C0FE00012071EC
:1012B8000DF0BCFE237900F00F00184320710DF0EB
:1012C800B5FE607107F0C4FDF4E6332B40F0A2864A
:1012D8000DF0ACFE984B83F83C02EBE6412B0AD1AB
:1012E80000240DF0A3FE944B23440134082C83F80A
:1012F8003002F6D1DEE672D8392B11D10DF096FE08
:101308008D4C84F80E020DF091FE84F812020DF057
:101318008DFE84F811020DF089FE84F81302C9E6E7
:1013280032D8372B40F0768653790724B3FBF4F292
:10133800C2EBC2029A1A12F0FF0F7FF489AEB3FB18
:10134800F4F4013CE4B2FF2C3FF4B4AE0DF06EFEB1
:101358005FFA80F84FFA88F006F008F8054600288A
:101368003FF476AE80F800800DF06CFE68800DF0DA
:101378005DFE28710DF05AFE68710DF057FEE87198
:101388000DF054FEA871DCE73C2B1BD16B4C256893
:1013980095F800800DF04AFE18B10228A8BF022077
:1013A80000E0012028702368654A1B78022B14BFCF
:1013B80064496549116098453FF47CAE00200DF002
:1013C800AEFE77E63E2B40F025860DF02FFE5A4CF8
:1013D80084F887020DF02AFE84F886026AE6482B14
:1013E80002D106F0C1FB65E62CD8432B22D10DF0C3
:1013F8001DFE514C0023A36060710DF02DFE0CF012
:10140800B5FB0DF013FE84F838020DF01BFEC4F88E
:10141800CC010DF017FEC4F8D0010DF013FEC4F88E
:10142800D4010DF00FFEA4F816020DF00BFEA4F87F
:1014380018023FE6442B40F0ED85444B012283F827
:10144800342037E64A2B02D10DF0FCFDB7E74C2BD0
:1014580040F0E0850DF0EAFD374C84F892020DF07B
:10146800E5FD84F893020DF0EDFDA4F894020DF06B
:10147800DDFD84F896020DF0E5FDA4F898020DF064
:10148800D5FD84F89A0215E6D32B04D10DF0DAFDC8
:101498002E4B58860EE600F21E81CD2B09D12C4B1F
:1014A8001B785C073FF506AE2A4B4FF4C8721A80CA
:1014B80000E600F2B380C82B26D154796408122CB8
:1014C8003FF6C6AD0025A54206D20DF0BBFD1CAB0C
:1014D80023F815000135F6E722460023A34207DA70
:1014E8001CA931F813001C4921F813000133F5E752
:1014F800122A05D0184B002123F812100132F7E701
:10150800164B01221A70D5E52CD8512B40F0828554
:10151800134B1B78012B3FF6CDAD0DF087FD064C24
:1015280084F8E7040DF082FD84F8E5040DF07EFDF3
:1015380084F8E604BEE500BFA02300206015002063
:101548007C01002041B300087DB600086409002032
:10155800DE2B0020280E0020DC1F00205D2200204A
:1015680042140020CA2B18D10024B34DD5F80080AE
:101578000DF05CFDA04488F80100D5F800800DF05E
:1015880055FDA0442D6888F80B000DF04FFD25444B
:1015980001340A2C6875E8D18CE5CC2B40F03A85EB
:1015A8005379092B7FF654ADA44C25680DF03EFD08
:1015B800287025680DF03AFDA8700DF037FD2368F6
:1015C8006428A8BF642058710DF030FD2368642892
:1015D800A8BF642098710DF029FD2368FF28A8BFD3
:1015E800FF20D8710DF022FD2568642828BF6420EB
:1015F80028720DF01BFDE87025680DF017FD2871A5
:1016080025680DF01FFD3B6868815B790A2B7FF622
:1016180051AD24680DF00AFD60724BE5CF2B7FF4C5
:1016280038AD0DF00FFD6FF4AF6E00EB0E039BB2FB
:10163800834CC62B98BFA4F840020DF003FDA4F814
:10164800D0000DF0FFFCA4F8D2000DF0FBFCA4F8CC
:10165800D4000DF0F7FCA4F894020DF0E7FC0DF0AF
:10166800E5FC0DF0E3FC0DF0E1FC84F81B020DF045
:10167800DDFC84F83C020DF0D9FC0DF0E3FC00EB36
:1016880080004000A4F8EA010DF0D0FC39E66D4B6B
:101698001B7858073FF50EAD6B4A137843F00403E7
:1016A80001E06A4A0123137004E5664B1B785D0765
:1016B8003FF500AD0AF0A4FE0CF0A8FA0AF002FD0E
:1016C800F8E40DF0B3FC5E4B012883F83A04F3D933
:1016D80083F83A44F0E7DB2B3FF4ECAC63D8D62B25
:1016E80009D100240DF0AEFC594B23F81400013445
:1016F800082CF7D1DEE431D8D42B40F08B84537911
:101708000F2B7FF4A5AC0DF091FC072805463FF69A
:101718009FAC0DF097FC4A4B0E2404FB0534A4F84B
:1017280058010DF08FFCA4F85A010DF08BFCA4F8B9
:101738005C010DF07BFC84F85E010DF077FC84F809
:101748005F010DF073FC84F860010DF06FFC84F804
:1017580061010DF081FCC4F86201ABE4D92B11D111
:101768000DF070FC364CA4F8DA000DF06BFCA4F810
:10177800DC000DF067FCA4F8DE000DF063FCA4F8B3
:10178800E00097E4DA2B40F045840DF04FFC2C4C38
:1017980084F81E020DF04AFC84F81F020DF046FC86
:1017A80084F8200286E4F22B28D10DF03FFC0F28A4
:1017B80004463FF64DAC0DF039FC214BC4EBC40494
:1017C8001C4484F8E8000DF031FC84F8E9000DF0C1
:1017D8002DFC84F8EA000DF029FC84F8EB000DF0EC
:1017E80025FC84F8EC000DF021FC84F8ED000DF0E8
:1017F8001DFC84F8EE000AF09DFB5BE42AD8DC2B84
:101808000DD10DF013FC0E4C84F8C9010DF00EFC3F
:1018180084F8CA010DF00AFC84F8CB014AE4EF2BE6
:1018280040F0F8830DF00EFC054CA4F8EE010DF025
:1018380009FCA4F8EC013DE460150020700E0020BE
:10184800A0230020DE2B0020300F0020E80000201D
:10185800A0290020F52B40F0478101200DF04AFC1B
:101868000024CD4BCD4DCE481C702146C02285F8B2
:10187800354013F031FB8DF817409DF8172095F887
:101888003A10C64B914255D99DF8172003EBC20276
:1018980092F83D20D20746D59DF8172003EBC202E7
:1018A80092F83C10BF4A32F91120002A3BDD9DF81E
:1018B800172093F835A0DFF8E8B203EBC2024FEA2D
:1018C8000A18126C50689DF817204BF8080003EBB3
:1018D800C2030BEB08011B6C1A89CA80002492B260
:1018E80059460123A340134003D10134102CF8D1E9
:1018F80000E0234601EB08040AF1010A22810222D2
:10190800E2720422A272A268E260A380012208F1B6
:101918000803A273194404F091F85BF80830E288D0
:101928009A6185F835A09DF817300133DBB28DF840
:101938001730A2E793F835000DF097FB0DF0A6FBE2
:10194800D9F800000AF0EEF83B68186805F0ECFBDF
:10195800954B39681960954BD9F800201A600AF040
:101968006DF9934C4FF0000884F8008084F80180EA
:1019780005F0BEFB2F280394F3D18E4CADF81C80E4
:101988002268A188118505F0B3FB019005F0B0FB32
:101998008DF8250005F0ACFB8DF8260005F0A8FBB6
:1019A800824605F0A5FB0DF1700B0BF8080008F155
:1019B80001085FFA88F18A45F3D105F087FB8DF8B5
:1019C800190005F083FB2168A3888B61039B8DF8C0
:1019D8001800BDF818101B88994200F0A2804FF03B
:1019E800000A07AC4FF0010B4FF003080DE09DF81B
:1019F800703095F835209A4200F21A814FF0000AAB
:101A080007AC4FF0010B4FF008086B4B0020187023
:101A18005870684B0393B3F804E01868624BA0F859
:101A280028E0186800680AF0BEF92E2005F030FB9F
:101A3800019805F02DFB9DF8250005F029FB9DF880
:101A4800260005F025FB58460BF1FF3B5FFA8BFBA0
:101A580005F01EFB0BF1010B039BA34414F8010BCB
:101A6800019305F015FB5C45019BF7D14F4CDFF85E
:101A780048B1404605F00CFB20689BF801100AF0BD
:101A88005DF89BF8001020680AF058F8464B1A6871
:101A980010680AF083F920680AF044F8019B1A6874
:101AA8009B889361BAF1000F3FF45BAF95F835401E
:101AB800002C3FF4F6AD394BDFF8E480013CE4B28A
:101AC80083F83540240108EB040A022351468AF8BA
:101AD8000E3058F804000C3103F0B0FF58F8043009
:101AE800BAF806201A85E1E7FA2B40F09382334BC7
:101AF8001B7859077FF5E0AD8CE2314C04F14005C5
:101B08000DF0A0FAA4F854030DF090FA84F85603E7
:101B18000DF08CFA043484F85303AC42F0D1FFF78B
:101B2800C9BA019BCDF828B0303B00220F2B00F238
:101B3800498201A151F823F0811B0008FD1B000810
:101B4800BF1F00080F1C0008DD1F0008F719000858
:101B5800CD1F0008711C0008D51D0008311E0008A3
:101B68007F1E0008F31E0008CD1F0008B11E0008E4
:101B78002B1F0008271C0008DFF8488098F8003061
:101B8800002B3AD095F89C30002B00F02A82022BCB
:101B98001AD9032B28D024E2E80000206409002089
:101BA80000130020A0160020D0130020C813002026
:101BB800D4130020F8200020CC130020DE2B0020B6
:101BC800A0230020C1130020FD238DF838300EA873
:101BD800002302218DF8393005F065F9012005F060
:101BE80051F9C12809D0FCE109F0C4FA002800F035
:101BF800F88102E06A238DF81C304FF0000A07AC28
:101C08004FF0010BDCE190238DF81C3004238DF894
:101C18001D304FF0000A07AC4FF0020BD0E19DF8E1
:101C280070305A1E022A00F2BE8185F89C30E4E723
:101C3800C64ADFF828831370C54B93F89C30013BE4
:101C4800012B0BD800238DF838308DF839300EA8C9
:101C58000123022188F8003005F025F9002488F8CE
:101C6800004088F80140C8E7DFF8F0829DF870303E
:101C780088F8002088F8012095F835209A42C24655
:101C88007FF6BCAEB14A0324137009F073FAF0B1C1
:101C9800B04801210FF0B8F8C8B1DFF8C0B202218E
:101CA80058460FF0B1F890B1BBF8003049F207324E
:101CB80023F00801914200F09A8149F20A329342D6
:101CC80000F0958149F20B42934200F09081A24ABC
:101CD800937811888DF82230ADF82010131D0DF17E
:101CE800380E143218685968F446ACE80300083313
:101CF8009342E646F6D118681B79CCF80000152106
:101D08000EA88CF8043005F0CEF80BA8082105F0D1
:101D180063F900284CD000230BAA08A9985C595CE9
:101D2800884245D10133032BF6D19DF82F308AF82C
:101D380002309DF830308AF801309DF831308AF849
:101D48000030864B1A884FF2103322F02001994256
:101D580011D04FF210439A420DD04FF290339A426D
:101D680009D04FF650039A4205D002F5BA530F3303
:101D78009BB2012B01D801230EE022F0080349F29F
:101D880007318B4207D049F20A339A4203D049F20D
:101D98000B439A420CD1022385F89C3095F89C306D
:101DA80088F803304FF0000A6C4C4FF0040B07E141
:101DB800013C14F0FF047FF468AF88F8004088F80D
:101DC8000140A2464FF0040B644C12E195F89C3098
:101DD800032B40F0F780624B12241C7005F02CF89E
:101DE800002004F0D3FF072004F0D0FF0E2004F0F9
:101DF800CDFF204604F0CAFF142004F0C7FF0020DE
:101E080004F0C4FFAC2004F0C1FF882004F0BEFF3A
:101E1800132004F0BBFF762004F0B8FF04F0F4FFB1
:101E2800504809F017F9ADE095F89C30012B40F0C7
:101E3800C9809DF870308DF81C305B008DF8253016
:101E480009A800238DF8263005F09EF828B94FF030
:101E5800000A07AC4FF0010BCBE0434B0EA81B88E0
:101E6800ADF83830022105F01EF8142005F00AF804
:101E78003028ECD1C1E69DF870308DF8243095F803
:101E88009C30002B00F0BE80022B02D9032B04D01B
:101E9800B8E00CBF0720032012E009A809F0FEF9FA
:101EA8000028D4D014221AE09DF870308DF8243020
:101EB80095F89C30022B02D0032B0AD0A2E0042014
:101EC80009A905F0CFF8002840F096804FF00F08D8
:101ED8009AE009A809F0E2F90028B8D01622204BA8
:101EE80009A81A7009F0B4F9EDE795F89C308DF857
:101EF80024A0002B3FF481AE022B02D9032B09D07A
:101F08007BE609A805F040F80028A0D0012009A91F
:101F1800142235E009A809F0C1F9002897D0132246
:101F28003BE095F89C308DF824A0022B1ED0032BA3
:101F38002CD0012B4FF0000A07AC4FF0010B0CBF5F
:101F48004FF002084FF00F085FE500BFFE120020B7
:101F580064090020C2130020E0690108C1130020B1
:101F68006C2900206D290020F969010809A805F0ED
:101F78000BF800283FF46BAF052009A940F2DC52AA
:101F880004F0C6FF00283FF462AF36E609A809F05E
:101F980085F900283FF45BAF15225F4B09A81A703A
:101FA80009F004F9EEE74FF0000A07AC4FF0010B17
:101FB8004FF0090829E5594C4FF0000A4FF0090B7A
:101FC800D04622E54FF0000A07AC4FF0010B4FF066
:101FD80002081AE54FF0010A07ACD3464FF0000893
:101FE80013E5002488F8004088F801402FE7032310
:101FF800D2E64FF00F0808E59DF824B04FF0000A2C
:102008001CACDDE74FF002084FF0000A07AC4FF0B8
:10201800010BFAE40EF0F4FEFEF779B90C2803D1AF
:102028003F480FF0C9F849E00A2801D00D2864D1CB
:102038003C4D3D480FF0C0F82846232112F081FF9F
:1020480008B1401B206023687BB35A1EA95C202975
:1020580001D11346F8E7334A23600021D154334BAA
:10206800334ED3F80080D6F800902E4F484612F031
:1020780076FF05462A463846494612F079FF2D4A2A
:1020880020B97B5D43445B785B0703D010369642EA
:10209800E9D306E0964204D2681CF36838449847AE
:1020A80002E025480FF088F800231E48236000212D
:1020B800302212F011FF029B1B7853B308F0BCFFCB
:1020C800FEF76EB80C28ABD07F2804D1FEF768B8AD
:1020D8002F2B3EF665A8A0F12002D2B25E2A3EF66A
:1020E8005FA813B920283EF45BA85A1C22600D4A49
:1020F800D0540EF0EFFEFEF753B87F28E8D1013B2D
:10210800084A0E4823600021D1540FF055F8FEF715
:1021180047B85DB0BDE8F08F6C290020088A010837
:10212800178A010820150020089B0108C403002015
:102138002C8701081C890108228A01083E8A0108A7
:102148002DE9F04FA74CA84E2368A84D9F6A2DEDA6
:10215800028BA1B009F028FD6368C01A308009F02D
:1021680023FD2B786060012B01BFA14B32881A80B8
:10217800A04A04BF12885A8009F016FD0646636912
:102188006BB119A898479DF8643043B12B78072B99
:1021980010D109F009FD964B801B18800AE009F060
:1021A80003FD954A63681268FB1A1844503290423E
:1021B800E5D3EBE7237F8B4D002B00F0BD8409F0BE
:1021C800F3FC8E4BEE8B1B68B6FBF3F68C4B06F1DB
:1021D80001081B781FFA88F80746A5F820808BB3FA
:1021E800DFF840920025874B284633F915100FF089
:1021F800BDFB0135032DA9EC010AF4D1B4F82290F6
:10220800002378487F4A00F12C0500F1240C32F8AD
:1022180013E035F813203CF8131025F813E0C2EB4F
:102228000E0A11FB09F10FFA88F291FBF2F25244FF
:102238002CF813200133042BE3D1714B4684002280
:102248001A7002E06B8C013B6B84608C654A03B2A8
:10225800002B4FF0000322DDB2F920606A496B4D74
:1022680031F81320083112FB00F231F8131092FBF9
:10227800F6F28A1A25F813200133042BEED1002038
:10228800B5F90010624E0FF071FB0120B5F902108C
:1022980086ED000A0FF06AFB86ED010A00E0538420
:1022A80023690BB15B4898475B4B5C4D1B78E3B1E6
:1022B8005B4BB3F90620B5F842329A4215DC6B79CC
:1022C800012B01D0192B02D195F88B226AB90E2B5C
:1022D8000BD0082B09D04D4A00239380494A93809C
:1022E8004B4A002393604F4A936095F80C629EB363
:1022F8004D4B1B889B072FD04C4BDFED4D7A93ED50
:10230800080AB4EEE70AF1EE10FA20D913F0B2F891
:10231800D4ED0D7A20EE270A13F028F8B0F5617F86
:10232800A8BF4FF4617007EE900AB8EEE70ADFED38
:10233800417A80EE270A0BF090FB07EE906AF8EEE0
:10234800E77A27EE800A13F011F880B200E0002047
:102358002C4AD3881844D080374B1878002840F08E
:10236800E083364B1A6812F4002F984600F0D983A0
:10237800334E3378033B052B1AD895F8E73433B13D
:10238800012B08D105F0E2FAC0F17F0003E0A06B51
:1023980003689B689847E36B94F840201344B3F5AF
:1023A800807FA8BF4FF480738342D4BFE363E063A8
:1023B8003378023B092B00F2AF83DFE813F00A0001
:1023C80045007700AD03AD038E009F0018033C0362
:1023D80047030023E36363641A4B1B68A364032366
:1023E80099E300BF100A0020D62B0020CE1200204F
:1023F800D0120020AA20002048210020B815002073
:102408007C0E0020EA150020340A002098150020D0
:1024180090150020A40E002002000020A023002018
:102428005423002084150020142100203C1800208B
:102438008FC2753CEFB6B044DB2B0020C4200020CF
:1024480042140020A4200020AD4B1A68A36C64330A
:102458009A4240F2618340200AF048FA002840F08E
:102468005B834FF04009A74B626CDFF89C82985C55
:102478001D4678B107F0D6FCD8F83C30013BC8F8C7
:102488003C30D8F84430B9F1010903F10103C8F828
:102498004430E8D1626C9C4BAA5C002A40F03C8333
:1024A8005A644FF0FF329A64042334E325230093DF
:1024B800964B019303F10C0202924920A3F10A0200
:1024C8005021023307F09CFF002840F025834FF08D
:1024D800FF33A364606407231DE38D4A05230021AD
:1024E800009301910291532002F1080307F088FF3D
:1024F800002840F01183606408230CE340200AF0B0
:10250800F5F9002840F00883636C342B01F20D8143
:10251800DFE813F0350038003D00410047004B006C
:102528004F0052005600610069006D007A007E007D
:102538008D009C00AB00BA00C900D800E7003A0142
:102548004D015601630170017D018A019701A401C3
:10255800B101BE01C701D601DF01F001F901020294
:102568000B021402250229022D0231023D02490202
:102578004D025102550259025D0261026502654829
:1025880065492EE265486649664A674B95E16748A2
:102598006749684A35E0684895F8E51495F8E624EF
:1025A8002FE06648B5F8D0101BE26548B5F8D210A0
:1025B80017E26448A16914E2634B6448198810E281
:1025C800E36CD80403D5624895F80E1209E24E4B25
:1025D8000A225A6407E25F4895F8121295F8132206
:1025E80095F8113269E15C48B4F85010F9E1D8F86F
:1025F8000030190540F1F7815848B5F81812B5F9B7
:1026080016220AF0EBFAEEE1554B56481968E8E154
:1026180095F83A24544852235343EA180C2192F867
:10262800C22301FB02331D4495F8C413D9E195F880
:102638003A244E4852235343EA180C2192F8C223F5
:1026480001FB02331D4495F8C613CAE195F83A24F4
:10265800474852235343EA180C2192F8C22301FB3E
:1026680002331D4495F8C513BBE195F83A24414857
:1026780052235343EA180C2192F8C22301FB023378
:102688001D4495F8CD13ACE195F83A243A48522305
:102698005343EA180C2192F8C22301FB02331D446C
:1026A80095F8C7139DE195F83A24344852235343CB
:1026B800EA180C2192F8C22301FB02331D4495F855
:1026C800C8138EE195F83A242D4852235343EA184B
:1026D8000C2192F8C22301FB02331D4495F8CC1358
:1026E8007FE195F83A24274852235343EA180C21EE
:1026F80092F8C22301FB02331D44B5F8CE1370E1F2
:10270800A4200020FC690108100A0020666A01085C
:10271800186C0108968B0108A78B0108B38B010878
:10272800DB8B01088F8A0108E18B0108E98B01081E
:102738007A8A0108868A0108FD8B01080E8C010837
:102748001D8C01082C8C0108080000203C8C010815
:10275800468C0108538C01086C8C0108778C0108A1
:10276800482100208A8C0108968C0108A08C010859
:10277800AA8C0108B78C0108C48C0108CE8C01080A
:10278800D98C0108E68C010895F83A24B7485223F9
:102798005343EA180C2192F8C22301FB02331D446B
:1027A80095F8C91395F8CA2395F8CB3385E095F8C1
:1027B8003A34AF48522202FB035595F8961310E1BC
:1027C80095F83A34AB48522202FB035595F8971313
:1027D80095F8A12395F8AB336FE095F83A34A648FD
:1027E800522202FB035595F8981395F8A22395F801
:1027F800AC3362E095F83A34A048522202FB035504
:1028080095F8991395F8A32395F8AD3355E095F805
:102818003A349B48522202FB035595F89A1395F8CF
:10282800A42395F8AE3348E095F83A3495485222F7
:1028380002FB035595F89B1395F8A52395F8AF333C
:102848003BE095F83A349048522202FB035595F83C
:102858009C1395F8A62395F8B0332EE095F83A34F2
:102868008A48522202FB035595F89D1395F8A72331
:1028780095F8B13321E095F83A348548522202FBA5
:10288800035595F89E1395F8A82395F8B23314E0EC
:1028980095F83A347F48522202FB035595F89F1366
:1028A8009FE095F83A347C48522202FB035595F88C
:1028B800A01395F8AA2395F8B4330AF08FF992E09B
:1028C80095F83A347548522202FB0355B5F8BE1301
:1028D80087E095F83A349FED727A7248522202FBEB
:1028E8000355B5F8B83307EE903AF8EEE77A67EE95
:1028F800877A53E095F83A346B48522202FB035525
:1029080095F8C0136DE095F83A346848522202FBF6
:10291800035595F8C11364E095F83A346448522297
:1029280002FB0355B5F8BA135BE095F83A346148F1
:10293800522202FB0355B5F8BC1352E095F83A341D
:102948009FED577A5C48522202FB0355B5F8B6331F
:1029580007EE903AF8EEE77A67EE877A1EE0574876
:1029680095F81E123DE0564895F81F1239E0554873
:10297800B5F8DC1135E095F8DF319FED497A52481A
:1029880007EE903AF8EEE77A67EE877A06E0D5ED3B
:102998007C7A9FED437A4D4867EE877AFDEEE77AB9
:1029A80017EE901A1DE04A4895F8D91119E04948E0
:1029B80095F8E81115E0484895F8E71111E04748FF
:1029C80095F885120DE0464895F8151209E0454836
:1029D80095F8461205E04448B5F84A1201E0434824
:1029E800A9680AF0FBF8636C0133636494E0404B18
:1029F8001B689A011CD5B4F854303E4DC3B93E4B00
:102A0800D5F85890D3F80080452007F00BFA0E202F
:102A180007F008FA48460AF052F840460AF04FF81C
:102A28004FF48053A5F852300A23337007F07EFA2A
:102A380007F0C8FC70E094F85C30002BF6D02C4B03
:102A48001B689B01F2D409233370F1E72B4B1A68FA
:102A5800A36CC8339A4204D995F8E754002D59D18C
:102A68004EE009F089FF0028F6D155E0F88C0108FE
:102A7800078D0108188D0108298D01083B8D010873
:102A88004B8D01085B8D01086B8D01087C8D010859
:102A98008D8D01089F8D01088F8D0108A98D010872
:102AA8000000C842B88D0108C68D0108DD8D0108F7
:102AB800EC8D0108088E01081E8E0108328E01086F
:102AC8002E8E01083E8E01084A8E01085D8E01088F
:102AD8006B8E01087B8E01088C8E01089C8E010884
:102AE800B58E0108CE8E0108DE8E0108FB8E010826
:102AF80018210020100A0020B82B0020A420002054
:102B0800A06B04F01CFB94F85D30A563022B01D187
:102B18000EF052F80123337009F018FF08B10123B1
:102B280033709B4B1B78072B04D109F03DF8994B68
:102B3800C01B58800023237711ADE36828469847C7
:102B4800002800F01381924B187800230328924E36
:102B580002BF904956F8237021F813709A0035F98E
:102B68001310B1500133032BF0D18B488B4F94F8DD
:102B78005E208B4D014603F00BFF3B8805F1AC0A44
:102B8800002B00F089802B6E1B7808EE103A05F1B7
:102B980064084FF000097035824AB7F800E01368FE
:102BA8004FF47A70B0FBF3F3C3EB431003EB8003ED
:102BB800DB009BB29E4502BF0023C8F800302B61A2
:102BC800D8F80030194656F82930194456F82930F3
:102BD800C8F8001007EE903A2B690133012B104614
:102BE8004FEA890BF8EEE77A2B6106D10023C5ED91
:102BF800017AC5ED007AAB601BE0D5ED006A07EEFF
:102C0800103A37EEE66AB8EEC77A86EE077A36EEFD
:102C1800877AD5ED026A85ED017A77EEC77A85ED78
:102C2800007AE6EE276AF0EE667AC5ED036AC5ED2E
:102C3800026A0023BEF1010F46F80B304AF80B3048
:102C48003FD12B690690012BC3BF03F1FF3300EE80
:102C5800103AD5ED037A9FED540A0592C4BFB8EE39
:102C6800C00A87EE800A12F065FC059A069818EEED
:102C7800103A9BB1F8EEC87AB4EEE70AF1EE10FA12
:102C88000CDD02684FF47A73B3FBF2F3C3EB431223
:102C980003EB8203DB003B80002324E012684FF43F
:102CA8007A73B3FBF2F3C3EB431203EB8203DB004B
:102CB800D8F800209BB202EB530292FBF3F34AF8D8
:102CC8000B3009F10109B9F1030F08F1040805F106
:102CD80014057FF461AF3888012801D108F0C6FFD8
:102CE8003B88013BD7E756F823205AF823002C49A4
:102CF800121A46F823200133032BF4D191ED2E8AC2
:102D0800B5EE408AF1EE10FA30D091F8BC509DB97A
:102D1800244B1A681F467AB1DFF88480396808F1B5
:102D2800C0002844B0EE480A1C350AF0E6FB542DD2
:102D3800F2D1012388F8BC3094F8BC30B3B11B4FF2
:102D4800002556F8253007EE903A194B1C2000FB59
:102D58000530B8EEE70A0AF0ADFBA7EC010A12F05D
:102D680005FB46F825000135032DEAD194F8143106
:102D78002BB10B4A013B82F8143100F0E2BC0D4D37
:102D880095F8DF31C3B195F8E431013BDBB214E0CB
:102D9800CE120020D0120020A8150020D42B00202D
:102DA800100A0020482100200000000054160020CE
:102DB800D00A0020A0230020012384F8143108F051
:102DC800F3FE994B994A1F68994BB5F822120646AB
:102DD800186802F14403B847964B1A78072A1D462B
:102DE80004D108F0E1FE944B801B988008F0DCFECB
:102DF8002F780590012F0AD19049D4F818318E4ABE
:102E08000968C4F81801C31A93805B1AD3808C4BE5
:102E18001B68E3B1DA79DAB18A4A1268960719D5DC
:102E2800894A1178012915D9DA78884851430088E8
:102E38008A1A90428BB203DB81420A46A8BF024637
:102E48001BB212B21B0393FBF2F3012205E01A46F0
:102E5800134602E001224FF480537D49C9780D9151
:102E68002AB1BDF94C1059430913ADF84C107949F2
:102E7800D4F81C0191F800A07749784DB1F802C048
:102E8800B1F8008006900024B1F90490204621464C
:102E980050454AD2069E95ED016A96F90060764241
:102EA80009FB06F607EE906A0FFA8CF606EE906AB2
:102EB8000FFA88F6B8EEE77A07EE906AF8EEE77A46
:102EC800F8EEE66A67EE867A95ED026AE6EE867AAD
:102ED8000DF14C0ED5ED036AE7EE267AFDEEE77AA2
:102EE800CDED077ABDF81C6012B136B25E433613D9
:102EF8002EF8106013AE0FFA81FB36F810600FFA47
:102F080086FEDE4505DC0FFA84FBDE45B8BF344695
:102F180000E03146052F05D104289CBFDFF818E1F1
:102F28002EF8106001301035B2E7464BDFF83CE16F
:102F38001B684B48091B13F4805F89B2494B34D096
:102F4800494ADE881278DEF8E431484CB3F810902C
:102F5800474B550758BFDEF8E4211B685CBF128A4F
:102F6800AEF8E021DA883E4D0FFA86F8C2EB090C7C
:102F7800E04503DC18882B681B8805E04A44904527
:102F880005DB02685B885088A4F8E06111E0B4F9B9
:102F9800E0216245D5BF188802682B685B88D5BFD9
:102FA8001B88508806461E4603E00268DE88508863
:102FB8001388DFF8C0801FFA80FC9DB2C5EB0C02B5
:102FC8001FFA82FB0CB20FFA8BF2944254DD4FF0D9
:102FD800010C88F800C04FEA023C9CFBF4F4CEF8E0
:102FE800E8414FF0000ED6450CD20DF14C0838F9E7
:102FF8001EC004FB0CFCCCF30F3C28F81EC00EF1DD
:10300800010EF0E7164C246824892CB9022392FBA0
:10301800F3F32B449BB21846062F38D1BAF1020FAE
:1030280035D8054A518032E07C0100208C250020EB
:1030380060150020CE120020D0120020B815002004
:10304800AC120020C4200020BC030020F81200208D
:10305800D0200020B7150020E4150020300B0020F8
:10306800B4170020EA150020DE2B0020100A0020EB
:10307800B0170020C81500200023022088F800306F
:1030880094FBF0F42B19C4EB0C049BB2A0B26B4A6E
:10309800116801F480520792694AB2F9E041D2F806
:1030A800E4210692674A0894D2F800E0664A146858
:1030B80001F010020E92654A6549127802F0040286
:1030C800D2B20992634A126802F000620A92624A16
:1030D800B2F906200B92614A12680C9200255545F8
:1030E8007CD213AA32F8157032B207EE902A5C4AE5
:1030F80002EB051292ED007AF8EEE77A1AB267EE63
:10310800877AFDEEE77A17EE90CA944503DB02B2A0
:103118006245A8BF62463A440D9F92B221F8022F39
:1031280012B20FB1A78812E0079F7FB1069FBEF8C1
:1031380006C03F8ACCEB070C089F674503DC27884D
:10314800BEF800C005E0BEF8027000E02788B4F8B9
:1031580002C0BA4203DB6245A8BF624617460E9A10
:103168000F8062B1099A52B1079A42B90A9A32B9E4
:10317800069A0B9F528A9742BCBFA2880A80278969
:1031880057B34FF47A7C0C9ABCFBF2F2B7FBF2F21D
:10319800042A05D942F21077BA42A8BF3A4600E09D
:1031A800052212B20FFA8BF7BA4215DADFF8C8C057
:1031B800B1F900803CF915906F000F97C2EB090731
:1031C800B84504DB09EB02074745A8BF47460F9AF5
:1031D800BFB22CF802700F80013580E71B4B1A78BC
:1031E80002F0040202F0FF0342B1154890F80432DD
:1031F800013BDBB2182B00F23F8109E05345F4D2C2
:10320800184A32F81310184A22F813100133F5E758
:1032180001229A40154B1340002B00F02D81144BCE
:103228001B8813F4807F0C4B28D0124A1188ADF804
:1032380064105188ADF86610928835E0C4200020EB
:10324800100A0020B0170020B4170020DE2B002041
:103258009E1600201821002054230020B8150020B5
:10326800300B0020A0290020A016002099209801EA
:1032780014210020EA150020FC0B0020B14A118817
:10328800ADF864105188ADF86610AF4992880968A6
:10329800ADF86820CC0409D5D0F8E411B3F906409C
:1032A800098A8C4202DA5242ADF86820A74DB5F976
:1032B80002204FF47A7102F5E1624A434FF46164E7
:1032C80092FBF4F2A2F5FA72ADF87C20B5F9002071
:1032D80002F5E16251439E4A91FBF4F11288A2F291
:1032E800DC52A1F5FA71ADF86A20D0F8E421ADF806
:1032F8007E10128A1988891AADF86C105988891AB3
:10330800ADF86E109988891AADF87010D988891AA5
:10331800ADF872101989891AADF874105989891A8B
:10332800ADF876109989DB89891A9A1AADF8781060
:10333800ADF87A200023874A002122F813100133C0
:10334800082BF8D1844A854B12680692844A1B7868
:103358008449D2F800B0844D072202FB0318414586
:1033680071D00B7833B103F1150201239340069A0B
:10337800134064D011F806EC11F805AC11F8034CB1
:1033880011F801CCCEEBCE070BEB47076420B7F959
:103398000020B7F902309B1A9BB211F9022C4FEAB0
:1033A80053095A434FEA4A0692FBF0F220A8C9EBA8
:1033B800020292B2064414B936F81C0C0CE0B5F9B6
:1033C800000036F91C6CB04208DA0444844203DB7E
:1033D800A6423046A8BF2046288008E007DD041B27
:1033E800B44203DB8442A8BF044626462E80D7F8A1
:1033F8000A4011F9046C012000FA0AF020422888DA
:1034080012B216FB00F014BF4FF0FF3401246426FB
:1034180090FBF6F090420ADB4FFA8CF25A4392FB8B
:10342800F6F2C9EB020212B28242A8BF0246494B29
:1034380033F81E9002FB049423F81E4000E02B8012
:10344800023507318BE7464B484E1F6800250E2290
:1034580002FB057236F8023F92F90640E8B214FB07
:1034680003F3642493FBF4F4348008F08BFD0135F6
:103478002044082D3080EAD1334E364C3368DFF8CB
:10348800E08013F0200F30D0002008F07BFD208072
:103498000546012008F076FD2F4B60801B68190651
:1034A80023D5334BD8F800E0D3F82832274A1B78C5
:1034B800012B1ED113889EF91410B2F9022011FBBA
:1034C80003F3322793FBF7F399B29EF906305B4278
:1034D80053436FF0310293FBF2F20A442A4493FB00
:1034E800F7F30B44228018446080D8F8007000235A
:1034F80016E09EF906105388322711FB03F393FB5D
:10350800F7F3E918218011889EF9142012FB01F2C3
:1035180092FBF7F21044E7E70133082B625329D0F6
:103528000E2101FB037134F91300B1F90020B1F940
:10353800021090424FEA4305EEDB0AB28242A8BF6E
:103548000246E9E7E4150020C4200020A015002069
:10355800A01600208409002018210020B817002098
:103568005C150020BF170020160C002082090020DF
:10357800100A0020754FD7F81CA19AF90430ABB98E
:1035880097F8048208F1FF33182B00F29580DFE8E2
:1035980003F0579393719393936A93939393937BC5
:1035A8009393939393718793937B57000023A7F882
:1035B8002C32B7F82C92DFF894B10FFA89F5072D61
:1035C800DEDC9BF82E220BF50C738AB9BAF80220C0
:1035D800069300EE102A5E4A1C2000FB0530116895
:1035E800B8EE400A09F089FF0122069B8BF82E22CB
:1035F80034F9152000EE102A1C2000FB0530B8EE27
:10360800C00A09F057FF11F0B1FED8F8003080B2B7
:10361800C5EBC50224F8150003EB420200B2B2F96B
:103628000030B2F90220984203DB13B28342A8BFEC
:10363800034609F1010924F81530A7F82C92B8E7D8
:103648009AF8013013B10020618908E0414B1B78DA
:1036580003F0040303F0FF00002BF4D1014602F04D
:10366800E1F9012529E00020E18802F0DBF90120D9
:10367800218905E00020218902F0D4F9618901201F
:1036880002F0D0F9022518E00225A81E34F815101A
:10369800C0B2013502F0C6F9082DF6D106250CE0B6
:1036A8000325E81E34F81510C0B2013502F0BAF946
:1036B800072DF6D1042500E0002533689A0602D4C8
:1036C800B8F1050F0AD12846218802F0ABF9681C29
:1036D800C0B2618802F0A6F90235EDB23368DB02A8
:1036E8000AD497F810339BB11B4B93F8E60093F874
:1036F800E71008F08AFB0BE0184E00242819C0B226
:1037080036F8021F02F08EF90D2CEAD00134F5E7E5
:10371800134B1B78072B05D108F046FA059BC01AF6
:10372800104BD88001233B770BE009F025F90028DE
:103738003FF4F2A94FF48053A4F852300A23FFF75C
:10374800EAB921B0BDEC028BBDE8F08F100A002069
:10375800B8150020DE2B0020A02300205A230020CB
:10376800CE120020D01200202DE9F04FA34FA44C18
:103778003A6802F59C432DED028B20332360A14B60
:103788001E7889B0D6B1A04909688A4240F20881FA
:10379800013E1E7004E1DFF890829C48D8F80030A2
:1037A800072D98BF595D9A4B88BF29461B689847D3
:1037B800032D09D904EB45050136A8800BF0EAFA78
:1037C800F5B28542E7D320E0D8F8002005F11003D0
:1037D80002EB83039988DA880028EBD04FF47A73D8
:1037E800401A5843531A90FBF3F040F6C90300F50A
:1037F8007A70984205DC40F2EE239842B8BF18462A
:1038080001E040F6CA0080B2D4E7824B824E1B68C2
:10381800D6F8008042F2010A03EA0A0ABAFA8AFADA
:103828004FEA5A1A7D4BBAF1000F05D194F82820B7
:103838001A707B4A517811701B782BB1784B93F82A
:10384800009089F0010900E099460F23DFF8F0B1F4
:1038580084F8293000250BF09DFA854267DA6B0061
:10386800B9F1000F03D06F4A32F8150000E048465E
:103878006D4ADFF8D0C111688A8B82424FEA850E03
:103888006A4A02D8C98B81421CD25CF80E005C4996
:10389800804501D2D05A19E0E8B20392029301910F
:1038A8000BF090FA032D029B039A0FDC01994FF05D
:1038B800010E91F829C00EFA05FE2CEA0E0E81F8C9
:1038C80029E003E008F596714CF80E10BAF1000FE4
:1038D80028D194F8BC100322B1FBF2F202EB4202A9
:1038E8008A1A03EB050E5EFA82F204EB4202508557
:1038F80094F8BD202AB9022913D9414A012182F836
:10390800BD10BBF800203BF8020C1044BBF80220A5
:103918001044474A80B2D05200B2032290FBF2F022
:1039280080B2424AD05201350BF1060B93E794F866
:103938002920404BA2F10F056A426A4184F8D6203B
:103948006AB13D4A1268500109D43268D9689A6050
:10395800521AC82A1FD9012283F821201BE0304AB5
:1039680001215170117032689968DA605B68521AE7
:103978009A4282BF2F4B002283F8212000250BF0AA
:1039880009FA854207DAE8B20BF01CFA274B23F84C
:1039980015000135F3E794F8BC30013384F8BC30E6
:1039A8001C4B1A6812F4805F994605D0224B1B689D
:1039B800D90701D40DF094FF1B4B39681F683B7B76
:1039C800002B41D0013B1948BA7B30F813301AB1AB
:1039D800C3F53B6308339BB21BB2A3F57A73B3F507
:1039E8007A7FA8BF4FF47A7323EAE37307EE903A1D
:1039F8009FED127AF8EEE77A5FE000BFB82B00205F
:103A0800240D0020CC200020C820002030290020D0
:103A180020010020C4200020A4200020EC14002055
:103A280000000020280D0020C02000205423002082
:103A3800E20D0020D02000201821002000007A4448
:103A4800500D0020980D0020D9F80020120440D510
:103A5800D4F8D820B14E8A1A002A3ADB01F59C42E4
:103A68002032C6F8D820AE4A5079AE4A32F8105003
:103A7800A8B27D7B90FBF5F596F8DC00013000F0EC
:103A88000F0286F8DC20324482F8DD501A46A64838
:103A9800185C01330244102B92B2F8D112B292FB97
:103AA800F3F31BB2642BA8BF642323EAE37307EE86
:103AB800903A9FED9E7AF8EEE77AC7EE877A9C4AAD
:103AC8009FED9C7A67EE877AFCEEE77A17EE903ADC
:103AD8001380D9F80030984F984E13F4807F00F087
:103AE8000081974BDFF85CA2994205D99AF8022029
:103AF80012B901228AF802209AF80220002A00F05E
:103B0800F080904A396892F82150327805F1FF3EEA
:103B1800DEF10005C1F3806345EB0E05C2F3800BAF
:103B280001933DB912F0080F0CBF4FF000084FF099
:103B3800020801E04FF000089AF82020052A00F258
:103B4800CA80DFE802F0034C608695B1BBF1000F34
:103B580038D0D4F8F000B4F8F41003F0DDFC0128F4
:103B680009D17949794A09681268C988642000FB33
:103B78000122CAF81020019B5BB1734A12681279BE
:103B88003AB10EF06BF903228AF820204FF47A72CA
:103B980036E0002D40F09F806C4ADAF8101010686B
:103BA800684A88420AD902920EF058F9029A03210B
:103BB80082F8201040F6B831D161BDE7012182F8C2
:103BC8002010B9E7019B4FF4806013B109F0B6FFEC
:103BD80001E009F0A3FF0022CAF810207BE0002DC5
:103BE80057D1594A1268127A012A02D00EF036F9D2
:103BF800A2E70EF033F903228AF8202040F6B83203
:103C0800CAF81C2098E725B105228AF8202001204F
:103C180000E02846BBF1000F0CD0D4F8F020118A40
:103C28004B4A118051809180474909684988D18061
:103C38004FF00308454A1168DAF81420914202D877
:103C4800BBF1000F44D147F23052CAF81C200322BE
:103C580020E0327842F0020232700DF041FE3B4A19
:103C6800DAF81C1012680A44CAF81820042211E075
:103C7800364A95B11168DAF8182091422BD9354A9D
:103C8800927812B93A68D00725D4327822F0020225
:103C9800327005228AF820204EE71268DAF81C10E4
:103CA8000A44CAF8182016E02749284A0968126801
:103CB800C988642000FB0122CAF810204FF48060F4
:103CC80000228AF820208AF8032009F027FF33E72A
:103CD80000287FF431AFB8F1000F02D0404607F05A
:103CE800C5FF1D4DB5F8E01005F50C7003F014FC88
:103CF8003B681901834603D4D9F800305A022FD5FE
:103D080033785B072CD5154BB3F90620B5F84A3242
:103D18009A4236DB012384F8F63039E0240D00207E
:103D2800B4120020C4120020010E00200000C84276
:103D38002E0F002000C07F4418210020DE2B002019
:103D4800404B4C00D0200020B42B0020A4200020A1
:103D58005423002000000020A0230020EA150020A2
:103D6800002384F8F630BBF1000F11D19C499D4B1C
:103D78000020002208601A6048605A6088609A60D3
:103D880006E0BBF1000F06D194F8F630002BEDD019
:103D98003378580736D5D9F80030D90632D5924B42
:103DA8001B78DA062ED4914B9B7893B195F887321D
:103DB800BBF1000F15D17BB18D4B1A68D4F8F830E0
:103DC8009B1A002B08DA0DF08BFD8A4B83F8FCB0A8
:103DD80018E0BBF1000F0DD1102007F047FF0123B9
:103DE8000EE03BB1824A12684FF47A7101FB03235B
:103DF800C4F8F83094F8FC3023B107F01FFF002313
:103E080084F8FC30002295F88612B5F842E2B5F83D
:103E180044C21346DFF8F08138F912009B08704558
:103E2800C4BF63F07F03DBB201326045B8BF43F023
:103E38004003042AEED194F8FD206E489A4205D139
:103E480090F8FE20F92A04D8013200E0002280F818
:103E5800FE2084F8FD30654B664A98789A4628BB60
:103E68003B68DB070AD582F8FF00BBF1000F1DD1C4
:103E78003378DA071AD50DF081FB17E033785B0742
:103E880014D55D4B1B788BB15C4BDB7873B992F81A
:103E9800FF300133DBB2032B82F8FF3006D911B1B2
:103EA8000DF01EFD02E0BBF1000FF9D094F8FE30D2
:103EB800DFF840B1142B67D19AF802309BB19BF818
:103EC800FD305F2B0FD1337803F0040303F0FF02BA
:103ED80013B10DF005FD06E00B20019207F0C6FEB8
:103EE800019A8BF8FE20337803F0040303F0FF01F6
:103EF800002B49D194F8FD303E4A572B0DD1404B49
:103F08001A684FF47A73B3FBF2F3C3EB431203EB73
:103F180082033C4ADB00138036E0D9F800004007F2
:103F280017D55A2B15D192F800312BB1012382F8FD
:103F3800001182F8013127E092F8023183F0010381
:103F480082F802310BB10C2000E00D2007F08EFE44
:103F58001AE05D2B00F0B9845B2B00F0B8845E2B6F
:103F680002D1032000F0B4BC562B01D109F0FAFEAF
:103F78009AF80230002B00F0B18494F8FD306F2BD2
:103F880040F0AC840DF0FAFAD9F800305A074CD555
:103F980094F80231174A8BB133785B070ED5B8F91C
:103FA8000610B5F84232994208DD3B6813F0010368
:103FB80002BF3221A2F8141182F802313B68D803FB
:103FC80024D594F816210B4B2AB993F8002112B97D
:103FD8003222A3F81421012384F8163125E000BF0A
:103FE800BC15002048160020300F002000000020DB
:103FF800A4200020240D0020EC140020D020002054
:1040080048210020D42B00205423002094F80031AC
:10401800B54A53B1337803F0040303F0FF0123B921
:10402800012382F8001182F80131DFF8DC820023D5
:104038003B6008F1500A18F8010C414603F046FAB3
:1040480038B118F8022C012303FA02F23B68134333
:104058003B6008F10408D045EDD1A44B1B7823B18F
:104068003B68990700F1DF81D6E1DFF8A08208F10B
:104078005A0A18F8010C414603F028FA10B398F8C8
:10408800023098F804E09A4A98F803B096480C2150
:10409800013B01FB0E4103EB43031344D1F81C2100
:1040A8009A420FD0C1F81C31002390F84821C1F87A
:1040B8002031012303FA0EF322EA030381F818B131
:1040C80080F8483108F10608D045D2D1894BD4F898
:1040D8004C811B680393884B1B780493874B02938E
:1040E80000230193029B1968002900F08A8191F846
:1040F80000A0BAF1000F00F084815B68039AD31A1C
:10410800002B0CDB02F5FA73029A5360019A012323
:10411800934094F8482122EA030384F84831049B29
:10412800002B00F06E81029B13F8042C4B780432AC
:10413800D2B2002B40F02E81714B33F91220714B13
:10414800B3F8403203F1C800824202DD91F802B0B0
:1041580015E0C83B9A4203DA8978C1F1000B0EE0FA
:10416800019A0123934094F8482122EA030384F832
:104178004831039B029A03F5FA73536041E194F8BE
:104188004821019B1A41D20700F13B81BBF1000F86
:10419800CCBF0220012007F0A3FD0AF1FF32132A49
:1041A80000F22781DFE812F0140020002C00400004
:1041B8005D0066008300B400D000DC00EA00250141
:1041C8004000510066008300B40077009400C400EA
:1041D80098F800105944FA29A8BFFA2121EAE17198
:1041E80088F800100120C6E098F8021059446429A4
:1041F800A8BF642121EAE17188F802100220BAE020
:1042080098F804A0D4F85011DA44BAF1640FA8BFA2
:104218004FF0640A2AEAEA7A404688F804A003F0D4
:10422800E7F803205146A6E098F806105944642997
:10423800A8BF642121EAE17188F806100D2003F077
:104248008BF9BAF10D0F00F0D48098F80510594495
:104258006429A8BF642121EAE17188F805100E20BD
:1042680089E098F80710594481F3080188F8071085
:10427800052080E0D4F8542191785944C829A8BF72
:10428800C82121EAE17191700F2003F065F9BAF1B4
:104298000F0F00F0AE80D4F8542151785944C82942
:1042A800A8BFC82121EAE1715170122063E0D4F857
:1042B8005421117B5944C829A8BFC82121EAE171BA
:1042C8001173102003F048F9BAF1100F00F0918033
:1042D800D4F85421D17A5944C829A8BFC82121EA61
:1042E800E171D172132046E0240D0020DB2B002061
:1042F800406C0108A4200020EC140020400E00208F
:1043080054230020A0230020DD2700202C28002093
:10431800D4F85421917D5944C829A8BFC82121EA5D
:10432800E1719175112003F017F9BAF1110F60D0FE
:10433800D4F85421517D5944C829A8BFC82121EA7D
:10434800E1715175142016E0D4F85421D1785944FC
:10435800C829A8BFC82121EAE171D17009200AE063
:10436800D4F85421517B5944C829A8BFC82121EA4F
:10437800E17151730A2003F0EFF83AE0D4F85421C0
:10438800D17D5944C829A8BFC82121EAE171D17556
:104398000B20F0E7012B2CD1B14B887833F9123080
:1043A800B3F5617F05DB40F633029342A8BF13469D
:1043B80001E04FF46173BAF10C0F1AD14FF4966211
:1043C80092FBF0F0A74A1278A3F5617393FBF0F320
:1043D800DBB29A420DD01846059309F0F9FB059B0C
:1043E8005046194603F0B8F8059B581CC0B207F0B0
:1043F80077FC019A0123934094F84821134384F8E9
:104408004831019B01330193029B0C330293019BBA
:10441800042B7FF467AE23E6D9F80030DB050FD50F
:10442800914BDB7863B1914B1B68980708D5904B8B
:104438001B8813F0010808D1012009F07FFB04E074
:10444800012009F06BFB012300E000233A685107C3
:104458000BD553B1012009F061FB854B1B889A07E6
:1044680006D4022009F06AFB02E0022009F056FB9C
:104478003B681B054FF4807002D509F05FFB01E033
:1044880009F04CFB7B4B5A79082A984601D00E2A32
:1044980002D1402009F042FBD9F80030590518D55F
:1044A80098F8C0321BB9337813F0040F02E03B6868
:1044B80013F4002F09D0704B00221A703C200CF026
:1044C8006BFC30B10AF092FDF8E704F063F80CF0E9
:1044D80073FB012384F85831D4F84C01604B4189AF
:1044E800B3F906208A420EDBB2F5FA6F067ABDBF31
:1044F800531A7343A1F5FA66C6F16406BCBF93FB71
:10450800F6F6643600E0642695F9D831B5F84072BD
:1045180095F81E8295F81FA25B429BB20193002179
:10452800564BDFED577ACE544D4B9FED566A33F913
:1045380011E0C7EB0E0340F2E63503F2F31BAB457F
:104548004FEA410C504DFBEE096A2FD8002BB8BF3B
:104558005B4202292ED0434502DDC8EB030300E08D
:10456800002307EE103AB8EEC77A8378C7EE277AA9
:10457800BE4507EE103AE7EEA76A0378B8EE477A29
:10458800F0EE465AE7EE265A65EEA76A07EE903A2D
:10459800F8EE677A26EEA77AC7EE067AFDEEE77A96
:1045A80017EE903A25F80C3030DB36E002294FF44C
:1045B800FA73D2D15345CCBFCAEB0303002307EEED
:1045C800103AB8EEC77A437ABDF804B0C7EE277A36
:1045D800BE4507EE103AE7EEA76A4378B8EE477A89
:1045E800F0EE465AE7EE265A25EEA77A07EE903AFD
:1045F800F8EE677A67EE277AC7EE867AFDEEE77AF5
:1046080017EE903A13FB0BF3AB800ADADFF878E089
:104618003CF80E305B422CF80E30013103297FF450
:104628007FAFD9F80000134E10F480500DD0B2F5CA
:104638007A7F05DBB2F5FA6FA8BF4FF4FA6201E0A2
:104648004FF47A72A2F57A7229E0B6F842128A42D9
:104658001CDBB2F5FA6FA8BF4FF4FA6217E000BF8F
:1046680054230020BC200020D0200020AC200020B3
:1046780014210020A023002035290020B415002093
:104688000000C84200401C45EA1500200A46521A9C
:104698004FF47A735343C1F5FA62B3FBF2F2DFF8D1
:1046A80030836FF0630C642392FBF3FE38F81E101E
:1046B8000CFB0E220EF1010E0FFA81FC38F91EE0F8
:1046C800CCEB0E0E0EFB02F2DFF808E392FBF3F3DD
:1046D8000B449BB2AEF80630B0B1AC4A1268D200B7
:1046E80012D5AB4AD2787AB9C7F5FA61A3F57A73CD
:1046F8001BB209B21A034FF47A7392FBF3F34B43DC
:1047080007EB2337AEF80670A24B1F8807F0400767
:10471800BFB2DFB3A04BDFEDA17AB3F904309FED50
:10472800A00A0A2293FBF2F3B4F85A219B1A1BB28F
:1047380008EE103AB8EEC88A28EE278A38EE000A42
:1047480009F08BF9F0EE408AB0EE480A09F085F9D5
:10475800B5F9023006EE903AB5F90030F8EEE66A9F
:1047680007EE903A20EE667AF8EEE77AA7EEA87A96
:1047780067EE807ABDEEC77AE6EEA87A17EE103AB1
:10478800FDEEE77A2B8017EE903A6B8096F8473269
:10479800002B53D0002F51D194F85C21814E824CCC
:1047A8009A4217D007EE903A9FED7C8A9FED7C0ADB
:1047B80086F85C31F8EEE77A27EE888A38EE000A48
:1047C80009F04BF984ED010AB0EE480A09F045F901
:1047D80086ED580AB5F9003094ED016A734A07EE80
:1047E800903AB5F9043006EE903A6E4BF8EEE66A68
:1047F800D3ED585AF8EEE77A25EEE67AA7EE867AF0
:1048080067EEA57ABDEEC77AE6EE867A17EE103A1D
:10481800B3F5FA7FA8BF4FF4FA739342FDEEE77A37
:10482800B8BF13462B8017EE903AB3F5FA7FA8BFAE
:104838004FF4FA739342B8BF1346AB805C4B1A78B7
:10484800540704D55B4B1A689B88138598E04F4939
:10485800096811F0010F534902D091F8640110B1B1
:1048680042F001021A70544AB1F804111278100784
:104878005EBF1A7822F001021A70504A19B15049E5
:104888000968890706D44F49098819B94E4800882C
:10489800642806D9022111701A7822F001021A70D0
:1048A80005E01B78DB0756BF02231170137007F071
:1048B8007BF9464B1B68C01A002861DB09B0BDECC8
:1048C800028BBDE8F04F0AF0D1BA012000E00220C7
:1048D8000138C0B209F034FAFFF756BB94F8FD303E
:1048E800304A972B05D14FF4C873A2F80431FFF76B
:1048F8004BBBA72B06D1304A137843F0040313703F
:10490800FFF742BB0021BB2B079101D1022303E033
:10491800B72B04D14FF6FE73ADF81E3009E0BE2B5D
:1049280001D1022303E0BD2B18D14FF6FE73ADF879
:104938001C30BDF81C20B5F8EC311344A5F8EC3157
:10494800BDF81E20B5F8EE311344A5F8EE3109F094
:1049580009FA002384F8FE30FFF716BB792B04D13F
:1049680092F80B3123F0010306E07A2B7FF40CABAD
:1049780092F80B3143F0010382F80B31FFF704BBC7
:1049880009B0BDEC028BBDE8F08F00BF18210020F4
:10499800D020002014210020A015002035FA8E3CDC
:1049A800DB0FC93F240D0020000000200CFEFFFF94
:1049B800DE2B0020F8200020300F0020F4200020FB
:1049C800AC200020D42B0020AA2000201021002099
:1049D8002A140020EA1500202DE9F04F85B003F0D5
:1049E800D9FD8A4B1F78002F40F09D85884D2B6894
:1049F800590540F19885874B874CB3F8E0802378B8
:104A0800864E002B00F07B8132686368D31A7C2BBA
:104A180040F27581237A62600133237207F1240022
:104A2800DFF8F491C0B203F0A5FD09F10C0353F8C7
:104A3800273007EE903A7A4B1B88B8EEE77A07EEF4
:104A4800903AF8EEE77A0137C7EE277A9FED757A44
:104A580067EE877AFDEEE77ACDED007ABDF90000C2
:104A680003F076FD032FD9D1302003F083FD002019
:104A780003F06EFD03F076FD99F8087017F0030750
:104A880024D1D9F8042041F288339A420BD9102056
:104A980003F070FD384603F05BFD212003F06AFD4A
:104AA800384603F055FD142003F064FD5E4BB3F95E
:104AB80004000A2390FBF3F003F04AFD1C2003F0E6
:104AC80059FD002003F044FD03F04CFD237A5A07FA
:104AD80040F0F180022003F04DFD4F4BB3F9180070
:104AE8000A2390FBF3F003F033FD504B0320B3F996
:104AF800067003F03FFD4E4B1B785B074FF005092E
:104B080097FBF9F7BFB20BD54A48414602F004FDBE
:104B180020B92B6813F0100F18BF002738B205E032
:104B2800454B1B68D889B0FBF9F000B203F010FDC3
:104B38002B689F0740F18D80DFF80491678BDFF8C1
:104B4800FC8099F80010B8F800203F016423BFB238
:104B580003FB02124B00B2FBF3F347EA0327BFB291
:104B6800C3F303231F43062003F004FD38B203F008
:104B7800EFFC638B99F8002001339BB293FBF2F1B1
:104B880002FB1133E16963838B7B012B05D139204B
:104B980003F0F0FCB8F9000021E0B8F800706E23CB
:104BA8007B43152793FBF7F7CB7BBFB20BB197FB82
:104BB800F2F73A2003F0DEFC4FF06409B7FBF9F88E
:104BC8000FFA88F003F0C4FC09FB18773B2003F0C8
:104BD800D1FCB8B2471D0A2097FBF0F000B203F0F1
:104BE800B7FC282003F0C6FC236A0A2093FBF0F0E8
:104BF80000B203F0ADFC042003F0BCFC0E4B1B68B4
:104C0800DB89FBB101F05CFF20E000BFDB2B00205B
:104C1800C4200020A02300208C0E0020A420002007
:104C28000800002000007A44A0150020EA150020A2
:104C3800DE2B0020D0250020AC120020F812002026
:104C4800BC030020C74B186880F3100000B203F0C3
:104C58007FFC03A9C44803F051FC132003F08AFC2D
:104C6800BDF90C0003F074FC1B2003F083FCBDF9B4
:104C78000E0003F06DFC232003F07CFC4E2003F0B3
:104C880067FC03A9B84803F039FC122003F072FC52
:104C9800BDF90C0003F05CFC1A2003F06BFCBDF9B5
:104CA8000E0003F055FC222003F064FC452003F0BD
:104CB8004FFC03F057FC237A282B20D1AB4B3068EC
:104CC80000221A724FF03C094FF47A73B0FBF3F8E4
:104CD800172003F04FFCB8FBF9F7B7FBF9F009FB15
:104CE8001070000200B203F033FC182003F042FCFD
:104CF80009FB178000B203F02BFC03F033FC94F897
:104D080024309A4F002B00F0B58006F04DFFBB6AA7
:104D1800974AC31A934280463CD9002387F82E301D
:104D280087F83030934B1B88DAB21B0A87F84A2081
:104D380087F84B3087F8402087F84130BA6D3368E0
:104D48009A1AFB6D197C4FF47A734B439A420DD330
:104D5800894B1B68BB65894B1B78013B012B9FBFA7
:104D6800102387F82E30022387F830307D4B226AD3
:104D78001B68C4F828800A2192FBF1F293FBF1F337
:104D880084F8482084F84C3012121B1284F8492009
:104D980084F84D3094F860A0744FBAF1000F0ED12A
:104DA800B86E07F00EF8012809D90228DFF8D49167
:104DB80000F08D8303F094FB012389F80230E76E3D
:104DC8006A4B002F56D093F860203AB15A6F40F6DC
:104DD800B731C2EB08028A4214D84BE0012283F8AB
:104DE80060209A6F986E1278022A04D80430022143
:104DF80003F060FB02E0022106F0DAFF002384F8EA
:104E08007C3035E093F8702092B9DA6683F8602038
:104E18009A6F986E1278022A04D80430012103F0A0
:104E280049FB02E0012106F0C3FF03F059FB1FE034
:104E3800013AD2B283F8702093F87C1093F87D0081
:104E48003AB901304A1C83F87D0083F87C20986EBB
:104E58000CE03A46013012F801EB83F87D000EEBC6
:104E68000107986E83F87C70DA66714606F0ACFF2D
:104E7800C4F8748094F87E2037683C4B002A00F010
:104E88005981D3F88020002A00F0548193F88430A7
:104E9800013B012B00F24E81D4F88000DFF8CC8072
:104EA80006F08FFFE0B1D8F8800006F087FF98F889
:104EB8008530D6F800A07E2B81460ED102231B2810
:104EC80088F8843009D1D8F8800006F07AFF20B934
:104ED8000123C8F888A088F88C3084F88590DBE72F
:104EE800D8F8882033689B1A41F6583293421FD964
:104EF800032388F884301DE1214A32F8130010B9E1
:104F080003464FF403600133B0F5826FDBB200F063
:104F1800E7807FD8B0F5007F00F0A88019D9B0F5F8
:104F2800047F31D184F88D302B68980700F18E808A
:104F380094F88C1094F88D30002900F0F9803268CC
:104F4800D21B012AD8D984F88D30002384F88C30FC
:104F5800F0E0B0F5807F00F0A580B0F5887F00F024
:104F6800A180E9E7B0120020809698008C0E0020FE
:104F78003F0D0300F8120020A4200020A8200020E4
:104F88000A90010808000020B0F5806FD4D184F899
:104F98008D3094F894308F4A0133DBB2032B88BFED
:104FA800012382F8943094F8941042F21073594314
:104FB800894B1B78D80748BF01319A0748BF02318F
:104FC8005807864B1B8848BF0431DA0748BF0A31A7
:104FD800980748BF14311A0648BF2831D80548BF7A
:104FE80028315A0748BF6431180748BFC8319A05A5
:104FF80048BF01F5C871980648BF01F57A71DA060D
:1050080048BF01F5FA61580648BF01F57A614FF4C7
:10501800806086E0B0F5E26F5BD009D8B0F5C06F6C
:1050280037D0B0F5E06F87D184F88D30E16853E070
:10503800B0F5046F3FD0B0F5116F64D0B0F5E46FF0
:105048007FF47AAF84F88D30616945E0614BD3F81D
:105058009030DA7B624B1B881AB1624A117893FB55
:10506800F1F30A214FF4047059432CE084F88D3091
:105078002B68DFF8608119057FF55AAFD8F8203022
:105088000A2193FBF1F105F0A5FA002388F88C308A
:105098004EE784F88D302B681A057FF549AF524BDF
:1050A80019683EE084F88D30504B1B685B077FF52C
:1050B8003FAF002135E084F88D304D4BB3F9041033
:1050C80001EB8101490005F085FA002384F88C3052
:1050D8002EE7216984F88D302C2391FBF3F1F2E758
:1050E80084F88D30414B1B6813F020087FF420AF03
:1050F8002B681A067FF51CAF414605F06BFA354B55
:1051080083F88C8014E784F88D302B689B077FF533
:105118000FAF334B334A19880A234B43117893FB5B
:10512800F1F105F057FA2B4B002283F88C20FFE6AB
:1051380084F88D3094F89530264D002B00F0AE8021
:10514800D5F89830002B00F0A9803668D5F89C3047
:10515800F31A632B40F2A280DFF89480412005F017
:1051680020FA0A27B8F9020090FBF7F080B205F0A0
:105178000FFAB8F9000090FBF7F080B205F008FAD2
:10518800B8F9040090FBF7F080B205F001FA05F0D9
:10519800E5F995F8A05015F001055AD10F4B1B8879
:1051A800D90528D4DA060DD49F060DD458060DD497
:1051B80019070DD4DA071DD413F0020F14BF032505
:1051C800012518E00D2516E0092514E0042512E054
:1051D800082510E08C0E0020DE2B00201421002072
:1051E800F8120020BC030020B0120020AC200020E0
:1051F800A01500200225CD4B1F78CD4BDB78C7F3D7
:10520800800713B147F00207FFB2532005F0C9F930
:10521800C84B188800EB800000EB8000800080B24B
:1052280005F0B6F9002005F0B3F9B4F8A200FE23A2
:10523800584340F2FF3390FBF3F0C0B205F098F901
:10524800002005F095F947EA850005F091F905F089
:1052580085F994F8A030A3B94F2005F0A2F90BF016
:1052680077FC0BF075FC0BF073FC012005F080F95E
:10527800B14B93F8A40000F0010005F079F905F0AE
:105288006DF994F8A030C4F89C600133DBB20A21B0
:10529800B3FBF1F201FB123384F8A030A74D95F867
:1052A8000080B8F1020FA94640F0F98006F07CFCB6
:1052B800A34B1F6840F6B833C71B9F4207D900238A
:1052C8002B70B4F8A6300133A4F8A6302BE19D4D1D
:1052D8002B793A2B40F0F7802846A97801F06AFC30
:1052E800002840F0F080934B974E1B88F361236AA7
:1052F800F362964BD4F8A8A01B68F364B4F8A63000
:10530800F063F766F365504607F0D9FCDFF828B27A
:105318000746002840F0C3805046414606F048FD45
:10532800042386F874309BF8AC3095F803A0DFF8B6
:105338003082642B4BD19BF8AD30072B08BF8BF81C
:10534800AD7094F8AD5006EB051303F1040B5968E2
:10535800019108460FF003FEDBF804300093C7B252
:1053680018460FF0FCFD5FFA80FB07EB0B020832D2
:1053780088F8072025F00F0288F80A2005F00F02A8
:1053880088F80D200BEBC70288F80E2001997048A9
:105398003A460FF07BFD009B07F109006D4F194657
:1053A8005A4638440FF072FD98F807B058460BF08B
:1053B800B3FB7A1C02F80B0050460BF08DFB002360
:1053C80084F8AC306B1C84F8AD3000234FE096F8BD
:1053D8007550614A2B0704BF0135EDB2072D4FF018
:1053E800000328BF012588F80A301746280131181C
:1053F80002F1010E0B7CC96840EA030C82F800C078
:10540800DFF860C11CF80320012A0EF1010306D958
:10541800013A03F8011C9E46090AD2B2F4E7304467
:105428000135407C21F06001EDB20143082D1A4698
:105438008EF8001009D0444800EB0510D91B007CF9
:105448001CF8000001441329D0DDDF1B0637FFB22A
:1054580047F0400388F8073038460BF05DFB3F4BB8
:1054680086F87550D85550460BF036FBADE798F8DE
:1054780002205D1CDBB29A4207D9394AD4F8A80049
:10548800D15C06F0A1FC2B46F1E794F8AC3003227E
:10549800013386F8742084F8AC3089F800202A4D4E
:1054A80095F87430032B3ED1D4F8A80006F083FC9D
:1054B800002838D0204B0121D3F8A80006F078FC4A
:1054C800022385F87430002389F800302BE099F81E
:1054D800023023B1C7F8648089F802A06FE47B6EBC
:1054E800C3EB0803B3F57A6FFFF469AC0123B86E18
:1054F80089F8023006F062FC8146B86E06F05EFC60
:1055080019F07F0F7FF45BAC8E287FF458AC97F8C6
:105518006030002B7FF453AC07F12C03FB662D237E
:1055280087F870304BE405B0BDE8F08FDE2B002023
:10553800D0200020F81200208C0E0020E711002057
:10554800201200201412002008000020B0120020B1
:10555800872300207E230020852300207F2300202E
:10556800782300207B90010810F80A3C0133DBB255
:105578000A2B84BF10F8131C044A00F80A3C82BFA7
:10558800002322F8113000F80A3C70470020002060
:10559800F0B55A48037814240133B3FBF4F204FB42
:1055A8001233037000EBC30301221A719960544B44
:1055B8005D681C6C9A68A9420C4409D293F848505B
:1055C80085B104F58034944211D94FF480350BE04D
:1055D80094420CD993F84850002D0CBF00254FF485
:1055E800803501E0944202D9A21A521B02E0C2F5AA
:1055F80080322244002583F8485090F8A4509C60DB
:1056080014276C1C94FBF7F507FB154590F8F84038
:10561800DA6080F8A45000EB8505DE68C5F8A8605C
:10562800013494FBF7F507FB154480F8F84000EBCC
:1056380084005960C0F8FC1040F68C218E42304A34
:105648003CD9117892F94540A14208460CD10C1F6B
:10565800082C09D892F84640182C9ABF013482F8D1
:10566800464082F8441002E0002283F8462093F96D
:105678004440234AA14219D192F84740B4B10C32B0
:1056880000248C4206DA1F4D52F8046F25F8146086
:105698000134F6E70C2805D01A4A002422F81040F5
:1056A8000130F7E71848027801320270012283F8C6
:1056B8004720002283F845101A70F0BD92F8471071
:1056C800D1B1A6F2EF2040F2DA51884208D8117819
:1056D8000B2905D80B1D0131117042F82360F0BD6C
:1056E800002283F84720094B03F13002002143F8D8
:1056F800041F9342FAD1F0BDF0BD00BF3C0F00205B
:1057080058040020002000205E22002064040020AD
:1057180010B50D4B1A7814240132B2FBF4F004FBD7
:1057280010221A7003EBC20300221A71074A99600B
:10573800136C01330B4413644FF6FF73994204BF93
:10574800012382F8483010BD3C0F00205804002087
:10575800074B53F82030A1F57A711A684EF6612389
:105768005943044B91FBF3F13C311160704700BF82
:10577800B816002090D00300024B53F820301B6865
:1057880019607047B8160020064B53F820301A6885
:105798001B89A1F57A7159434FF47A7391FBF3F1A0
:1057A80011607047B8160020F0B5046D866823684C
:1057B80023F0010323608379054613F0020F407933
:1057C8000CBF4FF0000E4FF4005E13F0040F14BF2F
:1057D8004FF48067002710F0010F14BF0421002147
:1057E8008307206820F001002060626822F440529C
:1057F8004EEA02026260226822F4B05323F00C03DE
:1058080048BF41F008013B430B432360A36895B0B0
:1058180023F44073A360684600F010FF284B9C42B5
:1058280001D10C9B0EE0274B9C4201D10D9B09E056
:10583800254B9C4201D10E9B04E0244B9C420CBF9B
:105848000F9B109B2268A879170448BF5B00B3FB25
:10585800F6F206FB1233B3EB560F236828BF01326A
:105868001E0441BF4FF6F073C2F34201134041EAF0
:1058780003026B7992B213F0020FA28100F00101CA
:1058880014BF4FF400320022DC0748BF42F48032D4
:105898002B6D11B159680A4302E0596821EA0202E6
:1058A8005A609A6801074CBF42F0080222F00802C9
:1058B8009A601A6842F001021A6015B0F0BD00BF84
:1058C800003801400044004000480040004C0040BF
:1058D8003D4B1B78012B30B514BF00240324B1B90C
:1058E800036A23F0010303628169036A21F0F3016B
:1058F80023F00A0341F0010142F001021A4341EA90
:10590800041181610262836923F00C031BE00429FE
:105918001DD1016A4FF6EF730B4003628169056A76
:10592800120121F473414FF65F7342F0100241F403
:1059380080712B4092B2134341EA043181610362C2
:10594800836923F4406383618369836130BD0829D7
:10595800016A1AD14FF6FF630B400362C169036AFB
:105968009BB289B223F4206343F4807321F0F301DE
:1059780043EA022241F0010192B241EA0411C161F5
:105988000262C2694FF6F37319E04EF6FF730B40DB
:105998000362C369056A40F6FF41194045F6FF7383
:1059A8002B4043F4805343EA023241F4807192B2AF
:1059B80041EA0431C1610262C2694FF2FF33134008
:1059C800C361C369C36130BD5404002038B510F801
:1059D8000E2C50F8043C044652B9012200F80E2C53
:1059E80020F80C1C997A18680222BDE838406FE745
:1059F80030F80C2C20F80A1C891A89B220F8081CE7
:105A0800074A10F80F0C002522F8101004F80E5C55
:105A18001868997A2A46FFF75BFF04F8065C38BDD8
:105A280000200020044B53F820301BB107289CBFEE
:105A38001B681960704700BF8405002073B50646CF
:105A48000D46002401232A88A34013421AD0AA78BD
:105A5800009302F003038DF80430EB78022B03D097
:105A6800032B0CBF032301238DF805303046C2F306
:105A780001136946C2F381028DF806308DF80720BC
:105A880000F04AFF0134102CDCD102B070BD2DE9C2
:105A9800F04F754E96F84C5107460C4687B01146A4
:105AA8009A4600686B1C914622464FF0020B86F816
:105AB8004C3109F0A9FD3B897868ADF8043001A99B
:105AC8008DF806B08DF807B0FFF7B8FF0023ADF8E2
