:020000040800F2
:1000000000A000208D2A010805DE000815EC00087C
:1000100003DE000801DE0008FFDD0008000000002C
:10002000000000000000000000000000FDDD0008EE
:10003000FBDD000800000000F9DD00080BC8000827
:10004000F52A0108F52A0108F52A0108F52A010810
:10005000F52A0108F52A0108F52A0108F52A010800
:10006000F52A0108F52A0108F52A0108F52A0108F0
:1000700095C7000881C7000803CE0008F52A0108CB
:100080006DC7000859C70008F52A0108F52A0108BC
:10009000E5DE0008F52A0108F52A0108F52A01081D
:1000A0008DFF0008B9FF00087DFF0008C9FF0008A8
:1000B000ADFF00089DFF0008F52A0108F52A010898
:1000C000F52A0108F52A0108F52A0108F52A010890
:1000D000F52A010885010108790101086D0101086F
:1000E00019C80008F52A0108911C0108F52A010821
:1000F000F52A0108F52A0108F52A0108F52A010860
:10010000000000000000000000000000F52A0108C7
:10011000F52A0108F52A0108F52A0108F52A01083F
:10012000F52A0108F52A0108F52A0108F52A01082F
:10013000F52A0108F52A010800000000000000006F
:10014000F52A0108F52A0108F52A01080000000037
:10015000000000000000000000000000000000009F
:100160000000000000000000F52A0108F52A01083F
:10017000F52A010800000000000000000000000057
:0801800000000000F52A01084F
:100188002DE9F04F9B4BDDB01E780293002E00F056
:10019800DC80994B1868002801F0AD870CF0BEFA96
:1001A800964C20680CF009FC002801F0A487206810
:1001B800934C0CF0FFFB092801D03F2849D14FF0A0
:1001C800000827688F4D46462FB18F4829683A4660
:1001D80014F0C4FD10B9A84606B92E468B4B10354D
:1001E8009D42F1D3C6B1D6F800E0D8F800C0236824
:1001F8001EF803501CF80300A8420DD15A1C82496E
:1002080038B92D2B05D87E4D2A602025CD54885429
:1002180002E0CD542260EAE723680BB146450FD0CF
:100228007B4810F093FC464507D856F8100B10F0A1
:100238008DFC092010F018FBF5E706F0EFFE00270B
:1002480023689F42ACD2704BD85D10F00DFB01378C
:10025800F6E72368002B41F0D386042841F0248771
:10026800694807F0C1F801F046BF2068DFF8C0818F
:100278000CF0A3FB002851D0D8F800000CF09AFB32
:10028800DAF8003093F848208346002A77D12428EA
:1002980040F0D680012283F84820DAF8003093F83D
:1002A8004880B8F1060FE0D193F849004D2800F0D6
:1002B8007B8500F2C281322800F0988500F25D81CA
:1002C800242800F0288500F21181032800F06182BB
:1002D80040F2EB80052840F0FD801A200BF002FB6D
:1002E80000244C4B185D01340BF0B7FA0B2CF8D1F5
:1002F8000024494B185D01340BF0AFFA082CF8D1F3
:100308000024464B185D01340BF0A7FA072CF8D1EE
:100318000BF0B4FA3B68002283F84820D9F80000B3
:100328000CF0FCF93E4B93F8343053B13D4B9859DF
:1003380009F084FC0CF0BAFB0DF03CFC3A4B3B4A4C
:10034800DA604C36982E01F0D686364A354BB258CC
:10035800F318002AF5D0364C364F22601592DFF894
:10036800DC903B60002214AB334D8DF859201422E9
:1003780014958DF85820C9F80030BA4675E7012A57
:1003880004D14D2814BF0022022284E7022A04D196
:100398003C2814BF002203227DE7032A0AD1402803
:1003A8004FF000029FBF1A71DA715871987198BFA7
:1003B800042270E7042A08D19A7983F8490080EA70
:1003C800020B83F806B0052265E7052A7FF465AFBE
:1003D80059791A799142997906D941409971511CF4
:1003E80019711344187258E781420CBF0622002283
:1003F80051E700BFC72C0020C02A0020DC2A0020BB
:1004080020100020E4840108F00F0020D4860108A1
:10041800CA870108328801083E8801084788010810
:1004280034090020B829002000ED00E00400FA0596
:100438002016002018160020CFC900081C1600201E
:10044800D94A137803F0040303F0FF00002B7FF46C
:1004580024AFBBF1230FD8F8001019D10192029AEA
:1004680001231370D14B1960D14B19609960102189
:100478001973D04958735D60CF4804330B6010F08E
:1004880065FB06F0CBFD019A137843F00203137065
:10049800CA4B1B681B785B4501BFC94BC94A1A6028
:1004A800C94B04BFC94ADA60F7E6012800F0658144
:1004B800022840F0C28504200BF014FA42200BF009
:1004C800CCF954200BF0C9F946200BF0C6F94C20A2
:1004D80000F098BDC0F08481222840F0AE85BC4C65
:1004E80050200BF0FFF904F15005F3E22A2800F040
:1004F8003A8419D8262800F01484282840F09D85CD
:10050800B34C07200BF0EEF9B4F81A020BF0EDF932
:10051800B4F81C020BF0E9F994F81E020BF09DF9EF
:10052800B4F8200200F04DBD2E2800F0BD8430281C
:1005380000F0D1842C2840F08085A54C0C200BF0CD
:10054800D1F994F83C020BF088F9B4F848020BF0A2
:10055800CCF9B4F844020BF0C8F9B4F846020BF031
:10056800C4F994F83E020BF078F9B4F84E020BF097
:10057800BCF9B4F8500200F024BD402800F03D84D6
:1005880024D8382800F0DC8312D8342800F0E08220
:10059800362840F05285864B8D4C93F83000C0EBDE
:1005A800C000C0B20BF09EF904F1200500F061BC58
:1005B8003B2800F088823D2800F027823A2840F046
:1005C8003C8504200BF08EF900F0E4BC462800F0CE
:1005D800A8840BD8422800F01F84452840F02D85B8
:1005E80013200BF07FF9002400F0CABC492800F062
:1005F80017824B2800F0BD83472840F01E850BF07A
:1006080023F9054684200BF06DF928460BF076F99E
:10061800704BDC6805F18003A3428CBF641B802407
:100628000DF170080BF002FE28462246414604F000
:100638008BFF0024054600F088BC702800F0238258
:1006480057D8672800F02C8134D8522800F09384BA
:1006580018D84F2800F08284502840F0EE845C4C73
:1006680004200BF03FF901200BF0F7F894F8FD0493
:100678000BF0F3F894F8FB040BF0EFF894F8FC0493
:1006880000F0C0BC652800F0BB8000F2E18064285F
:1006980040F0D38407200BF025F9E7200BF0DDF8B4
:1006A8004B4B58790BF0D9F800200BF0D6F8042002
:1006B80000F071BC6C2800F06B810ED8682800F03F
:1006C8005081692840F0B984434D2878400000F0F3
:1006D800FE000BF007F900244FE16E2800F0688156
:1006E80000F2A48106200BF0FDF800200BF006F9BB
:1006F800D4E07C2800F053841CD8742800F04B8286
:100708000AD8722800F0AE82732840F09684082038
:100718000BF0E8F80124DAE2772800F081827828E3
:1007280000F0CA80752840F088842F200BF0DAF892
:100738002A4CC0E1A02800F0E08209D87E2800F009
:100748005384C0F04284962840F077840C2058E007
:10075800F12800F0E080FE2800F0C182F02840F087
:100768006C841B4C04200BF0BDF8B4F8F2010BF0BC
:10077800BCF8B4F8F00100F024BC03200BF0B2F888
:1007880000200BF06AF801200BF067F8102000F049
:1007980039BC0BF0A7F802200BF05FF840460BF0CD
:1007A8005CF8012000F02EBCC82C0020DC2A0020B8
:1007B80034090020C02A0020FA8701085C2A00209A
:1007C800FC9F0020EFBEADDE00ED00E00400FA055E
:1007D800AC24002084000020542A00202F66010841
:1007E80006200BF07FF84D200BF037F84F200BF068
:1007F80034F854200BF031F84F200BF02EF84DE070
:100808000B200BF06FF8C04B18880BF06EF805F052
:10081800C9FA0BF06AF8BD4B1B68C3F3C000C3F3F9
:100828008002800040EA4200C3F340021043C3F351
:10083800401240EAC20003F0100318430BF055F8C9
:100848000AF030FF0BF05AF8B14B93F85004D9E393
:1008580012200BF047F8AF4B1B88B3F5806F8CBFA5
:10086800082501250024AC4B53F8240090FBF5F033
:10087800013480B20BF039F8032CF4D1A74C20884E
:100888000BF033F8A0880BF030F820890BF02DF826
:1008980000200BF02AF800200BF027F8002090E346
:1008A80010200BF01FF800249D4B185D01340AF04E
:1008B800D4FF102CF8D12BE57020954C0BF012F8D2
:1008C8000025A046B4F856010BF00FF8B4F858010B
:1008D8000BF00BF8B4F85A010BF007F894F85C0128
:1008E8000AF0BBFF94F85D010AF0B7FF94F85E01C7
:1008F8000AF0B3FF94F85F010AF0AFFF0E2303FB81
:1009080005830135D3F860010AF0F8FF082D04F1DA
:100918000E04D7D1FCE470207D4C0AF0E3FF04F10B
:10092800700594F8E6000AF098FF94F8E7000AF0DA
:1009380094FF94F8E8000AF090FF94F8E9000AF0B0
:100948008CFF94F8EA000AF088FF94F8EB000AF0AC
:1009580084FF073494F8E5000AF07FFFAC42E0D149
:10096800D6E410200AF0BEFF00246E4B185D013457
:100978000AF073FF102CF8D1CAE42B789C42BFF41C
:10098800C7AC694B33F814000AF0AFFF0134F4E741
:10099800664C40460AF0A6FF20880AF0A6FF608849
:1009A8000AF0A3FFB4F904300A2093FBF0F027E023
:1009B80007200AF097FF5E4B1888FF28A8BFFF2082
:1009C800C0B20AF04AFF5B4B18684FF6FF74A042AA
:1009D800A8BF204620EAE07080B20AF086FF564B96
:1009E80018880AF082FF4A4B93F81F22534B186865
:1009F80042B10A235843A042A8BF204620EAE0702B
:100A080080B2DEE200F30F00FAE7414C02200AF060
:100A180069FF94F889020AF020FF94F88802F1E24D
:100A280002200AF05FFF464B1888CAE2454C0B20AB
:100A38000AF058FF236818780AF00FFF23685878DF
:100A48000AF00BFF4FF0000825462B683D4C434445
:100A580008F1010818790AF000FFB8F1030FF4D182
:100A68002368D8790AF0F9FE236898780AF0F5FE29
:100A78002368D8780AF0F1FE236858890AF035FF10
:100A88002368187ABEE21E200AF02CFF00242E4D9F
:100A98002B68234458780AF0E0FE2B682344D87A60
:100AA8000AF0DBFE2B6823440134587D0AF0D5FE9A
:100AB8000A2CECD12CE414F8010F00283FF428ACE0
:100AC8000AF0CBFEF7E701200AF00CFF1E4B1B686B
:100AD800187897E294F851241C4B0C2101FB02333F
:100AE800043493F838000AF0B8FE94F84E040AF07B
:100AF800B4FE94F84F040AF0B0FE94F850040AF0DB
:100B0800ACFEAC42E6D103E4C22C002088150020DC
:100B1800AC24002008000020980D00206C1600204E
:100B280054090020B8170020602400206416002013
:100B380098110020481100202E0E0020AC0D002036
:100B480024160020340B00203010002030660108E5
:100B58005A20CA4C0AF0C6FE04F15A0594F8A604B5
:100B68000AF07BFE94F8A1040AF077FE94F8A20438
:100B78000AF073FE94F8A3040AF06FFE94F8A40434
:100B88000AF06BFE063494F89F040AF066FEAC4245
:100B9800E4D1FFF7BDBB00254FF0010A4FF0000B71
:100BA800B74B1B789B4531DAB64B1BF803204FF047
:100BB8000008B54C0C2304F1300103FB08F3595C21
:100BC800914209D12344586B14F0BFF80246BAF198
:100BD800000F07D1534607E008F10108B8F11F0FCD
:100BE800E7D110E005440EE093420CDA0C2101FB3A
:100BF80008410392496B0193C85C0AF02EFE019BE1
:100C0800039A0133F0E70BF1010BC9E7BAF1000FC2
:100C18003FF47EABE8B20AF065FE4FF0000ABDE78C
:100C2800974D28780AF05EFE00242B789C42BFF48A
:100C38006FAB944B14F803E0002193480C2200F1A9
:100C4800300C02FB01F313F80C20724505D1034464
:100C580093F838000AF001FE02E001311F29ECD1B7
:100C68000134E2E7854C16200AF03CFEB4F8440251
:100C78000AF03BFEB4F8D0000AF037FEB4F8D20010
:100C88000AF033FEB4F8D4000AF02FFEB4F89A0242
:100C98000AF02BFE00200AF0E0FD00200AF0DDFD3E
:100CA80000200AF0DAFD94F81F020AF0D6FD94F845
:100CB80040020AF0D2FD00200AF0CFFDB4F9EE316F
:100CC8000A2093FBF0F080B20AF00FFE3CE0E0B29D
:100CD80001340AF0C2FD092CF9D1FFF719BB08202D
:100CE8000AF000FE0024694B33F8140001340AF0BE
:100CF800FCFD042CF7D1FFF70BBB0C200AF0F2FD2A
:100D0800634B18680AF0FAFD624B18680AF0F6FDA2
:100D1800614B18683FE104200AF0E4FD574B9868DE
:100D280039E1564C06200AF0DDFDB4F8CC010AF092
:100D3800DCFDB4F8D0010AF0D8FDB4F8D40140E1E4
:100D480004200AF0CFFD4D4C94F812020AF085FDFC
:100D580094F816020AF081FD94F815020AF07DFD58
:100D680094F817024EE101200AF0BCFD434B587974
:100D780048E1424C08200AF0B5FD94F898020AF0C0
:100D88006CFD94F899020AF068FDB4F89A020AF02A
:100D9800ACFD94F89C020AF060FDB4F89E020AF0DB
:100DA800A4FD94F8A0022DE13C4C3D4D207800EBC9
:100DB8004000C0B20AF096FD4FF00008237898452D
:100DC80005F10205BFF4A4AA15F8020C0AF045FDC6
:100DD80015F8010C00EB800000EB800000F2EE201B
:100DE80080B20AF082FD08F10108E7E701200AF065
:100DF80079FD224B93F8400204E108200AF072FDC5
:100E080000241E4B2344013493F834020AF025FDD4
:100E1800082CF6D1FFF77CBA184C10200AF062FDB6
:100E280060790AF01AFDA0680AF068FD94F83C029F
:100E38000AF013FDB4F8CC010AF057FDB4F8D0015C
:100E48000AF053FDB4F8D4010AF04FFDB4F81A02C1
:100E58000AF04BFDB4F81C02B3E0124AD25C90428F
:100E680000F0D4800C33302BF7D10834AC423FF477
:100E78004FAA94F8A4020023EFE700BFAC24002097
:100E8800F8150020F91500203066010868110020C7
:100E9800ACF7FF1FB0F7FF1FB4F7FF1F542A00205D
:100EA800FE260020602A00204020D14C0AF01AFDBE
:100EB80004F14005B4F858030AF017FD94F85A03F2
:100EC8000AF0CBFC043494F857030AF0C6FCAC4291
:100ED800F0D1FFF71DBAE020C54C0AF003FD04F17C
:100EE8008005B4F8DA0200F03F000AF0FEFCB4F81E
:100EF800DA02C0F386100AF0F8FC94F8D802000968
:100F08000AF0ABFC94F8D80200F00F000AF0A5FC38
:100F1800043494F8D5020AF0A0FCAC42E1D1FFF702
:100F2800F7B90D200AF0DEFC04F00AFAB14C40F0E3
:100F38000200C0B20AF091FC20880AF0DFFCE068E9
:100F48000AF0DCFC0BF0C8F925E0AC42BFF6E0A9DA
:100F580018F804000AF081FC0134F6E70B200AF0C7
:100F6800C1FC00200AF079FC00200AF076FC002081
:100F78000AF073FC0BE001200AF0B4FC002041E009
:100F88009D4B185D01340AF068FC0B2CF8D1002049
:100F98000AF0B4FC00200AF0B1FCFFF7B9B9944C90
:100FA80008200AF09FFCB4F8D8000AF09EFCB4F8B8
:100FB800DA000AF09AFCB4F8DC000AF096FCB4F8FF
:100FC800DE000AF092FCFFF7A3B9894C03200AF06F
:100FD80089FC94F822020AF040FC94F823020AF0F3
:100FE8003CFC94F824020DE0814C03200AF07AFCC2
:100FF80094F8C7010AF031FC94F8C8010AF02DFCF6
:1010080094F8C9010AF029FCFFF782B90AF025FC17
:10101800B4F8A6020AF069FC94F8A8020AF01DFCCC
:1010280094F8A9020AF019FC94F8AB020AF015FC2E
:1010380094F8AA020AF011FC17E74E283CD10AF0EE
:10104800EDFB1128054602D90FF0A4FB2FE0684CF0
:101058000AF0E4FB05F5927504EB450398720AF073
:10106800E9FB40F2ED23984205DD40F6CA039842B9
:10107800A8BF184601E040F2EE2004EB4504A0F2B8
:10108800EE20192390FBF3F0E07210E0C0F0F2823A
:10109800D02800F0FD82D22840F0AE87574B1B784D
:1010A80003F0040303F0FF04002B00F0FD8200208E
:1010B8000AF018FCFFF72CB900F2E081352823D19B
:1010C8000AF0ACFB0E280546BED80AF0A7FB032899
:1010D800BAD8474B062404FB053484F8A6040AF062
:1010E8009DFB84F8A1040AF099FB84F8A2040AF095
:1010F80095FB84F8A3040AF091FB84F8A4040AF091
:101108008DFB84F8A504D2E700F2EA802B2804D1ED
:101118000AF084FB364B5871C9E77BD8252807D1DC
:10112800334B00229A600AF08FFB0CF03BFDBEE7C0
:1011380038D8232840F060870AF070FB132804464B
:1011480082D80AF06BFB00222D490C235343CD189B
:1011580095F83850854221D1254D0B4404F58A7401
:1011680005EB840493F8303063700AF057FBA070E5
:101178000AF054FBE0700AF051FB224B22491A682E
:10118800207105F1D0030B60204B00201A600FF08E
:10119800C5F91F4B80F00100187088E701321F2A3B
:1011A800D2D151E727280DD10AF044FB104CC4F8DE
:1011B800CC010AF03FFBC4F8D0010AF03BFBC4F8AD
:1011C800D40174E7292840F017870AF033FB084C4C
:1011D800A4F81A020AF02EFBA4F81C020AF01EFB5F
:1011E80084F81E020AF026FBA4F820025FE700BF7D
:1011F800AC2400208400002032880108C82C00207C
:101208003066010830100020380B00203C0B00200D
:10121800020000202F2800F0638425D82D2840F0F4
:10122800EB860AF0FBFACE4C84F83C020AF002FB8B
:10123800A4F848020AF0FEFAA4F844020AF0FAFAFE
:10124800A4F846020AF0EAFA3B6884F83E025B79A1
:10125800082B7FF62CAF0AF0EDFAA4F84E020AF03C
:10126800E9FAA4F8500222E7312830D10AF0D6FA78
:101278001F2804463FF6E8AE3B685B79082B7FF4ED
:10128800E3AE0AF0D7FADFF8D882B63408EB840563
:1012980000F03F0068800AF0CDFA6B88800100F406
:1012A800FE50184368800AF0B9FA000108F82400D3
:1012B8000AF0B4FA18F8243000F00F00184308F8C0
:1012C80024000AF0ABFA68700AF054FFEFE63328FE
:1012D80040F092860AF0A2FAA14B83F84002E6E6B3
:1012E80041280AD100240AF099FA9D4B234401347D
:1012F800082C83F83402F6D1D9E66AD8392811D1F6
:101308000AF08CFA964C84F812020AF087FA84F8EC
:1013180016020AF083FA84F815020AF07FFA84F8B4
:101328001702C4E632D8372840F066865B7907246E
:10133800B3FBF4F2C2EBC2029A1A12F0FF0F7FF469
:1013480083AEB3FBF4F4013CE4B2FF2C3FF4AFAE40
:101358000AF064FA5FFA80F84FFA88F008F090FD16
:10136800054600283FF470AE80F800800AF062FA63
:1013780068800AF053FA28710AF050FA68710AF086
:101388004DFAE8710AF04AFAA871DCE73C2813D153
:10139800744C256895F800800AF040FA2870236894
:1013A80018780BF065FC23681B7843453FF47FAE43
:1013B80000200AF0ACFA7AE63E2840F01D860AF0D2
:1013C8002DFA674C84F889020AF028FA84F8880212
:1013D8006DE6482802D104F08FF868E62CD8432837
:1013E80022D10AF01BFA5E4C0023A36060710AF058
:1013F8002BFA0CF0D7FB0AF011FA84F83C020AF039
:1014080019FAC4F8CC010AF015FAC4F8D0010AF0A8
:1014180011FAC4F8D4010AF00DFAA4F81A020AF075
:1014280009FAA4F81C0242E6442840F0E5854E4B30
:10143800012283F834203AE64A2802D10AF0FAF960
:10144800B7E74C2840F0D8850AF0E8F9444C84F80E
:1014580098020AF0E3F984F899020AF0EBF9A4F883
:101468009A020AF0DBF984F89C020AF0E3F9A4F87E
:101478009E020AF0D3F984F8A00218E6D32804D112
:101488000AF0D8F9384B588611E600F21781CD28B2
:1014980009D1364B1B785C073FF509AE344B4FF446
:1014A800C8721A8003E600F2AC80C82826D15C799D
:1014B8006408122C3FF6C8AD0025A54206D20AF0F2
:1014C800B9F91CAB23F815000135F6E722460023CD
:1014D800A34207DA1CA931F81300264921F81300A2
:1014E8000133F5E7122A05D0224B002123F8121008
:1014F8000132F7E7204B01221A70D8E515D8512898
:1015080040F07A851D4B1B78012B3FF6D0AD0AF0D1
:1015180085F9134C84F8FD040AF080F984F8FB047B
:101528000AF07CF984F8FC04C1E5CA2828D1002413
:101538000C4DD5F800800AF071F9A04488F8010034
:10154800D5F800800AF06AF9A0442D6888F80B00E5
:101558000AF064F9254401340A2C6875E8D1A6E537
:10156800AC2400203010002034090020C82C0020B2
:10157800EC0A0020781400204D2200208817002053
:10158800CC2840F039855B79092B7FF65DADC84CD6
:1015980025680AF043F9287025680AF03FF9687051
:1015A8000AF03CF923686428A8BF642018710AF07F
:1015B80035F923686428A8BF642058710AF02EF909
:1015C8002368FF28A8BFFF2098710AF027F925682B
:1015D800642828BF6420E8710AF020F9A8702568FB
:1015E8000AF01CF9E87025680AF024F93B6868815C
:1015F8005B790A2B7FF65BAD24680AF00FF920723D
:1016080055E5CF287FF442AD0AF014F96FF4AF6EB8
:1016180000EB0E039BB2A74CC62B98BFA4F844025C
:101628000AF008F9A4F8D0000AF004F9A4F8D200E6
:101638000AF000F9A4F8D4000AF0FCF8A4F89A0219
:101648000AF0ECF80AF0EAF80AF0E8F80AF0E6F826
:1016580084F81F020AF0E2F884F840020AF0DEF883
:101668000AF0E8F800EB80004000A4F8EE010AF068
:10167800D5F848E6904B1B7858073FF518AD8F4AC8
:10168800137843F0040301E08D4A012313700EE53B
:10169800894B1B785D073FF50AAD08F0D5FE0CF0C5
:1016A800D1FA08F047FD02E50AF0B8F8814B0128A5
:1016B80083F85004F3D983F85044F0E7DB283FF46B
:1016C800F6AC63D8D62809D100240AF0B3F87D4BCC
:1016D80023F814000134082CF7D1E8E431D8D428D1
:1016E80040F08A845B790F2B7FF4AEAC0AF096F851
:1016F800072805463FF6A8AC0AF09CF86D4B0E2467
:1017080004FB0534A4F856010AF094F8A4F858012B
:101718000AF090F8A4F85A010AF080F884F85C01FD
:101728000AF07CF884F85D010AF078F884F85E0124
:101738000AF074F884F85F010AF086F8C4F86001CA
:10174800B5E4D92811D10AF075F85A4CA4F8D80094
:101758000AF070F8A4F8DA000AF06CF8A4F8DC00D3
:101768000AF068F8A4F8DE00A1E4DA2840F044841E
:101778000AF054F84F4C84F822020AF04FF884F823
:1017880023020AF04BF884F8240290E4F22821D1CD
:101798000AF044F80F2804463FF656AC0AF03EF823
:1017A800494BC4EBC4041C44A0710AF037F8E0713B
:1017B8000AF034F820720AF031F860720AF02EF854
:1017C800A0720AF02BF8E0720AF028F820730BF0E8
:1017D800ADF96CE41CD8DC280DD10AF01FF8354CA3
:1017E80084F8C7010AF01AF884F8C8010AF016F854
:1017F80084F8C9015BE4EF2840F0FE830AF01AF888
:101808002C4CA4F8F2010AF015F8A4F8F0014EE403
:10181800F52840F05C8101200AF064F80024284B88
:101828002A4D2B481C702146C02285F8354013F0FC
:1018380049FA8DF817409DF8172095F83A10234B70
:1018480091426AD99DF8172003EBC20292F83D2015
:10185800D2075BD59DF8172003EBC20292F83C1023
:101868001C4A32F91120002A50DD9DF8172093F800
:1018780035A0DFF85CB003EBC2024FEA0A18126C1D
:1018880050689DF817204BF8080003EBC2030BEBD8
:1018980008011B6C1A89CA80002492B25946012398
:1018A800A340134018D10134102CF8D115E000BF23
:1018B800340B0020AC240020C82C0020300E00205F
:1018C800EC000020C42A00208C25002034090020C8
:1018D800A0110020B8170020234601EB08040AF1E4
:1018E800010A22810222E2720422A272A268E26044
:1018F800A380012208F10803A273194404F03CF9FB
:101908005BF80830E2889A6185F835A09DF81730B1
:101918000133DBB28DF817308DE793F8350009F005
:101928009CFF09F0ABFFD9F800000AF0F7FE3B680E
:10193800186808F083F9BA4B39681960B94BD9F8B7
:1019480000201A600AF076FFB74C4FF0000884F8C0
:10195800008084F8018008F055F92F280394F3D10A
:10196800B24CADF81C802268A188118508F04AF9AC
:10197800019008F047F98DF8250008F043F98DF833
:10198800260008F03FF9824608F03CF90DF1700B8B
:101998000BF8080008F101085FFA88F18A45F3D1CD
:1019A80008F01EF98DF8190008F01AF92168A388C3
:1019B8008B61039B8DF81800BDF818101B8899429D
:1019C80000F0A2804FF0000A07AC4FF0010B4FF077
:1019D80003080DE09DF8703095F835209A4200F222
:1019E80002814FF0000A07AC4FF0010B4FF00808D6
:1019F8008F4B0020187058708C4B0393B3F804E099
:101A08001868874BA0F828E0186800680AF0C7FF34
:101A18002E2008F0C7F8019808F0C4F89DF82500B2
:101A280008F0C0F89DF8260008F0BCF858460BF1FD
:101A3800FF3B5FFA8BFB08F0B5F80BF1010B039B3A
:101A4800A34414F8010B019308F0ACF85C45019B22
:101A5800F7D1744CDFF8D8B1404608F0A3F82068F5
:101A68009BF801100AF066FE9BF8001020680AF047
:101A780061FE6B4B1A6810680AF08CFF20680AF048
:101A88004DFE019B1A689B889361BAF1000F3FF4E1
:101A98005BAF95F83540002C3FF4F6AD654BDFF8A9
:101AA800A481013CE4B283F83540240108EB040A20
:101AB800022351468AF80E3058F804000C3104F01D
:101AC8005BF858F80430BAF806201A85E1E7FA28D6
:101AD80040F09282584B1B7859077FF5E0AD8BE2B6
:101AE800564C04F1400509F0A5FEA4F8580309F086
:101AF80095FE84F85A0309F091FE043484F85703DC
:101B0800AC42F0D1FFF7D3BA019BCDF828B0303BF7
:101B180000220F2B00F2488201A151F823F000BFE8
:101B2800691B0008B31B0008811F0008C51B0008BB
:101B3800C11F0008DD190008B11F0008551C000866
:101B4800B91D0008151E0008631E0008D71E0008EE
:101B5800B11F0008951E00080F1F0008DD1B0008B4
:101B6800DFF8E48098F8003013B395F89C30002B28
:101B780000F02982022B02D9032B10D023E2FD2387
:101B88008DF838300EA8002302218DF8393007F07F
:101B980014FF012007F000FFC12809D013E205F067
:101BA800DBFA002800F00F8202E06A238DF81C306F
:101BB8004FF0000A07AC4FF0010BE2E190238DF8DB
:101BC8001C3004238DF81D304FF0000A07AC4FF08D
:101BD800020BD6E19DF870305A1E022A00F2C48129
:101BE80085F89C30E4E7164ADFF85C801370114BE7
:101BF80093F89C30013B012B0BD800238DF838302B
:101C08008DF839300EA80123022188F8003007F03A
:101C1800D4FE002488F8004088F80140C8E700BFD7
:101C2800701200206812002074120020D4150020C1
:101C38006C12002034090020C82C0020AC2400209D
:101C48009E110020A011002061120020DFF84483BB
:101C58009DF8703088F8002088F8012095F8352024
:101C68009A42C2467FF6BDAEC74A0324137005F0F8
:101C780073FAF0B1C54801210EF090FDC8B1DFF844
:101C880014B3022158460EF089FD90B1BBF800301C
:101C980049F2073223F00801914200F09A8149F293
:101CA8000A32934200F0958149F20B42934200F0C8
:101CB8009081B74A937811888DF82230ADF82010BA
:101CC800131D0DF1380E143218685968F446ACE843
:101CD800030008339342E646F6D118681B79CCF81E
:101CE800000015210EA88CF8043007F066FE0BA83A
:101CF800082107F0FBFE00284CD000230BAA08A9F6
:101D0800985C595C884245D10133032BF6D19DF884
:101D18002F308AF802309DF830308AF801309DF86B
:101D280031308AF800309B4B1A884FF2103322F07A
:101D38002001994211D04FF210439A420DD04FF230
:101D480090339A4209D04FF650039A4205D002F5D3
:101D5800BA530F339BB2012B01D801230EE022F0B6
:101D6800080349F207318B4207D049F20A339A42F5
:101D780003D049F20B439A420CD1022385F89C30D8
:101D880095F89C3088F803304FF0000A814C4FF0EA
:101D9800040BF6E0013C14F0FF047FF468AF88F808
:101DA800004088F80140A2464FF0040B794C12E13C
:101DB80095F89C30032B40F0F780774B12241C7069
:101DC80007F0C4FD002007F06BFD072007F068FD51
:101DD8000E2007F065FD204607F062FD142007F08D
:101DE8005FFD002007F05CFDAC2007F059FD88205E
:101DF80007F056FD132007F053FD762007F050FD3D
:101E080007F08CFD654805F017F99CE095F89C30C3
:101E1800012B40F0C9809DF870308DF81C305B00B4
:101E28008DF8253009A800238DF8263007F036FEF6
:101E380028B94FF0000A07AC4FF0010BCBE0584B24
:101E48000EA81B88ADF83830022107F0B6FD142023
:101E580007F0A2FD3028ECD1AAE69DF870308DF885
:101E6800243095F89C30002B00F0BE80022B02D95C
:101E7800032B04D0B8E00CBF0720032012E009A808
:101E880005F0FEF90028D4D014221AE09DF870302D
:101E98008DF8243095F89C30022B02D0032B0AD001
:101EA800A2E0042009A907F067FE002840F0968008
:101EB8004FF00F089AE009A805F0E2F90028B8D019
:101EC8001622354B09A81A7005F0B4F9EDE795F814
:101ED8009C308DF824A0002B3FF46AAE022B02D967
:101EE800032B09D064E609A807F0D8FD0028A0D084
:101EF800012009A9142224E009A805F0C1F9002845
:101F080097D013222AE095F89C308DF824A0022B54
:101F18000DD0032B1BD0012B4FF0000A07AC4FF05C
:101F2800010B0CBF4FF002084FF00F0860E509A83D
:101F380007F0B4FD00283FF47CAF052009A940F262
:101F4800DC5207F06FFD00283FF473AF30E609A8B4
:101F580005F096F900283FF46CAF15220E4B09A83E
:101F68001A7005F015F9EEE74FF0000A07AC4FF0CC
:101F7800010B4FF009083BE50A4C4FF0000A4FF0FF
:101F8800090BD04634E500BF9E11002062120020E4
:101F9800D467010861120020902A0020912A0020AD
:101FA800ED670108C08701084FF0000A07AC4FF041
:101FB800010B4FF002081BE54FF0010A07ACD346AE
:101FC8004FF0000814E5002488F8004088F8014024
:101FD8002FE70323D2E64FF00F0809E59DF824B058
:101FE8004FF0000A1CACCCE74FF002084FF0000A93
:101FF80007AC4FF0010BFBE40EF0CCFBFEF788B901
:102008000C2803D13D480EF0A1FD49E00A2801D073
:102018000D2864D13A4D3B480EF098FD28462321FF
:1020280012F085FE08B1401B206023687BB35A1E5E
:10203800A95C202901D11346F8E7314A2360002121
:10204800D154314B314ED3F80080D6F800902C4F44
:10205800484612F07AFE05462A463846494612F0A6
:102068007DFE2B4A20B97B5D43445B785B0703D038
:1020780010369642E9D306E0964204D2681CF3680B
:102088003844984702E023480EF060FD00231C48BE
:1020980023600021302212F015FE029B1B7853B3F7
:1020A80004F0BCFFFEF77CB80C28ABD07F2804D125
:1020B800FEF776B82F2B3EF673A8A0F12002D2B215
:1020C8005E2A3EF66DA813B920283EF469A85A1C6A
:1020D80022600B4AD0540EF0C7FBFEF761B87F2888
:1020E800E8D1013B064A0C4823600021D1540EF088
:1020F8002DFDFEF755B85DB0BDE8F08FCF8701081C
:10210800F00F002027940108C8030020E484010888
:10211800D4860108DA870108F68701082DE9F04F0F
:10212800A34FA44C3A6802F59C432DED028B203353
:102138002360A14B1E7889B0D6B1A04909688A42AC
:1021480040F20881013E1E7004E1DFF890829C484D
:10215800D8F80030072D98BF595D9A4B88BF29469B
:102168001B689847032D09D904EB45050136A8805B
:1021780009F006FAF5B28542E7D320E0D8F8002046
:1021880005F1100302EB830359889A880028EBD0E5
:102198004FF47A73401A5843531A90FBF3F040F601
:1021A800C90300F57A70984205DC40F2EE239842A4
:1021B800B8BF184601E040F6CA0080B2D4E7824BA7
:1021C800824E1B68D6F8008042F2010A03EA0A0A26
:1021D800BAFA8AFA4FEA5A1A7D4BBAF1000F05D1BA
:1021E80094F828201A707B4A517811701B782BB10B
:1021F800784B93F8009089F0010900E099460F2385
:10220800DFF8F0B184F82930002509F0B9F98542E2
:1022180067DA6B00B9F1000F03D06F4A32F8150086
:1022280000E048466D4ADFF8D0C111684A8B824207
:102238004FEA850E6A4A02D8898B81421CD25CF823
:102248000E005C49804501D2D05A19E0E8B20392E9
:102258000293019109F0ACF9032D029B039A0FDC5C
:1022680001994FF0010E91F829C00EFA05FE2CEAEB
:102278000E0E81F829E003E008F596714CF80E106F
:10228800BAF1000F28D194F8BC100322B1FBF2F286
:1022980002EB42028A1A03EB050E5EFA82F204EBA5
:1022A8004202508594F8BD202AB9022913D9414A1F
:1022B800012182F8BD10BBF800203BF8020C104445
:1022C800BBF802201044474A80B2D05200B2032221
:1022D80090FBF2F080B2424AD05201350BF1060B66
:1022E80093E794F82920404BA2F10F014A424A4152
:1022F80084F8D6206AB13D4A1268520109D432687E
:10230800D9689A60521AC82A1FD9012283F8212055
:102318001BE0304A01215170117032689968DA6007
:102328005B68521A9A4282BF2F4B002283F8212001
:10233800002509F025F9854207DAE8B209F038F9ED
:10234800274B23F815000135F3E794F8BC30013327
:1023580084F8BC301C4B1A6812F4805F984605D08C
:10236800224B1B68DB0701D40CF00AFC1B4B3968B5
:102378001F683B7B002B41D0013B1948BA7B30F8E2
:1023880013301AB1C3F53B6308339BB21BB2A3F5F4
:102398007A73B3F57A7FA8BF4FF47A7323EAE373AD
:1023A80007EE903A9FED127AF8EEE77A5FE000BF09
:1023B800A42C0020E0090020A8150020A415002066
:1023C800542A002024010020A01500208015002098
:1023D800D40F002000000020E40900209C150020F4
:1023E800602400209E0A0020AC150020F41500206F
:1023F80000007A440C0A0020540A0020D8F8002073
:10240800150440D5D4F8D820AE4E8A1A002A3ADBF3
:1024180001F59C422032C6F8D820AB4A5079AB4A25
:1024280032F81050A8B27D7B90FBF5F596F8DC00E9
:10243800013000F00F0286F8DC20324482F8DD50CB
:102448001A46A348185C01330244102B92B2F8D103
:1024580012B292FBF3F31BB2642BA8BF642323EAE6
:10246800E37307EE903A9FED9B7AF8EEE77AC7EEB2
:10247800877A994A9FED997A67EE877AFCEEE77A30
:1024880017EE903A1380D8F80030954F13F4807FF8
:1024980000F0FA80934BDFF85092994205D999F8E9
:1024A800022012B9012289F8022099F80220002A94
:1024B80000F0EA808C4A8D4992F821503A78681EDB
:1024C800454245410868C0F38063C2F3800B01931D
:1024D8008A462DB912F0080F0CBF0026022600E02C
:1024E800002699F82020052A00F2CA80DFE802F0C9
:1024F800034C608594B1BBF1000F38D0D4F8F000DC
:10250800B4F8F41007F0ACFD012809D17849794AEC
:1025180009681268C988642000FB0122C9F81020E4
:10252800019B5BB1724A126812793AB10FF0D6F981
:10253800032289F820204FF47A7236E0002D40F00B
:102548009F806C4AD9F810101068674A88420AD9E7
:1025580002920FF0C3F9029A032182F8201040F684
:10256800B831D161BDE7012182F82010B9E7019B9C
:102578004FF4806013B10BF0FDFA01E00BF0EAFABA
:102588000022C9F810207BE0002D57D1584A126864
:10259800127A012A02D00FF0A1F9A2E70FF09EF9F2
:1025A800032289F8202040F6B832C9F81C2098E7A1
:1025B80025B1052289F82020012000E02846BBF13A
:1025C800000F0BD0D4F8F020118A4B4A11805180AB
:1025D8009180474909684988D1800326454A11688E
:1025E800D9F81420914202D8BBF1000F45D147F227
:1025F8003052C9F81C20032221E03A7842F0020246
:102608003A700CF0BDFA3B4AD9F81C1012680A441B
:10261800C9F81820042212E0364A9DB11168D9F889
:10262800182091422CD9354A92781AB9DAF8002044
:10263800D10725D43A7822F002023A70052289F8A7
:1026480020204EE71268D9F81C100A44C9F818204F
:1026580016E02749274A09681268C988642000FBE0
:102668000122C9F810204FF48060002289F8202048
:1026780089F803200BF06EFA33E700287FF431AFB6
:1026880016B130460AF0EEF81D4DB5F8DE1005F526
:102698000D7007F0E5FC82461748B5F84432B0F9EA
:1026A8000220029003F10B0191422BDB0B3B93427A
:1026B80028DCB0F90020914224DB9342CCBF0023F0
:1026C800012320E0E00900204C1100205C110020CB
:1026D800BD0A00200000C8422E0E002000C07F4422
:1026E800C82C0020404B4C00AC150020F4150020ED
:1026F800542C0020801500206024002000000020B9
:10270800AC2400200023BAF1000F30D1904A12689F
:10271800120106D58F4AD2789AB93A78560710D559
:1027280028E08D4B8D4900221A605A609A608C4BC4
:10273800C1F800A00122C1F804A0C1F808A01A70CD
:102748000BE0854A85480021116051609160844AF8
:1027580000230360436083601370824B00221A6079
:102768005A600023C4F8F830C4F8FC3004E07C4A0E
:10277800002313707C4A13703B78580736D5D8F875
:102788000030D90632D5794B1B78DA062ED4784B2F
:102798009B7893B195F88932BAF1000F15D17BB1C6
:1027A800744B1A68D4F800319B1A002B08DA0CF025
:1027B800E7F9714B83F804A118E0BAF1000F0DD1C5
:1027C80010200AF04FF801230EE03BB1694A126865
:1027D8004FF47A7101FB0323C4F8003194F80431F3
:1027E80023B10AF027F8002384F80431002295F871
:1027F8008812B5F84662B5F848E21346029830F9EF
:1028080012009B08B042C4BF63F07F03DBB2013201
:102818007045B8BF43F04003042AEFD194F805216E
:1028280055489A4205D190F80621F92A04D8013270
:1028380000E0002280F8062184F805314C4B4E4A0E
:102848009878434E994628BB3368DB070AD582F847
:102858000701BAF1000F1DD13B78DA071AD50BF042
:10286800E1FF17E03B785B0714D5444B1B788BB12D
:10287800384BDB7873B992F807310133DBB2032B9D
:1028880082F8073106D911B10CF07AF902E0BAF1F1
:10289800000FF9D094F80631DFF8DCA0142B40F0D3
:1028A800838099F802308BB19AF805315F2B0DD1EE
:1028B8003B7803F0040303F0FF0B13B10CF060F94D
:1028C80004E00B2009F0CEFF8AF806B13B7803F04C
:1028D800040303F0FF01002B66D194F80531264A62
:1028E800572B0DD1264B1A684FF47A73B3FBF2F3CA
:1028F800C3EB431203EB8203224ADB00138053E04D
:10290800D8F80000400717D55A2B15D192F808318E
:102918002BB1012382F8081182F8093144E092F8BA
:102928000A3183F0010382F80A310BB10C2000E070
:102938000D2009F097FF37E05D2B00F0F8845B2B42
:1029480000F0F7845E2B1FD1032000F0F3BC00BF1A
:10295800F4150020AC1500203C2C00205016002057
:1029680062170020FC2A002080160020300E00206C
:102978000000002080150020E0090020D40F00206E
:1029880024160020C02C0020562B01D10BF006FA8B
:1029980099F80230002B00F0D38494F805316F2B9E
:1029A80040F0CE840BF03EFFD8F800305A0736D5F9
:1029B80094F80A31B34A93B13B785B070FD5029B71
:1029C800B3F90610B5F84632994208DD336813F0BA
:1029D800010302BF3221A2F81C1182F80A313368C0
:1029E800D8030DD594F81E21A64B2AB993F80821CF
:1029F80012B93222A3F81C21012384F81E310EE0FB
:102A080094F808319F4A53B13B7803F0040303F06C
:102A1800FF0123B9012382F8081182F80931DFF890
:102A280084920023336009F1500A99F8002099F83C
:102A3800013019F8010C9A420BD2494607F0D6FA30
:102A480038B119F8022C012303FA02F23368134350
:102A5800336009F10409D145E7D18B4B1B782BB1C1
:102A68008A4E3368990700F1E981E0E1884E06F162
:102A78005A093278737816F8010C9A4225D23146F1
:102A880007F0B4FA08B3B37896F804E0814A96F8E8
:102A980003A07C480C21013B01FB0E4103EB4303DF
:102AA8001344D1F824219A420FD0C1F824310023CD
:102AB80090F85021C1F82831012303FA0EF322EAD5
:102AC800030381F820A180F8503106364E45D0D155
:102AD800714BD4F854611B680393704BDFF8C8B18D
:102AE8001B78049300230193DBF80010002900F001
:102AF800958191F80090B9F1000F00F08F81DBF813
:102B08000430039AD31A002B0CDB02F5FA73019AEE
:102B1800CBF804300123934094F8502122EA0303B0
:102B280084F85031049B002B00F078811BF8042CAA
:102B38004B780432D2B2002B40F03981029B33F932
:102B48001220574BB3F8443203F1C800824202DD29
:102B580091F802A015E0C83B9A4203DA8978C1F1DE
:102B6800000A0EE0019A0123934094F8502122EACA
:102B7800030384F85031039B03F5FA73CBF8043050
:102B88004CE194F85021019B1A41D20700F146818B
:102B9800BAF1000FCCBF0220012009F09DFE09F117
:102BA800FF31384A132900F23181DFE811F01400AF
:102BB800250036004A0063007F009E00BC00DA0052
:102BC800E600F4002F014A0059007F009E00BC0077
:102BD8009200B000CE0096F80090D144B9F1FA0FF7
:102BE800A8BF4FF0FA0929EAE979304686F800903B
:102BF80007F0E2F9012022E096F80190D144B9F1FA
:102C0800640FA8BF4FF0640929EAE979304686F8CD
:102C1800019007F0D1F9022011E096F80390D14411
:102C2800B9F1640FA8BF4FF0640929EAE97986F879
:102C380003903046D2F8581107F064F9032049464A
:102C4800A6E0717951446429A8BF642121EAE171A1
:102C580071710D2009F042FDB9F10D0F00F0D68019
:102C6800317951446429A8BF642121EAE1713171A5
:102C78000E208DE0B179514481F30801B17105202E
:102C880086E000BFE0090020C72C0020F4150020D2
:102C98004E290020EF67010880150020D40F00207E
:102CA800AC240020FF280020040B0020D2F85C018F
:102CB800059281785144C829A8BFC82121EAE17149
:102CC80081700F2009F00AFDB9F10F0F059A00F085
:102CD8009D80D2F85C2151785144C829A8BFC821E9
:102CE80021EAE1715170122052E0D2F85C0105929C
:102CF800017B5144C829A8BFC82121EAE1710173A9
:102D0800102009F0EBFCB9F1100F059A7ED0D2F82B
:102D18005C21D17A5144C829A8BFC82121EAE171B0
:102D2800D172132034E0D2F85C010592817D5144C0
:102D3800C829A8BFC82121EAE1718175112009F0CD
:102D4800CDFCB9F1110F059A60D0D2F85C21517D04
:102D58005144C829A8BFC82121EAE171517514203E
:102D680016E0D2F85C21D1785144C829A8BFC821FF
:102D780021EAE171D17009200AE0D2F85C21517B87
:102D88005144C829A8BFC82121EAE17151730A201A
:102D980009F0A4FC3AE0D2F85C21D17D5144C8295D
:102DA800A8BFC82121EAE171D1750B20F0E7012BFA
:102DB8002CD1029B887833F91230B3F5617F05DB9B
:102DC80040F633029342A8BF134601E04FF4617303
:102DD800B9F10C0F1AD14FF4966292FBF0F0B34A96
:102DE8001278A3F5617393FBF0F3DBB29A420DD02E
:102DF800184605930AF008FF059B4846194609F04E
:102E08006DFC059B581CC0B209F066FD019A0123B0
:102E1800934094F85021134384F85031019B0133B7
:102E2800042B01930BF10C0B7FF45EAE18E6D8F877
:102E38000030DB050FD59E4BDB7863B19D4B1B68DB
:102E4800980708D59C4B1B8813F0010908D101206D
:102E58000AF090FE04E001200AF07CFE012300E065
:102E68000023326851070BD553B101200AF072FED6
:102E7800914B1B889A0706D402200AF07BFE02E0D9
:102E880002200AF067FE33681B054FF4807002D5F4
:102E98000AF070FE01E00AF05DFE884B5A79082AB4
:102EA800994601D00E2A02D140200AF053FED8F8E4
:102EB8000030590518D599F8C4321BB93B7813F07E
:102EC800040F02E0336813F4002F09D07C4B002272
:102ED8001A703C200DF02AFC30B108F07FFCF8E7AE
:102EE80008F08EFD0DF032FB012384F86031D4F830
:102EF80054E1029BBEF80A10B3F906208A420FDBA0
:102F0800B2F5FA6F9EF80740BDBF531A6343A1F5A7
:102F1800FA64C4F16404BCBF93FBF4F4643400E0C5
:102F2800642495F82232019395F82332029395F997
:102F3800D831B5F844829BB20393624B1E680021D6
:102F4800614B33F91190C8EB090303F2F31540F212
:102F5800E63085424FEA410A03D8002BB8BF5B42EE
:102F680001E04FF4FA7302294FF0640029D0019D63
:102F78001DB1AB42CCBF5B1B0023544D93FBF0F754
:102F88006FF0630B35F817C00BFB073B013735F9BA
:102F980017500FFA8CF7ED1B4D4F05FB0BF595FB02
:102FA800F0F5654427F80A500EEB01052D796B43BF
:102FB800484D93FBF5F364339BB2634393FBF0F006
:102FC8002CE0029D1DB1AB42CCBF5B1B0023424DE0
:102FD80093FBF0F06FF0630C0CFB003B05EB400734
:102FE80005EB4000B7F96271B0F96401C01B00FB42
:102FF8000BFBBDF80C009BFBFCFBC7EB0B0B1BFB97
:1030080000FB3348A0F804B09EF80600002BB8BFB8
:103018005B4243432F4893FBF0F0643073782F4FA3
:103028006425434393FBF5F37B542D4FF37A4343D5
:1030380093FBF5F37B54737D254F5843294B90FB45
:10304800F5F002295854284B09D1C1459D7009DB78
:10305800264B1A4C186810F480500FD11CE0C1455B
:103068005C5404DA37F80A305B4227F80A30013139
:10307800032906F101067FF463AFE9E7B2F57A7F29
:1030880005DBB2F5FA6FA8BF4FF4FA6201E04FF41E
:103098007A72A2F57A7234E0B4F846128A4227DBD3
:1030A800B2F5FA6FA8BF4FF4FA6222E09815002033
:1030B800AC15002088150020F0150020AC24002055
:1030C800592A00203010002060240020E21200203D
:1030D8005C1600200CFEFFFFE0090020042B0020F6
:1030E800500B00209C2B002078160020A0150020F3
:1030F8000A46521A4FF47A735A43C1F5FA61B2FB81
:10310800F1F2DFF838E36FF06306642392FBF3F51E
:103118003EF8151006FB052201350EB23EF9155092
:10312800AD1B6A4392FBF3F30B449BB2FB80C8B11F
:10313800AF4A1268920015D5AE4AD27892B9B4F85F
:103148004412A3F57A72C1F5FA6000B212B24FF4D4
:103158007A73120392FBF3F202FB00F3A64A01EB27
:103168002333D380A54BA64D1E8806F04006B6B281
:10317800DEB3A44BDFEDA47AB3F904309FEDA30AC4
:103188000A2293FBF2F3B5F874219B1A1BB208EEDE
:10319800103AB8EEC88A28EE278A38EE000A0AF0F4
:1031A80078FCF0EE408AB0EE480A0AF072FCB7F9F3
:1031B800023006EE903AB7F90030F8EEE66A07EE0C
:1031C800903A20EE667AF8EEE77AA7EEA87A67EEEC
:1031D800807ABDEEC77AE6EEA87A17EE103AFDEED1
:1031E800E77A3B8017EE903A7B8094F84B32002BBD
:1031F80052D0002E50D195F87621814E844C9A42B7
:1032080017D007EE903A9FED808A9FED800A86F8E6
:103218007631F8EEE77A27EE888A38EE000A0AF067
:1032280038FC84ED010AB0EE480A0AF032FC86ED5B
:103238005E0AB7F90030D5ED5E5A94ED016A754A19
:1032480007EE903AB7F9043006EE903AF8EEE66ADF
:10325800F8EEE77A25EEE67AA7EE867A67EEA57AA3
:10326800BDEEC77AE6EE867A17EE103AB3F5FA7F26
:10327800A8BF4FF4FA739342FDEEE77AB8BF13463E
:103288003B8017EE903AB3F5FA7FA8BF4FF4FA7374
:103298009342B8BF1346BB805F4B1A78560704D5D4
:1032A8005E4B1A689B88138536E051490968CC073C
:1032B80002D595F87C1111B142F001021A70584AF2
:1032C800B5F80C11127810075EBF1A7822F00102C7
:1032D8001A70544A19B154490968890706D45349E0
:1032E800098819B952480088642806D90221117042
:1032F8001A7822F001021A7005E01B78DB0756BF26
:1033080002231170137009F04BFA4A4B1B68C01A5C
:10331800002801DB08F09EF9D5F88831002B62D02F
:10332800454809B0BDEC028BBDE8F04F18470120B5
:1033380000E002200138C0B20AF01EFDFFF734BBDE
:1033480094F805312E4A972B05D14FF4C873A2F88B
:103358000C31FFF729BBA72B06D1314A137843F06C
:1033680004031370FFF720BB0021BB2B079101D189
:10337800022303E0B72B04D14FF6FE73ADF81E30DD
:103388001CE0BE2B01D1022303E0BD2B04D14FF674
:10339800FE73ADF81C3011E0792B04D192F813318B
:1033A80023F0010306E07A2B7FF4FEAA92F813318A
:1033B80043F0010382F81331FFF7F6BABDF81C2079
:1033C800B5F8F0311344A5F8F031BDF81E20B5F872
:1033D800F2311344A5F8F2310AF0E0FC002384F836
:1033E8000631FFF7E1BA09B0BDEC028BBDE8F08FFA
:1033F800F4150020AC1500205C160020F015002004
:10340800E00900206416002035FA8E3CDB0FC93F26
:10341800000000200CFEFFFFC82C0020D41500205F
:10342800300E0020D015002088150020C02C002068
:1034380086150020EC150020A40D0020CA120020DB
:103448002DE9F04F914C924E23682DED028B9BB0E5
:103458009D6A09F0A5F96368C01A308009F0A0F9DF
:103468008C4B60601A78012A984601BF8A4B3288D3
:103478001A808A4A04BF12885A80894B13A8DB68CD
:1034880098479DF84C3023B1237A002B00F03982FD
:103498000AE009F085F9834A63681268EB1A184450
:1034A80050329042E9D3EFE70BF0AAF808B90BF0D5
:1034B800BDF87D4D95F84A321BB97C4B1B88002B13
:1034C8004ED07B4A61891268B1FBF2F1794A6F4BA1
:1034D8001278481C80B2A0811AB3B3F80EB000234A
:1034E8006A4E754A06F1180E06F1100932F813C033
:1034F8003EF8137039F813202EF813C0C7EB0C07E9
:1035080012FB0BF20FFA80FA92FBFAF2174429F831
:1035180013700133042BE3D1664BF18100221A703A
:1035280002E0DA89013ADA81E089584A03B2002BCD
:103538004FF0000313DDB2F90C60604931F8132035
:10354800083112FB00F231F8131092FBF6F28A1AD6
:10355800594921F813200133042BEED100E0D3811F
:10356800574B514E1B78ABB1564BB3F90620B6F802
:1035780046329A420EDC7379012B01D0192B02D105
:1035880096F8902232B90E2B04D0082B1EBF4A4B56
:1035980000229A8096F810729FB3444B1B889B07B1
:1035A8002FD0494BDFED497A93ED080AB4EEE70ACC
:1035B800F1EE10FA20D911F053FED4ED087A20EE7E
:1035C800270A11F0C9FDB0F5617FA8BF4FF46170FB
:1035D80007EE900AB8EEE70ADFED3D7A80EE270A9B
:1035E8000AF057FA07EE907AF8EEE77A27EE800AA3
:1035F80011F0B2FD80B200E000202F4AD3881844B1
:10360800D080344B1878002840F07981324B1A6802
:1036180012F4002F994600F07281304F3B78033B3B
:10362800052B1AD896F8FD3433B1012B08D101F0D7
:1036380077FEC0F17F0003E0606A03689B689847E3
:10364800A36A94F82C201344B3F5807FA8BF4FF4E5
:1036580080738342D4BFA362A0623B78023B092BEC
:1036680000F24881DFE813F00A003E006A004601D4
:10367800460181009200FE0020012B010023A36275
:103688002363174B1B686363032332E1740B002029
:10369800C22C002066110020681100208615002029
:1036A800600B002024160020AC240020F015002018
:1036B8007C160020400B00205C160020840B0020A4
:1036C8000200002060240020541900208FC2753C9D
:1036D800EFB6B044C72C0020A015002088170020A2
:1036E80080150020A44B1A68636B64339A4240F239
:1036F8000181402007F022F9002840F0FB804FF0BC
:1037080040099E4D236B9E4EE85C58B104F07CFD49
:10371800B36A013BB362336BB9F1010903F10103E9
:103728003363EED1226B964BAA5C002A40F0E2800C
:103738001A634FF0FF325A630423DAE0252300931B
:10374800904B019303F10C0202924920A3F10A0263
:103758005021023305F02CF8002840F0CB804FF0C0
:10376800FF33636320630723C3E0874A05230021EF
:10377800009301910291532002F1080305F018F813
:10378800002840F0B78020630823B2E0402007F00B
:10379800D5F8002840F0AE80236B0C2B00F2C985C9
:1037A800DFE803F0070B0E1218292D313539444E86
:1037B8005100764807F03AFA50E07548754917E025
:1037C80075487649764A47E0764896F8FB1496F8A5
:1037D800FC2441E095F8502473485C235343EA18CD
:1037E8000C2192F8CC2301FB02331D4495F8CE132B
:1037F80007F01CFA32E06D48B6F8D010F8E76C48CC
:10380800B6F8D210F4E76B4B6B481969F0E76B4BCD
:103818006B481988ECE7A36BD80403D5694896F878
:103828001212E5E7564B0B221A6317E0664896F822
:10383800161296F8172296F8153207F0F7F90DE0E8
:103848006248A18FD4E7D9F80030190506D5604839
:10385800B6F81C12B6F91A2207F0E8F9236B0133FF
:10386800236347E05B4B1B689A011AD5B4F84030D4
:10387800434DB3B9584BD5F844901E68452004F021
:10388800C3FC0E2004F0C0FC484607F040F930465F
:1038980007F03DF94FF48053EB870A233B7004F09F
:1038A80039FD04F067FF25E094F84830002BF6D086
:1038B800484B1B689B01F2D409233B70F1E72E4B60
:1038C8001A68636BC8339A4203D996F8FD547DB9D8
:1038D80004E007F079F80028F7D10BE0606A06F0F9
:1038E800B8F994F849306562022B01D10CF02EFE2C
:1038F80001233B7007F052F808B101233B70002305
:1039080023722C4B0BAD5B6828469847002800F0C3
:10391800548198F8000000230328304E02BF304F2E
:1039280056F8231027F813109A0035F91310B150E0
:103938000133032BF0D1294894F84A20014605F0B9
:10394800B3FD94ED138AB5EE408AF1EE10FA4DD12D
:10395800244FDFF894A03B88002B00F00681D4F8B0
:10396800C0301B78AAF1480908EE103AAAF13C05C4
:103978004FF0000B97E000BF801500202C6801086D
:10398800740B002096680108486A01085A890108E2
:103998007489010847880108898901083288010863
:1039A8003E8801089D890108AE890108B889010887
:1039B800C7890108600B0020D6890108080000208B
:1039C800E6890108F0890108FD890108168A0108BD
:1039D800218A0108F4150020A42C00206C16002070
:1039E80068110020C02C0020800C0020A64B93F802
:1039F80050509DB9A54B1A681F467AB1DFF88892D6
:103A0800396809F154002844B0EE480A243509F011
:103A180086FD6C2DF2D1012389F8503094F850308E
:103A2800002B95D0002556F8253007EE903A984B94
:103A3800242000FB0530B8EEE70A09F047FD11F035
:103A48008BFB46F825000135032DECD180E7D5ED39
:103A5800006A07EE103A37EEE66AB8EEC77A86EEE5
:103A6800077A36EE877AD5ED026A85ED017A77EE28
:103A7800C77A85ED007AE6EE276AF0EE667AC5ED3C
:103A8800036AC5ED026A0023BEF1010FB3504AF87C
:103A9800023039D00BF1010BBBF1030F09F1040916
:103AA80005F1140577D07949B7F800E00B684FF4B1
:103AB8007A72B2FBF3F3C3EB431203EB8203DB002E
:103AC8009BB29E4502BF0023C9F800302B61D9F88C
:103AD8000030184656F82B30184456F82B30C9F8E1
:103AE800000007EE903A2B690133012B8C464FEA10
:103AF8008B02F8EEE77A2B61A9D10023C5ED017A94
:103B0800C5ED007AAB60BEE72B69CDF81CC0012B70
:103B1800C3BF03F1FF3300EE103AD5ED037A9FEDF2
:103B28005D0A0691C8BFB8EEC00A0592C8BF87EE05
:103B3800800A11F0F5FB059A0699DDF81CC018EE0D
:103B4800103AA3B1F8EEC87AB4EEE70AF1EE10FA2B
:103B58000DDDDCF800204FF47A73B3FBF2F3C3EB0E
:103B6800431203EB8203DB003B8000231BE0096860
:103B78004FF47A73B3FBF1F3C3EB431103EB810109
:103B8800C900D9F8003089B203EB510393FBF1F176
:103B98004AF802107EE73888012801D108F062FE51
:103BA8003B88013BE0E756F823205AF82310521AC5
:103BB80046F823200133032BF5D194F8183123B1AB
:103BC800314A013B82F81831BEE3334A3349D2ED1A
:103BD800787AF5EE407AF1EE10FA18BF92F8E831EB
:103BE800B2F826221ABF03F1FF33DBB2012384F8AF
:103BF80018312B4B00930D682A4908682A49443B21
:103C08000968A847294B2A4ADB780893294B93F877
:103C180000B0BBF1030F18D91B4BD3F81C315D88DA
:103C2800B5F5FA7F11D2244BB2F90460B3F9040058
:103C380080EAE077A7EBE0776942CB1B9E4203DB83
:103C4800EB19B342A8BF334693801C4B1B68DD7940
:103C5800002D3ED01A4909688E0737D519490978C9
:103C6800012933D9DB78184E59433688CB1A9E423E
:103C780088B203DBB1420B46A8BF334601B2090341
:103C88001BB291FBF3F323E0740B002024160020F1
:103C9800C80B002000000000AC240020C403002052
:103CA800E026002030100020340B0020AC15002046
:103CB8005C1700207B1600205C16002044110020B1
:103CC800A015002080010020981100204FF4805397
:103CD80004935388D4F81CC198F80080AE48059323
:103CE8000021B2F800E0B2F904900B460A465A45A2
:103CF80048D29CF9004090ED016A644209FB04F443
:103D080007EE904ABDF9144006EE904A0FFA8EF479
:103D1800B8EEE77A07EE904AF8EEE77AF8EEE66A48
:103D280067EE867A90ED026AE6EE867A0DAED0ED01
:103D3800036AE7EE267AFDEEE77ACDED067ABDF85E
:103D480018401DB1049F24B27C43241326F8124066
:103D58000DAC0FFA83FA34F8124026B2564505DC4A
:103D68000FFA81FA5645B8BF214600E02346B8F15C
:103D7800050F04D1042A9CBF884E26F81240013250
:103D88001030B4E7864F8748874A591A3B6813F4BE
:103D9800805F89B2854B32D0854CC0882478834EA9
:103DA80064075EBFD3F8E441248AA3F8E041D3F85E
:103DB800E441B4F810807F4C2468E5880FFA80FC51
:103DC800C5EB080EF44503DC12682588128805E067
:103DD8004544AC4505DB126855886288A6F8E001C1
:103DE80011E0B6F9E0017045CDBF12682588126868
:103DF8005588CDBF628812882846104603E01468AB
:103E0800C088228865886C4C1FFA85FE96B2C6EB7E
:103E18000E020DB212B2954227DD4FF0010E84F862
:103E280000E014034FF0000E94FBF5F5C3F8E851D9
:103E3800DE450BD20DAC34F91EC005FB0CFCCCF3EF
:103E48000F3C24F81EC00EF1010EF1E7022492FB8C
:103E5800F4F43219594C2478062C92B210D1BBF1E3
:103E6800020F0DD84D4C61800AE000220221227019
:103E780095FBF1F57219C5EB0E0592B2A9B200E0F7
:103E88001146B3F9E041D3F8E4814A4B3F68D3F8CF
:103E980000E0454B04941C68494D07F01003099352
:103EA800434B1B7803F00403DBB20593454B1B68B7
:103EB80003F000630693444BB3F90630079307F405
:103EC800805900265E4555D20DAB33F816C003B2B3
:103ED80007EE903A304B03EB061393ED007AF8EEB9
:103EE800E77A13B267EE877AFDEEE77A17EE90AAC3
:103EF8009A4503DB0BB25345A8BF53466344089F5A
:103F08009BB225F8023F1BB217B1B4F804C015E004
:103F1800B9F1000F10D0B8F810C0BEF806A0049F81
:103F2800CAEB0C0C674504DCB4F800C0BEF800A06E
:103F380006E0BEF802C001E0B4F800C0B4F802A080
:103F4800634503DB5345A8BF53469C46099BA5F828
:103F580000C06BB1059B5BB1B9F1000F08D1069B9E
:103F680033B9B8F81230079F9F42BCBFA3882B8093
:103F78000136A7E70E4B1A7802F0040202F0FF039D
:103F880032B30A49114F91F8EC31013BDBB2182BDF
:103F980000F23D8126E000BF940C0020681100204B
:103FA800A01500205C160020CC180020740B0020FF
:103FB800C82C0020C8180020811600206611002097
:103FC800B6170020F41500206024002054090020B2
:103FD8005B45D6D2C14A32F81310C14A22F81310F1
:103FE8000133F5E701229A40BE4B1340002B00F045
:103FF8000E81BD4BBD481B8813F4807F08D0BC4B95
:104008001A88ADF84C205A88ADF84E209B8815E0E8
:10401800B84B1A88ADF84C205A88ADF84E20B64AED
:104028009B881268ADF85030D20409D5D1F8E42144
:10403800B0F90640128A944202DA5B42ADF8503079
:10404800AE4DB5F902304FF47A7203F5E16353438C
:104058004FF4616493FBF4F3A3F5FA73ADF864309D
:10406800B5F9003003F5E1635A439D4B92FBF4F236
:104078001B88A3F2DC53A2F5FA72ADF85230D1F8DE
:10408800E431ADF866201B8A0288D21AADF85420B4
:104098004288D21AADF856208288D21AADF8582034
:1040A800C288D21AADF85A200289D21AADF85C201B
:1040B8004289D21AADF85E208289D21AADF8602002
:1040C800C289D31AADF862300023002227F81320E2
:1040D8000133082BF9D18A4A8A4B126804928A4A1A
:1040E8001B78126889490592894D072202FB031B38
:1040F800594572D00B7833B103F11502012393406F
:10410800049A134065D011F806CC059B11F805AC4C
:1041180011F8034C11F8018CCCEBCC0E03EB4E0ECE
:104128006420BEF90020BEF902309B1A9BB211F937
:10413800022C4FEA53095A434FEA4A0692FBF0F21F
:104148001AA8C9EB020292B2064414B936F81C0C3C
:104158000CE0B5F9000036F91C6CB04208DA0444EA
:10416800844203DBA6423046A8BF2046288008E0E8
:1041780007DD041BB44203DB8442A8BF044626467D
:104188002E80DEF80A4011F9046C012000FA0AF0CA
:104198002042288812B216FB00F014BF4FF0FF34FB
:1041A8000124642690FBF6F090420ADB4FFA88F26D
:1041B8005A4392FBF6F2C9EB020212B28242A8BF3E
:1041C8000246544B33F81C9002FB049423F81C401D
:1041D80000E02B80023507318AE74B4B4E4ED3F86F
:1041E800008000250E2202FB058236F8023F92F974
:1041F8000640E8B214FB03F3642493FBF4F4348020
:1042080008F0BCFC01352044082D3080EAD13A4B37
:104218003D4D1B6813F0200F32D0002008F0AEFC93
:1042280038800646012008F0A9FC354B394C1B683C
:1042380078801B0624D5394B304AD3F810321B78C6
:10424800012B20D12968138891F914E0B2F90220D2
:104258001EFB03FE91F906304FF0320C5B429EFBC9
:10426800FCFE1FFA8EFE53436FF0310293FBF2F20D
:104278007244B11893FBFCF37344218018446080A6
:104288002D68002318E0D5F800E053889EF9061041
:1042980011FB03F1322391FBF3F1314421801188A2
:1042A8009EF9142012FB01F292FBF3F21044E6E7A8
:1042B8000133082B3A5333D00E2101FB035137F950
:1042C8001300B1F90020B1F9021090424FEA4304FB
:1042D800EEDB0AB28242A8BF0246E9E7C42A002000
:1042E800B817002099209801F015002060240020BC
:1042F8005C1600205C170020A01500206416002022
:10430800F4150020D01800202C100020D718002009
:10431800620D00205409002052090020740B00206F
:104328000AF06EF908B10AF081F90A4B01221A72F3
:104338000AE006F049FB00283FF4DCAA4FF480535A
:10434800E3870A23FFF7D5BA1BB0BDEC028BBDE8A3
:10435800F08F00BF740B00202DE9F04F85B007F0F7
:104368004FFB8A4B1F78002F40F09D85884D2B68A6
:10437800590540F19885874B874CB3F8DE80237840
:10438800864E002B00F07B8132686368D31A7C2B41
:1043980040F27581237A62600133237207F12400A9
:1043A800DFF8F491C0B204F081FB09F10C0353F873
:1043B800273007EE903A7A4B1B88B8EEE77A07EE7B
:1043C800903AF8EEE77A0137C7EE277A9FED757ACB
:1043D80067EE877AFDEEE77ACDED007ABDF9000049
:1043E80004F052FB032FD9D1302004F05FFB0020EA
:1043F80004F04AFB04F053FB99F8087017F0030720
:1044080024D1D9F8042041F288339A420BD91020DC
:1044180004F04CFB384604F037FB212004F046FB3F
:10442800384604F031FB142004F040FB5E4BB3F92E
:1044380004000A2390FBF3F004F026FB1C2004F090
:1044480035FB002004F020FB04F029FB237A5A07EF
:1044580040F0F180022004F029FB4F4BB3F918001B
:104468000A2390FBF3F004F00FFB504B0320B3F941
:10447800067004F01BFB4E4B1B785B074FF00509D9
:1044880097FBF9F7BFB20BD54A48414605F0E8FD5E
:1044980020B92B6813F0100F18BF002738B205E0B9
:1044A800454B1B68D889B0FBF9F000B204F0ECFA70
:1044B8002B689F0740F18D80DFF80491678BDFF848
:1044C800FC8099F80010B8F800203F016423BFB2BF
:1044D80003FB02124B00B2FBF3F347EA0327BFB218
:1044E800C3F303231F43062004F0E0FA38B204F0B4
:1044F800CBFA638B99F8002001339BB293FBF2F15E
:1045080002FB1133E16963838B7B012B05D13920D1
:1045180004F0CCFAB8F9000021E0B8F800706E2376
:104528007B43152793FBF7F7CB7BBFB20BB197FB08
:10453800F2F73A2004F0BAFA4FF06409B7FBF9F839
:104548000FFA88F004F0A0FA09FB18773B2004F072
:10455800ADFAB8B2471D0A2097FBF0F000B204F09C
:1045680093FA282004F0A2FA236A0A2093FBF0F0B9
:1045780000B204F089FA042004F098FA0E4B1B6884
:10458800DB89FBB105F026F820E000BFC72C00202E
:10459800A0150020AC2400208C0D002080150020E0
:1045A8000800002000007A44641600205C160020F1
:1045B800C82C0020E026002044110020981100207B
:1045C80080010020C74B186880F3100000B204F087
:1045D8005BFA03A9C44804F02DFA132004F066FA24
:1045E800BDF90C0004F050FA1B2004F05FFABDF985
:1045F8000E0004F049FA232004F058FA4E2004F083
:1046080043FA03A9B84804F015FA122004F04EFA48
:10461800BDF90C0004F038FA1A2004F047FABDF985
:104628000E0004F031FA222004F040FA452004F08C
:104638002BFA04F034FA237A282B20D1AB4B3068BC
:1046480000221A724FF03C094FF47A73B0FBF3F86A
:10465800172004F02BFAB8FBF9F7B7FBF9F009FBC0
:104668001070000200B204F00FFA182004F01EFACD
:1046780009FB178000B204F007FA04F010FA94F866
:1046880024309A4F002B00F0B58008F089F8BB6AF7
:10469800974AC31A934280463CD9002387F82E30A4
:1046A80087F83030934B1B88DAB21B0A87F84A2008
:1046B80087F84B3087F8402087F84130BA6D336867
:1046C8009A1AFB6D197C4FF47A734B439A420DD3B7
:1046D800894B1B68BB65894B1B78013B012B9FBF2E
:1046E800102387F82E30022387F830307D4B226A5A
:1046F8001B68C4F828800A2192FBF1F293FBF1F3BE
:1047080084F8482084F84C3012121B1284F849208F
:1047180084F84D3094F860A0744FBAF1000F0ED1B0
:10472800B86E08F04AF9012809D90228DFF8D491AF
:1047380000F08D8304F070F9012389F80230E76EE8
:104748006A4B002F56D093F860203AB15A6F40F662
:10475800B731C2EB08028A4214D84BE0012283F831
:1047680060209A6F986E1278022A04D804300221C9
:1047780004F03CF902E0022108F016F9002384F85D
:104788007C3035E093F8702092B9DA6683F86020BF
:104798009A6F986E1278022A04D80430012104F026
:1047A80025F902E0012108F0FFF804F035F91FE0CF
:1047B800013AD2B283F8702093F87C1093F87D0008
:1047C8003AB901304A1C83F87D0083F87C20986E42
:1047D8000CE03A46013012F801EB83F87D000EEB4D
:1047E8000107986E83F87C70DA66714608F0E8F87D
:1047F800C4F8748094F87E2037683C4B002A00F097
:104808005981D3F88020002A00F0548193F884302D
:10481800013B012B00F24E81D4F88000DFF8CC80F8
:1048280008F0CBF8E0B1D8F8800008F0C3F898F8A1
:104838008530D6F800A07E2B81460ED102231B2896
:1048480088F8843009D1D8F8800008F0B6F820B983
:104858000123C8F888A088F88C3084F88590DBE7B5
:10486800D8F8882033689B1A41F6583293421FD9EA
:10487800032388F884301DE1214A32F8130010B967
:1048880003464FF403600133B0F5826FDBB200F0EA
:10489800E7807FD8B0F5007F00F0A88019D9B0F57F
:1048A800047F31D184F88D302B68980700F18E8011
:1048B80094F88C1094F88D30002900F0F980326853
:1048C800D21B012AD8D984F88D30002384F88C3083
:1048D800F0E0B0F5807F00F0A580B0F5887F00F0AB
:1048E800A180E9E748110020809698008C0D0020EF
:1048F8003F0D03009811002080150020841500202A
:10490800EA8A010808000020B0F5806FD4D184F845
:104918008D3094F894308F4A0133DBB2032B88BF73
:10492800012382F8943094F8941042F2107359439A
:10493800894B1B78D80748BF01319A0748BF023115
:104948005807864B1B8848BF0431DA0748BF0A312D
:10495800980748BF14311A0648BF2831D80548BF00
:1049680028315A0748BF6431180748BFC8319A052B
:1049780048BF01F5C871980648BF01F57A71DA0693
:1049880048BF01F5FA61580648BF01F57A614FF44E
:10499800806086E0B0F5E26F5BD009D8B0F5C06FF3
:1049A80037D0B0F5E06F87D184F88D30E16853E0F7
:1049B800B0F5046F3FD0B0F5116F64D0B0F5E46F77
:1049C8007FF47AAF84F88D30616945E0614BD3F8A4
:1049D8009030DA7B624B1B881AB1624A117893FBDC
:1049E800F1F30A214FF4047059432CE084F88D3018
:1049F8002B68DFF8608119057FF55AAFD8F82030A9
:104A08000A2193FBF1F103F0BDFF002388F88C30F5
:104A18004EE784F88D302B681A057FF549AF524B65
:104A280019683EE084F88D30504B1B685B077FF5B2
:104A38003FAF002135E084F88D304D4BB3F90410B9
:104A480001EB8101490003F09DFF002384F88C30BD
:104A58002EE7216984F88D302C2391FBF3F1F2E7DE
:104A680084F88D30414B1B6813F020087FF420AF89
:104A78002B681A067FF51CAF414603F083FF354BC0
:104A880083F88C8014E784F88D302B689B077FF5BA
:104A98000FAF334B334A19880A234B43117893FBE2
:104AA800F1F103F06FFF2B4B002283F88C20FFE617
:104AB80084F88D3094F89530264D002B00F0AE80A8
:104AC800D5F89830002B00F0A9803668D5F89C30CE
:104AD800F31A632B40F2A280DFF89480412003F0A0
:104AE80038FF0A27B8F9020090FBF7F080B203F00C
:104AF80027FFB8F9000090FBF7F080B203F020FF21
:104B0800B8F9040090FBF7F080B203F019FF03F046
:104B1800FDFE95F8A05015F001055AD10F4B1B88E2
:104B2800D90528D4DA060DD49F060DD458060DD41D
:104B380019070DD4DA071DD413F0020F14BF03258B
:104B4800012518E00D2516E0092514E0042512E0DA
:104B5800082510E08C0D0020C82C0020F01500203E
:104B6800981100208001002048110020881500209D
:104B7800641600200225CD4B1F78CD4BDB78C7F398
:104B8800800713B147F00207FFB2532003F0E1FE9C
:104B9800C84B188800EB800000EB8000800080B2D2
:104BA80003F0CEFE002003F0CBFEB4F8A200FE23F3
:104BB800584340F2FF3390FBF3F0C0B203F0B0FE6D
:104BC800002003F0ADFE47EA850003F0A9FE03F0DC
:104BD8009DFE94F8A030A3B94F2003F0BAFE0BF065
:104BE80081FC0BF07FFC0BF07DFC012003F098FEAC
:104BF800B14B93F8A40000F0010003F091FE03F01C
:104C080085FE94F8A030C4F89C600133DBB20A2119
:104C1800B3FBF1F201FB123384F8A030A74D95F8ED
:104C28000080B8F1020FA94640F0F98007F0B8FDFE
:104C3800A34B1F6840F6B833C71B9F4207D9002310
:104C48002B70B4F8A6300133A4F8A6302BE19D4DA3
:104C58002B793A2B40F0F7802846A97804F034FDE8
:104C6800002840F0F080934B974E1B88F361236A2D
:104C7800F362964BD4F8A8A01B68F364B4F8A63086
:104C8800F063F766F365504608F03BF8DFF828B2A2
:104C98000746002840F0C3805046414607F084FE8E
:104CA800042386F874309BF8AC3095F803A0DFF83D
:104CB8003082642B4BD19BF8AD30072B08BF8BF8A3
:104CC800AD7094F8AD5006EB051303F1040B596869
:104CD8000191084610F039F8DBF804300093C7B2A8
:104CE800184610F032F85FFA80FB07EB0B02083227
:104CF80088F8072025F00F0288F80A2005F00F022F
:104D080088F80D200BEBC70288F80E20019970482F
:104D18003A460FF0B1FF009B07F109006D4F1946A5
:104D28005A4638440FF0A8FF98F807B058460BF0D9
:104D3800BDFB7A1C02F80B0050460BF097FB0023D2
:104D480084F8AC306B1C84F8AD3000234FE096F843
:104D58007550614A2B0704BF0135EDB2072D4FF09E
:104D6800000328BF012588F80A30174628013118A2
:104D780002F1010E0B7CC96840EA030C82F800C0FE
:104D8800DFF860C11CF80320012A0EF1010306D9DF
:104D9800013A03F8011C9E46090AD2B2F4E73044EE
:104DA8000135407C21F06001EDB20143082D1A461F
:104DB8008EF8001009D0444800EB0510D91B007C80
:104DC8001CF8000001441329D0DDDF1B0637FFB2B1
:104DD80047F0400388F8073038460BF067FB3F4B35
:104DE80086F87550D85550460BF040FBADE798F85B
:104DF80002205D1CDBB29A4207D9394AD4F8A800D0
:104E0800D15C07F0DDFD2B46F1E794F8AC300322C6
:104E1800013386F8742084F8AC3089F800202A4DD4
:104E280095F87430032B3ED1D4F8A80007F0BFFDE5
:104E3800002838D0204B0121D3F8A80007F0B4FD92
:104E4800022385F87430002389F800302BE099F8A4
:104E5800023023B1C7F8648089F802A06FE47B6E42
:104E6800C3EB0803B3F57A6FFFF469AC0123B86E9E
:104E780089F8023007F09EFD8146B86E07F09AFD6A
:104E880019F07F0F7FF45BAC8E287FF458AC97F84D
:104E98006030002B7FF453AC07F12C03FB662D2305
:104EA80087F870304BE405B0BDE8F08FC82C0020BF
:104EB800AC150020981100208C0D0020AF100020A8
:104EC800E8100020DC100020080000204811002015
:104ED800932400208A240020912400208B24002081
:104EE800842400205B8B0108FF207047012380F891
:104EF80045307047014B1868C0B27047582C0020E5
:104F08000120704770477047074A13689B050AD508
:104F1800064B0021197001684FF6FE730B400360C1
:104F28004FF400735360704700000240C62C002005
:104F3800054B1A7802F0FF0122B10122027000220B
:104F48001A707047017070473C0E0020F8B5094C84
:104F58004FF480550E461746258540F080000BF02B
:104F68005BF93846002132460BF072F9A561012041
:104F7800F8BD00BF0004004870B5064C4FF48055DA
:104F88000E4625850BF048F930460BF045F9A5612A
:104F9800012070BD00040048F8B590F84440002393
:104FA800064680F84430E4B1104A1068E0B112684F
:104FB800052A18D10E4B1F681D460E4B1B682BB9CE
:104FC80006F13000214608F01AFF00E00020A04258
:104FD80003D02B68DB1B312BEFD9031B58425841F8
:104FE800F8BD0120F8BD1846F8BD00BFB02C002060
:104FF800801500209C2C0020002280F84520CBE75B
:1050080090F84420531C0244DBB280F8443082F804
:10501800301090F845200AB1132B00D9BCE770472F
:10502800F8B50F4B14461A680E46BAB11B68052B23
:1050380014D10C4B1F681D46002C0FDD0A4B1B6852
:1050480023B93046E1B208F0DAFE00E000202B6810
:10505800DB1B322BA4EB00040644EDD9F8BD00BFDE
:10506800B02C0020801500209C2C0020F7B51C4B8C
:105078001A680AB91C6800E001241A494E7800220F
:10508800D0B2A04202F1010207D202AD2F18164D8C
:105098003544285C07F8040CF2E71A68121B1A60FA
:1050A8004A781D6822444A709DB90320402103F0C4
:1050B800A7FE0E4A136823F4804323F070039BB2C3
:1050C80083F4405343F4004343F080031360054BDB
:1050D8005D70002CCBD09DF8040003B0F0BD00BF7C
:1050E800582C00203C0E00205C2C00200C5C00405A
:1050F80008B50AF0C4FE024B4FF400621A8008BDDE
:105108000800002008B50AF0BAFE074B5B7813B117
:10511800012B03D008BD4FF4806201E04FF4006218
:10512800024B1A8008BD00BFB80500200800002007
:10513800F7B5514E05460AF0A2FEB778002F70D198
:105148004E4C238823F040031B041B0C2380238828
:1051580023F038031B041B0C43F0300323802388FF
:105168009BB243F04003238080216B20FFF704FFAC
:10517800962007F03CFB03216820FFF7FDFE9620F0
:1051880007F035FB03216B20FFF7F6FE0F2007F031
:1051980023FB10216A20FFF7EFFE0F2007F01CFB0E
:1051A80039466C20FFF7E8FE0F2007F015FB344B5B
:1051B80019201978FFF7E0FE0F2007F00DFB1821E2
:1051C8001B20FFF7D9FE0F2007F006FB18211C2033
:1051D800FFF7D2FE0F2007F0FFFA10213720FFF764
:1051E800CBFE0F2007F0F8FA01213820FFF7C4FEA4
:1051F8000F2007F0F1FA238823F040031B041B0C4F
:105208002380238823F038031B041B0C2380238866
:105218009BB243F040032380012007F0DDFA01230D
:10522800B370164A138823F040031B041B0C138029
:10523800138823F038031B041B0C43F0300313803E
:1052480013889BB243F04003138029461A20FFF7C6
:1052580093FE012007F0C0FA68460AF0FFFC9DF9AA
:105268000230013306D19DF90030013302D1062006
:1052780007F04AFB03B0F0BD3C0E002000380040A8
:10528800CC05002070B5164C05460AF0F8FDA36859
:1052980080216B209847642007F0A9FAA3680321AE
:1052A8006B2098470F4AA3681178192098470F2058
:1052B80007F09DFAA36829461A209847A368182181
:1052C8001B209847A36818211C209847A36802212F
:1052D80037209847A36838200121BDE87040184757
:1052E800BC050020CC05002010B50A4B0A4A1B78E3
:1052F80042609C18094A046012789A4225BFD31A62
:105308000B60C3F1800300232EBF4B600B604A6023
:1053180010BD00BF191300201A1300201813002015
:10532800054A064B10781B7883422EBF181AC0F125
:105338008000C018704700BF191300201813002000
:105348000F4B73B518781C4698B105230D4D8DF891
:1053580000304FF4805600238DF8013001A82E85C7
:10536800694602220AF074FFAE619DF8050000F05C
:10537800010000F00100207080F0010002B070BD53
:105388002109002000040048064B70B51D68064638
:105398001C46FFF7D5FF18B923685B1BB342F8D941
:1053A80070BD00BF801500202DE9F04F89B08246FE
:1053B80001930023029103929946039A934205DAD6
:1053C800029A52F8232001339144F6E7019B4D4697
:1053D800002B56D1FFF7B4FF002852D101987CE08A
:1053E80002223F4E8DF81C201A0C4FF480578DF87E
:1053F8001D2006201A0A8DF81E208DF81F30FFF791
:10540800C3FF378506200AF007FF364BB761012234
:105418001A700020378507A904220AF019FF029F95
:10542800D04626464FF0000B039B9B451EDABC4630
:1054380057F8042B4FEA8B03002A47D0B24235D3E2
:1054480032465AF80310CDF814C0002004930AF02D
:10545800FFFE049BDDF814C05AF8032032444AF8D2
:105468000320DCF800309E1BCCF800601C4B4FF486
:1054780080529A611C4A13682D1B1C44019B1460BE
:105488004BB345B3184B1B68DCB22A19B2F5807FC1
:10549800164AD2688CBFC4F580742C4693429FD3B9
:1054A800134A00231370134A137014E00020D8F82D
:1054B80000100AF0CDFE57F8043CD8F80020F61A80
:1054C8001344C8F80030002347F8043C0BF1010BE3
:1054D80008F10408A8E7C5EB090009B0BDE8F08F9A
:1054E800000400482109002024090020840000202D
:1054F800181300201913002038B50E4C4FF48055AE
:1055080045F20820FFF740FF258506200AF084FEB3
:10551800094BA56101221A70C72025850AF07CFE77
:10552800064AA56100231370054A1370054A1360E3
:1055380038BD00BF000400482109002018130020CE
:105548001913002024090020F7B503238DF804302F
:10555800030C8DF805308DF80700030A06200F4666
:1055680014468DF80630FFF70FFF78B1084D4FF459
:105578008056002001A904222E850AF069FE3846CB
:10558800002122460AF064FEAE61204603B0F0BD59
:10559800000400482DE9F047664D6B6866490A78B3
:1055A800581C02F0FF068E460AB10346F6E76B6008
:1055B800687CEB6895F81080AA7C374639B22029B8
:1055C80000F09B80DFF880C10CEB81033CF82110D0
:1055D800DC789B78C3F1FF039BB2002B65D0C3F145
:1055E800FF0363434FF03C0C1B12B1FBFCF9B9F10C
:1055F800050F5DD8DFE809F0030B1A293A4AE01ACB
:10560800DAB24143B1FBFCF01044C0B251E0B1FB47
:10561800FCF00CFB101189B2DAB2C1F13C01E31ABB
:105628004B432046B3FBFCFC94442CE0B1FBFCF05C
:105638000CFB10115FFA83F8E21A89B24A43B2FBF5
:10564800FCF24244D2B2204632E0B1FBFCF90CFB3A
:10565800191189B25FFA83F8E01AC1F13C01484395
:10566800B0FBFCF04044C0B2224621E0B1FBFCF89C
:105678000CFB1811D8B289B2E31A01FB03F2B2FB92
:10568800FCFC224684445FFA8CF412E0B1FBFCF87F
:105698000CFB181189B2D8B2C1F13C01E31A4B4393
:1056A800B3FBFCF20244D2B203E02246204600E0FB
:1056B80044464FEA042C4CEA004C4CEA020C1723EF
:1056C80006F117014FF0010808FA03F8C91A18EA99
:1056D8000C0F89B2DFF8748014BF4FF011094FF036
:1056E800090913F1FF3308F80190E9D21836013798
:1056F800B6B2BFB2114BA04660E7AA74EB60104A7D
:10570800698101238EF800300E4985F8108040F237
:105718002A3368742E81536000234B620B889BB236
:1057280043F001030B80136843F001031360BDE8E5
:10573800F08700BF3C0E0020C62C00204C0E002035
:105748003000024000440140420F0020D8050020EC
:1057580010F80A3C0133DBB20A2B84BF10F8131C83
:10576800044A00F80A3C82BF002322F8113000F8EE
:105778000A3C70479C140020334A136C9068194403
:10578800081A40F68C23984270B513469160D06091
:1057980051603BD9127893F945108A4210460BD1D3
:1057A800111F082908D893F84610182901D8013183
:1057B80003E083F8442002E0002183F8461093F9BF
:1057C80044402149A24219D191F84740B4B10C3163
:1057D8000024944206DA1D4D51F8046F25F8146030
:1057E8000134F6E70C2805D01849002421F81040A8
:1057F8000130F7E7164801780131017083F8452038
:10580800002201211A7083F8471070BD92F84710E2
:10581800C9B1A0F2EF2440F2DA518C4208D81178CD
:105828000B2905D80B1D0131117042F8230070BDFA
:10583800002283F84720074B03F13002002143F888
:10584800041F9342FAD170BD600400209C1400200C
:105858004E2200206C040020024A136C01331944C4
:105868001164704760040020074B53F82030A1F5FD
:105878007A711A684EF661235943044B91FBF3F190
:105888003C311160704700BFD017002090D0030052
:10589800024B53F820301B6819607047D01700205E
:1058A800034B53F820301B6801EB41011960704726
:1058B800D0170020024B53F820301B68196070473E
:1058C800D0170020064B53F820301A681B89A1F521
:1058D8007A7159434FF47A7391FBF3F11160704771
:1058E800D0170020F0B5046D8668236823F0010303
:1058F80023608379054613F0020F40790CBF4FF0FF
:10590800000E4FF4005E13F0040F14BF4FF48067CD
:10591800002710F0010F14BF04210021830720681D
:1059280020F001002060626822F440524EEA020230
:105938006260226822F4B05323F00C0348BF41F0A0
:1059480008013B430B432360A36895B023F44073DD
:10595800A360684603F0FEFB284B9C4201D10C9BD8
:105968000EE0274B9C4201D10D9B09E0254B9C4240
:1059780001D10E9B04E0244B9C420CBF0F9B109B53
:105988002268A879170448BF5B00B3FBF6F206FB50
:105998001233B3EB560F236828BF01321E0441BFF0
:1059A8004FF6F073C2F34201134041EA03026B79E8
:1059B80092B213F0020FA28100F0010114BF4FF45C
:1059C80000320022DC0748BF42F480322B6D11B14F
:1059D80059680A4302E0596821EA02025A609A6843
:1059E80001074CBF42F0080222F008029A601A68C8
:1059F80042F001021A6015B0F0BD00BF0038014046
:105A08000044004000480040004C00403D4B1B78DB
:105A1800012B30B514BF00240324B1B9036A23F065
:105A2800010303628169036A21F0F30123F00A0389
:105A380041F0010142F001021A4341EA0411816177
:105A48000262836923F00C031BE004291DD1016A5B
:105A58004FF6EF730B4003628169056A120121F466
:105A680073414FF65F7342F0100241F480712B408E
:105A780092B2134341EA043181610362836923F4DA
:105A8800406383618369836130BD0829016A1AD143
:105A98004FF6FF630B400362C169036A9BB289B288
:105AA80023F4206343F4807321F0F30143EA0222D4
:105AB80041F0010192B241EA0411C1610262C26976
:105AC8004FF6F37319E04EF6FF730B400362C36998
