:020000040800F2
:1000000000A000206D290108A1DF000819FB0008ED
:100010009FDF00089DDF00089BDF00080000000054
:1000200000000000000000000000000099DF000850
:1000300097DF00080000000095DF00080F9D000812
:10004000D5290108D5290108D5290108D529010894
:10005000D5290108D5290108D5290108D529010884
:10006000D5290108D5290108D5290108D529010874
:10007000999C0008859C000873C80008D5290108D0
:10008000719C00085F9C0008D5290108D52901084A
:1000900081E00008D5290108D5290108D5290108E2
:1000A000CDEA0008F9EA0008BDEA000809EB0008FB
:1000B000EDEA0008DDEA0008D5290108D529010884
:1000C000D5290108D5290108D5290108D529010814
:1000D000D529010819ED00080DED000801ED000813
:1000E0001D9D0008D5290108711B0108D5290108AB
:1000F000D5290108D5290108D5290108D5290108E4
:10010000000000000000000000000000D5290108E8
:10011000D5290108D5290108D5290108D5290108C3
:10012000D5290108D5290108D5290108D5290108B3
:10013000D5290108D52901080000000000000000B1
:10014000D5290108D5290108D5290108000000009A
:10015000000000000000000000000000000000009F
:100160000000000000000000D5290108D529010881
:10017000D529010800000000000000000000000078
:0801800000000000D529010870
:100188002DE9F04FA14BAFB01C780093002C00F084
:10019800E8809F4B1868002801F0468606F00CFF9F
:1001A8009C4C206809F017FE002801F03D86206865
:1001B800994C09F00DFE092801D03F2849D14FF08C
:1001C80000082668954F45462EB19548396832464D
:1001D80014F04CFD10B9B84605B93D46914B10379F
:1001E8009F42F1D3C5B1D5F800E0D8F800C0236824
:1001F8001EF803701CF80300B8420DD15A1C884938
:1002080038B92D2B05D8844F3A602027CF5488540D
:1002180002E0CF542260EAE723680BB145450FD0CE
:10022800814810F0D7FA454507D855F8100B10F05B
:10023800D1FA092010F06EF9F5E70AF099F80026CE
:1002480023689E42ACD2764B985D10F063F9013674
:10025800F6E72368002B41F06C85042841F0BD8542
:100268006F480AF003FF01F0DFBDD9F80000DFF89E
:10027800E4A109F0B0FD00285ED0DAF8000009F02A
:10028800A7FDDBF8003093F848100246002940F03B
:100298008380242840F0E080012283F84820DBF89E
:1002A800003093F848A0BAF1060FDED193F8490060
:1002B8004D2800F0DF8500F2D781322800F0008653
:1002C80000F26D81242800F0898500F21F8103283F
:1002D80000F09A8240F2F880052840F00A811A203E
:1002E80010F0B6F84FF00008504B13F8080008F16A
:1002F800010810F076F8B8F10B0FF5D14FF00008AF
:100308004B4B13F8080008F1010810F06AF8B8F12F
:10031800080FF5D14FF00008464B13F8080008F114
:10032800010810F05EF8B8F1070FF5D106F0D6F91C
:100338002B68002283F84820306806F03DFE3E4BCB
:1003480093F834304BB138590AF020F809F0CCFD55
:100358000DF00EFD394B3A4ADA604C34982C01F016
:100368006385384FE359E219002BF6D0DFF8E480B3
:10037800354DC8F80030079300238DF82130334EEF
:100388002A601423324A8DF8203006AB0692336077
:10039800AB46C146019268E7012904D14D2814BF34
:1003A8000022022279E7022904D13C2814BF002246
:1003B800032272E703290CD140284FF0000102D92B
:1003C80083F848106BE758711971D9719871042234
:1003D80063E7042906D1997983F849004A409A715C
:1003E80005225AE705297FF45AAF587919798842C6
:1003F800987906D950409871481C18710B441A72A4
:100408004DE790420CBF0622002246E77B340020CD
:100418009C2C0020E82C00207820002088710108FE
:1004280048200020887301086F860108D7860108D4
:10043800E3860108EC8601082C09002000ED00E0A5
:100448000400FA056432002000120020942C0020D9
:10045800EB9D000804120020DD490B7803F004032B
:1004680003F0FF0E002B7FF41AAF232ADAF80000FE
:100478001DD10292009A039101231370D54B019A62
:100488001860D54B1860986010201873D3485A60CC
:1004980083F80DE004330360D14810F09BF909F0AC
:1004A80067FF0399029A0B7843F002030B70CD4B58
:1004B8001B681B78934201BFCB4BCC4A1A60CC4BCC
:1004C80004BFCC4ADA60EAE6012800F07481022809
:1004D80040F05A8604200FF0BBFF42200FF081FF46
:1004E80054200FF07EFF46200FF07BFF4C2000F0D9
:1004F80030BEC0F09381222840F04686DFF8FC82A7
:1005080050200FF0A5FF08F1500931E32A2800F028
:100518008F841AD8262800F06784282840F034866B
:10052800DFF8D88207200FF093FFB8F81A020FF00F
:1005380092FFB8F81C020FF08EFF98F81E020FF019
:1005480050FFB8F8200200F0B9BD2E2800F006854B
:10055800302800F033852C2840F01686DFF89C827E
:100568000C200FF075FF98F83C020FF03AFFB8F82E
:1005780048020FF070FFB8F844020FF06CFFB8F8AB
:1005880046020FF068FF98F83E020FF02AFFB8F80D
:100598004E020FF060FFB8F8500200F08FBD4028FF
:1005A80000F0958425D8382800F02E8413D83428F4
:1005B80000F01E83362840F0E785874BDFF83C8241
:1005C80093F83000C0EBC000C0B20FF041FF08F153
:1005D800200900F0BFBC3B2800F0C3823D2800F092
:1005E8004F823A2840F0D08504200FF031FF00F008
:1005F8004DBD462800F00A850CD8422800F07984C1
:10060800452840F0C18513200FF022FF4FF0000865
:1006180000F02FBD492800F03F824B2800F00E84DF
:10062800472840F0B1850FF0D3FE814684200FF0B3
:100638000FFF48460FF018FF6F4BDA6809F1800387
:1006480093428CBFC9EB02084FF080080DF1380ABD
:100658000BF0EAFB48464246514606F0E9FF4FF0E8
:100668000008814600F0E9BC702800F052825BD88F
:10067800672800F03D8135D8522800F0F58419D854
:100688004F2800F0E484502840F07E85DFF86C8124
:1006980004200FF0DDFE01200FF0A3FE98F8FD0402
:1006A8000FF09FFE98F8FB040FF09BFE98F8FC04EF
:1006B80000F04FBD652800F0C18000F2E880642892
:1006C80040F0628507200FF0C3FEE7200FF089FE97
:1006D8004A4B58790FF085FE00200FF082FE042067
:1006E80000F0D5BC6C2800F08B8111D8682800F088
:1006F8006A81692840F04885DFF8049199F800007C
:10070800400000F0FE000FF0A3FE4FF000086AE181
:100718006E2800F0888100F2C58106200FF098FE4F
:1007280000200FF0A1FEE1E07C2800F0B4841ED880
:10073800742800F082820BD8722800F0EF827328A8
:1007480040F0228508200FF083FE4FF001081BE3DC
:10075800772800F0BC82782800F0DA80752840F00D
:1007680013852F200FF074FEDFF89880F1E1A028A0
:1007780000F0268309D87E2800F0B484C0F0A28453
:10078800962840F001850C2059E0F12800F0F3800C
:10079800FE2800F00483F02840F0F684DFF85C803F
:1007A80004200FF055FEB8F8F2010FF054FEB8F827
:1007B800F00100F083BC03200FF04AFE00200FF088
:1007C80010FE01200FF00DFE102000F0C2BC00BF8B
:1007D80079340020E82C00202C0900209C2C0020D3
:1007E8009F86010808330020FC9F0020EFBEADDE85
:1007F80000ED00E00400FA05E0000020582D00207C
:10080800003300203F6501080FF022FE02200FF0A0
:10081800E8FD50460FF0E5FD00F029BC06200FF07A
:1008280017FE4D200FF0DDFD4F200FF0DAFD5420AC
:100838000FF0D7FD4F200FF0D4FD57E00B200FF03D
:1008480007FED94B18880FF006FE0BF027FE0FF0B5
:1008580002FED64B1B68C3F3C000C3F380028000BE
:1008680040EA4200C3F340021043C3F3401240EA97
:10087800C20003F0100318430FF0EDFD05F072FEFF
:100888000FF0F2FDCA4B93F8500400F062BC12203E
:100898000FF0DEFDC74B1B88B3F5806F8CBF4FF0A0
:1008A80008094FF001094FF00008C34B53F828001E
:1008B80090FBF9F008F1010880B20FF0CCFDB8F117
:1008C800030FF2D1DFF81C83B8F800000FF0C3FD66
:1008D800B8F804000FF0BFFDB8F808000FF0BBFD32
:1008E80000200FF0B8FD00200FF0B5FD0020E5E373
:1008F80010200FF0ADFD4FF00008B04B13F80800C2
:1009080008F101080FF06DFDB8F1100FF5D10DE5F4
:100918007020DFF89C820FF09BFD4FF00009C24663
:10092800B8F856010FF097FDB8F858010FF093FD8D
:10093800B8F85A010FF08FFD98F85C010FF051FDDF
:1009480098F85D010FF04DFD98F85E010FF049FD34
:1009580098F85F010FF045FD0E2303FB09A309F189
:100968000109D3F860010FF07FFDB9F1080F08F114
:100978000E08D5D1DAE47020DFF834820FF068FD74
:1009880008F1700998F8E6000FF02BFD98F8E700D9
:100998000FF027FD98F8E8000FF023FD98F8E9001C
:1009A8000FF01FFD98F8EA000FF01BFD98F8EB0018
:1009B8000FF017FD08F1070898F8E5000FF011FD92
:1009C800C845DFD1B2E410200FF042FD4FF0000817
:1009D8007B4B13F8080008F101080FF002FDB8F18D
:1009E800100FF5D1A2E499F800309845BFF49EACF9
:1009F800744B33F818000FF02EFD08F10108F2E7E8
:100A0800DFF8E48150460FF023FDB8F800000FF03E
:100A180022FDB8F802000FF01EFDB8F904300A20D4
:100A280093FBF0F027E007200FF012FD664B1888C3
:100A3800FF28A8BFFF20C0B20FF0D3FC634B186893
:100A48004FF6FF784045A8BF404620EAE07080B2E4
:100A58000FF001FD5E4B18880FF0FDFC544B93F826
:100A68001F225C4B186842B10A2358434045A8BF6F
:100A7800404620EAE07080B220E300F30F00FAE776
:100A8800DFF82C8102200FF0E3FC98F889020FF0C0
:100A9800A8FC98F888025CE302200FF0D9FC4E4BC2
:100AA80018880BE3DFF844810B200FF0D1FCD8F84D
:100AB800003018780FF095FCD8F8003058780FF00F
:100AC80090FC4FF0000AC146D9F80030DFF81C81CD
:100AD80053440AF1010A18790FF083FCBAF1030FA5
:100AE800F2D1D8F80030D8790FF07BFCD8F8003074
:100AF80098780FF076FCD8F80030D8780FF071FCB1
:100B0800D8F8003058890FF0A6FCD8F80030187AC9
:100B18001FE31E200FF09CFC4FF00008DFF8BC908C
:100B2800D9F80030434458780FF05BFCD9F800300E
:100B38004344D87A0FF055FCD9F80030434408F103
:100B48000108587D0FF04DFCB8F10A0FE6D1FFF708
:100B5800EDBB18F8010F00283FF4E8AB0FF041FC9B
:100B6800F7E701200FF074FC1C4B1B681878F0E2C3
:100B780098F851241A4B0C2101FB023308F10408A0
:100B880093F838000FF02DFC98F84E040FF029FC6C
:100B980098F84F040FF025FC98F850040FF021FC4A
:100BA800C845E5D1FFF7C2BB76340020D82C002019
:100BB800582D002008000020D40D00204C090020EA
:100BC800181E00200C2D00207C1100202C11002064
:100BD8006A0E0020E80D0020982C002080200020BC
:100BE80040650108F41B0020201C0020880B002011
:100BF8005A20DFF8B8830FF02BFC08F15A0998F84F
:100C0800A6040FF0EEFB98F8A1040FF0EAFB98F8A1
:100C1800A2040FF0E6FB98F8A3040FF0E2FB98F8A3
:100C2800A4040FF0DEFB08F1060898F89F040FF003
:100C3800D8FBC845E3D1FFF779BB4FF000094FF067
:100C4800010B4FF00008D24B1B78984534DAD14B92
:100C580018F803004FF0000ACF4901910C2301F165
:100C6800300E03FB0AF313F80EE0864509D10B4456
:100C7800586B13F0F2FF0146BBF1000F07D15B463A
:100C880007E00AF1010ABAF11F0FE5D111E081442A
:100C98000FE08B420DDA019A03910C2000FB0A2029
:100CA8000293406BC05C0FF09CFB029B03990133DD
:100CB800EFE708F10108C6E7BBF1000F3FF436ABD8
:100CC8005FFA89F00FF0C4FB4FF0000BB9E7DFF8CB
:100CD800C09299F800000FF0BBFB4FF0000899F89C
:100CE80000309845BFF422ABAA4B18F803E0002166
:100CF800A9480C2200F1300C02FB01F313F80C2078
:100D0800724505D1034493F838000FF06AFB02E0FE
:100D180001311F29ECD108F10108E0E7DFF88C82E6
:100D280016200FF095FBB8F844020FF094FBB8F8C2
:100D3800D0000FF090FBB8F8D2000FF08CFBB8F899
:100D4800D4000FF088FBB8F89A020FF084FB00205B
:100D58000FF047FB00200FF044FB00200FF041FB91
:100D680098F81F020FF03DFB98F840020FF039FB8E
:100D780000200FF036FBB8F9EE310A2093FBF0F0B3
:100D880080B20FF068FB44E05FFA88F008F10108D0
:100D98000FF027FBB8F1090FF6D1FFF7C7BA082003
:100DA8000FF056FB4FF000087C4B33F8180008F1A1
:100DB80001080FF050FBB8F1040FF5D1FFF7B6BAF0
:100DC8000C200FF045FB764B18680FF04DFB754B68
:100DD80018680FF049FB744B186858E104200FF0AD
:100DE80037FB724B986852E1DFF8C08106200FF09C
:100DF8002FFBB8F8CC010FF02EFBB8F8D0010FF09C
:100E08002AFBB8F8D40159E104200FF021FBDFF8E0
:100E18009C8198F812020FF0E4FA98F816020FF085
:100E2800E0FA98F815020FF0DCFA98F8170290E14A
:100E380001200FF00DFB5D4B58798AE1DFF86C81DA
:100E480008200FF005FB98F898020FF0CAFA98F8F6
:100E580099020FF0C6FAB8F89A020FF0FCFA98F85F
:100E68009C020FF0BEFAB8F89E020FF0F4FA98F858
:100E7800A0026EE1DFF83C81DFF83C9198F80000B1
:100E880000EB4000C0B20FF0E3FA4FF0000A98F808
:100E980000309A4509F10209BFF448AA19F8020C72
:100EA8000FF09FFA19F8010C00EB800000EB8000AE
:100EB80000F2EE2080B20FF0CEFA0AF1010AE6E75E
:100EC80001200FF0C5FA394B93F8400241E10820A0
:100ED8000FF0BEFA4FF00008344B434408F1010804
:100EE80093F834020FF07DFAB8F1080FF4D1FFF748
:100EF8001DBADFF8B88010200FF0AAFA98F805009C
:100F08000FF06FFAD8F808000FF0AEFA98F83C0224
:100F18000FF067FAB8F8CC010FF09DFAB8F8D001D5
:100F28000FF099FAB8F8D4010FF095FAB8F81A0248
:100F38000FF091FAB8F81C02C0E01D4AD25C90424A
:100F480000F00B810C33302BF7D108F10808C845A5
:100F58003FF4ECA998F8A4020023EEE74020DFF85C
:100F68004C800FF075FA08F14009B8F858030FF0F3
:100F780072FA98F85A030FF034FA08F1040898F84E
:100F880057030FF02EFAC845EFD1FFF7CFB900BFCE
:100F9800E0110020E1110020406501084C110020FB
:100FA800ACF7FF1FB0F7FF1FB4F7FF1F582D002045
:100FB8000C33002000330020AA2F0020E020DFF8A7
:100FC800FC830FF045FA08F18009B8F8DA0200F05E
:100FD8003F000FF040FAB8F8DA02C0F386100FF0BD
:100FE8003AFA98F8D80200090FF0FBF998F8D802F5
:100FF80000F00F000FF0F5F908F1040898F8D50291
:101008000FF0EFF9C845E0D1FFF790B90D200FF0C8
:101018001FFA06F009FADFF8BC8340F00200C0B2FC
:101028000FF0DFF9B8F800000FF01EFAD8F80C003E
:101038000FF01AFA0AF04EFF29E0C845BFF676A964
:101048001AF808000FF0CDF908F10108F5E70B20B0
:101058000FF0FEF900200FF0C4F900200FF0C1F9DD
:1010680000200FF0BEF90EE001200FF0F1F900208A
:101078006FE0D04B13F8080008F101080FF0B1F940
:10108800B8F10B0FF5D100200FF0EEF900200FF0AA
:10109800EBF9FFF74BB9DFF8248308200FF0D8F9F4
:1010A800B8F8D8000FF0D7F9B8F8DA000FF0D3F98C
:1010B800B8F8DC000FF0CFF9B8F8DE000FF0CBF984
:1010C800FFF734B9DFF8F48203200FF0C1F998F87C
:1010D80022020FF086F998F823020FF082F998F8A7
:1010E800240236E0DFF8D48203200FF0B1F998F833
:1010F800C7010FF076F998F8C8010FF072F998F85F
:10110800C90126E040F20C84F32840F063850FF013
:101118004BF9FF288246DFF8C09240F08F844FF0E9
:10112800000809F138004146602289F8358013F03B
:1011380051FD8DF816809DF8163099F89A20DFF841
:1011480098829A4200F2278401200FF081F998F8DA
:1011580035000FF046F9FFF7E9B80FF042F9B8F893
:10116800A6020FF078F998F8A8020FF03AF998F863
:10117800A9020FF036F998F8AB020FF032F998F897
:10118800AA020FF02EF9E0E64E2828D10FF00CF94C
:101198001128814602D910F05BF838E0DFF81C828C
:1011A8000FF002F909F5927908EB490398720FF0EC
:1011B80005F940F2ED23984205DD40F6CA0398424E
:1011C800A8BF184601E040F2EE2008EB4908A0F25B
:1011D800EE20192390FBF3F088F80B0017E01BD9D9
:1011E800D42800F0218200F28983CD2800F04C82B7
:1011F80040F25482D02800F01B8340F22583D22885
:1012080040F074836C4B1B785B0740F164830020CB
:101218000FF01EF9FFF78AB8352824D10FF0C4F86B
:101228000E288146B7D80FF0BFF80328B3D8634B10
:101238004FF0060808FB093888F8A6040FF0B4F840
:1012480088F8A1040FF0B0F888F8A2040FF0ACF801
:1012580088F8A3040FF0A8F888F8A4040FF0A4F8FD
:1012680088F8A504D3E700F2FA802B2804D10FF000
:101278009BF8524B5871CAE771D8252807D14F4BB4
:1012880000229A600FF0A4F80CF06AFDBFE73FD87F
:10129800232840F04A850FF087F8132880463FF648
:1012A8007AAF0FF081F8002245490C23534301EB34
:1012B800030E9EF838E0864526D1DFF800910B44EE
:1012C80008F58A7809EB880893F8303088F80130F7
:1012D8000FF06AF888F802000FF066F888F8030043
:1012E8000FF062F8374B38491A6888F8040009F19A
:1012F800D0030B60354B00201A600FF06DFE344BA5
:1013080080F00100187082E701321F2ACCD142E731
:1013180027280ED10FF052F8DFF8A080C8F8CC01CA
:101328000FF04CF8C8F8D0010FF048F8C8F8D4010D
:101338006DE7292840F0F9840FF040F8DFF87C8049
:10134800A8F81A020FF03AF8A8F81C020FF02CF8C7
:1013580088F81E020FF032F8A8F8200257E72F2865
:1013680000F0CD843AD82D2840F0DF840FF01CF827
:10137800DFF8488088F83C020FF020F8A8F8480207
:101388000FF01CF8A8F844020FF018F8A8F8460265
:101398000FF00AF82B6888F83E025B79082B7FF675
:1013A80036AF0FF00BF8A8F84E020FF007F8A8F8C0
:1013B80050022CE7D786010879340020582D0020E8
:1013C80040650108802000208C0B0020900B002035
:1013D80002000020E00000202C090020312835D12F
:1013E8000EF0E2FF1F2880463FF6D5AE2B685B79EA
:1013F800082B7FF4D0AE0EF0E1FFDFF870A308F100
:10140800B6080AEB880900F03F00A9F802000EF0C0
:10141800D5FFB9F80230800100F4FE501843A9F84E
:1014280002000EF0C1FF00010AF828000EF0BCFF10
:101438001AF8283000F00F0018430AF828000EF0B8
:10144800B3FF89F801000AF093FCE0E6332840F086
:101458006C840EF0A9FFC54B83F84002D7E64128FB
:101468000DD14FF000080EF09FFFC04B434408F128
:101478000108B8F1080F83F83402F4D1C7E67AD826
:10148800392812D10EF090FFDFF8E08288F81202B6
:101498000EF08AFF88F816020EF086FF88F815020B
:1014A8000EF082FF88F81702B1E63BD8372840F0E3
:1014B8003C845B794FF00708B3FBF8F2C2EBC20239
:1014C8009A1A12F0FF0F7FF466AEB3FBF8F808F132
:1014D800FF385FFA88F8B8F1FF0F3FF498AE0EF0C6
:1014E80063FF5FFA80FA4FFA8AF009F06DF88146D7
:1014F80000283FF450AE80F800A00EF05FFFA9F876
:1015080002000EF051FF89F804000EF04DFF89F833
:1015180005000EF049FF89F807000EF045FF89F82D
:101528000600D4E73C2818D1DFF85C82D8F8009090
:1015380099F800A00EF038FF89F80000D8F80030BC
:10154800187808F0B3FDD8F800301B7853453FF4FD
:101558005EAE00200EF091FF59E63E2840F0E5838C
:101568000EF022FFDFF8048288F889020EF01CFFD3
:1015780088F888024BE6482802D106F031F846E69A
:101588002FD8432825D10EF00FFFDFF8E081002384
:10159800C8F8083088F805000EF01AFF0CF0E0FBD8
:1015A8000EF002FF88F83C020EF008FFC8F8CC01E4
:1015B8000EF004FFC8F8D0010EF000FFC8F8D401FF
:1015C8000EF0FCFEA8F81A020EF0F8FEA8F81C02AD
:1015D8001DE6442840F0A983654B012283F8342096
:1015E80015E64A2802D10EF0E9FEB3E74C2840F090
:1015F8009C830EF0D9FEDFF8748188F898020EF00B
:10160800D3FE88F899020EF0D9FEA8F89A020EF0D7
:10161800CBFE88F89C020EF0D1FEA8F89E020EF0D0
:10162800C3FE88F8A002F2E55B790F2B7FF4B3AD17
:101638000EF0BAFE072881463FF6ADAD0EF0BEFEAD
:101648004A4B4FF00E0808FB0938A8F856010EF06F
:10165800B5FEA8F858010EF0B1FEA8F85A010EF030
:10166800A3FE88F85C010EF09FFE88F85D010EF07D
:101678009BFE88F85E010EF097FE88F85F010EF079
:10168800A7FEC8F86001C2E53A4B1B785A073FF538
:10169800BEAD394B4FF4C8721A80B8E5C8282BD1B3
:1016A80093F805804FEA5808B8F1120F3FF673AD6A
:1016B8004FF00009C14507D20EF080FE0EAB23F8AB
:1016C800190009F10109F5E742460023434507DA05
:1016D8000EA931F81300294921F813000133F5E761
:1016E800122A05D0254B002123F812100132F7E702
:1016F800234B01221A708AE516D8512840F0158329
:10170800204B1B78012B3FF682AD0EF04DFEDFF823
:101718005C8088F8FD040EF047FE88F8FB040EF0A4
:1017280043FE88F8FC0472E5CA282FD14FF0000860
:10173800DFF85490D9F800A00EF036FEC2448AF8BB
:101748000100D9F800A00EF02FFEC244D9F800908D
:101758008AF80B000EF028FEC14408F10108B8F120
:101768000A0F89F81500E3D151E500BF582D002074
:101778002C09002079340020400B0020B40F0020F1
:10178800D52800202020002080200020CC2840F0F0
:10179800CC825B79092B7FF6FEACDFF8B883D8F8EA
:1017A80000900EF001FE89F80000D8F800900EF0C5
:1017B800FBFD89F801000EF0F7FDD8F80030642829
:1017C800A8BF642018710EF0EFFDD8F80030642827
:1017D800A8BF642058710EF0E7FDD8F80030FF2844
:1017E800A8BFFF2098710EF0DFFDD8F8009064289C
:1017F80028BF642089F807000EF0D6FD89F802009A
:10180800D8F800900EF0D0FD89F80300D8F80090C1
:101818000EF0D4FD2B68A9F80A005B790A2B7FF635
:10182800F6ACD8F800800EF0BFFD88F80800EEE4AA
:10183800C14B1B7859073FF5EAAC07F00DFA0CF0DD
:10184800CFFA07F07FF8E2E4CE280AD1BA4B1B782A
:101858005B073FF5DCACB94A137843F00403137017
:10186800D5E4CF2840F061820EF0A8FD6FF4AF6E8A
:1018780000EB0E039BB2DFF8C882C62B98BFA8F80E
:1018880044020EF09BFDA8F8D0000EF097FDA8F8D2
:10189800D2000EF093FDA8F8D4000EF08FFDA8F842
:1018A8009A020EF081FD0EF07FFD0EF07DFD0EF028
:1018B8007BFD88F81F020EF077FD88F840020EF0D5
:1018C80073FD0EF07BFD00EB80004000A8F8EE01F0
:1018D8000EF06AFDDAE50EF067FD994B012883F8F2
:1018E8005004ACD9002283F85024A8E7D32840F04C
:1018F8001C820EF063FD934B588688E4DC287FF445
:1019080001AC0EF051FDDFF8388288F8C7010EF0FF
:101918004BFD88F8C8010EF047FD88F8C90176E448
:10192800D92812D10EF04AFDDFF81482A8F8D800A1
:101938000EF044FDA8F8DA000EF040FDA8F8DC002F
:101948000EF03CFDA8F8DE0061E40FD8D62840F080
:10195800EC814FF000080EF031FD7B4B23F81800A6
:1019680008F10108B8F1080FF5D150E4DA280ED1D2
:101978000EF01AFDDFF8C88188F822020EF014FD77
:1019880088F823020EF010FD88F824023FE4DB28D3
:101998003FF43DACC9E19DF8163008EBC30393F85A
:1019A8009D30D90742D59DF8163008EBC30393F84C
:1019B8009C20664B33F91230002B37DD9DF816302A
:1019C80098F835A008EBC3034FEACA01D3F8A03052
:1019D80058689DF8163008EB010E08EBC308CEF8DE
:1019E8003800D8F8A0301A89AEF83E2092B24FF0ED
:1019F800000E012303FA0EF3134005D10EF1010E78
:101A0800BEF1100FF5D100E0734649440AF1010A0E
:101A18008B8704238DF83A300EA90123ADF83820BE
:101A28008DF83B300AF024FC89F835A09DF8163073
:101A38000133DBB28DF81630FFF77DBB99F83530EE
:101A48009842BFF4A8AB00200EF002FD04F046FE59
:101A5800306805F0B1FA2B68186808F097FCD8F8D8
:101A6800000004F01BFE08F07BFF72B6DFF8E08090
:101A7800402380224FEACA0AA8F828204FF0010B19
:101A8800A8F82830D144ADF83820404604220EA9E1
:101A98008DF83A2001938DF83BB00AF0E9FB019BE1
:101AA800ADF8383040460EA98DF83AB08DF83BB005
:101AB8000AF0DEFBD9F83820B9F83C001168019B20
:101AC80000FA0BF00BFA00FB4BEA01011160B9F8C0
:101AD8003E109161C8F81830B8F810301A06FBD4D7
:101AE800DFF86090DFF8708009EB0A030122986B39
:101AF800B3F83CE001684FEA4E0E02FA0EF20A43D0
:101B080002609A6BD98F124B118540221A85D8F83A
:101B18000030B8F804209A6140F6055B43460C4A49
:101B2800B2F810E01EF0800F18D1BBF1000FF6D00C
:101B38000BF1FF3BF3E700BF793400206C0E002067
:101B4800582D00202C09002030200020181E0020CD
:101B580000040048880B0020BC1100208161ADF80A
:101B6800381004218DF83A1001218DF83B100EA988
:101B7800029301920AF07CFB019A029BBBF1000FD1
:101B880017D0D8F80000B8F804E0A9490B8A1B065A
:101B9800A6D509EB0A039A6BDB8F128A13424FF022
:101BA800400315BF8B610B85C0F818E0A0F828E04A
:101BB800EBE7402191611A689B88936162B60A201D
:101BC80008F097F80FF020FA2B68F32283F84920E1
:101BD800FFF71DBB3AD8EF280BD10EF0EFFBDFF86B
:101BE8008482A8F8F2010EF0E9FBA8F8F001FFF7EB
:101BF8000EBBF22840F099800EF0D6FB0F288046E5
:101C08003FF6C9AA0EF0D0FB8A4BC8EBC808984427
:101C180088F806000EF0C8FB88F807000EF0C4FB31
:101C280088F808000EF0C0FB88F809000EF0BCFB2D
:101C380088F80A000EF0B8FB88F80B000EF0B4FB29
:101C480088F80C0008F090F9FFF7E1BAF4284ED1B3
:101C58000EF0AAFBFF2880462BD108F0E0F80023FD
:101C68008DF817309DF81730082B3FF6D0AA9DF84D
:101C78001720714B03EB0212127B012A14D19DF835
:101C8800172003EB02120EA950689DF8172003EBEA
:101C980002131B89ADF8383004238DF83A3002233B
:101CA8008DF83B300AF0E4FA9DF817300133DBB2C7
:101CB800D6E7431E072B3FF66EAA00200EF0C8FB9E
:101CC80004F00CFD306805F077F9D9F8000008F049
:101CD8007CF818B9322008F00CF8F6E7574B1FFAD1
:101CE80088F11868002204F099FFFFF790BAFA28E3
:101CF8001BD1534B1B7858077FF5A1AD15E0DFF8D2
:101D0800648108F140090EF059FBA8F858030EF059
:101D18004BFB88F85A030EF047FB08F1040888F8D3
:101D28005703C845EFD1FFF772BA0FF091FAFEF7E3
:101D3800FDBA0C2803D143480EF04CFD49E00A28AF
:101D480001D00D2864D1404D40480EF043FD28468F
:101D5800232112F074FF08B1401B206023687BB375
:101D68005A1EA95C202901D11346F8E7364A236098
:101D78000021D154364B374ED3F80080D6F8009066
:101D8800314F484612F069FF05462A46384649460B
:101D980012F06CFF304A20B97B5D43445B785907E9
:101DA80003D010369642E9D306E0964204D2681C66
:101DB800F3683844984702E028480EF00BFD0023EA
:101DC800214823600021302212F004FF009B1B7879
:101DD80053B308F0CDFAFEF7E3B90C28ABD07F284F
:101DE80004D1FEF7DDB92F2B3EF6DAA9A0F12002C7
:101DF800D2B25E2A3EF6D4A913B920283EF4D0A95F
:101E08005A1C2260104AD0540EF084FBFEF7C8B961
:101E18007F28E8D1013B0C4A114823600021D154A6
:101E28000EF0D8FCFEF7BCB92FB0BDE8F08F00BFAC
:101E380000040048382E0020188D010804120020E4
:101E4800793400207486010848200020FA9B010894
:101E5800C003002088710108887301087F86010883
:101E68009B860108582D00202DE9F04FA34FA44C64
:101E78003A6802F59C432DED028B20332360A14B79
:101E88001E7889B0D6B1A04909688A4240F2088113
:101E9800013E1E7004E1DFF890829C48D8F80030BB
:101EA800072D98BF595D9A4B88BF29461B689847EC
:101EB800032D09D904EB45050136A88004F0C0FAC2
:101EC800F5B28542E7D320E0D8F8002005F11003E9
:101ED80002EB830359889A880028EBD04FF47A7371
:101EE800401A5843531A90FBF3F040F6C90300F523
:101EF8007A70984205DC40F2EE239842B8BF184643
:101F080001E040F6CA0080B2D4E7824B824E1B68DB
:101F1800D6F8008042F2010A03EA0A0ABAFA8AFAF3
:101F28004FEA5A1A7D4BBAF1000F05D194F82820D0
:101F38001A707B4A517811701B782BB1784B93F843
:101F4800009089F0010900E099460F23DFF8F0B10D
:101F580084F82930002504F073FA854267DA6B00AB
:101F6800B9F1000F03D06F4A32F8150000E0484677
:101F78006D4ADFF8D0C111684A8B82424FEA850E5C
:101F88006A4A02D8898B81421CD25CF80E005C49EF
:101F9800804501D2D05A19E0E8B203920293019128
:101FA80004F066FA032D029B039A0FDC01994FF0A7
:101FB800010E91F829C00EFA05FE2CEA0E0E81F8E2
:101FC80029E003E008F596714CF80E10BAF1000FFD
:101FD80028D194F8BC100322B1FBF2F202EB4202C2
:101FE8008A1A03EB050E5EFA82F204EB4202508570
:101FF80094F8BD202AB9022913D9414A012182F84F
:10200800BD10BBF800203BF8020C1044BBF80220BE
:102018001044474A80B2D05200B2032290FBF2F03B
:1020280080B2424AD05201350BF1060B93E794F87F
:102038002920404BA2F10F014A424A4184F8D62098
:102048006AB13D4A1268520109D43268D9689A6067
:10205800521AC82A1FD9012283F821201BE0304ACE
:1020680001215170117032689968DA605B68521A00
:102078009A4282BF2F4B002283F82120002504F0CA
:10208800DFF9854207DAE8B204F0F2F9274B23F8C2
:1020980015000135F3E794F8BC30013384F8BC30FF
:1020A8001C4B1A6812F4805F984605D0224B1B68B7
:1020B800DB0701D40DF0EAFC1B4B39681F683B7B3A
:1020C800002B41D0013B1948BA7B30F813301AB1C4
:1020D800C3F53B6308339BB21BB2A3F57A73B3F520
:1020E8007A7FA8BF4FF47A7323EAE37307EE903A36
:1020F8009FED127AF8EEE77A5FE000BF58340020CF
:10210800340A00208C1100208811002000330020A0
:10211800280100208411002090110020241B002099
:1021280000000020380A0020801100200C2D00201B
:10213800F20A002094110020DC11002000007A44EB
:10214800600A0020A80A0020D8F80020150440D50D
:10215800D4F8D820AE4E8A1A002A3ADB01F59C4200
:102168002032C6F8D820AB4A5079AB4A32F8105022
:10217800A8B27D7B90FBF5F596F8DC00013000F005
:102188000F0286F8DC20324482F8DD501A46A34854
:10219800185C01330244102B92B2F8D112B292FBB0
:1021A800F3F31BB2642BA8BF642323EAE37307EE9F
:1021B800903A9FED9B7AF8EEE77AC7EE877A994ACC
:1021C8009FED997A67EE877AFCEEE77A17EE903AF8
:1021D8001380D8F80030954F13F4807F00F0FA8010
:1021E800934BDFF85092994205D999F8022012B919
:1021F800012289F8022099F80220002A00F0EA80DA
:102208008C4A8D4992F821503A78681E45424541DA
:102218000868C0F38063C2F3800B01938A462DB926
:1022280012F0080F0CBF0026022600E0002699F8DD
:102238002020052A00F2CA80DFE802F0034C6085FE
:1022480094B1BBF1000F38D0D4F8F000B4F8F41012
:1022580008F04CFB012809D17849794A09681268C5
:10226800C988642000FB0122C9F81020019B5BB1DA
:10227800724A126812793AB10FF00CFB032289F8FE
:1022880020204FF47A7236E0002D40F09F806C4A8F
:10229800D9F810101068674A88420AD902920FF0DC
:1022A800F9FA029A032182F8201040F6B831D16178
:1022B800BDE7012182F82010B9E7019B4FF4806047
:1022C80013B10BF035FD01E00BF022FD0022C9F837
:1022D80010207BE0002D57D1584A1268127A012A43
:1022E80002D00FF0D7FAA2E70FF0D4FA032289F848
:1022F800202040F6B832C9F81C2098E725B10522FD
:1023080089F82020012000E02846BBF1000F0BD0FF
:10231800D4F8F020118A4B4A1180518091804749A6
:1023280009684988D1800326454A1168D9F81420DC
:10233800914202D8BBF1000F45D147F23052C9F89B
:102348001C20032221E03A7842F002023A700DF094
:102358009DFB3B4AD9F81C1012680A44C9F818209A
:10236800042212E0364A9DB11168D9F8182091422A
:102378002CD9354A92781AB9DAF80020D10725D431
:102388003A7822F002023A70052289F820204EE7B6
:102398001268D9F81C100A44C9F8182016E0274911
:1023A800274A09681268C988642000FB0122C9F815
:1023B80010204FF48060002289F8202089F803203B
:1023C8000BF0A6FC33E700287FF431AF16B1304696
:1023D80008F0DCFA1D4DB5F8DE1005F50D7008F0B3
:1023E80085FA82461748B5F84432B0F902200290BF
:1023F80003F10B0191422BDB0B3B934228DCB0F934
:102408000020914224DB9342CCBF0023012320E02B
:10241800340A00203011002040110020110B002048
:102428000000C8426A0E002000C07F4479340020B2
:10243800404B4C0094110020DC110020083400208F
:10244800901100200C2D002000000020582D0020A5
:102458000023BAF1000F30D1904A1268120106D554
:102468008F4AD2789AB93A78560710D528E08D4B1A
:102478008D4900221A605A609A608C4BC1F800A0FE
:102488000122C1F804A0C1F808A01A700BE0854A1F
:1024980085480021116051609160844A00230360DF
:1024A800436083601370824B00221A605A600023D5
:1024B800C4F8F830C4F8FC3004E07C4A00231370F8
:1024C8007C4A13703B78580736D5D8F80030D906BF
:1024D80032D5794B1B78DA062ED4784B9B7893B19A
:1024E80095F88932BAF1000F15D17BB1744B1A688F
:1024F800D4F800319B1A002B08DA0DF0C7FA714B9B
:1025080083F804A118E0BAF1000F0DD1102008F0EB
:102518003DFA01230EE03BB1694A12684FF47A7123
:1025280001FB0323C4F8003194F8043123B108F007
:1025380017FA002384F80431002295F88812B5F8B8
:102548004662B5F848E21346029830F912009B0833
:10255800B042C4BF63F07F03DBB201327045B8BF3D
:1025680043F04003042AEFD194F8052155489A42D4
:1025780005D190F80621F92A04D8013200E000229A
:1025880080F8062184F805314C4B4E4A9878434E22
:10259800994628BB3368DB070AD582F80701BAF1E8
:1025A800000F1DD13B78DA071AD50DF0C5F817E0F2
:1025B8003B785B0714D5444B1B788BB1384BDB78E1
:1025C80073B992F807310133DBB2032B82F8073174
:1025D80006D911B10DF05AFA02E0BAF1000FF9D09C
:1025E80094F80631DFF8DCA0142B40F0838099F8CA
:1025F80002308BB19AF805315F2B0DD13B7803F08F
:10260800040303F0FF0B13B10DF040FA04E00B20B4
:1026180008F0BCF98AF806B13B7803F0040303F02C
:10262800FF01002B66D194F80531264A572B0DD1AE
:10263800264B1A684FF47A73B3FBF2F3C3EB4312D9
:1026480003EB8203224ADB00138053E0D8F8000032
:10265800400717D55A2B15D192F808312BB1012311
:1026680082F8081182F8093144E092F80A3183F0BF
:10267800010382F80A310BB10C2000E00D2008F0AC
:1026880085F937E05D2B00F0F7845B2B00F0F684CA
:102698005E2B1FD1032000F0F2BC00BFDC1100202C
:1026A80094110020DC330020001C0020F61C0020C0
:1026B800281C0020101C00206C0E002000000020A8
:1026C80090110020340A0020241B0020982C0020A0
:1026D80074340020562B01D10BF02EFC99F80230EF
:1026E800002B00F0D28494F805316F2B40F0CD8494
:1026F8000DF022F8D8F80030580736D594F80A318A
:10270800B34A93B13B7859070FD5029BB3F906102A
:10271800B5F84632994208DD336813F0010302BF69
:102728003221A2F81C1182F80A313368DB030DD577
:1027380094F81E21A64B2AB993F8082112B932221F
:10274800A3F81C21012384F81E310EE094F8083107
:102758009F4A53B13B7803F0040303F0FF0123B908
:10276800012382F8081182F80931DFF884920023E6
:10277800336009F1500A99F8002099F8013019F8E6
:10278800010C9A420BD2494608F076F838B119F88C
:10279800022C012303FA02F233681343336009F170
:1027A8000409D145E7D18B4B1B782BB18A4E33688E
:1027B800980700F1E981E0E1884E06F15A0932787C
:1027C800737816F8010C9A4225D2314608F054F86D
:1027D80008B3B37896F804E0814A96F803A07C48D9
:1027E8000C21013B01FB0E4103EB43031344D1F8D9
:1027F80024219A420FD0C1F82431002390F85021A7
:10280800C1F82831012303FA0EF322EA030381F801
:1028180020A180F8503106364E45D0D1714BD4F8FE
:1028280054611B680393704BDFF8C8B11B7804939D
:1028380000230193DBF80010002900F0958191F83E
:102848000090B9F1000F00F08F81DBF80430039A93
:10285800D31A002B0CDB02F5FA73019ACBF804307B
:102868000123934094F8502122EA030384F850315D
:10287800049B002B00F078811BF8042C4B78043261
:10288800D2B2002B40F03981029B33F91220574B0A
:10289800B3F8443203F1C800824202DD91F802A085
:1028A80015E0C83B9A4203DA8978C1F1000A0EE0C4
:1028B800019A0123934094F8502122EA030384F8F3
:1028C8005031039B03F5FA73CBF804304CE194F8CC
:1028D8005021019B1A41D10700F14681BAF1000F3E
:1028E800CCBF0220012008F08BF809F1FF31384AEB
:1028F800132900F23181DFE811F0140025003600B9
:102908004A0063007F009E00BC00DA00E600F40085
:102918002F014A0059007F009E00BC009200B000C1
:10292800CE0096F80090D144B9F1FA0FA8BF4FF045
:10293800FA0929EAE979304686F8009007F082FF1B
:10294800012022E096F80190D144B9F1640FA8BFA4
:102958004FF0640929EAE979304686F8019007F0D2
:1029680071FF022011E096F80390D144B9F1640F89
:10297800A8BF4FF0640929EAE97986F80390304640
:10298800D2F8581107F004FF03204946A6E07179F0
:1029980051446429A8BF642121EAE17171710D20B5
:1029A80007F0BEFFB9F10D0F00F0D6803179514420
:1029B8006429A8BF642121EAE17131710E208DE0FC
:1029C800B179514481F30801B171052086E000BF57
:1029D800340A00207B340020DC110020FA3100206A
:1029E800E466010890110020241B0020582D0020C7
:1029F800AB310020580B0020D2F85C010592817899
:102A08005144C829A8BFC82121EAE17181700F206B
:102A180007F086FFB9F10F0F059A00F09D80D2F8F4
:102A28005C2151785144C829A8BFC82121EAE17125
:102A38005170122052E0D2F85C010592017B51449A
:102A4800C829A8BFC82121EAE1710173102007F045
:102A580067FFB9F1100F059A7ED0D2F85C21D17AC0
:102A68005144C829A8BFC82121EAE171D1721320B5
:102A780034E0D2F85C010592817D5144C829A8BF91
:102A8800C82121EAE1718175112007F049FFB9F1E8
:102A9800110F059A60D0D2F85C21517D5144C829A4
:102AA800A8BFC82121EAE1715175142016E0D2F8B7
:102AB8005C21D1785144C829A8BFC82121EAE17115
:102AC800D17009200AE0D2F85C21517B5144C82911
:102AD800A8BFC82121EAE17151730A2007F020FF3D
:102AE8003AE0D2F85C21D17D5144C829A8BFC82159
:102AF80021EAE171D1750B20F0E7012B2CD1029B63
:102B0800887833F91230B3F5617F05DB40F633027C
:102B18009342A8BF134601E04FF46173B9F10C0F5B
:102B28001AD14FF4966292FBF0F0B34A1278A3F5EB
:102B3800617393FBF0F3DBB29A420DD0184605930C
:102B48000BF030F9059B4846194607F0E9FE059B4E
:102B5800581CC0B207F054FF019A0123934094F81F
:102B68005021134384F85031019B0133042B019306
:102B78000BF10C0B7FF45EAE18E6D8F80030DA05DE
:102B88000FD59E4BDB7863B19D4B1B689B0708D51F
:102B98009C4B1B8813F0010908D101200BF0C8F8E1
:102BA80004E001200BF0B4F8012300E000233268B0
:102BB80050070BD553B101200BF0AAF8914B1B8895
:102BC800990706D402200BF0B3F802E002200BF0BC
:102BD8009FF833681A054FF4807002D50BF0A8F8F7
:102BE80001E00BF095F8884B5A79082A994601D0EC
:102BF8000E2A02D140200BF08BF8D8F800305B0584
:102C080018D599F8C4321BB93B7813F0040F02E0C9
:102C1800336813F4002F09D07C4B00221A703C2033
:102C28000EF0E2FA30B103F039FDF8E708F0E6FCFF
:102C38000EF0EAF9012384F86031D4F854E1029BDC
:102C4800BEF80A10B3F906208A420FDBB2F5FA6F14
:102C58009EF80740BDBF531A6343A1F5FA64C4F157
:102C68006404BCBF93FBF4F4643400E0642495F876
:102C78002232019395F82332029395F9D831B5F8A9
:102C880044829BB20393624B1E680021614B33F967
:102C98001190C8EB090303F2F31540F2E6308542C0
:102CA8004FEA410A03D8002BB8BF5B4201E04FF45A
:102CB800FA7302294FF0640029D0019D1DB1AB427F
:102CC800CCBF5B1B0023544D93FBF0F76FF0630BF5
:102CD80035F817C00BFB073B013735F917500FFACA
:102CE8008CF7ED1B4D4F05FB0BF595FBF0F5654497
:102CF80027F80A500EEB01052D796B43484D93FBDD
:102D0800F5F364339BB2634393FBF0F02CE0029D30
:102D18001DB1AB42CCBF5B1B0023424D93FBF0F0CF
:102D28006FF0630C0CFB003B05EB400705EB400024
:102D3800B7F96271B0F96401C01B00FB0BFBBDF869
:102D48000C009BFBFCFBC7EB0B0B1BFB00FB33488E
:102D5800A0F804B09EF80600002BB8BF5B424343BE
:102D68002F4893FBF0F0643073782F4F642543436A
:102D780093FBF5F37B542D4FF37A434393FBF5F321
:102D88007B54737D254F5843294B90FBF5F002295E
:102D98005854284B09D1C1459D7009DB264B1A4C64
:102DA800186810F480500FD11CE0C1455C5404DA57
:102DB80037F80A305B4227F80A300131032906F157
:102DC80001067FF463AFE9E7B2F57A7F05DBB2F578
:102DD800FA6FA8BF4FF4FA6201E04FF47A72A2F5D5
:102DE8007A7234E0B4F846128A4227DBB2F5FA6FF9
:102DF800A8BF4FF4FA6222E0D42C002094110020DE
:102E0800D82C0020D8110020582D00200533002090
:102E1800802000200C2D002012200020EA1B00201A
:102E28000CFEFFFF340A0020301C0020A40B0020F9
:102E3800EC1C00202C1D0020841100200A46521A88
:102E48004FF47A735A43C1F5FA61B2FBF1F2DFF835
:102E58003CE36FF06306642392FBF3F53EF815102C
:102E680006FB052201350EB23EF91550AD1B6A432B
:102E780092FBF3F30B449BB2FB80C8B1AF4A1268D4
:102E8800960015D5AE4AD27892B9B4F84412A3F593
:102E98007A72C1F5FA6000B212B24FF47A73120373
:102EA80092FBF3F202FB00F3A64A01EB2333D38033
:102EB800A54B1D8805F04005ADB2002D3CD0A34BB5
:102EC800DFEDA37AB3F904309FEDA20A0A2293FB3F
:102ED800F2F3A14AB2F874219B1A1BB208EE103A19
:102EE800B8EEC88A28EE278A38EE000A0AF0AFFE44
:102EF800F0EE408AB0EE480A0AF0A9FEB7F90230AF
:102F080006EE903AB7F90030F8EEE66A07EE903A26
:102F180020EE667AF8EEE77AA7EEA87A67EE807A6E
:102F2800BDEEC77AE6EEA87A17EE103AFDEEE77A1C
:102F38003B8017EE903A7B8094F84B32002B52D0AE
:102F4800002D50D1844C854D94F876219A4217D0A3
:102F580007EE903A9FED7E8A9FED7E0A84F87631DF
:102F6800F8EEE77A27EE888A38EE000A0AF06FFE54
:102F780085ED010AB0EE480A0AF069FE84ED5E0AA2
:102F8800B7F90030D4ED5E5A95ED016A744A07EE40
:102F9800903AB7F9043006EE903AF8EEE66AF8EEA1
:102FA800E77A25EEE67AA7EE867A67EEA57ABDEE91
:102FB800C77AE6EE867A17EE103AB3F5FA7FA8BF1D
:102FC8004FF4FA739342FDEEE77AB8BF13463B809D
:102FD80017EE903AB3F5FA7FA8BF4FF4FA7393420D
:102FE800B8BF1346BB805F4B1A78550704D55E4BB4
:102FF8001A689B88138534E050490968CC075CBF80
:1030080042F001021A70594A127810075EBF1A7806
:1030180022F001021A70504AB2F80C11544A19B140
:1030280054490968890706D45349098819B9534886
:103038000088642806D9022111701A7822F001024A
:103048001A7005E01B78DB0756BF02231170137056
:1030580006F028FE4A4B1B68C01A002801DB03F063
:1030680059FA484B9B68002B62D0474809B0BDEC21
:10307800028BBDE8F04F1847012000E0022001381C
:10308800C0B20AF047FFFFF735BB94F80531324A62
:10309800972B05D14FF4C873A2F80C31FFF72ABB60
:1030A800A72B06D1314A137843F004031370FFF7B6
:1030B80021BB0021BB2B079101D1022303E0B72BD1
:1030C80004D14FF6FE73ADF81E301CE0BE2B01D1C3
:1030D800022303E0BD2B04D14FF6FE73ADF81C307C
:1030E80011E0792B04D192F8133123F0010306E0A3
:1030F8007A2B7FF4FFAA92F8133143F0010382F888
:103108001331FFF7F7BABDF81C20B5F8F0311344B6
:10311800A5F8F031BDF81E20B5F8F2311344A5F832
:10312800F2310AF009FF002384F80631FFF7E2BA0A
:1031380009B0BDEC028BBDE8F08F00BFDC110020A8
:1031480094110020EA1B0020D8110020201C002028
:1031580035FA8E3CDB0FC93F340A002000000020FE
:103168000CFEFFFF79340020BC1100206C0E0020FB
:10317800B8110020D82C002074340020D62C002050
:10318800D4110020F4330020E00D0020FA1F0020A5
:103198002DE9F04F914C924E23682DED028B9BB098
:1031A8009D6A06F07FFD6368C01A308006F07AFDDC
:1031B8008C4B60601A78012A984601BF8A4B328886
:1031C8001A808A4A04BF12885A80894B13A8DB6880
:1031D80098479DF84C3023B1237A002B00F03982B0
:1031E8000AE006F05FFD834A63681268EB1A184428
:1031F80050329042E9D3EFE70CF08CF908B90CF0A3
:103208009FF97D4D95F84A321BB97C4B1B88002BE2
:103218004ED07B4A61891268B1FBF2F1794A6F4B53
:103228001278481C80B2A0811AB3B3F80EB00023FC
:103238006A4E754A06F1180E06F1100932F813C0E5
:103248003EF8137039F813202EF813C0C7EB0C079B
:1032580012FB0BF20FFA80FA92FBFAF2174429F8E4
:1032680013700133042BE3D1664BF18100221A70ED
:1032780002E0DA89013ADA81E089584A03B2002B80
:103288004FF0000313DDB2F90C60604931F81320E8
:10329800083112FB00F231F8131092FBF6F28A1A89
:1032A800594921F813200133042BEED100E0D381D2
:1032B800574B514E1B78ABB1564BB3F90620B6F8B5
:1032C80046329A420EDC7379012B01D0192B02D1B8
:1032D80096F8902232B90E2B04D0082B1EBF4A4B09
:1032E80000229A8096F810729FB3444B1B889B0764
:1032F8002FD0494BDFED497A93ED080AB4EEE70A7F
:10330800F1EE10FA20D911F033FFD4ED087A20EE4F
:10331800270A11F0A9FEB0F5617FA8BF4FF46170CC
:1033280007EE900AB8EEE70ADFED3D7A80EE270A4D
:103338000AF08DFC07EE907AF8EEE77A27EE800A1D
:1033480011F092FE80B200E000202F4AD388184482
:10335800D080344B1878002840F07981324B1A68B5
:1033680012F4002F994600F07281304F3B78033BEE
:10337800052B1AD896F8FD3433B1012B08D104F087
:1033880043F8C0F17F0003E0606A03689B689847D0
:10339800A36A94F82C201344B3F5807FA8BF4FF498
:1033A80080738342D4BFA362A0623B78023B092B9F
:1033B80000F24881DFE813F00A003E006A00460187
:1033C800460181009200FE0020012B010023A36228
:1033D8002363174B1B686363032332E1B00B0020A0
:1033E800763400204A1100204C110020D62C0020F1
:1033F800F4330020982C0020582D0020D8110020EC
:103408000C1C0020940B0020EA1B0020C00B00209D
:10341800020000200C2D0020841F00208FC2753C64
:10342800EFB6B0447B340020841100202020002017
:1034380090110020A44B1A68636B64339A4240F2DF
:103448000181402005F082FE002840F0FB804FF00B
:1034580040099E4D236B9E4EE85C58B104F0C6FDB2
:10346800B36A013BB362336BB9F1010903F101039C
:103478003363EED1226B964BAA5C002A40F0E280BF
:103488001A634FF0FF325A630423DAE025230093CE
:10349800904B019303F10C0202924920A3F10A0216
:1034A8005021023305F076F8002840F0CB804FF029
:1034B800FF33636320630723C3E0874A05230021A2
:1034C800009301910291532002F1080305F062F87C
:1034D800002840F0B78020630823B2E0402005F0C0
:1034E80035FE002840F0AE80236B0C2B00F2C98516
:1034F800DFE803F0070B0E1218292D313539444E39
:103508005100764805F09AFF50E07548754917E074
:1035180075487649764A47E0764896F8FB1496F857
:10352800FC2441E095F8502473485C235343EA187F
:103538000C2192F8CC2301FB02331D4495F8CE13DD
:1035480005F07CFF32E06D48B6F8D010F8E76C481B
:10355800B6F8D210F4E76B4B6B481969F0E76B4B80
:103568006B481988ECE7A36BD80403D5694896F82B
:103578001212E5E7564B0B221A6317E0664896F8D5
:10358800161296F8172296F8153205F057FF0DE037
:103598006248A18FD4E7D9F80030190506D56048EC
:1035A800B6F81C12B6F91A2205F048FF236B01334E
:1035B800236347E05B4B1B689A011AD5B4F8403087
:1035C800434DB3B9584BD5F844901E68452004F0D4
:1035D8000DFD0E2004F00AFD484605F0A0FE304619
:1035E80005F09DFE4FF48053EB870A233B7004F0EF
:1035F80083FD04F0B1FF25E094F84830002BF6D0A5
:10360800484B1B689B01F2D409233B70F1E72E4B12
:103618001A68636BC8339A4203D996F8FD547DB98A
:1036280004E005F0D9FD0028F7D10BE0606A06F048
:10363800B8FE94F849306562022B01D10DF0E4FC24
:1036480001233B7005F0B2FD08B101233B70002354
:1036580023722C4B0BAD5B6828469847002800F076
:10366800548198F8000000230328304E02BF304FE1
:1036780056F8231027F813109A0035F91310B15093
:103688000133032BF0D1294894F84A20014602F06F
:10369800ADFD94ED138AB5EE408AF1EE10FA4DD1E6
:1036A800244FDFF894A03B88002B00F00681D4F863
:1036B800C0301B78AAF1480908EE103AAAF13C0577
:1036C8004FF0000B97E000BF901100202067010821
:1036D800B00B00208A6701083C690108FF870108D0
:1036E80019880108EC8601082E880108D786010888
:1036F800E386010842880108538801085D880108AB
:103708006C880108F43300207B8801080800002039
:103718008B88010895880108A2880108BB880108E0
:10372800C6880108DC11002058340020F41B002052
:103738004C11002074340020BC0C0020A64B93F8D8
:1037480050509DB9A54B1A681F467AB1DFF8889288
:10375800396809F154002844B0EE480A243509F0C4
:10376800BDFF6C2DF2D1012389F8503094F8503008
:10377800002B95D0002556F8253007EE903A984B47
:10378800242000FB0530B8EEE70A09F07EFF11F0AF
:103798006BFC46F825000135032DECD180E7D5ED0B
:1037A800006A07EE103A37EEE66AB8EEC77A86EE98
:1037B800077A36EE877AD5ED026A85ED017A77EEDB
:1037C800C77A85ED007AE6EE276AF0EE667AC5EDEF
:1037D800036AC5ED026A0023BEF1010FB3504AF82F
:1037E800023039D00BF1010BBBF1030F09F10409C9
:1037F80005F1140577D07949B7F800E00B684FF464
:103808007A72B2FBF3F3C3EB431203EB8203DB00E0
:103818009BB29E4502BF0023C9F800302B61D9F83E
:103828000030184656F82B30184456F82B30C9F893
:10383800000007EE903A2B690133012B8C464FEAC2
:103848008B02F8EEE77A2B61A9D10023C5ED017A46
:10385800C5ED007AAB60BEE72B69CDF81CC0012B23
:10386800C3BF03F1FF3300EE103AD5ED037A9FEDA5
:103878005D0A0691C8BFB8EEC00A0592C8BF87EEB8
:10388800800A11F0D5FC059A0699DDF81CC018EEDF
:10389800103AA3B1F8EEC87AB4EEE70AF1EE10FADE
:1038A8000DDDDCF800204FF47A73B3FBF2F3C3EBC1
:1038B800431203EB8203DB003B8000231BE0096813
:1038C8004FF47A73B3FBF1F3C3EB431103EB8101BC
:1038D800C900D9F8003089B203EB510393FBF1F129
:1038E8004AF802107EE73888012801D107F04EF81F
:1038F8003B88013BE0E756F823205AF82310521A78
:1039080046F823200133032BF5D194F8183123B15D
:10391800314A013B82F81831BEE3334A3349D2EDCC
:10392800787AF5EE407AF1EE10FA18BF92F8E8319D
:10393800B2F826221ABF03F1FF33DBB2012384F861
:1039480018312B4B00930D682A4908682A49443BD3
:103958000968A847294B2A4ADB780893294B93F82A
:1039680000B0BBF1030F18D91B4BD3F81C315D888D
:10397800B5F5FA7F11D2244BB2F90460B3F904000B
:1039880080EAE077A7EBE0776942CB1B9E4203DB36
:10399800EB19B342A8BF334693801C4B1B68DD79F3
:1039A800002D3ED01A4909688E0737D5194909787C
:1039B800012933D9DB78184E59433688CB1A9E42F1
:1039C80088B203DBB1420B46A8BF334601B20903F4
:1039D8001BB291FBF3F323E0B00B0020982C0020DE
:1039E800040C002000000000582D00207801002061
:1039F8008C2F002080200020880B002094110020AC
:103A0800F01C00201C1D0020EA1B002028110020AB
:103A180084110020800100207C1100204FF4805385
:103A280004935388D4F81CC198F80080AE480593D5
:103A38000021B2F800E0B2F904900B460A465A4554
:103A480048D29CF9004090ED016A644209FB04F4F5
:103A580007EE904ABDF9144006EE904A0FFA8EF42C
:103A6800B8EEE77A07EE904AF8EEE77AF8EEE66AFB
:103A780067EE867A90ED026AE6EE867A0DAED0EDB4
:103A8800036AE7EE267AFDEEE77ACDED067ABDF811
:103A980018401DB1049F24B27C43241326F8124019
:103AA8000DAC0FFA83FA34F8124026B2564505DCFD
:103AB8000FFA81FA5645B8BF214600E02346B8F10F
:103AC800050F04D1042A9CBF884E26F81240013203
:103AD8001030B4E7864F8748874A591A3B6813F471
:103AE800805F89B2854B32D0854CC0882478834E5C
:103AF80064075EBFD3F8E441248AA3F8E041D3F811
:103B0800E441B4F810807F4C2468E5880FFA80FC03
:103B1800C5EB080EF44503DC12682588128805E019
:103B28004544AC4505DB126855886288A6F8E00173
:103B380011E0B6F9E0017045CDBF1268258812681A
:103B48005588CDBF628812882846104603E014685D
:103B5800C088228865886C4C1FFA85FE96B2C6EB31
:103B68000E020DB212B2954227DD4FF0010E84F815
:103B780000E014034FF0000E94FBF5F5C3F8E8518C
:103B8800DE450BD20DAC34F91EC005FB0CFCCCF3A2
:103B98000F3C24F81EC00EF1010EF1E7022492FB3F
:103BA800F4F43219594C2478062C92B210D1BBF196
:103BB800020F0DD84D4C61800AE0002202212270CC
:103BC80095FBF1F57219C5EB0E0592B2A9B200E0AA
:103BD8001146B3F9E041D3F8E4814A4B3F68D3F882
:103BE80000E0454B04941C68494D07F01003099305
:103BF800434B1B7803F00403DBB20593454B1B686A
:103C080003F000630693444BB3F90630079307F4B7
:103C1800805900265E4555D20DAB33F816C003B265
:103C280007EE903A304B03EB061393ED007AF8EE6B
:103C3800E77A13B267EE877AFDEEE77A17EE90AA75
:103C48009A4503DB0BB25345A8BF53466344089F0C
:103C58009BB225F8023F1BB217B1B4F804C015E0B7
:103C6800B9F1000F10D0B8F810C0BEF806A0049F34
:103C7800CAEB0C0C674504DCB4F800C0BEF800A021
:103C880006E0BEF802C001E0B4F800C0B4F802A033
:103C9800634503DB5345A8BF53469C46099BA5F8DB
:103CA80000C06BB1059B5BB1B9F1000F08D1069B51
:103CB80033B9B8F81230079F9F42BCBFA3882B8046
:103CC8000136A7E70E4B1A7802F0040202F0FF0350
:103CD80032B30A49114F91F8EC31013BDBB2182B92
:103CE80000F23D8126E000BFD00C00204C110020DE
:103CF80084110020EA1B0020FC1E0020B00B0020CD
:103D080079340020F81E0020111C00204A110020E0
:103D1800161E0020DC1100200C2D00204C0900206C
:103D28005B45D6D2C14A32F81310C14A22F81310A3
:103D38000133F5E701229A40BE4B1340002B00F0F7
:103D48000E81BD4BBD481B8813F4807F08D0BC4B47
:103D58001A88ADF84C205A88ADF84E209B8815E09B
:103D6800B84B1A88ADF84C205A88ADF84E20B64AA0
:103D78009B881268ADF85030D20409D5D1F8E421F7
:103D8800B0F90640128A944202DA5B42ADF850302C
:103D9800AE4DB5F902304FF47A7203F5E16353433F
:103DA8004FF4616493FBF4F3A3F5FA73ADF8643050
:103DB800B5F9003003F5E1635A439D4B92FBF4F2E9
:103DC8001B88A3F2DC53A2F5FA72ADF85230D1F891
:103DD800E431ADF866201B8A0288D21AADF8542067
:103DE8004288D21AADF856208288D21AADF85820E7
:103DF800C288D21AADF85A200289D21AADF85C20CE
:103E08004289D21AADF85E208289D21AADF86020B4
:103E1800C289D31AADF862300023002227F8132094
:103E28000133082BF9D18A4A8A4B126804928A4ACC
:103E38001B78126889490592894D072202FB031BEA
:103E4800594572D00B7833B103F115020123934021
:103E5800049A134065D011F806CC059B11F805ACFF
:103E680011F8034C11F8018CCCEBCC0E03EB4E0E81
:103E78006420BEF90020BEF902309B1A9BB211F9EA
:103E8800022C4FEA53095A434FEA4A0692FBF0F2D2
:103E98001AA8C9EB020292B2064414B936F81C0CEF
:103EA8000CE0B5F9000036F91C6CB04208DA04449D
:103EB800844203DBA6423046A8BF2046288008E09B
:103EC80007DD041BB44203DB8442A8BF0446264630
:103ED8002E80DEF80A4011F9046C012000FA0AF07D
:103EE8002042288812B216FB00F014BF4FF0FF34AE
:103EF8000124642690FBF6F090420ADB4FFA88F220
:103F08005A4392FBF6F2C9EB020212B28242A8BFF0
:103F18000246544B33F81C9002FB049423F81C40CF
:103F280000E02B80023507318AE74B4B4E4ED3F821
:103F3800008000250E2202FB058236F8023F92F926
:103F48000640E8B214FB03F3642493FBF4F43480D2
:103F580006F032F801352044082D3080EAD13A4B7A
:103F68003D4D1B6813F0200F32D0002006F024F8D6
:103F780038800646012006F01FF8354B394C1B687F
:103F880078801B0624D5394B304AD3F810321B7879
:103F9800012B20D12968138891F914E0B2F9022085
:103FA8001EFB03FE91F906304FF0320C5B429EFB7C
:103FB800FCFE1FFA8EFE53436FF0310293FBF2F2C0
:103FC8007244B11893FBFCF3734421801844608059
:103FD8002D68002318E0D5F800E053889EF90610F4
:103FE80011FB03F1322391FBF3F131442180118855
:103FF8009EF9142012FB01F292FBF3F21044E6E75B
:104008000133082B3A5333D00E2101FB035137F902
:104018001300B1F90020B1F9021090424FEA4304AD
:10402800EEDB0AB28242A8BF0246E9E73020002050
:10403800181E002099209801D81100200C2D00206E
:10404800EA1B0020F01C002084110020201C002006
:10405800DC110020001F00207C200020071F00200A
:104068009E0D00204C0900204A090020B00B0020BA
:104078000BF050FA08B10BF063FA0A4B01221A72DE
:104088000AE005F0A9F800283FF4DCAA4FF48053B1
:10409800E3870A23FFF7D5BA1BB0BDEC028BBDE856
:1040A800F08F00BFB00B00202DE9F04F85B007F06E
:1040B800A5FA8A4B1F78002F40F09285884D2B680F
:1040C800590540F18D85874B874CB3F8DE802378FE
:1040D800864E002B00F07B8132686368D31A7C2BF4
:1040E80040F27581237A62600133237207F124005C
:1040F800DFF8F491C0B204F0CBFB09F10C0353F8DC
:10410800273007EE903A7A4B1B88B8EEE77A07EE2D
:10411800903AF8EEE77A0137C7EE277A9FED757A7D
:1041280067EE877AFDEEE77ACDED007ABDF90000FB
:1041380004F09CFB032FD9D1302004F0A9FB002008
:1041480004F094FB04F09DFB99F8087017F003073E
:1041580024D1D9F8042041F288339A420BD910208F
:1041680004F096FB384604F081FB212004F090FB14
:10417800384604F07BFB142004F08AFB5E4BB3F94D
:1041880004000A2390FBF3F004F070FB1C2004F0F9
:104198007FFB002004F06AFB04F073FB237A5A07C4
:1041A80040F0F180022004F073FB4F4BB3F9180084
:1041B8000A2390FBF3F004F059FB504B0320B3F9AA
:1041C800067004F065FB4E4B1B785B074FF0050942
:1041D80097FBF9F7BFB20BD54A48414606F086FB74
:1041E80020B92B6813F0100F18BF002738B205E06C
:1041F800454B1B68D889B0FBF9F000B204F036FBD8
:104208002B689F0740F18D80DFF80491678BDFF8FA
:10421800FC8099F80010B8F800203F016423BFB271
:1042280003FB02124B00B2FBF3F347EA0327BFB2CA
:10423800C3F303231F43062004F02AFB38B204F01B
:1042480015FB638B99F8002001339BB293FBF2F1C5
:1042580002FB1133E16963838B7B012B05D1392084
:1042680004F016FBB8F9000021E0B8F800706E23DE
:104278007B43152793FBF7F7CB7BBFB20BB197FBBB
:10428800F2F73A2004F004FB4FF06409B7FBF9F8A1
:104298000FFA88F004F0EAFA09FB18773B2004F0DB
:1042A800F7FAB8B2471D0A2097FBF0F000B204F005
:1042B800DDFA282004F0ECFA236A0A2093FBF0F0D8
:1042C80000B204F0D3FA042004F0E2FA0E4B1B68A3
:1042D800DB89FBB102F022F820E000BF7B3400202C
:1042E80084110020582D0020C80D002090110020B6
:1042F8000800002000007A44201C0020EA1B00204F
:10430800793400208C2F0020281100207C110020F7
:1043180080010020C74B186880F3100000B204F039
:10432800A5FA03A9C44804F077FA132004F0B0FAF8
:10433800BDF90C0004F09AFA1B2004F0A9FABDF9A3
:104348000E0004F093FA232004F0A2FA4E2004F0A1
:104358008DFA03A9B84804F05FFA122004F098FA1D
:10436800BDF90C0004F082FA1A2004F091FABDF9A4
:104378000E0004F07BFA222004F08AFA452004F0AB
:1043880075FA04F07EFA237A282B20D1AB4B3068DB
:1043980000221A724FF03C094FF47A73B0FBF3F81D
:1043A800172004F075FAB8FBF9F7B7FBF9F009FB29
:1043B8001070000200B204F059FA182004F068FAEC
:1043C80009FB178000B204F051FA04F05AFA94F885
:1043D80024309A4F002B00F0B58005F063FCBB6ACF
:1043E800974AC31A934280463CD9002387F82E3057
:1043F80087F83030934B1B88DAB21B0A87F84A20BB
:1044080087F84B3087F8402087F84130BA6D336819
:104418009A1AFB6D197C4FF47A734B439A420DD369
:10442800894B1B68BB65894B1B78013B012B9FBFE0
:10443800102387F82E30022387F830307D4B226A0C
:104448001B68C4F828800A2192FBF1F293FBF1F370
:1044580084F8482084F84C3012121B1284F8492042
:1044680084F84D3094F860A0744FBAF1000F0ED163
:10447800B86E05F0B0FC012809D90228DFF8D491FC
:1044880000F0828304F0BAF9012389F80230E76E5C
:104498006A4B002F56D093F860203AB15A6F40F615
:1044A800B731C2EB08028A4214D84BE0012283F8E4
:1044B80060209A6F986E1278022A04D8043002217C
:1044C80004F086F902E0022105F07CFC002384F860
:1044D8007C3035E093F8702092B9DA6683F8602072
:1044E8009A6F986E1278022A04D80430012104F0D9
:1044F8006FF902E0012105F065FC04F07FF91FE087
:10450800013AD2B283F8702093F87C1093F87D00BA
:104518003AB901304A1C83F87D0083F87C20986EF4
:104528000CE03A46013012F801EB83F87D000EEBFF
:104538000107986E83F87C70DA66714605F04EFCC8
:10454800C4F8748094F87E2037683C4B002A00F049
:104558004881D3F88020002A00F0438193F8843002
:10456800013B012B00F23D81D4F88000DFF8CC80BC
:1045780005F031FCE0B1D8F8800005F029FC98F886
:104588008530D6F800A07E2B81460ED102231B2849
:1045980088F8843009D1D8F8800005F01CFC20B9CF
:1045A8000123C8F888A088F88C3084F88590DBE768
:1045B800D8F8882033689B1A41F6583293421FD99D
:1045C800032388F884300CE1214A32F8130010B92B
:1045D80003464FF403600133B0F5826FDBB200F09D
:1045E800EB807FD8B0F5007F00F0AA8019D9B0F52C
:1045F800047F31D184F88D302B68980700F19080C2
:1046080094F88C1094F88D30002900F0E880326816
:10461800D21B012AD8D984F88D30002384F88C3035
:10462800DFE0B0F5807F00F0A780B0F5887F00F06C
:10463800A380E9E72C11002080969800C80D00207F
:104648003F0D03007C11002090110020D52C002084
:104658009089010808000020B0F5806FD4D184F853
:104668008D3094F89430BD4A0133DBB2032B88BFF8
:10467800012382F8943094F8941042F2107359434D
:10468800B74B1B78D80748BF01319A0748BF02319A
:104698005B07B44B1B8848BF0431D80748BF0A31B1
:1046A8009A0748BF1431180648BF2831DA0548BFB1
:1046B8002831580748BF64311A0748BFC8319805E0
:1046C80048BF01F5C8719A0648BF01F57A71D80646
:1046D80048BF01F5FA615A0648BF01F57A614FF4FF
:1046E800806062E0B0F5E26F4FD009D8B0F5C06FD6
:1046F80039D0B0F5E06F87D184F88D30E16847E0B4
:10470800B0F5E46F4DD0B0F5046F7FF47DAF84F859
:104718008D30954BB3F9041001EB810149003AE063
:104728008E4BD3F89030DA7B904B1B881AB1904AA5
:10473800117893FBF1F30A214FF4047059432AE0EE
:1047480084F88D302B68DFF8148219057FF558AF8F
:10475800D8F820300A2193FBF1F104F005F8002382
:1047680088F88C304CE784F88D302B681A057FF573
:1047780047AF804B196818E084F88D307E4B1B6872
:104788005B077FF53DAF00210FE0216984F88D308C
:104798002C2391FBF3F103F0E7FF002384F88C301E
:1047A8002EE784F88D306169F2E703F0DDFF6B4B8B
:1047B800002283F88C2023E784F88D306E4B1B6829
:1047C80013F020087FF41CAF2B681B067FF518AF89
:1047D800414603F0C9FF614B83F88C8010E784F8E9
:1047E8008D3094F895305D4D002B00F09E80D5F803
:1047F8009830002B00F099803668D5F89C30F31A71
:10480800632B40F29280DFF86081412003F093FF30
:104818000A27B8F9020090FBF7F080B203F082FF94
:10482800B8F9000090FBF7F080B203F07BFFB8F90D
:10483800040090FBF7F080B203F074FF03F058FF18
:1048480095F8A05015F001054AD1464B1B88D905AB
:1048580018D4DA060DD49F060DD458060DD41907BE
:104868000DD4DA070DD413F0020F14BF0325012568
:1048780008E00D2506E0092504E0042502E00825E6
:1048880000E00225364B1F783C4BDB78C7F38007E6
:1048980013B147F00207FFB2532003F04CFF334B2C
:1048A800188800EB800000EB8000800080B203F0E5
:1048B80039FF002003F036FFB4F8A200FE23584366
:1048C80040F2FF3390FBF3F0C0B203F01BFF00206F
:1048D80003F018FF47EA850003F014FF03F008FF10
:1048E80094F8A030A3B94F2003F025FF0CF058FB33
:1048F8000CF056FB0CF054FB012003F003FF174BA0
:1049080093F8A40000F0010003F0FCFE03F0F0FEB1
:1049180094F8A030C4F89C600133DBB20A21B3FBE1
:10492800F1F201FB123384F8A030154D95F80080A0
:10493800B8F1020FA94640F00F8105F0B3F9114B09
:104948001F6840F6B833C71B9F421DD900232B7040
:10495800B4F8A6300133A4F8A63041E1C80D002010
:1049680079340020D8110020201C00207C11002060
:10497800800100202C110020D82C00209411002048
:10498800FB0F002034100020974D2B793A2B40F074
:10499800F7802846A97801F03BFD002840F0F08018
:1049A800924B934E1B88F361236AF362914BD4F8C0
:1049B800A8A01B68F364B4F8A630F063F766F36543
:1049C800504607F0D6FEDFF844B20746002840F00C
:1049D800C3805046414605F0F5F9042386F8743043
:1049E8009BF8AC3095F803A0DFF81C82642B4BD100
:1049F8009BF8AD30072B08BF8BF8AD7094F8AD501D
:104A080006EB051303F1040B59680191084610F0F1
:104A180024F9DBF804300093C7B2184610F01DF9EA
:104A28005FFA80FB07EB0B02083288F8072025F0B5
:104A38000F0288F80A2005F00F0288F80D200BEB0A
:104A4800C70288F80E2001996B483A4610F09CF886
:104A5800009B07F10900694F19465A46384410F07F
:104A680093F898F807B058460CF07EFA7A1C02F8CA
:104A78000B0050460CF058FA002384F8AC306B1C3D
:104A880084F8AD3000234FE096F875505C4A2B0748
:104A980004BF0135EDB2072D4FF0000328BF0125F3
:104AA80088F80A3017462801311802F1010E0B7CEC
:104AB800C96840EA030C82F800C0DFF854C11CF84A
:104AC8000320012A0EF1010306D9013A03F8011C5B
:104AD8009E46090AD2B2F4E730440135407C21F001
:104AE8006001EDB20143082D1A468EF8001009D076
:104AF8003F4800EB0510D91B007C1CF8000001445E
:104B08001329D0DDDF1B0637FFB247F0400388F8D2
:104B1800073038460CF028FA3A4B86F87550D855C5
:104B280050460CF001FAADE798F802205D1CDBB2A4
:104B38009A4207D9344AD4F8A800D15C05F04EF956
:104B48002B46F1E794F8AC300322013386F8742041
:104B580084F8AC3089F80020254D95F87430032B83
:104B68003ED1D4F8A80005F030F9002838D0274BFA
:104B78000121D3F8A80005F025F9022385F874303F
:104B8800002389F800302BE099F8023023B1C7F8E8
:104B9800648089F802A07AE47B6EC3EB0803B3F55E
:104BA8007A6FFFF474AC0123B86E89F8023005F00F
:104BB8000FF98146B86E05F00BF919F07F0F7FF4F5
:104BC80066AC8E287FF463AC97F86030002B7FF4D6
:104BD8005EAC07F12C03FB662D2387F8703056E492
:104BE80005B0BDE8F08F00BF281000207C11002020
:104BF800080000202C1100203F2D0020362D002019
:104C08003D2D0020372D0020302D0020C80D00201C
:104C1800FF890108F0B503788BB005460BB1002475
:104C280031E0484C1D46B4F95A11B4F95621B4F98B
:104C38005831009194F85D11019194F85E11029138
:104C480094F95C11039194F95F1104913E48294647
:104C580001350BF067FC082D04F10E04E3D16FE079
:104C68002D2B14D1072C1BDC284610F04DF80AAB6D
:104C7800661C03EB440424F8100C15F8013F303B84
:104C8800092BFAD934462B78002BE9D104E0A3F19B
:104C98003002092A09D8E5E7082CBDF8183009D0F0
:104CA8000BB0BDE8F04005F0C5BA202BF8D10135AE
:104CB8002646E7E7072BF3D8BDF81A00A0F2EE2244
:104CC80092B240F2DC54A242EAD8BDF81C10A1F21C
:104CD800EE2292B2A242E3D8BDF81EE002B20FFA69
:104CE8008EF59542DCDB0CB2A542D9DC9442D7DBC9
:104CF800BDF8245005F1640292B2C82AD0D8BDF894
:104D0800264022B2112ACBDCBDF82070B42FC7D8B8
:104D1800BDF82260B42EC3D81AB20A4B4FF00E0C5D
:104D28000CFB0233A3F85601A3F85811A3F85AE173
:104D380083F85D7183F85E6183F85C5183F85F41A5
:104D48000BB0F0BD582D0020E48A0108F0B50446E8
:104D58008FB020460FF081FFC5B225BBA848A94CEB
:104D68000BF038FD94F8E81009B9A7484FE049B2AC
:104D780094F8E62094F8E730009194F8E91001914E
:104D880094F9EA10029194F9EB10039194F8EC105D
:104D980004919E48294601350BF0C4FB102D04F1FF
:104DA8000704DFD1E1E72046994905220FF05EFFAD
:104DB800054690B99748294670220FF00BFF284600
:104DC800904A0E2303FB0023013000220828A3F891
:104DD8006021A3F86221F3D10FE120468E49042215
:104DE8000FF044FF05462046002D49D120210FF041
:104DF80026FF002800F00181461C30460FF02DFFE9
:104E08002C460746854B53F824502DB984480FB0DB
:104E1800BDE8F0400BF086BB30462946FAB20FF0E9
:104E280025FF01340028EDD1764A02F170011646BB
:104E3800002382F8EC3082F8E83082F8E73082F814
:104E4800E63007328A42F3D1764911F8342093428A
:104E580011DA01EBC401C3EBC3024F68B0183A443E
:104E680000F1E6011768C0F8E670908888809279AA
:104E78008A710133E8E76C4829460BF053FB8FE051
:104E88006A4907220FF0F2FE05462046002D49D157
:104E980020210FF0D4FE06460FF0DFFEC4B26CBB33
:104EA80063480BF03FFB2146624801340BF03AFBA4
:104EB8000E2CF8D154480BF035FB00245E482146EF
:104EC8000BF030FB00254F495C480E2202FB041210
:104ED8000123D2F860215A49AB401342594B05F1DE
:104EE800010508BF19460BF01DFB0E2DEBD14648F6
:104EF80001340BF017FB082CE0D17EE03046524914
:104F08000FF006FF2C4600284CD0022C4FD00FF093
:104F1800FBFE06AB4C4943F8240000200FF0F8FED6
:104F28000134F0E748490FF0F3FE002460B1082C83
:104F380038D00FF0E9FE06AB434943F824000020BF
:104F48000FF0E6FE0134F1E7082C2BD1069B0F2B5E
:104F580028D8DDF81CE0BEF1070F23D8089F0D2FD5
:104F680020D8099E06F16402C82A1BD80A9DFF2D85
:104F780018D80B98642815D80C99642912D8884237
:104F880010DA0D9C032C0DD8304AC3EBC30313442D
:104F980083F806E0DF711E725D729872D9721C7315
:104FA8002B4CD6E60FB0BDE8F04005F043B9069BA0
:104FB800072B1ED807990D291BD80278722A0CD006
:104FC8006E2A16D10F4A0E2000FB032301228A40C5
:104FD800D3F8601121EA020208E00A4A0E2000FB19
:104FE800032301228A40D3F860110A43C3F86021E1
:104FF80001E005F01FF90D4CABE60FB0F0BD00BFA6
:105008000C8B0108582D0020FA9B0108378B0108EA
:10501800F19F01083E2E0020538B01088873010878
:10502800588B010864690108678B0108048B010823
:10503800DE8E0108738B0108449A0108788B0108F9
:10504800B89F010883A001087C8B0108382E002036
:105058009E8601082DE9F743047805468CB9324D40
:1050680095F85B13B5F8582395F85A332F480091F3
:10507800214601340BF056FA102C05F10405EFD146
:105088004EE00FF041FE0F28044636DC284620216A
:105098000FF0D5FD264EE4B2D6F80080451CA400DA
:1050A800002728460FF030FE5FFA87F9B9F1010FA3
:1050B80083B208D0B9F1020F0BD0B3F5B47F24D274
:1050C800326813530AE0FF2B1FD8336823449870C3
:1050D80004E0FF2B19D833682344D87028462C21C4
:1050E8000FF0ADFD054608B1013502E0B9F1020F38
:1050F8000BD10137032FD4D112E00E4800210F2223
:1051080003B0BDE8F04305F00FB808EB0400002138
:1051180004220FF05FFD03B0BDE8F04305F08AB844
:1051280003B0BDE8F08300BF582D00207E8B010836
:10513800780E0020928B01082DE9F04304788FB097
:105148000546002C59D17C4B0021142209A807AE32
:10515800D3F804800FF03EFD0722304600210FF0FF
:1051680039FD05A80023A700059308EB07058380F0
:105178001A467249B5F802E031F813C01CEA0E0F5E
:105188000AD00DF1380C0E3102F1010E6244595C5F
:1051980002F81C1C5FFA8EF20133072BE9D10021BB
:1051A8000B46674AB5F802E011F802C01CEA0E0F78
:1051B8000AD00DF1380C063203F1010E63448A5C03
:1051C80003F8242C5FFA8EF301310629E9D118F887
:1051D80007305C498DE841006A78029209A81A09EB
:1051E80003F00F0308F0EFFC2146574809AA0134E1
:1051F8000BF098F9202CA6D19BE00FF085FD1F2815
:10520800044600F3898028462021E4B20FF017FDF8
:105218001F2C02D905F00EF88BE0474B5B6803EBB7
:105228008404451C0021204604220FF0D3FC0027EB
:10523800464B09AE304600210A2217F803905FFA60
:1052480087F80FF0C7FC002315F8012B32B10A2BA1
:1052580004D04A4502D0F2540133F5E74A4561D1FA
:1052680008F1FF33032B09D8DFE803F010050242E9
:105278000DF1230037E00DF123011FE030460FF058
:1052880043FD2378C0B243EA001006E030460FF031
:105298003BFD237800F00F001843207034E0013301
:1052A800062B0BD02A4800F1F3069E5D9642F6D1F4
:1052B800034493F8ED2063881343638011F8012FAA
:1052C80012B30023EEE70133072B0CD0204A02F17A
:1052D800E6069E5D8E42F6D102EB4303B3F8D82072
:1052E80063881343638010F8011F69B10023EDE759
:1052F80030460FF009FD0F2804DC30460FF004FD9E
:10530800607001E0002363700137052F90D10124FC
:1053180006F02EFD6CB97DE70E4800211F2204F02F
:1053280003FF06E02046002104220FF053FC00246E
:10533800EEE70FB0BDE8F083780E00203C6A010864
:10534800516A0108988B0108A78B01085D6A01085A
:1053580064690108928B0108F8B50478064674B9A7
:10536800314DB5F87622B5F8783230482146013407
:105378000BF0D8F8042C05F10405F2D1F8BD2C493E
:105388000FF030FCA8B9284B4FF47A714FF4FA6249
:10539800A3F87612A3F87822A3F87A12A3F87C224D
:1053A800A3F87E12A3F88022A3F88212A3F884221D
:1053B800F8BD30460FF0A8FC032805462CD8304627
:1053C80020210FF03CFC044630B1013420460FF098
:1053D8009BFC0126074600E00646204620210FF0E8
:1053E8002EFC18B9BDE8F84004F024BF01300FF0D6
:1053F8008BFC012EF6D1A7F2EE2240F2DC539A4242
:10540800F0D8A0F2EE229A42ECD8074B9C3503EB79
:105418008503DF801881F8BD064800210322BDE816
:10542800F84004F081BE00BF582D0020B38B01085E
:10543800F19F01080C9E01082DE9FF4104780546FB
:10544800002C39D17348744D0BF0C4F9D5ED047AAA
:10545800F5EE407AF1EE10FA00F0D88021466F4858
:105468000BF060F895ED040A684608F041FA014629
:105478006B480BF057F895ED050A684608F038FABE
:10548800014667480BF04EF895ED060A684608F0A5
:105498002FFA014662480BF045F895ED070A684671
:1054A80008F026FA013401465E480BF03BF80C2C54
:1054B80005F11005CAD1A9E05B4905220FF0D6FB1A
:1054C80040B9554B03F1C002002143F8101F934225
:1054D800FAD19BE02846554904220FF0C7FB044641
:1054E8002846002C40D120210FF0A9FB002800F00D
:1054F8008D80451C28460FF0B0FB07464C4B53F8EF
:1055080024601EB94B480BF065F97FE02846314608
:10551800FAB20FF0ABFB01340028EFD13E4B03F198
:10552800C0029E46002143F8101F9342FAD1424B15
:1055380003EBC4029846D2F804C0BCF1000F04D1B2
:105548003E4831460AF0EEFF57E0002718F834309D
:105558009F42F5DA3B010EEB030563440FCB103590
:1055680085E80F000137F1E70FF0CEFB0B28064660
:1055780047DC284620210FF062FB054650B1013573
:10558800284608F02BF9244B03EB061383ED040A95
:10559800012400E00446284620210FF050FB054670
:1055A80048B10135284608F019F91B4B03EB0613DF
:1055B80083ED050A0134284620210FF040FB0546FB
:1055C80048B10135284608F009F9134B03EB0613D7
:1055D80083ED060A0134284620210FF030FB10B96C
:1055E80004F028FE12E0013008F0F8F80A4B032C0A
:1055F80003EB061686ED070AF2D11148FFF71CFFE8
:1056080004E0104800210B2204F08EFD04B0BDE830
:10561800F08100BFC68B0108582D0020E18B0108DE
:10562800E78B0108C08E0108F19F0108538B010820
:1056380088730108588B01080C8A0108678B0108D8
:105648009E860108928B0108F0B5057887B006465A
:105658000DBB514C94F8A20494F8A37494F8A624B2
:1056680094F8A13419214FF4617611FB006011FB05
:1056780007610090019194F8A414029194F8A5147C
:1056880003914648294601350AF04CFF0F2D04F1D5
:105698000604DFD17EE00FF037FB0E28044674DCE9
:1056A8000023701C20218DF817300FF0C8FA3A4EED
:1056B800054680B1013528460FF026FB03289FBF19
:1056C800062303FB046383F8A6049DF817309CBFE8
:1056D80001338DF81730284620210FF0B0FA07461D
:1056E80080B1013738460FF00FFB0D289FBF062306
:1056F80003FB046383F8A1049DF817309CBF0133B2
:105708008DF81730062565437119384601F2A24114
:105718000DF1170204F0DDFC20210FF090FA074686
:1057280078B1013738460FF0EFFA14289FBF1A4BAB
:10573800ED189DF8173085F8A4049CBF01338DF847
:105748001730384620210FF07AFA78B101300FF07F
:10575800DBFA0D289FBF062303FB046383F8A50427
:105768009DF817309CBF01338DF817309DF817301E
:10577800062B0FD0062202FB0460002100F2A14094
:105788000FF028FA04F056FD04E0054800210E2227
:1057980004F0CAFC07B0F0BD582D0020EB8B0108BF
:1057A800928B01082DE9F341037823B902B0BDE8D3
:1057B800F04104F03FBD53490FF0AAFA0026054610
:1057C8003446B0464FF0FF376DB3012E07D0022E96
:1057D8000AD00EBB28460FF097FA07461CE0284669
:1057E8000FF092FA804617E0284647490FF074FAFE
:1057F80020B9284645490FF06FFA08B144F0010472
:10580800284643490FF068FA20B9284641490FF065
:1058180063FA08B144F0020400203A490FF078FA1C
:1058280001360546D0E7F9B20C236B433A4A9E1875
:105838009B5648B2834202D175681DBB02E0013510
:10584800042DF1D1B8F1000F01D134480EE0002C3D
:1058580008BF03240022E4B2009401924FF480713F
:10586800434604F0B1FD054630B92D48394602B02B
:10587800BDE8F04108F0BCB939464246294808F06D
:10588800B7F90FE02848394608F0B2F954B16979F8
:10589800A14207D02548224608F0AAF92846E1B2D5
:1058A80004F090FA2248234C08F0A2F9224B1E6813
:1058B800304604F06BFD284604F068FD2368A28892
:1058C8009A61304604F087FA60B12368A2881A8585
:1058D800304604F07DFA0146284604F07FFA236832
:1058E800A2889A61284604F076FA0028E9D023684D
:1058F800A2881A85284604F06BFA0146304604F05F
:105908006DFADBE77C8B01080B8C01080E8C010813
:10591800118C0108559701080C330020148C0108DC
:10592800418C01085F8C0108798C0108908C010872
:10593800C08C0108BC110020E82C002003788B42A1
:1059480086BF024B33F8110000207047800E0020FC
:10595800024B03EB8101088C704700BF800E0020CA
:1059680003788B4283BF034B03EB4101B1F840003E
:1059780000207047800E002070B50022134626498B
:1059880014180C4494F8584083EA0423082413F4A8
:10599800004F4FEA430318BF83F4815304F1FF34E7
:1059A80018BF83F0010314F0FF049BB2EFD101325A
:1059B800192AE4D100F1190200F11A050A440D442C
:1059C80092F8586095F8582002EB062292B29A4253
:1059D80021D1114B93F87950E2B2AA4218D2431C54
:1059E80003EB4203DBB2CA1801330B4492F8582088
:1059F80093F8583003EB02239BB24FF4AF62534342
:105A08001B13064A03F5487322F814300134E3E700
:105A1800012381F87A3070BD800E0020C00E00206E
:105A280003788B420BD9074B1A78074B8900194426
:105A3800C86F02B1400800F5777080B27047002047
:105A4800704700BF04330020800E002007299DBF47
:105A5800034B03EB8101B1F8AC000020704700BF95
:105A6800800E0020034B03EB4101B1F8CC00C008C5
:105A7800704700BF800E00200A4BDFED0B7A03EB66
:105A8800810191ED3B7AB8EE477AF6EE046AE7EECB
:105A9800267A82B0FCEEE77ACDED017ABDF80400F3
:105AA80002B07047800E002000005C44024B03EBFC
:105AB8004101B1F834017047800E0020024B03EB1E
:105AC8004101B1F858017047800E0020024B03EBEA
