:020000040800F2
:1000000000A000200D2C01080DDD0008B518010826
:100010000BDD000809DD000807DD00080000000016
:1000200000000000000000000000000005DD0008E6
:1000300003DD00080000000001DD000853BB0008DC
:10004000752C0108752C0108752C0108752C010808
:10005000752C0108752C0108752C0108752C0108F8
:10006000752C0108752C0108752C0108752C0108E8
:10007000DDBA0008C9BA0008FFCC0008752C0108D9
:10008000B5BA0008A1BA0008752C0108752C010842
:10009000EDDD0008752C0108752C0108752C010890
:1000A00005F5000831F50008F5F4000841F50008F1
:1000B00025F5000815F50008752C0108752C0108B8
:1000C000752C0108752C0108752C0108752C010888
:1000D000752C0108FDF60008F1F60008E5F60008A9
:1000E00061BB0008752C01083D1C0108752C010836
:1000F000752C0108752C0108752C0108752C010858
:10010000000000000000000000000000752C010845
:10011000752C0108752C0108752C0108752C010837
:10012000752C0108752C0108752C0108752C010827
:10013000752C0108752C010800000000000000006B
:10014000752C0108752C0108752C010800000000B1
:10015000000000000000000000000000000000009F
:100160000000000000000000752C0108752C01083B
:10017000752C0108000000000000000000000000D5
:0801800000000000752C0108CD
:100188002DE9F04F9C4BDDB01E780293002E00F055
:10019800DE809A4B1868002801F0B9870BF062FCE2
:1001A800974C20680BF0ADFD002801F0B08720685F
:1001B800944C0BF0A3FD092801D03F2849D14FF0FA
:1001C80000082768904D46462FB1904829683A465E
:1001D80014F08EFE10B9A84606B92E468C4B103581
:1001E8009D42F1D3C6B1D6F800E0D8F800C0236824
:1001F8001EF803501CF80300A8420DD15A1C83496D
:1002080038B92D2B05D87F4D2A602025CD54885428
:1002180002E0CD542260EAE723680BB146450FD0CF
:100228007C4810F069FF464507D856F8100B10F0C7
:1002380063FF092010F0EEFDF5E70AF0C5FE002780
:1002480023689F42ACD2714BD85D10F0E3FD0137B3
:10025800F6E72368002B41F0DF86042841F0308759
:100268006A4808F0B5FE01F052BF2068DFF8C48183
:100278000BF047FD002850D0D8F800000BF03EFDE9
:10028800DAF8003093F848208346002A79D12428E8
:1002980040F0D880012283F84820DAF8002092F84C
:1002A80048000628E1D192F849304D2B00F07E85B0
:1002B80000F2C581322B00F09B8500F26081242B6F
:1002C80000F02B8500F21481032B00F0648240F2C9
:1002D800EE80052B40F000811A200EF0ABFE0024C2
:1002E8004D4B185D01340EF060FE0B2CF8D1002444
:1002F8004A4B185D01340EF058FE082CF8D1002442
:10030800474B185D01340EF050FE072CF8D10EF063
:100318005DFE3B68002283F84820424CD9F8000073
:100328000BF0A0FB94F834306BB13F4B985906F0B2
:10033800C1FE0BF05BFD0DF0C1FB002384F83430E7
:100348003A4B3B4ADA604C36982E01F0E086364A42
:10035800354BB258F318002AF5D0364C364F226088
:100368001592DFF8DC903B60002214AB334D8DF81A
:100378005920142214958DF85820C9F80030BA462F
:1003880073E7012A04D14D2814BF0022022282E714
:10039800022A04D13C2814BF002203227BE7032A47
:1003A8000AD140284FF000029FBF1A71DA715871C4
:1003B800987198BF04226EE7042A08D19A7983F8C5
:1003C800490080EA020B83F806B0052263E7052A94
:1003D8007FF463AF59791A799142997906D94140E6
:1003E8009971511C19711344187256E781420CBF58
:1003F800062200224FE700BFBB2B00207C290020EB
:100408009829002050150020C086010820150020DA
:10041800B0880108A68901080E8A01081A8A01080D
:10042800238A0108640900207428002000ED00E0F8
:100438000400FA05282100202021002017BD00080B
:1004480024210020D94A137803F0040303F0FF00A5
:10045800002B7FF422AFBBF1230FD8F8001019D17D
:100468000192029A01231370D14B1960D14B196084
:10047800996010211973D04958735D60CF480433CF
:100488000B6010F039FE0AF09FFD019A137843F0D3
:1004980002031370CA4B1B681B785B4501BFC94B2D
:1004A800C94A1A60C94B04BFC94ADA60F5E6012B8C
:1004B80000F06581022B40F0C28504200EF0BAFDE1
:1004C80042200EF072FD54200EF06FFD46200EF013
:1004D8006CFD4C2000F098BDC0F08481222B40F0C8
:1004E800AE85BC4C50200EF0A5FD04F15005F2E29B
:1004F8002A2B00F03A8419D8262B00F01484282BD4
:1005080040F09D85B34C07200EF094FDB4F8160218
:100518000EF093FDB4F818020EF08FFD94F81A024D
:100528000EF043FDB4F81C0200F04DBD2E2B00F078
:10053800BD84302B00F0D1842C2B40F08085A54C55
:100548000C200EF077FD94F838020EF02EFDB4F86A
:1005580044020EF072FDB4F840020EF06EFDB4F8DD
:1005680042020EF06AFD94F83A020EF01EFDB4F84D
:100578004C020EF062FDB4F84E0200F024BD402B90
:1005880000F03D8424D8382B00F0DC8312D8342BBB
:1005980000F0E082362B40F05285864B8D4C93F864
:1005A8003000C0EBC000C0B20EF044FD04F12005DD
:1005B80000F061BC3B2B00F087823D2B00F02682C7
:1005C8003A2B40F03C8504200EF034FD00F0E4BCEA
:1005D800462B00F0A8840BD8422B00F01F84452B33
:1005E80040F02D8513200EF025FD002400F0CABC34
:1005F800492B00F016824B2B00F0BD83472B40F0AF
:100608001E850EF0C9FC054684200EF013FD284611
:100618000EF01CFD704BDC6805F18003A3428CBF13
:10062800641B80240DF1700808F038FC2846224627
:10063800414607F087FA0024054600F088BC702B75
:1006480000F0228257D8672B00F02C8134D8522B27
:1006580000F0938418D84F2B00F08284502B40F080
:10066800EE845C4C04200EF0E5FC01200EF09DFCAD
:1006780094F8E7040EF099FC94F8E5040EF095FC64
:1006880094F8E60400F0C0BC652B00F0BB8000F2D3
:10069800E180642B40F0D38407200EF0CBFCE720E8
:1006A8000EF083FC4B4B58790EF07FFC00200EF0C7
:1006B8007CFC042000F071BC6C2B00F06B810ED820
:1006C800682B00F05081692B40F0B984434D28789D
:1006D800400000F0FE000EF0ADFC00244FE16E2B50
:1006E80000F0678100F2A38106200EF0A3FC002031
:1006F8000EF0ACFCD4E07C2B00F053841CD8742B97
:1007080000F04B820AD8722B00F0AE82732B40F0B7
:10071800968408200EF08EFC0124DAE2772B00F094
:100728008182782B00F0CA80752B40F088842F20B6
:100738000EF080FC2A4CBFE1A02B00F0E08209D823
:100748007E2B00F05384C0F04284962B40F07784CF
:100758000C2058E0F12B00F0E080FE2B00F0C18265
:10076800F02B40F06C841B4C04200EF063FCB4F8B2
:10077800EE010EF062FCB4F8EC0100F024BC03209A
:100788000EF058FC00200EF010FC01200EF00DFCBD
:10079800102000F039BC18460EF04CFC02200EF078
:1007A80004FC08200EF001FCEAE300BFBE2B002089
:1007B80098290020640900207C290020D689010896
:1007C80018290020FC9F0020EFBEADDE00ED00E000
:1007D8000400FA0580230020D800002010290020FA
:1007E800C767010806200EF025FC4D200EF0DDFB42
:1007F8004F200EF0DAFB54200EF0D7FB4F200EF0FE
:10080800D4FB4DE00B200EF015FCC04B18880EF001
:1008180014FC05F0F3F90EF010FCBD4B1B68C3F394
:10082800C000C3F38002800040EA4200C3F34002E4
:100838001043C3F3401240EAC20003F01003184308
:100848000EF0FBFB0EF0DAFA0EF000FCB14B93F859
:100858003A04D9E312200EF0EDFBAF4B1B88B3F539
:10086800806F8CBF082501250024AC4B53F8240069
:1008780090FBF5F0013480B20EF0DFFB032CF4D1CD
:10088800A74C20880EF0D9FBA0880EF0D6FB208953
:100898000EF0D3FB00200EF0D0FB00200EF0CDFBB5
:1008A800002090E310200EF0C5FB00249D4B185D3E
:1008B80001340EF07AFB102CF8D128E57020954C05
:1008C8000EF0B8FB0025A046B4F858010EF0B5FBB1
:1008D800B4F85A010EF0B1FBB4F85C010EF0ADFBB0
:1008E80094F85E010EF061FB94F85F010EF05DFB79
:1008F80094F860010EF059FB94F861010EF055FB75
:100908000E2303FB05830135D3F862010EF09EFB2D
:10091800082D04F10E04D7D1F9E470207D4C0EF0B7
:1009280089FB04F1700594F8E8000EF03EFB94F89A
:10093800E9000EF03AFB94F8EA000EF036FB94F862
:10094800EB000EF032FB94F8EC000EF02EFB94F85E
:10095800ED000EF02AFB073494F8E7000EF025FBB3
:10096800AC42E0D1D3E410200EF064FB00246E4BBF
:10097800185D01340EF019FB102CF8D1C7E42B7860
:100988009C42BFF4C4AC694B33F814000EF055FB1D
:100998000134F4E7664C0EF04DFB20880EF04DFB59
:1009A80060880EF04AFBB4F904300A2093FBF0F09B
:1009B80027E007200EF03EFB5E4B1888FF28A8BFF3
:1009C800FF20C0B20EF0F1FA5B4B18684FF6FF74C7
:1009D800A042A8BF204620EAE07080B20EF02DFBAE
:1009E800564B18880EF029FB4A4B93F81B22544BA0
:1009F800186842B10A235843A042A8BF204620EAFB
:100A0800E07080B2DFE200F30F00FAE7414C022009
:100A18000EF010FB94F887020EF0C7FA94F88602DD
:100A2800F2E202200EF006FB464B1888CBE2464C59
:100A38000B200EF0FFFA236818780EF0B6FA236838
:100A480098780EF0B2FA4FF0000825462B683E4C15
:100A5800434408F1010858790EF0A7FAB8F1030FDA
:100A6800F4D12368187A0EF0A0FA2368D8780EF02B
:100A78009CFA236818790EF098FA236858890EF0C2
:100A8800DCFA2368587ABFE21E200EF0D3FA00245D
:100A98002E4D2B68234458780EF087FA2B68234490
:100AA800D87A0EF082FA2B6823440134587D0EF070
:100AB8007CFA0A2CECD12AE414F8010F00283FF440
:100AC80026AC0EF072FAF7E701200EF0B3FA1F4BCE
:100AD8001B68187898E294F83B241D4B0C2101FB05
:100AE8000233043493F838000EF05FFA94F83804AF
:100AF8000EF05BFA94F839040EF057FA94F83A04B9
:100B08000EF053FAAC42E6D101E400BFB62B002048
:100B1800902000208023002008000020980E00204C
:100B2800901500208409002084160020342300201A
:100B38008A150020F8120020B01200202E0F002085
:100B4800AC0E00202C210020700E00206015002023
:100B5800C86701085A20CA4C0EF06CFA04F15A050D
:100B680094F890040EF021FA94F88B040EF01DFA14
:100B780094F88C040EF019FA94F88D040EF015FA16
:100B880094F88E040EF011FA063494F889040EF0E5
:100B98000CFAAC42E4D1FFF7BABB00254FF0010ACA
:100BA8004FF0000BB74B1B789B4531DAB64B1BF85F
:100BB80003204FF00008B54C0C2304F1300103FB6F
:100BC80008F3595C914209D12344586B14F087F912
:100BD8000246BAF1000F07D1534607E008F10108B1
:100BE800B8F11E0FE7D110E005440EE093420CDA8D
:100BF8000C2101FB08410392496B0193C85C0EF07C
:100C0800D4F9019B039A0133F0E70BF1010BC9E713
:100C1800BAF1000F3FF47BABE8B20EF00BFA4FF0DD
:100C2800000ABDE7974D28780EF004FA00242B78C7
:100C38009C42BFF46CAB944B14F803E0002193483A
:100C48000C2200F1300C02FB01F313F80C20724562
:100C580005D1034493F838000EF0A7F902E00131FA
:100C68001E29ECD10134E2E7854C16200EF0E2F99A
:100C7800B4F840020EF0E1F9B4F8D0000EF0DDF956
:100C8800B4F8D2000EF0D9F9B4F8D4000EF0D5F9C2
:100C9800B4F894020EF0D1F900200EF086F9002085
:100CA8000EF083F900200EF080F994F81B020EF084
:100CB8007CF994F83C020EF078F900200EF075F9F2
:100CC800B4F9EA310A2093FBF0F080B20EF0B5F9DE
:100CD8003CE0E0B201340EF068F9092CF9D1FFF7D5
:100CE80016BB08200EF0A6F90024694B33F814004F
:100CF80001340EF0A2F9042CF7D1FFF708BB0C2041
:100D08000EF098F9634B18680EF0A0F9624B18685A
:100D18000EF09CF9614B18683FE104200EF08AF947
:100D2800574B986839E1564C06200EF083F9B4F811
:100D3800CC010EF082F9B4F8D0010EF07EF9B4F8C7
:100D4800D40140E104200EF075F94D4C94F80E02E0
:100D58000EF02BF994F812020EF027F994F811020C
:100D68000EF023F994F813024EE101200EF062F917
:100D7800434B587948E1424C08200EF05BF994F84F
:100D880092020EF012F994F893020EF00EF9B4F8EC
:100D980094020EF052F994F896020EF006F9B4F89F
:100DA80098020EF04AF994F89A022DE13C4C3D4D18
:100DB800207800EB4000C0B20EF03CF94FF000087C
:100DC8002378984505F10205BFF4A1AA15F8020C8D
:100DD8000EF0EBF815F8010C00EB800000EB80003A
:100DE80000F2EE2080B20EF028F908F10108E7E7DA
:100DF80001200EF01FF9224B93F83C0204E1082071
:100E08000EF018F900241E4B2344013493F83002E5
:100E18000EF0CBF8082CF6D1FFF779BA184C102051
:100E28000EF008F960790EF0C0F8A0680EF00EF91F
:100E380094F838020EF0B9F8B4F8CC010EF0FDF8C9
:100E4800B4F8D0010EF0F9F8B4F8D4010EF0F5F8C2
:100E5800B4F816020EF0F1F8B4F81802B3E0124A2A
:100E6800D25C904200F0D4800C33302BF7D1083498
:100E7800AC423FF44CAA94F89E020023EFE700BF6F
:100E8800802300200021002001210020C8670108DC
:100E9800D0120020ACF7FF1FB0F7FF1FB4F7FF1FF9
:100EA80010290020D02500201C2900204020D04CEB
:100EB8000EF0C0F804F14005B4F854030EF0BDF884
:100EC80094F856030EF071F8043494F853030EF0B6
:100ED8006CF8AC42F0D1FFF71ABAE020C44C0EF01F
:100EE800A9F804F18005B4F8D60200F03F000EF02E
:100EF800A4F8B4F8D602C0F386100EF09EF894F861
:100F0800D40200090EF051F894F8D40200F00F0052
:100F18000EF04BF8043494F8D1020EF046F8AC42C7
:100F2800E1D1FFF7F4B90D200EF084F806F0E4FCE7
:100F3800B04C40F00200C0B20EF037F820880EF036
:100F480085F8E0680EF082F806F0B6FC25E0AC42C1
:100F5800BFF6DDA918F804000EF027F80134F6E70B
:100F68000B200EF067F800200EF01FF800200EF09E
:100F78001CF800200EF019F80BE001200EF05AF8CA
:100F8800002041E09C4B185D01340EF00EF80B2C4C
:100F9800F8D100200EF05AF800200EF057F8FFF7AD
:100FA800B6B9934C08200EF045F8B4F8DA000EF004
:100FB80044F8B4F8DC000EF040F8B4F8DE000EF0A7
:100FC8003CF8B4F8E0000EF038F8FFF7A0B9884C08
:100FD80003200EF02FF894F81E020DF0E6FF94F8A7
:100FE8001F020DF0E2FF94F820020DE0804C032070
:100FF8000EF020F894F8C9010DF0D7FF94F8CA0153
:101008000DF0D3FF94F8CB010DF0CFFFFFF77FB9B8
:101018000DF0CBFFB4F8A0020EF00FF894F8A2027E
:101028000DF0C3FF94F8A3020DF0BFFF94F8A502DA
:101038000DF0BBFF94F8A4020DF0B7FF17E74E2B95
:101048003BD10DF093FF1128054602D90FF078FE29
:101058002EE00DF08BFF664C05F5947504F815002D
:101068000DF090FF40F2ED23984205DD40F6CA03EB
:101078009842A8BF184601E040F2EE2004EB450470
:10108800A0F2EE20192390FBF3F0607010E0C0F09E
:10109800FC82D02B00F00783D22B40F0B987574B46
:1010A8001B7803F0040303F0FF04002B00F0078310
:1010B80000200DF0BFFFFFF72AB900F2E381352BBE
:1010C80023D10DF053FF0E280546BFD80DF04EFF73
:1010D8000328BBD8464B062404FB053484F8900447
:1010E8000DF044FF84F88B040DF040FF84F88C0465
:1010F8000DF03CFF84F88D040DF038FF84F88E0461
:101108000DF034FF84F88F04D2E700F2E5802B2B32
:1011180004D10DF02BFF364B5871C9E77AD8252B2F
:1011280007D1334B00229A600DF036FF0CF0BEFC5D
:10113800BEE738D8232B40F06B870DF017FF132834
:10114800044683D80DF012FF00222D490C23534387
:10115800CD1895F83850854221D1254D0B4404F51A
:10116800877405EB840493F83030E3700DF0FEFECD
:1011780020710DF0FBFE60710DF0F8FE214B224945
:101188001A68A07105F1D0030B60204B00201A608B
:101198000FF09AFC1E4B80F00100187088E70132AE
:1011A8001E2AD2D152E7272B0DD10DF0EBFE104CA1
:1011B800C4F8CC010DF0E6FEC4F8D0010DF0E2FE53
:1011C800C4F8D40174E7292B40F022870DF0DAFE29
:1011D800074CA4F816020DF0D5FEA4F818020DF07D
:1011E800C5FE84F81A020DF0CDFEA4F81C025FE7D4
:1011F80080230020D80000200E8A0108BE2B002082
:10120800C867010860150020740E0020780E0020C1
:10121800020000202F2B00F06E8425D82D2B40F0E3
:10122800F7860DF0A3FEC34C84F838020DF0AAFE31
:10123800A4F844020DF0A6FEA4F840020DF0A2FEA8
:10124800A4F842020DF092FE3B6884F83A025B79FA
:10125800082B7FF62DAF0DF095FEA4F84C020DF08B
:1012680091FEA4F84E0223E7312B2CD10DF07EFE1F
:101278001F2804463FF6EAAE3B685B79082B7FF4EB
:10128800E5AE0DF07FFEAB4BB43403EB840400F005
:101298003F00E0800DF076FEE388800100F4FE5008
:1012A8001843E0800DF062FE000120710DF05EFE33
:1012B800237900F00F00184320710DF057FE60717C
:1012C80007F08CFDF4E6332B40F0A2860DF04EFEBD
:1012D800984B83F83C02EBE6412B0AD100240DF031
:1012E80045FE944B23440134082C83F83002F6D190
:1012F800DEE672D8392B11D10DF038FE8D4C84F80A
:101308000E020DF033FE84F812020DF02FFE84F861
:1013180011020DF02BFE84F81302C9E632D8372BE0
:1013280040F0768653790724B3FBF4F2C2EBC2028D
:101338009A1A12F0FF0F7FF489AEB3FBF4F4013C64
:10134800E4B2FF2C3FF4B4AE0DF010FE5FFA80F863
:101358004FFA88F005F0D0FF054600283FF476AE36
:1013680080F800800DF00EFE68800DF0FFFD2871FA
:101378000DF0FCFD68710DF0F9FDE8710DF0F6FD5A
:10138800A871DCE73C2B1BD16B4C256895F80080D5
:101398000DF0ECFD18B10228A8BF022000E00120E2
:1013A80028702368654A1B78022B14BF6449654975
:1013B800116098453FF47CAE00200DF050FE77E6B2
:1013C8003E2B40F025860DF0D1FD5A4C84F887025B
:1013D8000DF0CCFD84F886026AE6482B02D106F0AF
:1013E80089FB65E62CD8432B22D10DF0BFFD514C6B
:1013F8000023A36060710DF0CFFD0CF057FB0DF0DA
:10140800B5FD84F838020DF0BDFDC4F8CC010DF02F
:10141800B9FDC4F8D0010DF0B5FDC4F8D4010DF044
:10142800B1FDA4F816020DF0ADFDA4F818023FE6D0
:10143800442B40F0ED85444B012283F8342037E6F5
:101448004A2B02D10DF09EFDB7E74C2B40F0E0850A
:101458000DF08CFD374C84F892020DF087FD84F86E
:1014680093020DF08FFDA4F894020DF07FFD84F82F
:1014780096020DF087FDA4F898020DF077FD84F828
:101488009A0215E6D32B04D10DF07CFD2E4B58861D
:101498000EE600F21E81CD2B09D12C4B1B785C0780
:1014A8003FF506AE2A4B4FF4C8721A8000E600F2E8
:1014B800B380C82B26D154796408122C3FF6C6ADE8
:1014C8000025A54206D20DF05DFD1CAB23F81500E2
:1014D8000135F6E722460023A34207DA1CA931F8B2
:1014E80013001C4921F813000133F5E7122A05D02F
:1014F800184B002123F812100132F7E7164B01228E
:101508001A70D5E52CD8512B40F08285134B1B78E7
:10151800012B3FF6CDAD0DF029FD064C84F8E7040C
:101528000DF024FD84F8E5040DF020FD84F8E604B0
:10153800BEE500BF80230020601500207C0100204C
:10154800D1B20008FDB5000864090020BE2B0020B8
:10155800280E0020C01F00203D2200204214002039
:10156800CA2B18D10024B34DD5F800800DF0FEFC2D
:10157800A04488F80100D5F800800DF0F7FCA044DD
:101588002D6888F80B000DF0F1FC254401340A2C75
:101598006875E8D18CE5CC2B40F03A855379092B56
:1015A8007FF654ADA44C25680DF0E0FC2870256842
:1015B8000DF0DCFCA8700DF0D9FC23686428A8BFE6
:1015C800642058710DF0D2FC23686428A8BF6420F9
:1015D80098710DF0CBFC2368FF28A8BFFF20D871B5
:1015E8000DF0C4FC2568642828BF642028720DF01B
:1015F800BDFCE87025680DF0B9FC287125680DF070
:10160800C1FC3B6868815B790A2B7FF651AD246881
:101618000DF0ACFC60724BE5CF2B7FF438AD0DF0CC
:10162800B1FC6FF4AF6E00EB0E039BB2834CC62B7C
:1016380098BFA4F840020DF0A5FCA4F8D0000DF066
:10164800A1FCA4F8D2000DF09DFCA4F8D4000DF084
:1016580099FCA4F894020DF089FC0DF087FC0DF0BC
:1016680085FC0DF083FC84F81B020DF07FFC84F8E8
:101678003C020DF07BFC0DF085FC00EB8000400087
:10168800A4F8EA010DF072FC39E66D4B1B78580797
:101698003FF50EAD6B4A137843F0040301E06A4A44
:1016A8000123137004E5664B1B785D073FF500AD19
:1016B8000AF042FE0CF04AFA0AF0A0FCF8E40DF039
:1016C80055FC5E4B012883F83A04F3D983F83A4471
:1016D800F0E7DB2B3FF4ECAC63D8D62B09D1002420
:1016E8000DF050FC594B23F814000134082CF7D1A5
:1016F800DEE431D8D42B40F08B8453790F2B7FF460
:10170800A5AC0DF033FC072805463FF69FAC0DF05D
:1017180039FC4A4B0E2404FB0534A4F858010DF09B
:1017280031FCA4F85A010DF02DFCA4F85C010DF071
:101738001DFC84F85E010DF019FC84F85F010DF0C2
:1017480015FC84F860010DF011FC84F861010DF0BE
:1017580023FCC4F86201ABE4D92B11D10DF012FCC3
:10176800364CA4F8DA000DF00DFCA4F8DC000DF0FE
:1017780009FCA4F8DE000DF005FCA4F8E00097E4ED
:10178800DA2B40F045840DF0F1FB2C4C84F81E0256
:101798000DF0ECFB84F81F020DF0E8FB84F8200242
:1017A80086E4F22B28D10DF0E1FB0F2804463FF622
:1017B8004DAC0DF0DBFB214BC4EBC4041C4484F896
:1017C800E8000DF0D3FB84F8E9000DF0CFFB84F8B6
:1017D800EA000DF0CBFB84F8EB000DF0C7FB84F8B2
:1017E800EC000DF0C3FB84F8ED000DF0BFFB84F8AE
:1017F800EE000AF03BFB5BE42AD8DC2B0DD10DF0A0
:10180800B5FB0E4C84F8C9010DF0B0FB84F8CA0191
:101818000DF0ACFB84F8CB014AE4EF2B40F0F883E1
:101828000DF0B0FB054CA4F8EE010DF0ABFBA4F8ED
:10183800EC013DE460150020700E0020802300209C
:10184800BE2B0020300F0020E80000208029002057
:10185800F52B40F0478101200DF0ECFB0024CD4B27
:10186800CD4DCE481C702146C02285F8354013F076
:10187800F3FA8DF817409DF8172095F83A10C64BE3
:10188800914255D99DF8172003EBC20292F83D20EA
:10189800D20746D59DF8172003EBC20292F83C10F8
:1018A800BF4A32F91120002A3BDD9DF8172093F832
:1018B80035A0DFF8E8B203EBC2024FEA0A18126C4F
:1018C80050689DF817204BF8080003EBC2030BEB98
:1018D80008011B6C1A89CA80002492B25946012358
:1018E800A340134003D10134102CF8D100E0234663
:1018F80001EB08040AF1010A22810222E2720422A1
:10190800A272A268E260A380012208F10803A27310
:10191800194404F059F85BF80830E2889A6185F8B0
:1019280035A09DF817300133DBB28DF81730A2E7E8
:1019380093F835000DF039FB0DF048FBD9F800009D
:101948000AF090F83B68186805F0B4FB954B3968C5
:101958001960954BD9F800201A600AF00FF9934CDA
:101968004FF0000884F8008084F8018005F086FBB9
:101978002F280394F3D18E4CADF81C802268A188DF
:10198800118505F07BFB019005F078FB8DF82500AB
:1019980005F074FB8DF8260005F070FB824605F013
:1019A8006DFB0DF1700B0BF8080008F101085FFAE8
:1019B80088F18A45F3D105F04FFB8DF8190005F041
:1019C8004BFB2168A3888B61039B8DF81800BDF839
:1019D80018101B88994200F0A2804FF0000A07AC4B
:1019E8004FF0010B4FF003080DE09DF8703095F8AB
:1019F80035209A4200F21A814FF0000A07AC4FF0E6
:101A0800010B4FF008086B4B002018705870684B9A
:101A18000393B3F804E01868624BA0F828E018684C
:101A280000680AF060F92E2005F0F8FA019805F030
:101A3800F5FA9DF8250005F0F1FA9DF8260005F065
:101A4800EDFA58460BF1FF3B5FFA8BFB05F0E6FA1F
:101A58000BF1010B039BA34414F8010B019305F050
:101A6800DDFA5C45019BF7D14F4CDFF848B14046A1
:101A780005F0D4FA20689BF8011009F0FFFF9BF8E5
:101A88000010206809F0FAFF464B1A6810680AF03F
:101A980025F9206809F0E6FF019B1A689B88936185
:101AA800BAF1000F3FF45BAF95F83540002C3FF4D6
:101AB800F6AD394BDFF8E480013CE4B283F83540F9
:101AC800240108EB040A022351468AF80E3058F81C
:101AD80004000C3103F078FF58F80430BAF80620F7
:101AE8001A85E1E7FA2B40F09382334B1B785907AC
:101AF8007FF5E0AD8CE2314C04F140050DF042FA7F
:101B0800A4F854030DF032FA84F856030DF02EFAB7
:101B1800043484F85303AC42F0D1FFF7C9BA019BEF
:101B2800CDF828B0303B00220F2B00F2498201A1EA
:101B380051F823F07D1B0008F91B0008BB1F0008A3
:101B48000B1C0008D91F0008F3190008C91F00085A
:101B58006D1C0008D11D00082D1E00087B1E000802
:101B6800EF1E0008C91F0008AD1E0008271F000847
:101B7800231C0008DFF8488098F80030002B3AD082
:101B880095F89C30002B00F02A82022B1AD9032BDF
:101B980028D024E2E8000020640900200013002077
:101BA80084160020D0130020C8130020D41300206E
:101BB800DC200020CC130020BE2B00208023002036
:101BC800C1130020FD238DF838300EA80023022110
:101BD8008DF8393005F02DF9012005F019F9C128E3
:101BE80009D0FCE109F08EFA002800F0F88102E043
:101BF8006A238DF81C304FF0000A07AC4FF0010B38
:101C0800DCE190238DF81C3004238DF81D304FF053
:101C1800000A07AC4FF0020BD0E19DF870305A1E55
:101C2800022A00F2BE8185F89C30E4E7C64ADFF854
:101C380028831370C54B93F89C30013B012B0BD8BC
:101C480000238DF838308DF839300EA80123022191
:101C580088F8003005F0EDF8002488F8004088F88E
:101C68000140C8E7DFF8F0829DF8703088F800205E
:101C780088F8012095F835209A42C2467FF6BCAE16
:101C8800B14A0324137009F03DFAF0B1B0480121BC
:101C98000FF05AF8C8B1DFF8C0B2022158460FF069
:101CA80053F890B1BBF8003049F2073223F008012D
:101CB800914200F09A8149F20A32934200F09581EC
:101CC80049F20B42934200F09081A24A937811881E
:101CD8008DF82230ADF82010131D0DF1380E143296
:101CE80018685968F446ACE8030008339342E6469E
:101CF800F6D118681B79CCF8000015210EA88CF8CD
:101D0800043005F096F80BA8082105F02BF90028F7
:101D18004CD000230BAA08A9985C595C884245D18D
:101D28000133032BF6D19DF82F308AF802309DF845
:101D380030308AF801309DF831308AF80030864B0F
:101D48001A884FF2103322F02001994211D04FF235
:101D580010439A420DD04FF290339A4209D04FF671
:101D680050039A4205D002F5BA530F339BB2012BA8
:101D780001D801230EE022F0080349F207318B4213
:101D880007D049F20A339A4203D049F20B439A42E8
:101D98000CD1022385F89C3095F89C3088F80330E4
:101DA8004FF0000A6C4C4FF0040B07E1013C14F0B3
:101DB800FF047FF468AF88F8004088F80140A24625
:101DC8004FF0040B644C12E195F89C30032B40F063
:101DD800F780624B12241C7004F0F4FF002004F01A
:101DE8009BFF072004F098FF0E2004F095FF204683
:101DF80004F092FF142004F08FFF002004F08CFF01
:101E0800AC2004F089FF882004F086FF132004F03A
:101E180083FF762004F080FF04F0BCFF504809F0EF
:101E2800E1F8ADE095F89C30012B40F0C9809DF8B1
:101E380070308DF81C305B008DF8253009A8002320
:101E48008DF8263005F066F828B94FF0000A07AC7F
:101E58004FF0010BCBE0434B0EA81B88ADF8383090
:101E6800022104F0E6FF142004F0D2FF3028ECD160
:101E7800C1E69DF870308DF8243095F89C30002B21
:101E880000F0BE80022B02D9032B04D0B8E00CBFAF
:101E98000720032012E009A809F0C8F90028D4D0C7
:101EA80014221AE09DF870308DF8243095F89C3093
:101EB800022B02D0032B0AD0A2E0042009A905F0C6
:101EC80097F8002840F096804FF00F089AE009A88C
:101ED80009F0ACF90028B8D01622204B09A81A70CE
:101EE80009F07EF9EDE795F89C308DF824A0002BD9
:101EF8003FF481AE022B02D9032B09D07BE609A857
:101F080005F008F80028A0D0012009A9142235E01E
:101F180009A809F08BF9002897D013223BE095F81F
:101F28009C308DF824A0022B1ED0032B2CD0012B23
:101F38004FF0000A07AC4FF0010B0CBF4FF002083E
:101F48004FF00F085FE500BFFE1200206409002073
:101F5800C213002060690108C11300204C29002029
:101F68004D2900207969010809A804F0D3FF002849
:101F78003FF46BAF052009A940F2DC5204F08EFF54
:101F880000283FF462AF36E609A809F04FF90028A7
:101F98003FF45BAF15225F4B09A81A7009F0CEF821
:101FA800EEE74FF0000A07AC4FF0010B4FF00908BD
:101FB80029E5594C4FF0000A4FF0090BD04622E5AD
:101FC8004FF0000A07AC4FF0010B4FF002081AE57A
:101FD8004FF0010A07ACD3464FF0000813E5002480
:101FE80088F8004088F801402FE70323D2E64FF035
:101FF8000F0808E59DF824B04FF0000A1CACDDE797
:102008004FF002084FF0000A07AC4FF0010BFAE45A
:102018000EF096FEFEF77BB90C2803D13F480FF06F
:102028006BF849E00A2801D00D2864D13C4D3D48A1
:102038000FF062F82846232112F043FF08B1401B35
:10204800206023687BB35A1EA95C202901D113465E
:10205800F8E7334A23600021D154334B334ED3F889
:102068000080D6F800902E4F484612F038FF0546FB
:102078002A463846494612F03BFF2D4A20B97B5D77
:1020880043445B785B0703D010369642E9D306E0F9
:10209800964204D2681CF3683844984702E0254801
:1020A8000FF02AF800231E4823600021302212F086
:1020B800D3FE029B1B7853B308F086FFFEF770B877
:1020C8000C28ABD07F2804D1FEF76AB82F2B3EF638
:1020D80067A8A0F12002D2B25E2A3EF661A813B921
:1020E80020283EF45DA85A1C22600D4AD0540EF0F8
:1020F80091FEFEF755B87F28E8D1013B084A0E4803
:1021080023600021D1540EF0F7FFFEF749B85DB007
:10211800BDE8F08F4C2900209C890108AB89010893
:10212800201500206C9A0108C4030020C08601080D
:10213800B0880108B6890108D28901082DE9F04F55
:10214800974C984E2368984D9F6A2DED028BA1B04D
:1021580009F0CAFC6368C01A308009F0C5FC2B7806
:102168006060012B01BF914B32881A80904A04BFEE
:1021780012885A8009F0B8FC064663696BB119A841
:1021880098479DF8643043B12B78072B10D109F09C
:10219800ABFC864B801B18800AE009F0A5FC854A39
:1021A80063681268FB1A184450329042E5D3EBE793
:1021B800237F002B00F081847F4D09F095FC95F872
:1021C800463280461BB97D4B1B88002B4DD07C4A7C
:1021D800E08B1268B0FBF2F07A4A714B1278461C19
:1021E800B6B2268412B3B3F822A000236C4F764A05
:1021F80007F12C0E07F1240932F813C03EF813201A
:1022080039F813102EF813C0C2EB0C0B11FB0AF1AE
:1022180032B291FBF2F25A4429F813200133042B0D
:10222800E4D1684B788400221A7002E05A8C013A93
:102238005A84608C5A4A03B2002B4FF0000313DD16
:10224800B2F92060614931F81320083112FB00F21D
:1022580031F8131092FBF6F28A1A5B4921F8132021
:102268000133042BEED100E0538423690BB15848A5
:102278009847584B504E1B78ABB1574BB3F90620D3
:10228800B6F842329A420EDC7379012B01D0192B31
:1022980002D196F88B2232B90E2B04D0082B1EBF20
:1022A800494B00229A8096F80C729FB3434B1B88C7
:1022B8009B072FD0494BDFED4A7A93ED080AB4EE1D
:1022C800E70AF1EE10FA20D913F094F8D4ED0D7A5C
:1022D80020EE270A13F00AF8B0F5617FA8BF4FF483
:1022E800617007EE900AB8EEE70ADFED3E7A80EEFD
:1022F800270A0BF052FB07EE907AF8EEE77A27EE02
:10230800800A12F0F3FF80B200E000202E4AD38842
:102318001844D080344B1878002840F0C283334BDF
:102328001A6812F4002F994600F0BB83304F3B78AF
:10233800033B052B1AD896F8E73433B1012B08D1A3
:1023480005F0CAFAC0F17F0003E0A06B03689B6840
:102358009847E36B94F840201344B3F5807FA8BFF7
:102368004FF480738342D4BFE363E0633B78023B5E
:10237800092B00F29183DFE813F00A003F006C009C
:102388008F038F0383009400FD0220032B03002397
:10239800E3636364174B1B68A36403237BE300BFF9
:1023A800100A0020B62B0020CE120020D0120020E8
:1023B8008E2000202C21002080230020F8200020DF
:1023C800A01500207C0E002082150020340A002071
:1023D800A40E002002000020342300202018002032
:1023E8008FC2753CEFB6B044BB2B0020A82000205C
:1023F8004214002088200020AE4B1A68A36C643376
:102408009A4240F2498340200AF010FA002840F02E
:1024180043834FF04009A84B626CA84E985C1D4658
:1024280058B107F0C7FCF36B013BF363736CB9F168
:10243800010903F101037364EDD1626C9F4BAA5C3F
:10244800002A40F029835A644FF0FF329A6404232B
:1024580021E3252300939A4B019303F10C02029286
:102468004920A3F10A025021023307F091FF002806
:1024780040F012834FF0FF33A364606407230AE33C
:10248800904A05230021009301910291532002F103
:10249800080307F07DFF002840F0FE8260640823EF
:1024A800F9E240200AF0C2F9002840F0F582636C96
:1024B800332B01F20081DFE813F0340038003D00CF
:1024C8004100470056005A005E0061006500700038
:1024D8007A007E008B009A00A900B800C700D600D9
:1024E800E500F8003F014801550162016F017C01D8
:1024F80089019601A301B001B901C601CF01E0012C
:10250800E901F201FB010402150219021D02210270
:10251800250231023D024102450249024D025102A3
:10252800550269480AF0FAFA20E268486849694A97
:10253800694B39E069486A496A4A46E06A4896F848
:10254800E51496F8E62440E095F83A2467485223C3
:102558005343EA180C2192F8C22301FB02331D44AD
:1025680095F8C41300E26248B6F8D010FCE161485F
:10257800B6F8D210F8E16048A169F5E15F4B604810
:102588001988F1E1E36CD80403D55E4896F80E1279
:10259800EAE14A4B0B225A64E8E15B4896F81212CA
:1025A80096F8132296F811320AF0B8FADEE1574885
:1025B800B4F85010D8E1D9F80030190540F1D681A7
:1025C8005348B6F81812B6F916220AF0A7FACDE160
:1025D80095F83A244F4852235343EA180C2192F8AD
:1025E800C22301FB02331D4495F8C613BCE195F8DC
:1025F8003A24494852235343EA180C2192F8C2233B
:1026080001FB02331D4495F8CD13ADE195F83A244A
:10261800424852235343EA180C2192F8C22301FB83
:1026280002331D4495F8C7139EE195F83A243C48B7
:1026380052235343EA180C2192F8C22301FB0233B8
:102648001D4495F8C8138FE195F83A24354852236C
:102658005343EA180C2192F8C22301FB02331D44AC
:1026680095F8CC1380E195F83A242F485223534328
:10267800EA180C2192F8C22301FB02331D44B5F875
:10268800CE1371E195F83A24284852235343EA18A7
:102698000C2192F8C22301FB02331D4495F8C9139B
:1026A80095F8CA2395F8CB337EE7214B2148196862
:1026B8005AE100BF882000207C690108100A002028
:1026C800E6690108986B01082A8B0108448B010808
:1026D8006C8B0108238A0108728B01087A8B010828
:1026E8000E8A01081A8A01088E8B01089F8B01083F
:1026F800A98B0108B88B0108C78B010808000020C6
:10270800D78B0108E18B0108EE8B0108078C0108C3
:10271800128C0108258C01082F8C01083C8C0108BB
:10272800468C0108518C01085E8C0108708C0108E8
:102738002C2100207F8C010896F83A34AC485222AC
:1027480002FB036696F896130EE195F83A34A94809
:10275800522202FB035595F8971395F8A12395F893
:10276800AB3321E795F83A34A348522202FB0355CC
:1027780095F8981395F8A22395F8AC3314E795F8D3
:102788003A349E48522202FB035595F8991395F85E
:10279800A32395F8AD3307E795F83A3498485222C1
:1027A80002FB035595F89A1395F8A42395F8AE33D0
:1027B800FAE695F83A349348522202FB035595F805
:1027C8009B1395F8A52395F8AF33EDE695F83A34C1
:1027D8008D48522202FB035595F89C1395F8A623C1
:1027E80095F8B033E0E695F83A348848522202FB6F
:1027F800035595F89D1395F8A72395F8B133D3E6BB
:1028080095F83A348248522202FB035595F89E13F4
:1028180095F8A82395F8B233C6E696F83A347D4879
:10282800522202FB036696F89F139DE095F83A340E
:102838007948522202FB035595F8A01395F8AA236C
:1028480095F8B433B0E696F83A347448522202FB4D
:102858000366B6F8BE1387E095F83A349FED707AB0
:102868007048522202FB0355B5F8B83307EE903A88
:10287800F8EEE77A67EE877A57E096F83A346A48CE
:10288800522202FB036696F8C0136DE096F83A34BC
:102898006648522202FB036696F8C11364E096F874
:1028A8003A346348522202FB0366B6F8BA135BE077
:1028B80096F83A345F48522202FB0366B6F8BC1316
:1028C80052E095F83A349FED567A5B48522202FB63
:1028D8000355B5F8B63307EE903AF8EEE77A67EEA7
:1028E800877A22E05548B6F84A123DE0544896F8EF
:1028F8001E1239E0534896F81F1235E05248B6F8D0
:10290800DC1131E096F8DF319FED457A4F4807EE4C
:10291800903AF8EEE77A67EE877A06E0D6ED7C7AA9
:102928009FED3F7A4A4867EE877AFDEEE77A17EE21
:10293800901A19E0474896F8D91115E0464896F8D4
:10294800E81111E0454896F8E7110DE0444896F87B
:10295800851209E0434896F8151205E0424896F8B2
:10296800461201E04148B1680AF0D8F8636C0133B7
:10297800636491E03E4B1B689A011BD5B4F8543050
:102988003C4DBBB93C4BD5F858901E68452007F024
:1029980011FA0E2007F00EFA48460AF030F83046D1
:1029A8000AF02DF84FF48053A5F852300A233B70F3
:1029B80007F084FA07F0CEFC6EE094F85C30002B48
:1029C800F6D02B4B1B689B01F2D409233B70F1E72F
:1029D8002A4B1A68A36CC8339A4204D996F8E7546C
:1029E800002D57D14CE009F067FF0028F6D153E0DD
:1029F8008B8C01089C8C0108AD8C0108BF8C0108E8
:102A0800CF8C0108DF8C0108EF8C0108008D0108CC
:102A1800118D0108238D0108138D01082D8D0108E2
:102A28000000C8423C8D01084A8D0108618D0108EB
:102A3800708D01088B8D0108A08D0108B08D0108EB
:102A4800D18D0108CD8D0108DD8D0108E98D0108C2
:102A5800FC8D01080A8E01081A8E01082B8E0108C8
:102A68003B8E0108548E01086D8E01087D8E010889
:102A7800FC200020100A0020982B0020882000202D
:102A8800A06B04F022FB94F85D30A563022B01D102
:102A98000EF032F801233B7009F0F8FE08B101236B
:102AA8003B709C4B1B78072B05D109F01DF89A4BFE
:102AB800C8EB000058800023237711ADE36828464F
:102AC8009847002800F01381924B187800230328B8
:102AD800924E02BF904956F8237021F813709A005D
:102AE80035F91310B1500133032BF0D18B488C4FBB
:102AF80094F85E208B4D014603F010FF3B8805F1EA
:102B0800AC0A002B00F089802B6E1B7808EE103A77
:102B180005F164084FF000097035834AB7F800E002
:102B280013684FF47A70B0FBF3F3C3EB431003EB75
:102B38008003DB009BB29E4502BF0023C8F800302B
:102B48002B61D8F80030194656F82930194456F840
:102B58002930C8F8001007EE903A2B690133012B91
:102B680010464FEA890BF8EEE77A2B6106D100236D
:102B7800C5ED017AC5ED007AAB601BE0D5ED006AC2
:102B880007EE103A37EEE66AB8EEC77A86EE077AAD
:102B980036EE877AD5ED026A85ED017A77EEC77A47
:102BA80085ED007AE6EE276AF0EE667AC5ED036AEF
:102BB800C5ED026A0023BEF1010F46F80B304AF852
:102BC8000B303FD12B690690012BC3BF03F1FF33B4
:102BD80000EE103AD5ED037A9FED540A0592C4BF72
:102BE800B8EEC00A87EE800A12F064FC059A0698CF
:102BF80018EE103A9BB1F8EEC87AB4EEE70AF1EE97
:102C080010FA0CDD02684FF47A73B3FBF2F3C3EBEE
:102C1800431203EB8203DB003B80002324E01268AD
:102C28004FF47A73B3FBF2F3C3EB431203EB820363
:102C3800DB00D8F800209BB202EB530292FBF3F3BF
:102C48004AF80B3009F10109B9F1030F08F104083A
:102C580005F114057FF461AF3888012801D108F027
:102C6800A5FF3B88013BD7E756F823205AF82300F5
:102C78002C49121A46F823200133032BF4D191ED85
:102C88002E8AB5EE408AF1EE10FA30D091F8BC5099
:102C98009DB9254B1A681F467AB1DFF888803968D4
:102CA80008F1C0002844B0EE480A1C350AF0C5FBFC
:102CB800542DF2D1012388F8BC3094F8BC30B3B15C
:102CC8001B4F002556F8253007EE903A194B1C206B
:102CD80000FB0530B8EEE70A0AF08CFBA7EC010A06
:102CE80012F004FB46F825000135032DEAD194F8CB
:102CF80014312BB10B4A013B82F8143100F0E7BCC8
:102D08000D4D95F8DF31CBB195F8E431013BDBB2DD
:102D180015E000BFCE120020D01200209015002030
:102D2800B42B0020100A00202C21002000000000F5
:102D380034160020D00A002080230020012384F8C4
:102D4800143108F0D1FE9A4B9A49B5F82222009323
:102D58000D689949064608689849443B0968A84798
:102D6800974B1A78072A1D4604D108F0BDFE954BEB
:102D7800801B988008F0B8FE2F780590012F0AD1A3
:102D88009149D4F818318F4A0968C4F81801C31A50
:102D980093805B1AD3808D4B1B68E3B1DA79DAB183
:102DA8008B4A1268960719D58A4A1178012915D9CC
:102DB800DA788948514300888A1A90428BB203DB3B
:102DC80081420A46A8BF02461BB212B21B0393FBFC
:102DD800F2F3012205E01A46134602E001224FF4FD
:102DE80080537E49C9780D912AB1BDF94C105943D9
:102DF8000913ADF84C107A49D4F81C0191F800A0D9
:102E08007849794DB1F802C0B1F8008006900024E5
:102E1800B1F904902046214650454AD2069E95EDC8
:102E2800016A96F90060764209FB06F607EE906A99
:102E38000FFA8CF606EE906A0FFA88F6B8EEE77A83
:102E480007EE906AF8EEE77AF8EEE66A67EE867AB9
:102E580095ED026AE6EE867A0DF14C0ED5ED036A21
:102E6800E7EE267AFDEEE77ACDED077ABDF81C602D
:102E780012B136B25E4336132EF8106013AE0FFA55
:102E880081FB36F810600FFA86FEDE4505DC0FFA86
:102E980084FBDE45B8BF344600E03146052F05D136
:102EA80004289CBFDFF81CE12EF8106001301035B3
:102EB800B2E7474BDFF840E11B684C48091B13F4A5
:102EC800805F89B24A4B34D04A4ADE881278DEF8ED
:102ED800E431494CB3F81090484B550758BFDEF819
:102EE800E4211B685CBF128AAEF8E021DA883F4D06
:102EF8000FFA86F8C2EB090CE04503DC18882B684A
:102F08001B8805E04A44904505DB02685B885088C9
:102F1800A4F8E06111E0B4F9E0216245D5BF188852
:102F280002682B685B88D5BF1B88508806461E46FA
:102F380003E00268DE8850881388DFF8C4801FFA2F
:102F480080FC9DB2C5EB0C021FFA82FB0CB20FFA93
:102F58008BF2944256DD4FF0010C88F800C04FEA1E
:102F6800023C9CFBF4F4CEF8E8414FF0000ED64545
:102F78000CD20DF14C0838F91EC004FB0CFCCCF344
:102F88000F3C28F81EC00EF1010EF0E7174C24681C
:102F980024892CB9022392FBF3F32B449BB21846E5
:102FA800062F3AD1BAF1020F37D8064A518034E0D9
:102FB800B02500207C01002060150020700E002044
:102FC800CE120020D0120020A0150020AC12002044
:102FD800A8200020BC030020F8120020B420002004
:102FE8009F150020CC150020300B002098170020DA
:102FF80082150020BE2B0020100A00209417002004
:10300800B01500200023022088F8003094FBF0F46B
:103018002B19C4EB0C049BB2A0B26B4A116801F4E3
:1030280080520792694AB2F9E041D2F8E421069247
:10303800674A0894D2F800E0664A146801F0100262
:103048000E92654A6549127802F00402D2B20992DA
:10305800634A126802F000620A92624AB2F90620D4
:103068000B92614A12680C92002555457CD213AA2E
:1030780032F8157032B207EE902A5C4A02EB05125C
:1030880092ED007AF8EEE77A1AB267EE877AFDEEEB
:10309800E77A17EE90CA944503DB02B26245A8BFEF
:1030A80062463A440D9F92B221F8022F12B20FB134
:1030B800A78812E0079F7FB1069FBEF806C03F8A27
:1030C800CCEB070C089F674503DC2788BEF800C0D7
:1030D80005E0BEF8027000E02788B4F802C0BA42E2
:1030E80003DB6245A8BF624617460E9A0F8062B19D
:1030F800099A52B1079A42B90A9A32B9069A0B9FAD
:10310800528A9742BCBFA2880A80278957B34FF4D6
:103118007A7C0C9ABCFBF2F2B7FBF2F2042A05D9CE
:1031280042F21077BA42A8BF3A4600E0052212B22E
:103138000FFA8BF7BA4215DADFF8C8C0B1F9008088
:103148003CF915906F000F97C2EB0907B84504DBEF
:1031580009EB02074745A8BF47460F9ABFB22CF8AC
:1031680002700F80013580E71B4B1A7802F00402C9
:1031780002F0FF0342B1154890F80432013BDBB27C
:10318800182B00F23F8109E05345F4D2184A32F86F
:103198001310184A22F813100133F5E701229A4058
:1031A800154B1340002B00F02D81144B1B8813F492
:1031B800807F0C4B28D0124A1188ADF864105188D2
:1031C800ADF86610928835E0A8200020100A00208B
:1031D8009417002098170020BE2B0020821600208C
:1031E800FC20002034230020A0150020300B0020F4
:1031F800802900208416002099209801F8200020BA
:1032080082150020FC0B0020B14A1188ADF864102B
:103218005188ADF86610AF4992880968ADF8682002
:10322800CC0409D5D0F8E411B3F90640098A8C42D8
:1032380002DA5242ADF86820A74DB5F902204FF4E2
:103248007A7102F5E1624A434FF4616492FBF4F249
:10325800A2F5FA72ADF87C20B5F9002002F5E1621A
:1032680051439E4A91FBF4F11288A2F2DC52A1F577
:10327800FA71ADF86A20D0F8E421ADF87E10128A10
:103288001988891AADF86C105988891AADF86E102A
:103298009988891AADF87010D988891AADF8721012
:1032A8001989891AADF874105989891AADF87610F8
:1032B8009989DB89891A9A1AADF87810ADF87A20BD
:1032C8000023874A002122F813100133082BF8D174
:1032D800844A854B12680692844A1B788449D2F83E
:1032E80000B0844D072202FB0318414571D00B78CA
:1032F80033B103F1150201239340069A134064D0B9
:1033080011F806EC11F805AC11F8034C11F801CCD2
:10331800CEEBCE070BEB47076420B7F90020B7F9CF
:1033280002309B1A9BB211F9022C4FEA53095A43F7
:103338004FEA4A0692FBF0F220A8C9EB020292B2C9
:10334800064414B936F81C0C0CE0B5F9000036F93F
:103358001C6CB04208DA0444844203DBA6423046BF
:10336800A8BF2046288008E007DD041BB44203DB21
:103378008442A8BF044626462E80D7F80A4011F991
:10338800046C012000FA0AF02042288812B216FBC9
:1033980000F014BF4FF0FF340124642690FBF6F0D0
:1033A80090420ADB4FFA8CF25A4392FBF6F2C9EBD1
:1033B800020212B28242A8BF0246494B33F81E905D
:1033C80002FB049423F81E4000E02B8002350731ED
:1033D8008BE7464B484E1F6800250E2202FB0572FC
:1033E80036F8023F92F90640E8B214FB03F364246E
:1033F80093FBF4F4348008F061FD01352044082D76
:103408003080EAD1334E364C3368DFF8E08013F071
:10341800200F30D0002008F051FD20800546012003
:1034280008F04CFD2F4B60801B68190623D5334BE1
:10343800D8F800E0D3F82832274A1B78012B1ED190
:1034480013889EF91410B2F9022011FB03F33227F6
:1034580093FBF7F399B29EF906305B4253436FF042
:10346800310293FBF2F20A442A4493FBF7F30B442C
:10347800228018446080D8F80070002316E09EF976
:1034880006105388322711FB03F393FBF7F3E9186F
:10349800218011889EF9142012FB01F292FBF7F2A9
:1034A8001044E7E70133082B625329D00E2101FBB2
:1034B800037134F91300B1F90020B1F902109042F8
:1034C8004FEA4305EEDB0AB28242A8BF0246E9E7AB
:1034D800CC150020A82000208A1500208416002082
:1034E80084090020FC2000209C1700205C15002087
:1034F800A3170020160C002082090020100A0020C3
:10350800754FD7F81CA19AF90430ABB997F8048223
:1035180008F1FF33182B00F29580DFE803F057938A
:1035280093719393936A93939393937B93939393C6
:1035380093718793937B57000023A7F82C32B7F831
:103548002C92DFF894B10FFA89F5072DDEDC9BF891
:103558002E220BF50C738AB9BAF80220069300EEF6
:10356800102A5E4A1C2000FB05301168B8EE400A9C
:1035780009F063FF0122069B8BF82E2234F91520EF
:1035880000EE102A1C2000FB0530B8EEC00A09F036
:1035980031FF11F0ABFED8F8003080B2C5EBC502A0
:1035A80024F8150003EB420200B2B2F90030B2F978
:1035B8000220984203DB13B28342A8BF034609F1F5
:1035C800010924F81530A7F82C92B8E79AF80130C9
:1035D80013B10020618908E0414B1B7803F0040314
:1035E80003F0FF00002BF4D1014602F0E1F90125B8
:1035F80029E00020E18802F0DBF90120218905E0BB
:103608000020218902F0D4F96189012002F0D0F963
:10361800022518E00225A81E34F81510C0B201359D
:1036280002F0C6F9082DF6D106250CE00325E81EA0
:1036380034F81510C0B2013502F0BAF9072DF6D1E9
:10364800042500E0002533689A0602D4B8F1050F76
:103658000AD12846218802F0ABF9681CC0B26188FB
:1036680002F0A6F90235EDB23368DB020AD497F806
:1036780010339BB11B4B93F8E60093F8E71008F062
:1036880064FB0BE0184E00242819C0B236F8021F5C
:1036980002F08EF90D2CEAD00134F5E7134B1B78B4
:1036A800072B05D108F020FA059BC01A104BD880CB
:1036B80001233B770BE009F0FFF800283FF4ECA961
:1036C8004FF48053A4F852300A23FFF7E4B921B02D
:1036D800BDEC028BBDE8F08F100A0020A015002079
:1036E800BE2B0020802300203A230020CE12002089
:1036F800D01200202DE9F04FA34FA44C3A6802F5F0
:103708009C432DED028B20332360A14B1E7889B09A
:10371800D6B1A04909688A4240F20881013E1E706C
:1037280004E1DFF890829C48D8F80030072D98BF54
:10373800595D9A4B88BF29461B689847032D09D9BC
:1037480004EB45050136A8800BF0C4FAF5B28542B2
:10375800E7D320E0D8F8002005F1100302EB83033B
:103768009988DA880028EBD04FF47A73401A5843C6
:10377800531A90FBF3F040F6C90300F57A709842AB
:1037880005DC40F2EE239842B8BF184601E040F647
:10379800CA0080B2D4E7824B824E1B68D6F80080FC
:1037A80042F2010A03EA0A0ABAFA8AFA4FEA5A1AEC
:1037B8007D4BBAF1000F05D194F828201A707B4A86
:1037C800517811701B782BB1784B93F8009089F0E1
:1037D800010900E099460F23DFF8F0B184F8293099
:1037E80000250BF077FA854267DA6B00B9F1000F14
:1037F80003D06F4A32F8150000E048466D4ADFF8FA
:10380800D0C111688A8B82424FEA850E6A4A02D873
:10381800C98B81421CD25CF80E005C49804501D2FC
:10382800D05A19E0E8B20392029301910BF06AFAB8
:10383800032D029B039A0FDC01994FF0010E91F8BA
:1038480029C00EFA05FE2CEA0E0E81F829E003E0E5
:1038580008F596714CF80E10BAF1000F28D194F8BB
:10386800BC100322B1FBF2F202EB42028A1A03EB0C
:10387800050E5EFA82F204EB4202508594F8BD20F0
:103888002AB9022913D9414A012182F8BD10BBF88F
:1038980000203BF8020C1044BBF802201044474AB1
:1038A80080B2D05200B2032290FBF2F080B2424ABA
:1038B800D05201350BF1060B93E794F82920404BC1
:1038C800A2F10F056A426A4184F8D6206AB13D4ADE
:1038D8001268500109D43268D9689A60521AC82A05
:1038E8001FD9012283F821201BE0304A01215170A1
:1038F800117032689968DA605B68521A9A4282BF1E
:103908002F4B002283F8212000250BF0E3F9854294
:1039180007DAE8B20BF0F6F9274B23F81500013562
:10392800F3E794F8BC30013384F8BC301C4B1A68B8
:1039380012F4805F994605D0224B1B68D90701D441
:103948000DF06EFF1B4B39681F683B7B002B41D085
:10395800013B1948BA7B30F813301AB1C3F53B6301
:1039680008339BB21BB2A3F57A73B3F57A7FA8BF6D
:103978004FF47A7323EAE37307EE903A9FED127AD5
:10398800F8EEE77A5FE000BF982B0020240D0020B6
:10399800B0200020AC2000201029002020010020A9
:1039A800A820002088200020EC140020000000201F
:1039B800280D0020A420002034230020E20D002040
:1039C800B4200020FC20002000007A44500D002084
:1039D800980D0020D9F80020120440D5D4F8D8203A
:1039E800B14E8A1A002A3ADB01F59C422032C6F809
:1039F800D820AE4A5079AE4A32F81050A8B27D7B32
:103A080090FBF5F596F8DC00013000F00F0286F81F
:103A1800DC20324482F8DD501A46A648185C01338F
:103A28000244102B92B2F8D112B292FBF3F31BB2FC
:103A3800642BA8BF642323EAE37307EE903A9FED53
:103A48009E7AF8EEE77AC7EE877A9C4A9FED9C7AD1
:103A580067EE877AFCEEE77A17EE903A1380D9F88A
:103A68000030984F984E13F4807F00F00081974BF8
:103A7800DFF85CA2994205D99AF8022012B901220E
:103A88008AF802209AF80220002A00F0F080904A72
:103A9800396892F82150327805F1FF3EDEF10005D1
:103AA800C1F3806345EB0E05C2F3800B01933DB96A
:103AB80012F0080F0CBF4FF000084FF0020801E0A9
:103AC8004FF000089AF82020052A00F2CA80DFE8A3
:103AD80002F0034C608695B1BBF1000F38D0D4F8E2
:103AE800F000B4F8F41003F0DDFC012809D179499D
:103AF800794A09681268C988642000FB0122CAF85B
:103B08001020019B5BB1734A126812793AB10EF02A
:103B180065F903228AF820204FF47A7236E0002DE6
:103B280040F09F806C4ADAF810101068684A8842A2
:103B38000AD902920EF052F9029A032182F8201053
:103B480040F6B831D161BDE7012182F82010B9E70C
:103B5800019B4FF4806013B109F090FF01E009F078
:103B68007DFF0022CAF810207BE0002D57D1594A6A
:103B78001268127A012A02D00EF030F9A2E70EF08C
:103B88002DF903228AF8202040F6B832CAF81C2002
:103B980098E725B105228AF82020012000E0284670
:103BA800BBF1000F0CD0D4F8F020118A4B4A1180D9
:103BB80051809180474909684988D1804FF00308AE
:103BC800454A1168DAF81420914202D8BBF1000F77
:103BD80044D147F23052CAF81C20032220E0327840
:103BE80042F0020232700DF01BFE3B4ADAF81C105C
:103BF80012680A44CAF81820042211E0364A95B11E
:103C08001168DAF8182091422BD9354A927812B9FE
:103C18003A68D00725D4327822F0020232700522A1
:103C28008AF820204EE71268DAF81C100A44CAF80D
:103C3800182016E02749284A09681268C9886420AC
:103C480000FB0122CAF810204FF4806000228AF895
:103C580020208AF8032009F001FF33E700287FF4C9
:103C680031AFB8F1000F02D0404607F09FFF1D4D5D
:103C7800B5F8E01005F50C7003F014FC3B68190169
:103C8800834603D4D9F800305A022FD533785B071E
:103C98002CD5154BB3F90620B5F84A329A4236DBD3
:103CA800012384F8F63039E0240D0020B4120020F6
:103CB800C4120020010E00200000C8422E0F002070
:103CC80000C07F44FC200020BE2B0020404B4C004D
:103CD800B4200020942B00208820002034230020CA
:103CE800000000208023002082150020002384F893
:103CF800F630BBF1000F11D19C499D4B00200022EA
:103D080008601A6048605A6088609A6006E0BBF1F3
:103D1800000F06D194F8F630002BEDD03378580711
:103D280036D5D9F80030D90632D5924B1B78DA0649
:103D38002ED4914B9B7893B195F88732BBF1000F45
:103D480015D17BB18D4B1A68D4F8F8309B1A002B2B
:103D580008DA0DF065FD8A4B83F8FCB018E0BBF17A
:103D6800000F0DD1102007F021FF01230EE03BB119
:103D7800824A12684FF47A7101FB0323C4F8F830C1
:103D880094F8FC3023B107F0F9FE002384F8FC30E6
:103D9800002295F88612B5F842E2B5F844C21346F7
:103DA800DFF8F08138F912009B087045C4BF63F052
:103DB8007F03DBB201326045B8BF43F04003042AF9
:103DC800EED194F8FD206E489A4205D190F8FE2075
:103DD800F92A04D8013200E0002280F8FE2084F895
:103DE800FD30654B664A98789A4628BB3B68DB07E6
:103DF8000AD582F8FF00BBF1000F1DD13378DA072E
:103E08001AD50DF05BFB17E033785B0714D55D4BD3
:103E18001B788BB15C4BDB7873B992F8FF300133B8
:103E2800DBB2032B82F8FF3006D911B10DF0F8FC94
:103E380002E0BBF1000FF9D094F8FE30DFF840B192
:103E4800142B67D19AF802309BB19BF8FD305F2B99
:103E58000FD1337803F0040303F0FF0213B10DF020
:103E6800DFFC06E00B20019207F0A0FE019A8BF818
:103E7800FE20337803F0040303F0FF01002B49D13F
:103E880094F8FD303E4A572B0DD1404B1A684FF439
:103E98007A73B3FBF2F3C3EB431203EB82033C4A9E
:103EA800DB00138036E0D9F80000400717D55A2BFD
:103EB80015D192F800312BB1012382F8001182F854
:103EC800013127E092F8023183F0010382F80231D0
:103ED8000BB10C2000E00D2007F068FE1AE05D2B06
:103EE80000F0B9845B2B00F0B8845E2B02D103206C
:103EF80000F0B4BC562B01D109F0D4FE9AF8023078
:103F0800002B00F0B18494F8FD306F2B40F0AC84A6
:103F18000DF0D4FAD9F800305A074CD594F802318C
:103F2800174A8BB133785B070ED5B8F90610B5F888
:103F38004232994208DD3B6813F0010302BF322187
:103F4800A2F8141182F802313B68D80324D594F8FA
:103F580016210B4B2AB993F8002112B93222A3F883
:103F68001421012384F8163125E000BFA415002090
:103F780028160020300F0020000000208820002094
:103F8800240D0020EC140020B42000202C21002057
:103F9800B42B00203423002094F80031B54A53B1E3
:103FA800337803F0040303F0FF0123B9012382F8F7
:103FB800001182F80131DFF8DC8200233B6008F150
:103FC800500A18F8010C414603F046FA38B118F8BF
:103FD800022C012303FA02F23B6813433B6008F109
:103FE8000408D045EDD1A44B1B7823B13B68990751
:103FF80000F1DF81D6E1DFF8A08208F15A0A18F84B
:10400800010C414603F028FA10B398F8023098F8EA
:1040180004E09A4A98F803B096480C21013B01FB4A
:104028000E4103EB43031344D1F81C219A420FD0ED
:10403800C1F81C31002390F84821C1F82031012330
:1040480003FA0EF322EA030381F818B180F8483125
:1040580008F10608D045D2D1894BD4F84C811B68A9
:104068000393884B1B780493874B02930023019397
:10407800029B1968002900F08A8191F800A0BAF122
:10408800000F00F084815B68039AD31A002B0CDBC5
:1040980002F5FA73029A5360019A0123934094F847
:1040A800482122EA030384F84831049B002B00F0DE
:1040B8006E81029B13F8042C4B780432D2B2002B89
:1040C80040F02E81714B33F91220714BB3F8403216
:1040D80003F1C800824202DD91F802B015E0C83B46
:1040E8009A4203DA8978C1F1000B0EE0019A0123A4
:1040F800934094F8482122EA030384F84831039B4B
:10410800029A03F5FA73536041E194F84821019B40
:104118001A41D20700F13B81BBF1000FCCBF02204E
:10412800012007F07DFD0AF1FF32132A00F22781F2
:10413800DFE812F0140020002C0040005D0066004B
:104148008300B400D000DC00EA00250140005100E3
:1041580066008300B40077009400C40098F800104B
:104168005944FA29A8BFFA2121EAE17188F8001018
:104178000120C6E098F8021059446429A8BF6421B8
:1041880021EAE17188F802100220BAE098F804A048
:10419800D4F85011DA44BAF1640FA8BF4FF0640A9A
:1041A8002AEAEA7A404688F804A003F0E7F80320F0
:1041B8005146A6E098F8061059446429A8BF64211E
:1041C80021EAE17188F806100D2003F08BF9BAF1A5
:1041D8000D0F00F0D48098F8051059446429A8BF41
:1041E800642121EAE17188F805100E2089E098F829
:1041F8000710594481F3080188F80710052080E06A
:10420800D4F8542191785944C829A8BFC82121EA73
:10421800E17191700F2003F065F9BAF10F0F00F00A
:10422800AE80D4F8542151785944C829A8BFC82170
:1042380021EAE1715170122063E0D4F85421117B16
:104248005944C829A8BFC82121EAE1711173102077
:1042580003F048F9BAF1100F00F09180D4F8542116
:10426800D17A5944C829A8BFC82121EAE171D1727D
:10427800132046E0240D0020BB2B0020C06B010852
:1042880088200020EC140020400E00203423002059
:1042980080230020BD2700200C280020D4F85421BA
:1042A800917D5944C829A8BFC82121EAE1719175B7
:1042B800112003F017F9BAF1110F60D0D4F8542186
:1042C800517D5944C829A8BFC82121EAE171517517
:1042D800142016E0D4F85421D1785944C829A8BF2D
:1042E800C82121EAE171D17009200AE0D4F85421EB
:1042F800517B5944C829A8BFC82121EAE1715173EB
:104308000A2003F0EFF83AE0D4F85421D17D59445B
:10431800C829A8BFC82121EAE171D1750B20F0E7AF
:10432800012B2CD1B14B887833F91230B3F5617F6A
:1043380005DB40F633029342A8BF134601E04FF471
:104348006173BAF10C0F1AD14FF4966292FBF0F038
:10435800A74A1278A3F5617393FBF0F3DBB29A4294
:104368000DD01846059309F0D3FB059B5046194616
:1043780003F0B8F8059B581CC0B207F051FC019A2D
:104388000123934094F84821134384F84831019B52
:1043980001330193029B0C330293019B042B7FF49E
:1043A80067AE23E6D9F80030DB050FD5914BDB78F3
:1043B80063B1914B1B68980708D5904B1B8813F085
:1043C800010808D1012009F059FB04E0012009F097
:1043D80045FB012300E000233A6851070BD553B190
:1043E800012009F03BFB854B1B889A0706D4022065
:1043F80009F044FB02E0022009F030FB3B681B0592
:104408004FF4807002D509F039FB01E009F026FB72
:104418007B4B5A79082A984601D00E2A02D14020AF
:1044280009F01CFBD9F80030590518D598F8C032A6
:104438001BB9337813F0040F02E03B6813F4002F24
:1044480009D0704B00221A703C200CF045FC30B1AA
:104458000AF06CFDF8E704F063F80CF04DFB01235B
:1044680084F85831D4F84C01604B4189B3F90620DF
:104478008A420EDBB2F5FA6F067ABDBF531A734350
:10448800A1F5FA66C6F16406BCBF93FBF6F664367E
:1044980000E0642695F9D831B5F8407295F81E8287
:1044A80095F81FA25B429BB201930021564BDFEDAA
:1044B800577ACE544D4B9FED566A33F911E0C7EB4E
:1044C8000E0340F2E63503F2F31BAB454FEA410C0D
:1044D800504DFBEE096A2FD8002BB8BF5B4202296A
:1044E8002ED0434502DDC8EB030300E0002307EEAE
:1044F800103AB8EEC77A8378C7EE277ABE4507EE3A
:10450800103AE7EEA76A0378B8EE477AF0EE465A13
:10451800E7EE265A65EEA76A07EE903AF8EE677A54
:1045280026EEA77AC7EE067AFDEEE77A17EE903AFE
:1045380025F80C3030DB36E002294FF4FA73D2D17B
:104548005345CCBFCAEB0303002307EE103AB8EE7D
:10455800C77A437ABDF804B0C7EE277ABE4507EE9E
:10456800103AE7EEA76A4378B8EE477AF0EE465A73
:10457800E7EE265A25EEA77A07EE903AF8EE677A24
:1045880067EE277AC7EE867AFDEEE77A17EE903A5D
:1045980013FB0BF3AB800ADADFF878E03CF80E3057
:1045A8005B422CF80E30013103297FF47FAFD9F834
:1045B8000000134E10F480500DD0B2F57A7F05DB61
:1045C800B2F5FA6FA8BF4FF4FA6201E04FF47A72BD
:1045D800A2F57A7229E0B6F842128A421CDBB2F5DB
:1045E800FA6FA8BF4FF4FA6217E000BF3423002027
:1045F800A0200020B420002090200020F8200020D7
:1046080080230020152900209C1500200000C842A6
:1046180000401C45821500200A46521A4FF47A734E
:104628005343C1F5FA62B3FBF2F2DFF830836FF05F
:10463800630C642392FBF3FE38F81E100CFB0E2269
:104648000EF1010E0FFA81FC38F91EE0CCEB0E0ECC
:104658000EFB02F2DFF808E392FBF3F30B449BB284
:10466800AEF80630B0B1AC4A1268D20012D5AB4AE7
:10467800D2787AB9C7F5FA61A3F57A731BB209B291
:104688001A034FF47A7392FBF3F34B4307EB233788
:10469800AEF80670A24B1F8807F04007BFB2DFB321
:1046A800A04BDFEDA17AB3F904309FEDA00A0A22EE
:1046B80093FBF2F3B4F85A219B1A1BB208EE103A96
:1046C800B8EEC88A28EE278A38EE000A09F065F99C
:1046D800F0EE408AB0EE480A09F05FF9B5F9023009
:1046E80006EE903AB5F90030F8EEE66A07EE903A31
:1046F80020EE667AF8EEE77AA7EEA87A67EE807A77
:10470800BDEEC77AE6EEA87A17EE103AFDEEE77A24
:104718002B8017EE903A6B8096F84732002B53D0D7
:10472800002F51D194F85C21814E824C9A4217D0C7
:1047380007EE903A9FED7C8A9FED7C0A86F85C3103
:10474800F8EEE77A27EE888A38EE000A09F025F9AC
:1047580084ED010AB0EE480A09F01FF986ED580AFF
:10476800B5F9003094ED016A734A07EE903AB5F94D
:10477800043006EE903A6E4BF8EEE66AD3ED585ADE
:10478800F8EEE77A25EEE67AA7EE867A67EEA57A5E
:10479800BDEEC77AE6EE867A17EE103AB3F5FA7FE1
:1047A800A8BF4FF4FA739342FDEEE77AB8BF1346F9
:1047B8002B8017EE903AB3F5FA7FA8BF4FF4FA733F
:1047C8009342B8BF1346AB805C4B1A78540704D5A4
:1047D8005B4B1A689B88138598E04F49096811F06C
:1047E800010F534902D091F8640110B142F001025F
:1047F8001A70544AB1F80411127810075EBF1A787B
:1048080022F001021A70504A19B150490968890703
:1048180006D44F49098819B94E480088642806D932
:10482800022111701A7822F001021A7005E01B7833
:10483800DB0756BF02231170137007F055F9464B7A
:104848001B68C01A002861DB09B0BDEC028BBDE80B
:10485800F04F0AF0ABBA012000E002200138C0B2E4
:1048680009F00EFAFFF756BB94F8FD30304A972B43
:1048780005D14FF4C873A2F80431FFF74BBBA72B3F
:1048880006D1304A137843F004031370FFF742BB94
:104898000021BB2B079101D1022303E0B72B04D1E0
:1048A8004FF6FE73ADF81E3009E0BE2B01D102238E
:1048B80003E0BD2B18D14FF6FE73ADF81C30BDF8E0
:1048C8001C20B5F8EC311344A5F8EC31BDF81E20D6
:1048D800B5F8EE311344A5F8EE3109F0E3F90023F9
:1048E80084F8FE30FFF716BB792B04D192F80B3110
:1048F80023F0010306E07A2B7FF40CAB92F80B311E
:1049080043F0010382F80B31FFF704BB09B0BDEC9B
:10491800028BBDE8F08F00BFFC200020B4200020EF
:10492800F82000208A15002035FA8E3CDB0FC93F9D
:10493800240D0020000000200CFEFFFFBE2B0020ED
:10494800DC200020300F0020D820002090200020FC
:10495800B42B00208E200020F42000202A140020F0
:10496800821500202DE9F04F85B003F0D9FD8A4B60
:104978001F78002F40F09D85884D2B68590540F120
:104988009885874B874CB3F8E0802378864E002BB8
:1049980000F07B8132686368D31A7C2B40F2758102
:1049A800237A62600133237207F12400DFF8F4915F
:1049B800C0B203F0A5FD09F10C0353F8273007EE48
:1049C800903A7A4B1B88B8EEE77A07EE903AF8EE01
:1049D800E77A0137C7EE277A9FED757A67EE877A0F
:1049E800FDEEE77ACDED007ABDF9000003F076FD23
:1049F800032FD9D1302003F083FD002003F06EFD92
:104A080003F076FD99F8087017F0030724D1D9F858
:104A1800042041F288339A420BD9102003F070FD2C
:104A2800384603F05BFD212003F06AFD384603F0A9
:104A380055FD142003F064FD5E4BB3F904000A230E
:104A480090FBF3F003F04AFD1C2003F059FD002011
:104A580003F044FD03F04CFD237A5A0740F0F1803F
:104A6800022003F04DFD4F4BB3F918000A2390FBC9
:104A7800F3F003F033FD504B0320B3F9067003F055
:104A88003FFD4E4B1B785B074FF0050997FBF9F785
:104A9800BFB20BD54A48414602F004FD20B92B6845
:104AA80013F0100F18BF002738B205E0454B1B68FC
:104AB800D889B0FBF9F000B203F010FD2B689F070E
:104AC80040F18D80DFF80491678BDFF8FC8099F85E
:104AD8000010B8F800203F016423BFB203FB0212A4
:104AE8004B00B2FBF3F347EA0327BFB2C3F3032338
:104AF8001F43062003F004FD38B203F0EFFC638B7C
:104B080099F8002001339BB293FBF2F102FB1133B9
:104B1800E16963838B7B012B05D1392003F0F0FC1D
:104B2800B8F9000021E0B8F800706E237B43152720
:104B380093FBF7F7CB7BBFB20BB197FBF2F73A20A9
:104B480003F0DEFC4FF06409B7FBF9F80FFA88F0C0
:104B580003F0C4FC09FB18773B2003F0D1FCB8B282
:104B6800471D0A2097FBF0F000B203F0B7FC28209D
:104B780003F0C6FC236A0A2093FBF0F000B203F0AE
:104B8800ADFC042003F0BCFC0E4B1B68DB89FBB1B9
:104B980001F05CFF20E000BFBB2B0020A820002014
:104BA800802300208C0E0020882000200800002090
:104BB80000007A448A15002082150020BE2B0020B0
:104BC800B0250020AC120020F8120020BC03002001
:104BD800C74B186880F3100000B203F07FFC03A9EC
:104BE800C44803F051FC132003F08AFCBDF90C0003
:104BF80003F074FC1B2003F083FCBDF90E0003F0E6
:104C08006DFC232003F07CFC4E2003F067FC03A915
:104C1800B84803F039FC122003F072FCBDF90C000F
:104C280003F05CFC1A2003F06BFCBDF90E0003F0E6
:104C380055FC222003F064FC452003F04FFC03F0F0
:104C480057FC237A282B20D1AB4B306800221A72EC
:104C58004FF03C094FF47A73B0FBF3F8172003F0D8
:104C68004FFCB8FBF9F7B7FBF9F009FB107000022D
:104C780000B203F033FC182003F042FC09FB178054
:104C880000B203F02BFC03F033FC94F824309A4F65
:104C9800002B00F0B58006F027FFBB6A974AC31ABD
:104CA800934280463CD9002387F82E3087F830306D
:104CB800934B1B88DAB21B0A87F84A2087F84B30D7
:104CC80087F8402087F84130BA6D33689A1AFB6D2F
:104CD800197C4FF47A734B439A420DD3894B1B6866
:104CE800BB65894B1B78013B012B9FBF102387F8BD
:104CF8002E30022387F830307D4B226A1B68C4F8B7
:104D080028800A2192FBF1F293FBF1F384F8482002
:104D180084F84C3012121B1284F8492084F84D3064
:104D280094F860A0744FBAF1000F0ED1B86E06F077
:104D3800E8FF012809D90228DFF8D49100F08D8313
:104D480003F094FB012389F80230E76E6A4B002FC9
:104D580056D093F860203AB15A6F40F6B731C2EB9B
:104D680008028A4214D84BE0012283F860209A6F27
:104D7800986E1278022A04D80430022103F060FBEE
:104D880002E0022106F0B4FF002384F87C3035E00D
:104D980093F8702092B9DA6683F860209A6F986E5B
:104DA8001278022A04D80430012103F049FB02E0FA
:104DB800012106F09DFF03F059FB1FE0013AD2B232
:104DC80083F8702093F87C1093F87D003AB901308D
:104DD8004A1C83F87D0083F87C20986E0CE03A46E4
:104DE800013012F801EB83F87D000EEB0107986E95
:104DF80083F87C70DA66714606F086FFC4F8748022
:104E080094F87E2037683C4B002A00F05981D3F88B
:104E18008020002A00F0548193F88430013B012B54
:104E280000F24E81D4F88000DFF8CC8006F069FFEC
:104E3800E0B1D8F8800006F061FF98F88530D6F820
:104E480000A07E2B81460ED102231B2888F88430CF
:104E580009D1D8F8800006F054FF20B90123C8F81A
:104E680088A088F88C3084F88590DBE7D8F888200B
:104E780033689B1A41F6583293421FD9032388F8A6
:104E880084301DE1214A32F8130010B903464FF46B
:104E980003600133B0F5826FDBB200F0E7807FD8A2
:104EA800B0F5007F00F0A88019D9B0F5047F31D1A2
:104EB80084F88D302B68980700F18E8094F88C1058
:104EC80094F88D30002900F0F9803268D21B012A4D
:104ED800D8D984F88D30002384F88C30F0E0B0F510
:104EE800807F00F0A580B0F5887F00F0A180E9E719
:104EF800B0120020809698008C0E00203F0D030011
:104F0800F8120020882000208C2000208C8F0108B7
:104F180008000020B0F5806FD4D184F88D3094F863
:104F280094308F4A0133DBB2032B88BF012382F808
:104F3800943094F8941042F210735943894B1B78BB
:104F4800D80748BF01319A0748BF02315807864B36
:104F58001B8848BF0431DA0748BF0A31980748BFA1
:104F680014311A0648BF2831D80548BF28315A07D6
:104F780048BF6431180748BFC8319A0548BF01F5D2
:104F8800C871980648BF01F57A71DA0648BF01F57D
:104F9800FA61580648BF01F57A614FF4806086E0EF
:104FA800B0F5E26F5BD009D8B0F5C06F37D0B0F577
:104FB800E06F87D184F88D30E16853E0B0F5046F75
:104FC8003FD0B0F5116F64D0B0F5E46F7FF47AAFDD
:104FD80084F88D30616945E0614BD3F89030DA7B15
:104FE800624B1B881AB1624A117893FBF1F30A21CC
:104FF8004FF4047059432CE084F88D302B68DFF8A7
:10500800608119057FF55AAFD8F820300A2193FB43
:10501800F1F105F0A7FA002388F88C304EE784F800
:105028008D302B681A057FF549AF524B19683EE061
:1050380084F88D30504B1B685B077FF53FAF00212C
:1050480035E084F88D304D4BB3F9041001EB810144
:10505800490005F087FA002384F88C302EE721698F
:1050680084F88D302C2391FBF3F1F2E784F88D302E
:10507800414B1B6813F020087FF420AF2B681A06F9
:105088007FF51CAF414605F06DFA354B83F88C80EF
:1050980014E784F88D302B689B077FF50FAF334BEF
:1050A800334A19880A234B43117893FBF1F105F031
:1050B80059FA2B4B002283F88C20FFE684F88D30B8
:1050C80094F89530264D002B00F0AE80D5F8983036
:1050D800002B00F0A9803668D5F89C30F31A632BB2
:1050E80040F2A280DFF89480412005F022FA0A27D6
:1050F800B8F9020090FBF7F080B205F011FAB8F9A0
:10510800000090FBF7F080B205F00AFAB8F9040045
:1051180090FBF7F080B205F003FA05F0E7F995F88F
:10512800A05015F001055AD10F4B1B88D90528D47A
:10513800DA060DD49F060DD458060DD419070DD4E0
:10514800DA071DD413F0020F14BF0325012518E058
:105158000D2516E0092514E0042512E0082510E0C5
:105168008C0E0020BE2B0020F8200020F812002012
:10517800BC030020B0120020902000208A150020D7
:105188000225CD4B1F78CD4BDB78C7F3800713B1D1
:1051980047F00207FFB2532005F0CBF9C84B188837
:1051A80000EB800000EB8000800080B205F0B8F9C9
:1051B800002005F0B5F9B4F8A200FE23584340F2E8
:1051C800FF3390FBF3F0C0B205F09AF9002005F028
:1051D80097F947EA850005F093F905F087F994F8FF
:1051E800A030A3B94F2005F0A4F90BF051FC0BF047
:1051F8004FFC0BF04DFC012005F082F9B14B93F800
:10520800A40000F0010005F07BF905F06FF994F8AF
:10521800A030C4F89C600133DBB20A21B3FBF1F281
:1052280001FB123384F8A030A74D95F80080B8F13F
:10523800020FA94640F0F98006F056FCA34B1F6800
:1052480040F6B833C71B9F4207D900232B70B4F828
:10525800A6300133A4F8A6302BE19D4D2B793A2BCB
:1052680040F0F7802846A97801F06AFC002840F051
:10527800F080934B974E1B88F361236AF362964B39
:10528800D4F8A8A01B68F364B4F8A630F063F766F6
:10529800F365504607F0B3FCDFF828B2074600284C
:1052A80040F0C3805046414606F022FD042386F8AC
:1052B80074309BF8AC3095F803A0DFF83082642B8B
:1052C8004BD19BF8AD30072B08BF8BF8AD7094F825
:1052D800AD5006EB051303F1040B5968019108461C
:1052E8000FF0FDFDDBF804300093C7B218460FF04D
:1052F800F6FD5FFA80FB07EB0B02083288F80720FF
:1053080025F00F0288F80A2005F00F0288F80D2012
:105318000BEBC70288F80E20019970483A460FF047
:1053280075FD009B07F109006D4F19465A46384430
:105338000FF06CFD98F807B058460BF08DFB7A1CFF
:1053480002F80B0050460BF067FB002384F8AC30E2
:105358006B1C84F8AD3000234FE096F87550614A15
:105368002B0704BF0135EDB2072D4FF0000328BF0E
:10537800012588F80A3017462801311802F1010E74
:105388000B7CC96840EA030C82F800C0DFF860C1F2
:105398001CF80320012A0EF1010306D9013A03F88B
:1053A800011C9E46090AD2B2F4E730440135407C1C
:1053B80021F06001EDB20143082D1A468EF8001065
:1053C80009D0444800EB0510D91B007C1CF80000EC
:1053D80001441329D0DDDF1B0637FFB247F0400335
:1053E80088F8073038460BF037FB3F4B86F8755086
:1053F800D85550460BF010FBADE798F802205D1C1D
:10540800DBB29A4207D9394AD4F8A800D15C06F031
:105418007BFC2B46F1E794F8AC300322013386F885
:10542800742084F8AC3089F800202A4D95F874303F
:10543800032B3ED1D4F8A80006F05DFC002838D034
:10544800204B0121D3F8A80006F052FC022385F86E
:105458007430002389F800302BE099F8023023B12A
:10546800C7F8648089F802A06FE47B6EC3EB080379
:10547800B3F57A6FFFF469AC0123B86E89F802308E
:1054880006F03CFC8146B86E06F038FC19F07F0F38
:105498007FF45BAC8E287FF458AC97F86030002B13
:1054A8007FF453AC07F12C03FB662D2387F870308B
:1054B8004BE405B0BDE8F08FBE2B0020B4200020DF
:1054C800F81200208C0E0020E71100202012002086
:1054D8001412002008000020B012002067230020CA
:1054E8005E230020652300205F230020582300202E
:1054F800FD8F010810F80A3C0133DBB20A2B84BF88
:1055080010F8131C044A00F80A3C82BF002322F852
:10551800113000F80A3C7047E41F0020F0B55A48E3
:10552800037814240133B3FBF4F204FB1233037041
:1055380000EBC30301221A719960544B5D681C6C1F
:105548009A68A9420C4409D293F8485085B104F5E9
:105558008034944211D94FF480350BE094420CD931
:1055680093F84850002D0CBF00254FF4803501E01A
:10557800944202D9A21A521B02E0C2F58032224498
:10558800002583F8485090F8A4509C6014276C1CA0
:1055980094FBF7F507FB154590F8F840DA6080F8BA
:1055A800A45000EB8505DE68C5F8A860013494FBBB
:1055B800F7F507FB154480F8F84000EB84005960C4
:1055C800C0F8FC1040F68C218E42304A3CD9117844
:1055D80092F94540A14208460CD10C1F082C09D865
:1055E80092F84640182C9ABF013482F8464082F857
:1055F800441002E0002283F8462093F94440234AED
:10560800A14219D192F84740B4B10C3200248C421F
:1056180006DA1F4D52F8046F25F814600134F6E7D6
:105628000C2805D01A4A002422F810400130F7E768
:105638001848027801320270012283F847200022BC
:1056480083F845101A70F0BD92F84710D1B1A6F250
:10565800EF2040F2DA51884208D811780B2905D892
:105668000B1D0131117042F82360F0BD002283F850
:105678004720094B03F13002002143F8041F9342ED
:10568800FAD1F0BDF0BD00BF3C0F00205804002047
:10569800E41F00203E2200206404002010B50D4BBA
:1056A8001A7814240132B2FBF4F004FB10221A70A9
:1056B80003EBC20300221A71074A9960136C013385
:1056C8000B4413644FF6FF73994204BF012382F819
:1056D800483010BD3C0F002058040020074B53F8F9
:1056E8002030A1F57A711A684EF661235943044BAC
:1056F80091FBF3F13C311160704700BF9C1600200C
:1057080090D00300024B53F820301B681960704793
:105718009C160020064B53F820301A681B89A1F507
:105728007A7159434FF47A7391FBF3F11160704722
:105738009C160020F0B5046D8668236823F00103E9
:1057480023608379054613F0020F40790CBF4FF0B0
:10575800000E4FF4005E13F0040F14BF4FF480677F
:10576800002710F0010F14BF0421002183072068CF
:1057780020F001002060626822F440524EEA0202E2
:105788006260226822F4B05323F00C0348BF41F052
:1057980008013B430B432360A36895B023F440738F
:1057A800A360684600F010FF284B9C4201D10C9B77
:1057B8000EE0274B9C4201D10D9B09E0254B9C42F2
:1057C80001D10E9B04E0244B9C420CBF0F9B109B05
:1057D8002268A879170448BF5B00B3FBF6F206FB02
:1057E8001233B3EB560F236828BF01321E0441BFA2
:1057F8004FF6F073C2F34201134041EA03026B799A
:1058080092B213F0020FA28100F0010114BF4FF40D
:1058180000320022DC0748BF42F480322B6D11B100
:1058280059680A4302E0596821EA02025A609A68F4
:1058380001074CBF42F0080222F008029A601A6879
:1058480042F001021A6015B0F0BD00BF00380140F7
:105858000044004000480040004C00403D4B1B788D
:10586800012B30B514BF00240324B1B9036A23F017
:10587800010303628169036A21F0F30123F00A033B
:1058880041F0010142F001021A4341EA0411816129
:105898000262836923F00C031BE004291DD1016A0D
:1058A8004FF6EF730B4003628169056A120121F418
:1058B80073414FF65F7342F0100241F480712B4040
:1058C80092B2134341EA043181610362836923F48C
:1058D800406383618369836130BD0829016A1AD1F5
:1058E8004FF6FF630B400362C169036A9BB289B23A
:1058F80023F4206343F4807321F0F30143EA022286
:1059080041F0010192B241EA0411C1610262C26927
:105918004FF6F37319E04EF6FF730B400362C36949
:10592800056A40F6FF41194045F6FF732B4043F4E2
:10593800805343EA023241F4807192B241EA043161
:10594800C1610262C2694FF2FF331340C361C36988
:10595800C36130BD5404002038B510F80E2C50F83F
:10596800043C044652B9012200F80E2C20F80C1C05
:10597800997A18680222BDE838406FE730F80C2C95
:1059880020F80A1C891A89B220F8081C074A10F85E
:105998000F0C002522F8101004F80E5C1868997A8C
:1059A8002A46FFF75BFF04F8065C38BDE41F0020B9
:1059B800044B53F820301BB107289CBF1B681960A3
:1059C800704700BF8405002073B506460D460024C5
:1059D80001232A88A34013421AD0AA78009302F020
:1059E80003038DF80430EB78022B03D0032B0CBF94
:1059F800032301238DF805303046C2F301136946AD
:105A0800C2F381028DF806308DF8072000F04AFFB6
:105A18000134102CDCD102B070BD2DE9F04F754E69
:105A280096F84C5107460C4687B011469A460068CE
:105A38006B1C914622464FF0020B86F84C3109F058
:105A480083FD3B897868ADF8043001A98DF806B06C
:105A58008DF807B0FFF7B8FF0023ADF80A30ADF8AE
:105A68001230ADF8163070230193BA7A3C68CDF83D
:105A78000CA0012306F5A8782D01ADF808304FF4E5
:105A88008073A844ADF810B0ADF814300C2A7ED855
:105A9800DFE802F0077D7D7D0F7D7D7D387D7D7D92
:105AA8005E00204601A900F051FDA36943F00803F8
:105AB80026E0236A504823F010032362236A6168B2
:105AC800A26922F0807222F4E642844242F4E04263
