:020000040800F2
:1000000000A0002081420108E9420108B1840008F3
:10001000E9420108E9420108E94201080000000044
:10002000000000000000000000000000E94201089C
:10003000E942010800000000E94201080FF8000849
:10004000E9420108E9420108E9420108E9420108E0
:10005000E9420108E9420108FDF20008F9F200084E
:10006000E9420108E9420108E9420108E9420108C0
:1000700099F7000885F70008052E0108E9420108F4
:1000800071F700085DF70008E9420108E94201083C
:10009000E9420108E9420108E9420108F5F20008D5
:1000A00055C5000895C5000845C50008BDC5000830
:1000B00085C5000875C5000865C50008E942010846
:1000C000E9420108E9420108E9420108E942010860
:1000D000E9420108FD2D0108F52D0108ED2D01086B
:1000E0001DF80008E9420108E9420108E942010857
:1000F000E9420108E9420108E9420108E942010830
:10010000000000000000000000000000E9420108BB
:10011000E9420108E9420108E9420108E94201080F
:10012000E9420108E9420108E9420108E9420108FF
:10013000E9420108E9420108000000000000000057
:10014000E9420108E9420108E94201080000000013
:10015000000000000000000000000000000000009F
:100160000000000000000000E9420108E942010827
:10017000E94201080000000000000000000000004B
:0801800000000000E942010843
:100188002DE9F04F2DED088B704F714B3B60AFB0F0
:1001980000237B600DF02CFE18B90DF0E7FF10F07E
:1001A80051FA0DF049FE6B4A6B4C137843F001038A
:1001B80013706A4B4FF47002C3F888200023089329
:1001C8000993236843F480332360236803F40033DE
:1001D8000993089B01330893099B1BB9089BB3F546
:1001E800A04FF2D1236813F4003318BF01230993F9
:1001F800099B012B73D0594E594BF360636ABB605E
:10020800636ADFF890B1DFF89081DFF890A143F0DE
:1002180080736362636943F4FC032EAD6361032357
:100228008DF86A3041F6FF7325F8503D4FF0904045
:10023800294606F009FE4FF6FF7358462946ADF8E1
:10024800683006F001FE4748294606F0FDFD46489D
:10025800294606F0F9FD4548294606F0F5FD2946E8
:10026800434806F0F1FD28460AF01EFC414A1A9B55
:10027800B3FBF2F3404A414813600021102214F006
:10028800A5F93F4B3F4A5A60F02286F82320002206
:100298009A603D4E07221A603C4B96F8E9211A7085
:1002A800B368C8F8003001238DF86A3002238DF84E
:1002B8006B30636943F4802363610823AAF8043030
:1002C800ADF86830CAF800B05846CBF8183029465F
:1002D80006F0BAFDD8F800301B0729D469E02C4B8A
:1002E80012221A606368636063686360636843F43A
:1002F80080636360636823F47C136360636843F41A
:10030800E8136360236843F0807323602268124B0C
:100318009001FBD55A6822F003025A605A6842F0ED
:1003280002025A60636803F00C03082BFAD162E7F3
:1003380096F83C32012B3CD8044A96F83E32926833
:1003480012F0805900F0468633E000BFF803002021
:10035800DFFD0008BC1700200010024000ED00E09F
:100368000005FA0500080048000C00480010004885
:100378000014004840420F00C02A0020C42A002070
:1003880010E000E03F190100C4180020DA21002025
:10039800002002400004004814220020702200209F
:1003A80093F83F22012A04D1002283F83E2210F05C
:1003B800F5F964200FF01DFA00217F484FF48C7284
:1003C80014F004F9E3697D4943F00703E361A36985
:1003D80043F4E123A361636943F4C023636101F536
:1003E800887E8B7B4868CC7B03F00702DB0800EB38
:1003F80083039200186A4FF00F0C94400CFA02F233
:1004080020EA02021A62186A103144EA00027145B1
:100418001A62E6D100226A49002353540132112A94
:10042800F9D1684AFF2199540133072BF9D1664C59
:1004380000212046102214F0C9F8644B2360636041
:10044800A360E360624BD8F80040624A1A606248D1
:1004580000213C2214F0BAF8C4F3801905234FF0A8
:10046800000E5E4A5C481EF802100C2202FB0EF2D7
:100478001154B9F1000F07D11E3901299FBFFF217F
:1004880003F1FF331154DBB20EF1010EBEF1050F7B
:10049800E7D1534A96F805B01370524B524983F886
:1004A80000B0524B7B62D6330B60514B514A03EB81
:1004B800CB03A1065B7848BF0123936200234E4A11
:1004C80040F2DC5122F813100133082BF7D112A89F
:1004D8000021202214F07AF8DFF8248114F4007A3D
:1004E8001ABF1995CDF80C80CDF80CA0BBF10E0FF2
:1004F80003D00BF0EF03082B02D101238DF85C30F9
:1005080002200CF0EBFC18B14088003018BF012025
:10051800C4F340038DF84E30C4F340338DF84830AF
:10052800C4F3C03300F001008DF84B3014F40063BD
:100538008DF84D008DF8529007D096F81E3203F1D1
:10054800FF3EDEF1000343EB0E038DF84C30C4F39D
:1005580000438DF85330C4F3C003B6F8D6208DF8A5
:100568004A30BB6AADF85A201AF1000AB6F8E22000
:10057800ADF8582018BF4FF0010AC4F38042003389
:1005880018BF01238DF84F2096F8E4208DF85530D8
:1005980004F00109C4F300538DF856308DF84990E2
:1005A8008DF854A0154B6AB301228DF85020002213
:1005B80083F8E5202DE000BF2C2B00209087010850
:1005C8000404002015040020B02A002001F30008CC
:1005D8007C1E0020661B0020801E0020B58F0108AD
:1005E80038090020380D0020C02C0020D418002025
:1005F800648C0108F803002028090020C418002092
:100608005869010893F8E530003318BF01238DF8C5
:100618005130B6F8D420ADF86020E40448BFB44A9D
:10062800B6F8E03044BFB2F8DC20ADF86020B3F58E
:10063800FA7FADF85E3084BF0023ADF86030AD4876
:1006480096F8863287F82C300021642213F0BEFF1A
:100658009DF85C30002B0CBF00230223B9F1000F7A
:1006680002D19DF84A2002B1013308EB83084FF00C
:100678000009D8F81830A3F1020A203304933AF895
:10068800023F4FF6FF72934200F0D6819DF84D105D
:10069800DAB21B0ADEB279B19748984C00EB021027
:1006A8004168A14208D10189B1F5806F00F0C0818D
:1006B800B1F5006F00F0BC819DF8521031B1110105
:1006C8008D4840588E49884200F0B2819DF85310F9
:1006D80079B11101884C601864588A498C4200F03D
:1006E800A7814168B1F1904F03D1817B082900F0BF
:1006F8009F819DF84E1051B17F4800EB0210416870
:10070800B1F1904F03D10189102900F091819DF832
:100718004B1051B17848794C00EB02104168A14266
:1007280003D10189042900F083819DF84C1051B14F
:10073800714800EB02104168B1F1904F03D1018973
:10074800202900F07581199C7CB16B4F216807EB5B
:1007580002177868884208D13989A088884200F051
:100768006781E088884200F06381022B02D19DF8FE
:10077800483003E0012B04D19DF84930002B00F0EC
:1007880057819DF855105C4B170159B19DF85C10C5
:1007980041B9A2F10E01012904D8D9595A48814218
:1007A80008BF04269DF85610DC1931B19DF85C107D
:1007B80019B9043A032A40F21A81012E49D1DFF807
:1007C80054810693D919FF2291F80DE088F8742016
:1007D80088F875204868C8F8844001F1080209893A
:1007E800ADF868104FF0000B02218DF86B1088F8F7
:1007F80078B01AA98DF86AE0059288F830B0C8F880
:1008080034B0C8F838B0C8F83CB0C8F870B088F848
:1008180076B088F877B006F017FB069B059AD8598A
:1008280091785A4606F0BAFA20465946324612F0EE
:1008380029FA364BC8F88830354BC8F88C30C8F8D8
:1008480090B0204608F1880108F18C0212F070FA85
:10085800EEE0022E64D15FFA89F31C2101FB03FC50
:100868002C4BCDF81CC003EB0C0B01238BF8783014
:100878000693214B8BF87990D9194FF0000891F81D
:100888000DE048688BF87A8001F108020989ADF813
:1008980068108BF882801AA9CBF884408DF86AE03A
:1008A80005928DF86B6006F0CFFA134B059AD8596C
:1008B8009178424606F072FA069B20461A4641464F
:1008C80012F0E0F9134BDDF81CC0134ACBF888206E
:1008D80003EB0C01114ACBF88C208831CBF89080BF
:1008E80020460A1D12F024FA09F10109A0E000BF10
:1008F800C41800204009002090870108000400481F
:1009080000040040002C01400040014089660008B6
:1009180069670008F8030020E16D000861660008B7
:10092800032E62D19DF84F30934E944F3BB39DF800
:10093800513063B1002320460C214FF6FF7296F820
:10094800018006F0AAFA8E4B47F8280011E02046ED
:1009580018214FF6FF7296F801B09DF8508006F006
:100968009CFA47F82B00B8F1000F01D0854B00E046
:10097800854BC360B378192206EBC3032BE0BDF89F
:100988005E2096F80180B2F5FA7F12D97F4BB3FB4F
:10099800F2F2204692B2BDF86030082106F07DFAE6
:1009A8007B4B47F82800C360B3780D2206EBC303DE
:1009B80011E0784BB3FBF2F2204692B2BDF86030FA
:1009C800012106F06AFA744B47F82800C360B3782F
:1009D800092206EBC3035A71B378727806EBC30198
:1009E8000A7101328C60727020E0042E20D1624EB0
:1009F800BDF85820B378377806EBC30301211F717F
:100A08002046644B93FBF2F2BDF85A3092B206F0DE
:100A180044FA624B03EB87030A21C3F85801B37801
:100A280006EBC30251713278013232700133B37070
:100A3800049B9A457FF423AE4F4A584B127883F8AB
:100A48007821574A574F1678A6F117020024022A30
:100A58003C7098461AD8D8F824302344D3ED007A4D
:100A6800F5EE407AF1EE10FA03D1D8F8283063BBDE
:100A780024E04D4A04EB020E0FCB8EE80F003B78C2
:100A880010340133C02C3B70E5D1EEE7474B13F827
:100A980036C087F800C003EBC603D3F80490B9F159
:100AA800000FE2D06445E0DA3F4A230103EB020E6F
:100AB8004B440FCB01348EE80F00F3E73C4B1A6828
:100AC80012F4805F994626D11FE03A4B3A4A13F850
:100AD8003600107003EBC6035C68002CEED00023D0
:100AE8008342EBDAC3EBC3016218DFF8D8C0D2F84F
:100AF800009041F80C9001EB0C0E9188AEF80410B0
:100B080092798EF806200133EAE706F0EF03082B06
:100B18002A4B1FD120E03A78012AF6D9284B03EB5B
:100B28000212103210339342EFD053ED047AB6EE2E
:100B3800007A67EE877A43ED047A53ED057A67EE1B
:100B4800877A43ED057A53ED037A67EE877A43EDAA
:100B5800037AE7E70E2E08D11A7842F010021A70CD
:100B6800182E31D10EF0F0FF2EE01A7822F0100284
:100B78001A70192EF5E700BF40090020FC2A002052
:100B880079670008A1670008B167000800127A00B9
:100B9800D567000840420F00C5670008F803002029
:100BA800380D00209F2900206C0C0020648C01085F
:100BB80014220020AC7601084C2C0020E8140020F8
:100BC800740C00204D2C00200EF0A2FFD9F8003044
:100BD800AA4CAB4E580358BFAA4BAB485CBF012286
:100BE8001A70AA4A137843F004031370A84A4FF402
:100BF80000431380ADF868306369022743F400238B
:100C08004FF0010B8DF86B7029468DF86AB063615F
:100C180006F01AF99F4BA04A1A6000200EF012FE47
:100C2800E36943F48043E361236943F48043236128
:100C3800636943F480236361736A23F47003736206
:100C4800736A43F4A0037362736A23F07063736278
:100C5800736A43F0A0637362736A23F0704373622C
:100C6800736A43F0A0437362736A23F47023736258
:100C7800736A43F4A02373624FF4604203238DF830
:100C88006C703046002729461A924FF4805A8DF826
:100C98006D3004938DF86E708DF86F700AF0E8FB74
:100CA800049B8DF86D3030462946CDF868A08DF844
:100CB8006CB08DF86E708DF86F700AF0D9FB2369EF
:100CC80043F480432361236923F480432361734BF6
:100CD8009A8822F480521204120C9A809A8892B24E
:100CE80042EA0A029A801A8802F4415242F4457292
:100CF80042F003021A809A8822F470621204120CDD
:100D080042F4E0629A809A8B22F400621204120C78
:100D18009A8307221A821A8892B242F040021A80F5
:100D2800C6F818A0D9F8003003F41073B3F5107F93
:100D380000F0918063695A4EC8F87C6143F48023BF
:100D48006361E369DFF83891DFF86CA143F40013BD
:100D5800E361236B23F010032363236B43F0100339
:100D68002363D9F8203023F07063C9F82030D9F80C
:100D7800203043F08063C9F82030D9F8203023F0C0
:100D88007043C9F82030D9F8203043F08043C9F8BF
:100D9800203000274FF0020C4FF00108402248464F
:100DA80029464FF0030B8DF86CC0CDF818C01A9285
:100DB8008DF86F708DF86DB08DF86E800AF058FB65
:100DC8008022484629461A920AF052FB326822F0DD
:100DD800010232603168334A0A403260324A326175
:100DE800326842EA08023260B760F760B760B268FA
:100DF80042F40042B26032683260726822F078428F
:100E080022F400427260326842EA08023260DAF87C
:100E18000050264E05F400434FF0100904934A464B
:100E280005F4006330463946059313F0CFFBDDF82F
:100E380018C08DF839C04FF6FF7215F002050D92F3
:100E48008DF83A708DF83B708DF838B0CDF818A051
:100E580034D1A84640E0164A1378164978561F2818
:100E680002BFFF20785403F1FF3307F10C0708BFD6
:100E7800DBB23C2FF1D113705CE700BF00100240D9
:100E8800000400481C16002000080048BC17002079
:100E9800702900201832002003F3000800380040B1
:100EA80000540040FFE0CF00300E5000C021002069
:100EB80038090020801E0020142200202EA94FF09F
:100EC800904041F8849D0AF0D3FA072386F8008001
:100ED8007770F37086F80280049B8BB12EA90423E7
:100EE80041F8843D92480AF0C3FA0C233371072372
:100EF800F371012386F805809844B3715FFA88F886
:100F0800059B93B12EA9202341F8843D4FF09040D2
:100F18000AF0AEFA022333730723F373012386F82A
:100F28000D809844B3735FFA88F8E36A814823F424
:100F3800F873E362E36A43F4D873E362636943F0E6
:100F4800805343F00203636109F05DFC1AA809F0BD
:100F58002FFC794B1A93794B1B93B8F1010F4FF083
:100F6800000394BF1A4680221F924FF48072714C7E
:100F780020924FF4806221922022204622921AA9C0
:100F88004FF400521C931E9323922493ADF874805F
:100F980009F01BFC236843F001032360684CA36835
:100FA80023F04053A360A36843F08053A3600A2052
:100FB8000EF01FFCA36823F08043A360A368A3601E
:100FC800A36843F00043A360234699685C4A00295C
:100FD80035DAFAE7013B092B3FF6EBA9594B1868BC
:100FE80028602946584605F02FFF4FF40063CBF8D8
:100FF80018303C200EF0FDFB96F83E22524B9145EE
:10100800BFF6CEA9DAF80030BAF80420DFF820B12C
:101018009A614FF40063ABF82830782003930EF000
:10102800DDFBDAF80020BAF80410039B118578205C
:10103800CBF818300EF0D2FB09F10109DCE7936810
:10104800424923F040539360936843F00053936000
:1010580088683F4B034043F468338B60D1683D4B4D
:101068000B4043F40053D360156B08F1FF3825F0AB
:101078000F0548EA050515630024012331198A780C
:10108800002A79D05D1C042B325DC8782C4FEDB254
:101098000ED803EB4303396B5B004FF01F0E0EFABB
:1010A80003FE21EA0E0102FA03F30B433B632CE033
:1010B800092B0DD80621053B4B43D7F834E01F21F7
:1010C80099402EEA010102FA03F30B437B631CE00B
:1010D8000E2B4FF006010CD80A3B4B43D7F838E0EB
:1010E8001F2199402EEA010102FA03F30B43BB6367
:1010F8000BE00F3B4B43D7F83CE01F2199402EEA09
:10110800010102FA03F30B43FB63092A0C4B23D9B1
:101118000A3A99699F6902EB42020721914027EA3E
:1011280001019961996990400843986123E000BFE3
:10113800000400480804024040010050D02100206B
:10114800000100509C690108C418002000030050E9
:10115800E010FCFF07C0FFFD013A59695F6902EB27
:1011680042023821914027EA010159615969033245
:101178009040084358612B460434102C7FF47EAF0E
:10118800B34B9A6842F001029A601A461168B04B54
:10119800C907FBD5DA68AF4D22F00202DA60DA68D7
:1011A80042F00202DA60DA6842F00102DA609A6814
:1011B80042F004029A60D5F8CC31002B40F0E08769
:1011C800D5F8D021002A40F0DB87D5F8D421002AB1
:1011D80040F0D687A04CA14895F8D98195F8EC71D4
:1011E800B5F8EE9195F8DBA195F8DC6100210C22A9
:1011F80013F0ECF94FF0000B00211422984813F07B
:10120800E5F959460C2284F880B184F881B104F5D7
:10121800C27013F0DBF9934BC4F8903123200EF021
:10122800E8FA752001210AAA0AF0FAFD002867D019
:101238008D4BC4F888318D4BC4F88C315846432304
:1012480001210BAA84F884310AF0EAFD9DF82C30BC
:1012580003F07E038DF82C3040B1682B06D10123B2
:1012680084F880311D2384F8843149E09DF82830C2
:1012780003F07E03682B8DF828303CD1022306202A
:1012880084F880311AAAD4F88831DFF8CCB1014645
:1012980098479DF86B309DF86D2003F001035B00C3
:1012A80002F0010243EA82029DF8693003F001036B
:1012B800134312D05AB2012A01D1002302E0022AB4
:1012C80003D101238BF881311AE003F00303032BC8
:1012D800F7D003200EF026FB12E0DBF888310C2053
:1012E80001210DAA98479DF8343013F00F03F0D070
:1012F800042BE6D1E1E7702B04BF042384F8803186
:101308005B4900230B70544B049393F88021022A05
:1013180013D1534B57481860574858605748D860FE
:101328005748186104230B705649574B08681A70C0
:1013380040F001020A609E4603E001200EF0F2FA36
:1013480004E142460A2A28BF00220123934040F2C2
:10135800B23C03EA0C0CBCF1000F18D113F04D0F8E
:1013680015D03E4B494A1A60494A5A60049A92F885
:101378008121002A0CBF6F226E221A72454B04226B
:101388001A70032318438EF80130086006E0012A1A
:101398004FF00008D5D83F4B83F80080042F3BD886
:1013A800DFE807F0034303030300049B2A4F93F885
:1013B8009481B8F1000F40F0988614200EF019FAC5
:1013C80007F295137620D021012205F057FE97F8F1
:1013D8009531582B29D107F5CC738821182276200E
:1013E80005F04CFE31227620F42105F0C3FE0123DE
:1013F80087F89431284B294A9A60294A5A6045F659
:10140800D8125A80274ADA60274A1A61274AA3F86D
:1014180000805A6100F069BE012F06D01A4B194AA4
:101428009F70136843F004031360164F3B689A07D4
:1014380002D50A4B1B689847BAF1000F38D0BAF1A9
:10144800070F0EBF7D234FF47A73012631E000BFEA
:1014580000010050C4180020F8030020202E0020AE
:101468002C0B00208069010829BE000849BE00082D
:10147800960B002065BF000849BD00082DBD000877
:1014880090C1793D1C2E002085030020C9BF0008AB
:1014980091BD00083E320020A830002029BD000878
:1014A8002BBD00083FBE0008D9BD000861BB00087D
:1014B8007D23013E1D4AF6B206FB033313601C4B25
:1014C80084F8B4611B68504698471A4B00221A707A
:1014D80095F8C7210AB118490A7095F8C8210AB1C8
:1014E80016490A7095F8C92102B11A703B68144967
:1014F80013F0080F28D00FFA89F9642299FBF2F348
:1015080002FB139212B207EE902AB8EEE77A07EEC2
:10151800903ADFED0C6AF8EEE77AE7EE267AB2EE5B
:10152800047A67EE877AC1ED007A0FE0C0220020C6
:101538002C0B00203A320020960B00203E3200206F
:10154800402D00208988883C00230B60BA4ABB4E96
:10155800137843F0020313703368B2889A610A273C
:101568003268B188938A4B409BB2938219200EF05F
:1015780040F9D5F80C35D80302D401200EF062F9F1
:1015880019200EF036F9013F00200EF05BF917F034
:10159800FF07E5D13368B2889A61A94B9FEDA98A04
:1015A8001B689FEDA90A1B7BA84E07EE903AF8EE40
:1015B800E77AA7EE880A0EF06CFFA54B9FEDA57A97
:1015C80083ED000AA44BD3ED047AA44B67EE887A26
:1015D800C3ED007AA24B1B8807EE903AF8EEE77A43
:1015E800A04BC7EE277A9FEDA07AC7EE877AC3EDA6
:1015F800007A0EF0EBFA9D4BFF2118461E2212F0DE
:10160800E5FF077037689A49012217F0020F18BFE3
:1016180042700A701FBF03220A70022282700A7881
:101628000B461B218154511CC9B24FF01C0E00F807
:1016380001E0911CC9B24FF01D0C00F801C07907F8
:1016480048BF8B4902F1030E5FFA8EFE48BF043291
:1016580083F800E041BF0A70844A032102F80E10A3
:1016680017F00A0F0CD01A7804218154511CC9B202
:1016780005274754D11C0232D2B219700621815471
:10168800069ADFF8ECC1116811F0200F1FBF9CF813
:101698000020571C8CF80070072718BF87546F79F3
:1016A800082F01D00E2F09D19CF8002002F1010E5D
:1016B8008CF800E04FF00B0E00F802E09CF80020D8
:1016C80011F4803F4FF00C0800F8028002F1010E7F
:1016D8001CBFDFF89C8102325FFA8EFE8CF800E0B6
:1016E8001FBF88F80020614A4FF00E0802F80E80EC
:1016F8004A0741BF9CF8002002F1010E8CF800E077
:101708004FF0100E48BF00F802E0DFF864E19EF8E1
:10171800002002F1010C5FFA8CFC4FF0120811F462
:10172800806F8EF800C000F802800CD095F8CC824B
:10173800B8F1000F07D002328EF800204B4A4FF064
:10174800130802F80C808A0541BF9EF8002002F1B8
:10175800010C8EF800C04FF0150C48BF00F802C00D
:10176800182F13D11A784FF0160C00F802C002F1A6
:10177800010C5FFA8CFC4FF0170800F80C8002F19E
:10178800030C0232D2B283F800C087540A0341BF67
:101798009EF800305A1C8EF80020192248BFC25407
:1017A800CB0541BF9EF800305A1C8EF800201A2243
:1017B80048BFC254002198222E4812F007FF08F0B3
:1017C8007FFE2D4B2D4A1A602D4BB5F8DE1019807F
:1017D8002C4900230B808B702B490A602B4A13700D
:1017E800B5F8442291B2DFF8B4902948D9F80070CE
:1017F800DFF8ACE020F8131007F596774EF8237061
:101808000133122BEFD1234FD7F800E01EF4805F8D
:1018180008BFB5F84E12C1801F4901F1500C91F86C
:101828005934002B4DD191F85B3491F85C844345D1
:1018380047D2BBB3013B37E0BC1700207022002021
:10184800302D002035FA8E3CDB0FC93F1C2E0020BE
:10185800442D00200AE81C412C0B00202C2D0020D0
:1018680008000020E431002000401C46952200209A
:1018780094220020D81D0020A40A0020F81A002075
:10188800A80A00204822002010220020700A002008
:101898001822002014220020C4180020442200200E
:1018A800280A002008F1010303EB830391F85A8406
:1018B80003EB830303F5617308F104089BB220F876
:1018C800183004316145AAD11EF0080F00F03081AC
:1018D80095F83C12082900F22581DFE811F009008B
:1018E8000C0013003E00580079007900B200FB009C
:1018F80045F2F05201E042F6F822604B1A8008F0F7
:101908008CFE0EE15D4B42F6F821198012010A2384
:1019180092FBF3F20023A2F5B062594941F8232063
:101928000133122BF9D1574A57491160574A4020C1
:1019380013700BF00DFB002800F0F48095F83D3291
:1019480090F90000002B14BF0723062301228DE81D
:101958000C0040214E4A4F4B8CE0484B42F6F8228F
:101968001A80484B4C4A1A60484B102240201A7083
:101978000BF0EEFA002800F0D58001234FF00008A4
:1019880090F90000454A8DE80801402170E03B4B82
:1019980042F6F8221A803B4B414A1A603B4B082218
:1019A80040201A700BF0D4FA002800F0BB80012305
:1019B8004FF0000C90F900003A4A8DE808104021D9
:1019C8004FF4E1330BF03AFA049BC3F8B801A5E0F1
:1019D8002A4BDFF8FCE0344D344842F6F8221A80EE
:1019E8002A4B0C221A7006294FF000038EF800309B
:1019F8002B7003700AD02E4B1B2119702D4B1A70B7
:101A08002D4B05221A704FF4E13507E0284B2B4D7A
:101A180021201870274B1A70274B1970194B284A28
:101A28001A6040200BF094FA00287BD001234FF075
:101A3800000E90F90000234A8DE8084040212B460B
:101A480018E00E4B44F620621A800E4B1E4A1A60AC
:101A58000E4B0A2240201A700BF07AFA002861D047
:101A680001210023194A90F900008DE80A0040215D
:101A78004FF4E1330BF0E2F950E000BF4A0B0020CD
:101A8800C41F002088000020D1AE0008741E00206A
:101A980099B20008A0860100BDAE0008EDB10008AB
:101AA800A5AE0008A1B10008C1200020C020002078
:101AB800C2200020511F0020C320002090D0030026
:101AC800B9AD000871B00008A9AD000825B000083C
:101AD800521F0020BE4B41F27C521A80BD4BBE4AB9
:101AE8001A60BE4B10221A70BD4B00251D70BD4BED
:101AF800282240201A700BF02BFA98B1032390F992
:101B08000000B94A8DE828004021B84BB84D0BF0C9
:101B180095F9012128600DF055FF2868003018BF9D
:101B2800012028B908200EF035FDAA4BB14A1A60E9
:101B38003A68AA4912F4804F1FBF12230B70A54BB5
:101B4800AD4818BF186042F20103134002F00100CB
:101B580002F4005583B19E4B44F6206EA3F800E0D2
:101B680025B108230B709B4BA44D1D6020B10C239D
:101B78000B70984BA24818600B7812F4007FA3F101
:101B880004034B700DF1680879D0DFF8B8A2039B05
:101B9800CAF800309B4B5A6942F480225A619A690C
:101BA80042F001029A61039B1B88ADF82C30022396
:101BB8008DF82F30039B012558688DF82E500BA9FE
:101BC80005F042F9DAF800304FF0000B1A89D868AE
:101BD800ADF82C200BA98DF82EB005F035F9DAF800
:101BE80000302846197D08F087FEDAF800301869B9
:101BF80008F0D2FDDAF800301B691A93404610232A
:101C08008DF86D308DF86CB08DF86E5008F06AFB69
:101C1800DAF800305B7D8DF834300DA803238DF899
:101C280035308DF836B08DF8375008F03DFBD9F8CF
:101C38000030754A9FED750A3C3B1360336843F0EA
:101C4800100333604FF4C873A4F8BC31704BC8223A
:101C58001A80E123A4F8BE310EF01BFC6D4BDFEDBA
:101C68006E7A83ED000A20EE270A6C4AFDEEC07AF0
:101C780017EE903A13806A4B4FF0FF321A60694AA8
:101C8800694B1360694A6A4E803313603B680025CC
:101C9800DA03357040F1F1800DF06CF9DFF8A8C176
:101CA800DFF860A1CDF818C040F22A334FF00109DF
:101CB8001A4660462946059386F8009012F086FC7D
:101CC8005C4A5D491160DAF814205C4E4FF0904090
:101CD80042F40032CAF81420426A22F00F0242622B
:101CE800426A032142F0060242624FF4807B0222DC
:101CF8008DF831100BA98DF8302003928DF83250F1
:101D0800CDF82CB08DF8339009F0B2FBDAF8181042
:101D1800039A41F40061CAF81810318821F45C7103
:101D28000904090C31801D21F162304632850DA964
:101D380035866022C6F814900D92ADF83A500F958A
:101D4800ADF84050ADF84250ADF84450ADF84650AB
:101D5800ADF8389008F06AFEB26942F00802B26144
:101D6800726C42F400427264DAF8142042EA090202
:101D7800CAF81420AAF6E47A504608F044FD404612
:101D880008F016FD059B2E4AADF8743080231A9290
:101D9800DDF818C01F9310224FF4005350464146F7
:101DA8002393CDF86CC01C921E95CDF880B0219578
:101DB8002295249508F009FDF36843F40073F36055
:101DC800DAF8003043F00203CAF800300AA83DE010
:101DD8004A0B00208800002095AD0008741E0020E2
:101DE800502000205120002039AF000848E80100A9
:101DF800EC14002035AF000805AF000825AF000837
:101E080015AF0008001002400C320020D253FB3FEF
:101E1800C8310020C03100200000C843D031002064
:101E2800C4310020D0170020A41B0020CC170020AC
:101E3800D4170020B02A00203BBB0008002C01402A
:101E4800342C014010320020B80500200C238DF8F6
:101E580028308DF829908DF82A508DF82B9008F0AD
:101E680023FAA54B1A68A54B43F825200135202DE8
:101E7800F7D10AF021FA0AF01FFA3B685B0553D53F
:101E88009F4BD4F8EC641E6004200BF061F8042129
:101E9800C4F8F0040BF036F89A4B84F8F4040820E0
:101EA8001E600BF055F8984B984D186008210BF000
:101EB80029F82C22002184F8F504284612F086FB24
:101EC8007C232B708E236B70E023EB707D2385F8C9
:101ED8002B308F4B20201E600BF03AF82021C4F8DD
:101EE800F8040BF00FF884F8FC041020C4F800651F
:101EF8000BF02EF81021C4F804050BF003F8854BFD
:101F080084F808053B221A7001225A703A221A7185
:101F18009F229A711E221A72A4225A7200229A7261
:101F2800DA721A730CF0DEFE7B4A138823F0400342
:101F38001B041B0C1380138823F038031B041B0C91
:101F4800138013889BB243F04003138000249F231F
:101F580032208DF834308DF835408DF836408DF8C4
:101F680037400DF046FC8DF869406C4C4FF48055B5
:101F78000422258540460DA908F066F9A5619DF85B
:101F88006A209DF86930120242EA03429DF86B30DC
:101F98001A43634B9A42634B17D008D862498A4266
:101FA8000CD001F51A4102318A4209D01CE05F4980
:101FB8008A4205D001318A4207D015E0202200E08C
:101FC80080221A804FF4807202E04FF480721A80E7
:101FD8005A809A88198812029A604A430499DA60EA
:101FE800012281F8092504E000221A805A809A60AB
:101FF800DA60DC6804B3E40AA1460026A64208DADF
:1020080035196D10E802414610220AF071FA0F28BE
:1020180007DC0DF0F5F8464B4FEAC922C3F80C254A
:102028000AE0002358F82320013261D10133042B40
:10203800F8D1A9462C46E1E73E4991F8DB31013B4E
:10204800052B9EBF012381F8E83181F8DC313A4B3A
:1020580091F8E8211868394B42431A603A68384BBE
:1020680012F4002418BF01241C704B79052B02BF01
:10207800344B4FF4C8741C804FF47A73B3FBF0F3FD
:10208800C3EB431003EB80032F48DB0003802F4B87
:10209800C82018802E48037843F0080303702D48A1
:1020A800037823F00203037040F6020313406BB178
:1020B800294B2A4A1A602A4B03221A70294B0122FB
:1020C8001A70294A00231380284A13808B683B60C2
:1020D800274B01221A70274A137863F07F03137085
:1020E8002FB0BDEC088BBDE8F08F0427FFF796B939
:1020F8006E1C25469EE700BF98690108D617002088
:102108005C140020A0140020BC14002070140020CF
:10211800D41400209C180020003800400004004817
:1021280018BA2000C0000020152020001740EF003A
:10213800F8030020C4180020C0220020A029002095
:10214800AC2A0020C00A0020343200203832002097
:10215800E81400203C320020BC210020D61A0020C0
:10216800162E002084030020042D0020062D0020B8
:102178001C160020BC17002035FA8E3CDB0FC93F27
:102188001BB208EE103AB5F9D0315FED057A5FED74
:10219800059A344A09EE103AB5F9D431B8EEC88A2E
:1021A80008EE903A28EE278AB8EEC99AF8EEE88A3F
:1021B800002138EE290A29EE279A68EEA78A1170BD
:1021C8000EF067F9B0EE40AAB0EE480A0EF061F9D9
:1021D800B0EE40BA39EE290A0EF05BF9F0EE40AAEB
:1021E800B0EE490A0EF055F9B0EE409A38EEA90A59
:1021F8000EF04FF9B0EE408AB0EE680A0EF049F9D9
:1022080060EE0A6A6BEE087AF0EE665AE7EE895AD3
:10221800154B28EE0A6A2BEE007A2AEEC00AC3EDA7
:10222800035AF0EE465AE7EE495A83ED010AA6EE44
:10223800497A2BEE6A0AE6EE897A28EE2A8A83ED35
:10224800050A2AEE8A0A83ED008A83ED029AC3ED15
:10225800045A83ED067AC3ED077A83ED080AFEF780
:10226800B9BF00BFBC000020982100202DE9F04F25
:102278009B4BDDB01E780293002E00F0DC80994B5A
:102288001868002801F0B7870DF04AFA964C2068C4
:102298000DF0A1FB002801F0AE872068934C0DF0EB
:1022A80097FB092801D03F2849D14FF0000827683B
:1022B8008F4D46462FB18F4829683A4612F0D2F919
:1022C80010B9A84606B92E468B4B10359D42F1D35E
:1022D800C6B1D6F800E0D8F800C023681EF803504D
:1022E8001CF80300A8420DD15A1C824938B92D2B7D
:1022F80005D87E4D2A602025CD54885402E0CD545F
:102308002260EAE723680BB146450FD07B480FF0FF
:10231800E3FB464507D856F8100B0FF0DDFB092004
:102328000FF068FAF5E706F02FFF002723689F42B1
:10233800ACD2704BD85D0FF05DFA0137F6E7236831
:10234800002B41F0DD86042841F02E8769480BF008
:102358006DF801F050BF2068DFF8C0810DF03BFB3D
:10236800002851D0D8F800000DF032FBDAF8003020
:1023780093F848208346002A77D1242840F0D68055
:10238800012283F84820DAF8003093F84880B8F141
:10239800060FE0D193F849004D2800F0858500F23A
:1023A800C281322800F0A28500F25D81242800F065
:1023B800328500F21181032800F0638240F2EB803D
:1023C800052840F0FD801A2009F042FB00244C4B00
:1023D800185D013409F0F7FA0B2CF8D10024494BA9
:1023E800185D013409F0EFFA082CF8D10024464BA7
:1023F800185D013409F0E7FA072CF8D109F0F4FA6E
:102408003B68002283F84820D9F800000DF088F9CD
:102418003E4B93F8343053B13D4B98590AF0F0FCD9
:102428000DF052FB0EF0C6F83A4B3B4ADA604C36D8
:10243800982E01F0E086364A354BB258F318002A38
:10244800F5D0364C364F22601592DFF8DC903B60B1
:10245800002214AB334D8DF85920142214958DF8B1
:102468005820C9F80030BA4675E7012A04D14D282A
:1024780014BF0022022284E7022A04D13C2814BF98
:10248800002203227DE7032A0AD140284FF00002E8
:102498009FBF1A71DA715871987198BF042270E75A
:1024A800042A08D19A7983F8490080EA020B83F854
:1024B80006B0052265E7052A7FF465AF59791A79D0
:1024C8009142997906D941409971511C1971134467
:1024D800187258E781420CBF0622002251E700BF5C
:1024E8003D320020F82D00202C2E0020BC28002092
:1024F800607401088C28002050760108AA88010819
:10250800128901081E890108278901080809002085
:10251800D81D002000ED00E00400FA05BC220020D0
:10252800B4220020EBF90008B8220020DA4A137818
:1025380003F0040303F0FF00002B7FF424AFBBF18A
:10254800230FD8F8001019D10192029A01231370B1
:10255800D24B1960D24B1960996010211973D14977
:1025680058735D60D04804330B600FF0B5FA06F07D
:102578000BFE019A137843F002031370CB4B1B68D0
:102588001B785B4501BFCA4BCA4A1A60CA4B04BFD5
:10259800CA4ADA60F7E6012800F06781022840F0AD
:1025A800CC85042009F054FA422009F00CFA542092
:1025B80009F009FA462009F006FA4C2000F0A2BDFD
:1025C800C0F08C81222840F0B885BD4C502009F01D
:1025D8003FFA04F15005FBE22A2800F0448419D898
:1025E800262800F01E84282840F0A785B44C072030
:1025F80009F02EFAB4F81A0209F02DFAB4F81C0200
:1026080009F029FA94F81E0209F0DDF9B4F820025D
:1026180000F057BD2E2800F0C784302800F0DB8476
:102628002C2840F08A85A64C0C2009F011FA94F861
:102638003C0209F0C8F9B4F8480209F00CFAB4F8F9
:10264800440209F008FAB4F8460209F004FA94F8CA
:102658003E0209F0B8F9B4F84E0209F0FCF9B4F8F2
:10266800500200F02EBD402800F0478424D83828B6
:1026780000F0E68312D8342800F0EA82362840F0C9
:102688005C85874B8E4C93F83000C0EBC000C0B21D
:1026980009F0DEF904F1280500F06BBC3B2800F0D6
:1026A80090823D2800F02F823A2840F04685042089
:1026B80009F0CEF9834BACE3462800F0B2840BD87E
:1026C800422800F02984452840F03785132009F076
:1026D800BFF9002400F0D4BC492800F01F824B2821
:1026E80000F0C783472840F0288509F063F90546BC
:1026F800842009F0ADF9284609F0B6F9724BDC6878
:1027080005F18003A3428CBF641B80240DF170087F
:102718000CF076FD28462246414609F0E9FE0024E1
:10272800054600F092BC702800F02B8259D8672823
:1027380000F0348134D8522800F09D8418D84F28EE
:1027480000F08C84502840F0F8845D4C042009F097
:102758007FF9012009F037F994F8050509F033F9F4
:1027680094F8030509F02FF994F8040500F0CABCA1
:10277800652800F0C38000F2E980642840F0DD8419
:10278800072009F065F9E72009F01DF94C4B587945
:1027980009F019F9002009F016F9042000F07BBCB3
:1027A8006C2800F073810ED8682800F058816928D9
:1027B80040F0C384454D2878400000F0FE0009F041
:1027C80047F9002457E16E2800F0708100F2AC81CF
:1027D800062009F03DF93E4B186809F045F93D4BD4
:1027E800A0E17C2800F05B841CD8742800F0538298
:1027F8000AD8722800F0B682732840F09E84082018
:1028080009F026F90124E2E2772800F08982782885
:1028180000F0D080752840F090842F2009F018F936
:102828002D4CC6E1A02800F0E88209D87E2800F0E7
:102838005B84C0F04A84962840F07F840C205EE0D8
:10284800F12800F0E680FE2800F0C982F02840F068
:1028580074841B4C042009F0FBF8B4F8F20109F069
:10286800FAF8B4F8F00100F02CBC032009F0F0F8F5
:10287800002009F0A8F8012009F0A5F8102000F0C0
:1028880041BC09F0E5F8022009F09DF8404609F03E
:102898009AF8012000F036BC3C3200202C2E002093
:1028A80008090020F82D0020DA8801087C1E002085
:1028B800FC9F0020EFBEADDE00ED00E00400FA054D
:1028C800C4180020C4310020C0000020741E00205D
:1028D800EC3100204C1400201B6A0108062009F086
:1028E800B7F8522009F06FF84D2009F06CF8442031
:1028F80009F069F84F2009F066F84DE00B2009F05F
:10290800A7F8C14B188809F0A6F804F0A1FC09F053
:10291800A2F8BE4B1B68C3F3C000C3F3800280005B
:1029280040EA4200C3F340021043C3F3401240EAB6
:10293800C20003F01003184309F08DF808F068FF8F
:1029480009F092F8B24B93F85804DBE3122009F02F
:102958007FF8B04B1B88B3F5806F8CBF0825012525
:102968000024AD4B53F8240090FBF5F0013480B2FD
:1029780009F071F8032CF4D1A84C208809F06BF801
:10298800A08809F068F8208909F065F8002009F0A6
:1029980062F8002009F05FF8002092E3102009F0A7
:1029A80057F800249E4B185D013409F00CF8102CE0
:1029B800F8D123E57020964C09F04AF80025A04686
:1029C800B4F8560109F047F8B4F8580109F043F88B
:1029D800B4F85A0109F03FF894F85C0108F0F3FFE5
:1029E80094F85D0108F0EFFF94F85E0108F0EBFF42
:1029F80094F85F0108F0E7FF0E2303FB0583013518
:102A0800D3F8600109F030F8082D04F10E04D7D18D
:102A1800F4E470207E4C09F01BF804F1700594F87A
:102A2800E60008F0D0FF94F8E70008F0CCFF94F82F
:102A3800E80008F0C8FF94F8E90008F0C4FF94F82B
:102A4800EA0008F0C0FF94F8EB0008F0BCFF073478
:102A580094F8E50008F0B7FFAC42E0D1CEE41020CE
:102A680008F0F6FF00246F4B185D013408F0ABFF47
:102A7800102CF8D1C2E42B789C42BFF4BFAC6A4B4F
:102A880033F8140008F0E7FF0134F4E7674C4046D8
:102A980008F0DEFF208808F0DEFF608808F0DBFF22
:102AA800B4F904300A2093FBF0F027E0072008F07F
:102AB800CFFF5F4B1888FF28A8BFFF20C0B208F0DF
:102AC80082FF5C4B18684FF6FF74A042A8BF2046EF
:102AD80020EAE07080B208F0BEFF574B188808F073
:102AE800BAFF4B4B93F81F22544B186842B10A2384
:102AF8005843A042A8BF204620EAE07080B2E0E236
:102B080000F30F00FAE7424C022008F0A1FF94F806
:102B1800890208F058FF94F88802F3E2022008F0CE
:102B280097FF474B1888CCE2464C0B2008F090FFE3
:102B38002368187808F047FF2368587808F043FF9F
:102B48004FF0000825462B683E4C434408F1010825
:102B5800187908F038FFB8F1030FF4D12368D87951
:102B680008F031FF2368987808F02DFF2368D8789B
:102B780008F029FF2368588908F06DFF2368187A40
:102B8800C0E21E2008F064FF00242F4D2B68234468
:102B9800587808F018FF2B682344D87A08F013FFF8
:102BA8002B6823440134587D08F00DFF0A2CECD122
:102BB80024E414F8010F00283FF420AC08F003FFC8
:102BC800F7E7012008F044FF1F4B1B68187899E2CB
:102BD80094F859241D4B0C2101FB0233043493F85B
:102BE800380008F0F0FE94F8560408F0ECFE94F86B
:102BF800570408F0E8FE94F8580408F0E4FEAC42E4
:102C0800E6D1FFF7FBBB00BF363200201C2E0020A8
:102C1800C41800200800002040140020902900203B
:102C280028090020E42A00201822002088290020F2
:102C38000C22002064140020E614002060140020F8
:102C4800C0220020FC0A0020C42800201C6A0108B9
:102C58005A20CA4C08F0FCFE04F15A0594F8AE0458
:102C680008F0B1FE94F8A90408F0ADFE94F8AA049F
:102C780008F0A9FE94F8AB0408F0A5FE94F8AC049B
:102C880008F0A1FE063494F8A70408F09CFEAC42B4
:102C9800E4D1FFF7B3BB00254FF0010A4FF0000B5A
:102CA800B74B1B789B4531DAB64B1BF803204FF026
:102CB8000008B54C0C2304F1300103FB08F3595C00
:102CC800914209D12344586B11F0C3FC0246BAF172
:102CD800000F07D1534607E008F10108B8F11F0FAC
:102CE800E7D110E005440EE093420CDA0C2101FB19
:102CF80008410392496B0193C85C08F064FE019B8C
:102D0800039A0133F0E70BF1010BC9E7BAF1000FA1
:102D18003FF474ABE8B208F09BFE4FF0000ABDE741
:102D2800974D287808F094FE00242B789C42BFF435
:102D380065AB944B14F803E0002193480C2200F192
:102D4800300C02FB01F313F80C20724505D1034443
:102D580093F8380008F037FE02E001311F29ECD162
:102D68000134E2E7854C162008F072FEB4F84402FC
:102D780008F071FEB4F8D00008F06DFEB4F8D20087
:102D880008F069FEB4F8D40008F065FEB4F89A02B9
:102D980008F061FE002008F016FE002008F013FE7F
:102DA800002008F010FE94F81F0208F00CFE94F8BA
:102DB800400208F008FE002008F005FEB4F9EE31E4
:102DC8000A2093FBF0F080B208F045FE3CE0E0B248
:102DD800013408F0F8FD092CF9D1FFF70FBB0820E2
:102DE80008F036FE0024694B33F81400013408F06B
:102DF80032FE042CF7D1FFF701BB0C2008F028FEA7
:102E0800634B186808F030FE624B186808F02CFE17
:102E1800614B18683FE1042008F01AFE574B986888
:102E280039E1564C062008F013FEB4F8CC0108F03E
:102E380012FEB4F8D00108F00EFEB4F8D40140E157
:102E4800042008F005FE4D4C94F8120208F0BBFD72
:102E580094F8160208F0B7FD94F8150208F0B3FDCF
:102E680094F817024EE1012008F0F2FD434B58791F
:102E780048E1424C082008F0EBFD94F8980208F06D
:102E8800A2FD94F8990208F09EFDB4F89A0208F0A1
:102E9800E2FD94F89C0208F096FDB4F89E0208F052
:102EA800DAFD94F8A0022DE13C4C3D4D207800EB72
:102EB8004000C0B208F0CCFD4FF0000823789845D8
:102EC80005F10205BFF49AAA15F8020C08F07BFD7B
:102ED80015F8010C00EB800000EB800000F2EE20FA
:102EE80080B208F0B8FD08F10108E7E7012008F012
:102EF800AFFD224B93F8400204E1082008F0A8FD3A
:102F080000241E4B2344013493F8340208F05BFD7F
:102F1800082CF6D1FFF772BA184C102008F098FD6B
:102F2800607908F050FDA06808F09EFD94F83C0216
:102F380008F049FDB4F8CC0108F08DFDB4F8D001D3
:102F480008F089FDB4F8D40108F085FDB4F81A0238
:102F580008F081FDB4F81C02B3E0124AD25C90423A
:102F680000F0D4800C333C2BF7D10834AC423FF44A
:102F780045AA94F8A4020023EFE700BFC418002074
:102F880094220020952200201C6A0108DC210020E0
:102F9800ACF7FF1FB0F7FF1FB4F7FF1F741E002028
:102FA800161B0020801E00204020D14C08F050FD48
:102FB80004F14005B4F8600308F04DFD94F862038D
:102FC80008F001FD043494F85F0308F0FCFCAC42FF
:102FD800F0D1FFF713BAE020C54C08F039FD04F131
:102FE8008005B4F8E20200F03F0008F034FDB4F8C0
:102FF800E202C0F3861008F02EFD94F8E002000902
:1030080008F0E1FC94F8E00200F00F0008F0DBFCA7
:10301800043494F8DD0208F0D6FCAC42E1D1FFF7A5
:10302800EDB90D2008F014FD09F02EFAB14C40F06E
:103038000200C0B208F0C7FC208808F015FDE0685F
:1030480008F012FD0CF024F825E0AC42BFF6D6A932
:1030580018F8040008F0B7FC0134F6E70B2008F074
:10306800F7FC002008F0AFFC002008F0ACFC0020C2
:1030780008F0A9FC0BE0012008F0EAFC002041E080
:103088009D4B185D013408F09EFC0B2CF8D10020F4
:1030980008F0EAFC002008F0E7FCFFF7AFB9944C11
:1030A800082008F0D5FCB4F8D80008F0D4FCB4F82F
:1030B800DA0008F0D0FCB4F8DC0008F0CCFCB4F876
:1030C800DE0008F0C8FCFFF799B9894C032008F026
:1030D800BFFC94F8220208F076FC94F8230208F06A
:1030E80072FC94F824020DE0814C032008F0B0FC37
:1030F80094F8C70108F067FC94F8C80108F063FC6D
:1031080094F8C90108F05FFCFFF778B908F05BFC98
:10311800B4F8A60208F09FFC94F8A80208F053FC43
:1031280094F8A90208F04FFC94F8AB0208F04BFCA5
:1031380094F8AA0208F047FC17E74E283CD108F09B
:1031480023FC1128054602D907F0DCFA2FE0684C69
:1031580008F01AFC05F5927504EB4503987208F01F
:103168001FFC40F2ED23984205DD40F6CA03984261
:10317800A8BF184601E040F2EE2004EB4504A0F297
:10318800EE20192390FBF3F0E07210E0C0F0F28219
:10319800D02800F0FD82D22840F0AE87574B1B782C
:1031A80003F0040303F0FF04002B00F0FD8200206D
:1031B80008F04EFCFFF722B900F2E081352823D150
:1031C80008F0E2FB0E280546BED808F0DDFB032810
:1031D800BAD8474B062404FB053484F8AE0408F03B
:1031E800D3FB84F8A90408F0CFFB84F8AA0408F0FC
:1031F800CBFB84F8AB0408F0C7FB84F8AC0408F0F8
:10320800C3FB84F8AD04D2E700F2EA802B2804D18E
:1032180008F0BAFB364B5871C9E77BD8252807D187
:10322800334B00229A6008F0C5FB0DF0BBF9BEE7EE
:1032380038D8232840F0608708F0A6FB13280446F6
:1032480082D808F0A1FB00222D490C235343CD1846
:1032580095F83850854221D1254D0B4404F58B74DF
:1032680005EB840493F83030637008F08DFBA07090
:1032780008F08AFBE07008F087FB224B22491A68A5
:10328800207105F1D0030B60204B00201A6007F075
:10329800FFF81F4B80F00100187088E701321F2AE1
:1032A800D2D151E727280DD108F07AFB104CC4F889
:1032B800CC0108F075FBC4F8D00108F071FBC4F824
:1032C800D40174E7292840F0178708F069FB084CF7
:1032D800A4F81A0208F064FBA4F81C0208F054FBD6
:1032E80084F81E0208F05CFBA4F820025FE700BF28
:1032F800C4180020C0000020128901083C320020B8
:103308001C6A0108C4280020000B0020040B0020C0
:10331800020000202F2800F0638425D82D2840F0D3
:10332800EB8608F031FBCE4C84F83C0208F038FB01
:10333800A4F8480208F034FBA4F8440208F030FB73
:10334800A4F8460208F020FB3B6884F83E025B794B
:10335800082B7FF62CAF08F023FBA4F84E0208F0E8
:103368001FFBA4F8500222E7312830D108F00CFBEB
:103378001F2804463FF6E8AE3B685B79082B7FF4CC
:10338800E3AE08F00DFBDFF8D882B83408EB84050B
:1033980000F03F00688008F003FB6B88800100F4B0
:1033A800FE501843688008F0EFFA000108F824007E
:1033B80008F0EAFA18F8243000F00F00184308F86B
:1033C800240008F0E1FA68700BF0D4FDEFE633282A
:1033D80040F0928608F0D8FAA14B83F84002E6E65E
:1033E80041280AD1002408F0CFFA9D4B2344013428
:1033F800082C83F83402F6D1D9E66AD8392811D1D5
:1034080008F0C2FA964C84F8120208F0BDFA84F863
:10341800160208F0B9FA84F8150208F0B5FA84F82B
:103428001702C4E632D8372840F066865B7907244D
:10343800B3FBF4F2C2EBC2029A1A12F0FF0F7FF448
:1034480083AEB3FBF4F4013CE4B2FF2C3FF4AFAE1F
:1034580008F09AFA5FFA80F84FFA88F009F03EFD12
:10346800054600283FF470AE80F8008008F098FA0E
:10347800688008F089FA287108F086FA687108F0FF
:1034880083FAE87108F080FAA871DCE73C2813D1C8
:10349800744C256895F8008008F076FA287023683F
:1034A80018780CF0F3FB23681B7843453FF47FAE94
:1034B800002008F0E2FA7AE63E2840F01D8608F07F
:1034C80063FA674C84F8890208F05EFA84F8880287
:1034D8006DE6482802D10BF0E1FE68E62CD84328B7
:1034E80022D108F051FA5E4C0023A360607108F005
:1034F80061FA0DF057F808F047FA84F83C0208F032
:103508004FFAC4F8CC0108F04BFAC4F8D00108F01F
:1035180047FAC4F8D40108F043FAA4F81A0208F0EC
:103528003FFAA4F81C0242E6442840F0E5854E4BD9
:10353800012283F834203AE64A2802D108F030FA0A
:10354800B7E74C2840F0D88508F01EFA444C84F8B8
:10355800980208F019FA84F8990208F021FAA4F8F8
:103568009A0208F011FA84F89C0208F019FAA4F8F3
:103578009E0208F009FA84F8A00218E6D32804D1BC
:1035880008F00EFA384B588611E600F21781CD285C
:1035980009D1364B1B785C073FF509AE344B4FF425
:1035A800C8721A8003E600F2AC80C82826D15C797C
:1035B8006408122C3FF6C8AD0025A54206D208F0D3
:1035C800EFF91CAB23F815000135F6E72246002376
:1035D800A34207DA1CA931F81300264921F8130081
:1035E8000133F5E7122A05D0224B002123F81210E7
:1035F8000132F7E7204B01221A70D8E515D8512877
:1036080040F07A851D4B1B78012B3FF6D0AD08F0B2
:10361800BBF9134C84F8050508F0B6F984F80305DE
:1036280008F0B2F984F80405C1E5CA2828D10024B5
:103638000C4DD5F8008008F0A7F9A04488F80100DF
:10364800D5F8008008F0A0F9A0442D6888F80B0090
:1036580008F09AF9254401340A2C6875E8D1A6E5E2
:10366800C4180020C4280020080900203C3200208B
:10367800C00A00200C200020FD2C0020AC2A0020CD
:10368800CC2840F039855B79092B7FF65DADC84CB5
:10369800256808F079F92870256808F075F96870C8
:1036A80008F072F923686428A8BF6420187108F02C
:1036B8006BF923686428A8BF6420587108F064F97E
:1036C8002368FF28A8BFFF20987108F05DF92568D6
:1036D800642828BF6420E87108F056F9A8702568A6
:1036E80008F052F9E870256808F05AF93B686881D3
:1036F8005B790A2B7FF65BAD246808F045F92072E8
:1037080055E5CF287FF442AD08F04AF96FF4AF6E63
:1037180000EB0E039BB2A74CC62B98BFA4F844023B
:1037280008F03EF9A4F8D00008F03AF9A4F8D2005D
:1037380008F036F9A4F8D40008F032F9A4F89A028F
:1037480008F022F908F020F908F01EF908F01CF931
:1037580084F81F0208F018F984F8400208F014F9F8
:1037680008F01EF900EB80004000A4F8EE0108F014
:103778000BF948E6904B1B7858073FF518AD8F4A70
:10378800137843F0040301E08D4A012313700EE51A
:10379800894B1B785D073FF50AAD0AF0E7FC0CF092
:1037A80051FF0AF049FB02E508F0EEF8814B0128C9
:1037B80083F85804F3D983F85844F0E7DB283FF43A
:1037C800F6AC63D8D62809D1002408F0E9F87D4B77
:1037D80023F814000134082CF7D1E8E431D8D428B0
:1037E80040F08A845B790F2B7FF4AEAC08F0CCF8FC
:1037F800072805463FF6A8AC08F0D2F86D4B0E2412
:1038080004FB0534A4F8560108F0CAF8A4F85801D6
:1038180008F0C6F8A4F85A0108F0B6F884F85C0174
:1038280008F0B2F884F85D0108F0AEF884F85E019B
:1038380008F0AAF884F85F0108F0BCF8C4F8600141
:10384800B5E4D92811D108F0ABF85A4CA4F8D8003F
:1038580008F0A6F8A4F8DA0008F0A2F8A4F8DC004A
:1038680008F09EF8A4F8DE00A1E4DA2840F04484C9
:1038780008F08AF84F4C84F8220208F085F884F89A
:10388800230208F081F884F8240290E4F22821D178
:1038980008F07AF80F2804463FF656AC08F074F89A
:1038A800494BC4EBC4041C44A07108F06DF8E071E6
:1038B80008F06AF8207208F067F8607208F064F897
:1038C800A07208F061F8E07208F05EF820730CF05E
:1038D8003BF96CE41CD8DC280DD108F055F8354CC0
:1038E80084F8C70108F050F884F8C80108F04CF8CB
:1038F80084F8C9015BE4EF2840F0FE8308F050F833
:103908002C4CA4F8F20108F04BF8A4F8F0014EE4AE
:10391800F52840F05C81012008F09AF80024284B33
:103928002A4D2B481C702146C02285F8354010F0DE
:103938004DFE8DF817409DF8172095F83A10234B47
:1039480091426AD99DF8172003EBC20292F83D20F4
:10395800D2075BD59DF8172003EBC20292F83C1002
:103968001C4A32F91120002A50DD9DF8172093F8DF
:1039780035A0DFF85CB003EBC2024FEA0A18126CFC
:1039880050689DF817204BF8080003EBC2030BEBB7
:1039980008011B6C1A89CA80002492B25946012377
:1039A800A340134018D10134102CF8D115E000BF02
:1039B800FC0A0020C41800203C320020E814002033
:1039C800D0000020FE2D0020A419002008090020A6
:1039D80080270020E42A0020234601EB08040AF18E
:1039E800010A22810222E2720422A272A268E26023
:1039F800A380012208F10803A273194403F024FAF2
:103A08005BF80830E2889A6185F835A09DF8173090
:103A18000133DBB28DF817308DE793F8350007F0E6
:103A2800D2FF07F0E1FFD9F800000BF079FE3B6800
:103A3800186809F0E5F9BA4B39681960B94BD9F833
:103A480000201A600BF004FFB74C4FF0000884F810
:103A5800008084F8018009F0B7F92F280394F3D186
:103A6800B24CADF81C802268A188118509F0ACF928
:103A7800019009F0A9F98DF8250009F0A5F98DF84C
:103A8800260009F0A1F9824609F09EF90DF1700BA4
:103A98000BF8080008F101085FFA88F18A45F3D1AC
:103AA80009F080F98DF8190009F07CF92168A388DC
:103AB8008B61039B8DF81800BDF818101B8899427C
:103AC80000F0A2804FF0000A07AC4FF0010B4FF056
:103AD80003080DE09DF8703095F835209A4200F201
:103AE80002814FF0000A07AC4FF0010B4FF00808B5
:103AF8008F4B0020187058708C4B0393B3F804E078
:103B08001868874BA0F828E0186800680BF055FF84
:103B18002E2009F029F9019809F026F99DF82500C9
:103B280009F022F99DF8260009F01EF958460BF114
:103B3800FF3B5FFA8BFB09F017F90BF1010B039BB5
:103B4800A34414F8010B019309F00EF95C45019B9D
:103B5800F7D1744CDFF8D8B1404609F005F9206870
:103B68009BF801100BF0E8FD9BF8001020680BF0A3
:103B7800E3FD6B4B1A6810680BF01AFF20680BF016
:103B8800CFFD019B1A689B889361BAF1000F3FF43F
:103B98005BAF95F83540002C3FF4F6AD654BDFF888
:103BA800A481013CE4B283F83540240108EB040AFF
:103BB800022351468AF80E3058F804000C3103F0FD
:103BC80043F958F80430BAF806201A85E1E7FA28CC
:103BD80040F09282584B1B7859077FF5E0AD8BE295
:103BE800564C04F1400507F0DBFEA4F8600307F02B
:103BF800CBFE84F8620307F0C7FE043484F85F0341
:103C0800AC42F0D1FFF7D3BA019BCDF828B0303BD6
:103C180000220F2B00F2488201A151F823F000BFC7
:103C2800693C0008B33C000881400008C53C000816
:103C3800C1400008DD3A0008B1400008553D0008C1
:103C4800B93E0008153F0008633F0008D73F000849
:103C5800B1400008953F00080F400008DD3C00080F
:103C6800DFF8E48098F8003013B395F89C30002B07
:103C780000F02982022B02D9032B10D023E2FD2366
:103C88008DF838300EA8002302218DF8393008F05D
:103C980076FF012008F062FFC12809D013E208F07E
:103CA80093FE002800F00F8202E06A238DF81C3092
:103CB8004FF0000A07AC4FF0010BE2E190238DF8BA
:103CC8001C3004238DF81D304FF0000A07AC4FF06C
:103CD800020BD6E19DF870305A1E022A00F2C48108
:103CE80085F89C30E4E7164ADFF85C801370114BC6
:103CF80093F89C30013B012B0BD800238DF838300A
:103D08008DF839300EA80123022188F8003008F018
:103D180036FF002488F8004088F80140C8E700BF53
:103D28005C280020542800206028002070220020F1
:103D380058280020080900203C320020C418002020
:103D48007E270020802700204B280020DFF84483AE
:103D58009DF8703088F8002088F8012095F8352003
:103D68009A42C2467FF6BDAEC74A0324137008F0D4
:103D78002BFEF0B1C548012106F0C8FCC8B1DFF838
:103D880014B30221584606F0C1FC90B1BBF80030CC
:103D980049F2073223F00801914200F09A8149F272
:103DA8000A32934200F0958149F20B42934200F0A7
:103DB8009081B74A937811888DF82230ADF8201099
:103DC800131D0DF1380E143218685968F446ACE822
:103DD800030008339342E646F6D118681B79CCF8FD
:103DE800000015210EA88CF8043008F0C8FE0BA8B6
:103DF800082108F05DFF00284CD000230BAA08A971
:103E0800985C595C884245D10133032BF6D19DF863
:103E18002F308AF802309DF830308AF801309DF84A
:103E280031308AF800309B4B1A884FF2103322F059
:103E38002001994211D04FF210439A420DD04FF20F
:103E480090339A4209D04FF650039A4205D002F5B2
:103E5800BA530F339BB2012B01D801230EE022F095
:103E6800080349F207318B4207D049F20A339A42D4
:103E780003D049F20B439A420CD1022385F89C30B7
:103E880095F89C3088F803304FF0000A814C4FF0C9
:103E9800040BF6E0013C14F0FF047FF468AF88F8E7
:103EA800004088F80140A2464FF0040B794C12E11B
:103EB80095F89C30032B40F0F780774B12241C7048
:103EC80008F05EFD002008F005FD072008F002FD5F
:103ED8000E2008F0FFFC204608F0FCFC142008F037
:103EE800F9FC002008F0F6FCAC2008F0F3FC882070
:103EF80008F0F0FC132008F0EDFC762008F0EAFC4E
:103F080008F026FD654808F04FFC9CE095F89C30C9
:103F1800012B40F0C9809DF870308DF81C305B0093
:103F28008DF8253009A800238DF8263008F098FE72
:103F380028B94FF0000A07AC4FF0010BCBE0584B03
:103F48000EA81B88ADF83830022108F018FE14209E
:103F580008F004FE3028ECD1AAE69DF870308DF800
:103F6800243095F89C30002B00F0BE80022B02D93B
:103F7800032B04D0B8E00CBF0720032012E009A8E7
:103F880008F0B6FD0028D4D014221AE09DF870304D
:103F98008DF8243095F89C30022B02D0032B0AD0E0
:103FA800A2E0042009A908F0C9FE002840F0968084
:103FB8004FF00F089AE009A808F09AFD0028B8D039
:103FC8001622354B09A81A7008F06CFDEDE795F834
:103FD8009C308DF824A0002B3FF46AAE022B02D946
:103FE800032B09D064E609A808F03AFE0028A0D0FF
:103FF800012009A9142224E009A808F079FD002865
:1040080097D013222AE095F89C308DF824A0022B33
:104018000DD0032B1BD0012B4FF0000A07AC4FF03B
:10402800010B0CBF4FF002084FF00F0860E509A81C
:1040380008F016FE00283FF47CAF052009A940F2DD
:10404800DC5208F0D1FD00283FF473AF30E609A830
:1040580008F04EFD00283FF46CAF15220E4B09A85E
:104068001A7008F0CDFCEEE74FF0000A07AC4FF0ED
:10407800010B4FF009083BE50A4C4FF0000A4FF0DE
:10408800090BD04634E500BF7E2700204C280020CD
:10409800C06B01084B280020BC1E0020BD1E00205C
:1040A800D96B0108A08801084FF0000A07AC4FF04F
:1040B800010B4FF002081BE54FF0010A07ACD3468D
:1040C8004FF0000814E5002488F8004088F8014003
:1040D8002FE70323D2E64FF00F0809E59DF824B037
:1040E8004FF0000A1CACCCE74FF002084FF0000A72
:1040F80007AC4FF0010BFBE406F004FBFEF77EB9BA
:104108000C2803D13D480DF0E7FC49E00A2801D00E
:104118000D2864D13A4D3B480DF0DEFC284623219A
:1041280010F089FA08B1401B206023687BB35A1E3F
:10413800A95C202901D11346F8E7314A2360002100
:10414800D154314B314ED3F80080D6F800902C4F23
:10415800484610F07EFA05462A463846494610F089
:1041680081FA2B4A20B97B5D43445B785B0703D017
:1041780010369642E9D306E0964204D2681CF368EA
:104188003844984702E023480DF0A6FC00231C4859
:1041980023600021302210F019FA029B1B7853B3D8
:1041A80004F0F2FFFEF772B80C28ABD07F2804D1D8
:1041B800FEF76CB82F2B3EF669A8A0F12002D2B208
:1041C8005E2A3EF663A813B920283EF45FA85A1C5D
:1041D80022600B4AD0540DF00DFBFEF757B87F282C
:1041E800E8D1013B064A0C4823600021D1540DF068
:1041F80073FCFEF74BB85DB0BDE8F08FAF880108DF
:104208008C280020339A01088C0300206074010870
:1042180050760108BA880108D68801082DE9F04FC0
:10422800A34FA44C3A6802F59C432DED028B203332
:104238002360A14B1E7889B0D6B1A04909688A428B
:1042480040F20881013E1E7004E1DFF890829C482C
:10425800D8F80030072D98BF595D9A4B88BF29467A
:104268001B689847032D09D904EB45050136A8803A
:1042780007F03CFAF5B28542E7D320E0D8F80020F1
:1042880005F1100302EB830359889A880028EBD0C4
:104298004FF47A73401A5843531A90FBF3F040F6E0
:1042A800C90300F57A70984205DC40F2EE23984283
:1042B800B8BF184601E040F6CA0080B2D4E7824B86
:1042C800824E1B68D6F8008042F2010A03EA0A0A05
:1042D800BAFA8AFA4FEA5A1A7D4BBAF1000F05D199
:1042E80094F828201A707B4A517811701B782BB1EA
:1042F800784B93F8009089F0010900E099460F2364
:10430800DFF8F0B184F82930002507F0EFF985428D
:1043180067DA6B00B9F1000F03D06F4A32F8150065
:1043280000E048466D4ADFF8D0C111684A8B8242E6
:104338004FEA850E6A4A02D8898B81421CD25CF802
:104348000E005C49804501D2D05A19E0E8B20392C8
:104358000293019107F0E2F9032D029B039A0FDC07
:1043680001994FF0010E91F829C00EFA05FE2CEACA
:104378000E0E81F829E003E008F596714CF80E104E
:10438800BAF1000F28D194F8BC100322B1FBF2F265
:1043980002EB42028A1A03EB050E5EFA82F204EB84
:1043A8004202508594F8BD202AB9022913D9414AFE
:1043B800012182F8BD10BBF800203BF8020C104424
:1043C800BBF802201044474A80B2D05200B2032200
:1043D80090FBF2F080B2424AD05201350BF1060B45
:1043E80093E794F82920404BA2F10F014A424A4131
:1043F80084F8D6206AB13D4A1268520109D432685D
:10440800D9689A60521AC82A1FD9012283F8212034
:104418001BE0304A01215170117032689968DA60E6
:104428005B68521A9A4282BF2F4B002283F82120E0
:10443800002507F05BF9854207DAE8B207F06EF964
:10444800274B23F815000135F3E794F8BC30013306
:1044580084F8BC301C4B1A6812F4805F994605D06A
:10446800224B1B68DB0701D403F0D8FF1B4B3968CC
:104478001F683B7B002B41D0013B1948BA7B30F8C1
:1044880013301AB1C3F53B6308339BB21BB2A3F5D3
:104498007A73B3F57A7FA8BF4FF47A7323EAE3738C
:1044A80007EE903A9FED127AF8EEE77A5FE000BFE8
:1044B8001C320020B4090020402200203C220020A9
:1044C800741E0020880000201422002044220020AE
:1044D8006818002000000020B809002010220020E1
:1044E80018220020720A0020482200209022002072
:1044F80000007A44E0090020280A0020D9F80020AA
:10450800150440D5D4F8D820AE4E8A1A002A3ADBD2
:1045180001F59C422032C6F8D820AB4A5079AB4A04
:1045280032F81050A8B27D7B90FBF5F596F8DC00C8
:10453800013000F00F0286F8DC20324482F8DD50AA
:104548001A46A348185C01330244102B92B2F8D1E2
:1045580012B292FBF3F31BB2642BA8BF642323EAC5
:10456800E37307EE903A9FED9B7AF8EEE77AC7EE91
:10457800877A994A9FED997A67EE877AFCEEE77A0F
:1045880017EE903A1380D9F80030954F13F4807FD6
:1045980000F0FA80934BDFF85082994205D998F8D9
:1045A800022012B9012288F8022098F80220002A75
:1045B80000F0EA808C4A8D4992F821503A78681EBA
:1045C800454245410868C0F38063C2F3800B0193FC
:1045D8008A462DB912F0080F0CBF0026022600E00B
:1045E800002698F82020052A00F2CA80DFE802F0A9
:1045F800034C608594B1BBF1000F38D0D4F8F000BB
:10460800B4F8F41008F05AFD012809D17849794A1C
:1046180009681268C988642000FB0122C8F81020C4
:10462800019B5BB1724A126812793AB10EF0C8F96F
:10463800032288F820204FF47A7236E0002D40F0EB
:104648009F806C4AD8F810101068674A88420AD9C7
:1046580002920EF0B5F9029A032182F8201040F672
:10466800B831D161BDE7012182F82010B9E7019B7B
:104678004FF4806013B10BF07DFF01E00BF06AFF8F
:104688000022C8F810207BE0002D57D1584A126844
:10469800127A012A02D00EF093F9A2E70EF090F9EF
:1046A800032288F8202040F6B832C8F81C2098E782
:1046B80025B1052288F82020012000E02846BBF11A
:1046C800000F0BD0D4F8F020118A4B4A118051808A
:1046D8009180474909684988D1800326454A11686D
:1046E800D8F81420914202D8BBF1000F45D147F207
:1046F8003052C8F81C20032221E03A7842F0020226
:104708003A7003F08BFE3B4AD8F81C1012680A4432
:10471800C8F81820042212E0364A9DB11168D8F86A
:10472800182091422CD9354A92781AB9DAF8002023
:10473800D10725D43A7822F002023A70052288F887
:1047480020204EE71268D8F81C100A44C8F8182030
:1047580016E02749274A09681268C988642000FBBF
:104768000122C8F810204FF48060002288F8202029
:1047780088F803200BF0EEFE33E700287FF431AF12
:1047880016B130460BF07CF81D4DB5F8DE1005F576
:104798000D7008F093FC83461748B5F84432B0F919
:1047A800022003F10B01914280462BDB0B3B934225
:1047B80028DCB0F90020914224DB9342CCBF0023CF
:1047C800012320E0B4090020C0210020D0210020CE
:1047D800910A00200000C842E614002000C07F446F
:1047E8003C320020404B4C00482200209022002000
:1047F800A42F0020442200201822002000000020BE
:10480800C41800200023BBF1000F30D1944A12686D
:10481800120106D5934AD2789AB93A78560710D534
:1048280028E0914B914900221A605A609A60904B97
:10483800C1F800B00122C1F804B0C1F808B01A707C
:104848000BE0894A89480021116051609160884ACB
:1048580000230360436083601370864B00221A6054
:104868005A600023C4F8F830C4F8FC3004E0804AE9
:1048780000231370804A13703B78580736D5D9F84F
:104888000030D90632D57D4B1B78DA062ED47C4B06
:104898009B7893B195F88932BBF1000F15D17BB1A4
:1048A800784B1A68D4F800319B1A002B08DA03F009
:1048B800B5FD754B83F804B118E0BBF1000F0DD1BD
:1048C80010200AF0DDFF01230EE03BB16D4A1268AB
:1048D8004FF47A7101FB0323C4F8003194F80431D2
:1048E80023B10AF0B5FF002384F80431002295F8BB
:1048F8008812B5F84662B5F848E2134638F912004E
:104908009B08B042C4BF63F07F03DBB2013270453D
:10491800B8BF43F04003042AF0D194F805215A485F
:104928009A4205D190F80621F92A04D8013200E00C
:10493800002280F8062184F80531514B524A9878B4
:10494800474E9A4628BB3368DB070AD582F8070129
:10495800BBF1000F1DD13B78DB071AD503F09CFB98
:1049680017E03B78580714D5484B1B788BB13D4B63
:10497800DB7873B992F807310133DBB2032B82F885
:10498800073106D911B103F049FD02E0BBF1000F70
:10499800F9D094F80631DFF8F0B0142B40F090808D
:1049A8009AF802309BB19BF805315F2B0FD13B7809
:1049B80003F0040303F0FF0213B103F02FFD06E038
:1049C8000B2001920AF05CFF019A8BF806213B78D4
:1049D80003F0040303F0FF01002B71D194F80531B3
:1049E800294A572B14D12A4B1A684FF47A73B3FB10
:1049F800F2F3C3EB431203EB8203264ADB00138076
:104A0800254B1B685B075BD5244B0A221A8057E0AD
:104A1800D9F80000400717D55A2B15D192F808315C
:104A28002BB1012382F8081182F8093148E092F885
:104A38000A3183F0010382F80A310BB10C2000E03F
:104A48000D200AF01DFF3BE05D2B00F07F855B2BFE
:104A580000F07E855E2B23D1032000F07ABD00BFD5
:104A680090220020482200208C2F0020742900204A
:104A7800862A00204C2E0020A4290020E8140020BB
:104A88000000002044220020B409002068180020FB
:104A9800C0220020343200201C2E00203832002092
:104AA800562B01D10BF07AFE9AF80230002B00F059
:104AB800568594F805316F2B40F0518503F0ECFAD8
:104AC800D9F800305A0735D594F80A31B24A8BB173
:104AD8003B785B070ED5B8F90610B5F8463299420F
:104AE80008DD336813F0010302BF3221A2F80E116A
:104AF80082F80A313368D8030DD594F81021A64BF3
:104B08002AB993F8082112B93222A3F80E210123F9
:104B180084F810310EE094F808319F4A53B13B787D
:104B280003F0040303F0FF0123B9012382F80811FD
:104B380082F80931DFF884A2002333600AF1500BB0
:104B48009AF800209AF801301AF8010C9A420BD210
:104B5800514608F079FA38B11AF8022C012303FA01
:104B680002F23368134333600AF1040ADA45E7D1E5
:104B78008A4B1B782BB18A4E3368990700F1E9817B
:104B8800E0E1884E06F15A0A3278737816F8010C7B
:104B98009A4225D2314608F057FA08B3B37896F806
:104BA80004E0814A96F803B07B480C21013B01FBE5
:104BB8000E4103EB43031344D1F818219A420FD056
:104BC800C1F81831002390F84421C1F81C310123A1
:104BD80003FA0EF322EA030381F814B180F8443192
:104BE80006365645D0D1714BD4F848611B680393FB
:104BF8006F4B1B7804936F4B029300230193029B26
:104C08001968002900F0938191F800A0BAF1000F0B
:104C180000F08D815B68039AD31A002B0CDB02F538
:104C2800FA73029A5360019A0123934094F844213D
:104C380022EA030384F84431049B002B00F07781B7
:104C4800029B13F8042C4B780432D2B2002B40F0AC
:104C58003881594B38F91220B3F8443203F1C800AF
:104C6800824202DD91F802B015E0C83B9A4203DAAD
:104C78008978C1F1000B0EE0019A0123934094F862
:104C8800442122EA030384F84431039B029A03F582
:104C9800FA7353604BE194F84421019B1A41D207FF
:104CA80000F14581BBF1000FCCBF022001200AF0C2
:104CB80021FE0AF1FF31384A132900F23081DFE87A
:104CC80011F01400250036004A0063007F009E00A2
:104CD800BC00DA00E600F4002E014A0059007F000B
:104CE8009E00BC009200B000CE0096F800A0DA4406
:104CF800BAF1FA0FA8BF4FF0FA0A2AEAEA7A304660
:104D080086F800A008F086F9012022E096F801A0B4
:104D1800DA44BAF1640FA8BF4FF0640A2AEAEA7AC3
:104D2800304686F801A008F075F9022011E096F8DF
:104D380003A0DA44BAF1640FA8BF4FF0640A2AEA64
:104D4800EA7A86F803A03046D2F84C1108F008F940
:104D580003205146A6E0717959446429A8BF64210B
:104D680021EAE17171710D200AF0BAFCBAF10D0F58
:104D780000F0D580317959446429A8BF642121EA1B
:104D8800E17131710E208DE0B179594481F3080148
:104D9800B171052086E000BFB40900203D32002033
:104DA800902200206E1D0020DB6B010844220020A9
:104DB80068180020CC0A0020C41800201F1D0020FD
:104DC800D2F85001059281785944C829A8BFC82152
:104DD80021EAE17181700F200AF082FCBAF10F0F0D
:104DE800059A00F09C80D2F8502151785944C8297E
:104DF800A8BFC82121EAE1715170122052E0D2F80F
:104E080050010592017B5944C829A8BFC82121EA4D
:104E1800E171017310200AF063FCBAF1100F059AD2
:104E28007DD0D2F85021D17A5944C829A8BFC821C9
:104E380021EAE171D172132034E0D2F850010592D1
:104E4800817D5944C829A8BFC82121EAE17181752B
:104E580011200AF045FCBAF1110F059A5FD0D2F87B
:104E68005021517D5944C829A8BFC82121EAE171C0
:104E78005175142016E0D2F85021D1785944C82928
:104E8800A8BFC82121EAE171D17009200AE0D2F84F
:104E98005021517B5944C829A8BFC82121EAE17192
:104EA80051730A200AF01CFC39E0D2F85021D17D58
:104EB8005944C829A8BFC82121EAE171D1750B203E
:104EC800F0E7012B2BD138F912308878B3F5617FE0
:104ED80005DB40F633029342A8BF134601E04FF4C6
:104EE8006173BAF10C0F1AD14FF4966292FBF0F08D
:104EF8009E4A1278A3F5617393FBF0F3DBB29A42F2
:104F08000DD0184605930BF07FFB059B50461946BC
:104F18000AF0E6FB059B581CC0B20AF0EBFC019AAC
:104F28000123934094F84421134384F84431019BAE
:104F380001330193029B0C330293019B042B7FF4F2
:104F48005EAE18E6D9F80030DB050FD5884BDB7864
:104F580063B1884B1B68980708D5874B1B8813F0EB
:104F6800010A08D101200BF005FB04E001200BF039
:104F7800F1FA012300E00023326851070BD553B141
:104F880001200BF0E7FA7C4B1B889A0706D4022015
:104F98000BF0F0FA02E002200BF0DCFA33681B0594
:104FA8004FF4807002D50BF0E5FA01E00BF0D2FA6D
:104FB800724B5A79082A9A4601D00E2A02D140200B
:104FC8000BF0C8FAD9F80030590518D59AF8CC3240
:104FD8001BB93B7813F0040F02E0336813F4002F79
:104FE80009D0674B00221A703C2005F057FB30B1FE
:104FF80006F0AAFCF8E709F075FE05F061FA01234E
:1050080084F8543194F8553103B35A4B1B685A0746
:105018001CD533681B0703D408200BF09BFA15E056
:10502800554B1F8807F00807BFB27FB908200BF05F
:10503800A1FA544B1A68544B1A60544BB8F806201E
:10504800A3F85621524B1F60524B1F6094F85531FC
:1050580013B3484B1B68DF061ED533689E0204D481
:105068004FF400700BF076FA16E0434B1E8806F4F6
:105078000076B6B286B94FF400700BF07BFA414B5C
:105088001A68414B1A60414BB8F80620A3F856211C
:105098003F4B1E603F4B1E60D4F848E1B8F906202C
:1050A800BEF80A108A420FDBB2F5FA6F9EF8074085
:1050B800BDBF531A6343A1F5FA64C4F16404BCBFCD
:1050C80093FBF4F4643400E0642495F822320193ED
:1050D80095F82332029395F9D831B5F844829BB2FA
:1050E80003932D4B1E6800212C4B33F91190C8EB0C
:1050F800090303F2F31540F2E63085424FEA410A0C
:1051080003D8002BB8BF5B4201E04FF4FA730229C1
:105118004FF064004AD0019D1DB1AB42CCBF5B1B70
:1051280000231F4D93FBF0F76FF0630B35F817C0A2
:105138000BFB073B013735F917500FFA8CF7ED1BBE
:10514800184F05FB0BF595FBF0F5654427F80A5059
:105158000EEB01052D796B43134D93FBF5F3643387
:105168009BB2634393FBF0F04DE000BFFC2D0020A1
:10517800482200201C2E00208C220020C418002069
:10518800791E0020EC310020F8310020B4090020FD
:105198000032002004320020C428002018220020F9
:1051A8007C280020802900200CFEFFFF029D1DB1F5
:1051B800AB42CCBF5B1B0023BE4D93FBF0F06FF0FE
:1051C800630C0CFB003B05EB400705EB4000B7F90F
:1051D8005871B0F95A01C01B00FB0BFBBDF80C005D
:1051E8009BFBFCFBC7EB0B0B1BFB00FBB248A0F8BF
:1051F80004B09EF80600002BB8BF5B424343AF489B
:1052080093FBF0F064307378AD4F6425434393FB10
:10521800F5F37B54AB4FF37A434393FBF5F37B549D
:10522800737DA54F5843A84B90FBF5F002295854BD
:10523800A64B09D1C1459D7009DBA54BA54C186843
:1052480010F480500FD11CE0C1455C5404DA37F8E3
:105258000A305B4227F80A300131032906F10106BA
:105268007FF442AFE9E7B2F57A7F05DBB2F5FA6F72
:10527800A8BF4FF4FA6201E04FF47A72A2F57A728D
:1052880012E0B4F846128A4205DBB2F5FA6FA8BFFD
:105298004FF4FA6200E00A46521A4FF47A735A43FE
:1052A800C1F5FA61B2FBF1F2DFF868E26FF063066C
:1052B800642392FBF3F53EF8151006FB0522013531
:1052C8000EB23EF91550AD1B6A4392FBF3F30B4443
:1052D8009BB2FB80C8B1804A1268950015D57F4AF9
:1052E800D27892B9B4F84412A3F57A72C1F5FA608B
:1052F80000B212B24FF47A73120392FBF3F202FB7C
:1053080000F36D4A01EB2333D380754B694D1E883A
:1053180006F04006B6B2DEB3724BDFED737AB3F92E
:1053280004309FED720A0A2293FBF2F3B5F86A2162
:105338009B1A1BB208EE103AB8EEC88A28EE278AE4
:1053480038EE000A0BF0A5F8F0EE408AB0EE480AF5
:105358000BF09FF8B7F9023006EE903AB7F9003033
:10536800F8EEE66A07EE903A20EE667AF8EEE77A0B
:10537800A7EEA87A67EE807ABDEEC77AE6EEA87A3D
:1053880017EE103AFDEEE77A3B8017EE903A7B80F5
:1053980094F84B32002B52D0002E50D195F86C2146
:1053A800444E534C9A4217D007EE903A9FED4E8ADE
:1053B8009FED4E0A86F86C31F8EEE77A27EE888A78
:1053C80038EE000A0BF065F884ED010AB0EE480AE1
:1053D8000BF05FF886ED5C0AB7F90030D5ED5C5A42
:1053E80094ED016A354A07EE903AB7F9043006EEB3
:1053F800903AF8EEE66AF8EEE77A25EEE67AA7EE56
:10540800867A67EEA57ABDEEC77AE6EE867A17EE5B
:10541800103AB3F5FA7FA8BF4FF4FA739342FDEE42
:10542800E77AB8BF13463B8017EE903AB3F5FA7F98
:10543800A8BF4FF4FA739342B8BF1346BB802D4BF5
:105448001A78540704D52C4B1A689B88138572E088
:1054580021490968C80702D595F8741111B142F0BD
:1054680001021A70254A1278110758BF1A78244980
:105478005CBF22F001021A70224A126812F0040F6F
:1054880002D02148008870B9B5F80C0108B192071C
:1054980009D41E4A1288003218BF01221AB91C48C2
:1054A8000088642838D902220A701A7822F001028A
:1054B8001A7037E0B4090020802900200CFEFFFF95
:1054C800542E00201A0B0020EC2E00209C290020CE
:1054D80014220020C4180020902200204822002016
:1054E8008C2200208829002035FA8E3CDB0FC93F2A
:1054F800000000203C32002070220020E814002028
:105508006C2200201C2E002038320020343200206B
:10551800182E0020642800201B78DB0756BF0223C2
:105528000A700B700AF03EF9304B1B68C01A00284D
:1055380001DB06F045F9D5F88031002B50D02C4816
:1055480009B0BDEC028BBDE8F04F1847012000E020
:1055580002200138C0B20BF00FF9FFF7B1BA94F886
:105568000531972B06D1234B4FF4C872A3F80C21B1
:10557800FFF7A6BAA72B06D11F4A137843F00403F6
:105588001370FFF79DBA0022BB2B079201D10223AB
:1055980003E0B72B04D14FF6FE73ADF81E300AE0D6
:1055A800BE2B01D1022304E0BD2B7FF489AA4FF65C
:1055B800FE73ADF81C30BDF81C20B5F8F03113446B
:1055C800A5F8F031BDF81E20B5F8F2311344A5F85E
:1055D800F2310BF0E3F8002384F80631FFF770BAD4
:1055E80009B0BDEC028BBDE8F08F00BF8822002017
:1055F800400B0020B4090020E81400202DE9F04FEA
:10560800AB4BAC4C1B68AC4E9D6A2DED028B9BB02E
:105618000AF0C8F82368C01A30800AF0C3F8A74B0C
:1056280020601A78012A984601BFA54B32881A8053
:10563800A44A04BF12885A80A34B13A8DB68984772
:105648009DF84C3023B12379002B00F002830AE047
:105658000AF0A8F89D4A23681268EB1A18445032D9
:105668009042E9D3EFE702F005FC08B902F018FC14
:10567800974D95F84A321BB9964B1B88002B4ED094
:10568800954AE1881268B1FBF2F1944A894B127885
:10569800481C80B220811AB3B3F80AB00023854EA3
:1056A8008F4A06F1140E06F10C0932F813C03EF8C1
:1056B800137039F813202EF813C0C7EB0C0712FB30
:1056C8000BF20FFA80FA92FBFAF2174429F81370DA
:1056D8000133042BE3D1814B718100221A7002E05F
:1056E8005A89013A5A816089724A03B2002B4FF0F5
:1056F800000313DDB2F908607A4931F81320083144
:1057080012FB00F231F8131092FBF6F28A1A744970
:1057180021F813200133042BEED100E05381724BA2
:105728006B4E01271F70714B1B6813F0140F71D05B
:10573800684B1B8803F40273002B6BD06C4B6849D1
:105748001B7803F0100303F0FF094BB1694B96F97E
:105758009622B3F900004B8800FB02334B8059E0D6
:10576800E269DFF8BCE192F803C05248624B9278D4
:10577800BEF900E0BCF1000F1FD0B3F906C0CEEBB4
:105788000C0A8AEAEA73A3EBEA7393420BDD5B4BDC
:1057980080F82070F445C3F80090C8BF5242CB8807
:1057A80092B21A4435E090F8203033B3544B80F865
:1057B80020901A68534B1A601FE0B3F90630CEEBFD
:1057C800030383EAE379A9EBE379914509DD022232
:1057D80093FBF2F34C4A80F8207013604B4B1F7018
:1057E8000BE090F8203043B1454B80F820C01A6890
:1057F800444B1A60454B83F800C03E4B606A1B68F7
:10580800028840887344934203DB8342A8BF03465F
:105818001A46CA803E4B1B78B3B1374BB3F9062002
:10582800B6F846329A420FDC294B5B79012B01D03E
:10583800192B02D196F8902232B90E2B04D0082BDE
:105848001EBF274B00229A8096F81072002F6ED048
:10585800204B1B889B076AD02E4BDFED2F7A93EDE8
:10586800080AB4EEE70AF1EE10FA5BD90FF07CF9FA
:10587800D4ED0A7A20EE270A0FF0F2F8B0F5617F2E
:10588800A8BF4FF4617007EE900AB8EEE70ADFEDA3
:10589800237A80EE270A0AF0FCFD07EE907AF8EEEC
:1058A800E77A27EE800A0FF0DBF880B23BE000BF12
:1058B800A8310020440B002036320020DA210020D5
:1058C800DC210020182E00202C0B0020C0220020F4
:1058D800C41800208C220020A0290020080B0020DA
:1058E80080290020500B0020090B00201C2E0020CE
:1058F800E814002004320020182200200032002082
:10590800EC310020F8310020243200200832002039
:1059180002000020D02C00208FC2753CEFB6B044A6
:105928000A0B00200020A44AD3881844D080A34B37
:105938001878002840F08B81A14B1A6812F4002FC8
:10594800994600F084819F4F3B78033B052B1AD87A
:1059580096F8053533B1012B08D109F08FFCC0F159
:105968007F0003E0E06A03689B689847236B94F81C
:1059780034201344B3F5807FA8BF4FF4807383426B
:10598800D4BF236320633B78023B092B00F25A8182
:10599800DFE813F00A0012003E00580158015500D4
:1059A8006600D300F600010100232363A363864B3E
:1059B8001B68E363032344E1834B1A68E36B643396
:1059C8009A4240F23F81402008F056FE002840F0FD
:1059D80039814FF040097D4DA36B7D4EE85C58B18D
:1059E80003F012FF336B013B3363B36BB9F1010969
:1059F80003F10103B363EED1A26B754BAA5C002AD5
:105A080040F020819A634FF0FF32DA63042318E1F3
:105A1800272300936F4B019303F10C020292492054
:105A2800A3F10A025021023303F092FF002840F04C
:105A380009814FF0FF33E363A063072301E1664A5E
:105A480005230021009301910291532002F10803DC
:105A580003F07EFF002840F0F580A0630823F0E003
:105A6800402008F009FE002840F0EC80A36B0C2BC6
:105A780000F2D385DFE803F0070B0E1218292D3149
:105A88003539444E5200554808F06CFF51E05448EF
:105A9800544917E054485549554A48E0554896F83E
:105AA800031596F8042542E095F8582452485C23DB
:105AB8005343EA180C2192F8D42301FB02331D4406
:105AC80095F8D61308F04EFF33E04C48B6F8D010DE
