:020000040800F2
:1000000000A00020A9230108E5CB00083504010861
:10001000E3CB0008E1CB0008DFCB000800000000C4
:10002000000000000000000000000000DDCB000820
:10003000DBCB000800000000D9CB0008D1AA0008E3
:1000400011240108112401081124010811240108B8
:1000500011240108112401081124010811240108A8
:100060001124010811240108112401081124010898
:1000700059A8000849A80008FFB900081124010880
:1000800039A8000829A80008112401081124010832
:10009000C5CC00081124010811240108112401080D
:1000A00035FC000861FC000825FC000871FC000814
:1000B00055FC000845FC0008112401081124010822
:1000C0001124010811240108112401081124010838
:1000D000112401082DFE000821FE000815FE00086D
:1000E000E1AA0008112401084D1401081124010897
:1000F0001124010811240108112401081124010808
:1001000000000000000000000000000011240108B1
:1001100011240108112401081124010811240108E7
:1001200011240108112401081124010811240108D7
:100130001124010811240108000000000000000043
:1001400011240108112401081124010800000000F5
:10015000000000000000000000000000000000009F
:100160000000000000000000112401081124010813
:100170001124010800000000000000000000000041
:08018000000000001124010839
:100188002DE9F04F2DED028BA34EAFB034780096D9
:10019800002C00F0EA80A14B1868002801F0AB861B
:1001A8000AF024FB9E4C20680AF061FD002801F04B
:1001B800A28620689B4C0AF057FD092801D03F28E9
:1001C8004BD14FF000092768974E4D462FB19748FD
:1001D80031683A4614F038FA10B9B14605B93546CF
:1001E800934B10369E42F1D3D5B12E68D9F80080D2
:1001F800236816F803E018F80300704510D15A1C5C
:100208008A4948B92D2B07D8864E4FF0200E01F8A1
:1002180003E03260885403E001F803E02260E7E776
:1002280023680BB14D450FD0824810F0CDFD4D45E8
:1002380007D855F8100B10F0C7FD092010F050FC36
:10024800F5E70EF039FA002723689F42AAD2774BC8
:10025800D85D10F045FC0137F6E72368002B41F024
:10026800CF85042841F02086704807F0CBFE01F0C6
:1002780042BEDFF8E8A1DAF800000AF0F8FC00282E
:100288005DD0DAF800000AF0EFFCDBF8003093F8F4
:1002980048100646002940F08480242840F0E28077
:1002A800012283F84820DBF8002092F8480006284D
:1002B800DFD192F849304D2B00F04B8600F2D58102
:1002C800322B00F06B8600F26B81242B00F0F8854E
:1002D80000F21F81032B00F0778240F2F980052B92
:1002E80040F00B811A200AF0BFF84FF00009524B7A
:1002F80013F8090009F101090AF06DF8B9F10B0FBB
:10030800F5D14FF000094D4B13F8090009F1010927
:100318000AF061F8B9F1080FF5D14FF00009484B20
:1003280013F8090009F101090AF055F8B9F1070FA6
:10033800F5D10AF061F82B68002283F84820D8F834
:1003480000000AF053FA3F4B93F835304BB1385957
:100358000EF0C0F90AF000FD0DF09AFC3A4B3B4A4A
:10036800DA604C34982C01F0C685394FE359E2190C
:10037800002BF6D0DFF8E490364DC9F8003007932B
:1003880000238DF82130DFF8D8802A601423324A00
:100398008DF8203006AB0692C8F80030AB460192C3
:1003A80067E7012904D14D2814BF0022022278E70B
:1003B800022904D13C2814BF0022032271E7032933
:1003C8000CD140284FF0000102D983F848106AE7A1
:1003D80058711971D9719871042262E7042907D1FB
:1003E800997983F8490080EA01029A71052258E751
:1003F80005297FF458AF587919798842987906D930
:1004080070409871481C18710B441E724BE7B0423B
:100418000CBF0622002244E7932C0020EC2B00207E
:10042800082C0020B01100206092010880110020E3
:10043800509401083C950108A4950108B09501085D
:10044800B99501083409002000ED00E00400FA0520
:10045800F82A0020EC14002083AC0008F4140020D3
:10046800F0140020DE490B7803F0040303F0FF0EBC
:10047800002B7FF418AF232EDAF800001BD1009A66
:10048800029101231370D74B019A1860D64B18605C
:10049800986010201873D5485A6083F80DE004332B
:1004A8000360D34810F090FC0EF006F902990B781F
:1004B80043F002030B70CF4B1B681B78B34201BF9C
:1004C800CD4BCE4A1A60CE4B04BFCE4ADA60EAE67C
:1004D800012B00F06D81022B40F0BE86042009F04C
:1004E800C3FF422009F077FF542009F074FF46202B
:1004F80009F071FF4C2000F07FBEC0F08D81222BE7
:1005080040F0AA86C04E502009F0AEFF06F1500A0E
:10051800B9E32A2B00F0FC8419D8262B00F0D684E6
:10052800282B40F09986B84E072009F09DFFB6F8B1
:100538001A0209F09CFFB6F81C0209F098FF96F819
:100548001E0209F048FFB6F8200200F003BE2E2B69
:1005580000F06F85302B00F083852C2B40F07C86D3
:10056800A94E0C2009F080FF96F83C0209F033FFF1
:10057800B6F8480209F07BFFB6F8440209F077FFA5
:10058800B6F8460209F073FF96F83E0209F023FF19
:10059800B6F8500209F06BFFB6F8520200F0DABD67
:1005A800402B00F0028525D8382B00F09E8413D804
:1005B800342B00F08383362B40F04E868A4BDFF8CD
:1005C800489293F83000C0EBC000C0B209F04CFF6D
:1005D80009F1200A00F029BD3B2B00F04D833D2B8B
:1005E80000F042823A2B40F03786042009F03CFFA5
:1005F80000F099BD462B00F059850CD8422B00F02D
:10060800E684452B40F02886132009F02DFF4FF093
:10061800000900F07BBD492B00F031824B2B00F024
:100628007D84472B40F0188609F0CCFE8246842052
:1006380009F01AFF504609F023FF744BDA680AF1F3
:10064800800393428CBFCAEB02094FF080090DF179
:10065800380B0BF0B7F850464A46594605F048F8AB
:100668004FF00009824600F035BD702B00F05C8227
:1006780059D8672B00F0378134D8522B00F04185C8
:1006880018D84F2B00F03085502B40F0E5855E4E92
:10069800042009F0E9FE012009F09DFE96F85105B5
:1006A80009F099FE96F84F0509F095FE96F8500561
:1006B80000F0A2BD652B00F0BF8000F2E680642B3D
:1006C80040F0CA85072009F0CFFEE72009F083FE35
:1006D8004D4B587909F07FFE002009F07CFE04207C
:1006E80000F022BD6C2B00F0838110D8682B00F03D
:1006F8006281692B40F0B085454E3078400000F0AB
:10070800FE0009F0B1FE4FF00009B24663E16E2B1E
:1007180000F07D8100F2B981062009F0A5FE0020D5
:1007280009F0AEFEDCE07C2B00F002851DD8742BAE
:1007380000F0E7820BD8722B00F05083732B40F047
:100748008B85082009F090FE4FF001097BE3772B99
:1007580000F01E83782B00F0D680752B40F07C8546
:100768002F2009F081FE2B4E7EE2A02B00F09A8309
:1007780009D87E2B00F00185C0F0F084962B40F05C
:100788006B850C2059E0F12B00F0EF80FE2B00F078
:100798006583F02B40F060851B4E042009F064FE51
:1007A800B6F8F20109F063FEB6F8F00100F0D2BC29
:1007B800032009F059FE002009F00DFE012009F080
:1007C8000AFE102000F018BD184609F04DFE022060
:1007D80009F001FE052009F0FEFD042000F00CBD23
:1007E800942C0020082C002034090020EC2B002039
:1007F8006C9501089C2B0020FC9F0020EFBEADDE0D
:1008080000ED00E00400FA0598250020B000002063
:10081800942B002017730108062009F025FE4D20AF
:1008280009F0D9FD4F2009F0D6FD542009F0D3FD79
:100838004F2009F0D0FD53E00B2009F015FEAA4B1C
:10084800188809F014FE05F08BFB09F010FEA74B81
:100858001B68C3F3C000C3F38002800040EA420073
:10086800C3F340021043C3F3401240EAC20003F04E
:100878001003184309F0FBFD09F0D2FC09F000FE53
:100888009B4B93F8A40400F0B7BC122009F0ECFDD0
:10089800984B1B88B3F5806F8CBF4FF0080A4FF058
:1008A800010A4FF00009944B53F8290090FBFAF025
:1008B80009F1010980B209F0DAFDB9F1030FF2D1AB
:1008C8008E4E308809F0D3FDB08809F0D0FD30890C
:1008D80009F0CDFD002009F0CAFD002009F0C7FD90
:1008E800002000F037BC102009F0BEFD4FF00009D1
:1008F800834B13F8090009F1010909F06CFDB9F1FE
:10090800100FF5D115E57020794E09F0ADFD4FF0C7
:10091800000AB346B6F8560109F0A9FDB6F8580121
:1009280009F0A5FDB6F85A0109F0A1FD96F85C0199
:1009380009F051FD96F85D0109F04DFD96F85E014C
:1009480009F049FD96F85F0109F045FD0E2303FB08
:100958000AB30AF1010AD3F8600109F091FDBAF16E
:10096800080F06F10E06D5D1E3E47020604E09F0B9
:100978007BFD06F1700A96F8E60009F02CFD96F862
:10098800E70009F028FD96F8E80009F024FD96F83C
:10099800E90009F020FD96F8EA0009F01CFD96F838
:1009A800EB0009F018FD073696F8E50009F013FD8D
:1009B8005645E0D1BDE4102009F056FD4FF000097E
:1009C800504B13F8090009F1010909F004FDB9F1C8
:1009D800100FF5D1ADE49AF800309945BFF4A9ACF1
:1009E800494B33F8190009F042FD09F10109F2E712
:1009F800464E09F039FD308809F039FD708809F054
:100A080036FDB6F904300A2093FBF0F027E0072002
:100A180009F02AFD3E4B1888FF28A8BFFF20C0B266
:100A280009F0D9FC3B4B18684FF6FF794845A8BF39
:100A3800484620EAE07080B209F019FD364B188864
:100A480009F015FD2A4B93F81F22344B186842B160
:100A58000A2358434845A8BF484620EAE07080B2B8
:100A680078E300F30F00FAE7214E022009F0FCFCBE
:100A780096F88B0209F0AFFC96F88A02BCE30220D4
:100A880009F0F2FC264B188864E3264E0B2009F087
:100A9800EBFC3368187809F09EFC3368587809F045
:100AA8009AFC4FF0000BB246DAF800301D4E5B445A
:100AB8000BF1010B187909F08EFCBBF1030FF3D190
:100AC8003368D87909F087FC3368987809F083FC93
:100AD8003368D87809F07FFC3368588909F0C7FC77
:100AE8003368187A88E300BF8E2C00205C1400203D
:100AF8009825002004000020D80D0020BC1E0020EE
:100B080054090020A41500204C250020B41E002004
:100B18007C1100202C1100206E0E0020EC0D00200E
:100B2800F8140020900B00201E2009F09DFCD44BE7
:100B38001A681278022A4FF0000A99467BD1D9F830
:100B48000030DFEDD07A03EB8A0393ED080A20EE3C
:100B5800270A14F021F880F30800C0B209F03BFC22
:100B6800D9F80030DFEDC87A03EB8A0393ED0B0A5E
:100B780020EE270A14F010F880F30800C0B209F03C
:100B88002AFCD9F80030DFEDC17A03EB8A0393ED34
:100B98000E0A20EE270A13F0FFFF80F30800C0B208
:100BA8000AF1010A09F017FCBAF1030FC7D1BAF12B
:100BB800070FD9F8003027D193ED110AB2EE048A55
:100BC80020EE080A13F0E8FF80F30800C0B209F02D
:100BD80002FCD9F8003093ED120A20EE080A13F04F
:100BE800DBFF80F30800C0B209F0F5FBD9F800304C
:100BF80093F84C3000EE103AB8EE400A13F0CCFFF0
:100C080080F30800C0B20DE05344587809F0E3FBC4
:100C1800D9F800305344D87A09F0DDFBD9F8003010
:100C28005344587D0AF1010A09F0D5FBBAF10A0FBD
:100C3800BDD1FFF77EBBD9F800305344587809F08E
:100C4800CAFBD9F800305344D87A09F0C4FBD9F864
:100C5800003053440AF1010A587D09F0BCFBBAF18F
:100C68000A0FE8D1FFF765BB16F8010F00283FF41B
:100C780060AB09F0B0FBF7E7012009F0F5FB804B0A
:100C88001B681878B8E296F8A524814B0C2101FB63
:100C98000233043693F8380009F09DFB96F8A20455
:100CA80009F099FB96F8A30409F095FB96F8A404BB
:100CB80009F091FB5645E6D1FFF73BBB5A20754E2C
:100CC80009F0D2FB06F15A0A96F8FA0409F083FBF8
:100CD80096F8F50409F07FFB96F8F60409F07BFB1B
:100CE80096F8F70409F077FB96F8F80409F073FB17
:100CF800063696F8F30409F06EFB5645E4D1FFF783
:100D080018BB4FF0000A01264FF00009624B1B7810
:100D1800994534DA614B19F803E04FF0000B5C4851
:100D280001900C2300F1300C03FB0BF313F80CC0FB
:100D3800F44507D10344586B13F07DFC84463EB953
:100D4800334607E00BF1010BBBF11F0FE7D113E0AE
:100D5800824411E063450FDA019ACDF80CC00C20EB
:100D680000FB0B200293406BC05C09F034FB029B34
:100D7800DDF80CC00133EDE709F10109C6E7002EE3
:100D88003FF4D7AA5FFA8AF009F06EFB0026BBE7AA
:100D9800414E307809F068FB4FF00009B2469AF8E6
:100DA80000309945BFF4C5AA3C4B19F803E000216F
:100DB80037480C2200F1300C02FB01F313F80C2029
:100DC800724505D1034493F8380009F004FB02E0AA
:100DD80001311F29ECD109F10109E0E72D4E162058
:100DE80009F042FBB6F8440209F041FBB6F8D0001E
:100DF80009F03DFBB6F8D20009F039FBB6F8D4008B
:100E080009F035FBB6F89C0209F031FB002009F027
:100E1800E2FA002009F0DFFA002009F0DCFA96F87F
:100E28001F0209F0D8FA96F8400209F0D4FA002017
:100E380009F0D1FAB6F9EE310A2093FBF0F080B24E
:100E480009F015FB55E05FFA89F009F1010909F08D
:100E5800C2FAB9F1090FF6D1FFF76BBA082009F009
:100E680003FB4FF000090E4B33F8190009F1010993
:100E780009F0FDFAB9F1040FF5D1FFF75ABA00BF2E
:100E8800BC110020000020420000C84200007A4542
:100E98001873010898250020CC140020CD140020D8
:100EA8004C1100200C2009F0DFFAE14B186809F01A
:100EB800E7FAE04B186809F0E3FADF4B186833E10A
:100EC800042009F0D1FADD4B98682DE1DB4E0620AD
:100ED80009F0CAFAB6F8CC0109F0C9FAB6F8D00197
:100EE80009F0C5FAB6F8D40134E1042009F0BCFAD7
:100EF800D24E96F8120209F06EFA96F8160209F028
:100F08006AFA96F8150209F066FA96F8170273E17C
:100F1800012009F0A9FAC94B58796DE1C74E08209C
:100F280009F0A2FA96F89A0209F055FA96F89B0287
:100F380009F051FAB6F89C0209F099FA96F89E025F
:100F480009F049FAB6F8A00209F091FA96F8A20257
:100F580052E1DFF80093BA4E99F8000000EB400028
:100F6800C0B209F081FA4FF0000B99F800309B45A8
:100F780006F10206BFF4DDA916F8020C09F02BFAF7
:100F880016F8010C00EB800000EB800000F2EE2068
:100F980080B209F06CFA0BF1010BE6E7012009F0C9
:100FA80063FAA64B93F8400226E1082009F05CFAA0
:100FB8004FF00009A14B4B4409F1010993F83402A1
:100FC80009F009FAB9F1080FF4D1FFF7B2B99B4E4D
:100FD800102009F049FA707909F0FDF9B06809F0B4
:100FE8004FFA96F83C0209F0F6F9B6F8CC0109F088
:100FF8003EFAB6F8D00109F03AFAB6F8D40109F089
:1010080036FAB6F81A0209F032FAB6F81C02A1E06C
:101018008C4AD25C904200F0F3800C33302BF7D12D
:1010280009F10809D1453FF484A999F8A6020023DB
:10103800EEE74020814E09F017FA06F1400AB6F8AB
:101048005C0309F014FA96F85E0309F0C4F9043653
:1010580096F85B0309F0BFF95645F0D1FFF769B977
:10106800E020764E09F000FA06F1800AB6F8DE02B2
:1010780000F03F0009F0FBF9B6F8DE02C0F3861075
:1010880009F0F5F996F8DC02000909F0A4F996F8D8
:10109800DC0200F00F0009F09EF9043696F8D90238
:1010A80009F099F95645E1D1FFF743B90D2009F048
:1010B800DBF904F019FA644E40F00200C0B209F0FE
:1010C8008AF9308809F0DCF9F06809F0D9F90AF0F2
:1010D800CFFB29E0D145BFF62CA91BF8090009F080
:1010E8007AF909F10109F5E70B2009F0BDF90020AB
:1010F80009F071F9002009F06EF9002009F06BF988
:101108000EE0012009F0B0F9002075E04F4B13F80C
:10111800090009F1010909F05EF9B9F10B0FF5D1E0
:10112800002009F0ADF9002009F0AAF9FFF701B98C
:10113800424E082009F098F9B6F8D80009F097F956
:10114800B6F8DA0009F093F9B6F8DC0009F08FF97F
:10115800B6F8DE0009F08BF9FFF7EBB8374E03203D
:1011680009F082F996F8220209F035F996F8230277
:1011780009F031F996F824023EE0304E032009F0D8
:1011880073F996F8C70109F026F996F8C80109F02D
:1011980022F996F8C9012FE040F29882DB2B00F083
:1011A800978040F23E84F22B00F0A58440F2CD8473
:1011B800F32B40F0038609F0EFF8FF288246244E0F
:1011C80040F044854FF0000906F138004946602296
:1011D80086F8369013F0ECF98DF817909DF81730D3
:1011E80096F89A20DFF868909A4200F2CD840120A0
:1011F80009F03AF999F8360009F0EDF8FFF799B8CF
:1012080009F0E9F8B9F8A80209F031F999F8AA0241
:1012180009F0E1F899F8AB0209F0DDF899F8AD02A8
:1012280009F0D9F899F8AC0209F0D5F8F8E600BF4A
:10123800ACF7FF1FB0F7FF1FB4F7FF1F982500207A
:10124800EC270020A02B0020B0000020A495010866
:1012580034090020942B00204E2B3ED109F09CF835
:101268001128824602D90FF017FC31E0CF4E09F061
:1012780093F80AF5947A06EB4A03B146187109F017
:1012880097F840F2ED23984205DD40F6CA039842EC
:10129800A8BF184601E040F2EE2009EB4A09A0F287
:1012A800EE20192390FBF3F089F8050010E0C0F058
:1012B8009783D02B00F09F83D22B40F09D85BC4BA9
:1012C8001B7803F0040303F0FF09002B00F09F8351
:1012D800002009F0C9F8FFF72CB800F2EF81352B90
:1012E80024D109F059F80E288246BCD809F054F8E0
:1012F8000328B8D8AD4B4FF0060909FB0A3989F81D
:10130800FA0409F049F889F8F50409F045F889F86C
:10131800F60409F041F889F8F70409F03DF889F86E
:10132800F80409F039F889F8F904D1E700F2E18006
:101338002B2B04D109F030F89C4B5871C8E76ED8B4
:10134800252B07D1994B00229A6009F03BF80CF045
:1013580097FCBDE73ED8232B40F04E8509F01CF8DA
:10136800132881463FF67FAF09F016F8002291490D
:101378000C23534301EB030E9EF838E0864525D134
:101388008A4E0B4409F5947906EB890993F83030B5
:1013980089F8053009F000F889F8060008F0FCFF24
:1013A80089F8070008F0F8FF834B84491A6889F820
:1013B800080006F1D0030B60814B00201A600FF083
:1013C8002FFA804B80F00100187081E701321F2A44
:1013D800CDD148E7272B0DD108F0EAFF734EC6F8A8
:1013E800CC0108F0E5FFC6F8D00108F0E1FFC6F827
:1013F800D4016DE7292B40F0FF8408F0D9FF6B4E2C
:10140800A6F81A0208F0D4FFA6F81C0208F0C4FFD8
:1014180086F81E0208F0CCFFA6F8200258E72F2B0A
:1014280000F0D48425D82D2B40F0E68408F0B4FFD2
:101438005E4E86F83C0208F0BBFFA6F8480208F0AA
:10144800B7FFA6F8440208F0B3FFA6F8460208F072
:10145800A3FF2B6886F83E025B79082B7FF638AF2E
:1014680008F0A6FFA6F8500208F0A2FFA6F852025C
:101478002EE7312B34D108F08FFF1F2881463FF625
:10148800F2AE2B685B79082B7FF4EDAE08F090FF85
:10149800464B09F1B60903EB890900F03F00A9F8AA
:1014A800060008F085FFB9F80630800100F4FE5008
:1014B8001843A9F8060008F06FFF000189F8040036
:1014C80008F06AFF99F8043000F00F00184389F813
:1014D800040008F061FF89F805000AF017F9F7E63B
:1014E800332B40F0898408F057FF304B83F84002D3
:1014F800EEE6412B0DD14FF0000908F04DFF2B4BC4
:101508004B4409F10109B9F1080F83F83402F4D109
:10151800DEE67ED8392B11D108F03EFF234E86F83F
:10152800120208F039FF86F8160208F035FF86F82F
:10153800150208F031FF86F81702C9E644D8372BA0
:1015480040F05A8453794FF00709B3FBF9F2C2EB24
:10155800C2029A1A12F0FF0F7FF485AEB3FBF9F9B5
:1015680009F1FF395FFA89F9B9F1FF0F3FF4B0AE1D
:1015780008F012FF5FFA80FB4FFA8BF009F006F8CB
:10158800064600283FF46FAE80F800B008F010FF60
:10159800708008F001FF307108F0FEFE707108F0ED
:1015A800FBFEF07108F0F8FEB071D9E7982500202D
:1015B800942C002018730108BC110020940B002003
:1015C800980B0020020000203C2B15D1B84ED6F80D
:1015D80000A09AF800B008F0DFFE8AF8000033682F
:1015E800187809F09BFC33681B785B453FF470AEB4
:1015F800002008F04EFF6BE63E2B40F0FD8308F01C
:10160800CBFEAC4E86F88B0208F0C6FE86F88A023E
:101618005EE6482B02D104F043F859E62CD8432B58
:1016280022D108F0B9FEA34E0023B360707108F010
:10163800C9FE0CF025FB08F0AFFE86F83C0208F066
:10164800B7FEC6F8CC0108F0B3FEC6F8D00108F022
:10165800AFFEC6F8D40108F0ABFEA6F81A0208F0EF
:10166800A7FEA6F81C0233E6442B40F0C583924B34
:10167800012283F835202BE64A2B02D108F098FE88
:10168800B7E74C2B40F0B88308F086FE894E86F801
:101698009A0208F081FE86F89B0208F089FEA6F8F7
:1016A8009C0208F079FE86F89E0208F081FEA6F8F2
:1016B800A00208F071FE86F8A20209E6D32B7FF497
:1016C8006BAD08F075FE7C4B588601E6CD2B09D131
:1016D8007A4B1B785B073FF5FBAD794B4FF4C8722B
:1016E8001A80F5E500F24481C82B2BD192F80590B9
:1016F8004FEA5909B9F1120F3FF6B5AD4FF0000A9C
:10170800CA4507D208F054FE0EAB23F81A000AF1B6
:10171800010AF5E74A4600234B4507DA0EA931F8D6
:101728001300684921F813000133F5E7122A05D0A0
:10173800644B002123F812100132F7E7624B0122B3
:101748001A70C5E516D8512B40F056835A4B93F8BA
:101758003430012B3FF6BCAD08F01EFE554E86F81E
:10176800510508F019FE86F84F0508F015FE86F8B1
:101778005005ADE5CA2B40F0AF804D4B1A68127882
:10178800022A4FF0000A994674D1D9F8006008F08F
:1017980003FE07EE900A9FED4D7AF8EE677A06EBA6
:1017A8008A0BC7EE877AD9F80060CBED087A08F083
:1017B800F3FD07EE900A9FED467AF8EE677A06EB9E
:1017C8008A0BC7EE877AD9F80060CBED0B7A08F060
:1017D800E3FD07EE900A9FED3F7AF8EE677A06EB95
:1017E8008A0BC7EE877A0AF1010ABAF1030FCBED2B
:1017F8000E7ACAD1BAF1070FD9F800601ED108F0E5
:10180800CBFD07EE900AF8EE677AB2EE048AC7EECF
:10181800887AC6ED117AD9F8006008F0BDFD07EEA8
:10182800900AF8EE677AC7EE887AC6ED127AD9F888
:10183800006008F0B1FD86F84C0015E008F0ACFD3A
:1018480006EB0A0B8BF80100D9F8006008F0A4FD3C
:1018580006EB0A0BD9F800608BF80B0008F09CFD2A
:1018680006EB0A0B8BF815000AF1010ABAF10A0F08
:10187800C0D12DE5D9F8006008F08EFD06EB0A0B03
:101888008BF80100D9F8006008F086FD06EB0A0B1A
:10189800D9F800608BF80B0008F07EFD06EB0A0B08
:1018A8000AF1010ABAF10A0F8BF81500E2D10FE527
:1018B800BC1100209825002034090020942C002019
:1018C800480B00204C1300208520002000002042F7
:1018D8000000C84200007A45CC2B40F08D82537935
:1018E800092B7FF6C0ACD24ED6F800A008F054FD04
:1018F8008AF80000D6F800A008F04EFD8AF801002A
:1019080008F04AFD33686428A8BF6420187108F0FD
:1019180043FD33686428A8BF6420587108F03CFD73
:101928003368FF28A8BFFF20987108F035FDD6F866
:1019380000A0642828BF64208AF8070008F02CFD5E
:101948008AF80200D6F800A008F026FD8AF80300FD
:10195800D6F800A008F02CFD2B68AAF80A005B79DD
:101968000A2B7FF6B5AC366808F016FD3072AFE486
:10197800CF2B7FF49CAC08F01BFD6FF4AF614318CC
:101988009BB2AC4EC62B98BFA6F8440208F010FDD7
:10199800A6F8D00008F00CFDA6F8D20008F008FD63
:1019A800A6F8D40008F004FDA6F89C0208F0F4FCA0
:1019B80008F0F2FC08F0F0FC08F0EEFC86F81F02D4
:1019C80008F0EAFC86F8400208F0E6FC08F0F0FCB3
:1019D80000EB80004000A6F8EE0108F0DDFC9EE573
:1019E800954B1B785E073FF573AC944A137843F028
:1019F800040313706CE4904B1B785A073FF568ACEE
:101A080007F0D6FA0CF08CF907F048F960E408F012
:101A1800C3FC884B012883F8A404F3D983F8A49461
:101A2800F0E7D62B0CD14FF0000908F0C1FC844B2D
:101A380023F8190009F10109B9F1080FF5D147E4B4
:101A480032D8D42B40F0D88153790F2B7FF40BACCC
:101A580008F0A2FC072882463FF605AC08F0A8FC6F
:101A6800744B4FF00E0909FB0A39A9F8560108F022
:101A78009FFCA9F8580108F09BFCA9F85A0108F046
:101A88008BFC89F85C0108F087FC89F85D0108F097
:101A980083FC89F85E0108F07FFC89F85F0108F093
:101AA80091FCC9F8600113E4D92B12D108F080FC2D
:101AB800604EA6F8D80008F07BFCA6F8DA0008F01B
:101AC80077FCA6F8DC0008F073FCA6F8DE00FFF748
:101AD800FFBBDA2B40F0908108F05EFC554E86F88B
:101AE800220208F059FC86F8230208F055FC86F813
:101AF8002402FFF7EDBB08F04FFC0F2881463FF6A4
:101B0800B2AB08F049FC4F4BC9EBC909994489F8B5
:101B1800060008F041FC89F8070008F03DFC89F848
:101B2800080008F039FC89F8090008F035FC89F844
:101B38000A0008F031FC89F80B0008F02DFC89F840
:101B48000C0009F049F9FFF7C3BBDC2B0ED108F0F4
:101B580023FC384E86F8C70108F01EFC86F8C80139
:101B680008F01AFC86F8C901FFF7B2BBEF2B40F06A
:101B7800438108F01DFC2F4EA6F8F20108F018FC6E
:101B8800A6F8F001FFF7A4BB9DF8173009EBC303D3
:101B980093F89D30D90742D59DF8173009EBC30358
:101BA80093F89C20284B33F91230002B37DD9DF831
:101BB800173099F836A009EBC3034FEACA01D3F8E6
:101BC800A03058689DF8173009EB010E09EBC309DE
:101BD800CEF83800D9F8A0301A89AEF83E2092B273
:101BE8004FF0000E012303FA0EF3134005D10EF156
:101BF800010EBEF1100FF5D100E0734631440AF131
:101C0800010A8B8704238DF83A300EA90123ADF819
:101C180038208DF83B3004F08DF886F836A09DF812
:101C280017300133DBB28DF81730FFF7D7BA00BF92
:101C3800900B002098250020942C0020700E002086
:101C4800F02B002078260020A415002096F83630C6
:101C58009842BFF408AB002008F006FC08F0CCFB63
:101C6800D8F8000008F0C2FD2B6818680CF032FDA7
:101C7800D9F8000008F070FB08F040FF72B6DFF8F2
:101C8800849280224026A9F828204FF0010BA9F859
:101C980028604846ADF838200EA904228DF83A206D
:101CA8008DF83BB004F046F848460EA98DF83AB0D6
:101CB8008DF83BB0ADF8386004F03CF8904A4FEA34
:101CC800CA0A5244916BB2F83CE00868D28F0EFA07
:101CD8000BFE0BFA0EFB4BEA000008608A61C9F89C
:101CE8001860B9F810301A06FBD4DFF814B2DFF820
:101CF8003C920BEB0A030122986BB3F83CE00168B5
:101D08004FEA4E0E02FA0EF20A4302609A6BD98F1E
:101D18007C4B118540221A85D9F80030B9F8042087
:101D28009A6140F605534A46DFF8D8C1BCF810E07E
:101D38001EF0800F03D1002BF6D0013BF4E7816140
:101D4800ADF8381004218DF83A1001218DF83B10B8
:101D58000EA90392CDF808C0019303F0EBFF019B95
:101D6800DDF808C0039ABBB1D9F80000B9F804E05F
:101D780064490B8A1B06B8D50BEB0A039A6BDB8FF9
:101D8800128A13424FF0400315BF8B610B85C0F8D0
:101D980018E0A0F828E0EBE74023CCF818301368E7
:101DA80092889A6162B60A2008F081FD0EF050FD13
:101DB8002B68F32283F84920FFF78ABAFA2B1BD144
:101DC800514B1B7858077FF51DAE15E0DFF8609181
:101DD80009F1400A08F0ECFAA9F85C0308F0DCFA0B
:101DE80089F85E0308F0D8FA09F1040989F85B0359
:101DF800D145EFD1FFF76CBA0EF04EFEFEF799BA57
:101E08000C2803D141480EF0DFFF49E00A2801D031
:101E18000D2864D13E4D3F480EF0D6FF28462321B9
:101E280012F0FBFB08B1401B206023687BB35A1EED
:101E3800A95C202901D11346F8E7354A236000211F
:101E4800D154354B354FD3F80090D7F800A0304E19
:101E5800504612F0F0FB05462A463046514612F02D
:101E6800F3FB2F4A20B9735D4B445B78580703D0C6
:101E780010379742E9D306E0974204D2681CFB6802
:101E88003044984702E027480EF09EFF0023204880
:101E980023600021302212F08BFB009B1B7853B388
:101EA8000CF00AFCFEF77EB90C28ABD07F2804D1D1
:101EB800FEF778B92F2B3EF675A9A0F12002D2B211
:101EC8005E2A3EF66FA913B920283EF46BA95A1C66
:101ED80022600F4AD0540EF003FEFEF763B97F2844
:101EE800E8D1013B0A4A104823600021D1540EF082
:101EF8006BFFFEF757B92FB0BDEC028BBDE8F08F32
:101F08003409002000040048942C00204195010861
:101F180080110020029B0108C8030020609201087C
:101F2800509401084C95010868950108A8140020F0
:101F3800982500202DE9F04FA34FA44C3A6802F5EC
:101F48009C432DED028B20332360A14B1E788BB070
:101F5800D6B1A04909688A4240F20881013E1E7044
:101F680004E1DFF890829C48D8F80030072D98BF2C
:101F7800595D9A4B88BF29461B689847032D09D994
:101F880004EB45050136A88008F0B6F8F5B285429D
:101F9800E7D320E0D8F8002005F1100302EB830313
:101FA8009988DA880028EBD04FF47A73401A58439E
:101FB800531A90FBF3F040F6C90300F57A70984283
:101FC80005DC40F2EE239842B8BF184601E040F61F
:101FD800CA0080B2D4E7824B824E1B68D6F80080D4
:101FE80042F2010A03EA0A0ABAFA8AFA4FEA5A1AC4
:101FF8007D4BBAF1000F05D194F828201A707B4A5E
:10200800517811701B782BB1784B93F8009089F0B8
:10201800010900E099460F23DFF8F0B184F8293070
:10202800002508F069F8854267DA6B00B9F1000FFE
:1020380003D06F4A32F8150000E048466D4ADFF8D1
:10204800D0C111688A8B82424FEA850E6A4A02D84B
:10205800C98B81421CD25CF80E005C49804501D2D4
:10206800D05A19E0E8B205920293009108F05CF8A2
:10207800032D029B059A0FDC00994FF0010E91F891
:1020880029C00EFA05FE2CEA0E0E81F829E003E0BD
:1020980008F596714CF80E10BAF1000F28D194F893
:1020A800BC100322B1FBF2F202EB42028A1A03EBE4
:1020B800050E5EFA82F204EB4202508594F8BD20C8
:1020C8002AB9022913D9414A012182F8BD10BBF867
:1020D80000203BF8020C1044BBF802201044474A89
:1020E80080B2D05200B2032290FBF2F080B2424A92
:1020F800D05201350BF1060B93E794F82920404B99
:10210800A2F10F014A424A4184F8D6206AB13D4AF9
:102118001268520109D43268D9689A60521AC82ADA
:102128001FD9012283F821201BE0304A0121517078
:10213800117032689968DA605B68521A9A4282BFF5
:102148002F4B002283F82120002507F0D5FF854278
:1021580007DAE8B207F0E8FF274B23F81500013546
:10216800F3E794F8BC30013384F8BC301C4B1A6890
:1021780012F4805F984605D0224B1B68DB0701D418
:102188000EF020F91B4B39681F683B7B002B41D0B0
:10219800013B1948BA7B30F813301AB1C3F53B63D9
:1021A80008339BB21BB2A3F57A73B3F57A7FA8BF45
:1021B8004FF47A7323EAE37307EE903A9FED127AAD
:1021C800F8EEE77A5FE000BF702C00203C0A0020A0
:1021D8007C14002078140020942B00202C0100206F
:1021E8007414002054140020141000200000002053
:1021F800400A0020701400204C250020FA0A002014
:1022080080140020C814002000007A44680A0020C6
:10221800B00A0020D8F80020150440D5D4F8D820FA
:10222800AE4E8A1A002A3ADB01F59C422032C6F8E3
:10223800D820AB4A5079AB4A32F81050A8B27D7B0F
:1022480090FBF5F596F8DC00013000F00F0286F8F7
:10225800DC20324482F8DD501A46A348185C01336A
:102268000244102B92B2F8D112B292FBF3F31BB2D4
:10227800642BA8BF642323EAE37307EE903A9FED2B
:102288009B7AF8EEE77AC7EE877A994A9FED997AB2
:1022980067EE877AFCEEE77A17EE903A1380D8F863
:1022A8000030954F13F4807F00F0FA80934BDFF8ED
:1022B8005092994205D999F8022012B9012289F859
:1022C800022099F80220002A00F0EA808C4A8D4901
:1022D80092F821503A78681E454245410868C0F393
:1022E8008063C2F3800B00938A462DB912F0080F61
:1022F8000CBF0026022600E0002699F82020052AB7
:1023080000F2CA80DFE802F0034C608594B1BBF1AB
:10231800000F38D0D4F8F000B4F8F41008F022FA1E
:10232800012809D17849794A09681268C98864205E
:1023380000FB0122C9F81020009B5BB1724A1268A9
:1023480012793AB10AF004FC032289F820204FF4EC
:102358007A7236E0002D40F09F806C4AD9F8101050
:102368001068674A88420AD902920AF0F1FB029A79
:10237800032182F8201040F6B831D161BDE7012170
:1023880082F82010B9E7009B4FF4806013B10BF07E
:102398005FFC01E00BF04CFC0022C9F810207BE048
:1023A800002D57D1584A1268127A012A02D00AF031
:1023B800CFFBA2E70AF0CCFB032289F8202040F6E5
:1023C800B832C9F81C2098E725B1052289F82020E1
:1023D800012000E02846BBF1000F0BD0D4F8F02014
:1023E800118A4B4A11805180918047490968498870
:1023F800D1800326454A1168D9F81420914202D8A1
:10240800BBF1000F45D147F23052C9F81C20032216
:1024180021E03A7842F002023A700DF0D3FF3B4ACD
:10242800D9F81C1012680A44C9F81820042212E0CE
:10243800364A9DB11168D9F8182091422CD9354AED
:1024480092781AB9DAF80020D10725D43A7822F020
:1024580002023A70052289F820204EE71268D9F85E
:102468001C100A44C9F8182016E02749274A0968A9
:102478001268C988642000FB0122C9F810204FF4B3
:102488008060002289F8202089F803200BF0D0FB17
:1024980033E700287FF431AF16B1304608F046FB29
:1024A8001D4DB5F8DE1005F50D7008F05BF9824694
:1024B8001748B5F84432B0F90220059003F10B0132
:1024C80091422BDB0B3B934228DCB0F90020914270
:1024D80024DB9342CCBF0023012320E03C0A0020E8
:1024E8003011002040110020190B00200000C842C4
:1024F8006E0E002000C07F44942C0020404B4C00FE
:1025080080140020C81400206420002054140020E7
:102518004C25002000000020982500200023BAF157
:10252800000F30D1904A1268120106D58F4AD2782E
:102538009AB93A78560710D528E08D4B8D49002274
:102548001A605A609A608C4BC1F800A00122C1F849
:1025580004A0C1F808A01A700BE0854A854800213C
:10256800116051609160844A002303604360836076
:102578001370824B00221A605A600023C4F8F830A6
:10258800C4F8FC3004E07C4A002313707C4A1370C2
:102598003B78580736D5D8F80030D90632D5794B6C
:1025A8001B78DA062ED4784B9B7893B195F88B324A
:1025B800BAF1000F15D17BB1744B1A68D4F8003109
:1025C8009B1A002B08DA0DF0FDFE714B83F804A16D
:1025D80018E0BAF1000F0DD1102008F0A7FA012376
:1025E8000EE03BB1694A12684FF47A7101FB03238C
:1025F800C4F8003194F8043123B108F07FFA0023BD
:1026080084F80431002295F88A12B5F84662B5F8C4
:1026180048E21346059830F912009B08B042C4BF3F
:1026280063F07F03DBB201327045B8BF43F040036B
:10263800042AEFD194F8052155489A4205D190F81B
:102648000621F92A04D8013200E0002280F8062188
:1026580084F805314C4B4E4A9878434E994628BB2E
:102668003368DB070AD582F80701BAF1000F1DD1DC
:102678003B78DA071AD50DF0EDFC17E03B785B07DD
:1026880014D5444B1B788BB1384BDB7873B992F86F
:1026980007310133DBB2032B82F8073106D911B1B8
:1026A8000DF090FE02E0BAF1000FF9D094F806316F
:1026B800DFF8DCA0142B40F0838099F802308BB14E
:1026C8009AF805315F2B0DD13B7803F0040303F032
:1026D800FF0B13B10DF076FE04E00B2008F026FA8C
:1026E8008AF806B13B7803F0040303F0FF01002BDE
:1026F80066D194F80531264A572B0DD1264B1A6816
:102708004FF47A73B3FBF2F3C3EB431203EB820388
:10271800224ADB00138053E0D8F80000400717D5A1
:102728005A2B15D192F808312BB1012382F80811E0
:1027380082F8093144E092F80A3183F0010382F803
:102748000A310BB10C2000E00D2008F0EFF937E05A
:102758005D2B00F055865B2B00F054865E2B1FD155
:10276800032000F050BE00BFC814002080140020D1
:10277800A81D00209C1D0020C81E0020801F0020CE
:10278800CC1E0020700E00200000002054140020F1
:102798003C0A002014100020F81400208C2C002083
:1027A800562B01D10BF068FB99F80230002B00F092
:1027B800308694F805316F2B40F02B860DF04AFCDB
:1027C800D8F80030580736D594F80A31B44A93B18E
:1027D8003B7859070FD5059BB3F90610B5F8463273
:1027E800994208DD336813F0010302BF3221A2F8D1
:1027F8001C1182F80A313368DB030DD594F81E21C9
:10280800A74B2AB993F8082112B93222A3F81C2140
:10281800012384F81E310EE094F80831A04A53B120
:102828003B7803F0040303F0FF0123B9012382F886
:10283800081182F80931DFF88C920023336009F11E
:10284800500A99F8002099F8013019F8010C9A42B9
:102858000BD2494607F04CFF38B119F8022C012376
:1028680003FA02F233681343336009F10409D145CE
:10287800E7D18C4B1B782BB18B4E3368980700F14E
:102888002E8325E3894E06F15A093278737816F8B3
:10289800010C9A4225D2314607F02AFF08B3B378D3
:1028A80096F804E0824A96F803A07D480C21013B83
:1028B80001FB0E4103EB43031344D1F824219A4250
:1028C8000FD0C1F82431002390F85021C1F82831E5
:1028D800012303FA0EF322EA030381F820A180F80A
:1028E800503106364E45D0D1724BD4F854611B682E
:1028F8000693714B1B780793704B02930023009348
:10290800029B1A68002A00F0D88292F800A0BAF157
:10291800000F00F0D2825B680699CB1A002B0CDB03
:1029280001F5FA7302994B60009901238B4094F8E2
:10293800501121EA030384F85031079B002B00F063
:10294800BC82029B517813F8043C0433DBB20029A3
:1029580040F07D82059931F91310594BB3F8443290
:1029680003F1C800814202DD92F802B015E0C83BCD
:10297800994203DA9178C1F1000B0EE0009A012325
:10298800934094F8502122EA030384F85031069BBF
:10299800029A03F5FA7353608FE294F85031009A63
:1029A8001341D90700F18982BBF1000FCCBF022087
:1029B800012008F0F5F80AF1FF33DFF8E490132B53
:1029C80000F27382DFE813F01400250037004B0093
:1029D80064008600E9004C01B301E10111027102B3
:1029E8004B005A008600E9004C01BB001E01830120
:1029F80096F80090D944B9F1FA0FA8BF4FF0FA0938
:102A080029EAE979304686F8009007F057FE012058
:102A18000FE096F80190D944B9F1640FA8BF4FF0C0
:102A2800640929EAE979304686F8019007F046FEFC
:102A380002204946D6E196F803A0DA44BAF1640FB9
:102A4800A8BF4FF0640A2AEAEA7A86F803A030465B
:102A5800D9F8581107F0D8FD03205146C2E1717921
:102A680059446429A8BF642121EAE17171710D20DC
:102A780007F0A8FEBAF10D0F00F01782317959441A
:102A88006429A8BF642121EAE17131710E20A9E10E
:102A9800B179594481F30801B1710520A2E100BF61
:102AA8003C0A0020932C0020C81400208E2A002005
:102AB800BC7401085414002014100020600B00207E
:102AC800982500203F2A002000007A440000C842D0
:102AD80000000000D9F85C311A78022A20D107EEEC
:102AE80090BAB8EEE70A5FED077A93ED097A80EEBF
:102AF800270A30EE070AB5EEC00AF1EE10FA07D43D
:102B0800B4EE670AF1EE10FAC8BFB0EE670A01E04A
:102B18001FED110A83ED090A0F2007F03DFE0AE0B8
:102B280099785944C829A8BFC82121EAE171997048
:102B38000F2007F047FEBAF10F0F00F0B681D9F861
:102B48005C311A78022A1ED107EE90BAB8EEE78AED
:102B58005FED227A93ED080A88EE278A38EE000A9C
:102B6800B5EEC00AF1EE10FA07D4B4EE670AF1EE3A
:102B780010FAC8BFB0EE670A01E01FED2B0A83ED1B
:102B8800080A122056E159785944C829A8BFC82113
:102B980021EAE1715970122024E1D9F85C311A78E0
:102BA800022A20D107EE90BAB8EEE70A5FED397A2B
:102BB80093ED0C7A80EE270A30EE070AB5EEC00ACC
:102BC800F1EE10FA07D4B4EE670AF1EE10FAC8BFB6
:102BD800B0EE670A01E01FED420A83ED0C0A1020EF
:102BE80007F0DAFD0AE0197B5944C829A8BFC821B3
:102BF80021EAE1711973102007F0E4FDBAF1100F12
:102C080000F05381D9F85C311A78022A1ED107EEF8
:102C180090BAB8EEE78A5FED537A93ED0B0A88EE27
:102C2800278A38EE000AB5EEC00AF1EE10FA07D48A
:102C3800B4EE670AF1EE10FAC8BFB0EE670A01E019
:102C48001FED5D0A83ED0B0A1320F3E0D97A59448E
:102C5800C829A8BFC82121EAE171D9721320C1E0AF
:102C6800D9F85C311A78022A22D107EE90BA1FED02
:102C78006A0AF8EEE77A87EE800AD3ED0F7A30EE2B
:102C8800270AB5EEC00AF1EE10FA09D45FED717AA1
:102C9800B4EE670AF1EE10FAC8BFB0EE670A01E0B9
:102CA8001FED750A83ED0F0A112007F075FD0AE084
:102CB800997D5944C829A8BFC82121EAE1719975AD
:102CC800112007F07FFDBAF1110F00F0EE80D9F85E
:102CD8005C311A78022A20D107EE90BA1FED860AD5
:102CE800B8EEE78A88EE008A93ED0E0A38EE000AFD
:102CF800B5EEC00AF1EE10FA09D45FED8C7AB4EEA5
:102D0800670AF1EE10FAC8BFB0EE670A01E01FEDDE
:102D1800900A83ED0E0A14208CE0597D5944C82985
:102D2800A8BFC82121EAE171597514205AE0D9F8E1
:102D38005C311A78022A1ED107EE90BAB8EEE78AFB
:102D48005FED9E7A93ED0A0A88EE278A38EE000A2C
:102D5800B5EEC00AF1EE10FA07D4B4EE670AF1EE48
:102D680010FAC8BFB0EE670A01E01FEDA70A83EDAD
:102D78000A0A09205EE0D9785944C829A8BFC821A1
:102D880021EAE171D97009202CE0D9F85C311A7870
:102D9800022A1ED107EE90BAB8EEE78A5FEDB57A3F
:102DA80093ED0D0A88EE278A38EE000AB5EEC00AC0
:102DB800F1EE10FA07D4B4EE670AF1EE10FAC8BFC4
:102DC800B0EE670A01E01FEDBE0A83ED0D0A0A2086
:102DD80030E0597B5944C829A8BFC82121EAE171CC
:102DE80059730A2007F0EEFC5FE0D9F85C311A78D5
:102DF800022A22D107EE90BA1FEDCD0AB8EEE78A73
:102E080088EE008A93ED100A38EE000AB5EEC00A83
:102E1800F1EE10FA09D45FEDD37AB4EE670AF1EE59
:102E280010FAC8BFB0EE670A01E01FEDD70A83EDBC
:102E3800100A0B2007F0B0FC37E0D97D5944C829A7
:102E4800A8BFC82121EAE171D9750B20CAE7012979
:102E58002BD19078059A32F91390B9F5617F05DB8B
:102E680040F633039945A8BF994601E04FF46179CC
:102E7800BAF10C0F19D14FF4966393FBF0F0B44BF1
:102E88001B78A9F5617999FBF0F95FFA89F94B4547
:102E98000BD048460AF026FF5046494607F092FCF8
:102EA80009F10100C0B207F07BFE009A01239340AC
:102EB80094F85021134384F85031009B0133009358
:102EC800029B0C330293009B042B7FF419ADD3E4CF
:102ED800D8F80030DA050FD59E4BDB7863B19E4BEE
:102EE8001B689B0708D59D4B1B8813F0010908D167
:102EF80001200AF0ADFE04E001200AF099FE01234A
:102F080000E00023326850070BD553B101200AF0C6
:102F18008FFE924B1B88990706D402200AF098FE70
:102F280002E002200AF084FE33681A054FF480702C
:102F380002D50AF08DFE01E00AF07AFE884B5A7934
:102F4800082A994601D00E2A02D140200AF070FEC4
:102F5800D8F800305B0518D599F8C8321BB93B780A
:102F680013F0040F02E0336813F4002F09D07D4BEF
:102F780000221A703C200DF05BFD30B107F0ECF92F
:102F8800F8E708F009F80DF063FC012384F86031D4
:102F9800D4F854E1059BBEF80A10B3F906208A421A
:102FA8000FDBB2F5FA6F9EF80740BDBF531A6343B3
:102FB800A1F5FA64C4F16404BCBF93FBF4F464346F
:102FC80000E0642495F82232009395F823320293A6
:102FD80095F9D831B5F844829BB20593624B1E68C7
:102FE8000021624B33F91190C8EB090303F2F31582
:102FF80040F2E63085424FEA410A03D8002BB8BFB9
:103008005B4201E04FF4FA7302294FF0640029D0C3
:10301800009D1DB1AB42CCBF5B1B0023544D93FBFD
:10302800F0F76FF0630B35F817C00BFB073B013760
:1030380035F917500FFA8CF7ED1B4E4F05FB0BF5C2
:1030480095FBF0F5654427F80A500EEB01052D793C
:103058006B43494D93FBF5F364339BB2634393FB96
:10306800F0F02CE0029D1DB1AB42CCBF5B1B0023EE
:10307800424D93FBF0F06FF0630C0CFB003B05EB4B
:10308800400705EB4000B7F96271B0F96401C01B55
:1030980000FB0BFBBDF814009BFBFCFBC7EB0B0B09
:1030A8001BFB00FB3348A0F804B09EF80600002B79
:1030B800B8BF5B424343304893FBF0F06430737809
:1030C8002F4F6425434393FBF5F37B542D4FF37A3D
:1030D800434393FBF5F37B54737D264F58432A4BA8
:1030E80090FBF5F002295854284B09D1C1459D7031
:1030F80009DB274B1A4C186810F480500FD11CE0DC
:10310800C1455C5404DA37F80A305B4227F80A30C4
:103118000131032906F101067FF463AFE9E7B2F54F
:103128007A7F05DBB2F5FA6FA8BF4FF4FA6201E0C7
:103138004FF47A72A2F57A7235E0B4F846128A42F0
:1031480028DBB2F5FA6FA8BF4FF4FA6223E000BF9C
:103158006C140020801400205C140020C41400208B
:1031680098250020992B0020BC1100204C25002018
:10317800181500208C1D00200CFEFFFF3C0A0020C3
:10318800881F0020AC0B0020981F0020C91E0020BB
:10319800741400200A46521A4FF47A735A43C1F540
:1031A800FA61B2FBF1F2DFF864E36FF063066423BF
:1031B80092FBF3F53EF8151006FB052201350EB219
:1031C8003EF91550AD1B6A4392FBF3F30B449BB2D7
:1031D800FB80C8B1BB4A1268960015D5BA4AD278A6
:1031E80092B9B4F84412A3F57A72C1F5FA6000B244
:1031F80012B24FF47A73120392FBF3F202FB00F35C
:10320800B24A01EB2333D380B14B1D8805F040054A
:10321800ADB2002D3CD0AF4BDFEDAF7AB3F904303F
:103228009FEDAE0A0A2293FBF2F3AD4AB2F874217D
:103238009B1A1BB208EE103AB8EEC88A28EE278A05
:1032480038EE000A0AF093FCF0EE408AB0EE480A25
:103258000AF08DFCB7F9023006EE903AB7F9003063
:10326800F8EEE66A07EE903A20EE667AF8EEE77A2C
:10327800A7EEA87A67EE807ABDEEC77AE6EEA87A5E
:1032880017EE103AFDEEE77A3B8017EE903A7B8016
:1032980094F84B32002B6AD0002D68D107EE903A93
:1032A8009FED8D7A894CF8EEE77AA5F5FA7567EE09
:1032B800877A17EE900A0EF03BFA41EC100B41ECBE
:1032C800180B11F085FBB4F900005BEC10AB0EF0A5
:1032D8001DFAB0EE480AF0EE680A06460F4611F0ED
:1032E800CBFBB4F904008DED000B0EF00FFA32465B
:1032F800804689463B46504659460EF06DFA42468E
:103308004B46CDE90201DDE900010EF065FA0246FF
:103318000B46DDE902010EF0ABF80EF06FFCB0F5DC
:10332800FA7FA8BF4FF4FA70A842B8BF28464246B1
:103338004B462080594650460EF04EFA324680469B
:1033480089463B46DDE900010EF046FA02460B4687
:10335800404649460EF08EF80EF050FCB0F5FA7F64
:10336800A8BF4FF4FA70A842B8BF2846A0805D4BAA
:103378001A78550704D55C4B1A689B88138534E086
:1033880050490968CC075CBF42F001021A70574ADD
:10339800127810075EBF1A7822F001021A70504A9C
:1033A800B2F80C11524A19B152490968890706D472
:1033B8005149098819B951480088642806D9022159
:1033C80011701A7822F001021A7005E01B78DB07E9
:1033D80056BF02231170137007F042FA484B1B685E
:1033E800C01A002801DB06F0F3FE464B9B68002B51
:1033F80062D045480BB0BDEC028BBDE8F04F1847D2
:10340800012000E002200138C0B20AF023FDFFF7D6
:10341800D7B994F80531324A972B05D14FF4C873C0
:10342800A2F80C31FFF7CCB9A72B06D12F4A137895
:1034380043F004031370FFF7C3B90021BB2B0991B4
:1034480001D1022303E0B72B04D14FF6FE73ADF888
:1034580026301CE0BE2B01D1022303E0BD2B04D192
:103468004FF6FE73ADF8243011E0792B04D192F8B1
:10347800133123F0010306E07A2B7FF4A1A992F817
:10348800133143F0010382F81331FFF799B9BDF8FE
:103498002420B5F8F0311344A5F8F031BDF8262002
:1034A800B5F8F2311344A5F8F2310AF0E5FC00232F
:1034B80084F80631FFF784B90BB0BDEC028BBDE888
:1034C800F08F00BFC8140020801400208C1D00203D
:1034D800C4140020B41E002035FA8E3CDB0FC93F0F
:1034E8003C0A0020942C0020A8140020700E002014
:1034F800A41400205C1400208C2C00205A140020F6
:10350800C014002050200020E40D002000150020E9
:103518002DE9F04F934C944F2368944E9D6A2DEDFE
:10352800028B9BB007F09CF96368C01A388007F0DB
:1035380097F933786060012B01BF8D4B3A881A8068
:103548008C4A04BF12885A808B4B13A8DB689847B3
:103558009DF84C3023B1237A002B00F03B820AE01F
:1035680007F07EF9854A63681268EB1A18445032EE
:103578009042E9D3EFE70CF05BFC08B90CF06EFC65
:103588007F4D95F84A321BB97E4B1B88002B4ED0D5
:103598007D4A61891268B1FBF2F17C4A714B12785D
:1035A800481C80B2A0811AB3B3F80EB000236D4F47
:1035B800774A07F1180C07F1100932F813803CF824
:1035C80013E039F813202CF81380CEEB080E12FB09
:1035D8000BF20FFA80FA92FBFAF2964429F813E0FC
:1035E8000133042BE3D1694BF98100221A7002E000
:1035F800DA89013ADA81E0895A4A03B2002B4FF09E
:10360800000313DDB2F90C70624931F81320083158
:1036180012FB00F231F8131092FBF7F28A1A5C4998
:1036280021F813200133042BEED100E0D3815A4B4B
:10363800534F1B78ABB1594BB3F90620B7F8463254
:103648009A420EDC7B79012B01D0192B02D197F815
:10365800922232B90E2B04D0082B1EBF4C4B0022ED
:103668009A8097F81082B8F1000F33D0454B1B8829
:103678009B072FD04A4BDFED4B7A93ED080AB4EE47
:10368800E70AF1EE10FA20D911F00AFBD4ED087A16
:1036980020EE270A11F080FAB0F5617FA8BF4FF439
:1036A800617007EE900AB8EEE70ADFED3F7A80EE28
:1036B800270A0AF05CFA07EE908AF8EEE77A27EE16
:1036C800800A11F069FA80B200E00020304AD388FD
:1036D8001844D080354B1878002840F07981344B55
:1036E8001A6812F4002F994600F07281314A137853
:1036F800033B052B90461AD897F8513533B1012B67
:1037080008D101F0E1FEC0F17F0003E0606A0368C0
:103718009B689847A36A94F82C201344B3F5807FDC
:10372800A8BF4FF480738342D4BFA362A06298F805
:103738000030023B092B00F24581DFE813F00A0054
:103748003F006B004301430182009300FF001B010F
:1037580027010023A3622363174B1B6863630323BA
:103768002EE100BFB40B00208E2C00204A1100204F
:103778004C1100205A14002050200020F81400207A
:1037880098250020C4140020981D00209C0B0020C0
:103798008C1D0020C40B0020020000204C250020B6
:1037A800441700208FC2753CEFB6B044932C00201C
:1037B800741400206809002054140020A24B1A68D1
:1037C800636B64339A4240F2FD80402005F082FE2C
:1037D800002840F0F7804FF040099C4D236B9C4F28
:1037E800E85C58B103F0CAF8BB6A013BBB623B6BAB
:1037F800B9F1010903F101033B63EED1226B944B4C
:10380800AA5C002A40F0DE801A634FF0FF325A6348
:103818000423D5E0252300938E4B019303F10C027A
:1038280002924920A3F10A025021023303F0C8FB97
:10383800002840F0C7804FF0FF33636320630723FD
:10384800BEE0854A0523002100930191029153208F
:1038580002F1080303F0B4FB002840F0B3802063B2
:103868000823ADE0402005F035FE002840F0AA808E
:10387800236B0C2B00F24386DFE803F0070B0E12D4
:1038880018292D313539444E5100744805F09AFFF6
:1038980050E07348734917E073487449744A47E025
:1038A800744897F84F1597F8502541E095F8A424E7
:1038B800714884235343EA180C2192F8F82301FB3A
:1038C80002331D4495F8FA1305F07CFF32E06B488B
:1038D800B7F8D010F8E76A48B7F8D210F4E7694BA0
:1038E80069481969F0E7694B69481988ECE7A36BDF
:1038F800D80403D5674897F81212E5E7544B0B2212
:103908001A6317E0644897F8161297F8172297F881
:10391800153205F057FF0DE06048A18FD4E7D9F8BC
:103928000030190506D55E48B7F81C12B7F91A22F7
:1039380005F048FF236B0133236343E0594B1B68B1
:103948009A0114D5B4F84030414D83B96B6C139388
:10395800554B0E201B68149313A903F0B3F84FF4CA
:103968008053EB870A2388F8003003F003F903F04B
:103978008BF827E094F84830002BF6D0494B1B68A9
:103988009B01F2D4092388F80030F0E72E4B1A681F
:10399800636BC8339A4203D997F851557DB904E04F
:1039A80005F0DEFD0028F7D10CE0606A0AF068FF38
:1039B80094F849306562022B01D10CF049FF0123CC
:1039C80088F8003005F0B6FD10B1012388F8003002
:1039D800002323722B4B0BAD5B68284698470028C1
:1039E80000F04F81307800230328304E02BF304F5B
:1039F80056F8231027F813109A0035F91310B15010
:103A08000133032BF0D1294894F84A20014604F0E9
:103A180053F994ED138AB5EE408AF1EE10FA4DD1C0
:103A2800244FDFF894903B88002B00F00281D4F8F3
:103A3800C0301B78A9F1480808EE103AA9F13C05F6
:103A48004FF0000A97E000BF54140020F8740108F2
:103A5800B40B00206275010814770108CB960108A1
:103A6800E5960108B9950108FA960108A495010898
:103A7800B09501080E9701081F97010829970108BA
:103A880038970108502000204797010804000020BB
:103A980057970108619701086E97010887970108F1
:103AA80092970108C8140020702C0020BC1E00202A
:103AB8004C1100208C2C0020C00C0020C54B93F822
:103AC80050509DB9C44B1A681F467AB1DFF8048379
:103AD800396808F154002844B0EE480A243509F042
:103AE800B2FD6C2DF2D1012388F8503094F8503093
:103AF800002B95D0002556F8253007EE903AB74BA5
:103B0800242000FB0530B8EEE70A09F073FD11F038
:103B180043F846F825000135032DECD180E7D5EDB3
:103B2800006A07EE103A37EEE66AB8EEC77A86EE14
:103B3800077A36EE877AD5ED026A85ED017A77EE57
:103B4800C77A85ED007AE6EE276AF0EE667AC5ED6B
:103B5800036AC5ED026A0023012846F80B3049F8CC
:103B68000B3038D00AF1010ABAF1030F08F1040842
:103B780005F1140573D0984A388813684FF47A71A0
:103B8800B1FBF3F3C3EB431103EB8103DB009BB2FF
:103B9800984202BF0023C8F800302B61D8F80030E3
:103BA800194656F82A30194456F82A30C8F8001031
:103BB80007EE903A2B690133012B96464FEA8A0BA0
:103BC800F8EEE77A2B61AAD10023C5ED017AC5ED9D
:103BD800007AAB60BFE72B69CDF818E0012BC3BFB3
:103BE80003F1FF3300EE103AD5ED037A9FED7C0A1E
:103BF8000592C4BFB8EEC00A87EE800A11F0B0F88B
:103C0800059ADDF818E018EE103AA3B1F8EEC87A74
:103C1800B4EEE70AF1EE10FA0DDDDEF800204FF4FD
:103C28007A73B3FBF2F3C3EB431203EB8203DB00BB
:103C38003B8000231BE012684FF47A73B3FBF2F366
:103C4800C3EB431203EB8203DB00D8F800209BB2DE
:103C580002EB530292FBF3F349F80B3082E7388802
:103C6800012801D106F062FF3B88013BE0E756F8E6
:103C7800232059F82310521A46F823200133032B26
:103C8800F5D194F818312BB1524A013B82F818311A
:103C980000F040BC534A5449D2ED787AF5EE407AA8
:103CA800F1EE10FA18BF92F8E831B2F826221ABFDE
:103CB80003F1FF33DBB2012384F818314B4B009337
:103CC8000D684B4908684B49443B0968A8474A4B6B
:103CD800DB780893494B1B68DF0008D4484B494AF6
:103CE80093F800B0BBF1030F00F29880AFE0394BB6
:103CF800D3F81C21444B907E1968577E4B880D8859
:103D08005D1B424B1B6803F4805E414BADB200EB78
:103D18008000D3F800800FFA85FB00F10A0900261D
:103D28003C4B4FEA460C33F81630BEF1000F0AD070
:103D3800B8F80210B8F80020521A5A44022192FB2F
:103D4800F1F292B200E02A467FB31BB2B3F5FA7FD4
:103D58003149A8BF4FF4FA738B42B8BF0B4683EAC8
:103D6800E371A1EBE371494523DD002BCCBF1B1A9E
:103D78001B189BB20FFA83FA8AEAEA71A1EBEA717F
:103D880079434FF0640A13FB02F391FBFAF14FF405
:103D9800FA7A93FBFAF31BB2090391FBFAF14B434E
:103DA800C3F30F33C1F5805106E04FF480513B4611
:103DB80002E04FF480510023124A3CF902A001FBB3
:103DC8000AF103EB21312CF80210002E86D10126CE
:103DD800A6E700BFB40B0020F8140020080C002050
:103DE8000000000098250020C4030020CC270020F4
:103DF800BC110020900B002080140020C814002063
:103E0800EC150020F41E0020BC16002074140020BD
:103E1800B81600208C1D00200CFEFFFFAC4BD3F819
:103E280020315D88B5F5FA7F11D2AA4BB2F904604A
:103E3800B3F9040080EAE077A7EBE0776942CB1B8F
:103E48009E4203DBEB19B342A8BF33469380A24BD3
:103E58001B689D79E5B1A14909688E0715D5A04968
:103E68000978012911D9DB789E4E59433688CB1A37
:103E78009E4288B203DBB1420B46A8BF334601B26B
:103E880009031BB291FBF3F301E04FF48053049351
:103E980053880593944BD4F820C19448B2F800E0B5
:103EA800B2F9048093F8009000210B460A465A455F
:103EB80048D29CF9004090ED016A644208FB04F482
:103EC80007EE904ABDF9144006EE904A0FFA8EF4B8
:103ED800B8EEE77A07EE904AF8EEE77AF8EEE66A87
:103EE80067EE867A90ED026AE6EE867A0DAED0ED40
:103EF800036AE7EE267AFDEEE77ACDED067ABDF89D
:103F080018401DB1049F24B27C43241326F81240A4
:103F18000DAC0FFA83FA34F8124026B2564505DC88
:103F28000FFA81FA5645B8BF214600E02346B9F199
:103F3800050F04D1042A9CBF6D4E26F812400132A9
:103F48001030B4E7654F63486A4A591A3B6813F45E
:103F5800805F89B25E4B32D0674CC08824785C4E53
:103F680064075EBFD3F81C41248AA3F8E441D3F860
:103F78001C41B4F81080614C2468E5880FFA80FC75
:103F8800C5EB080EF44503DC12682588128805E0A5
:103F98004544AC4505DB126855886288A6F8E401FB
:103FA80011E0B6F9E4017045CDBF126825881268A2
:103FB8005588CDBF628812882846104603E01468E9
:103FC800C088228865884E4C1FFA85FE96B2C6EBDB
:103FD8000E020DB212B2954227DD4FF0010E84F8A1
:103FE80000E014034FF0000E94FBF5F5C3F8E85118
:103FF800DE450BD20DAC34F91EC005FB0CFCCCF32E
:104008000F3C24F81EC00EF1010EF1E7022492FBCA
:10401800F4F43219344C2478062C92B210D1BBF146
:10402800020F0DD8324C61800AE000220221227072
:1040380095FBF1F57219C5EB0E0592B2A9B200E035
:104048001146B3F9E441D3F81C812C4B3F68D3F8EF
:1040580000E0284B04941C682A4D07F010030993CC
:10406800254B1B7803F00403DBB20593264B1B6832
:1040780003F000630693254BB3F90630079307F462
:10408800805900265E4575D20DAB33F816C003B2D1
:1040980007EE903A154B03EB061393ED007AF8EE12
:1040A800E77A13B267EE877AFDEEE77A17EE90AA01
:1040B8009A4503DB0BB25345A8BF53466344089F98
:1040C8009BB225F8023F1BB217B3B4F804C035E021
:1040D800B40B00208C1D002028110020741400202F
:1040E800800100207C1100204A110020D80C0020FB
:1040F8004C110020BC160020942C0020B81600207B
:10410800CD1E0020A2150020C81400204C25002038
:10411800B9F1000F10D0B8F810C0BEF806A0049F7F
:10412800CAEB0C0C674504DCB4F800C0BEF800A06C
:1041380006E0BEF802C001E0B4F800C0B4F802A07E
:10414800634503DB5345A8BF53469C46099BA5F826
:1041580000C06BB1059B5BB1B9F1000F08D1069B9C
:1041680033B9B8F81230079F9F42BCBFA3882B8091
:10417800013687E7C04B1A7802F0040202F0FF0309
:104188004AB1BE49BE4F91F8EC31013BDBB2182B66
:1041980000F2208109E05B45F3D2BA4A32F81310E5
:1041A800B94A22F813100133F5E701229A40B74BB8
:1041B8001340002B00F00E81B54BB6481B8813F452
:1041C800807F08D0B44B1A88ADF84C205A88ADF8D7
:1041D8004E209B8815E0B14B1A88ADF84C205A88C0
:1041E800ADF84E20AE4A9B881268ADF85030D20424
:1041F80009D5D1F81C21B0F90640128A944202DA96
:104208005B42ADF85030A74DB5F902304FF47A72E1
:1042180003F5E16353434FF4616493FBF4F3A3F5AF
:10422800FA73ADF86430B5F9003003F5E1635A4329
:10423800954B92FBF4F21B88A3F2DC53A2F5FA72B9
:10424800ADF85230D1F81C31ADF866201B8A0288CF
:10425800D21AADF854204288D21AADF85620828876
:10426800D21AADF85820C288D21AADF85A2002895D
:10427800D21AADF85C204289D21AADF85E20828944
:10428800D21AADF86020C289D31AADF86230002383
:10429800002227F813200133082BF9D1824A834BD7
:1042A80012680492824A1B78126882490592824DEC
:1042B800072202FB031B594572D00B7833B103F177
:1042C800150201239340049A134065D011F806CCD7
:1042D800059B11F805AC11F8034C11F8018CCCEBD7
:1042E800CC0E03EB4E0E6420BEF90020BEF902305E
:1042F8009B1A9BB211F9022C4FEA53095A434FEA11
:104308004A0692FBF0F21AA8C9EB020292B20644DE
:1043180014B936F81C0C0CE0B5F9000036F91C6C21
:10432800B04208DA0444844203DBA6423046A8BF00
:104338002046288008E007DD041BB44203DB8442E2
:10434800A8BF044626462E80DEF80A4011F9046C00
:10435800012000FA0AF02042288812B216FB00F069
:1043680014BF4FF0FF340124642690FBF6F090420E
:104378000ADB4FFA88F25A4392FBF6F2C9EB0202C3
:1043880012B28242A8BF02463D4B33F81C9002FB92
:10439800049423F81C4000E02B80023507318AE79B
:1043A800434B464ED3F8008000250E2202FB0582BF
:1043B80036F8023F92F90640E8B214FB03F364248E
:1043C80093FBF4F4348006F02FFD01352044082DCA
:1043D8003080EAD1324B364D1B6813F0200F32D0B3
:1043E800002006F021FD38800646012006F01CFD5D
:1043F8002D4B234C1B6878801B0624D51F4B294A5C
:10440800D3F810321B78012B20D12968138891F931
:1044180014E0B2F902201EFB03FE91F906304FF0BA
:10442800320C5B429EFBFCFE1FFA8EFE53436FF07C
:10443800310293FBF2F27244B11893FBFCF373441C
:104448002180184460802D6800233DE0D5F800E005
:1044580053889EF9061011FB03F1322391FBF3F107
:104468003144218011889EF9142012FB01F292FB3D
:10447800F3F21044E6E700BF942C0020B40B0020B0
:1044880054090020F02B0020A41500209920980141
:10449800C41400204C2500208C1D0020F41E002090
:1044A80074140020B41E0020C8140020C016002078
:1044B800C0110020C7160020A20D002052090020BC
:1044C8000133082B3A5311D00E2101FB035137F960
:1044D8001300B1F90020B1F9021090424FEA4304E9
:1044E800EEDB0AB28242A8BF0246E9E70BF0A0FC65
:1044F80008B10BF0B3FC0A4B01221A720AE005F06E
:104508002FF800283FF45EAA4FF48053E3870A236C
:10451800FFF756BA1BB0BDEC028BBDE8F08F00BFA9
:10452800B40B00202DE9F04F85B006F035FD8A4B1D
:104538001F78002F40F09285884D2B68590540F16F
:104548008D85874B874CB3F8DE802378864E002B09
:1045580000F07B8132686368D31A7C2B40F2758146
:10456800237A62600133237207F12400DFF8F491A3
:10457800C0B202F0A3FE09F10C0353F8273007EE8E
:10458800903A7A4B1B88B8EEE77A07EE903AF8EE45
:10459800E77A0137C7EE277A9FED757A67EE877A53
:1045A800FDEEE77ACDED007ABDF9000002F074FE69
:1045B800032FD9D1302002F081FE002002F06CFEDA
:1045C80002F075FE99F8087017F0030724D1D9F89E
:1045D800042041F288339A420BD9102002F06EFE73
:1045E800384602F059FE212002F068FE384602F0F3
:1045F80053FE142002F062FE5E4BB3F904000A2356
:1046080090FBF3F002F048FE1C2002F057FE002059
:1046180002F042FE02F04BFE237A5A0740F0F18086
:10462800022002F04BFE4F4BB3F918000A2390FB0F
:10463800F3F002F031FE504B0320B3F9067002F09C
:104648003DFE4E4B1B785B074FF0050997FBF9F7CA
:10465800BFB20BD54A48414606F084F820B92B680A
:1046680013F0100F18BF002738B205E0454B1B6840
:10467800D889B0FBF9F000B202F00EFE2B689F0754
:1046880040F18D80DFF80491678BDFF8FC8099F8A2
:104698000010B8F800203F016423BFB203FB0212E8
:1046A8004B00B2FBF3F347EA0327BFB2C3F303237C
:1046B8001F43062002F002FE38B202F0EDFD638BC4
:1046C80099F8002001339BB293FBF2F102FB1133FE
:1046D800E16963838B7B012B05D1392002F0EEFD64
:1046E800B8F9000021E0B8F800706E237B43152765
:1046F80093FBF7F7CB7BBFB20BB197FBF2F73A20EE
:1047080002F0DCFD4FF06409B7FBF9F80FFA88F006
:1047180002F0C2FD09FB18773B2002F0CFFDB8B2CA
:10472800471D0A2097FBF0F000B202F0B5FD2820E3
:1047380002F0C4FD236A0A2093FBF0F000B202F0F5
:10474800ABFD042002F0BAFD0E4B1B68DB89FBB100
:1047580003F048FB20E000BF932C002074140020D5
:1047680098250020CC0D00205414002004000020BF
:1047780000007A44B41E00208C1D0020942C0020D8
:10478800CC270020281100207C1100208001002067
:10479800C74B186880F3100000B202F07DFD03A932
:1047A800C44802F04FFD132002F088FDBDF90C004B
:1047B80002F072FD1B2002F081FDBDF90E0002F02F
:1047C8006BFD232002F07AFD4E2002F065FD03A95F
:1047D800B84802F037FD122002F070FDBDF90C0058
:1047E80002F05AFD1A2002F069FDBDF90E0002F030
:1047F80053FD222002F062FD452002F04DFD02F03B
:1048080056FD237A282B20D1AB4B306800221A7230
:104818004FF03C094FF47A73B0FBF3F8172002F01D
:104828004DFDB8FBF9F7B7FBF9F009FB1070000272
:1048380000B202F031FD182002F040FD09FB17809C
:1048480000B202F029FD02F032FD94F824309A4FAC
:10485800002B00F0B58006F003F8BB6A974AC31A2C
:10486800934280463CD9002387F82E3087F83030B1
:10487800934B1B88DAB21B0A87F84A2087F84B301B
:1048880087F8402087F84130BA6D33689A1AFB6D73
:10489800197C4FF47A734B439A420DD3894B1B68AA
:1048A800BB65894B1B78013B012B9FBF102387F801
:1048B8002E30022387F830307D4B226A1B68C4F8FB
:1048C80028800A2192FBF1F293FBF1F384F8482047
:1048D80084F84C3012121B1284F8492084F84D30A9
:1048E80094F860A0744FBAF1000F0ED1B86E06F0BC
:1048F800BEF9012809D90228DFF8D49100F0828393
:1049080002F092FC012389F80230E76E6A4B002F0F
:1049180056D093F860203AB15A6F40F6B731C2EBDF
:1049280008028A4214D84BE0012283F860209A6F6B
:10493800986E1278022A04D80430022102F05EFC34
:1049480002E0022106F08AF9002384F87C3035E081
:1049580093F8702092B9DA6683F860209A6F986E9F
:104968001278022A04D80430012102F047FC02E040
:10497800012106F073F902F057FC1FE0013AD2B2A8
:1049880083F8702093F87C1093F87D003AB90130D1
:104998004A1C83F87D0083F87C20986E0CE03A4628
:1049A800013012F801EB83F87D000EEB0107986ED9
:1049B80083F87C70DA66714606F05CF9C4F8748096
:1049C80094F87E2037683C4B002A00F04881D3F8E1
:1049D8008020002A00F0438193F88430013B012BAA
:1049E80000F23D81D4F88000DFF8CC8006F03FF972
:1049F800E0B1D8F8800006F037F998F88530D6F895
:104A080000A07E2B81460ED102231B2888F8843013
:104A180009D1D8F8800006F02AF920B90123C8F88E
:104A280088A088F88C3084F88590DBE7D8F888204F
:104A380033689B1A41F6583293421FD9032388F8EA
:104A480084300CE1214A32F8130010B903464FF4C0
:104A580003600133B0F5826FDBB200F0EB807FD8E2
:104A6800B0F5007F00F0AA8019D9B0F5047F31D1E4
:104A780084F88D302B68980700F1908094F88C109A
:104A880094F88D30002900F0E8803268D21B012AA2
:104A9800D8D984F88D30002384F88C30DFE0B0F565
:104AA800807F00F0A780B0F5887F00F0A380E9E759
:104AB8002C11002080969800CC0D00203F0D03009B
:104AC8007C11002054140020581400205C98010820
:104AD80004000020B0F5806FD4D184F88D3094F8AC
:104AE8009430BD4A0133DBB2032B88BF012382F81F
:104AF800943094F8941042F210735943B74B1B78D2
:104B0800D80748BF01319A0748BF02315B07B44B49
:104B18001B8848BF0431D80748BF0A319A0748BFE5
:104B28001431180648BF2831DA0548BF283158071C
:104B380048BF64311A0748BFC831980548BF01F516
:104B4800C8719A0648BF01F57A71D80648BF01F5C1
:104B5800FA615A0648BF01F57A614FF4806062E055
:104B6800B0F5E26F4FD009D8B0F5C06F39D0B0F5C5
:104B7800E06F87D184F88D30E16847E0B0F5E46FE5
:104B88004DD0B0F5046F7FF47DAF84F88D30954B30
:104B9800B3F9041001EB810149003AE08E4BD3F8D8
:104BA8009030DA7B904B1B881AB1904A117893FBAE
:104BB800F1F30A214FF4047059432AE084F88D3048
:104BC8002B68DFF8148219057FF558AFD8F8203024
:104BD8000A2193FBF1F102F0DDFA002388F88C300A
:104BE8004CE784F88D302B681A057FF547AF804B6A
:104BF800196818E084F88D307E4B1B685B077FF5D9
:104C08003DAF00210FE0216984F88D302C2391FB02
:104C1800F3F102F0BFFA002384F88C302EE784F811
:104C28008D306169F2E702F0B5FA6B4B002283F828
:104C38008C2023E784F88D306E4B1B6813F0200816
:104C48007FF41CAF2B681B067FF518AF414602F0B6
:104C5800A1FA614B83F88C8010E784F88D3094F8C2
:104C680095305D4D002B00F09E80D5F89830002BD4
:104C780000F099803668D5F89C30F31A632B40F21F
:104C88009280DFF86081412002F06BFA0A27B8F9B8
:104C9800020090FBF7F080B202F05AFAB8F900006F
:104CA80090FBF7F080B202F053FAB8F9040090FBD9
:104CB800F7F080B202F04CFA02F030FA95F8A05002
:104CC80015F001054AD1464B1B88D90518D4DA06D8
:104CD8000DD49F060DD458060DD419070DD4DA0744
:104CE8000DD413F0020F14BF0325012508E00D258C
:104CF80006E0092504E0042502E0082500E0022575
:104D0800364B1F783C4BDB78C7F3800713B147F06D
:104D18000207FFB2532002F024FA334B188800EB45
:104D2800800000EB8000800080B202F011FA0020C1
:104D380002F00EFAB4F8A200FE23584340F2FF3303
:104D480090FBF3F0C0B202F0F3F9002002F0F0F9A2
:104D580047EA850002F0ECF902F0E0F994F8A03097
:104D6800A3B94F2002F0FDF90BF03EFD0BF03CFD1E
:104D78000BF03AFD012002F0DBF9174B93F8A40081
:104D880000F0010002F0D4F902F0C8F994F8A0305C
:104D9800C4F89C600133DBB20A21B3FBF1F201FBDA
:104DA800123384F8A030154D95F80080B8F1020F41
:104DB800A94640F00F8105F053FD114B1F6840F6DE
:104DC800B833C71B9F421DD900232B70B4F8A630F7
:104DD8000133A4F8A63041E1CC0D0020942C00202A
:104DE800C4140020B41E00207C1100208001002083
:104DF8002C1100205C140020801400209310002047
:104E0800CC100020974D2B793A2B40F0F78028469C
:104E1800A97803F061F8002840F0F080924B934E97
:104E28001B88F361236AF362914BD4F8A8A01B682E
:104E3800F364B4F8A630F063F766F365504606F0FD
:104E48005EFDDFF844B20746002840F0C3805046B4
:104E5800414605F003FF042386F874309BF8AC3014
:104E680095F803A0DFF81C82642B4BD19BF8AD307A
:104E7800072B08BF8BF8AD7094F8AD5006EB0513FF
:104E880003F1040B5968019108460FF0D4FBDBF8D5
:104E980004300093C7B218460FF0CDFB5FFA80FBD1
:104EA80007EB0B02083288F8072025F00F0288F874
:104EB8000A2005F00F0288F80D200BEBC70288F8CE
:104EC8000E2001996B483A460FF04CFB009B07F106
:104ED8000900694F19465A4638440FF043FB98F8C1
:104EE80007B058460BF064FC7A1C02F80B005046D9
:104EF8000BF03EFC002384F8AC306B1C84F8AD301A
:104F080000234FE096F875505C4A2B0704BF013523
:104F1800EDB2072D4FF0000328BF012588F80A30AD
:104F280017462801311802F1010E0B7CC96840EAC6
:104F3800030C82F800C0DFF854C11CF80320012AD2
:104F48000EF1010306D9013A03F8011C9E46090A2D
:104F5800D2B2F4E730440135407C21F06001EDB273
:104F68000143082D1A468EF8001009D03F4800EB7F
:104F78000510D91B007C1CF8000001441329D0DD62
:104F8800DF1B0637FFB247F0400388F80730384682
:104F98000BF00EFC3A4B86F87550D85550460BF07E
:104FA800E7FBADE798F802205D1CDBB29A4207D90F
:104FB800344AD4F8A800D15C05F05CFE2B46F1E732
:104FC80094F8AC300322013386F8742084F8AC30AE
:104FD80089F80020254D95F87430032B3ED1D4F87C
:104FE800A80005F03EFE002838D0274B0121D3F851
:104FF800A80005F033FE022385F87430002389F8F1
:1050080000302BE099F8023023B1C7F8648089F8A2
:1050180002A07AE47B6EC3EB0803B3F57A6FFFF462
:1050280074AC0123B86E89F8023005F01DFE814684
:10503800B86E05F019FE19F07F0F7FF466AC8E2864
:105048007FF463AC97F86030002B7FF45EAC07F117
:105058002C03FB662D2387F8703056E405B0BDE8B5
:10506800F08F00BFC01000207C1100200400002039
:105078002C1100207F250020762500207D2500208A
:105088007725002070250020CC0D0020CB98010842
:10509800FF207047012380F845307047014B18689E
:1050A800C0B27047242C0020012070477047704719
:1050B800074A13689B050AD5064B00211970016839
:1050C8004FF6FE730B4003604FF400735360704754
:1050D80000000240922C0020054B1A7802F0FF01D4
:1050E80022B10122027000221A70704701707047C5
:1050F8007C0E0020F8B5094C4FF480550E46174633
:10510800258540F080000BF009FA38460021324628
:105118000BF020FAA5610120F8BD00BF000400488B
:1051280070B5064C4FF480550E4625850BF0F6F900
:1051380030460BF0F3F9A561012070BD000400486A
:10514800F8B590F844400023064680F84430E4B1AE
:10515800104A1068E0B11268052A18D10E4B1F6872
:105168001D460E4B1B682BB906F13000214607F08F
:1051780036FD00E00020A04203D02B68DB1B312B5A
:10518800EFD9031B58425841F8BD0120F8BD184615
:10519800F8BD00BF7C2C002054140020682C00208F
:1051A800002280F84520CBE790F84420531C0244A5
:1051B800DBB280F8443082F8301090F845200AB10C
:1051C800132B00D9BCE77047F8B50F4B14461A6883
:1051D8000E46BAB11B68052B14D10C4B1F681D462F
:1051E800002C0FDD0A4B1B6823B93046E1B207F0EB
:1051F800F6FC00E000202B68DB1B322BA4EB00043C
:105208000644EDD9F8BD00BF7C2C002054140020C2
:10521800682C0020F7B51C4B1A680AB91C6800E016
:1052280001241A494E780022D0B2A04202F10102AC
:1052380007D202AD2F18164D3544285C07F8040C28
:10524800F2E71A68121B1A604A781D6822444A70ED
:105258009DB90320402102F0DBF90E4A136823F4BC
:10526800804323F070039BB283F4405343F400431C
:1052780043F080031360054B5D70002CCBD09DF884
:10528800040003B0F0BD00BF242C00207C0E0020D9
:10529800282C00200C5C004008B50AF044FC024BA6
:1052A8004FF400621A8008BD0400002008B50AF017
:1052B8003AFC074B5B7813B1012B03D008BD4FF4C0
:1052C800806201E04FF40062024B1A8008BD00BF03
:1052D800B805002004000020F7B5514E05460AF035
:1052E80022FCB778002F70D14E4C238823F040035E
:1052F8001B041B0C2380238823F038031B041B0C7E
:1053080043F03003238023889BB243F0400323807B
:1053180080216B20FFF704FF962005F0C8FA0321CF
:105328006820FFF7FDFE962005F0C1FA03216B20E7
:10533800FFF7F6FE0F2005F0AFFA10216A20FFF7FD
:10534800EFFE0F2005F0A8FA39466C20FFF7E8FEBB
:105358000F2005F0A1FA344B19201978FFF7E0FE69
:105368000F2005F099FA18211B20FFF7D9FE0F200E
:1053780005F092FA18211C20FFF7D2FE0F2005F045
:105388008BFA10213720FFF7CBFE0F2005F084FAA7
:1053980001213820FFF7C4FE0F2005F07DFA23888D
:1053A80023F040031B041B0C2380238823F03803BD
:1053B8001B041B0C238023889BB243F040032380EB
:1053C800012005F069FA0123B370164A138823F007
:1053D80040031B041B0C1380138823F038031B04A1
:1053E8001B0C43F03003138013889BB243F0400337
:1053F800138029461A20FFF793FE012005F04CFA86
:1054080068460AF07FFA9DF90230013306D19DF90A
:105418000030013302D1062005F0DAFB03B0F0BDFD
:105428007C0E002000380040CC05002070B5164CDA
:1054380005460AF078FBA36880216B209847642012
:1054480005F035FAA36803216B2098470F4AA36833
:105458001178192098470F2005F029FAA3682946E2
:105468001A209847A36818211B209847A368182179
:105478001C209847A368022137209847A368382042
:105488000121BDE870401847BC050020CC0500206C
:1054980010B50A4B0A4A1B7842609C18094A0460F6
:1054A80012789A4225BFD31A0B60C3F180030023F8
:1054B8002EBF4B600B604A6010BD00BFED1100208D
:1054C800EE110020EC110020054A064B10781B78DD
:1054D80083422EBF181AC0F18000C018704700BF61
:1054E800ED110020EC1100200F4B73B518781C4605
:1054F80098B105230D4D8DF800304FF480560023E8
:105508008DF8013001A82E85694602220BF022F899
:10551800AE619DF8050000F0010000F00100207068
:1055280080F0010002B070BD21090020000400488D
:10553800064B70B51D6806461C46FFF7D5FF18B91F
:1055480023685B1BB342F8D970BD00BF5414002018
:105558002DE9F04F89B0824601930023029103920E
:105568009946039A934205DA029A52F823200133A6
:105578009144F6E7019B4D46002B56D1FFF7B4FF47
:10558800002852D101987CE002223F4E8DF81C2061
:105598001A0C4FF480578DF81D2006201A0A8DF832
:1055A8001E208DF81F30FFF7C3FF378506200AF04D
:1055B800B5FF364BB76101221A700020378507A95D
:1055C80004220AF0C7FF029FD04626464FF0000B80
:1055D800039B9B451EDABC4657F8042B4FEA8B0306
:1055E800002A47D0B24235D332465AF80310CDF8D4
:1055F80014C0002004930AF0ADFF049BDDF814C02A
:105608005AF8032032444AF80320DCF800309E1B85
:10561800CCF800601C4B4FF480529A611C4A136806
:105628002D1B1C44019B14604BB345B3184B1B68DE
:10563800DCB22A19B2F5807F164AD2688CBFC4F54D
:1056480080742C4693429FD3134A00231370134A45
:10565800137014E00020D8F800100AF07BFF57F808
:10566800043CD8F80020F61A1344C8F80030002388
:1056780047F8043C0BF1010B08F10408A8E7C5EB57
:10568800090009B0BDE8F08F000400482109002096
:1056980024090020B0000020EC110020ED110020AA
:1056A80038B50E4C4FF4805545F20820FFF740FFFF
:1056B800258506200AF032FF094BA56101221A70E0
:1056C800C72025850AF02AFF064AA5610023137022
:1056D800054A1370054A136038BD00BF000400482E
:1056E80021090020EC110020ED11002024090020E0
:1056F800F7B503238DF80430030C8DF805308DF8C9
:105708000700030A06200F4614468DF80630FFF7F7
:105718000FFF78B1084D4FF48056002001A90422EC
:105728002E850AF017FF3846002122460AF012FF9C
:10573800AE61204603B0F0BD000400482DE9F047F3
:10574800664D6B6866490A78581C02F0FF068E465B
:105758000AB10346F6E76B60687CEB6895F8108041
:10576800AA7C374639B2202900F09B80DFF880C137
:105778000CEB81033CF82110DC789B78C3F1FF0324
:105788009BB2002B65D0C3F1FF0363434FF03C0C81
:105798001B12B1FBFCF9B9F1050F5DD8DFE809F080
:1057A800030B1A293A4AE01ADAB24143B1FBFCF07A
:1057B8001044C0B251E0B1FBFCF00CFB101189B2EF
:1057C800DAB2C1F13C01E31A4B432046B3FBFCFCBF
:1057D80094442CE0B1FBFCF00CFB10115FFA83F849
:1057E800E21A89B24A43B2FBFCF24244D2B22046E2
:1057F80032E0B1FBFCF90CFB191189B25FFA83F8AE
:10580800E01AC1F13C014843B0FBFCF04044C0B28F
:10581800224621E0B1FBFCF80CFB1811D8B289B282
:10582800E31A01FB03F2B2FBFCFC224684445FFA54
:105838008CF412E0B1FBFCF80CFB181189B2D8B259
:10584800C1F13C01E31A4B43B3FBFCF20244D2B270
:1058580003E02246204600E044464FEA042C4CEA86
:10586800004C4CEA020C172306F117014FF001080F
:1058780008FA03F8C91A18EA0C0F89B2DFF874801D
:1058880014BF4FF011094FF0090913F1FF3308F85D
:105898000190E9D218360137B6B2BFB2114BA04613
:1058A80060E7AA74EB60104A698101238EF8003022
:1058B8000E4985F8108040F22A3368742E815360AF
:1058C80000234B620B889BB243F001030B801368E3
:1058D80043F001031360BDE8F08700BF7C0E002091
:1058E800922C00208C0E0020300002400044014021
:1058F800820F0020D805002010F80A3C0133DBB2E3
:105908000A2B84BF10F8131C044A00F80A3C82BF13
:10591800002322F8113000F80A3C70477013002069
:10592800334A136C90681944081A40F68C2398423D
:1059380070B513469160D06051603BD9127893F9E5
:1059480045108A4210460BD1111F082908D893F830
:105958004610182901D8013103E083F8442002E0F9
:10596800002183F8461093F944402149A24219D1F5
:1059780091F84740B4B10C310024944206DA1D4D29
:1059880051F8046F25F814600134F6E70C2805D0A7
:105998001849002421F810400130F7E7164801782B
:1059A8000131017083F84520002201211A7083F823
:1059B800471070BD92F84710C9B1A0F2EF2440F229
:1059C800DA518C4208D811780B2905D80B1D013102
:1059D800117042F8230070BD002283F84720074B5E
:1059E80003F13002002143F8041F9342FAD170BD3D
:1059F8006004002070130020862000206C04002022
:105A0800024A136C01331944116470476004002082
:105A1800A1F57A7107EE901A9FED0A7A0A4BF8EE13
:105A2800E77A53F82030C7EE877A82B01A68FCEE1E
:105A3800E77ACDED017ABDF804303C33136002B04B
:105A4800704700BFCA548540BC150020024B53F86C
:105A580020301B6819607047BC150020034B53F8B1
:105A680020301B6801EB410119607047BC1500200C
:105A7800024B53F820301B6819607047BC15002092
:105A8800064B53F820301A681B89A1F57A715943DF
:105A98004FF47A7391FBF3F111607047BC15002045
:105AA800F0B5046D8668236823F0010323608379C9
:105AB800054613F0020F40790CBF4FF0000E4FF46B
:105AC800005E13F0040F14BF4FF48067002710F036
