:020000040800F2
:1000000000A000205D470108C5470108492F0108ED
:10001000C5470108C5470108C547010800000000A1
:10002000000000000000000000000000C5470108BB
:10003000C547010800000000C5470108F7E00008B7
:10004000C5470108C5470108C5470108C54701085C
:10005000C5470108C5470108DB040108D9040108A8
:10006000C5470108C5470108C5470108C54701083C
:10007000B5E70008C5470108DD250108C5470108A7
:10008000C5470108C5470108C5470108C54701081C
:10009000C5470108C5470108C5470108D70401083D
:1000A00019B3000859B3000809B3000881B3000868
:1000B00049B3000839B3000829B30008C54701084F
:1000C000C5470108C5470108C5470108C5470108DC
:1000D000C5470108D5250108CD250108C52501081A
:1000E00005E10008C5470108C5470108C5470108E3
:1000F000C5470108C5470108C5470108C5470108AC
:10010000000000000000000000000000C5470108DA
:10011000C5470108C5470108C5470108C54701088B
:10012000C5470108C5470108C5470108C54701087B
:10013000C5470108C5470108000000000000000095
:10014000C5470108C5470108C54701080000000070
:10015000000000000000000000000000000000009F
:100160000000000000000000C5470108C547010865
:10017000C54701080000000000000000000000006A
:0801800000000000C547010862
:100188002DE9F04FAF4C23780E2B9CBFAE4A34219B
:100198002DED0E8B98BF01FB032395B094BF9E6A8B
:1001A8000026AA4DAA4FEB680DA898479DF8343051
:1001B80023B123780E2B0CD900230FE00DF066FF36
:1001C800A44B1B68F31A18443B6864339842E8D37D
:1001D800EFE79D4A342101FB03239B6AD7ED007AA0
:1001E8009D4CDFED9E8A2380F8EE677A9C4B9D48F4
:1001F80067EEA87AC3ED007A6B6898470B94994C20
:1002080040B9994B1A6812F0020F984640F0DA800C
:1002180000F060BC954B964F1A78204621460FF0A7
:1002280053F997F80080B8F1000F33D07B78BBB949
:10023800874A126872B37B607D688D4E022D0CDC94
:1002480006F10803242101FB053140469FED890A88
:10025800013506F0DEFE7560EEE70123737019E0E4
:1002680000237B607D68824E022D13DC34F9153043
:1002780000EE103A242006F1080300FB0530B8EE22
:10028800C00A06F09DFE16F0D3FC24F815000135CF
:100298007560E7E7784EDFF8F4813388002B6AD081
:1002A8007B6F93F800B0A8F14807A8F13C054FF020
:1002B80000093188B1F57A7F02BF00233B602B61CA
:1002C8003A6834F919301A4407EE903A2B693A60C3
:1002D8000133012B4FEA490AF8EEE77A2B6106D180
:1002E8000023C5ED017AC5ED007AAB601BE0D5EDC2
:1002F800006A07EE103A37EEE66AB8EEC77A86EE7D
:10030800077A36EE877AD5ED026A85ED017A77EEBF
:10031800C77A85ED007AE6EE276AF0EE667AC5EDD3
:10032800036AC5ED026A0023012924F80A3028F877
:100338000A302BD12B69012BC3BF03F1FF3300EE29
:10034800103AD5ED037A9FED4B0AC4BFB8EEC00A48
:1003580087EE800A16F0F8FEBBF1000F0DD007EE0D
:1003680090BAF8EEE77AB4EEE70AF1EE10FA04DD97
:100378004FF47A733380002319E03B684FF47A72A4
:1003880003F5FA7393FBF2F328F80A3009F101092F
:10039800B9F1030F07F1040705F1140589D1308875
:1003A800012801D10DF0E0FE3388013BE2E734F883
:1003B800132038F81310521A24F813200133032B92
:1003C800F5D11EE72D4B1B78002B00F083830DF031
:1003D8005DFE274BD3F8C820C3F8C800821A09EE7F
:1003E800102A00259946D9F8CCB0214E9BF8002058
:1003F800002A4DD096F8D020D4368AB1204A32F956
:10040800153000EE103A242000FB0560B8EEC00A53
:1004180006F0D6FD16F00CFC1A4A22F815003DE04D
:10042800154671199BF800009FED170A243506F050
:10043800F0FD6C2DF5D10E4A012182F8D01003256C
:100448002CE000BF8A0300206C0000203817002031
:10045800DC170020BC1F0020EC120020BD378635B9
:10046800FC390020241300206417002060170020A6
:10047800F808002000000000503A0020343A00201C
:10048800043A00201E13002000007A44B809002016
:10049800D04A32F81510D04A22F815100135022D2D
:1004A800A1DDCD48049046880588878816FB06F2AA
:1004B80015FB052217FB072264215143C74A1288FE
:1004C800524391FBF2F2A2F15203D8F800200A93AA
:1004D80012F0080F09D0C249B1F9000028B1B1F9EA
:1004E800020010B1B1F9041079BBBE49097801F0D6
:1004F800100078B312F020022CD001F0020149B3A9
:10050800B94A1278042A25D9B84A1288B2F5967FD2
:1005180020D3B74AB2F90430B64A07EE903A1388A6
:10052800B8EEE77A07EE903AF8EEE77AB2EE048A88
:1005380087EE888A4FF0010A4FF0000877EE487A74
:100548009FEDAD8A27EE888A09E04FF0000A4FF048
:10055800010802E04FF0000AD0469FEDA88AB4F9DE
:100568000030D9ED505A9E480AEE903AB4F902305C
:100578000BEE903AF8EEEBBAB4F9043044886BEE1F
:10058800A5BAF8EEEAAA0BEE103A6AEEA5AA2BEE87
:10059800AB0AB8EECBBAAAEEAA0A038806932BEEEA
:1005A80025BAF8EE497A83880993ABEE0B0A67EE11
:1005B800A88A16F0C9FDF0EE40CABAF1000F22D0A1
:1005C800DFED8F7AB4EEE78AF1EE10FA04DDDFEDA5
:1005D8008D7A38EE678AF3E7DFED8B7AB4EEE78A37
:1005E800F1EE10FA04D5DFED877A38EE278AF3E7C3
:1005F800B6EE000A28EE000A06F0ADFF9FED7FCAAE
:1006080030EE0CCA01E09FED7DCA9FED7CAADFF8B1
:100618000CA2F7EE009AB8F1000F56D0BDF91830C9
:10062800DFED7A7A07EE103A23B208EE103ABDF9F8
:100638002430F8EEC7DA00EE103AB8EEC88AB8EE01
:10064800C0DA2DEEAD0AA8EE080AADEE0D0AB4EE3A
:10065800E70AF1EE10FA38DD16F076FD89EE800A29
:10066800DAED017ADAED006A28EE008A2DEE807A5A
:1006780068EE277A2DEE000AE6EE877ADAED026A4E
:10068800E6EE807ADAED046A28EE268ADAED036A65
:10069800A6EE878A9AED057AA7EE008A28EE080A60
:1006A800A7EEA70A16F050FDDAED067A20EE480A02
:1006B800B0EE4A8AA7EE808ADAED077AA7EE80AA1A
:1006C800DAED087AA7EE80CA01E0B0EE4A8A0A9B02
:1006D800262B3DD82BB207EE103A33B206EE903AED
:1006E8003BB200EE103AB8EEC7EAB8EEC0DAF8EE60
:1006F800E6DA2EEE0E0ADFED457AADEEAD0AADEE86
:100708000D0AB4EEE70AF1EE10FA21DD16F01CFD31
:1007180089EE800ADAED075A9AED086A2EEE007A19
:100728006DEE806A2DEE000A65EEC07AE6EE867AF6
:1007380026EE476A38EE278ADAED067AA0EE276AAF
:1007480067EEE67A3AEE06AAE7EE257A3CEE27CA85
:10075800DBED017AF5EEC07AF1EE10FA4FF0000108
:100768001FDD9FED2B7AF4EEC7CAF1EE10FA1ED505
:1007780067EE886A99ED517AA6EEA87A67EE8A6ADA
:1007880089ED517A99ED527AA6EEA87A67EE8C7ABD
:1007980089ED527A99ED537AA7EEA87A89ED537AC2
:1007A80005E0C9F84411C9F84811C9F84C11194CA9
:1007B800DBED027A21784F0732D41749086844F6EE
:1007C8001F618842F7EE005AB2EE047A98BFF0EE45
:1007D800475A27E0043A00201E1300200800002092
:1007E8002A1300207C1300207D1300208A13002088
:1007F8005C1300208C13002035FA8E3C00000000AA
:10080800DB0F4940DB0FC940DB0F49C00AD7233C47
:10081800C2B8B23E583A0020642700206C2300205A
:10082800F7EE005A67EEA55AD9ED536A99ED517A59
:10083800D9ED527AC44EDFF8548396ED004AC34F7F
:10084800D8ED003AC24DE5EE8C6AA5EE887AE5EE61
:100858008A7A3BEE26BAF6EE006A68EEA66A7BEE66
:10086800A77A3AEE877A27EEA66A27EE267A6BEE03
:10087800266A26EE445A24EE260AD7ED007AD5EDEC
:10088800004A9FEDB48AA7EEC75AA3EE870AF1EE95
:10089800645AA5EEA65AA5EE860A66EEE75A37EE22
:1008A800800AE3EE865A67EE867A33EE855AE4EEDE
:1008B800875AE3EEA67A87ED000A20EE000A74EE66
:1008C800255AA5EE050AE4EE477AA5EEA50A74EEC8
:1008D800A77AC6ED005AA7EEA70A88ED005AC5ED1B
:1008E800007A16F031FC89EE800AD8ED007AD5ED51
:1008F800009A67EE807AC8ED007AD7ED007A67EE45
:10090800807AC7ED007AD6ED007A67EE807A29EE14
:10091800800AC6ED007A85ED000A0DF0D5FEDAED05
:10092800080A9AED070A8C4D16F068FA20EE080AB4
:1009380016F07EF99AED060A2880B1EE400A16F004
:10094800FFF9DFED867A37EEC00A20EE080A16F0C6
:100958006FF9DAED000A9AED030A688016F04EFA8C
:100968007F49D1ED007AE0EE487AB0EE670A16F0DA
:100978005FF9049BDAED085AB3F90030D9ED547ADF
:100988009AED010A9AED065A06EE103A049BB3F95D
:10099800023007EE103A049BB8EEC77AB8EEC66A82
:1009A800F4EEE75A27EE000ADAED007AB3F90430DC
:1009B800A7EE860A81B20E0406EE903ADAED027AC4
:1009C80058BFA980F8EEE66A48BF00F56160A7EE57
:1009D800A60A644948BFA880DAED077A08789BF828
:1009E800012067EE277AF1EE10FAE5EE067ACCBF21
:1009F80040F0080020F00800012AE5EEA67A087009
:100A0800DAED045A27EE257ADAED035AA5EE867A4E
:100A18009AED056AA6EE267AF1EE479A1AD122785F
:100A280052070FD4D9F85421402192FBF1F1531AFF
:100A380007EE103AB8EEC77A37EE277ABDEEC77AD6
:100A480089ED557AD9F85421402192FBF1F207EE4D
:100A5800102A03E0444A138807EE103AB8EEC77A22
:100A680099ED568A414C77EEC77A99ED577A38EE68
:100A7800877A77EEC87AC8EE878AA8EEA78A89EDC2
:100A8800568A16F0D5F8D9F86051297806F054FD41
:100A98002368B0EE690A1844206016F0C9F829786E
:100AA80006F04AFD6368B0EE480A1844606016F024
:100AB800BFF8697806F040FDA3682D4A184419EE7E
:100AC800101A1368A060194411602A4A1368013388
:100AD800136004E0284B00221A805A809A80274B22
:100AE800B3F90620264B1B6859898A420EDBB2F5FA
:100AF800FA6FD879BDBF531A4343A1F5FA60C0F124
:100B08006400BCBF93FBF0F0643000E064201D4B30
:100B18001D49B3F8947193F95E31D1F800909BB2F6
:100B280004930021154B33F911C0C7EB0C0303F2F2
:100B3800F31540F2E634A5424FEA410E28D8002BBF
:100B4800B8BF5B4226E000BF64230020602300207A
:100B5800682300204C3D0F445C130020DB0FC93F85
:100B6800EC1700207C13002008000020DC1F002068
:100B7800383A0020D81F0020043A0020122F002005
:100B880078130020D02F00204013002030000020D0
:100B98004FF4FA7302294FF064059B4C23D099F85F
:100BA8001D611EB1B342CCBF9B1B0023DFF884B28A
:100BB80093FBF5F66FF0630A3BF816800AFB0633E1
:100BC80001360FFA88FA3BF91660CAEB060A0AFBE7
:100BD80003F393FBF5F58D4B4544BC4524F80E50C3
:100BE800585427DB2CE099F81E611EB1B342CCBFE4
:100BF8009B1B0023864E93FBF5F806EB480A06EB91
:100C08004806BAF964A1B6F966616FF0630B0BFB8D
:100C18000833CAEB0606734393FBFBFBBDF81030A1
:100C2800CAEB0B0A1AFB03FA784BA4F804A0BC45DC
:100C38009D7009DA744D3EF805305B422EF8053098
:100C4800013103297FF46EAF724DB5F896118A42CF
:100C580005DBB2F5FA6FA8BF4FF4FA6200E00A4666
:100C6800DFF8D4E1684E521A4FF47A736FF06300DC
:100C78005A43C1F5FA616423B2FBF1F292FBF3F136
:100C88003EF8117000FB0122013138B23EF9111013
:100C9800091A4A4392FBF3F33B44E3805E4B1F88F7
:100CA8007B0639D55D4BDFED5E7AB3F904300A2255
:100CB80093FBF2F35B4A12889B1A1BB208EE103AB8
:100CC800B8EEC88A28EE278AB0EE480A06F0A4FCD7
:100CD800F0EE408AB0EE480A06F03DFCB6F9023064
:100CE80006EE903AB6F90030F8EEE66A07EE903A6A
:100CF80020EE667AF8EEE77AA7EEA87A67EE807AB1
:100D0800BDEEC77AE6EEA87A17EE103AFDEEE77A5E
:100D1800338017EE903A738095F89A3113B9002F03
:100D280000F08E803A4E96F87431B6F872814BB95D
:100D3800012006F5BC719FED3C0A06F06AF9012313
:100D480086F874310B9B324F1B8800EE103A07F57A
:100D5800BC70B8EE400A06F033F9BCEEC00A8DED5F
:100D6800040ABDF81030B8FBF3F0304B00F1010E67
:100D78001B781FFA8EFEA6F89CE11BB3B7F89E916C
:100D88000021234E34F811C006F5D47706F5D07843
:100D980037F8113038F8112027F811C0C3EB0C0AC6
:100DA80012FB09F20FFA8EF392FBF3F3534428F87F
:100DB800113001310429E4D11C4BA6F89E01002210
:100DC8001A7004E0B7F89E31013BA7F89E31104A2B
:100DD800B2F89E0103B2002B4FF000032EDDB2F9EA
:100DE8009C41134931F81320083112FB00F231F805
:100DF800131092FBF4F28A1A034921F813200133E5
:100E0800042BEED11CE000BF142100201C2100207F
:100E1800F8080020D02F0020F81200205C130020D2
:100E280035FA8E3C8E110020000000001C120020B4
:100E3800980A0020F6140020DE140020A2F89E3143
:100E480095F89B31002B6BD0B94A1288570667D4A6
:100E580007EE903A9FEDB77AB74CB84DF8EEE77ABF
:100E680067EE877A17EE900A12F0E4FD41EC100B5A
:100E780041EC180B15F0F4FDB4F900005BEC10AB75
:100E880012F0C6FDB0EE480AF0EE680A06460F46B4
:100E980015F03AFEB4F904008DED040B12F0B8FD1C
:100EA8003246804689463B465046594612F016FE61
:100EB80042464B46CDE90601DDE9040112F00EFE7B
:100EC80002460B46DDE9060112F056FC13F0A0F8C5
:100ED800B0F5FA7FA8BF4FF4FA70A842B8BF284609
:100EE80042464B4620805946504612F0F7FD32469E
:100EF800804689463B46DDE9040112F0EFFD0246D3
:100F08000B464046494612F037FC13F081F8B0F51D
:100F1800FA7FA8BF4FF4FA70A842B8BF2846A0804D
:100F2800874C884F2378DFF8648213F0040F03D0CE
:100F3800854B08221A853AE0D8F80020D6075CBF0E
:100F480043F001032370814B814A1B781D075EBF64
:100F5800237823F0010323703B6813F0040F02D0B9
:100F68007C49098871B97C49098809B1980709D46D
:100F78007A4B1B88003318BF01231BB978490988AD
:100F8800642906D902231370237823F00103237000
:100F980004E02178C90758BF022313700DF076F8D2
:100FA800704B1B68C01A002801DB0EF0E9FB6E4B82
:100FB8009B680BB16D4898476D4B6E4E5C4D012296
:100FC8001A703B6813F0080F43D05B4A6A4990884F
:100FD80000F10E039BB21C2B684BB3F9043034D8D4
:100FE800B5F800E01EF0040F2FD009884FF00A0E64
:100FF80093FBFEF35B1A9BB21FFA83FE0FFA8EF186
:10100800B331BCBF03F5B4731FFA83FE0FFA8EF336
:10101800B32BC4BFAEF5B4731FFA83FE584B93F8D5
:101028005E114A4B1B781B0713D549B249421EFB78
:1010380001F33168497A9BB213FB01F36FF01D018C
:1010480093FBF1F31844908003E00A2293FBF2F338
:101058000B80D8F80030DFF8389113F4801F00F0C7
:10106800D280B5F800A00AF4006A1FFA8AFABAF129
:10107800000F40F0B68023785B0740F1B2804FF450
:10108800006006F0E1FA3368C9F8B4311A78022A28
:1010980004BF012289F8B821B3F85A2018BF89F88B
:1010A800B8A14FF47A735343364A128893FBF2F38C
:1010B800354A5B429BB2049392F800A099F8B82194
:1010C800BDF81030A9F8BA311346D9F8B421002177
:1010D80002F1200092F856C092F853E0BCF1000FDC
:1010E80001D0E64504D8BAF1030F05D8022903D187
:1010F8004FF0000C82F856C0002B4BD007EE90EA58
:1011080090ED007AF2EE046AF8EEE77A27EE267A96
:10111800B4EEE77AF1EE10FA44BFC7EEA67AC0ED56
:10112800007AD0ED007AFDEEE77A17EE90EA39E022
:10113800F812002035FA8E3C142100200CFEFFFF27
:10114800583A002064170020000400487C1300204F
:101158008C270020523A002048110020503A0020E5
:10116800E82D00209027002038170020A80A00202A
:101178001D120020401300208C1100205C13002059
:10118800D02F0020EC120020C4210020FC120020E7
:10119800F808002092F801C0F44538BF82F801E051
:1011A80092F801E0DFF860C34FEA8E1E2CF811E0D8
:1011B800DFF8FCE20EF5E17C4FF0000B2CF811B0E3
:1011C8000EF5E47CBDF810B02CF811B001310329FC
:1011D80002F1010200F104007FF47CAF01238EF8D4
:1011E800CE312B88180518D4237803F0040303F0B4
:1011F800FF0A93B9AE4C94F8CE3173B106F0D2FC25
:1012080084F8CEA109E02B88190506D523785A075A
:1012180003D54FF4006006F007FA3B68A44CDFF8EA
:10122800C0A213F0140F71D02B8803F40273002BA3
:101238006CD0A04BA0491B7803F0100303F0FF0EFD
:101248004BB19E4B9AF9EC21B3F900004B8800FB97
:1012580002334B805AE0D4F8D021994892F803C061
:10126800984B9278B0F90000BCF1000F20D0B3F988
:1012780006C0C0EB0C03002BB8BF5B4293420DDDE8
:10128800914B8445C3F800E04FF0010384F8D43152
:10129800C8BF5242CB8892B21A4436E094F8D4318F
:1012A80033B38A4B84F8D4E11A68894B1A601FE07B
:1012B800B3F906301B1A83EAE37EAEEBE37E96456C
:1012C8000ADD022293FBF2F3824A1360824A012369
:1012D800137084F8D4310BE094F8D43143B17B4BCC
:1012E80084F8D4C11A687A4B1A607B4B83F800C023
:1012F800724B1B680344D4F8D80102884088934293
:1013080003DB8342A8BF03461A46CA80734B1B7887
:10131800B3B16C4BB3F90620BAF896319A420FDC98
:101328006F4B5B79012B01D0192B02D19AF8E6217A
:1013380032B90E2B04D0082B1EBF5F4B00229A80B7
:10134800336893F824B1BBF1000F32D02B889B0788
:101358002FD0644BDFED647A93ED080AB4EEE70A08
:10136800F1EE10FA20D915F0EBFCD9ED777A20EEE2
:10137800270A15F05DFCB0F5617FA8BF4FF46170D6
:1013880007EE900AB8EEE70ADFED587A80EE270AF2
:1013980006F0E1F807EE90BAF8EEE77A27EE800A51
:1013A80015F046FC80B200E00020434AD388184478
:1013B800D0803B68980640F1CB802B8803F030033F
:1013C800002B00F0C5803B4B1B78D90740F1C0804B
:1013D800474BDFED487AB3F90430474F0A2293FBB5
:1013E800F2F308EE103AB8EEC88A28EE278AB0EE73
:1013F800480A06F0B0F8F0EE408AB0EE480A06F067
:101408000BF93E4B3E4A1B68D978B0EE409AB2EED3
:10141800048A00297AD03B4DB2F90200B5F802904F
:1014280006910FFA89F3C01A049208F0FFF806999A
:10143800049A4B429842AB4603DB8842A8BF084651
:1014480000E018464844BBF8005006931FFA80F99C
:10145800B2F9000004912AB2801AABF8029008F0A1
:10146800E5F8069B984204DB049988420346A8BF26
:101478000B461D44ADB2ABF800502DB207EE105A22
:101488000FFA89F307EE903AB8EEC70AF8EEE77A52
:1014980028EEC07A20EE090AA7EE897AA7EEA80AF4
:1014A80087EE087ABDEEC77A17EE103A3B8048E01F
:1014B800F80800207C1300201421002000200020C0
:1014C8001E120020122F0020FC1F00206413002091
:1014D800A41300203C3A0020042000200200002031
:1014E800D02F00206C2300208FC2753CEFB6B0448B
:1014F8005C13002035FA8E3C543A002094110020E9
:101508001812002014120020B40A0020B2F9023088
:1015180007EE103AB2F9003000EE103AB8EEC00A01
:10152800B8EEC77A68EEC07A20EE090AE7EE097AC3
:10153800A7EE280AC7EE887AFDEEE77A17EE903A0A
:101548003B8080EE080AFDEEC07A17EE903A7B8069
:10155800C54B1B784BB1C54B00221A605A609A6084
:10156800C34B00221A605A609A60C24B3068BAF8BE
:101578006A210093C04B1D68C04B196800F16403D1
:10158800A847BF4BBF4993F80390BF4B1D78032D65
:1015980016D9D4F8E0315E88B6F5FA7F10D2BB4B85
:1015A800B1F90470B3F904000028B8BF4042724290
:1015B800131A9F4203DB3318BB42A8BF3B468B80FC
:1015C800D8F8003013F000630CD00020B1F802E026
:1015D800B1F800C0D4F8E081B1F904A0AC4E0246DD
:1015E800074676E0AB4A4E881370A84A0F88D08821
:1015F800D4F8E041B1F90410A74A9E46AE4502F17D
:10160800100280F0808194F9003052ED045ADFF81E
:10161800A4C25B424B4307EE903A3BB206EE903AC7
:1016280003B206EE103A33B2B8EEE77A07EE903A14
:10163800F8EEE77AB8EEC66A67EEA57A52ED065A72
:10164800E6EE257AF8EEE66A12ED056AE6EE867AA7
:1016580052ED036AE7EE267AFDEEE77A17EE903A46
:101668002CF81E300EF1010EC8E798F9001096ED1F
:10167800016A49420AFB01F107EE901A0FFA8EF34C
:1016880006EE903A0FFA8CF3B8EEE77A07EE903A46
:10169800F8EEE77AF8EEE66A67EE867A96ED026A81
:1016A800E6EE867A0DA90FFA82FBD6ED036AE7EE1D
:1016B800267AFDEEE77ACDED047ABDF8103021F8F0
:1016C800173019B2594507DD1A4603460137103657
:1016D8001846AF42C9D305E00FFA80FB5945F5DB40
:1016E8001346F1E7121A93B26C4E6D4AD7883268E6
:1016F800D20424D56B4A12689088B2F806E039B251
:10170800CEEB000C614506DCB2F800C0664A1268F0
:101718000121128808E086447145634952880968A6
:10172800B1F802C003DB002184F8A41200E01746D8
:10173800A4F8A6C2A4F8A822A4F8AA7204E05A4AF7
:1017480011680A88B1F802C052481FFA82FE1FFACF
:101758008CFCCEEB0C081FFA88F81BB20FFA88F243
:1017680093424FF0000119DD4FF0010C80F800C0E2
:10177800A9420BD20DF1340C3CF8110010FB08F013
:1017880090FBF3F02CF811000131F1E7022392FBF2
:10179800F3F30EEB030292B204920AE00170022105
:1017A80093FBF1F30EEB0302C3EB0C039BB292B273
:1017B8000493336894F8A4023A4E03F4805A03F071
:1017C80010030A93394BD6F800801B7803F0040302
:1017D800DBB2014606933448314B0068B3F906E0A2
:1017E800D4F8AC32324C09930026AE4280F08B809C
:1017F8000DAB33F9163007EE903A3BB206EE903A4D
:10180800234B03EB0613B8EEE77AF8EEE66AD3ED5E
:10181800007A13B266EEA76A07EE903AF8EEE77A16
:10182800F4EEE76AF1EE10FA0CD4BDF9103007EEC9
:10183800903AF8EEE77AF4EEE76AF1EE10FAD8BFDC
:10184800F0EE667A77EE277AFDEEE77ACDED0B7A41
:10185800BDF82C3024F8023F1BB2B9F1000F2BD091
:10186800B0F804C036E000BF0400002008210020C2
:10187800E43900205631002080030020781300202E
:101888006827002044210020C421002014210020C2
:10189800DC0A00205D3A0020E40A002058270020D6
:1018A800122F0020E0220020E4220020583A0020D5
:1018B8004213002044130020BAF1000F08D021B1D0
:1018C800B0F800C0B8F800B006E0B8F802C001E00F
:1018D800B0F800C0B0F802B0634503DB5B45A8BFB1
:1018E8005B469C460A9BA4F800C053B1069B43B1D3
:1018F800BAF1000F05D1099B1B8A9E45BCBF83889E
:101908002380013671E7A6490A7802F0040202F042
:10191800FF038B4612B9A34A12786EE0A24B1B68EC
:1019280013F0006308D0A14890F8B032013BDBB255
:10193800182B00F2AB816AE09D4ADFF868821668CE
:10194800DFF878E216F4805717D1BEF8003098F81F
:101958000000012181421AB207D23EF911309A42A1
:10196800B8BF1A4693B20131F4E792490968498829
:101978008A4204DD5B1A9AB202E01A4600E00022AD
:101988008D4B8E49B3F90640884BD3F8ACC28C4BCB
:101998001D68884B186898F800300EEB430E7145A7
:1019A800C1D0002F40F069840B889B1A9BB20B8032
:1019B800B0F802801BB2B9F1000F0AD0B0F804A049
:1019C800534503DB4345A8BF43469A46A1F800A008
:1019D80011E0B0F800A0534503DB4345A8BF4346D8
:1019E8009A46A1F800A0BCF810309C4203DAF3062E
:1019F80001D583880B800231D1E7934293D2714994
:101A080031F813006D4921F813000133F5E701227D
:101A18009A406D4B1340002B00F038816B4B6649A0
:101A28001B8813F4807F08D0694B1A88ADF83420DE
:101A38005A88ADF836209B8815E0664B1A88ADF8B1
:101A480034205A88ADF83620594A9B881268ADF878
:101A58003830D40409D5D0F8AC22B1F90640D2897F
:101A6800944202DA5B42ADF838305B4DB5F902308A
:101A78004FF47A7203F5E16353434FF4616493FBC7
:101A8800F4F3A3F5FA73ADF84C30B5F9003003F56B
:101A9800E1635A43494B92FBF4F21B88A3F2DC53EF
:101AA800A2F5FA72ADF83A30D0F8AC32ADF84E2063
:101AB800DB890A88D21AADF83C204A88D21AADF8D8
:101AC8003E208A88D21AADF84020CA88D21AADF8CA
:101AD80042200A89D21AADF844204A89D21AADF8B0
:101AE80046208A89D21AADF84820CA89D31AADF897
:101AF8004A300023394A002122F813100133082BF9
:101B0800F8D1294A364B12680492364A1B78126873
:101B180035490692354D072202FB0318414500F06E
:101B28009C800B783BB103F1150201239340049A82
:101B3800134000F08E8011F806EC069B11F805ACF6
:101B480011F8034C11F801CCCEEBCE0703EB470795
:101B58006420B7F90020B7F902309B1A9BB211F93B
:101B6800022C4FEA53095A434FEA4A0692FBF0F215
:101B780014A8C9EB020292B2064414B936F81C0C38
:101B88000CE0B5F9000036F91C6CB04230DA0444B8
:101B9800844203DBA6423046A8BF2046288030E0B6
:101BA800583A0020C4210020FC120020F808002028
:101BB80058270020E4220020122F00204413002080
:101BC800E0220020C22D002099209801F812002060
:101BD80014210020442100205C1300203013002031
:101BE800E822002098180020EF220020AA0B0020ED
:101BF80007DD041BB44203DB8442A8BF0446264623
:101C08002E80D7F80A4011F9046C012000FA0AF076
:101C18002042288812B216FB00F014BF4FF0FF34A0
:101C28000124642690FBF6F090420ADB4FFA8CF20E
:101C38005A4392FBF6F2C9EB020212B28242A8BFE3
:101C48000246A74B33F81E9002FB049423F81E406B
:101C580000E02B800235073160E7A24BA24E1F68D7
:101C680000250E2202FB057236F8023F92F9064063
:101C7800E8B214FB03F3642493FBF4F434800CF00F
:101C880009FD01352044082D3080EAD1974F944D45
:101C98003B68944E13F0200F32D000200CF0FAFC71
:101CA8002880044601200CF0F5FC914B68801B68E5
:101CB800190625D58F4B904AD3F8D4321B78012BBF
:101CC80022D13168138891F914E0B2F902201EFB81
:101CD80003F34FF0320C93FBFCF31FFA83FE91F9E8
:101CE80006305B4253436FF0310193FBF1F10EEB89
:101CF8000102A11893FBFCF37344298018446880FF
:101D0800D6F800E0002318E0D6F800E053889EF9E2
:101D1800061011FB03F1322391FBF3F121442980D2
:101D280011889EF9142012FB01F292FBF3F2104481
:101D3800E5E70133082B2A5311D00E2101FB03E1FB
:101D480035F91300B1F90020B1F9021090424FEAB9
:101D58004304EEDB0AB28242A8BF0246E9E7654CBB
:101D6800D4F8E09199F90830A3B994F8B08208F151
:101D7800FF33182B72D8DFE803F03571714F71719A
:101D8800714871717171715971717171714F6571AA
:101D980071593500DFF850A14FF00008574B3AF958
:101DA800021FB9F90620882000FB08300CF0A0FAC1
:101DB80032680E2380B203FB0822AAF80000B2F9A9
:101DC8000030B2F9022000B2984203DB13B283421A
:101DD800A8BF034608F10108B8F1080FAAF80030B7
:101DE800DCD1C2E799F8043013B10020698908E012
:101DF8009BF8003003F0040303F0FF00002BF4D13C
:101E080001460BF047FA012629E00020E9880BF08B
:101E180041FA0120298905E0002029890BF03AFAC6
:101E2800698901200BF036FA022618E00226B01E56
:101E380035F81610C0B201360BF02CFA082EF6D180
:101E480006260CE00326F01E35F81610C0B201363F
:101E58000BF020FA072EF6D1042600E000263B6896
:101E68009A0602D4B8F1050F0AD1304629880BF03A
:101E780011FA701CC0B269880BF00CFA0236F6B27F
:101E88003B68DB0205D494F818377BB10CF048FBAB
:101E98000CE0DFF8748000257019C0B238F8021F12
:101EA8000BF0F8F90D2DEED00135F5E7144B187845
:101EB800002840F006823B681D0340F1028294F836
:101EC8001937023B052B37D80E4B93F80038EBB186
:101ED800012B21D107F0BCFEC0F17F001CE000BF40
:101EE80030130020981800202E13002058270020B7
:101EF800FC120020F80800205C130020D00B002002
:101F08005C3A0020D02F0020182F0020AD4BD3F8CA
:101F18001C0703689B689847D4F8203794F824274F
:101F28001344B3F5807FA8BF4FF480738342D4BFB6
:101F3800C4F82037C4F8200794F81937023B082B57
:101F480000F29481DFE813F009003F006100770098
:101F58009000A2001F01760183019B4B1A68D4F8F8
:101F68002C3764339A4240F2818140200DF06AFF99
:101F7800002840F07B814027944BD4F82827914EC5
:101F8800985C1D4670B104F08FFAD6F82037013BF3
:101F9800C6F82037D6F82837013F03F10103C6F801
:101FA8002837E9D1D4F82827864BAA5C002A40F0C4
:101FB8005D81C3F828274FF0FF32C3F82C2703228E
:101FC80083F8192752E12A230093814B019303F1E7
:101FD8000C0202924920A3F10A025021023304F0B4
:101FE80055FE002840F042813B6813F080034FF013
:101FF800FF3205D0C4F82807C4F82C270423BFE013
:10200800C4F82837C4F82C272CE0724A0223002190
:10201800009301910291482002F1080304F036FE72
:10202800002840F023814FF0FF33C4F82C37C4F860
:1020380028070523A4E007230093674B019303F1C6
:102048000C0202924720A3F108020021043304F095
:102058001DFE002840F00A814FF0FF33C4F828071E
:10206800C4F82C3706238BE05C4A05230021009333
:1020780001910291532002F1080304F007FE0028A1
:1020880040F0F480C4F82807072379E040200DF0D9
:10209800D9FE002840F0EA80D4F828370C2B66D8FF
:1020A800DFE803F0070B0E1219252A2F33374550A6
:1020B80054004B480EF054F853E04A484A4913E09C
:1020C8004A484B494B4A4AE04B4B4C4893F8FE1759
:1020D80093F8FF2743E0484B494893F8D8270C2149
:1020E80001FB023393F8DA170EF03AF839E0424B65
:1020F8004448B3F84011F7E73F4B4348B3F842115F
:10210800F2E7424B42481969EEE7424B42481988C8
:10211800EAE7D4F83037D80404D5374B3F4893F86A
:102128007811E1E7274B0B22C3F8282719E0324B37
:102138003B4893F87C1193F87D2193F87B310EF09E
:102148000FF80EE03748B4F83417CDE73B681905A7
:1021580007D5294B3448B3F88011B3F97E210DF027
:10216800FFFFD4F828370133C4F828377EE00DF094
:10217800C9FE00287AD04FF48053A4F836370923D3
:1021880084F8193772E0294B1B689A0116D5B4F800
:1021980038370C4D93B9D5F83C370D93244B0E20A6
:1021A8001B680E930DA904F069FA4FF48053A5F843
:1021B8003637092385F8193704F0B8FA04F040FADD
:1021C80054E000BFF8080020642700208C9F010815
:1021D800F69F0108E4A10108FCA1010848A2010832
:1021E800C4C50108DEC50108F3C50108FBC501081F
:1021F8000FC601081BC60108D02F002024C60108FD
:1022080035C601083FC601084EC601083817002028
:102218005DC60108080000206DC6010877C60108E0
:1022280084C601089DC60108A8C60108FC12002042
:10223800BC1F002094F84037002BBDD0234B1B68EF
:102248009B01B9D4224B082283F81927B6E7214B02
:102258001A68D4F82C37C8339A4203D90DF038FEDF
:1022680001238DE70DF04EFE0028F7D10DF01AFE80
:1022780038B3012384F8193723E0BCF80E80EB88C3
:10228800C3EB080A544502DD43449C4213DB444532
:10229800C8BF6B88B1F90080D6BF8388B0F802A0A8
:1022A800B5F800A09845FFF6A5ABD0454346A8BFB2
:1022B8005346FFF79FBB4445CCBF6B882B88FFF77D
:1022C80099BB15B0BDEC0E8BBDE8F08FFC12002059
:1022D800F8080020642700202DE9F04FA34FA44CF4
:1022E8003A6802F59C432DED028B20332360A14B05
:1022F8001E7887B0D6B1A04909688A4240F20881A1
:10230800013E1E7004E1DFF890829C48D8F8003046
:10231800072D98BF595D9A4B88BF29461B68984777
:10232800032D09D904EB45050136A8800DF0BCF949
:10233800F5B28542E7D320E0D8F8002005F10E0376
:1023480002EB8303D9881A890028EBD04FF47A73FB
:10235800401A5843531A90FBF3F040F6C90300F5AE
:102368007A70984205DC40F2EE239842B8BF1846CE
:1023780001E040F6CA0080B2D4E7824B824E1B6867
:10238800D6F8008042F2010A03EA0A0ABAFA8AFA7F
:102398004FEA5A1A7D4BBAF1000F05D194F828205C
:1023A8001A707B4A517811701B782BB1784B93F8CF
:1023B800009089F0010900E099460F23DFF8F0B199
:1023C80084F8293000250DF06FF9854267DA6B0033
:1023D800B9F1000F03D06F4A32F8150000E0484603
:1023E8006D4ADFF8D0C11168CA8A82424FEA850E69
:1023F8006A4A02D8098B81421CD25CF80E005C49FB
:10240800804501D2D05A19E0E8B202928DE80A005C
:102418000DF064F9032D019B029A0FDC00994FF02F
:10242800010E91F829C00EFA05FE2CEA0E0E81F86D
:1024380029E003E008F596714CF80E10BAF1000F88
:1024480028D194F8BC100322B1FBF2F202EB42024D
:102458008A1A03EB050E5EFA82F204EB42025085FB
:1024680094F8BD202AB9022913D9414A012182F8DA
:10247800BD10BBF800203BF8020C1044BBF802204A
:102488001044474A80B2D05200B2032290FBF2F0C7
:1024980080B2424AD05201350BF1060B93E794F80B
:1024A8002920404BA2F10F014A424A4184F8D62024
:1024B8006AB13D4A1268520109D43268D9689A60F3
:1024C800521AC82A1FD9012283F821201BE0304A5A
:1024D80001215170117032689968DA605B68521A8C
:1024E8009A4282BF2F4B002283F8212000250DF04D
:1024F800DBF8854207DAE8B20DF0F0F8274B23F84D
:1025080015000135F3E794F8BC30013384F8BC308A
:102518001C4B1A6812F4805F984605D0224B1B6842
:10252800DE0701D410F0D6FC1B4B39681868837A93
:10253800002B41D0013B194D027B35F813301AB1FD
:10254800C3F53B6308339BB21BB2A3F57A73B3F5AB
:102558007A7FA8BF4FF47A7323EAE37307EE903AC1
:102568009FED127AF8EEE77A5FE000BFBC1F00200B
:1025780040100020602700205C270020E037002062
:102588007C0300205827002064270020981500208D
:10259800000000204410002054270020122F0020A3
:1025A800FE10002068270020FC12002000007A445A
:1025B8006C100020B4100020D8F80020150440D575
:1025C800D4F8D820934E8A1A002A3ADB01F59C42A7
:1025D8002032C6F8D820904AC07A55798F4A32F806
:1025E800152096F8DC50013592B292FBF0F205F016
:1025F8000F0086F8DC00304480F8DD201A46884851
:10260800185C01330244102B92B2F8D112B292FB3B
:10261800F3F31BB2642BA8BF642323EAE37307EE2A
:10262800903A9FED807AF8EEE77AC7EE877A7E4A8D
:102638009FED7E7A67EE877AFCEEE77A17EE903A9E
:102648001380D8F800307A4D13F4807F00F00981A8
:10265800784BDFF8E491994205D999F8022012B92C
:10266800012289F8022099F80220002A00F0F98056
:10267800714A2F7892F82160721E564256416F4A6D
:102688001168002EC1F38063C7F380070093924658
:1026980014BF4FF0000B4FF0030B99F82020052AC8
:1026A80000F2D980DFE802F0034D527584A1002FB3
:1026B8003AD0D4F8F000B4F8F4100BF0A3FC0128D9
:1026C80009D15F495F4A09681268C988642000FB1C
:1026D8000122C9F81020009B6BB1594A126812797F
:1026E8004AB110F025FF032289F820204FF47A72AE
:1026F800C9F81C20D1E7002E40F0AD80514AD9F826
:10270800101010684C4A88420AD9019210F010FF44
:10271800019A032182F8201040F6B831D161BCE754
:10272800012182F82010B8E7009B4FF4806013B1B4
:1027380004F08AFF01E004F077FF0022C9F81020B6
:1027480089E0002E46D110F0F3FEA6E726B1052257
:1027580089F82020012000E0304667B1D4F8F02045
:10276800D189394A11805180918035490968498851
:10277800D1804FF0020B334A1168D9F814209142E6
:1027880001D8002F64D147F23052C9F81C20032227
:1027980021E02A7842F002022A7010F09BFB294AB5
:1027A800D9F81C1012680A44C9F81820042212E04B
:1027B800244A9EB11168D9F8182091424BD9234A6E
:1027C80092781AB9DAF80020D30744D42A7822F08C
:1027D80002022A70052289F820205EE71268D9F8DB
:1027E8001C100A44C9F8182035E01549154A09682B
:1027F8001268C988642000FB0122C9F810204FF430
:102808008060002289F8202089F8032004F00CFF5A
:1028180043E700BF40100020AC260020BC26002063
:102828001D1100200000C8427013002000C07F4422
:10283800583A0020404B4C0068270020FC1200202A
:10284800003A002064270020122F002000000020FA
:1028580000287FF422AFBBF1000F02D058460BF0DE
:1028680083FCA64EA64FB6F84E1106F5C3700BF0C2
:10287800C9FB824630BBA34B1B6813F0006908D024
:10288800FB7833B907F04EFD9F4B012818BF002095
:1028980018702B78580708D5D8F80030D90604D412
:1028A800B9F1000F01D0FB785BB3984B1B6803F5B7
:1028B8007A730122C4F8F830934B3A71FA70002207
:1028C8001A701EE0D8F80030DA0615D42B785B07AA
:1028D80012D58C4B1B6818010ED5FB7863B18B4B56
:1028E8001A68D4F8F8309A4209D907F01BFD30B9B4
:1028F800854BF870187002E0834B00221A70002391
:102908003B712B78590735D5D8F80030DA0631D520
:102918007F4B1B78DB062DD4BB7893B196F8E0315A
:10292800BAF1000F15D17BB1784B1A68D4F8FC3096
:102938009B1A002B08DA10F0CDFA764B83F800A129
:1029480018E0BAF1000F0DD110200BF00DFC012397
:102958000EE03BB16D4A12684FF47A7101FB032314
:10296800C4F8FC3094F8003123B10BF0E5FB0023E8
:1029780084F80031002296F8DEB196F8DF11B6F837
:1029880096E1B6F898C11346DFF8A091CDF800900B
:1029980039F912009B087045C4BF63F07F03DBB2AE
:1029A80001326045B8BF43F04003042AECD194F8E3
:1029B800012158489A4205D190F80221F92A04D8F1
:1029C800013200E0002280F8022184F80131BB784E
:1029D800504ADFF8309133BBD9F80000C0070AD558
:1029E80082F80331BAF1000F1DD12B78DB071AD515
:1029F80010F0A6F817E02B78580714D5464B1B782B
:102A08008BB1464BDB7873B992F803310133DBB2F3
:102A1800032B82F8033106D911B110F05BFA02E0FA
:102A2800BAF1000FF9D094F802313A4ADFF800A160
:102A3800142B40F0A680BB781BF1000B18BF4FF099
:102A4800010B6BB392F801315F2B11D12B7803F096
:102A5800040303F0FF0113B110F03CFA08E00B2067
:102A6800029101920BF080FB019A029982F80211FF
:102A7800BBF1000F14D094F801317D2B10D12B78C5
:102A880003F0040303F0FF0213B110F023FA07E088
:102A98000B2001920BF068FB1E4B019A83F8022170
:102AA8002B7803F0040303F0FF01002B69D194F89D
:102AB8000131184A572B11D1194B4FF47A721A80E9
:102AC800D8F800301B0601D506F06EFE154B1B68C2
:102AD8005F0756D5144B0A221A8052E0D8F8000036
:102AE800400734D55A2B32D192F8043113B301235D
:102AF80082F8041182F8053143E000BFD02F00208E
:102B080000000020FC1200205E3A0020642700200C
:102B18007C13002040100020981500206827002012
:102B2800503A002064170020523A0020122F00204B
:102B38004013002092F8063183F0010382F8063131
:102B48000BB10C2000E00D200BF00EFB19E05D2B03
:102B580000F05D855B2B00F05C855E2B02D10320C5
:102B680000F058BD562B01D105F01CF8BB78002B9E
:102B780000F0638594F801316F2B40F058850FF011
:102B8800DFFFD8F80030580738D594F80631B94A2D
:102B98009BB12B78590710D5009BB3F90610B6F8EE
:102BA8009631994209DDD9F8003013F0010302BFCC
:102BB8003221A2F80A1182F80631D9F80030DA0376
:102BC8000DD594F80C21AB4B2AB993F8042112B90E
:102BD8003222A3F80A21012384F80C310EE094F87C
:102BE8000431A44A53B12B7803F0040303F0FF0126
:102BF80023B9012382F8041182F80531DAF800A01C
:102C08000023C9F800300AF187070AF1D70B3A7890
:102C18007B7817F8010C9A420DD2394605F002FE6E
:102C280048B117F8022C012303FA02F2D9F8003050
:102C38001343C9F8003004375F45E8D18E4B1B7841
:102C48004BB18E4BDFF850A21A6812F0020F99466A
:102C580040F03A8331E30AF1D6070AF58F793A78DA
:102C68007B7817F8010C9A4225D2394605F0DAFD2F
:102C780008B3BB7897F804C0814A97F803A07D4849
:102C88000C21013B01FB0C4103EB43031344D1F836
:102C980014219A420FD0C1F81431002390F8402132
:102CA800C1F81831012303FA0CF322EA030381F86F
:102CB80010A180F8403106374F45D0D1714B1F68BD
:102CC800714B1B680293714B1B780393704B0193F4
:102CD80000230093019B1B68002B00F0E38293F80C
:102CE80000A0BAF1000F00F0DD82019A0299526843
:102CF8008A1A002A0CDB01F5FA7201994A600099D8
:102D080001228A4094F8401121EA020284F8402105
:102D1800039A002A00F0C682019A597812F8042C06
:102D28000432D2B2002940F07C825A4931F912109B
:102D3800B6F8942102F1C800814202DD93F802B08E
:102D480015E0C83A914203DA9978C1F1000B0EE018
:102D5800009A0123934094F8402122EA030384F85F
:102D68004031029B019A03F5FA7353609AE294F892
:102D78004031009A1341DB0700F19482BBF1000F48
:102D8800CCBF022001200BF029FA0AF1FF33DFF84B
:102D9800E490132B00F27E82DFE813F01400250084
:102DA80037004B0064008600E9004C01B301E101E3
:102DB80011027C024B005A008600E9004C01BB005E
:102DC8001E01830197F80090D944B9F1FA0FA8BF02
:102DD8004FF0FA0929EAE979384687F8009005F0B2
:102DE80007FD01200FE097F80190D944B9F1640F6D
:102DF800A8BF4FF0640929EAE979384687F80190B5
:102E080005F0F6FC02204946D6E197F803A0DA441B
:102E1800BAF1640FA8BF4FF0640A2AEAEA7A87F881
:102E280003A03846D9F8441105F098FC0320514610
:102E3800C2E1797959446429A8BF642121EAE17182
:102E480079710D200BF00EF9BAF10D0F00F0228206
:102E5800397959446429A8BF642121EAE17139719B
:102E68000E20A9E1B979594481F30801B971052007
:102E7800A2E100BF401000205C3A0020FC120020B4
:102E880070A20108781300206427002098150020FC
:102E980054110020122F00206417002000007A44EB
:102EA8000000C84200000000D9F848311A78022A08
:102EB80020D107EE90BAB8EEE70A5FED077A93EDF6
:102EC800097A80EE270A30EE070AB5EEC00AF1EE5D
:102ED80010FA07D4B4EE670AF1EE10FAC8BFB0EEE4
:102EE800670A01E01FED110A83ED090A0F200BF0B4
:102EF800A3F80AE099785944C829A8BFC82121EA4B
:102F0800E17199700F200BF0ADF8BAF10F0F00F0D6
:102F1800C181D9F848311A78022A1ED107EE90BA31
:102F2800B8EEE78A5FED227A93ED080A88EE278AE1
:102F380038EE000AB5EEC00AF1EE10FA07D4B4EE86
:102F4800670AF1EE10FAC8BFB0EE670A01E01FED9C
:102F58002B0A83ED080A122056E159785944C829EA
:102F6800A8BFC82121EAE1715970122024E1D9F8DB
:102F780048311A78022A20D107EE90BAB8EEE70A4B
:102F88005FED397A93ED0C7A80EE270A30EE070A66
:102F9800B5EEC00AF1EE10FA07D4B4EE670AF1EE06
:102FA80010FAC8BFB0EE670A01E01FED420A83EDD0
:102FB8000C0A10200BF040F80AE0197B5944C82984
:102FC800A8BFC82121EAE171197310200BF04AF853
:102FD800BAF1100F00F05E81D9F848311A78022A48
:102FE8001ED107EE90BAB8EEE78A5FED537A93EDFB
:102FF8000B0A88EE278A38EE000AB5EEC00AF1EE11
:1030080010FA07D4B4EE670AF1EE10FAC8BFB0EEB2
:10301800670A01E01FED5D0A83ED0B0A1320F3E058
:10302800D97A5944C829A8BFC82121EAE171D972BF
:103038001320C1E0D9F848311A78022A22D107EEC4
:1030480090BA1FED6A0AF8EEE77A87EE800AD3EDA8
:103058000F7A30EE270AB5EEC00AF1EE10FA09D45D
:103068005FED717AB4EE670AF1EE10FAC8BFB0EE00
:10307800670A01E01FED750A83ED0F0A11200AF0B7
:10308800DBFF0AE0997D5944C829A8BFC82121EA75
:10309800E171997511200AF0E5FFBAF1110F00F0FE
:1030A800F980D9F848311A78022A20D107EE90BA67
:1030B8001FED860AB8EEE78A88EE008A93ED0E0ABD
:1030C80038EE000AB5EEC00AF1EE10FA09D45FED49
:1030D8008C7AB4EE670AF1EE10FAC8BFB0EE670A50
:1030E80001E01FED900A83ED0E0A14208CE0597D53
:1030F8005944C829A8BFC82121EAE171597514208B
:103108005AE0D9F848311A78022A1ED107EE90BA47
:10311800B8EEE78A5FED9E7A93ED0A0A88EE278A71
:1031280038EE000AB5EEC00AF1EE10FA07D4B4EE94
:10313800670AF1EE10FAC8BFB0EE670A01E01FEDAA
:10314800A70A83ED0A0A09205EE0D9785944C829FC
:10315800A8BFC82121EAE171D97009202CE0D9F86B
:1031680048311A78022A1ED107EE90BAB8EEE78ADB
:103178005FEDB57A93ED0D0A88EE278A38EE000ADE
:10318800B5EEC00AF1EE10FA07D4B4EE670AF1EE14
:1031980010FAC8BFB0EE670A01E01FEDBE0A83ED62
:1031A8000D0A0A2030E0597B5944C829A8BFC82114
:1031B80021EAE17159730A200AF054FF6AE0D9F84C
:1031C80048311A78022A22D107EE90BA1FEDCD0AAB
:1031D800B8EEE78A88EE008A93ED100A38EE000A06
:1031E800B5EEC00AF1EE10FA09D45FEDD37AB4EE69
:1031F800670AF1EE10FAC8BFB0EE670A01E01FEDEA
:10320800D70A83ED100A0B200AF016FF42E0D97D99
:103218005944C829A8BFC82121EAE171D9750B20F2
:10322800CAE7012936D19878BB4B33F91230B3F588
:10323800617F05DB40F633029342A8BF134601E0E5
:103248004FF46173BAF10C0F24D14FF4966292FBDC
:10325800F0F0B24AA3F5617393FBF0F35FFA83F9D8
:1032680013784B4516D0B9F1040F34BF4B460223EF
:103278001370AB4A0AFB036303F2DA7313600CF0B2
:10328800A8FA504649460AF0EDFE09F10100C0B21D
:103298000AF0A4FF009A0123934094F840211343B5
:1032A80084F84031009B01330093019B0C33019358
:1032B800009B042B7FF40EADC3E4D8F80030D8058A
:1032C8000FD5984BDB7863B1DAF80030990708D549
:1032D800954B1B8813F0010708D1012004F0B4F9BD
:1032E80004E0012004F0A0F9012300E00023D9F84C
:1032F800002052070BD553B1012004F095F98A4BF1
:103308001B889B0706D4022004F09EF902E00220E5
:1033180004F08AF9DAF8003013F00A0F32D0D9F83D
:103328000030DF060FD5804B1B8858070ED40420C9
:1033380004F08AF97D4B0A22B3F9043093FBF2F3C7
:10334800A4F84C3102E0042004F06EF9D9F80030FA
:10335800990607D5744B1B885A0606D4402004F0FA
:1033680073F902E0402004F05FF9D9F800305B06F9
:1033780041BF6E4BB3F904300A2293FBF2F348BF06
:10338800A4F84E31DAF800309F0609D4D9F8003095
:10339800180540F19A804FF4807004F055F998E0D0
:1033A800634BDFF884B11B7813F0020F55D0614BE3
:1033B8001B78042B51D9D9F8003013F400730FD0BF
:1033C800BBF80030D9063CD4102004F03DF9202089
:1033D80004F02AF95848011D06F03AF902232CE0B6
:1033E800BBF8007007F01007BFB23FB11020009380
:1033F80004F01AF9009B84F850310127D9F80030FD
:103408005A0512D5D4F854314C495A89B1F90030CB
:10341800002BB8BF5B42934207DAB1F90230002BA8
:10342800B8BF5B429342C0F25B81BBF800309B0699
:1034380008D5202004F0F8F8002384F8503101273B
:1034480000E0002794F85831BBB90E200AF08CFE32
:103458003B4B012283F858210FE0BBF8003003F002
:103468003003002B92D0102004F0DEF8202004F066
:10347800DBF8002384F8503101E0002F86D0314B6F
:10348800002003F1280E03F150072F4A002122F8EB
:1034980010102E4A596022F810100432CEF8041089
:1034A80022F8101000221A609A60CEF80020CEF898
:1034B80008203A607960BA6014330EF1140E14379C
:1034C80000287FF463AF0120DFE74FF4807004F039
:1034D800ABF87379082B01D00E2B02D1402004F0F1
:1034E800A3F8D8F800305F0538D596F81C321BB918
:1034F8002B7813F0040F03E0D9F8003013F4002FF1
:1035080028D0134B00221A703C2006F0D6FE28B3B0
:103518000EF050FBF8E700BF122F0020C02D00204E
:103528007813002068270020F81200205C13002080
:103538007C1300207D130020941300201421002008
:10354800401000209C110020543A00201412002042
:10355800F417002008F070FE0FF001FA012384F838
:10356800DC3194F8DD310BB3DAF800305D071DD596
:10357800D9F80030180703D4082004F055F815E0EE
:10358800654B1D8805F00805ADB27DB9082004F02B
:103598005BF8624B1A68624B1A60624BDA88624BBE
:1035A800A3F8DE21614B1D60614B1D6094F8DD318D
:1035B800002B00F0AB80DAF80030D90640F1A68085
:1035C800D9F800309A0208D44FF4007007B0BDEC67
:1035D800028BBDE8F04F04F027B84F4B1C8804F469
:1035E8000074A4B2002C40F091804FF4007004F0F5
:1035F8002BF84A4B1A684A4B1A604A4BDA884A4BEE
:10360800A3F8DE21494B1C60494B1C607EE0012079
:1036180000E00220C7B27B1E86F8D83704F05EF8B7
:1036280004F0F6F838460AF0D9FDFFF7AABABBF15C
:10363800000F02D07E2B3FF4A2AA94F80131972BF9
:1036480006D1394B4FF4C872A3F80821FFF799BA8D
:10365800A72B06D1374A137843F004031370FFF7FA
:1036680090BA0022BB2B059201D1022303E0B72BAD
:1036780004D14FF6FE73ADF8163009E0BE2B01D128
:10368800022303E0BD2B1AD14FF6FE73ADF81430B8
:10369800DAF80030BDF81410B3F864200A44A3F82F
:1036A8006420BDF81610B3F866200A44A3F8662013
:1036B80004F078FA002384F80231FFF762BA792B14
:1036C80004D11D4AD37823F0010306E07A2B7FF456
:1036D80058AA194AD37843F00103D370FFF751BAB7
:1036E800BBF800309B063FF5ADAE202003F0ACFFE1
:1036F8001248134B011D1A685B684360026005F0AD
:10370800A7FF094B012783F850719BE607B0BDEC72
:10371800028BBDE8F08F00BFF81200206413002070
:10372800A4130020122F002040100020FC1F0020AE
:10373800002000207C130020541800209C13002037
:10374800801300202DE9F04F2DED028BB44E8DB083
:1037580034780196002C00F0AB80B24B1A6898467A
:10376800002A01F08C80D8F800000AF0BBFD002880
:1037780001F08580AB4BAC4C18680AF0B0FD092805
:1037880001D03F284AD14FF0000A2668A74D574676
:103798002EB1A7482968324616F052FB10B9AA463E
:1037A80007B92F46A34B10359D42F1D3C7B1D7F8BF
:1037B80000E0DAF800C023681EF803501CF8030084
:1037C800A8420DD15A1C9A4938B92D2B05D8964DC7
:1037D8002A602025CD54885402E0CD542260EAE7BF
:1037E80023680BB1574510D093480EF0EDFA5745B2
:1037F80007D857F8100B0EF0E7FA09200EF0DCFA9C
:10380800F5E78E480EF0E0FA002623689E42AAD219
:10381800874B985D0EF0D0FA0136F6E72368002B47
:1038280040F09F87042841F00F80814807F03EFF51
:1038380001F025B8DFF834A2DAF800000AF052FDEA
:1038480028B3DAF800000AF04AFDD9F8003093F8F6
:1038580048208346002A3AD1242871D1012283F8CE
:103868004820D9F80030DFF8E8A193F848B0BBF158
:10387800060FDFD193F8490001F00EF8002800F098
:1038880085800EF0E3F92B68002283F848206C4B02
:103898001B794BB1385904F013FE0AF093FE03F07C
:1038A800F3FE684B684ADA604C34982C00F0E787DE
:1038B800664FE31993F84A20012AF5D1644DDFF8E1
:1038C800AC812B60E359C8F80030A946B2E7012A59
:1038D80004D14D2814BF00220222C0E7022A04D1D5
:1038E8003C2814BF00220322B9E7032A0AD1402842
:1038F8004FF000029FBF1A71DA715871987198BF22
:103908000422ACE7042A08D19A7983F8490080EAAE
:10391800020B83F806B00522A1E7052AA1D159793F
:103928001A799142997906D941409971511C1971B6
:103938001344187295E781420CBF062200228EE7D5
:10394800444E327853078CD42328DAF8002010D15B
:10395800019B41480121197032490A6038490A60BF
:103968000EF032FA35480EF02FFA327842F00202A1
:1039780032703A4B1B681B785B4501BF384B394A9C
:103988001A60304B04BF304ADA606AE7DAF8002080
:1039980092F849304C2B00F0E38400F2BA80352BC2
:1039A80000F0CB8264D82B2B00F0B28421D8252BD1
:1039B80000F0878404D8232B00F0838200F0CDBE6A
:1039C800272B00F08584292B40F0C7860EF01CF9C0
:1039D800254EA6F87E010EF017F9A6F880010EF024
:1039E80009F986F882010EF00FF9A6F8840100F0B3
:1039F800AFBE2F2B00F02F8504D82D2B00F08D841F
:103A080000F0ABBE312B00F05385332B40F0A58678
:103A18000EF0F0F8144B83F8900100F099BE00BF47
:103A28005C3A0020E42D002090180020E4AA010848
:103A380060180020C4AC0108CBC70108D0C7010832
:103A48002012002000ED00E00400FA05382F0020C5
:103A5800DC2D0020583A002000C80108F01700208B
:103A6800FC9F0020EFBEADDED02F0020E02D00200F
:103A7800412B00F0AF8419D8392B00F0378404D8D3
:103A8800372B00F0B48400F068BE3C2B00F0DD80DA
:103A98003E2B40F062860EF0ADF8C54E86F8E00188
:103AA8000EF0A8F886F8DF0100F052BE442B00F0B3
:103AB800348526D8432B40F050860EF09BF8BC4E38
:103AC8000023B36070710EF0A9F803F0D5FD0EF075
:103AD80091F886F88E010EF097F8A6F858010EF0C6
:103AE80093F8A6F85A010EF08FF8A6F85C010EF0CC
:103AF8008BF8A6F87E010EF087F8A6F8800100F092
:103B080027BE482B00F07A834A2B00F0218600F06C
:103B180024BED12B00F0998320D8CC2B00F033821F
:103B28000FD8C82B61D004D84E2B00F0278400F0A2
:103B380014BEC92B00F06583CA2B00F09D8000F0ED
:103B48000CBECE2B00F04B83C0F03F83CF2B00F090
:103B58006482D02B00F02D8300F0FFBDD82B00F03D
:103B68003D810BD8D32B3AD025D3D42B00F09D829E
:103B7800D62B40F0F2854FF000088BE2F22B00F0D4
:103B8800EF8210D8EF2B40F0E8858A4ED6F80090E7
:103B98000EF03AF8A9F8660036680EF035F8A6F87F
:103BA800640000F0D5BDF32B00F0BB84FA2B00F0C5
:103BB800208300F0D2BD804B1B7803F0040303F090
:103BC800FF08002B40F0C4850EF014F8784B02284B
:103BD80083F8D80740F2F48283F8D887F0E20EF031
:103BE80013F8764B188000F0B3BD92F805804FEAC1
:103BF8005808B8F1120F03D906F0B2FB00F0A8BDBF
:103C08004FF00009C14507D20DF0FEFF03AB23F8C2
:103C1800190009F10109F5E742460023434507DA8F
:103C280003A931F81300664921F813000133F5E7B9
:103C3800122A05D0624B002123F812100132F7E74F
:103C4800604B01221A7000F083BD5A4ED6F80090DE
:103C58000DF0D0FF18B10228A8BF022000E0012013
:103C680089F8000033681B78022B574B14BF574A5A
:103C7800574A1A6000F06CBD4E4B1A681278022A37
:103C88004FF00009984673D1D8F800600DF0B2FFE4
:103C980007EE900AF8EE677AB2EE048AC7EE887AE1
:103CA80006EB890AD8F80060CAED087A0DF0A2FF81
:103CB80007EE900A9FED477AF8EE677A06EB890AD5
:103CC800C7EE877AD8F80060CAED0B7A0DF092FF3C
:103CD80007EE900A9FED407AF8EE677A06EB890ABC
:103CE800C7EE877A09F10109B9F1030FCAED0E7A17
:103CF800CAD1B9F1070FD8F800601CD10DF07AFFCE
:103D080007EE900AF8EE677AC7EE887AC6ED117A60
:103D1800D8F800600DF06EFF07EE900AF8EE677AAB
:103D2800C7EE887AC6ED127AD8F800600DF062FF07
:103D380086F84C0015E00DF05DFF06EB090A8AF8DD
:103D48000100D8F800600DF055FF06EB090AD8F815
:103D580000608AF80B000DF04DFF06EB090A8AF89F
:103D6800150009F10109B9F10A0FC2D100F0F0BC40
:103D7800D8F800600DF03EFF06EB090A8AF801004A
:103D8800D8F800600DF036FF06EB090AD8F8006095
:103D98008AF80B000DF02EFF06EB090A09F101095C
:103DA800B9F10A0F8AF81500E2D100F0D1BC00BFC2
:103DB800D02F002040130020583A00208C110020FA
:103DC8007C250020952D00208003002095DC00082C
:103DD800713001080000C84200007A448046D64E7F
:103DE8009FEDD68AD6F800A00DF00EFF07EE900AD8
:103DF800F8EE677A0AEB880AC7EE887AB146CAED08
:103E0800087AD6F800A00DF0FFFE07EE900AF8EE4B
:103E1800677A0AEB880AC7EE887ACAED0B7AD6F871
:103E280000A00DF0F1FE07EE900AF8EE677A0AEBB3
:103E3800880AC7EE887A08F10108B8F1030FCAEDBD
:103E48000E7ACCD1B8F1070FD9F800601CD10DF06B
:103E5800DBFE07EE900AF8EE677AC7EE887AC6EDC1
:103E6800117AD9F800600DF0CFFE07EE900AF8EE4F
:103E7800677AC7EE887AC6ED127AD9F800600DF035
:103E8800C3FE86F84C0015E00DF0BEFE06EB080AEE
:103E98008AF80100D9F800600DF0B6FE06EB080AB2
:103EA800D9F800608AF80B000DF0AEFE06EB080AA0
:103EB8008AF8150008F10108B8F10A0FC2D100F01C
:103EC80047BC0DF097FE132881463FF695AEDFF804
:103ED80068A2DAF800600DF08DFE002398490C22E4
:103EE80002FB0312117A814223D10FFA89F906EBFA
:103EF8008908137888F885300DF07CFE88F88600EC
:103F08000DF078FE88F887000DF074FE8D4B8E4A10
:103F18001A6088F888008D4BDAF8000018600021D4
:103F2800853004F0B9FC8A4B80F00100187000F06D
:103F38000FBC01331D2BD1D15EE60DF05BFE0B28C3
:103F480080463FF659AE7C4B1E680DF053FE0328A1
:103F58003FF652AE0BFB086B8BF8DA000DF04AFE09
:103F68008BF8D5000DF046FE8BF8D6000DF042FE1A
:103F78008BF8D7000DF03EFE8BF8D8000DF03AFE16
:103F88008BF8D900E4E35379092B7FF635AE714EEF
:103F9800D6F800900DF02EFE89F80000D6F80090B3
:103FA8000DF028FE89F801000DF024FE336864281E
:103FB800A8BF642018710DF01DFE33686428A8BFDF
:103FC800642058710DF016FE3368FF28A8BFFF2043
:103FD80098710DF00FFED6F80090642828BF642071
:103FE80089F807000DF006FE89F80200D6F800905F
:103FF8000DF000FE89F80300D6F800900DF004FEDD
:10400800DAF80030A9F80A005B790A2B40F2A0839D
:1040180036680DF0EFFD30729AE30DF0F5FD6FF4A0
:10402800AF6E00EB0E039BB24B4EC62B98BFA6F8A3
:1040380094010DF0E9FDA6F840010DF0E5FDA6F8A4
:1040480042010DF0E1FDA6F844010DF0DDFDA6F8F2
:10405800D8010DF0CFFD86F8ED010DF0CBFD0DF088
:10406800C9FD86F8EE010DF0C5FD86F883010DF057
:10407800C1FD86F890010DF0BDFD2F4BD3F80090DF
:104088000DF0C2FD00EB80004000A9F862000DF0C1
:10409800B1FD2EE10DF0B8FD304B23F8180008F102
:1040A8000108B8F1080FF5D152E353790F2B7FF4CB
:1040B800A3AD0DF09FFD072880463FF69DAD1E4E2F
:1040C800D6F800A00DF0A0FD0E2303FB08F8C244AB
:1040D800AAF82501D6F800A00DF096FDC244AAF86A
:1040E8002701D6F800A00DF08FFDC244AAF82901D7
:1040F800D6F800A00DF07EFDC2448AF82B01D6F850
:1041080000A00DF077FDC2448AF82C01D6F800A073
:104118000DF070FDC2448AF82D01D6F800A00DF00C
:1041280069FDC24436688AF82E010DF077FDB04467
:10413800C8F82F010CE300BF4013002000007A44A8
:10414800DCA2010884110020103100208811002011
:104158000200002078130020D02F0020C22D00205C
:104168000DF048FD0F2880463FF646AD0DF042FDA4
:10417800C24BC8EBC808984488F8D0000DF03AFD47
:1041880088F8D1000DF036FD88F8D2000DF032FD28
:1041980088F8D3000DF02EFD88F8D4000DF02AFD24
:1041A80088F8D5000DF026FD88F8D6000AF04AFAFE
:1041B800CEE2B34B1B785E0700F1CA820BF050FBCE
:1041C80003F08CFA03F024FBC2E2AD4B1B785807CE
:1041D80000F1BE82AB4B4FF4C8721A80B8E2A84B0C
:1041E8001B78590700F1B482A74A137843F00403F7
:1041F80029E0A34B1B785A07E2D5AEE20CF05EFA31
:10420800A6E20DF0F7FCA04B1A7810B142F00202BA
:1042180001E022F002021A700DF0ECFC9B4B9C4E60
:1042280018700DF0FBFC30600DF0F8FC70600DF0BC
:10423800EBFC984B18800DF0E7FC974B974A1880D9
:10424800137843F00203137082E20DF0D3FC834627
:104258000DF0E4FC82460DF0E1FC81460DF0DEFC39
:1042680006460DF0D1FC0DF0CFFC0DF0C3FCBBF100
:10427800000F12D18A4B1020C3F800A0C3F8049095
:1042880003F0D2F9804A137843F001031370002E2B
:1042980000F05E82834B1E605AE2BBF1100F40F0C3
:1042A8005782814BC3F800A0C3F804900EB17D4B30
:1042B8001E607D487D4B0222011D1A7005F0C8F969
:1042C80046E26E4B98600DF0A9FC03F0D5F93FE289
:1042D8000DF09AFC694EA6F858010DF095FCA6F869
:1042E8005A010DF091FCA6F85C0131E20DF082FC58
:1042F800624E86F878010DF07DFC86F87C010DF0A1
:1043080079FC86F87B010DF075FC86F87D011FE2CB
:104318000DF070FC594B58711AE20DF06BFC574EBA
:1043280086F88E010DF070FCA6F898010DF06CFC73
:10433800A6F894010DF068FCA6F896010DF05AFC59
:104348002B6886F88F015B79082B40F201820DF00B
:104358005BFCA6F89C010DF057FCA6F89E01F7E15E
:104368000DF048FC454E86F8D6010DF043FC86F862
:10437800D7010DF049FCA6F8D801E9E192F80580CB
:104388000323B8FBF3F8B8F1120F3FF635AC3B4EF8
:104398004FF0000AC24580F0DB810DF02BFC86F857
:1043A800A0010DF031FC40F2ED23984205DD40F606
:1043B800CA039842A8BF184601E040F2EE20A0F2D6
:1043C800EE2019230AF1010A90FBF3F0023686F871
:1043D8009F01DFE780460DF00DFC284B434408F1B0
:1043E8000108B8F1080F83F88601F4D1B0E15379D8
:1043F8004FF00708B3FBF8F8C8EBC8029B1A13F094
:10440800FF0F7FF4F9AB5FFA88F808F1FF385FFA1D
:1044180088F8B8F1FF0F00F09B810DF0EBFB5FFA15
:1044280080FA4FFA8AF004F0B9F8064600283FF4FB
:10443800E3AB80F800A00DF0E7FB70800DF0DAFB2D
:1044480030710DF0D7FB70710DF0D4FBF0710DF0E9
:10445800D1FBB071D9E7094E06F140090DF0D4FB44
:10446800A6F8AC020DF0C6FB86F8AE020DF0C2FB52
:10447800043686F8AB024E45F0D169E1D02F002012
:10448800583A0020481100207C1300207D1300209A
:1044980080130020881300208A1300209213002024
:1044A80094130020A41300209C13002090110020D6
:1044B8000DF0A0FB1F2880463FF69EAB2B685B796A
:1044C800082B7FF499AB0DF09FFBC44B08F18A08C9
:1044D80003EB880800F03F00A8F806000DF094FBF5
:1044E800B8F80630800100F4FE501843A8F806001A
:1044F8000DF080FB000188F804000DF07BFB98F8B4
:10450800043000F00F00184388F804000DF072FB27
:1045180088F805000CF06CFA1AE1B14B01221A7107
:1045280016E10DF067FBFF288246DFF8B49266D1EA
:104538004FF0000809F108004146602289F805801B
:1045480015F036FC8DF80B809DF80B3099F86A2031
:10455800A34E9A424BD99DF80B3006EBC30393F850
:104568006D30DB073CD59DF80B3006EBC30393F8A1
:104578006C209C4B33F91230002B31DD9DF80B3049
:1045880096F8058006EBC3034FEAC80E1B6F586800
:104598009DF80B3006EBC30A06EB0E01DAF8703013
:1045A80088601A89CA8192B2002101238B40134086
:1045B80003D101311029F8D100E00B4609EB0E01B7
:1045C80008F101088B8104238DF80E3003A901231B
:1045D800ADF80C208DF80F300AF0DCF989F8058069
:1045E8009DF80B300133DBB28DF80B30ACE70120BE
:1045F8000DF050FB70790DF01AFBFFF742B999F8EE
:1046080005309842BFF4F8AA00200DF043FB0DF0E6
:104618001DFB2B68186803F053FFD8F800000DF055
:10462800C9FA09F089FD72B64FF0904B4FF48063D8
:104638004FF40076ABF828304FF00108ABF828604B
:104648005846ADF80C3003A904238DF80E308DF8C8
:104658000F804FEACA0A0AF09DF9584603A9ADF837
:104668000C608DF80E808DF80F800AF093F909EB35
:104678000A00816883890A6803FA08F308FA03F3D1
:1046880013430B60C3898B61CBF818604FF09043DC
:104698001B8A5805FAD409EB0A0301229868B3F873
:1046A8000CE001684FEA4E0E02FA0EF20A4302606D
:1046B8009A68DB8913854FF090424FF40071118599
:1046C8000821C2F8181440F605584FF0904BBBF873
:1046D8001020510505D4B8F1000FF6D008F1FF38C5
:1046E800F3E78361ADF80C3004238DF80E3003A98D
:1046F80001238DF80F300AF04DF9B8F1000F16D0EC
:104708004FF090431A8A5205C5D509EB0A014FF4B8
:1047180000708A68C989128A1142334A18BF9861A1
:104728004FF008010ABF188591611185E8E74FF439
:104738000073CBF818302C4B08229A6162B60A2015
:1047480009F0CBFC0EF00BF92B68F32283F8492013
:1047580000200DF09FFAFFF794B805F001FEFFF76F
:1047680090B80C2803D121480DF02EFB5EE00A28F2
:1047780001D00D285CD11E4D1E480DF025FB2846A2
:10478800232115F048FB08B1401B20602368002B4B
:1047980043D05A1EA95C202901D11346F7E7144AD1
:1047A80023600021D154144B144DD3F800A0D5F840
:1047B80000B00F4E584615F03BFB07463A463046C8
:1047C800594615F03DFB0E4A20B9F35D53445B781A
:1047D800590717D010359542E9D31AE0D02F002099
:1047E800201200204413002000040048D5C7010807
:1047F80060180020C8D601088C030020E4AA01082C
:10480800C4AC0108954204D2781CEB683044984740
:1048180002E01D480DF0D8FA00231C48236000214F
:10482800302215F0C5FA019B1B7843B3184807E0FE
:104838007F280FD1013B154A164823600021D15427
:104848000DF0C2FAFEF78FBF0C288CD07F2804D158
:10485800FEF789BF2F2B3EF686AFA0F12002D2B219
:104868005E2A3EF680AF13B920283EF47CAF5A1C6E
:104878002260064AD0540DF09FFAFEF774BF0DB0BF
:10488800BDEC028BBDE8F08FE0C70108601800207E
:10489800D0C70108FCC701082DE9F04F2DED028BA8
:1048A8004B28A1B0044600F0568600F2B4803028A8
:1048B80000F0D88651D8222800F09D8423D80328F8
:1048C80000F0628114D8012800F05281022840F0DB
:1048D800348704200DF0DEF942200DF0A8F95420A9
:1048E8000DF0A5F946200DF0A2F94C2000F068BEA5
:1048F800042800F05481052840F01F871A200DF085
:10490800C9F900245CE1282800F0F38515D824288B
:1049180000F0DA85262840F01087B64C06200DF006
:10492800B9F9B4F858010DF0B8F9B4F85A010DF016
:10493800B4F9B4F85C0100F0C4BD2C2800F0EC8593
:104948002E2800F068862A2840F0F78601200DF00E
:10495800A1F9A84B587900F033BE3D2800F01E831A
:104968001ED8362800F03D860BD8322800F0228663
:10497800342840F0E28648200DF08CF9002500F03C
:104988005CBC3A2800F0C4823B2800F02D8438280B
:1049980040F0D38604200DF07DF9964C00F09ABDC6
:1049A800452800F0B78627D8402800F00C86422812
:1049B80040F0C3868F4C10200DF06CF960790DF033
:1049C80036F9A0680DF072F994F88E010DF02FF900
:1049D800B4F858010DF061F9B4F85A010DF05DF919
:1049E800B4F85C010DF059F9B4F87E010DF055F9F1
:1049F800B4F8800100F065BD472800F06986C0F072
:104A08005686492840F0998602200DF043F97A4BE2
:104A1800188800F056BD702800F0FB825AD8692823
:104A280000F051822AD8652800F0FA8015D84D2860
:104A380000F0A085642840F0808607200DF02AF950
:104A4800E7200DF0F4F86B4B58790DF0F0F80020E2
:104A58000DF0EDF8042000F06CBE672800F0B68178
:104A680000F2248212200DF015F9644B1B88B3F56F
:104A7800806F8CBF08260126002587E16C2800F08E
:104A8800358217D86A2800F09D846B2840F0558637
:104A98005B4C05200DF0FEF8B4F8A2000DF0FDF80F
:104AA800B4F8A4000DF0F9F894F8A60000F001009D
:104AB80000F086BD6E28524C00F0328200F27982F6
:104AC80006200DF0E7F8A06F0DF0F0F8B4F87C00C0
:104AD80000F0F7BC782800F0868119D8742800F017
:104AE800CD830BD8722800F02D84732840F02586DA
:104AF80008200DF0CFF8012400F05DBC762800F006
:104B0800828400F2FF832F200DF0C4F83D4C63E34C
:104B1800A42800F0A28414D87B2800F00383A028DE
:104B280040F00B860C200DF0B5F8374B18680DF0E7
:104B3800BDF8364B18680DF0B9F8354B186800F019
:104B4800F8BDF12800F08B81FE2800F0AD84F02834
:104B580040F0F3852A4C04200DF09CF8636DB3F8FF
:104B680066000DF09AF8636DB3F8640000F0A9BC14
:104B780003200DF08FF800200DF059F820460DF0B5
:104B880056F80D2000F01CBD0DF084F802200DF041
:104B98004EF820460DF04BF8042000F011BD062019
:104BA8000DF078F853200DF042F852200DF03FF840
:104BB80046200DF03CF833200DF039F800F080BCA9
:104BC800144B185D01340DF032F80B2CF8D1002489
:104BD800114B185D01340DF02AF8082CF8D1002487
:104BE8000E4B185D01340DF022F8072CF8D100F0B7
:104BF800A2BD00BFD02F0020DC1700200800002035
:104C0800EC120020ABA20108ACF7FF1FB0F7FF1FA2
:104C1800B4F7FF1F0FC601081BC60108F3C501083A
:104C2800D24C0B200DF036F820880DF036F862686B
:104C3800CF4B9A420CBF2089608980B20DF02DF8C5
:104C4800CC4B1B68C3F3C000C3F38002800040EA6A
:104C58004200C3F340021043C3F3401240EAC200CB
:104C680003F0100318430DF018F8A1892369247D77
:104C780001F0080203F4475A4AEA020A03F48042A0
:104C88004AEA020A03F400424AEA020A03F48032BA
:104C98004AEA020A03F400324AEA020A03F48022CA
:104CA8004AEA020A03F400224AEA020A03F48012DA
:104CB8004AEA020AB04A03F0007B12784AEA0B0A71
:104CC80003F0006311F0010FC2F380024AEA030304
:104CD80014BF4FF002094FF00009134311F0020FFF
:104CE80014BF4FF004084FF0000843EA090911F017
:104CF800040F14BF4FF0100C4FF0000C49EA0808DD
:104D080011F0400F14BF4FF0200E4FF0000E48EA8C
:104D18000C0C11F0100F14BF4FF4007700274CEA69
:104D28000E0E11F0200F14BF4FF4806600264EEAD5
:104D3800070711F4807F14BF4FF4006500253E4338
:104D480011F4007F14BF4FF400100020354311F414
:104D5800806F40EA050014BF4FF0806100210143D5
:104D680000200346A3420AD2844A9D5C012202FA2B
:104D780005F50D421CBF9A4010430133F2E70CF0D1
:104D880095FF7F4B93F8D80700F01ABC774C04F1D5
:104D9800320333F9150090FBF6F0013580B20CF0C0
:104DA8007CFF032DF2D1208F0CF077FF608F0CF081
:104DB80074FFA08F0CF071FFE08F0CF06EFFB4F859
:104DC80040000CF06AFFB4F842007AE310200CF0BF
:104DD80061FF00246B4B185D01340CF028FF102C88
:104DE800F8D100F0A8BC70200CF054FF00265F4DED
:104DF8000E246B6D744323440136B3F825010CF07F
:104E08004CFF6B6D2344B3F827010CF046FF6B6D24
:104E18002344B3F829010CF040FF6B6D234493F849
:104E28002B010CF004FF6B6D234493F82C010CF05C
:104E3800FEFE6B6D234493F82D010CF0F8FE6B6DAC
:104E4800234493F82E010CF0F2FE6B6D1C44D4F849
:104E58002F010CF02BFF082EC9D100F06CBC70207C
:104E6800474C0CF017FF04F1700594F8D0000CF0D3
:104E7800DEFE94F8D1000CF0DAFE94F8D2000CF0C3
:104E8800D6FE94F8D3000CF0D2FE94F8D4000CF0BF
:104E9800CEFE94F8D5000CF0CAFE073494F8CF0083
:104EA8000CF0C5FEAC42E0D100F045BC10200CF07F
:104EB800F1FE0024344B185D01340CF0B8FE102CC0
:104EC800F8D100F038BC314D2878400000F0FE00E1
:104ED8000CF0E0FE00242B789C4280F02C842C4BB4
:104EE80033F814000CF0D9FE0134F4E71F4C062007
:104EF8000CF0D0FEB4F870000CF0CFFEB4F87200DD
:104F08000CF0CBFEB4F974300A2093FBF0F02AE0E1
:104F180004200CF0BFFE154BD3F8800000F009BC4C
:104F280007200CF0B7FE1B4B1888FF28A8BFFF20EE
:104F3800C0B20CF07CFE184B186880F3100080B2E9
:104F48000CF0ABFEB4F884000CF0A7FE0C4BD4F8C0
:104F5800880093F8833123B10A23584380F3100063
:104F680001E000F30F0080B2ABE200BFEC120020BA
:104F78000054004064170020583A00200113002014
:104F8800D02F00203013002044130020E0370020E9
:104F9800122F002050270020A8260020C84C0220ED
:104FA8000CF078FE94F8E0010CF041FE94F8DF0173
:104FB80006E30B200CF06EFED4F88C3018780CF059
:104FC80036FED4F88C3058780CF031FE0026D4F830
:104FD8008C30BC4D3344013618790CF028FE032E72
:104FE800F5D1D5F88C30D8790CF021FED5F88C3075
:104FF80098780CF01CFED5F88C30D8780CF017FE99
:10500800D5F88C3058890CF048FED5F88C30187AD1
:10501800D6E2AC4C1E200CF03DFE636D1B78022BD3
:105028004FF000056BD1636D03EB850393ED080A20
:10503800B2EE048A20EE080A11F0FAFD80F30800A7
:10504800C0B20CF0F4FD636DDFED9F7A03EB8503CE
:1050580093ED0B0A20EE270A11F0EAFD80F3080011
:10506800C0B20CF0E4FD636DDFED987A03EB8503C5
:1050780093ED0E0A20EE270A11F0DAFD80F30800FE
:10508800C0B201350CF0D3FD032DCCD1072D636DD3
:1050980023D193ED110A20EE080A11F0C9FD80F31F
:1050A8000800C0B20CF0C3FD636D93ED120A20EE48
:1050B800080A11F0BDFD80F30800C0B20CF0B7FD7E
:1050C800636D93F84C3000EE103AB8EE400A11F0D8
:1050D800AFFD80F30800C0B20BE02B4458780CF009
:1050E800A6FD636D2B44D87A0CF0A1FD636D2B44AB
:1050F800587D01350CF09BFD0A2DC7D11BE3636D6C
:105108002B4458780CF093FD636D2B44D87A0CF03F
:105118008EFD636D2B440135587D0CF088FD0A2DFA
:10512800EDD108E33C200CF0B5FD0024654D9FED62
:10513800678A6B6D03EB840393ED080A20EE080A77
:1051480011F076FD80B20CF0A8FD6B6D03EB8403C3
:1051580093ED0B0A20EE080A11F06AFD80B20CF0FC
:105168009CFD6B6D03EB840393ED0E0A20EE080A99
:1051780011F05EFD013480B20CF08FFD032CD5D107
:10518800072C6B6D16D193ED110A20EE080A11F069
:105198004FFD80B20CF081FD6B6D93ED120A20EE8D
:1051A800080A11F045FD80B20CF077FD6B6D93F89D
:1051B8004C000BE0234458780CF06FFD6B6D2344D2
:1051C800D87A0CF06AFD6B6D2344587D01340CF0DD
:1051D80064FD0A2CD4D1AEE214F8010F002800F0C7
:1051E800AA820CF024FDF7E701200CF053FD354BA3
:1051F8005B6D1878E4E150200CF04CFD0025314B34
:105208005C6D334B04EB85040C2194F8852001FB7D
:105218000233013593F838000CF009FD94F8860044
:105228000CF005FD94F887000CF001FD94F8880057
:105238000CF0FDFC142DE2D17DE2224B5C6D0623BF
:1052480003FB0544013594F8DA000CF0F0FC94F8FF
:10525800D5000CF0ECFC94F8D6000CF0E8FC94F8BF
:10526800D7000CF0E4FC94F8D8000CF0E0FC94F8BB
:10527800D9000CF0DCFC0C2DDFD15CE24FF000080B
:10528800012600270F4B1A7D974232DA1533002486
:10529800FA5C0F4D0C2305F130016343595C9142D0
:1052A80007D12B44586B14F0C3FD82462EB9B14682
:1052B80010E001341D2CECD119E0804417E000BF48
:1052C800D02F0020EC1200200000C84200007A44D1
:1052D800ACA20108D1450ADA0C2303FB04535B6B2B
:1052E80013F809000CF0A3FC09F10109F2E70137F2
:1052F800C8E7002E00F01F825FFA88F00CF0CAFCA5
:105308000026BEE7CF4D287D0CF0C4FC00242B7D81
:105318009C4280F01082CC4BE65C0021CB480C22EA
:1053280000F1300702FB01F3DA5DB24205D1034414
:1053380093F838000CF07BFC02E001311D29EDD117
:105348000134E4E7C24C16200CF0A4FCB4F8940134
:105358000CF0A3FCB4F840010CF09FFCB4F8420137
:105368000CF09BFCB4F844010CF097FCB4F8D8019D
:105378000CF093FC94F8ED010CF059FC00200CF0B3
:1053880056FC94F8EE010CF052FC94F883010CF0F2
:105398004EFC94F890010CF04AFC00200CF047FCFD
:1053A800A84B5B6D0A20B3F9623093FBF0F080B232
:1053B8000CF073FC8EE0E0B201340CF038FC092CE0
:1053C800F9D1B8E19F4C10200CF064FC94F89000DF
:1053D80000F002000CF02BFC94F891000CF027FC74
:1053E800D4F894000CF062FCD4F898000CF05EFC41
:1053F800B4F89C000CF051FCB4F89E000CF04DFC85
:10540800B4F8A0005DE00CF0F5FB074612200CF0A4
:1054180041FC8C4C27B9D4F8A860D4F8AC5007E00C
:10542800102F13BF0025D4F8B060D4F8B4502E461E
:1054380038460CF0FCFB30460CF038FC28460CF0E3
:1054480035FCD4F8B8000CF031FC00200CF025FC39
:1054580000200CF022FC0020B2E07A4D95F8BC0048
:1054680080000130C0B20CF015FC95F8BC000CF0BF
:10547800DEFB00242E4696F8BC309C4280F05B810F
:10548800744D285D0CF0D3FB05F11003185D0CF08A
:10549800CEFB05F120033035185D0CF0C8FB285D04
:1054A8000CF0C5FB0134E6E708200CF0F3FB002004
:1054B8000CF0F3FB00200CF0F0FB00200CF0EDFBEF
:1054C80000200CF0EAFB36E104200CF0E3FB604B13
:1054D80098682EE194F878010CF0A9FB94F87C0107
:1054E8000CF0A5FB94F87B010CF0A1FB94F87D016E
:1054F80066E0574C07200CF0CDFBB4F87E010CF0A9
:10550800CCFBB4F880010CF0C8FB94F882010CF0D5
:105518008EFBB4F88401D4E74D4C0C200CF0BAFB98
:1055280094F88E010CF083FBB4F898010CF0B5FBED
:10553800B4F894010CF0B1FBB4F896010CF0ADFB93
:1055480094F88F010CF073FBB4F89C010CF0A5FBE8
:10555800B4F89E01B5E73E4C04200CF09BFB94F890
:10556800D6010CF064FB94F8D7010CF060FBB4F89A
:10557800D801A6E7384C394D207800EB4000C0B27E
:105588000CF088FB002623789E4205F1020580F086
:10559800D28015F8020C0CF04AFB15F8010C00EB50
:1055A800800000EB800000F2EE2080B20CF075FB6A
:1055B8000136E8E701200CF06DFB254B93F89001CC
:1055C8000CF035FBB7E008200CF064FB0024204BFE
:1055D8002344013493F886010CF029FB082CF6D1FA
:1055E800A9E0184B1A4C93F8FD00C0EBC000C0B2FC
:1055F8000CF050FB04F1280594F8F4010023184A34
:10560800D25C904200F09B800C333C2BF7D10834DD
:10561800AC42F1D18FE040200D4C0CF03BFB04F183
:105628004005B4F8AC020CF038FB94F8AE020CF06C
:10563800FEFA043494F8AB020CF0F9FAAC42F0D15B
:1056480079E000BFEC12002001130020ACA2010891
:10565800D02F0020A9130020E0370020703100204F
:10566800F8170020E020444C0CF014FB04F18005EE
:10567800B4F82E0200F03F000CF00FFBB4F82E0235
:10568800C0F386100CF009FB94F82C0200090CF00A
:10569800CEFA94F82C0200F00F000CF0C8FA04348B
:1056A80094F829020CF0C3FAAC42E1D143E0334C40
:1056B8000D200CF0EFFA0AF0CCFF0CF0B8FAA08835
:1056C8000CF0F4FA20690CF0F1FA04F0CBF930E0B0
:1056D8000CF0A4FA054684200CF0DCFA28460CF0FD
:1056E800E5FA264B1C6905F18003A3428CBF641BB5
:1056F800802404F06FFA2846224669460BF006F823
:1057080000240546AC4216DA1DF804000CF08FFAA6
:105718000134F7E713200CF0BDFA0024184B185D8C
:1057280001340CF084FA0B2CF8D100200CF0BEFAEE
:1057380000200CF0BBFA012018E0002016E00CF065
:1057480076FAB4F8F6010CF0A8FA94F8F8010CF01F
:105758006EFA94F8F9010CF06AFA94F8FB010CF06F
:1057680066FA94F8FA010CF062FA50E721B0BDEC41
:10577800028BBDE8F08F00BFD02F0020080000206A
:105788000FC601082DE9FF4706F056FDBB4B1E78F2
:10579800002E40F0BE85BA4D2B685A0540F1B985F8
:1057A800B84BB94CB3F84E712378DFF82883002B37
:1057B80000F00782D8F800206368D31A7C2B40F2E7
:1057C8000082237A62600133237206F12400C0B29A
:1057D80006F0E6FCAD4B33F9163007EE903AAC4BC9
:1057E8001B88B8EEE77A07EE903AF8EEE77A0136CA
:1057F800C7EE277A9FEDA77A67EE877AFDEEE77AFC
:10580800CDED017ABDF9040006F0B8FC032EDCD119
:10581800302006F0C5FCA04BDFF86C92B3F900000D
:1058280006F0ACFC06F0B4FC237A9B0732D1D9F819
:10583800042041F288339A4219D9102006F0B0FCAE
:105848006426D9F80C0090FBF6F000B206F096FC3E
:10585800212006F0A5FCD9F80C0090FBF6F306FB16
:1058680013000028B8BF404200B206F087FC14209D
:1058780006F096FC894BB3F904000A2390FBF3F079
:1058880006F07CFC1C2006F08BFC002006F076FC61
:1058980006F07EFC237A5E0740F06E81022006F057
:1058A8007FFC794B18696423323090FBF3F000B227
:1058B80006F064FC7A4B0320B3F9066006F070FC2E
:1058C800784B1B7858074FF0050996FBF9F6B6B2E6
:1058D8000BD57548394608F095FB20B92B6813F0AD
:1058E800100F18BF002630B205E0704B1B6898896E
:1058F800B0FBF9F000B206F041FC2B68990767D5B8
:10590800DFF8D4A1A78A6A4E9AF8003032883F019E
:105918004FF06409BFB209FB02325B00B2FBF3F33C
:1059280047EA0327BFB2C3F303231F43062006F049
:1059380037FC38B206F022FCA38A9AF8001001332B
:105948009BB293FBF1F201FB1233A382A3699B7B09
:10595800012B05D1392006F023FCB6F9000019E027
:1059680036886E233A205E43152706F019FC96FB0D
:10597800F7F6B7B2B7FBF9F630B206F0FFFB09FB52
:1059880016763B2006F00CFCB0B2461D0A2096FBAA
:10599800F0F000B206F0F2FB282006F001FC454BBF
:1059A8000A201B6893FBF0F000B206F0E7FB042026
:1059B80006F0F6FB3D4B1B689B8913B109F020FEEE
:1059C80003E03D4B186880F3100000B206F0D6FBE8
:1059D8003A4B1B689A0640F1C480394F3B789B07C5
:1059E8001FD5DFF8F890112006F0DAFBB9F80000AF
:1059F800344B4FF4F366704390FBF3F000B206F0BB
:105A0800BDFB192006F0CCFBB9F800004643642022
:105A180096FBF0F696FBF0F300FB136000B206F07D
:105A2800ADFB294B1E883B7813F0020F08BF0026F8
:105A3800012006F0B5FB30B206F0A0FB092006F005
:105A4800AFFB002006F09AFB204B1E78204B1A88EB
:105A5800B2F5967F09D9237A03F00F03072B04D8F0
:105A680042F20F76964228BF1646052006F098FBAC
:105A7800A3695B7BB3BB30B251E000BF5C3A002046
:105A880058270020D02F0020F41300201E130020D8
:105A98000800002000007A44681300205C130020EE
:105AA80014210020583A002056310020A426002056
:105AB8005027002074130020A82600206417002017
:105AC8007C130020A0860100881300207D1300208D
