:020000040800F2
:1000000000A00020110501084BB6000855F60008B5
:1000100049B6000847B6000845B6000800000000D1
:1000200000000000000000000000000043B60008CF
:1000300041B60008000000003FB60008B3E3000826
:100040007905010879050108790501087905010894
:100050007905010879050108790501087905010884
:100060007905010879050108790501087905010874
:10007000790501087D550008CBB100087905010814
:100080007905010879050108790501087905010854
:10009000F1B600087905010879050108790501081C
:1000A00069D1000895D1000859D10008A5D10008F0
:1000B00089D1000879D1000879050108790501087E
:1000C0007905010879050108790501087905010814
:1000D0007905010861D3000855D3000849D3000809
:1000E000C1E3000879050108E1EF0008790501087E
:1000F00079050108790501087905010879050108E4
:100100000000000000000000000000007905010868
:1001100079050108790501087905010879050108C3
:1001200079050108790501087905010879050108B3
:1001300079050108790501080000000000000000B1
:10014000790501087905010879050108000000001A
:10015000000000000000000000000000000000009F
:100160000000000000000000790501087905010881
:1001700079050108000000000000000000000000F8
:080180000000000079050108F0
:100188002DE9F04F2DED088B6F4E704B3360AFB0FB
:10019800002373600BF043FE18B90BF063FE09F0FF
:1001A8005FF909F01BFA6A4B6A4C1A7842F00102AF
:1001B8001A70694A4FF47001C2F888100022099237
:1001C8000A92226842F4803222600493236803F47E
:1001D80000330A93099B013309930A9B1BB9099BB6
:1001E800B3F5A04FF2D1236813F4003318BF0123ED
:1001F8000A930A9B012B7DD0DFF85C81574BC8F826
:100208000C30636AB360636ADFF884B1DFF8849105
:10021800DFF884A143F080736362636943F4FC03ED
:100228002EAD636103238DF86A3041F6FF7325F81C
:10023800503D4FF09040294605F092FA4FF6FF7373
:1002480058462946ADF8683005F08AFA44482946E8
:1002580005F086FA4348294605F082FA42482946BD
:1002680005F07EFA2946414805F07AFA284607F053
:1002780057FD1A9B3E4AB3FBF2F33E4A13603E4BCE
:100288003E4A00271F605F603D4B5A60F02288F8A5
:1002980023200722DFF804819F601A60D8F808300D
:1002A800CAF8003099E80300636985E8030043F45D
:1002B800802363612023CBF818301BA91A9805F016
:1002C8004FFA64200EF062F83946C8222D4812F021
:1002D80019FFE3692C4A43F00303E361A36943F47C
:1002E800A123A361636943F4C023636102F1900C05
:1002F800574655E0254B12221A60636863606368AD
:100308006360636843F480636360636823F47C1309
:100318006360636843F4E8136360236843F08073A1
:10032800236022680B4B9201FBD55A6822F0030226
:100338005A605A6842F002025A60636803F00C037C
:10034800082BFAD158E700BF100800201F8E0008BC
:100358009C2A00200010024000ED00E00005FA058C
:1003680000080048000C004800100048001400482D
:1003780040420F00DC250020E02500203F19010045
:1003880010E000E02C26002038540108002002402C
:10039800000400488C340108602A0020981D0020C1
:1003A800937B506892F80FE003F00701DB0800EB3D
:1003B80083038900186A4FF00F0A0EFA01FE0AFA41
:1003C80001F120EA01011962196A10324EEA0101AD
:1003D80062451962E4D10023DFF89CA20AF10C02FD
:1003E800002199540133092BF6D1FF23964A8AF844
:1003F80015308AF816308AF817308AF818308AF8D3
:100408001930924BDFF874B21360914A03930420B9
:1004180010705846302212F075FE142202218BF813
:1004280000208BF8241001228A49039B8BF818209E
:1004380098F805B081F800B0A3F5EF71CAF81C1060
:1004480085493F68A3F58F730B60844B03EBCB039F
:100458005B78CAF82030BB0648BFCAF820200023C2
:100468007F4A40F2DC5122F813100133082BF7D1F0
:1004780013A800211C2212F045FEBBF10E0F03D079
:100488000BF0EF03082B02D101238DF85E30022018
:1004980006F012FF18B14088003018BF0120C7F3DA
:1004A80040038DF85230C7F380138DF85530C7F3E9
:1004B80040338DF84C30C7F3C03300F001008DF89D
:1004C8004F3017F400638DF8510007D098F8843145
:1004D80003F1FF3EDEF1000343EB0E038DF85030CD
:1004E800C7F300438DF85630336AB8F844E1ADF8E5
:1004F80062E0003318BF01238DF85730C7F300536B
:100508008DF85830B8F84631ADF85C30B8F852314B
:10051800ADF85A30C7F380438DF8533098F854310A
:10052800181C07F00101C7F3C00218BF0120FF041F
:1005380048BF4C4F8DF85400B8F8500144BFB7F885
:100548004C71ADF86270B0F5FA7F8DF84D108DF8EA
:100558004E20ADF8600002D90BB9ADF8623098F8BA
:10056800D431414886F82430002386F8253043707A
:100578009DF85E30002B0CBF0023022301B902B1A5
:10058800013309EB83094FF0000AD9F808309A1EA5
:10059800103303920593039A32F8023F03924FF601
:1005A800FF72934200F08A819DF851004FEA132CA4
:1005B800DAB25FFA8CF378B12C4F2D4807EB0217AB
:1005C8007968814208D13889B0F5806F00F071816F
:1005D800B0F5006F00F06D819DF8560090B11001E4
:1005E800DFF888E00EEB00075EF800E0214886455A
:1005F80000F05F811E487968814203D1B87B0828E2
:1006080000F057819DF8520050B1184F07EB0217C0
:100618007868B0F1904F03D13889202800F04981DB
:100628009DF84F0050B1114F114807EB0217796838
:10063800814203D13889042800F03B81BCF1020FC4
:100648001ED19DF84C1020E074250020861F002044
:10065800300F002080020020702700209C5E0108D7
:10066800F00E0020981D002035080020385401089D
:100678000004004800440140100800207C250020A8
:10068800BCF1010F04D19DF84D10002900F0118133
:100698009DF8571031B19DF85E1019B9911F0129C5
:1006A80098BF0423CC4F9DF858104FEA02194F44C5
:1006B80031B19DF85E1019B9043A032A40F2E2807C
:1006C800012B43D1FF2386F86C3086F86D30C24B7E
:1006D800F76703EB09024FF00008517B50688DF86B
:1006E8006A1002F1080B1289ADF868201AA90222D3
:1006F80086F8708006938DF86B2086F82880C6F8F7
:100708002C80C6F83080C6F83480C6F8688086F831
:100718006E8086F86F8005F023F8069B9BF8021020
:1007280053F80900424604F06FFE38460DF048FBC6
:10073800AA4BAB49C6F88030AA4BC6F88430C6F835
:10074800888038460A1D0CF0A1FDB2E0022B46D184
:100758005FFA8AF21C2101FB02FC06EB0C089E4A98
:1007680088F871A0012188F8701002EB09014FF098
:10077800000B91F80DE0486888F872B001F10802A2
:100788000989ADF8681088F87AB01AA9C8F87C7099
:10079800CDF81CC08DF86AE006928DF86B3004F035
:1007A800DFFF8D4B069A53F8090091785A4604F0FA
:1007B8002BFE38460DF004FBDDF81CC088498A4A38
:1007C800C8F880206144894AC8F88420C8F888B0ED
:1007D80038460A1D0CF05AFD0AF1010A69E0032B9C
:1007E8004ED19DF85330DFF83C82DFF83C9203B3DA
:1007F8009DF8543098F826C0DFF800B2CDF818C03C
:1008080053B17B4BBDF86020B3FBF2F238460821A8
:1008180092B2BDF8623003E0384608214FF6FF7205
:1008280004F0C7FFDDF818C049F82C00C0F80CB078
:1008380020E0BDF8602098F826B0BDF86230B2F527
:10084800FA7F0BD96A49B1FBF2F23846082192B215
:1008580004F0AFFF674B49F82B000AE06649B1FB8B
:10086800F2F23846012192B204F0A3FF634B49F833
:100878002B00C36098F82630013388F8263018E03A
:10088800042B16D196F82580BDF85A205A4B93FBB5
:10089800F2F23846BDF85C30012192B204F089FFCB
:1008A80096F8253006EB88080133C8F8500186F819
:1008B8002530039B059A93427FF46DAE96F8252068
:1008C80086F870214E4A4F4B92F800E0AEF11702BD
:1008D8000027022A1F709C461AD8F3693B44D3EDBF
:1008E800007AF5EE407AF1EE10FA02D1336A73BB62
:1008F80026E0454A07EB02080FCB88E80F009CF872
:10090800003010370133C02F8CF80030E5D1EDE707
:100918003E4B13F83E908CF8009003EBCE03D3F8CF
:1009280004A0BAF1000FE1D04F45DFDA364A3B01A7
:1009380003EB020853440FCB013788E80F00F3E7B5
:10094800334B1A6812F4805F984624D11DE0314B6E
:10095800314A13F83E00107003EBCE035E68002E98
:10096800EED000238342EBDAC3EBC3017218DFF841
:10097800BC80D2F8009041F8089001EB08079188F4
:10098800B9809279BA710133ECE70EF0EF03082BC6
:10099800224B4DD14FE09CF80020012AF5D9204B7D
:1009A80003EB0212103210339342EED053ED047A67
:1009B800B6EE007A67EE877A43ED047A53ED057A4E
:1009C80067EE877A43ED057A53ED037A67EE877A07
:1009D80043ED037AE7E700BF38540108C95100081E
:1009E80090080020A95200080D550008A1510008E0
:1009F80000127A00C952000840420F00B95200089C
:100A08008002002028260020BC0100209C5E0108EE
:100A1800602A002048390108FC260020B014002074
:100A2800C401002010080020F8250020FD26002021
:100A3800BEF10E0F09D11A7842F010021A70BEF1F9
:100A4800180F09D10DF018FF06E01A7822F01002ED
:100A58001A70BEF1190FF4E70DF0F2FED8F8003065
:100A68005E0358BFB84BB94E5CBF01221A70049B95
:100A7800049A1B7843F00403137063694FF0010B69
:100A88004FF0020943F400332946ADF868B08DF8F9
:100A98006AB08DF86B904FF09040636104F060FE8F
:100AA800AB4BAC4A1A6000200DF092FCE36943F4AA
:100AB8008043E361236943F480432361636943F41A
:100AC80080236361736A23F470037362736A43F467
:100AD800A0037362736A23F070637362736A43F0EE
:100AE800A0637362736A23F070437362736A43F09E
:100AF800A0437362736A23F470237362736A43F4C6
:100B0800A023002773624FF0030A4FF46043304676
:100B180029461A938DF86C908DF86DA08DF86E703B
:100B28008DF86F7007F0C0F84FF4805230462946B0
:100B38001A9203928DF86CB08DF86DA08DF86E70D6
:100B48008DF86F7007F0B0F823698349039A43F46E
:100B580080432361236923F4804323618B8823F432
:100B680080531B041B0C8B808B889BB243F48053EF
:100B78008B800B8803F4415343F4457343EA0A031B
:100B88000B808B8823F470631B041B0C43F4E06315
:100B98008B808B8B23F400631B041B0C8B834FF01F
:100BA80007030B820B889BB243F040030B806B4B0F
:100BB800B2616B4E1E60636943F400336361E3699D
:100BC80043F48003E361236B23F020032363236B47
:100BD80043F0805343F0200323634FF090431846BB
:100BE8005A6A22F0F0025A625A6A42F040025A6285
:100BF8005A6A22F470625A625A6A42F480625A62ED
:100C080029464FF400721A9203938DF86E708DF88E
:100C18006F708DF86C908DF86DA007F045F8039B08
:100C280004934FF48062184629461A9207F03CF85C
:100C3800326822F00102326031684A4A0A40326062
:100C4800494A3261326842EA0B023260B760F760A3
:100C5800B760B26842F40042B260326832607268CB
:100C680022F0784222F400427260326842EA0B02B3
:100C78003260D8F800503D4E05F40043102230464B
:100C88003946039312F03EFA4FF6FF7215EA09054A
:100C98000E928DF83D908DF83E708DF83F708DF86E
:100CA8003CA0049B0FD02EA92022184641F8802D85
:100CB80006F0FAFF4FF0070386F800907770F3709C
:100CC80086F802B05D46039B7BB12EA9042341F848
:100CD800803D1E4806F0E8FF0C2333710723F371AB
:100CE800012375711D44B371EDB2E36A204823F402
:100CF800F873E362E36A43F4D873E362636943F029
:100D0800805343F00203636106F055FF1AA806F00A
:100D180027FF184B1A93184B1B93022D4FF0000313
:100D280014BF1A4680221F924FF48072104C2092F2
:100D38004FF4806221922022204622921AA94FF471
:100D480000521C931E9319E0E80600200004004896
:100D5800AC2A002011E2000800380040B40E002040
:100D680000580040FFE0CF00300E50000C12002069
:100D780008040240400100501C12002023922493D2
:100D8800ADF8745006F0F9FE236843F001032360C0
:100D9800C24CA36823F04053A360A36843F0805378
:100DA800A3600A200DF0F2FAA36823F08043A36041
:100DB800A368A360A36843F00043A360A368B74A8D
:100DC800002BFBDB9368B64923F04053936093688C
:100DD80043F0005393608868B24B034043F4683390
:100DE8008B60D168B04B0B4043F40053D360136B56
:100DF800013D23F00F0C45EA0C051563002401237F
:100E08003219917800296BD05D1C042B375DD0789E
:100E1800DFF888E2EDB20ED803EB43035A00DEF8A0
:100E280030101F23934021EA030107FA02F30B4312
:100E3800CEF8303031E0092B0ED8053B06225A4354
:100E4800DEF834101F23934021EA030107FA02F366
:100E58000B43CEF8343020E00E2B4FF006010ED8AD
:100E6800A3F10A024A43DEF838C01F2393402CEA54
:100E7800030107FA02F30B43CEF838300DE00F3BBD
:100E880001FB03F2DEF83CC01F2393402CEA030168
:100E980007FA02F30B43CEF83C30092F7F4A0FD9EB
:100EA8009369A7F10A0303EB430397690721994064
:100EB80027EA0101916191699840084390610EE029
:100EC80053697B1E03EB430357693821994027EA8E
:100ED80001015161516903339840084350612B4621
:100EE8000434102C8CD16D4B9A6842F001029A6040
:100EF8001A461168694BCC07FBD5DA686B4D22F0AE
:100F08000202DA60DA6842F00202DA60DA6842F075
:100F18000102DA609A6842F004029A60B5F8583122
:100F2800002B40F05A86B5F95A21002A40F0558620
:100F3800B5F95C21002A40F05086D8F800305C4CA6
:100F480013F4003F1FD0C8200DF020FAAE200CF09B
:100F58007FF808B10BF0B8FE564E84F87101C8202E
:100F68000DF014FA544BC4F8743100210C223046A9
:100F780012F0C8F80223F37007F085FA0DF0EAF9C9
:100F88004E4B0344B3604E4EDFF824A133684D48FE
:100F9800B3F85E9095F85F7100210C2212F0B2F858
:100FA8004FF0000B00211422474812F0ABF85946C5
:100FB8000C2284F878B10AF5BE708AF879B112F07B
:100FC800A1F8424BC4F8883123200DF0DFF97520D1
:100FD80001210BAA0BF08EFF002800F082803C4B09
:100FE800CAF880313B4BCAF8843158464323012163
:100FF8000CAA8AF87C310BF07DFF9DF8303003F0A5
:101008007E038DF8303040B1682B06D101238AF871
:1010180078311D238AF87C3163E09DF82C3003F089
:101028007E03682B8DF82C3056D10223062084F8D5
:1010380078310146D4F880311AAA98479DF86D1086
:1010480001F001029DF86B1001F001014B0043EA29
:1010580082019DF8692002F001030B430AD05BB2BC
:10106800012B01D1002302E0022B0FD1012384F8C8
:10107800793136E00E4B0C20D3F8803101210EAACD
:1010880098479DF8383013F00F0303D103200DF073
:10109800F3F926E0042BE9D1E4E700BF0001005092
:1010A80000030050E010FCFF07C0FFFD981D002062
:1010B80010080020000E0020201F0020404B4C008C
:1010C800000F0020B01C0020B0130020A434010839
:1010D800FDCE0008F1CE0008702B04BF042384F86D
:1010E8007831494B00221A7094F87821022A9A46DE
:1010F80017D1464B46491960464847495960474900
:10110800D96002704649474A196103218AF80010DC
:10111800116841F0010EC2F800E09346BE461F4632
:1011280003E001200DF0A8F990E072460A2A28BFD2
:1011380000220123934040F2B23E03EA0E0EBEF1B4
:10114800000F16D113F04D0F13D0374B374A1A60E2
:10115800374A5A6094F87921002A0CBF6F226E2210
:101168001A720323334A437019431370CBF80010E3
:1011780006E0012A4FF0000ED7D82E4B83F800E086
:10118800DBF80030980702D5274B1B6898472A4B95
:1011980000224FF47A7184F88C211960BC203B68D6
:1011A80003929847254B039A1A7095F855210AB16E
:1011B8008AF8002095F856210AB11E490A7095F858
:1011C800572102B11A70DBF800301D4913F0080FDF
:1011D8003AD00FFA89F9642299FBF2F302FB1392D1
:1011E80012B207EE902AB8EEE77A07EE903ADFEDF2
:1011F800156AF8EEE77AE7EE267AB2EE047A67EE39
:10120800877AC1ED007A21E0C4130020B0130020D2
:1012180009C90008080100202DCE000811CE0008D9
:1012280090C1793DBC0E0020B01C0020A9C900085F
:1012380075CE0008C22A0020280F0020BF2A0020EF
:10124800A81400208988883C00230B60BF4A1378C3
:1012580043F002031370BE4B20229A610A27DFF87D
:10126800F092B9F814309BB283F02003A9F8143037
:1012780019200DF08BF801200DF0AAF819200DF0B7
:1012880085F8013F00200DF0A3F817F0FF07E6D11D
:101298002023C9F81830AF4B9FEDAF8A1B689FED2C
:1012A800AF0A1B7B07EE903AF8EEE77AA7EE880ABA
:1012B80008F01BF8AA4B9FEDAB7A83ED000AAA4B06
:1012C800D3ED047AA94B67EE887AC3ED007AA84B70
:1012D8001B8807EE903AF8EEE77AC7EE277A9FED7B
:1012E800A57AC7EE877AC4ED647A08F059FCA24B58
:1012F800FF2118461B2211F005FFA04ADFF8A8E2DB
:1013080012680770012112F0020F8EF800101FBF3B
:10131800417003218EF80010022118BF8170510717
:1013280041BF9EF800104F1C8EF80070032748BF7D
:10133800475412F00A0F73460ED09EF8002004217D
:101348008154511CC9B205274754D11C0232D2B26C
:101358008EF8001006218154D8F800108A0641BF83
:101368001A78571C1F70072748BF87546F79082FB2
:1013780001D00E2F08D11A7802F1010E83F800E08F
:101388004FF00B0E00F802E01A7811F4803F4FF08E
:101398000C0C00F802C002F1010E1CBFDFF808C2F5
:1013A80002325FFA8EFE83F800E01FBF8CF800203F
:1013B800714A4FF00E0C02F80EC04A0741BF1A7866
:1013C80002F1010E83F800E04FF0100E48BF00F85C
:1013D80002E01A7802F1010E5FFA8EFE4FF0120C4D
:1013E80011F4806F83F800E000F802C00ED095F881
:1013F80010C2BCF1000F09D0DFF8ACC102328CF882
:1014080000205D4A4FF0130C02F80EC08A0541BF58
:101418001A7802F1010E83F800E04FF0150E48BF6C
:1014280000F802E0182F13D11A784FF0160E00F8C2
:1014380002E002F1010E5FFA8EFE4FF0170C00F881
:101448000EC002F1030E0232D2B283F800E08754D4
:101458000F0341BF1A78571C1F70192748BF8754BC
:10146800CA0541BF1A78511C19701A2148BF815406
:101478001A78511C1970142383540021982240486B
:1014880011F040FE0CF079FD3E4B3F493F48196092
:101498003F4BB5F84E2101603E491A8000233E4A71
:1014A80037680B70B5F89611138093701FFA81FC9A
:1014B80007F18102394E3A483668DFF8F0E020F843
:1014C80013C006F596764EF823600133122BF1D13E
:1014D800344ED6F800E01EF4805F08BFB5F89CC112
:1014E800A0F806C0D1371378F3B992F802C0D378C0
:1014F8009C4519D2BCF1000F08D00CF1FF3C0CEB55
:101508008C0C0CEB8C0C0CF5617306E0013303EBCF
:10151800830303EB830303F5617392F801C00CF1B5
:10152800040C9BB220F81C300432BA42DBD11EF006
:10153800080F00F0138195F89031062B00F208810E
:10154800DFE803F03639406782A0A0009C2A00201B
:10155800000400487C14002035FA8E3CDB0FC93F9C
:10156800AC1400200AE81C41B01300209814002095
:101578000800002000401C46C90E0020BC0E0020B8
:10158800001D0020EC0D0020201F00205C2A0020F8
:10159800F00D0020270D0020702A00206C2A002062
:1015A800DA1C0020602A0020C80E0020700D0020E0
:1015B80045F2F05201E042F6F822434B1A800CF053
:1015C8008CFDC4E0404B42F6F8221A8009010A2338
:1015D80091FBF3F10023A1F5B0613C4A42F82310D6
:1015E8000133122BF9D13A4A3A4911603A4A40205C
:1015F800137005F03DFF002800F0AA8001234FF08A
:10160800070E90F90000354A8DE808404021344B18
:1016180098E02D4B42F6F8221A802D4B314A1A6079
:101628002D4B102240201A7005F022FF002800F0F0
:101638008F800123002790F900002B4A8DE888004D
:1016480040214FF4E1337DE01F4B42F6F8221A8027
:101658001F4B264A1A60204B082240201A7005F0BA
:1016680007FF002874D00123002590F90000204AC4
:101678008DE8280040214FF4E13305F01DFDC4F842
:10168800940161E0104ADFF87880DFF878C0DFF86D
:1016980078E0184F184D194842F6F82111800E4984
:1016A8000C22062B0A7031D0002388F800308CF801
:1016B80000308EF800301B233B7005232A7003701E
:1016C8004FF4E1352EE000BF600E0020882900208D
:1016D800AC00002001F400086C25002015F5000876
:1016E800A0860100F576000869F40008DD76000898
:1016F800297800089A1100201B1100209B11002056
:101708001C1100209911002098110020002188F850
:1017180000108CF800108EF800102A702121C34D9B
:1017280039700370C24BC34A1A60402005F0A0FE0E
:1017380070B101210023C04A90F900008DE80A0029
:1017480040212B4605F0B8FC003018BF012028B90D
:10175800082007F04BFEB64BB84A1A603268B84BFF
:1017680012F4804F1FBF12211970B149B54818BF34
:10177800086042F20101114002F0010002F4005534
:1017880079B1B14944F620670F8025B10821197055
:10179800A749AE4D0D6020B10C211970A449AC4881
:1017A80008601978AB4F04395970AB49AB4B0B60E3
:1017B800AB498033002512F4803F0B603D700DF17A
:1017C800680800F0AE8007F017F9DFF8CCC2DFF840
:1017D800CCA2CDF814C040F22A334FF001091A46C2
:1017E80060462946049387F8009011F08BFCDAF8DC
:1017F80014209C489C4F42F48022CAF81420426A64
:1018080022F00F024262426A032142EA090242625E
:101818004FF4807B02228DF835100CA98DF8342006
:1018280003928DF83650CDF830B08DF8379006F029
:101838003BFADAF81810039A41F40031CAF8181084
:10184800398821F440710904090C39801D21F96295
:1018580038463A850EA93D866022C7F814900E9244
:10186800ADF83E501095ADF84450ADF84650ADF87F
:101878004850ADF84A50ADF83C9006F01FF9BA69E7
:1018880042F00802BA617A6C42F400427A64DAF8EB
:10189800142042EA0902CAF81420AAF57D6A5046C3
:1018A80006F089F9404606F05BF9049B6F4AADF8EB
:1018B800743080231A92DDF814C01F9310224FF45D
:1018C8000053504641462393CDF86CC01C921E9598
:1018D800CDF880B021952295249506F04EF9FB6845
:1018E80043F40073FB60DAF8003043F00203CAF8EF
:1018F80000300BA80D238DF82C308DF82D908DF825
:101908002E508DF82F900CF03DFA594B1A68594B10
:1019180043F825200135202DF7D103F043FE03F0CD
:1019280041FE33685A0542D5534BD4F8C4741F603E
:10193800042005F09DFD0421C4F8C80405F072FDDB
:101948004E4B84F8CC0408201F6005F091FD4C4BE9
:101958004C4D1860082105F065FD2C22002184F803
:10196800CD04284611F0CEFB7C232B708E236B70A0
:10197800E023EB7010207D2385F82B30C4F8D07459
:1019880005F076FD1021C4F8D40405F04BFD84F869
:10199800D8042020C4F8DC7405F06AFD2021C4F8BE
:1019A800E00405F03FFD84F8E40406F043FC364A01
:1019B800138823F040031B041B0C1380138823F0A7
:1019C80038031B041B0C138013889BB243F040039D
:1019D800138000259F2332208DF838308DF8395038
:1019E8008DF83A508DF83B500CF0D0FC8DF86950CA
:1019F8001C4D4FF4805704222F8540460EA90CF049
:101A08008BF9AF619DF86A309DF869201B0243EAA3
:101A180002429DF86B3013431C4A93421C4A53D030
:101A280044D81C498B4248D03AE000BF90D003000C
:101A3800AC000020F97500080977000865F4000873
:101A48006C25002035F40008600E002055F40008CD
:101A580045F40008730700206C100020B81F002010
:101A6800681000200004004800440140344401404C
:101A7800BC34010874070020F40600203007002059
:101A88004C070020000700200038004018BA20004A
:101A98000C00002015202000A8090020001002409A
:101AA80001F51A4102318B4209D01BE083498B4270
:101AB80005D001318B4207D014E0202300E08023B9
:101AC80013804FF4807302E04FF4807313805380C7
:101AD800938811881B0293604B43D360012384F8D9
:101AE800E53404E00023138053809360D360D46806
:101AF8000CB3E40A27464FF00009A14509DA09EBBF
:101B080004056D10E802414610220BF0B7F80F28C3
:101B180006DC07F0C5F86A4BFF02C3F8E8740AE070
:101B2800002358F82320013253D10133042BF8D174
:101B38002F462C46E1E73368624A13F4002318BFA6
:101B4800012313700CF006FC5F4B18605F4B5A7949
:101B5800052A194602BF5E4B4FF4C8721A805D4BC6
:101B68004FF47A721A805C4A137843F008031370B2
:101B78005A4A137823F002031370326840F60203BE
:101B880013406BB1564B57481860574B03201870D9
:101B9800564B01201870564800230380554803808F
:101BA800930341BF544B03221A71DA7844BF42F0C1
:101BB8000102DA708B683360504B01221A70504A68
:101BC800137863F07F0313702FB0BDEC088BBDE86A
:101BD800F08F05F101092546ABE71BB208EE103A74
:101BE800B5F95A31DFED477A9FED47BA474A09EE12
:101BF800103AB5F95C31B8EEC88A08EE903A28EE8A
:101C0800278AB8EEC99AF8EEE88A002138EE0B0A5E
:101C180029EE279A68EEA78A117007F066FBF0EEA6
:101C280040AAB0EE480A07F060FBB0EE40AA39EED1
:101C38000B0A07F05AFBF0EE409AB0EE490A07F09B
:101C480054FBB0EE409A38EE8B0A07F04EFBB0EE2C
:101C5800408AB0EE680A07F048FB60EE2A6A6AEE2E
:101C6800087AF0EE665AE7EE895A294B28EE2A6A76
:101C78002AEE007A29EEC00AC3ED035AF0EE465A5E
:101C8800E7EE495A83ED010AA6EE497A2AEE690A77
:101C9800E6EE897A28EE298A83ED050A29EEAA0A52
:101CA80083ED008A83ED029AC3ED045A83ED067A28
:101CB800C3ED077A83ED080AFFF73FB91740EF0035
:101CC800100800207627002094010020981D00208D
:101CD80048140020BC2A0020B0140020C02A00208C
:101CE80004120020121F0020AC1C00200C01002050
:101CF800880E00208A0E0020000E0020E806002032
:101D08009C2A002035FA8E3CDB0FC93F700000206A
:101D1800E01100202DE9F04FA149A24C0A6802F514
:101D28009C432DED028B203323609F4B87B01E7898
:101D38000091C6B19D4909688A4240F20381013E7B
:101D48001E70FFE0D9F800309948072D98BF595DFB
:101D5800984B88BF29461B689847032D0CD904EB7C
:101D680045050136A880924BDFF86C921A78F5B2D7
:101D7800AA421946E6D820E0D9F8002005F10E035A
:101D880002EB83039988DA880028E8D04FF47A7345
:101D9800401A5843531A90FBF3F040F6C90300F574
:101DA8007A70984205DC40F2EE239842B8BF184694
:101DB80001E040F6CA0080B2D1E77F4B1B6842F2CF
:101DC800010803EA08087D4BB8FA88F84FEA581862
:101DD8001B68B8F1000F06D194F8292084F8282050
:101DE800774A5078107094F828701FB1744A1778A1
:101DF80087F0010794F82BB091F800A00F22032672
:101E0800BBFBF6F606EB460684F82A20C6EB0B0663
:101E1800D9F80020DFF8C891F6B20025554559DAFF
:101E28004FEA450C1FB1674931F8150000E0384604
:101E3800918ADFF8B0E1814202D8D18A81421ED26C
:101E48005EF825005749834203D25F4931F80C00F8
:101E580019E0E8B20292019303910DF07FFB032D84
:101E6800019B029A0FDC03994FF0010C91F82AE0CC
:101E78000CFA05FC2EEA0C0E81F82AE003E003F5C3
:101E880096714EF82510B8F1000F1CD194F8BC10CB
:101E980029F8160031B9BBF1020F14D941490120C4
:101EA80081F8BC00B9F80210B9F800000844B9F884
:101EB80004100844454980B221F8150000B20321F6
:101EC80090FBF1F080B2404909F1060921F81500AC
:101ED8000135A3E794F82A2038493D4BA2F10F07B2
:101EE8007A427A4184F8D6206AB13A4A1268560191
:101EF80009D40A68D9689A60521AC82A1DD90122D9
:101F080083F8212019E02E4A0120507010700A68C9
:101F18009968DA605B68521A9A4282BF2C4B002299
:101F280083F821200025554507DAE8B20DF016FBA5
:101F3800254B23F815000135F5E794F82B300133CC
:101F480084F82B301C4B1A6812F4805F984605D031
:101F5800204B1B68DD0701D40CF053FE009B196869
:101F68001D4B1F68BB7A002B3ED0013B16483A7BBD
:101F780030F813301AB1C3F53B6308339BB21BB278
:101F8800A3F57A73B3F57A7FA8BF4FF47A7323EA7F
:101F9800E37307EE903A9FED117AF8EEE77A5CE08A
:101FA800A02A0020FC0C0020682A0020642A0020B7
:101FB8006C250020AC000020602A00206C2A00203C
:101FC80003000020000D0020DA1C0020BA0D0020BC
:101FD800702A0020C40E00205C2A002000007A44E9
:101FE800280D0020700D0020D8F80020100440D5DE
:101FF800D4F8D800A34E081A00283ADBA24A01F503
:102008009C402030C6F8D8005079A04A32F81050C9
:10201800A8B2FD7A90FBF5F596F8DC00013000F0E7
:102028000F0286F8DC20324482F8DD501A469848C0
:10203800185C01330244102B92B2F8D112B292FB11
:10204800F3F31BB2642BA8BF642323EAE37307EE00
:10205800903A9FED907AF8EEE77AC7EE877A8E4A43
:102068009FED8E7A67EE877AFCEEE77A17EE903A64
:102078001380D8F800308A4F13F4807F00F0EA808C
:10208800884BDFF82492994205D999F8022012B9B1
:10209800012289F8022099F80220002A00F0DA804B
:1020A800814A3E7892F82150804A691E4D424D413E
:1020B8001168002DC1F38063C6F380060093924631
:1020C80014BF4FF0000B4FF0030B99F82020052A9E
:1020D80000F2BA80DFE802F0034D527584A1002EA9
:1020E8003AD0D4F8F000B4F8F4100CF0EEF8012867
:1020F80009D16F496F4A09681268C988642000FBD2
:102108000122C9F81020009B6BB1694A1268127944
:102118004AB10DF053F9032289F820204FF47A725E
:10212800C9F81C20D1E7002D40F08E80614AD9F80B
:10213800101010685C4A88420AD901920DF03EF9E5
:10214800019A032182F8201040F6B831D161BCE72A
:10215800012182F82010B8E7009B4FF4806013B18A
:1021680007F034F901E007F021F90022C9F810203E
:102178006AE0002D46D10DF021F9A6E725B1052228
:1021880089F82020012000E0284666B1D4F8F02024
:10219800D189494A11805180918045490968498807
:1021A800D1804FF0020B434A1168D9F814209142AC
:1021B80001D8002E45D147F23052C9F81C2003221D
:1021C80021E03A7842F002023A700CF01AFD394ADE
:1021D800D9F81C1012680A44C9F81820042212E021
:1021E800344A9DB11168D9F8182091422CD9334A44
:1021F80092781AB9DAF80020D20725D43A7822F072
:1022080002023A70052289F820205EE71268D9F8A0
:102218001C100A44C9F8182016E02549254A0968FF
:102228001268C988642000FB0122C9F810204FF405
:102238008060002289F8202089F8032007F0B6F88A
:1022480043E700287FF441AFBBF1000F02D05846A6
:102258000CF0D8F81A4D05F5C470B5F84E110CF00D
:1022680034F8814670BB0DF09FF895F8E231012BE8
:1022780005D9104BD4F8F8201B689A422CD20DF0DF
:1022880083F829E0FC0C00200C1200201C1200200E
:10229800D90D00200000C842220F002000C07F4452
:1022A800C02A0020404B4C00702A0020C40E002099
:1022B800842900206C2A0020DA1C0020030000205A
:1022C800981D0020A34B95F8E2211B684FF47A7102
:1022D80001FB0233C4F8F8303B785B0736D5D8F8F1
:1022E8000030DE0632D59C4B1B78D8062ED49B4B8B
:1022F8009B7893B195F8E031B9F1000F15D17BB116
:10230800944B1A68D4F8FC309B1A002B08DA0CF0AE
:1023180078FC934B83F8009118E0B9F1000F0DD1C8
:1023280010200CF06FF801230EE03BB1894A1268C7
:102338004FF47A7101FB0323C4F8FC3094F80031A0
:1023480023B10CF04BF8002384F80031002295F8F3
:10235800DEB195F8DF01B5F898E1B5F89AC11346F2
:102368008049009131F912609B087645C4BF63F03B
:102378007F03DBB201326645B8BF43F04003042A4D
:10238800EED194F8012176499A4205D191F80221BB
:10239800F92A04D8013200E0002281F8022184F8E9
:1023A80001316E4B704E9A789A46E2B93368D90774
:1023B80008D5B9F1000F16D13B78DA0713D50CF020
:1023C8009DFA10E03B785B070DD5654B93F82830F4
:1023D8004BB1664BDB7833B910B10CF012FC02E05C
:1023E800B9F1000FF9D094F802315D4ADFF89891FD
:1023F800142B40F085809AF802301BF1000B18BFAF
:102408004FF0010B6BB392F801315F2B11D13B7880
:1024180003F0040303F0FF0113B10CF0F2FB08E032
:102428000B20029101920BF0EDFF019A029982F8BC
:102438000211BBF1000F14D094F801317D2B10D19B
:102448003B7803F0040303F0FF0213B10CF0D9FB4F
:1024580007E00B2001920BF0D5FF414B019A83F85E
:1024680002213B7803F0040303F0FF01002B47D15E
:1024780094F801313A4A572B03D14FF47A723C4B06
:1024880035E0D8F80000400716D55A2B14D1394B3F
:10249800187820B11970384B01221A7030E092F880
:1024A800033183F0010382F803310BB10C2000E003
:1024B8000D200BF0A7FF23E05D2B00F034845B2B8D
:1024C80000F033845E2B02D1032000F02FBC562B82
:1024D80001D107F02BFA9AF8023053B994F8013178
:1024E8001F4A972B40F03A84244B4FF4C8721A8045
:1024F80006E094F801316F2B40F027840CF0FEF9C8
:10250800D8F800305A074ED594F80331A3B13B7878
:102518005B0711D5009BB3F90620B5F898319A42AC
:102528000ADD336813F0010301BF154A3221118017
:102538000B4A08BF82F803313368D80326D5114BFC
:102548001A782AB90B4A127812B90D4A3221118029
:10255800012227E06C2A0020B0140020030000208C
:10256800FC0C0020DA1C0020C40E0020702A002079
:10257800BC2A00207514002076140020481400207E
:102588005C14002074140020000F0020B44A137853
:102598004BB13B7803F0040303F0FF011BB9B14BC7
:1025A800117001221A70D9F800A0002333600AF1D3
:1025B80083090AF1D30B99F8002099F8013019F82A
:1025C800010C9A420BD249460BF048FE38B119F873
:1025D800022C012303FA02F233681343336009F132
:1025E8000409D945E7D1A04B1B782BB19F4E33681E
:1025F800990700F1398330E30AF1D2060AF58D799B
:102608003278737816F8010C9A4225D231460BF0CD
:1026180025FE08B3B37896F804C0954A96F803A047
:1026280094480C21013B01FB0C4103EB4303134489
:10263800D1F814219A420FD0C1F81431002390F830
:102648004021C1F81831012303FA0CF322EA0303ED
:1026580081F810A180F8403106364E45D0D1864B1E
:102668001E68864B1B68029394F828300393844BAA
:10267800009300230193009B1A68002A00F0E2826D
:1026880092F800A0BAF1000F00F0DC825B680299B2
:10269800CB1A002B0CDB01F5FA7300994B600199FA
:1026A80001238B4094F8401121EA030384F8403158
:1026B800039B002B00F0C682009B517813F8043C62
:1026C8000433DBB2002940F07C826E4931F91310E3
:1026D800B5F8963103F1C800814202DD92F802B0E4
:1026E80015E0C83B994203DA9178C1F1000B0EE07E
:1026F800019A0123934094F8402122EA030384F8C5
:102708004031029B009A03F5FA7353609AE2019AEA
:1027180094F840311341DA0700F19482BBF1000FBD
:10272800CCBF022001200BF08FFE0AF1FF33DFF847
:102738004491132B00F27E82DFE813F01400250089
:1027480037004B0064006B00E9004C01B301E10164
:1027580011027C024B005A006B00E9004C01BB00DF
:102768001E01830196F80090D944B9F1FA0FA8BF69
:102778004FF0FA0929EAE979304686F800900BF01B
:1027880053FD01200FE096F80190D944B9F1640F88
:10279800A8BF4FF0640929EAE979304686F8019024
:1027A8000BF042FD02204946D6E196F803A0DA4430
:1027B800BAF1640FA8BF4FF0640A2AEAEA7A86F8E9
:1027C80003A03046D9F8441104F05AFE03205146BC
:1027D800C2E1717959446429A8BF642121EAE171F1
:1027E80071710D200BF0A2FDBAF10D0F00F02282DD
:1027F800317959446429A8BF642121EAE171317112
:102808000E20A9E1B179594481F30801B17105207D
:10281800A2E1D9F848311A78022A3BD107EE90BADA
:10282800B8EEE70ADFED197A93ED097A80EE270A08
:1028380030EE070AB5EEC00AF1EE10FA07D4B4EE8E
:10284800670AF1EE10FAC8BFB0EE670A01E09FED23
:10285800100A83ED090A0F200BF052FD25E000BF96
:102868007514002076140020C12A0020C40E002010
:10287800EC340108FC0C00202C0F00206C2A0020EE
:10288800100E0020DA1C002000007A440000C84224
:102898000000000099785944C829A8BFC82121EA36
:1028A800E17199700F200BF041FDBAF10F0F00F0A4
:1028B800C181D9F848311A78022A1ED107EE90BA98
:1028C800B8EEE78A5FED0F7A93ED080A88EE278A5B
:1028D80038EE000AB5EEC00AF1EE10FA07D4B4EEED
:1028E800670AF1EE10FAC8BFB0EE670A01E01FED03
:1028F800180A83ED080A122056E159785944C82964
:10290800A8BFC82121EAE1715970122024E1D9F841
:1029180048311A78022A20D107EE90BAB8EEE70AB1
:102928005FED267A93ED0C7A80EE270A30EE070ADF
:10293800B5EEC00AF1EE10FA07D4B4EE670AF1EE6C
:1029480010FAC8BFB0EE670A01E01FED2F0A83ED49
:102958000C0A10200BF0D4FC0AE0197B5944C82952
:10296800A8BFC82121EAE171197310200BF0DEFC21
:10297800BAF1100F00F05E81D9F848311A78022AAE
:102988001ED107EE90BAB8EEE78A5FED407A93ED74
:102998000B0A88EE278A38EE000AB5EEC00AF1EE77
:1029A80010FA07D4B4EE670AF1EE10FAC8BFB0EE19
:1029B800670A01E01FED4A0A83ED0B0A1320F3E0D2
:1029C800D97A5944C829A8BFC82121EAE171D97226
:1029D8001320C1E0D9F848311A78022A22D107EE2B
:1029E80090BA1FED570AF8EEE77A87EE800AD3ED22
:1029F8000F7A30EE270AB5EEC00AF1EE10FA09D4C4
:102A08005FED5E7AB4EE670AF1EE10FAC8BFB0EE79
:102A1800670A01E01FED620A83ED0F0A11200BF02F
:102A28006FFC0AE0997D5944C829A8BFC82121EA4A
:102A3800E171997511200BF079FCBAF1110F00F0D2
:102A4800F980D9F848311A78022A20D107EE90BACD
:102A58001FED730AB8EEE78A88EE008A93ED0E0A36
:102A680038EE000AB5EEC00AF1EE10FA09D45FEDAF
:102A7800797AB4EE670AF1EE10FAC8BFB0EE670AC9
:102A880001E01FED7D0A83ED0E0A14208CE0597DCC
:102A98005944C829A8BFC82121EAE17159751420F1
:102AA8005AE0D9F848311A78022A1ED107EE90BAAE
:102AB800B8EEE78A5FED8B7A93ED0A0A88EE278AEB
:102AC80038EE000AB5EEC00AF1EE10FA07D4B4EEFB
:102AD800670AF1EE10FAC8BFB0EE670A01E01FED11
:102AE800940A83ED0A0A09205EE0D9785944C82976
:102AF800A8BFC82121EAE171D97009202CE0D9F8D2
:102B080048311A78022A1ED107EE90BAB8EEE78A41
:102B18005FEDA27A93ED0D0A88EE278A38EE000A57
:102B2800B5EEC00AF1EE10FA07D4B4EE670AF1EE7A
:102B380010FAC8BFB0EE670A01E01FEDAB0A83EDDB
:102B48000D0A0A2030E0597B5944C829A8BFC8217A
:102B580021EAE17159730A200BF0E8FB6AE0D9F821
:102B680048311A78022A22D107EE90BA1FEDBA0A24
:102B7800B8EEE78A88EE008A93ED100A38EE000A6C
:102B8800B5EEC00AF1EE10FA09D45FEDC07AB4EEE2
:102B9800670AF1EE10FAC8BFB0EE670A01E01FED50
:102BA800C40A83ED100A0B200BF0AAFB42E0D97D82
:102BB8005944C829A8BFC82121EAE171D9750B2059
:102BC800CAE7012936D190788C4A32F91390B9F5C1
:102BD800617F05DB40F633039945A8BF994601E0BC
:102BE8004FF46179BAF10C0F24D1854A4FF49663FA
:102BF80093FBF0F01378A9F5617999FBF0F95FFA86
:102C080089F94B4516D0B9F1040F34BF4B4602235E
:102C180013707C4A0AFB035303F29E73136006F099
:102C2800B9FC504649460BF081FB09F10100C0B2DE
:102C38000BF00AFC019A0123934094F840211343B6
:102C480084F84031019B01330193009B0C330093BE
:102C5800019B042B7FF40FADC8E4D8F80030DB05E6
:102C680011D5694BDB7873B1684B1B689C070AD593
:102C7800674B1B8813F001040AD10CF095FB012067
:102C880006F0A4FB04E0012006F090FB012300E01D
:102C98000023326850070DD563B1012006F086FB8A
:102CA8005B4B1B88990708D40CF07EFB022006F0CA
:102CB8008DFB02E0022006F079FB33681A054FF419
:102CC800807002D506F082FB01E006F06FFB6B799D
:102CD800082B01D00E2B02D1402006F067FBD8F854
:102CE80000305B0540F1848095F810321BB93B78C1
:102CF80013F0040F02E0336813F4002F0AD0454B99
:102D080000221A703C200BF02DFA002870D00AF02F
:102D18005BFCF7E705F08EFA07B0BDEC028BBDE867
:102D2800F04F0BF02AB9012000E002205FFA80FA88
:102D38000AF1FF3385F89C3706F092FB06F04EFC4B
:102D480050460BF081FBFFF7DBBBBBF1000F3FF4F4
:102D5800C5AB7E2B7FF4C2ABFFF7D0BBA72B06D148
:102D68002D4A137843F004031370FFF7C9BB002101
:102D7800BB2B059101D1022303E0B72B04D14FF6F9
:102D8800FE73ADF816301CE0BE2B01D1022303E020
:102D9800BD2B04D14FF6FE73ADF8143011E0792B3A
:102DA80004D192F8073123F0010306E07A2B7FF46F
:102DB800A7AB92F8073143F0010382F80731FFF718
:102DC8009FBBD9F80030BDF81410B3F860200A444E
:102DD800A3F86020BDF81610B3F862200A44A3F8DF
:102DE800622006F0A3FD002384F80231FFF788BBB8
:102DF80007B0BDEC028BBDE8F08F00BFDA1C0020E5
:102E0800841C00202C0F0020702A0020BC0E0020FB
:102E1800C00E002078250020B0140020BD4B2DE9FD
:102E2800F04FB3F90610BC4B1E682DED028B72896A
:102E380091428FB00EDBB1F5FA6FF479BDBF8B1AF2
:102E48006343A2F5FA64C4F16404BCBF93FBF4F4D1
:102E5800643400E06424B14BB14AB3F896E193F9C5
:102E68005E31126802929BB2154603930022A94B69
:102E780033F912C0CEEB0C0303F2F31740F2E6303D
:102E880087424FEA420803D8002BB8BF5B4201E0F3
:102E98004FF4FA73022A01934FF06400029B2FD07B
:102EA80093F819712FB1019BBB42CCBFDB1B0023E8
:102EB8000193019B9B4F93FBF0F96FF0630B37F87D
:102EC80019A00BFB093B09F10109974B37F9197058
:102ED8000FFA8AF9C9EB070707FB0BF797FBF0F71F
:102EE800574423F80870B718019B3F797B438F4FED
:102EF80093FBF7F364339BB2634393FBF0F02DE04D
:102F080093F81A712FB1019BBB42CCBFDB1B002386
:102F18000193019BDFF83CA293FBF0F06FF063098B
:102F28003AF9107009FB003B0130BDF80C303AF952
:102F38001000C01B00FB0BFB9BFBF9FBC7EB0B074F
:102F480017FB03F7784B9F80019BB079002BB8BF24
:102F58005B424343754893FBF0F064306F78744BE1
:102F68004FF06409474397FBF9F79F5403F1030AAD
:102F7800EF7A474397FBF9F70AF8027006336F7D3B
:102F8800022A00FB07F0684F90FBF9F09854694B50
:102F98000ED1F44583F802900DDB604CB4F898210B
:102FA800914214DBB1F5FA6FA8BF4FF4FA610FE054
:102FB800F4459C5404DA37F808305B4227F80830A7
:102FC8000132032A05F101057FF451AFE5E7114607
:102FD800DFF884E1544D891A4FF47A736FF0630671
:102FE8005943C2F5FA626423B1FBF2F191FBF3F2A3
:102FF8003EF8120006FB0211013206B23EF9122019
:10300800921B514391FBF3F30344FB804A4B1B880B
:103018005A063BD5494BDFED4A7AB3F904309FEDA8
:10302800490A0A2293FBF2F3474A12889B1A1BB2F9
:1030380008EE103AB8EEC88A28EE278A38EE000A59
:1030480006F053F9F0EE408AB0EE480A06F04DF962
:10305800B5F9023006EE903AB5F90030F8EEE66AB6
:1030680007EE903A20EE667AF8EEE77AA7EEA87AAD
:1030780067EE807ABDEEC77AE6EEA87A17EE103AC8
:10308800FDEEE77A2B8017EE903A6B802F4BDFF836
:10309800C4801B88DFED2E0AB8F8185000EE103AED
:1030A80008F11C00B8EE400A012105F0BBFEBCEE99
:1030B800C00A8DED010ABDF80430B5FBF3F598F8A8
:1030C80026306E1CB6B2A8F82460002B46D0B8F89B
:1030D80028A000231F4837F813C000F1320E00F172
:1030E8002A093EF8132039F813102EF813C0C2EB42
:1030F8000C0B11FB0AF132B291FBF2F25A4429F897
:1031080013200133042BE5D1002380F826300585F0
:1031180029E000BFDA1C00202C0F0020981D002099
:10312800000F0020CC250020101300200CFEFFFF0C
:10313800560E002018130020C00E00201C0F00207F
:1031480035FA8E3CDB0FC93F74270020B00E0020F3
:103158006F12833A480E0020C6100020B8F82830B5
:10316800013BA8F82830B94D288D03B2002B4FF049
:10317800000312DDB5F92460B54931F81320083190
:1031880012FB00F231F8131092FBF6F28A1A27F8B4
:1031980013200133042BEFD100E02B85AD4E3368AB
:1031A8009B0778D5AC4BDFF8A4B21A68EB6B45F2F5
:1031B8000721D31A8B426EDDCBF83C2004F0F6FFD2
:1031C800A64BDFF8E0A21A78032A9946BAF800302D
:1031D80024D10A2B2ED90023282089F800300BF09F
:1031E800D5F804F0E3FF9E4B188804F0C9FF9D4B07
:1031F8001A68D37890FBF3F0013008289A4BA8BFDF
:1032080008201870537980B213FB00F3A5F84030FA
:10321800137913FB00F0A5F842000BE00A2B09D83C
:103228000323914A89F8003000231370ABF840302B
:10323800ABF8423099F80030884A012B0DD002D300
:10324800022B1ED027E0B5F84020BAF800309A4289
:1032580021DD012389F8003011E0BAF80010B5F833
:1032680042308B4202DD0223137011E0774BB3F832
:1032780040300133994202DD002313700BE008202F
:1032880007E0B5F84230BAF8002001339A42E0DC92
:1032980007200BF0B7F83368744E13F4006F7BD037
:1032A8006D4A696C12686948C1EB020945F2072149
:1032B800894571DD4264B7F906206A4FB4F84E11AA
:1032C800D7F800A06A4F9AF80AE0BEF1010FA2F5FC
:1032D8007A7204D047D3BEF1020F22D045E0654B85
:1032E800816C5A7B644B33F812204FF0080E92B26F
:1032F80091FBFEF3C91A8B18A0F84C20836440F6A2
:10330800E44293FBFEF39BB25343BAF80820C2EBA6
:1033180013334FF47A725343BAF9062093FBF2F34E
:1033280022E03078BAF808B0C7F800B040071CD5DA
:103338005248029201930AF0C8FF019B029A18B9F9
:1033480013F0100F18BF002202FB02F1322391FB89
:10335800F3F31344BAF906205A434FF47A7392FBF5
:10336800F3F35B4400E000233B60D8E914013B68B9
:1033780003FB09F94FF47A7399FBF3F910EB09028F
:1033880041EBE973C8E91423104619463C4A002367
:103398000CF090FD3B4B18603B4B1A6812F4805FB1
:1033A800984602D00A200BF02DF8384F3B68002BC6
:1033B80000F08A80DFF8F0E0354ADEF80000116896
:1033C8008142F24691467FD8324ADFF8D4B010786D
:1033D800596808BB01201070BBF800208A5C52B302
:1033E8001B78013B00FA03F2D4F8C8371A4201D11E
:1033F8000AF0EEFF284B01221A700CF001F9BBF815
:103408000030C3B93B681B78053B012B13D80AF081
:10341800A1FF224B18600EE000231370BBF80020B8
:103428008A5C42B1184601930AF0D2FF1A4A019BFE
:1034380013700CF0E5F83A68BBF800305268184889
:10344800D25CFE2A32D100233DE000BF480E0020A6
:10345800720E0020602A0020A02A0020AC1C002048
:1034680024120020041200200C010020C02A002091
:10347800240F00200C1200201C120020201F002006
:10348800407E050008120020C40E0020F42500200C
:10349800EC250020E8250020942A0020FC280020A4
:1034A800F0250020B01200206C2A0020FF2A02D14B
:1034B8000AF094FF08E0DAF800700A2111FB0272A2
:1034C800C9F80020013303803378590703D5AA4B84
:1034D80020221A852FE0D8F80020D2075EBFA74A1D
:1034E80043F001031370A64B1B781B075EBF3378AC
:1034F80023F001033370A34B1A88A34B1AB1A34AD4
:103508001268970702D4A24A128832B102221A70AE
:10351800337823F00103337004E03178C80758BFCB
:1035280002221A700AF016FF9A4B1B68C01A00286C
:1035380001DB0CF065F804F07DFE974B01931F78D2
:10354800002F00F0A780954E3368002B00F0C68648
:1035580030680AF0DFFF002800F0C0868F4B904DDE
:1035680018680AF0D4FF092801D03F2850D14FF03D
:103578000009D5F800808B4C4F46B8F1000F05D0F4
:103588008948216842460FF005FE10B9A14607B9DF
:103598002746864B10349C42EFD3C7B1D7F800E0DA
:1035A800D9F800C02B681EF803401CF80300A0429D
:1035B8000DD15A1C7C4938B92D2B05D8784C22607E
:1035C8002024CC54885402E0CC542A60EAE72B68C3
:1035D8000BB14F4511D076480AF0EEF84F4507D8A1
:1035E80057F8100B0AF0E8F809200AF0DDF8F5E7BB
:1035F80070480AF0E1F84FF000082B689845A7D208
:10360800694B13F808000AF0CFF808F10108F4E74D
:103618002B68002B40F04786042840F06A866248F1
:1036280002F06EFB00F05ABED9F80000DFF88CA15A
:103638000AF070FF28B3DAF800000AF068FFDBF838
:10364800003093F848100246A1BB24286BD1012210
:1036580083F84820DBF80030DFF87CA193F8482095
:10366800062AE1D193F8490000F0CCFE83460028F1
:1036780000F0B48009F0F4FFD8F80030002283F895
:10368800482095F85F30002B40F0FB854C37982F89
:1036980000F02486484BFA1892F84A100129F5D10F
:1036A800DFF83481FB58C8F80020444AC346136049
:1036B8009146B9E7012904D14D2814BF00220222FE
:1036C800C6E7022904D13C2814BF00220322BFE721
:1036D80003290CD140284FF0000102D983F8481083
:1036E800B8E758711971D97198710422B0E70429A3
:1036F80006D1997983F849004A409A710522A7E7CB
:103708000529A7D1587919798842987906D950405E
:103718009871481C18710B441A729BE790420CBFB1
:103728000622002294E7337814495B0792D42328B1
:10373800DAF8003013D1019A02900120107017486E
:10374800039103601E48AB650AF036F819480AF081
:1037580033F80399029A0B7843F002030B70194B64
:103768001B681B78934201BF174B184A1A60184B05
:1037780004BF184ADA606DE700040048C02A002038
:10378800B014002048140020942A0020BC0E002009
:10379800BC2A0020982A0020C12A0020A81C00204A
:1037A80064100020B8360108341000208838010859
:1037B800C8540108CD540108001D0020A41C002095
:1037C800FD54010874250020FC9F0020EFBEADDEEB
:1037D80000ED00E00400FA05A01C0020DAF8002043
:1037E80092F849304A2B00F047854FD8332B00F028
:1037F8004D8421D8292B00F0D18309D8252B00F03E
:10380800A983272B00F0AC83232B40F06E8551E26F
:103818002D2B00F0D48307D82B2B40F0668509F0B8
:10382800F3FE607100F028BD2F2B00F09B84312B34
:1038380000F0AD8400F059BD3E2B00F0078110D890
:10384800372B00F0568404D8352B00F06E8200F038
:103858004CBD392B00F091833C2B00F0018100F026
:1038680044BD432B00F0238406D8412B40F03D850E
:103878004FF0000900F00FBC442B00F0BD84482B2A
:1038880040F0338509F0D2F900F0F6BCD02B00F0F7
:103898003F835FD8CA2B00F0FB8016D84E2B00F070
:1038A800B183C82B00F0A2804C2B40F01E8509F094
:1038B800ABFE84F8D60109F0A7FE84F8D70109F019
:1038C800ADFEA4F8D80100F0D7BCCD2B00F02B83B7
:1038D80004D8CC2B00F0518200F007BDCE2B00F0AD
:1038E8002B83CF2B40F0018509F098FE6FF4AF6E63
:1038F80000EB0E039BB2C62B98BFA4F8960109F003
:103908008DFEA4F8400109F089FEA4F8420109F0EF
:1039180085FEA4F8440109F081FEA4F8D80109F055
:1039280073FE09F071FE09F06FFE09F06DFE84F870
:10393800850109F069FE84F8920109F065FED54B0E
:10394800D3F8009009F06AFE00EB80004000A9F867
:103958005E0012E3D82B00F02D810FD8D32B3FD077
:1039680003D8D22B29D000F0C0BCD42B00F0608241
:10397800D62B40F0BA844FF000094EE2F22B00F04B
:103988009F8212D8EF2B40F0B084DFF80893D9F863
:1039980000A009F043FEAAF86200D9F8009009F0E7
:1039A8003DFEA9F8600000F067BCF32B00F0288406
:1039B800FA2B00F0CB8200F098BC337803F00403B4
:1039C80003F0FF09002B40F0578409F01DFE022880
:1039D80084F89C0740F2A282AF4B83F89C979DE243
:1039E80009F01CFEA5F85C0000F046BC92F80590B2
:1039F8004FEA5909B9F1120F03D90AF0AFFB00F0E9
:103A08003BBC4FF0000ACA4507D209F007FE05ABD8
:103A180023F81A000AF1010AF5E74A4600234B4544
:103A280007DA05A931F813009C4921F8130001337E
:103A3800F5E7122A05D0994B002123F8121001321C
:103A4800F7E7012385F85E3000F016BC09F0DCFDCD
:103A580084F8E00109F0D8FD84F8DF0100F00CBC1F
:103A6800DFF83092D9F800A009F0CEFD18B102288D
:103A7800A8BF022000E001208AF80000D9F8003031
:103A88001B78022B864B14BF864A874A1A60F3E3D9
:103A9800804B1A681278022A824699466FD1D9F863
:103AA80000B009F0B1FD07EE900AF8EE677AB2EEC1
:103AB800048AC7EE887A0BEB8A0BCBED087AD9F823
:103AC80000B009F0A1FD07EE900A9FED787AF8EEB4
:103AD800677A0BEB8A0BC7EE877ACBED0B7AD9F8AE
:103AE80000B009F091FD07EE900A9FED717AF8EEAB
:103AF800677A0BEB8A0BC7EE877A0AF1010ABAF1EB
:103B0800030FCBED0E7ACAD1BAF1070FD9F800B07E
:103B18001CD109F079FD07EE900AF8EE677AC7EE36
:103B2800887ACBED117AD9F800B009F06DFD07EE6F
:103B3800900AF8EE677AC7EE887ACBED127AD9F850
:103B480000B009F061FD8BF84C0012E009F05CFD53
:103B5800D3448BF80100D9F800B009F055FDD344DF
:103B68008BF80B00D9F800B009F04EFDD3448BF860
:103B780015000AF1010ABAF10A0FC5D17CE3D9F898
:103B880000B009F041FDD3448BF80100D9F800B02A
:103B980009F03AFDD3448BF80B00D9F800B009F0CE
:103BA80033FDD3440AF1010ABAF10A0F8BF8150064
:103BB800E5D161E38246DFF8DC909FED3D8AD9F8D4
:103BC80000B009F02BFD07EE900AF8EE677A0BEBD0
:103BD8008A0BC7EE887ACBED087AD9F800B009F0DD
:103BE8001DFD07EE900AF8EE677A0BEB8A0BC7EE1D
:103BF800887ACBED0B7AD9F800B009F00FFD07EE03
:103C0800900AF8EE677A0BEB8A0BC7EE887A0AF10E
:103C1800010ABAF1030FCBED0E7ACCD1BAF1070F36
:103C2800D9F800B01CD109F0F9FC07EE900AF8EEBB
:103C3800677AC7EE887ACBED117AD9F800B009F027
:103C4800EDFC07EE900AF8EE677AC7EE887ACBEDBE
:103C5800127AD9F800B009F0E1FC8BF84C0012E0B8
:103C680009F0DCFCD3448BF80100D9F800B009F066
:103C7800D5FCD3448BF80B00D9F800B009F0CEFC82
:103C8800D3448BF815000AF1010ABAF10A0FC5D11D
:103C9800F2E200BF000F0020981D0020D02900206C
:103CA8000401002049990008F1EF00080000C8420B
:103CB80000007A4409F0A8FC132883463FF69DAE1D
:103CC800DFF894A3DAF8009009F09EFC0023DD4A9F
:103CD8000C2101FB0322117A814222D10FFA8BFBBE
:103CE80009EB8B09137889F8813009F08DFC89F884
:103CF800820009F089FC89F8830009F085FCD24B21
:103D0800D24A1A6089F88400D14BDAF800001860AA
:103D1800002181300AF0C8FACE4B80F001001870FB
:103D2800AAE201331C2BD2D167E609F06DFC0B28FF
:103D380082463FF662AEC84BD3F8009009F064FCA7
:103D480003283FF65AAE062303FB0A9989F8D600E2
:103D580009F05AFC89F8D10009F056FC89F8D2001C
:103D680009F052FC89F8D30009F04EFC89F8D40018
:103D780009F04AFC89F8D5007EE25379092B7FF6D1
:103D88003CAEDFF8E492D9F800A009F03DFC8AF8CF
:103D98000000D9F800A009F037FC8AF8010009F002
:103DA80033FCD9F800306428A8BF6420187109F0E2
:103DB8002BFCD9F800306428A8BF6420587109F09A
:103DC80023FCD9F80030FF28A8BFFF20987109F01C
:103DD8001BFCD9F800A0642828BF64208AF80700D3
:103DE80009F012FC8AF80200D9F800A009F00CFCCE
:103DF8008AF80300D9F800A009F010FCD8F80030C0
:103E0800AAF80A005B790A2B40F23682D9F80090AA
:103E180009F0FAFB89F808002EE209F0FFFB8F4B46
:103E280023F8190009F10109B9F1080FF5D123E2C6
:103E380053790F2B7FF4E1AD09F0E6FB07288146A3
:103E48003FF6DBADDFF810A2DAF800B009F0E6FBC8
:103E58000E2303FB09F9CB44ABF82101DAF800B0D3
:103E680009F0DCFBCB44ABF82301DAF800B009F029
:103E7800D5FBCB44ABF82501DAF800B009F0C4FB58
:103E8800CB448BF82701DAF800B009F0BDFBCB442E
:103E98008BF82801DAF800B009F0B6FBCB448BF8B0
:103EA8002901DAF800B009F0AFFBCB44DAF800A03A
:103EB8008BF82A0109F0BCFBD144C9F82B01DBE1DE
:103EC80009F0A2FB0F2881463FF697AD09F09CFB4D
:103ED800C9EBC909A14489F8D00009F095FB89F814
:103EE800D10009F091FB89F8D20009F08DFB89F81F
:103EF800D30009F089FB89F8D40009F085FB89F81B
:103F0800D50009F081FB89F8D6000AF0B5FCB3E1C9
:103F18003378580700F1B08107F0A4FF05F0A0FA44
:103F280005F05CFBA8E13378590700F1A5814C4BFB
:103F38004FF4C8721A809FE133785A0700F19C81C8
:103F4800484A137843F00403137095E133785B070C
:103F5800E4D5CAE1A06009F06BFB05F04FFA8BE1EC
:103F680009F05CFBA4F8580109F058FBA4F85A01C1
:103F780009F054FBA4F85C017EE109F045FB84F8E4
:103F88007A0109F041FB84F87E0109F03DFB84F8D1
:103F98007D0109F039FB84F87F016DE109F03EFBF2
:103FA800A4F8800109F03AFBA4F8820109F02CFB7F
:103FB80084F8840109F032FBA4F886015CE109F079
:103FC80023FB84F8900109F029FBA4F89A0109F071
:103FD80025FBA4F8960109F021FBA4F8980109F043
:103FE80013FBDAF8003084F891015B79082B40F272
:103FF800438109F013FBA4F89C0109F00FFBA4F816
:104008009E0139E192F805900323B9FBF3F9B9F160
:10401800120F3FF6F2ACDFF854A04FF0000BCB457F
:1040280080F02A8109F0F0FA8AF8A00109F0F6FA7E
:1040380040F2ED2398421BDD40F6CA039842A8BF20
:10404800184617E058350108400E0020D81E0020F9
:10405800440E002005000020000F0020861C0020D0
:1040680048140020B01400202C0F0020981D0020B8
:1040780040F2EE20A0F2EE2019230BF1010B90FB89
:10408800F3F00AF1020A8AF89F01C8E709F0BCFABE
:1040980084F89201F0E009F0B7FA04EB090309F19A
:1040A8000109B9F1080F83F88801F4D1E4E009F0B7
:1040B800ABFAC4F808B0607109F0BAFA05F09EF9D5
:1040C80009F0A2FA84F8900109F0A8FAA4F85801B6
:1040D80009F0A4FAA4F85A0109F0A0FAA4F85C01BE
:1040E80009F09CFAA4F8800109F098FAA4F8820172
:1040F800C2E053794FF0070AB3FBFAF2C2EBC202EF
:104108009A1A12F0FF0F7FF478ACB3FBFAFA0AF1AF
:10411800FF3A5FFA8AFABAF1FF0F00F0AD8009F0B2
:1041280073FA5FFA80FB4FFA8BF003F0C5F881460B
:1041380000283FF462AC80F800B009F06FFAA9F8E3
:10414800020009F061FA89F8040009F05DFA89F8BB
:10415800050009F059FA89F8070009F055FA89F8B5
:104168000600D4E7DFF8989209F1400A09F056FAF8
:10417800A9F8A00209F048FA89F8A20209F044FA5D
:1041880009F1040989F89F02D145EFD174E009F0DB
:104198003BFA1F2881463FF630ACD8F800305B79EF
:1041A800082B7FF42AAC09F039FA09F1880904EBE5
:1041B800890A00F03F00AAF8020009F02FFABAF8BD
:1041C8000230800100F4FE501843AAF8020009F0FA
:1041D8001BFA000104F8290009F016FA14F829302E
:1041E80000F00F00184304F8290009F00DFA8AF8C6
:1041F800010004F001FC3FE0012385F85F303BE05B
:1042080009F002FAFF28824622D100238DF81330E4
:104218009DF81330072B14D89DF81300694A9DF8B0
:10422800133052F8300002EBC30301215B68994058
:1042380089B2042202F0BAFE9DF813300133DBB2D2
:10424800E4E74FF090400121002202F0AFFE13E0B6
:1042580007283FF6D2AB002009F026FA09F000FA49
:10426800D9F800000AF050F918B932200AF08EF88F
:10427800F6E7504602F0A8FE002009F015FAFFF70D
:10428800F9B9514BD8590AF03FF918B932200AF058
:104298007DF8F6E70AF0B0FA05F0B8F84B4B4C4A4F
:1042A800DA60FFF7F3B90C2825D00A2827D1494C42
:1042B800494809F081FA204623210EF056FF08B13B
:1042C800001B28602B68EBB942482B600021302284
:1042D8000EF018FF019B1B78002B46D13F4B9B68C3
:1042E800002B69D03E48984766E009F037FFFFF792
:1042F800C1B90C2847D13B4809F05EFA35E00D28D2
:1043080035D1D4E75A1EA15C202901D11346DAE73A
:10431800304A2B600021D154334B344CD3F80090F1
:10432800D4F800A0DFF8AC8050460EF02BFF07460B
:104338003A46404651460EF02DFF2D4A28B918F846
:1043480007304B445B78590703D010349442E7D3C5
:1043580006E0944204D2781CE3684044984702E09F
:10436800244809F029FA0023AEE7234807E07F280C
:104378000DD1013B174A21482B600021D15409F087
:104388001BFAFFF7E5B87F2804D1FFF7E1B82F2B18
:104398003FF6DEA8A0F12002D2B25E2A3FF6D8A8E6
:1043A80013B920283FF4D4A85A1C2A60094AD054CB
:1043B80009F0FAF9FFF7CCB80FB0BDEC028BBDE8F5
:1043C800F08F00BF48600108001D002000ED00E0EC
:1043D8000400FA0534100020AE630108B013002071
:1043E800A80E0020D254010810010020B836010898
:1043F80088380108DD540108CD540108F954010832
:10440800981D00202DE9F0472DED028B4728A0B01C
:10441800044600F0548600F2CE802E2800F0038671
:1044280067D8222800F0AE8423D8032800F03C8205
:1044380014D8012800F02D82022840F08C86042030
:1044480009F032F9422009F0FCF8542009F0F9F893
:10445800462009F0F6F84C2000F0B7BD042800F01B
:104468002D82052840F077861A2009F01DF90024CE
:1044780034E2282800F0708515D8242800F05785E4
:10448800262840F06886C44C062009F00DF9B4F8D7
:10449800580109F00CF9B4F85A0109F008F9B4F810
:1044A8005C0100F0A3BD2A2800F069852C2840F0A3
:1044B8005286B94C0C2009F0F7F894F8900109F0ED
:1044C800C0F8B4F89A0109F0F2F8B4F8960109F0C6
:1044D800EEF8B4F8980109F0EAF894F8910109F0B7
:1044E800B0F8B4F89C0109F0E2F8B4F89E0100F0C5
:1044F8007DBD3A2800F0DD821DD8342800F0728492
:104508000DD8302800F0A585322840F024860120F7
:1045180009F0CAF8A04B93F8920100F056BD36286E
:1045280000F06785382840F01686042009F0BCF8AA
:10453800994C00F002BD402800F04A8511D83B286C
:1045480000F019843D2840F00686934C022009F0BB
:10455800ABF894F8E00109F074F894F8DF0100F082
:1045680034BD452800F0E48500F29885422840F0E3
:10457800F285894C102009F097F8607909F061F804
:10458800A06809F09DF894F8900109F05AF8B4F879
:10459800580109F08CF8B4F85A0109F088F8B4F811
:1045A8005C0109F084F8B4F8800109F080F8B4F8E7
:1045B800820100F01BBD6F2800F0CC8200F2F4806D
:1045C800662800F0C78100F2BE804D2800F0DD8427
:1045D80015D8492800F0B7824B2840F0BC856E4CAE
:1045E800042009F061F894F8D60109F02AF894F843
:1045F800D70109F026F8B4F8D80100F0F7BC642810
:1046080000F08581652840F0A685644C0B2009F0F0
:104618004BF8208809F04BF86268614B9A420CBF4E
:104628002089608980B209F042F8E368C3F3C000CA
:10463800C3F38002800040EA4200C3F34002104303
:10464800C3F3401240EAC20003F01003184309F014
:104658002EF8228A6369247E02F0080103F4475980
:1046680049EA010903F4804149EA010903F40041D8
:1046780049EA010903F4803149EA010903F40031E8
:1046880049EA010903F4802149EA010903F40021F8
:1046980049EA010903F4801149EA010903F00073AA
:1046A80049EA0303DFF8FC9099F8009012F0010F33
:1046B800C9F3800914BF4FF002084FF0000843EA1D
:1046C800090312F0020F43EA080314BF4FF0040C69
:1046D8004FF0000C12F0040F43EA0C0C14BF4FF01B
:1046E800100E4FF0000E12F0400F14BF20270027C5
:1046F8004CEA0E0E12F0100F14BF4FF4007600268D
:104708004EEA070712F0200F14BF4FF4806500250A
:104718003E4312F4807F14BF4FF4006000203543FD
:1047280012F4007F14BF4FF400110021284312F443
:10473800806F41EA000114BF4FF08063002300201E
:1047480019430346F3E0692800F099810AD86728DD
:1047580000F02081682840F0FE84102008F0A4FFB3
:10476800002484E16D2800F09D8100F2BF816C284F
:1047780040F0F184094C062008F096FFB4F86C006C
:1047880008F095FFB4F86E0008F091FFB4F97030A6
:104798000A2093FBF0F0D4E1981D0020B00E002011
:1047A80000540040C02A0020772800F079834BD8B5
:1047B800732800F095833CD8702800F0F5817228A2
:1047C80040F0C984BD4C162008F06EFFB4F896017D
:1047D80008F06DFFB4F8400108F069FFB4F8420131
:1047E80008F065FFB4F8440108F061FFB4F8D80197
:1047F80008F05DFF002008F024FF002008F021FFEA
:10480800002008F01EFF94F8850108F01AFF94F8BC
:10481800920108F016FF002008F013FFA84B1B6D4B
:104828000A20B3F95E3093FBF0F080B208F03FFF46
:1048380083E3742800F0FB82752840F08C842F20D5
:1048480008F032FF9F4C8EE2A02800F062830AD85D
:10485800782800F0AB807B2840F07D843C2008F06D
:1048680023FF002429E2F12800F0DB80FE2800F075
:104878004283F02840F06F84914C042008F014FF24
:10488800236DB3F8620008F012FF236DB3F86000DF
:10489800ACE3032008F008FF002008F0D2FE204611
:1048A80008F0CFFE0D2090E308F0FEFE022008F08D
:1048B800C8FE012008F0C5FE012086E3062008F0A6
:1048C800F3FE4D2008F0BDFE4F2008F0BAFE54203C
:1048D80008F0B7FE4F2008F0B4FE18E37A4B185DD5
:1048E800013408F0AEFE0B2CF8D10024774B185D8C
:1048F800013408F0A6FE082CF8D10024744B185D8A
:10490800013408F09EFE072CF8D100F022BC0720E5
:1049180008F0CAFEE72008F094FE684B587908F0C2
:1049280090FE002008F08DFE042000F010BCA34289
:104938000AD2684A9D5C012202FA05F50D421CBFA5
:104948009A4010430133F2E708F0BAFE5B4B93F844
:104958009C073AE3122008F0A7FE5F4B1B88B3F5CB
:10496800806F8CBF082601260025554C04F13403BE
:1049780033F9150090FBF6F0013580B208F097FE88
:10498800032DF2D1608F08F092FEA08F08F08FFE01
:10499800E08FB4E2102008F087FE00244F4B185D2A
:1049A800013408F04EFE102CF8D1D2E3702008F044
:1049B8007BFE0026424D0E242B6D744323440136A2
:1049C800B3F8210108F073FE2B6D2344B3F82301DB
:1049D80008F06DFE2B6D2344B3F8250108F067FE3F
:1049E8002B6D234493F8270108F02BFE2B6D2344ED
:1049F80093F8280108F025FE2B6D234493F829012C
:104A080008F01FFE2B6D234493F82A0108F019FEC5
:104A18002B6D1C44D4F82B0108F052FE082EC9D186
:104A280097E37020254C08F03FFE04F1700594F8D8
:104A3800D00008F006FE94F8D10008F002FE94F8C1
:104A4800D20008F0FEFD94F8D30008F0FAFD94F8BF
:104A5800D40008F0F6FD94F8D50008F0F2FD07340C
:104A680094F8CF0008F0EDFDAC42E0D171E31C4BA7
:104A7800185D013408F0E5FD102CF8D169E3194DF3
:104A88002878400000F0FE0008F00EFE00242B7885
:104A98009C4280F05E83144B33F8140008F007FE44
:104AA8000134F4E7062008F0FFFD002008F008FEB6
:104AB8002DE2042008F0F8FD48E300BF981D00200F
:104AC800B00E002027350108DF520108EB5201081B
:104AD800C3520108C90E002008000020F00E002073
:104AE800040F00206C250020DA1C0020072008F0A5
:104AF800DBFDB54BB54C1888FF28A8BFFF20C0B216
:104B080008F09FFDB24B18684FF6FF75A842A8BF82
:104B1800284620EAE07080B208F0C9FDB4F87200B7
:104B280008F0C5FDAB4B606F93F885313BB10A23A4
:104B38005843A842A8BF284620EAE07001E000F3E5
:104B48000F0080B252E2022008F0AEFD9F4BB3F88E
:104B580078004BE29D4C0B2008F0A6FDE36F187817
:104B680008F06FFDE36F587808F06BFD00262546C6
:104B7800EB6F964C33440136187908F062FD032E2A
:104B8800F6D1E36FD87908F05CFDE36F987808F008
:104B980058FDE36FD87808F054FDE36F588908F0A2
:104BA80086FDE36F187A10E2884C1E2008F07CFD21
:104BB800236D1B78022B4FF000056BD1236D03EB9F
:104BC800850393ED080AB2EE048A20EE080A0DF078
:104BD80043FE80F30800C0B208F033FD236DDFED1B
:104BE8007E7A03EB850393ED0B0A20EE270A0DF07E
:104BF80033FE80F30800C0B208F023FD236DDFED1B
:104C0800777A03EB850393ED0E0A20EE270A0DF061
:104C180023FE80F30800C0B2013508F012FD032D11
:104C2800CCD1072D236D23D193ED110A20EE080A6C
:104C38000DF012FE80F30800C0B208F002FD236DEB
:104C480093ED120A20EE080A0DF006FE80F3080024
:104C5800C0B208F0F6FC236D93F84C3000EE103A21
:104C6800B8EE400A0DF0F8FD80F30800C0B20BE082
:104C78002B44587808F0E5FC236D2B44D87A08F0CB
:104C8800E0FC236D2B44587D013508F0DAFC0A2D31
:104C9800C7D15EE2236D2B44587808F0D2FC236D0F
:104CA8002B44D87A08F0CDFC236D2B440135587D70
:104CB80008F0C7FC0A2DEDD14BE2444D9FED478A21
:104CC8002B6D03EB840393ED080A20EE080A0DF020
:104CD800C3FD80B208F0EBFC2B6D03EB840393ED6E
:104CE8000B0A20EE080A0DF0B7FD80B208F0DFFCD1
:104CF8002B6D03EB840393ED0E0A20EE080A0DF0EA
:104D0800ABFD013480B208F0D2FC032CD5D1072CBE
:104D18002B6D16D193ED110A20EE080A0DF09CFDBB
:104D280080B208F0C4FC2B6D93ED120A20EE080A3D
:104D38000DF092FD80B208F0BAFC2B6D93F84C0090
:104D48000BE02344587808F0B2FC2B6D2344D87A42
:104D580008F0ADFC2B6D2344587D013408F0A7FC06
:104D68000A2CD4D1F5E114F8010F002800F0F181E4
:104D780008F067FCF7E7012008F096FC134B1B6D61
:104D8800187822E1502008F08FFC00250F4B1C6D8D
:104D9800134B04EB85040C2194F8812001FB0233AA
:104DA800013593F8380008F04CFC94F8820008F0BC
:104DB80048FC94F8830008F044FC94F8840008F058
:104DC80040FC142DE2D1C4E1B0120020B00E002046
:104DD80008120020981D00200000C84200007A44F4
:104DE80028350108482008F05FFC0025C54B1C6DDC
:104DF800062303FB0544013594F8D60008F021FC8E
:104E080094F8D10008F01DFC94F8D20008F019FCC1
:104E180094F8D30008F015FC94F8D40008F011FCBD
:104E280094F8D50008F00DFC0C2DDFD191E14FF07E
:104E3800000801260027B34B1A7E974227DA193358
:104E48000024FA5CB04D0C2305F130016343595C32
:104E5800914207D12B44586B0EF094F982462EB933
:104E6800B14605E001341C2CECD10EE080440CE086
:104E7800D1450ADA0C2303FB04535B6B13F80900D2
:104E880008F0DFFB09F10109F2E70137D3E7002E4B
:104E980000F05F815FFA88F008F006FC0026C9E799
:104EA800984D287E08F000FC00242B7E9C4280F060
:104EB8005081964BE65C002193480C2200F13007A4
:104EC80002FB01F3DA5DB24205D1034493F83800DE
:104ED80008F0B7FB02E001311C29EDD10134E4E709
:104EE800082008F0E1FB0124E0B2013408F0A9FB36
:104EF800092CF9D12DE1082008F0D6FB002008F094
:104F0800D6FB002008F0D3FB002008F0D0FB0020DF
:104F18006CE00C2008F0C8FB7D4B186808F0D0FB4B
:104F28007C4B186808F0CCFB7B4B18680FE1042019
:104F380008F0BAFB794B986809E194F87A0108F00F
:104F480080FB94F87E0108F07CFB94F87D0108F062
:104F580078FB94F87F0138E0704C072008F0A4FB38
:104F6800B4F8800108F0A3FBB4F8820108F09FFBB5
:104F780094F8840108F065FBB4F8860136E0012056
:104F880008F092FB654B58791FE0654C654D207819
:104F980000EB4000C0B208F087FB002623789E4251
:104FA80005F1020580F0D58015F8020C08F049FBE0
:104FB80015F8010C00EB800000EB800000F2EE20F9
:104FC80080B208F074FB0136E8E708F03AFBC0E06D
:104FD800082008F069FB0024504B2344013493F85F
:104FE800880108F02EFB082CF6D1B2E008F05FFB30
:104FF800AFE0444B494C93F88000C0EBC000C0B20E
:1050080008F052FB04F1200594F8F0010023464A09
:10501800D25C904200F0A1800C33302BF7D10834D9
:10502800AC42F1D195E040203C4C08F03DFB04F146
:105038004005B4F8A00208F03AFB94F8A20208F080
:1050480000FB043494F89F0208F0FBFAAC42F0D15C
:105058007FE0E020314C08F027FB04F18005B4F82C
:10506800220200F03F0008F022FBB4F82202C0F34D
:10507800861008F01CFB94F82002000908F0E1FAF9
:1050880094F8200200F00F0008F0DBFA043494F8DA
:105098001D0208F0D6FAAC42E1D15AE0234C0D20AB
:1050A80008F002FB07F0E6FC08F0CBFAA08808F04D
:1050B80007FB206908F004FB07F0BCFC47E008F098
:1050C800B7FA0546842008F0EFFA284608F0F8FAFF
:1050D800164B1C6905F18003A3428CBF641B802416
:1050E80003F0DEFD28462246694607F0C7FD002486
:1050F8000546AC422DDA1DF8040008F0A2FA013486
:10510800F7E700BFB00E002028350108C90E0020BF
:10511800ACF7FF1FB0F7FF1FB4F7FF1F981D002063
:105128006C250020381F00207C2500200800002066
:10513800132008F0B9FA0024164B185D013408F062
:1051480080FA0B2CF8D1002008F0BAFA002008F0F9
:10515800B7FA012018E0002016E008F072FAB4F857
:10516800F20108F0A4FA94F8F40108F06AFA94F845
:10517800F50108F066FA94F8F70108F062FA94F875
:10518800F60108F05EFA4AE720B0BDEC028BBDE8F4
:10519800F08700BFDF52010810F80A3C0133DBB288
:1051A8000A2B84BF10F8131C044A00F80A3C82BF7B
:1051B800002322F8113000F80A3C7047F429002037
:1051C800334A136C90681944081A40F68C239842A5
:1051D80070B513469160D06051603BD9127893F94D
:1051E80045108A4210460BD1111F082908D893F898
:1051F8004610182901D8013103E083F8442002E061
:10520800002183F8461093F944402149A24219D15C
:1052180091F84740B4B10C310024944206DA1D4D90
:1052280051F8046F25F814600134F6E70C2805D00E
:105238001849002421F810400130F7E71648017892
:105248000131017083F84520002201211A7083F88A
:10525800471070BD92F84710C9B1A0F2EF2440F290
:10526800DA518C4208D811780B2905D80B1D013169
:10527800117042F8230070BD002283F84720074BC5
:1052880003F13002002143F8041F9342FAD170BDA4
:1052980038080020F4290020850100204408002057
:1052A800024A136C0133194411647047380800200E
:1052B800024B53F820301B6819607047F82500200E
:1052C800064B53F820301A681B89A1F57A715943A7
:1052D8004FF47A7391FBF3F111607047F8250020C1
:1052E800F0B5046D8668236823F001032360837991
:1052F800054613F0020F40790CBF4FF0000E4FF433
:10530800005E13F0040F14BF4FF48067002710F0FD
:10531800010F14BF042100218307206820F0010039
:105328002060626822F440524EEA020262602268FB
:1053380022F4B05323F00C0348BF41F008013B436B
:105348000B432360A36895B023F44073A3606846B9
:1053580002F0E6FC284B9C4201D10C9B0EE0274B47
:105368009C4201D10D9B09E0254B9C4201D10E9B2B
:1053780004E0244B9C420CBF0F9B109B2268A87929
:10538800170448BF5B00B3FBF6F206FB1233B3EB1E
:10539800560F236828BF01321E0441BF4FF6F07331
:1053A800C2F34201134041EA03026B7992B213F04F
:1053B800020FA28100F0010114BF4FF40032002255
:1053C800DC0748BF42F480322B6D11B159680A439B
:1053D80002E0596821EA02025A609A6801074CBF44
:1053E80042F0080222F008029A601A6842F00102AC
:1053F8001A6015B0F0BD00BF0038014000440040FD
:1054080000480040004C00403D4B1B78012B30B554
:1054180014BF00240324B1B9036A23F00103036213
:105428008169036A21F0F30123F00A0341F00101C5
:1054380042F001021A4341EA041181610262836960
:1054480023F00C031BE004291DD1016A4FF6EF730A
:105458000B4003628169056A120121F473414FF61A
:105468005F7342F0100241F480712B4092B21343F3
:1054780041EA043181610362836923F440638361F3
:105488008369836130BD0829016A1AD14FF6FF6329
:105498000B400362C169036A9BB289B223F420639B
:1054A80043F4807321F0F30143EA022241F0010141
:1054B80092B241EA0411C1610262C2694FF6F37304
:1054C80019E04EF6FF730B400362C369056A40F6A4
:1054D800FF41194045F6FF732B4043F4805343EADC
:1054E800023241F4807192B241EA0431C161026230
:1054F800C2694FF2FF331340C361C369C36130BD52
:105508003408002038B510F80E2C50F8043C044636
:1055180052B9012200F80E2C20F80C1C997A186850
:105528000222BDE838406FE730F80C2C20F80A1C3E
:10553800891A89B220F8081C074A10F80F0C0025B0
:1055480022F8101004F80E5C1868997A2A46FFF7BA
:105558005BFF04F8065C38BDF4290020044B53F8BF
:1055680020301BB107289CBF1B681960704700BF1B
:1055780060090020084A13689B050BD5074B0021DA
:105588001970074908684FF6FE7303400B604FF423
:1055980000735360704700BF00000240BE2A00201D
:1055A800300002402DE9F047664D2B6866490A78BD
:1055B800581C02F0FF068E460AB10346F6E72B6038
:1055C80095F80880687AAA7AEB68374639B22029B4
:1055D80000F09B80DFF880C10CEB81033CF82110C0
:1055E800DC789B78C3F1FF039BB2002B65D0C3F135
:1055F800FF0363434FF03C0C1B12B1FBFCF9B9F1FC
:10560800050F5DD8DFE809F0030B1A293A4AE01ABA
:10561800DAB24143B1FBFCF01044C0B251E0B1FB37
:10562800FCF00CFB101189B2DAB2C1F13C01E31AAB
:105638004B432046B3FBFCFC94442CE0B1FBFCF04C
:105648000CFB10115FFA83F8E21A89B24A43B2FBE5
:10565800FCF24244D2B2204632E0B1FBFCF90CFB2A
:10566800191189B25FFA83F8E01AC1F13C01484385
:10567800B0FBFCF04044C0B2224621E0B1FBFCF88C
:105688000CFB1811D8B289B2E31A01FB03F2B2FB82
:10569800FCFC224684445FFA8CF412E0B1FBFCF86F
:1056A8000CFB181189B2D8B2C1F13C01E31A4B4383
:1056B800B3FBFCF20244D2B203E02246204600E0EB
:1056C80044464FEA042C4CEA004C4CEA020C1723DF
:1056D80006F117014FF0010808FA03F8C91A18EA89
:1056E8000C0F89B2DFF8748014BF4FF011094FF026
:1056F800090913F1FF3308F80190E9D21836013788
:10570800B6B2BFB2114BA04660E7AA72EB60104A6E
:10571800E98001238EF800300E4985F8088040F2B0
:105728002A336872AE80536000234B620B889BB2A9
:1057380043F001030B80136843F001031360BDE8D5
:10574800F08700BF380F0020BE2A0020400F00203D
:10575800300002400044014074070020A8090020DE
:1057680073B506460D46002401232A88A340134238
:105778001AD0AA78009302F003038DF80430EB786E
:10578800022B03D0032B0CBF032301238DF8053014
:105798003046C2F301136946C2F381028DF8063020
:1057A8008DF8072002F080FA0134102CDCD102B009
:1057B80070BD2DE9F04F734E357C07460C4687B017
:1057C80011469A4600686B1C914622464FF0020B20
:1057D800337407F0EBFC3B897868ADF8043001A915
:1057E8008DF806B08DF807B0FFF7BAFF0023ADF8C3
:1057F8000A30ADF81230ADF8163070230193BA7A3A
:105808003C68CDF80CA0012306F114082D01ADF871
:1058180008304FF48073A844ADF810B0ADF81430D8
:105828000C2A7ED8DFE802F0077D7D7D0F7D7D7D27
:10583800387D7D7D5E00204601A902F03FF9A3690D
:1058480043F0080326E0236A4F4823F0100323623D
:10585800236A6168A26922F0807222F4E6428442D7
:1058680042F4E04206D000F50060844202D043F0E2
:10587800300307E023F0E00321F4406143F03003F4
:1058880041F480616160A261C4F838A02362A36911
:1058980043F40063A36144E0236A3B4823F4807324
:1058A8002362226A6168E369844223F0730343F048
:1058B800700306D000F50060844202D042F44072C2
:1058C80007E022F4606221F4405142F4407241F44E
:1058D80080516160E361C4F83CA02262E36943F04F
:1058E80008031DE0236A284823F480532362226AB0
:1058F8006168E369844223F4E64343F4E04342F4F5
:10590800405203D000F50060844201D141F4804147
:105918006160E361C4F840A02262E36943F4006374
:10592800E3613A7B3B681AB15A6C42F400425A640C
:105938001A8892B242F001021A80BA7A0C2A18D850
:10594800DFE802F0071717170B1717170F171717A6
:105958001300721903F134010AE0721903F13801D6
:1059680006E0721903F13C0102E0721903F14001EB
:10597800516135444046A5F81C90AB6107B0BDE8BD
:10598800F08F00BF380F0020002C0140054B9842D3
:105998000CBF054A054A138801339BB213800020C7
:1059A800704700BF00540040B80E0020BA0E002017
:1059B800400070B5C5B22D482D4B00684FF4204407
:1059C8001C608669360404D52646013C002EF8D1B1
:1059D80012E04668274C344044F0807444F4903414
:1059E8002C4344604FF420441C608669B60726D4D3
:1059F8002646013C002EF8D11C601AE02146013CE5
:105A08000029F9D081690E06F8D544681949214062
:105A180041F0007141F48031294341604FF4204145
:105A280019608469A4070FD40C460139002CF8D1F9
:105A38001960FFF7ABFF003018BF012070BD4FF4AD
:105A4800204481621C60DDE782624FF420421A60C4
:105A58008169890605D41146013A0029F8D11A60EE
:105A6800E7E71A602023C361012070BDB40E00204F
:105A7800801B0020009800FC38B500240B4D6059AD
:105A8800254407F099FE696811B1094803F0FEFB47
:105A9800A96811B1074803F0F9FB0748103407F06B
:105AA8008BFEB4F5E87FE9D138BD00BFB8360108F0
:105AB800175601081D560108AE63010870B5054662
:105AC80028460DF05FFB064658B91A4B1A485A7912
