:020000040800F2
:1000000000A00020C509010817C2000809FB00086C
:1000100015C2000813C2000811C200080000000049
:100020000000000000000000000000000FC20008F7
:100030000DC20008000000000BC200084FE70008D6
:100040002D0A01082D0A01082D0A01082D0A0108B0
:100050002D0A01082D0A01082D0A01082D0A0108A0
:100060002D0A01082D0A01082D0A01082D0A010890
:100070002D0A0108315A0008DBB100082D0A0108D9
:100080002D0A01082D0A01082D0A01082D0A010870
:10009000BDC200082D0A01082D0A01082D0A010819
:1000A00071D600089DD6000861D60008ADD60008BC
:1000B00091D6000881D600082D0A01082D0A0108F2
:1000C0002D0A01082D0A01082D0A01082D0A010830
:1000D0002D0A010869D800085DD8000851D8000829
:1000E0005DE700082D0A010889F000082D0A0108C3
:1000F0002D0A01082D0A01082D0A01082D0A010800
:100100000000000000000000000000002D0A0108AF
:100110002D0A01082D0A01082D0A01082D0A0108DF
:100120002D0A01082D0A01082D0A01082D0A0108CF
:100130002D0A01082D0A010800000000000000003F
:100140002D0A01082D0A01082D0A010800000000EF
:10015000000000000000000000000000000000009F
:1001600000000000000000002D0A01082D0A01080F
:100170002D0A01080000000000000000000000003F
:08018000000000002D0A010837
:100188002DE9F04F2DED088B694E6A4B3360AFB007
:10019800002373600CF029FC18B90CF049FC09F035
:1001A800ABFF0AF067F8644B644C1A7842F001021E
:1001B8001A70634A4FF47001C2F88810002209923D
:1001C8000A92226842F4803222600493236803F47E
:1001D80000330A93099B013309930A9B1BB9099BB6
:1001E800B3F5A04FF2D1236813F4003318BF0123ED
:1001F8000A930A9B012B65D0514F524BFB60636AEF
:10020800B360636ADFF86CB1DFF86C91DFF86CA15A
:1002180043F080736362636943F4FC032EAD63614A
:1002280003238DF86A3041F6FF7325F8503D4FF0EF
:100238009040294605F0EEFC4FF6FF7358462946D4
:10024800ADF8683005F0E6FC3F48294605F0E2FCC9
:100258003E48294605F0DEFC3D48294605F0DAFC13
:1002680029463C4805F0D6FC284607F087F91A9B32
:10027800394AB3FBF2F3394A39491360394B002242
:100288001A605A60384B5960F02187F823109A6039
:10029800364F07221A60BB68CAF8003099E8030095
:1002A800636985E8030043F4802363612023CBF866
:1002B80018301A981BA905F0ADFCDAF800301807B9
:1002C80029D463E02A4B12221A606368636063686A
:1002D8006360636843F480636360636823F47C133A
:1002E8006360636843F4E8136360236843F08073D2
:1002F80023602268114B9101FBD55A6822F0030252
:100308005A605A6842F002025A60636803F00C03AC
:10031800082BFAD170E797F88E31012B36D8044AAA
:1003280097F88F31926812F0805800F094852DE08C
:10033800C0080020B79A0008C82B0020001002400F
:1003480000ED00E00005FA0500080048000C004830
:10035800001000480014004840420F00F02600201A
:100368003F190100F426002010E000E05C1E002088
:100378000020024000040048403C01087C26002080
:10038800B94B002283F88F210AF026F964200EF079
:10039800D0F9C822B548002113F07CFAE369B44AC1
:1003A80043F00303E361A36943F4A123A3616369F1
:1003B80043F4C023636102F1900C937B506892F878
:1003C8000FE003F00701DB0800EB83038900186ADC
:1003D8004FF00F080EFA01FE08FA01F120EA0101B8
:1003E8001962196A10324EEA010162451962E4D1B4
:1003F8000023DFF8A8B20BF10C0200219954013355
:10040800092BF6D1FF238BF815308BF816308BF8B3
:1004180017308BF818308BF81930964BDFF880823C
:10042800C3F80080944B04221A70944B0393184627
:10043800302213F02FFA039B914814221A700222DB
:10044800012183F824208F4A19767B791370A8F547
:10045800EF72CBF81C20A8F58F7202608A4ADAF88E
:10046800008002EBC30218F0200F5278CBF820204E
:1004780018BFCBF820100022844940F2DC5021F844
:1004880012000132082AF7D113A800211C22039375
:1004980013F000FA039B0E2B03D003F0EF03082B95
:1004A80002D101238DF85E30022007F059FF18B100
:1004B8004088003018BF0120C8F340038DF852303F
:1004C800C8F380138DF85530C8F340338DF84C309D
:1004D800C8F3C03300F001008DF84F3018F4006302
:1004E8008DF8510004D097F882315A1E5342534177
:1004F8008DF85030C8F300438DF85630336AB7F89A
:100508004411ADF86210003318BF01238DF857303D
:10051800C8F300538DF85830B7F84631ADF85C3061
:10052800B7F85231ADF85A30C8F380438DF85330DC
:1005380097F854311A1C18BF012218F4805F18BFAD
:1005480049498DF85420B7F850211CBFB1F84C1117
:10055800ADF8621008F0010BC8F3C00AB2F5FA7FD3
:100568008DF84DB08DF84EA0ADF8602002D90BB9CA
:10057800ADF8623097F8D431454886F82430002128
:10058800642213F087F99DF85E30002B0CBF00231E
:100598000223BBF1000F02D1BAF1000F00D00133E2
:1005A80009EB83094FF0000AD9F808309A1E103376
:1005B80003920593039A32F8023F03924FF6FF72B3
:1005C800934200F0B6819DF851004FEA132CDAB23D
:1005D8005FFA8CF378B1264F2E4807EB021779683B
:1005E800814208D13889B0F5806F00F09D81B0F55F
:1005F800006F00F099819DF8560090B11001DFF866
:1006080070E00EEB00075EF800E02348864500F036
:100618008B8120487968814203D1B87B082800F093
:1006280083819DF8520050B1114F07EB021778688B
:10063800B0F1904F03D13889202800F075819DF8DA
:100648004F0050B10A4F134807EB021779688142EF
:1006580003D13889042800F06781BCF1020F21D149
:100668009DF84C1023E000BF5C1E002040270020AE
:10067800A05D010844260020B81000204C26002068
:100688008428002030030020B042010876100020A2
:10069800740E00200004004800440140C0080020F7
:1006A8004A200020BCF1010F04D19DF84D1000290B
:1006B80000F03A819DF8571031B19DF85E1019B9D4
:1006C800911F012998BF0423BE4F9DF858104FEA87
:1006D80002194F4431B19DF85E1019B9043A032A42
:1006E80040F2FA80012B43D1FF2386F86C3086F85C
:1006F8006D30B44BF76703EB09024FF00008517BEC
:1007080050688DF86A1002F1080B1289ADF868205C
:100718001AA9022286F8708006938DF86B2086F855
:100728002880C6F82C80C6F83080C6F83480C6F811
:10073800688086F86E8086F86F8005F06BFA069BF5
:100748009BF8021053F80900424605F0B7F83846FE
:100758000DF028F99C4B9D49C6F880309C4BC6F893
:100768008430C6F8888038460A1D0DF013F8DBE09F
:10077800022B49D15FFA8AF21C2101FB02FC954A3F
:10078800CDF81CC002EB0C088E4A88F871A0012134
:1007980088F8701002EB09014FF0000B91F80DE09A
:1007A800486888F872B001F108020989ADF8681044
:1007B80088F87AB01AA9C8F87C708DF86AE00692B1
:1007C8008DF86B3005F026FA7E4B069A53F809002F
:1007D80091785A4605F072F838460DF0E3F87D4BEB
:1007E800DDF81CC07C4AC8F8802003EB0C017B4A6A
:1007F800C8F884208031C8F888B038460A1D0CF043
:10080800C9FF0AF1010A8FE0032B63D19DF8533029
:10081800DFF8E0810BB39DF85430DFF8CC9198F8FD
:1008280001B053B16E4BBDF86020B3FBF2F238460D
:10083800082192B2BDF8623003E0384608214FF62D
:10084800FF7205F010FA674B49F82B00C36098F85F
:100858000230192208EBC3032FE0BDF8602098F896
:100868000190B2F5FA7F14D95D4BB3FBF2F238462A
:1008780092B2BDF86230082105F0F5F95A4B43F8F9
:1008880029005A4BC36098F802300D2208EBC303C5
:1008980013E0574BB3FBF2F2384692B2BDF8623020
:1008A800012105F0E0F9504B43F829004D4BC36096
:1008B80098F80230092208EBC3035A7198F80230FD
:1008C80098F8012008EBC3010A7101328F6088F89B
:1008D800012026E0042B27D1DFF81881BDF85A2023
:1008E80098F8023098F8009008EBC303012183F8C8
:1008F800049038463E4B93FBF2F2BDF85C3092B25E
:1009080005F0B1F998F8023008EBC3020A215171D9
:1009180098F8002006EB89090132C9F8500188F8D7
:100928000020013388F80230039B059A93427FF434
:1009380041AE304A304B127886F870212F4A92F82F
:1009480000E0AEF117020027022A1F709C461BD850
:10095800F3693B44D3ED007AF5EE407AF1EE10FAF4
:1009680003D1336A002B51D126E0254A07EB020850
:100978000FCB88E80F009CF8003010370133C02FE8
:100988008CF80030E4D1ECE71E4B13F83E908CF85D
:10099800009003EBCE03D3F804A0BAF1000FE0D027
:1009A8004F45DEDA164A3B0103EB020853440FCBEE
:1009B800013788E80F00F3E7134F3B68DB0449D49D
:1009C80042E000BFA05D01087D56000840090020F4
:1009D8005D570008C0080020C15900085556000896
:1009E80000127A006D5700080C2700207D57000878
:1009F80040420F00740E00203C27002030030020E6
:100A08006C020020B04201087C2600202B4B2C4AA7
:100A180013F83E00107003EBCE035E68002ECBD0B7
:100A280000238342C8DAC3EBC3017218DFF89C8045
:100A3800D2F8009041F8089001EB08079188B98036
:100A48009279BA710133ECE70EF0EF03082B1D4BD6
:100A580020D122E09CF80020012AF5D91A4B03EB9B
:100A68000212103210339342EED053ED047AB6EEF0
:100A7800007A67EE877A43ED047A53ED057A67EEDC
:100A8800877A43ED057A53ED037A67EE877A43ED6B
:100A9800037AE7E7BEF10E0F09D11A7842F0100287
:100AA8001A70BEF1180F13D10EF0C8F810E01A78BA
:100AB80022F010021A70BEF1190FF4E7FC40010889
:100AC80010280020D01B00207402002011280020CC
:100AD8000EF098F83B685E0358BFA04BA04E5CBF71
:100AE80001221A70049B049A1B7843F004031370C4
:100AF80063694FF001084FF0020943F400332946B7
:100B0800ADF868808DF86A808DF86B904FF0904052
:100B1800636105F07FF8934B934A1A6000200DF04B
:100B280025FEE36943F48043E361236943F480438A
:100B38002361636943F480236361736A23F4700358
:100B48007362736A43F4A0037362736A23F0706379
:100B58007362736A43F0A0637362736A23F070432D
:100B68007362736A43F0A0437362736A23F4702359
:100B78007362736A43F4A0234FF0000B73624FF063
:100B8800030A4FF46043304629461A938DF86C9057
:100B98008DF86DA08DF86EB08DF86FB006F0B2FCD0
:100BA8004FF48053304629461A9303938DF86C808E
:100BB8008DF86DA08DF86EB08DF86FB006F0A2FCC0
:100BC80022696A4942F480422261226922F4804201
:100BD80022618A8822F480521204120C8A808A8840
:100BE80092B242F480528A800A8802F4415242F456
:100BF800457242EA0A020A808A8822F47062120464
:100C0800120C42F4E0628A808A8B22F40062120499
:100C1800120C4FF007038A830B820A88039B92B257
:100C280042F040020A80524AB361524E166062692D
:100C380042F400326261E26942F48002E261226BAE
:100C480022F020022263226B42F080524FF0904C37
:100C580042F020022263DCF8242022F0F002CCF8D3
:100C68002420DCF8242042F04002CCF82420DCF8D0
:100C7800242022F47062CCF82420DCF8242042F4EA
:100C88008062CCF8242060464FF4007229461A92FC
:100C9800CDF80CC08DF86FB08DF86C908DF86DA004
:100CA8008DF86E8006F02EFCDDF80CC0CDF810C073
:100CB80060464FF4806229461A9206F023FC326897
:100CC80022F00102326031682B4A0A4032602B4A16
:100CD8003261326842EA08023260C6F808B0C6F8E3
:100CE8000CB0C6F808B0B26842F40042B26032688C
:100CF8003260726822F0784222F4004272603268F0
:100D080042EA080232603D681D4E05F40043102295
:100D180030465946039312F0BDFD4FF6FF7215EAAF
:100D280009050E928DF83D908DF83EB08DF83FB0D4
:100D38008DF83CA0DDF810C024D02EA9202241F85F
:100D4800802D604606F0DEFB4FF0070386F8009022
:100D580086F801B0F37086F8028014E09807002046
:100D680000040048D42B002045E600080038004065
:100D78003810002000580040FFE0CF00300E50002F
:100D88002C130020A846039B8BB12EA9042341F8FD
:100D9800803D8A4806F0B6FB0C2333710723F371B4
:100DA800012386F805809844B3715FFA88F8E36AEE
:100DB800834823F4F873E362E36A43F4D873E36285
:100DC800636943F0805343F00203636106F021FB3B
:100DD8001AA806F0F3FA7B4B1A937B4B1B93B8F1D6
:100DE800020F4FF0000314BF1A4680221F924FF4DF
:100DF8008072734C20924FF4806221922022204608
:100E080022921AA94FF400521C931E932392249302
:100E1800ADF8748006F0DFFA236843F0010323601D
:100E28006A4CA36823F04053A360A36843F080533F
:100E3800A3600A200DF07DFCA36823F08043A36023
:100E4800A368A360A36843F00043A360A3685F4A54
:100E5800002B2FDAFAE7013B092B3FF697AAD9F8BE
:100E6800340028602946584604F0D4FE1023CBF8F5
:100E780018303C200DF05DFC97F88F319845BFF68F
:100E88007FAADFF838B120221023CBF81820782069
:100E98000592ABF8283003930DF040FC059A039BAC
:100EA800ABF828207820CBF818300DF037FC08F183
:100EB8000108E1E79368464923F04053936093683B
:100EC80043F0005393608868424B034043F468330F
:100ED8008B60D168404B0B4043F40053D360156BD3
:100EE80008F1FF3825F00F0548EA050515630024C9
:100EF800012332199178002900F083805D1C042BAE
:100F080016F804E0D078DFF8C4C0EDB20ED803EBD1
:100F180043035A00DCF830101F23934021EA0301F1
:100F28000EFA02F30B43CCF8303031E0092B0ED81F
:100F3800053B06225A43DCF834101F23934021EA6C
:100F480003010EFA02F30B43CCF8343020E00E2BE9
:100F58004FF006010ED8A3F10A024A43DCF83880A4
:100F68001F23934028EA03010EFA02F30B43CCF83F
:100F780038300DE00F3B01FB03F2DCF83C801F2307
:100F8800934028EA03010EFA02F30B43CCF83C30F5
:100F9800BEF1090F0D4A21D993699169AEF10A038F
:100FA80003EB43034FF0070E0EFA03FE21EA0E018E
:100FB8009161916998400843906121E000040048DC
:100FC80008040240400100503C130020000100507A
:100FD80000030050E010FCFF07C0FFFD5369516992
:100FE8000EF1FF3303EB43034FF0380E0EFA03FE06
:100FF80021EA0E0151615169033398400843506159
:101008002B460434102C7FF474AFA84B9A6842F036
:1010180001029A601A461168A44BCC07FBD5DA681E
:10102800A34D22F00202DA60DA6842F00202DA60C6
:10103800DA6842F00102DA609A6842F004029A60C3
:10104800B5F85831002B40F0DF86B5F95A21002A4F
:1010580040F0DA86B5F95C21002A40F0D5863B6875
:10106800944C13F4003F1FD0C8200DF062FBAE2053
:101078000CF072FA08B108F0FDFB8F4E84F871018C
:10108800C8200DF056FB8D4BC4F8743100210C229A
:10109800304612F0FFFB0223F37007F036FC0DF028
:1010A80021FB874B0344B360864E87483368DFF8DB
:1010B80004B2B3F8629095F85F8195F861A10021B8
:1010C8000C2212F0E7FB00211422804812F0E2FB08
:1010D800002384F8783119468BF879310C220BF506
:1010E800BE70039312F0D6FB794AC4F888212320F6
:1010F8000DF01FFB752001210BAA0CF07FF9B8B188
:10110800744A039BCBF88021734ACBF8842143228D
:101118008BF87C21184601210CAA0CF06FF99DF878
:10112800303003F07E038DF83030002847D14FE08F
:101138006A4A138823F040031B041B0C138013888E
:1011480023F038031B041B0C43F03003138013886F
:101158009BB243F0400313806B20802108F0B2F863
:101168004FF0060B96200DF0E4FA752001211AAA1B
:1011780008F092F89DF86830682B05D00BF1FF3B1A
:101188001BF0FF0BEED168E00C2001211AAA08F031
:1011980083F89DF86830142B5FD3182B02D9543B81
:1011A800062B5AD8032384F87831432384F87C31FA
:1011B8004B4BC4F880314B4BC4F884314DE0682B5D
:1011C80006D101238BF878311D238BF87C3144E05C
:1011D8009DF82C3003F07E03682B8DF82C3037D126
:1011E8000223062084F878310146D4F880311AAAFF
:1011F80098479DF86D1001F001029DF86B1001F001
:1012080001014B0043EA82019DF8692002F00103C5
:101218000B430AD05BB2012B01D1002302E0022B61
:101228000FD1012384F8793117E0224B0C20D3F831
:10123800803101210EAA98479DF8383013F00F032A
:1012480003D103200DF0FAFA07E0042BE9D1E4E713
:10125800702B04BF042384F87831234A00231370C9
:1012680094F87831022B93460CD1184A1F49116023
:101278001F4951601F49D1601F49116103228BF832
:1012880000203DE0032B0CD1104A1C49116018497D
:1012980051601849D16018498BF800301161062354
:1012A8002EE001200DF0CAFA9BE000BF00010050BB
:1012B8005C1E0020C0080020EC0F0020E21F002068
:1012C800404B4C0088100020CC260020882A0020A3
:1012D800583C010805D40008F9D30008003800403C
:1012E800A1920008CD920008EE0100201D9500088B
:1012F80035D3000819D3000890C1793DB19300088F
:10130800DFF844E3BD49DEF800200B7094F878015B
:1013180042F00103CEF800304346F0460A2B9E46C1
:1013280028BF4FF0000E012303FA0EF313F04D0F00
:1013380040F0398540F2023C03EA0C0CBCF1000F86
:1013480000F02C85BEF1010F4FF00003E6D8AC4A3F
:101358001370D8F80030980702D5AA4B1B68984735
:10136800BAF1000F0CBF0723002384F88C31A64B79
:101378004FF47A721A60A54B50461B689847A44BE5
:1013880000221A7095F855210AB18BF8002095F8BB
:1013980056210AB19A490A7095F8572102B11A7074
:1013A800D8F800309B4913F0080F00F01E850FFA9B
:1013B80089F9642299FBF2F302FB139212B207EE49
:1013C800902AB8EEE77A07EE903ADFED936AF8EEE6
:1013D800E77AE7EE267AB2EE047A67EE877AC1ED0D
:1013E800007A8E4A137843F0020313708C4B202244
:1013F8009A614FF00A08DFF82892B9F814309BB2C6
:1014080083F02003A9F8143019200DF092F9012077
:101418000DF0ACF919200DF08CF908F1FF38002017
:101428000DF0A4F918F0FF08E5D12023C9F8183009
:101438007C4B9FED7D8A1B689FED7C0A1B7B07EE2A
:10144800903AF8EEE77AA7EE880A08F09AFD784B0A
:101458009FED787A83ED000A6C4BD3ED047A764BD6
:1014680067EE887AC3ED007A744B1B8807EE903AD2
:10147800F8EEE77AC7EE277A9FED717AC7EE877A9A
:10148800C4ED647A0AF05CFA6E4BFF2118461C2200
:1014980012F000FA1B2242706B4ADFF8B0E11268C2
:1014A80080F80080022112F0020F8EF800107346B7
:1014B8001FBF4FF0010E80F802E04FF0040E83F8D2
:1014C80000E018BFC170510741BF197801F1010E42
:1014D80083F800E04FF0030E48BF00F801E012F077
:1014E8000A0F0ED01A7804218154511CC9B24FF04A
:1014F800050E00F801E0D11C0232D2B219700621A3
:10150800815439688A0641BF1A78571C1F7007270B
:1015180048BF87546F79082F01D00E2F08D11A7849
:1015280002F1010E83F800E04FF00B0E00F802E024
:101538001A7811F4803F4FF00C0C00F802C002F149
:10154800010E1CBFDFF804C102325FFA8EFE83F879
:1015580000E01FBF8CF800203A4A4FF00E0C02F84A
:101568000EC04A0741BF1A7802F1010E83F800E065
:101578004FF0100E48BF00F802E01A7802F1010E91
:101588005FFA8EFE4FF0120C11F4806F83F800E0C2
:1015980000F802C00ED095F810C2BCF1000F09D0B7
:1015A800DFF8A8C002328CF80020264A4FF0130C4E
:1015B80002F80EC08A0541BF1A7802F1010E83F8BD
:1015C80000E04FF0150E48BF00F802E0182F3FD199
:1015D8001A784FF0160E00F802E002F1010E5FFAD9
:1015E8008EFE4FF0170C00F80EC002F1030E023207
:1015F800D2B283F800E087542AE000BF2801002017
:10160800EB2B0020CC260020B0100020882A0020D8
:10161800E72B0020C81B00208988883CC82B0020A5
:10162800000400489C1B002035FA8E3CDB0FC93FA4
:10163800CC1B00200AE81C41B81B00200800002031
:1016480000401C464D100020401000204C10002087
:101658000F0341BF1A78571C1F70192748BF8754BA
:10166800CA0541BF1A78511C19701A2148BF815404
:101678001A78511C19701423835400219822794830
:1016880012F008F90CF06BFA774B78497848196032
:10169800784BB5F84E21016077491A800023774AC4
:1016A80037680B70B5F89411138093701FFA81FC9A
:1016B80007F18502724E73483668DFF808E220F8B1
:1016C80013C006F596764EF823600133122BF1D13C
:1016D8006D4ED6F800E01EF4805F08BFB5F89CC1D7
:1016E800A0F806C0D5371378F3B992F802C0D378BA
:1016F8009C4519D2BCF1000F08D00CF1FF3C0CEB53
:101708008C0C0CEB8C0C0CF5617306E0013303EBCD
:10171800830303EB830303F5617392F801C00CF1B3
:10172800040C9BB220F81C300432BA42DBD11EF004
:10173800080F00F0F78095F88E31062B00F2EC8048
:10174800DFE803F004070E35506F6F0045F2F052E2
:1017580001E042F6F8224D4B1A800CF0B0FADAE0BC
:101768004A4B42F6F8221A8009010A2391FBF3F149
:101778000023A1F5B061464A42F823100133122B29
:10178800F9D1444A44491160444A4020137006F094
:10179800C3FE002800F0C08001234FF0070E90F927
:1017A80000003F4A8DE8084040213E4BAEE0374BF1
:1017B80042F6F8221A80374B3B4A1A60374B102200
:1017C80040201A7006F0A8FE002800F0A58001232A
:1017D800002790F90000354A8DE8880040214FF431
:1017E800E13393E0294B42F6F8221A80294B304A1C
:1017F8001A602A4B082240201A7006F08DFE002835
:1018080000F08A800123002590F90000294A8DE81C
:10181800280040214FF4E13306F0A2FCC4F89401FB
:1018280076E01A4ADFF8A080DFF8A0C0DFF8A0E071
:10183800214F224D224842F6F821118017490C22E7
:10184800062B0A7046D0002388F800308CF8003048
:101858008EF800301B233B7005232A7003704FF469
:10186800E13543E0C41D0020D40F0020E21F002012
:101878008C2B0020D80F00200F0F00209C2B00205D
:10188800982B00209E1D00207C260020C80D0020DB
:10189800B82A00209C000020A9F800083C26002057
:1018A800BDF90008A0860100496F000811F9000879
:1018B800316F000885700008BA1200203B12002022
:1018C800BB120020580F00203C120020B912002043
:1018D800B8120020002188F800108CF800108EF84B
:1018E80000102A702121C34D39700370C24BC34ABE
:1018F8001A60402006F010FE70B101210023C04A92
:1019080090F900008DE80A0040212B4606F028FCDB
:10191800003018BF012028B9082008F0B3FBB64BE7
:10192800B84A1A603268B84B12F4804F1FBF1221B0
:101938001970B149B54818BF086042F20101114059
:1019480002F0010002F4005579B1B14944F620676C
:101958000F8025B108211970A749AE4D0D6020B13F
:101968000C211970A449AC4808601978AB4F0439A8
:101978005970AB49AB4B0B60AB498033002512F46F
:10198800803F0B603D700DF1680800F0AE8007F0F5
:1019980075FADFF8CCC2DFF8CCA2CDF814C040F25B
:1019A8002A334FF001091A4660462946049387F8FE
:1019B800009011F06FFFDAF814209C489C4F42F415
:1019C8008022CAF81420426A22F00F024262426A58
:1019D800032142EA090242624FF4807B02228DF819
:1019E80035100CA98DF8342003928DF83650CDF8B7
:1019F80030B08DF8379005F085FDDAF81810039AA5
:101A080041F40031CAF81810398821F440710904EA
:101A1800090C39801D21F96238463A850EA93D86A0
:101A28006022C7F814900E92ADF83E501095ADF8AC
:101A38004450ADF84650ADF84850ADF84A50ADF8AE
:101A48003C9005F069FCBA6942F00802BA617A6C08
:101A580042F400427A64DAF8142042EA0902CAF829
:101A68001420AAF57D6A504605F0D3FC404605F0DF
:101A7800A5FC049B6F4AADF8743080231A92DDF8F8
:101A880014C01F9310224FF400535046414623932D
:101A9800CDF86CC01C921E95CDF880B0219522958A
:101AA800249505F098FCFB6843F40073FB60DAF8B2
:101AB800003043F00203CAF800300BA80D238DF85C
:101AC8002C308DF82D908DF82E508DF82F900BF02E
:101AD8004BFF594B1A68594B43F825200135202DE7
:101AE800F7D103F0B9FF03F0B7FF33685A0542D5C1
:101AF800534BD4F8C4741F60042006F00DFD042174
:101B0800C4F8C80406F0E2FC4E4B84F8CC04082064
:101B18001F6006F001FD4C4B4C4D1860082106F083
:101B2800D5FC2C22002184F8CD04284611F0B2FE01
:101B38007C232B708E236B70E023EB7010207D23A9
:101B480085F82B30C4F8D07406F0E6FC1021C4F8F0
:101B5800D40406F0BBFC84F8D8042020C4F8DC7454
:101B680006F0DAFC2021C4F8E00406F0AFFC84F8A3
:101B7800E40406F0A1FD364A138823F040031B0451
:101B88001B0C1380138823F038031B041B0C1380D1
:101B980013889BB243F04003138000259F23322013
:101BA8008DF838308DF839508DF83A508DF83B5013
:101BB8000CF0BFFD8DF869501C4D4FF4805704227E
:101BC8002F8540460EA90BF099FEAF619DF86A304B
:101BD8009DF869201B0243EA02429DF86B301343CB
:101BE8001C4A93421C4A53D044D81C498B4248D0C3
:101BF8003AE000BF90D003009C0000204D6E000822
:101C08005D6F00080DF900083C260020DDF800088B
:101C1800C80D0020FDF80008EDF800082308002092
:101C2800F41100207C200020F0110020000400485E
:101C38000044014034440140703C0108240800205D
:101C4800A4070020E0070020FC070020B0070020C0
:101C58000038004018BA20000C0000201520200091
:101C6800580A00200010024001F51A4102318B4247
:101C780009D01BE09D498B4205D001318B4207D02A
:101C880014E0202300E0802313804FF4807302E0E7
:101C98004FF4807313805380938811881B029360DC
:101CA8004B43D360012384F8E53404E00023138018
:101CB80053809360D360D56815B3ED0A2F464FF073
:101CC8000009A94509DA09EB05046410E002414658
:101CD800102207F0A9FD0F2806DC07F023FA844B31
:101CE800FF02C3F8E8740BE0002358F82320013200
:101CF80040F086800133042BF7D125462746E0E7DC
:101D080033687C4A13F4002318BF012313700CF0C6
:101D1800E9FC794B1860794B5A79052A194602BFB4
:101D2800774B4FF4C8721A80764B4FF47A721A8048
:101D3800754A137843F008031370744A137823F034
:101D480002031370326840F6020313406BB1704B04
:101D580070481860704B03201870704B0120187081
:101D68006F48002303806F480380930341BF6E4B85
:101D780003221A71DA7844BF42F00102DA708B68E4
:101D880033606A4B01221A70694A137863F07F0343
:101D980013702FB0BDEC088BBDE8F08F13F0B00FB7
:101DA80013D1FFF7CFBA02280FD1624B62481860EF
:101DB8006248586094F8790100280CBF6F206E20A3
:101DC80018725F480323037013E003287FF4BAAA4C
:101DD800584BDFF880E1C3F800E0DFF860E1C3F8B2
:101DE80004E0574B1870072303E000230B60FFF74C
:101DF800F8BA4B7042F00303C8F80030FFF7A9BAED
:101E080004F101093C4679E71BB208EE103AB5F92E
:101E18005A31DFED4C7ADFED4C9A4C4A09EE103A14
:101E2800B5F95C31B8EEC88A08EE903A28EE278AF0
:101E3800B8EEC99AF8EEE88A002138EE290A29EEA8
:101E4800279A68EEA78A117008F09BF8B0EE40AAAE
:101E5800B0EE480A08F095F8B0EE40BA39EE290A13
:101E680008F08FF8F0EE40AAB0EE490A08F089F8B9
:101E7800B0EE409A38EEA90A08F083F8B0EE408A2E
:101E8800B0EE680A08F07DF860EE0A6A6BEE087A30
:101E9800F0EE665AE7EE895A2D4B28EE0A6A2BEEC9
:101EA800007A2AEEC00AC3ED035AF0EE465AE7EE6E
:101EB800495A83ED010AA6EE497A2BEE6A0AE6EE44
:101EC800897A28EE2A8A83ED050A2AEE8A0A83EDA2
:101ED800008A83ED029AC3ED045A83ED067AC3EDB6
:101EE800077A83ED080AFFF7BAB800BF1740EF007A
:101EF800C0080020D6280020440200205C1E0020D4
:101F08006A1B0020E42B0020D01B0020E82B0020B7
:101F180024130020D41F0020C82600202C010020F4
:101F2800F00D0020F20D0020EC0F00209807002093
:101F3800C82B0020CC260020859300087DD30008FC
:101F4800EB2B002035FA8E3CDB0FC93F4C000020FC
:101F58000013002071930008C04B2DE9F04FB3F92E
:101F68000610BF4B1F682DED028B7A8991428FB006
:101F78000EDBB1F5FA6FFC79BDBF8B1A6343A2F58E
:101F8800FA64C4F16404BCBF93FBF4F4643400E065
:101F98006424B44BB44AB3F894E193F95E311268FF
:101FA80002929BB2154603930022AC4B33F912C040
:101FB800CEEB0C0303F2F31640F2E63086424FEA0A
:101FC800420803D8002BB8BF5B4201E04FF4FA7314
:101FD800022A01934FF06400029B2FD093F81D61F1
:101FE8002EB1019BB342CCBF9B1B00230193019BE5
:101FF8009E4E93FBF0F96FF0630B36F819A00BFBBC
:10200800093B09F101099A4B36F919600FFA8AF967
:10201800C9EB060606FB0BF696FBF0F6564423F8CA
:102028000860BE18019B36797343924E93FBF6F312
:1020380064339BB2634393FBF0F02DE093F81E6189
:102048002EB1019BB342CCBF9B1B00230193019B84
:10205800DFF844A293FBF0F06FF063093AF91060DF
:1020680009FB003B0130BDF80C303AF91000801B29
:1020780000FB0BFB9BFBF9FBC6EB0B0616FB03F601
:102088007B4B9E80019BB879002BB8BF5B424343D2
:10209800784893FBF0F064306E78774B4FF0640922
:1020A800464396FBF9F69E5403F1030AEE7A46433B
:1020B80096FBF9F60AF8026006336E7D022A00FBE9
:1020C80006F06B4E90FBF9F098546C4B0ED1F4452A
:1020D80083F802900DDB634CB4F89621914214DB2F
:1020E800B1F5FA6FA8BF4FF4FA610FE0F4459C54BC
:1020F80004DA36F808305B4226F808300132032A41
:1021080005F101057FF451AFE5E71146DFF890E1ED
:10211800574D891A4FF47A736FF063075943C2F524
:10212800FA626423B1FBF2F191FBF3F23EF812007C
:1021380007FB0211013207B23EF91220D21B5143AC
:1021480091FBF3F30344F3804D4B1B885B063BD5AF
:102158004C4BDFED4D7AB3F904309FED4C0A0A225F
:1021680093FBF2F34A4A12889B1A1BB208EE103A04
:10217800B8EEC88A28EE278A38EE000A07F001FF71
:10218800F0EE408AB0EE480A07F0FBFEB5F90230DF
:1021980006EE903AB5F90030F8EEE66A07EE903AA6
:1021A80020EE667AF8EEE77AA7EEA87A67EE807AEC
:1021B800BDEEC77AE6EEA87A17EE103AFDEEE77A9A
:1021C8002B8017EE903A6B8094F89A31002B00F030
:1021D8008780304B304D1B88DFED300A2F8B00EEA7
:1021E800103A05F11C00B8EE400A012107F066FC20
:1021F800BCEEC00A8DED010ABDF80430B7FBF3F759
:1022080095F8263007F1010E1FFA8EFEA5F824E096
:10221800002B47D0B5F8289000231F4836F813C084
:1022280000F1320500F12A0835F8132038F81310A8
:1022380025F813C0C2EB0C0A11FB09F10FFA8EF254
:1022480091FBF2F2524428F813200133042BE4D115
:10225800002380F82630078527E000BF9E1D002058
:10226800B41000205C1E00208810002042140020BA
:10227800B81A00200CFEFFFFBE0D0020C01A002077
:1022880044100020A410002035FA8E3CDB0FC93F13
:10229800D428002034100020B00D00206F12833A9B
:1022A8002A1400202B8D013B2B85B84A108D03B2D0
:1022B800002B4FF0000312DDB2F92450B44931F875
:1022C8001320083112FB00F231F8131092FBF5F2DB
:1022D8008A1A26F813200133042BEFD100E0138566
:1022E800AC4D2B689F0776D5AB4BA84F1A68FB6B94
:1022F80045F20721D31A8B426DDDFA6305F084FBA2
:10230800A64BDFF8E4921A78032A9846B9F8003009
:1023180024D10A2B2ED90023282088F800300CF06D
:1023280008FA05F071FB9E4B188805F057FB9D4B8A
:102338001A68D37890FBF3F0013008289A4BA8BFAD
:1023480008201870537980B213FB00F3A7F84030C7
:10235800137913FB00F0A7F842000BE00A2B09D809
:102368000323914A88F8003000231370A7F84030FF
:10237800A7F8423098F80030884A012B0DD002D3D4
:10238800022B1ED027E0B7F84020B9F800309A4257
:1023980021DD012388F8003011E0B9F80010B7F802
:1023A80042308B4202DD0223137011E0774BB3F801
:1023B80040300133994202DD002313700BE00820FE
:1023C80007E0B7F84230B9F8002001339A42E0DC60
:1023D80007200CF0E5F92B68744D13F4006F77D0E3
:1023E8006D4A6A4F1268796CC1EB020845F2072101
:1023F80088456DDD7A646B4AB6F906A0D2F800907C
:10240800B4F84E1199F80A20694E012AAAF57A7A89
:1024180003D044D3022A21D043E0664BB96C5A7BDF
:10242800654B33F81220082092B291FBF0F3C91AD9
:102438008B18A7F84C20BB6440F6E44293FBF0F3FA
:102448009BB25343B9F80820C2EB13334FF47A72A6
:102458005343B9F9062093FBF2F321E02A78B9F83F
:1024680008B0C6F800B050071BD5544801930CF0CB
:10247800F5F8019B20B913F0100F18BF4FF0000AB0
:1024880032220AFB0AF393FBF2F3B9F9062053440C
:102498005A434FF47A7392FBF3F35B4400E0002352
:1024A8003360D7E91401336803FB08F84FF47A73F3
:1024B80098FBF3F810EB080241EBE873C7E9142323
:1024C800104619463E4A00230DF04EFF3D4B18605A
:1024D8003D4F01973B6813F4805F02D00A200CF04F
:1024E8005FF93A4E3268002A00F089803849394B42
:1024F80008681F6887428946984600F28080364BF4
:10250800DFF8E0A01878516808BB01201870BAF805
:102518000030CB5C5BB31378013B00FA03F2D4F8CC
:10252800D4371A4201D10CF021F92C4B01221A7030
:102538000DF0C0FABAF80030CBB933681B78053B08
:10254800012B14D80CF0CEF8254B18600FE04FF093
:10255800000B83F800B0BAF80030CB5C3BB15846AA
:102568000CF004F91D4B83F800B00DF0A3FA3268A3
:10257800BAF8003052681B48D25CFE2A01D1002309
:102588003CE0FF2A32D10CF0F7F838E0B00D00201B
:10259800DA0D00207C260020E00E0020C82600204E
:1025A80044130020241300202C010020E82B0020D5
:1025B800AC1000202C1300203C130020E21F002048
:1025C800407E05002813002048100020082700201E
:1025D800982B002000270020FC260020C02B00207C
:1025E800682A002004270020D0130020D9F80060B2
:1025F8000A2111FB0262C8F80020013303802B78FE
:102608005A0703D59D4B20221A852FE0019A12689C
:10261800D7075EBF9A4A43F001031370994B1B78A2
:102628001E075EBF2B7823F001032B70964B1A8888
:10263800964B1AB1964A1268900702D4954A1288A6
:1026480032B102221A702B7823F001032B7004E0B8
:102658002978C90758BF02221A700CF043F88E4B2C
:102668001B68C01A002801DB0DF024FA06F024F8D4
:102678008A4B01931E78002E00F0B480884F3B6887
:10268800002B00F0BD8738680CF026F9002800F010
:10269800B787834B834C18680CF01BF9092801D0C5
:1026A8003F2852D14FF000092668DFF81C824D46BA
:1026B80036B17D48D8F80010324611F033F910B918
:1026C800C14605B94546794B08F110089845EFD33E
:1026D800EDB1D5F800C0D9F8008023681CF803E0F4
:1026E80018F80300704512D15A1C6F4958B92D2BA0
:1026F80009D8DFF8B0E1CEF800204FF0200E01F83D
:1027080003E0885403E001F803E02260E5E723686A
:102718000BB14D4510D066480BF092FD4D4507D8DA
:1027280055F8100B0BF08CFD09200BF081FDF5E737
:1027380060480BF085FD002623689E42A3D25A4BC1
:10274800985D0BF075FD0136F6E72368002B40F025
:102758003C87042840F05F87534803F02BFD00F0C6
:102768004FBFDFF868A1DAF800000CF0B5F830B315
:10277800DAF800000CF0ADF8DBF8003093F84810F8
:102788000246002940D1242840F0A480012283F881
:102798004820DBF80030DFF82CA193F84820062AFF
:1027A800DFD193F8490002F07BF88346002800F057
:1027B800BC800BF087FC3B68002283F848203E4B26
:1027C80093F85F3053B158F8060005F0ABFC0CF0F5
:1027D800F5F907F067FC394B394ADA604C36982E20
:1027E80000F00E87DFF8E88006EB080393F84A202C
:1027F800012AF3D1334FDFF8D4903B6056F8083004
:10280800C9F80030BB46ACE7012904D14D2814BFF4
:1028180000220222BBE7022904D13C2814BF00226F
:102828000322B4E703290CD140284FF0000102D954
:1028380083F84810ADE758711971D971987104225D
:10284800A5E7042906D1997983F849004A409A7185
:1028580005229CE705299CD15879197988429879ED
:1028680006D950409871481C18710B441A7290E7A9
:1028780090420CBF0622002289E700BF00040048EE
:10288800E82B0020D01B00206A1B0020C02B002052
:1028980040100020E42B0020C42B0020E92B00204E
:1028A800C4260020EC110020BC1100203C40010887
:1028B800305E0108355E0108B00D002000ED00E033
:1028C8000400FA05BC2600207C3E0108C026002032
:1028D800C41D00202B78C34958073FF55AAF232A57
:1028E800DAF8003014D10292019A03910120107095
:1028F800BD480360BD488365BD480BF0A1FCBD48D9
:102908000BF09EFC0399029A0B7843F002030B70BC
:10291800B94B1B681B78934201BFB84BB84A1A6081
:10292800B84B04BFB84ADA6033E7DAF8002092F807
:1029380049304A2B00F044864FD8332B00F05F848F
:1029480021D8292B00F0F98309D8252B00F0D18351
:10295800272B00F0D483232B40F0598665E22D2BDA
:1029680000F0FC8307D82B2B40F051860BF07EFB40
:10297800607100F025BE2F2B00F0AD84312B00F0E4
:10298800BF8400F044BE3E2B00F0088110D8372BDE
:1029980000F0688404D8352B00F0828200F037BE3E
:1029A800392B00F0B9833C2B00F0028100F02FBED8
:1029B800432B00F0358406D8412B40F028864FF091
:1029C800000900F021BC442B00F0CE84482B40F0D5
:1029D8001E8606F001FF00F0F3BDD02B00F06783E0
:1029E8005ED8CA2B00F01E8116D84E2B00F0D98372
:1029F800C82B00F0A2804C2B40F009860BF036FB68
:102A080084F8D6010BF032FB84F8D7010BF038FBC1
:102A1800A4F8D80100F0D4BDCD2B00F0538304D81E
:102A2800CC2B00F0658200F0F2BDCE2B00F0538372
:102A3800CF2B40F0EC850BF023FB6FF4AF628318CB
:102A48009BB2C62B98BFA4F894010BF019FBA4F80D
:102A580040010BF015FBA4F842010BF011FBA4F8A0
:102A680044010BF00DFBA4F8D8010BF0FFFA0BF0B2
:102A7800FDFA0BF0FBFA0BF0F9FA84F883010BF07E
:102A8800F5FA84F890010BF0F1FA604BD3F8009056
:102A98000BF0F6FA00EB80004000A9F862003BE377
:102AA800D82B00F053810FD8D32B3FD003D8D22B8B
:102AB80029D000F0ACBDD42B00F08882D62B40F092
:102AC800A6854FF0000962E2F22B00F0C88212D806
:102AD800EF2B40F09C85DFF83491D9F800A00BF07B
:102AE800CFFAAAF86600D9F800900BF0C9FAA9F84D
:102AF800640000F065BDF32B00F03B84FA2B00F076
:102B0800F48200F084BD2B7803F0040303F0FF097E
:102B1800002B40F055850BF0A9FA022884F8A80785
:102B280040F2CB823A4B83F8A897C6E20BF0A8FA9A
:102B38002E4BA3F85C0000F043BD92F805904FEAD5
:102B48005909B9F1120F03D90BF0FAF800F038BDA2
:102B58004FF0000ACA4507D20BF092FA05AB23F8EA
:102B68001A000AF1010AF5E74A4600234B4507DA3D
:102B780005A931F81300274921F813000133F5E7B7
:102B8800122A05D0234B002123F812100132F7E74F
:102B9800164B012283F85E2000F012BD0BF066FA96
:102BA80084F8E0010BF062FA84F8DF0100F008BD58
:102BB800DFF85890D9F800A00BF058FA18B102289D
:102BC800A8BF022000E001208AF80000D9F80030F0
:102BD8001B78022B104B14BF104A114A1A6000F0E0
:102BE800EFBC00BFE82B0020C4260020B00D002059
:102BF800655E0108355E010844260020FC9F002020
:102C0800EFBEADDE00ED00E00400FA0588100020FC
:102C18005C1E0020002B00202001002065B6000863
:102C280009F40008DF4B1A681278022A81469A468E
:102C380070D1DAF800B00BF019FA07EE900AF8EE46
:102C4800677AB2EE048AC7EE887A0BEB890BCBED74
:102C5800087ADAF800B00BF009FA07EE900A9FED4F
:102C6800D27AF8EE677A0BEB890BC7EE877ACBED51
:102C78000B7ADAF800B00BF0F9F907EE900A9FED3D
:102C8800CB7AF8EE677A0BEB890BC7EE877A09F1F6
:102C98000109B9F1030FCBED0E7ACAD1B9F1070FCB
:102CA800DAF800B01CD10BF0E1F907EE900AF8EE63
:102CB800677AC7EE887ACBED117ADAF800B00BF0B4
:102CC800D5F907EE900AF8EE677AC7EE887ACBED69
:102CD800127ADAF800B00BF0C9F98BF84C0012E060
:102CE8000BF0C4F9CB448BF80100DAF800B00BF014
:102CF800BDF9CB448BF80B00DAF800B00BF0B6F94D
:102D0800CB448BF8150009F10109B9F10A0FC5D1B7
:102D180000F056BCDAF800B00BF0A8F9CB448BF8F9
:102D28000100DAF800B00BF0A1F9CB448BF80B00E6
:102D3800DAF800B00BF09AF9CB4409F10109B9F1BE
:102D48000A0F8BF81500E5D100F03ABC8146DFF890
:102D580054A29FED968ADAF800B00BF091F907EECD
:102D6800900AF8EE677A0BEB890BC7EE887ACBED01
:102D7800087ADAF800B00BF083F907EE900AF8EE5B
:102D8800677A0BEB890BC7EE887ACBED0B7ADAF80A
:102D980000B00BF075F907EE900AF8EE677A0BEBC6
:102DA800890BC7EE887A09F10109B9F1030FCBED58
:102DB8000E7ACCD1B9F1070FDAF800B01CD10BF0BC
:102DC8005FF907EE900AF8EE677AC7EE887ACBEDDE
:102DD800117ADAF800B00BF053F907EE900AF8EE22
:102DE800677AC7EE887ACBED127ADAF800B00BF082
:102DF80047F98BF84C0012E00BF042F9CB448BF802
:102E08000100DAF800B00BF03BF9CB448BF80B006B
:102E1800DAF800B00BF034F9CB448BF8150009F15F
:102E28000109B9F10A0FC5D1CAE30BF01FF913283C
:102E380083463FF689AEDFF86CA1DAF800900BF014
:102E480015F900235A4A0C2101FB0322117A814209
:102E580022D10FFA8BFB09EB8B09137889F885309F
:102E68000BF004F989F886000BF000F989F887005F
:102E78000BF0FCF84F4B504A1A6089F888004F4B0A
:102E8800DAF8000018600021853005F0D7FB4C4BBC
:102E980080F00100187093E301331D2BD2D153E663
:102EA8000BF0E4F80B2882463FF64EAE3D4BD3F8C4
:102EB80000900BF0DBF803283FF646AE062303FB31
:102EC8000A9989F8DA000BF0D1F889F8D5000BF0E7
:102ED800CDF889F8D6000BF0C9F889F8D7000BF0BF
:102EE800C5F889F8D8000BF0C1F889F8D90067E36C
:102EF8005379092B7FF628AEDFF8CC90D9F800A0DB
:102F08000BF0B4F88AF80000D9F800A00BF0AEF87E
:102F18008AF801000BF0AAF8D9F800306428A8BF95
:102F2800642018710BF0A2F8D9F800306428A8BF03
:102F3800642058710BF09AF8D9F80030FF28A8BF20
:102F4800FF2098710BF092F8D9F800A0642828BFE8
:102F580064208AF807000BF089F88AF80200D9F88B
:102F680000A00BF083F88AF80300D9F800A00BF052
:102F780087F83B68AAF80A005B790A2B40F220839D
:102F8800D9F800900BF072F889F8080018E30BF0F4
:102F980077F80C4B23F8190009F10109B9F1080F6A
:102FA800F5D10DE3881000200000C84200007A44E3
:102FB800103D01082C1000209C1F0020301000201C
:102FC80005000020A2260020B410002053790F2B02
:102FD8007FF4BAAD0BF04AF8072881463FF6B4AD46
:102FE800DFF884A4DAF800B00BF04AF80E2303FBEC
:102FF80009F9CB44ABF82501DAF800B00BF040F83A
:10300800CB44ABF82701DAF800B00BF039F8CB4421
:10301800ABF82901DAF800B00BF028F8CB448BF8AC
:103028002B01DAF800B00BF021F8CB448BF82C0117
:10303800DAF800B00BF01AF8CB448BF82D01DAF867
:1030480000B00BF013F8CB44DAF800A08BF82E018F
:103058000BF020F80AEB0903C3F82F01B0E20BF0DC
:1030680005F80F2881463FF66FAD0AF0FFFFC9EB60
:10307800C909A14489F8D0000AF0F8FF89F8D100FD
:103088000AF0F4FF89F8D2000AF0F0FF89F8D300BB
:103098000AF0ECFF89F8D4000AF0E8FF89F8D500B7
:1030A8000AF0E4FF89F8D6000BF0C8FD88E22B7817
:1030B8005B0700F1858209F0BBFC07F01DF807F0FB
:1030C800D9F87DE22B78580700F17A82E24B4FF469
:1030D800C8721A8074E22B78590700F17182DF4AAE
:1030E800137843F0040313706AE22B785A07E4D587
:1030F8008DE2A0600AF0CEFF06F0CCFF60E20AF095
:10310800BFFFA4F858010AF0BBFFA4F85A010AF05F
:10311800B7FFA4F85C0153E20AF0A8FF84F878012D
:103128000AF0A4FF84F87C010AF0A0FF84F87B0170
:103138000AF09CFF84F87D0142E20AF0A1FFA4F89E
:103148007E010AF09DFFA4F880010AF08FFF84F841
:1031580082010AF095FFA4F8840131E20AF086FFA3
:1031680084F88E010AF08CFFA4F898010AF088FF11
:10317800A4F894010AF084FFA4F896010AF076FFF7
:10318800DAF8003084F88F015B79082B40F2188256
:103198000AF076FFA4F89C010AF072FFA4F89E01D9
:1031A8000EE292F805900323B9FBF3F9B9F1120F77
:1031B8003FF6CAACDFF8B4A24FF0000BCB4580F065
:1031C800FF810AF053FF8AF8A0010AF059FF40F284
:1031D800ED23984205DD40F6CA039842A8BF184679
:1031E80001E040F2EE20A0F2EE2019230BF1010BD2
:1031F80090FBF3F00AF1020A8AF89F01DEE70AF071
:1032080035FF84F89001DBE10AF030FF04EB090395
:1032180009F10109B9F1080F83F88601F4D1CFE16A
:103228000AF024FFC4F808B060710AF033FF06F012
:1032380031FF0AF01BFF84F88E010AF021FFA4F881
:1032480058010AF01DFFA4F85A010AF019FFA4F862
:103258005C010AF015FFA4F87E010AF011FFA4F83A
:103268008001ADE153794FF00709B3FBF9F2C2EBE6
:10327800C2029A1A12F0FF0F7FF466ACB3FBF9F999
:1032880009F1FF395FFA89F9B9F1FF0F00F0988168
:103298000AF0ECFE5FFA80FB4FFA8BF005F060F85D
:1032A800824600283FF450AC80F800B00AF0E8FEEF
:1032B800AAF802000AF0DAFE8AF804000AF0D6FE3C
:1032C8008AF805000AF0D2FE8AF807000AF0CEFE56
:1032D8008AF80600D4E7DFF8949109F1400A0AF069
:1032E800CFFEA9F8A0020AF0C1FE89F8A2020AF0EE
:1032F800BDFE09F1040989F89F02D145EFD15FE1CC
:103308000AF0B4FE1F2881463FF61EAC3B685B7985
:10331800082B7FF419AC0AF0B3FE09F1880904EB15
:10332800890A00F03F00AAF802000AF0A9FEBAF8DC
:103338000230800100F4FE501843AAF802000AF097
:1033480095FE000104F829000AF090FE14F82930CF
:1033580000F00F00184304F829000AF087FE8AF8E5
:10336800010005F08BFD2BE13D4B012283F85F2026
:1033780026E10AF07BFEFF288346DFF8E4A077D138
:103388004FF000090AF16400494660228AF860900B
:1033980010F080FA8DF813909DF813309AF8C62033
:1033A800DFF8BCB09A424DD99DF813300BEBC3033C
:1033B80093F8C930DB073ED59DF813300BEBC303F8
:1033C80093F8C820274B33F91230002B33DD9DF8D2
:1033D80013309BF860900BEBC3034FEAC90ED3F888
:1033E800CC3058689DF813300BEB0E010BEBC30B78
:1033F8004866DBF8CC301A89A1F86A2092B200211D
:1034080001238B40134003D101311029F8D100E08A
:103418000B46D64405A9AEF8683004238DF816305B
:1034280009F101090123ADF814208DF8173002F0D5
:10343800F1FB8AF860909DF813300133DBB28DF808
:103448001330A9E701200AF061FE9BF860000AF03A
:103458002AFEFFF7AEB900BF6A1B0020D01B002070
:10346800B00D00208C100020881000205C1E002069
:103478009AF860309842BFF467AB00200AF046FE25
:103488000AF020FE3B68186804F04CFED9F80000EA
:103498000AF0CCFD0BF070F972B6DFF84C924023BD
:1034A8008022A9F828204FEACB0BA9F82830ADF8DC
:1034B80014200422DA448DF816204846012205A972
:1034C80003938DF81720029202F0A4FB029A039B43
:1034D800ADF81430484605A98DF816208DF8172048
:1034E80002F098FBDAF86410BAF868E0029A086803
:1034F800039B4FEA4E0E02FA0EF202430A60BAF834
:103508006A208A61C9F81830B9F810301806FBD457
:10351800DFF8049209EB0B030122586EB3F868E058
:1035280001684FEA4E0E02FA0EF20A43596E026023
:10353800B3F86A206C4B0A854021198520219961CE
:1035480040F6055A684B198A090605D4BAF1000FE6
:10355800F8D00AF1FF3AF5E78261ADF814200422A9
:103568008DF8162005A9012202938DF8172002F084
:1035780051FB029BBAF1000F14D05B4B1A8A12065A
:10358800C6D509EB0B014A6EB1F86A10128A1142CE
:103598004FF020024FF0400115BF996119859A61DB
:1035A8001A85EAE740229A6120229A6162B60A20C7
:1035B8000BF0BFF80AF0D3FA3B68F32283F84920EE
:1035C80000200AF0A3FDFFF7F4B80C2825D00A283C
:1035D80027D1464D46480AF033FE2846232110F0ED
:1035E8008CF908B1401B20602368EBB93F48236081
:1035F8000021302210F04EF9019B1B78002B46D198
:103608003C4B9B68002B69D03B48984766E00AF022
:1036180097FBFFF7CEB80C2847D138480AF010FEC0
:1036280035E00D2835D1D4E75A1EA95C202901D1EF
:103638001346DAE72D4A23600021D154304B314D2F
:10364800D3F80090D5F800A0DFF8A080504610F01D
:1036580061F9064632464046514610F063F92A4A57
:1036680028B918F806304B445B785B0703D010354F
:103678009542E7D306E0954204D2701CEB684044BB
:10368800984702E021480AF0DBFD0023AEE7204816
:1036980007E07F280DD1013B144A1E482360002112
:1036A800D1540AF0CDFDFEF7EEBF7F2804D1FEF716
:1036B800EABF2F2B3EF6E7AFA0F12002D2B25E2A76
:1036C8003EF6E1AF13B920283EF4DDAF5A1C226064
:1036D800064AD0540AF0ACFDFEF7D5BF0FB0BDECDA
:1036E800028BBDE8F08F00BF00040048BC11002029
:1036F8004D6B0108882A0020D80E00203A5E010888
:10370800300100207C3E01083C400108455E01086C
:10371800355E0108615E0108B00D00202DE9F04F0B
:103728009F4CDFF8B492226802F59C432DED028B82
:10373800203363609B4B1E7887B0C6B19A490968ED
:103748008A4240F2FF80013E1E70FBE0D9F800304B
:103758009648072D98BF595D954B88BF29461B6829
:103768009847032D0AD904EB4505013628818F4B6C
:103778001A78F5B2AA421946E8D820E0D9F800200C
:1037880005F10E0302EB8303D9881A890028EAD0D1
:103798004FF47A73401A5843531A90FBF3F040F6EB
:1037A800C90300F57A70984205DC40F2EE2398428E
:1037B800B8BF184601E040F6CA0080B2D3E77D4B97
:1037C8001B6842F201071F407B4BB7FA87F77F0956
:1037D8001B6837B994F82D2084F82C20774A507844
:1037E800107094F82C601EB1744A167886F00106A1
:1037F80094F82FB091F800A0DFF8E0810321BBFB1B
:10380800F1F101EB41010F22C1EB0B0184F82E20ED
:10381800C9B2D9F8002000910025554558DA4FEA79
:10382800450C1EB1664931F8150000E03046D18AD2
:10383800DFF8ACE1814202D8118B81421ED25EF8DA
:1038480025005749834203D25E4931F80C0019E03C
:10385800E8B20292019303910CF0D8F8032D019B72
:10386800029A0FDC03994FF0010C91F82EE00CFA44
:1038780005FC2EEA0C0E81F82EE003E003F59671A4
:103888004EF82510EFB9009928F8110094F8C010E7
:1038980031B9BBF1020F14D94149012081F8C000A8
:1038A800B8F80210B8F800000844B8F80410084442
:1038B800454980B221F8150000B2032190FBF1F0D0
:1038C80080B2404908F1060821F815000135A4E73F
:1038D80094F82E2038493D4BA2F10F0EDEF100027C
:1038E80042EB0E0284F8DA206AB1394A12685701AD
:1038F80009D40A68D9689A60521AC82A1DD90122BF
:1039080083F8212019E02D4A0120507010700A68B0
:103918009968DA605B68521A9A4282BF2B4B002280
:1039280083F821200025554507DAE8B20CF06EF837
:10393800244B23F815000135F5E794F82F300133AF
:1039480084F82F301B4B1A6812F4805F984605D014
:103958001F4B1B68DE0701D40BF01DFDD9F8007062
:103968000F4EBB7A2168002B3CD0013B15483A7BAF
:1039780030F813301AB1C3F53B6308339BB21BB25E
:10398800A3F57A73B3F57A7FA8BF4FF47A7323EA65
:10399800E37307EE903A9FED0F7AF8EEE77A59E075
:1039A800E00E0020942B0020902B00203C260020C5
:1039B8009C0000207C260020982B0020030000207B
:1039C800E80E00209E1D0020A20F00209C2B002046
:1039D8004810002000007A448C2B0020100F002093
:1039E800580F0020D8F8002015043FD5D6F8DC2061
:1039F8008A1A002A3ADB01F59C422032C6F8DC20FC
:103A08008E4A50798E4A32F81050A8B2FD7A90FB4F
:103A1800F5F596F8E000013000F00F0286F8E02096
:103A2800324482F8E1501A468648185C0133024451
:103A3800102B92B2F8D112B292FBF3F31BB2642BA3
:103A4800A8BF642323EAE37307EE903A9FED7E7ADA
:103A5800F8EEE77AC7EE877A7C4A9FED7D7A67EEC3
:103A6800877AFCEEE77A17EE903A1380D8F80030A0
:103A7800784D13F4807F00F00681774BDFF8DC91F6
:103A8800994205D999F8022012B9012289F8022031
:103A980099F80220002A00F0F680704A2F7892F8F0
:103AA80021606F4A701E464211684641002EC1F3DC
:103AB8008063C7F380070093924614BF4FF0000B52
:103AC8004FF0030B99F82020052A00F2D680DFE892
:103AD80002F0034D527584A1002F3AD0D4F8F400B7
:103AE800B4F8F8100AF0BAFD012809D15D495E4A18
:103AF80009681268C988642000FB0122C9F81020EF
:103B0800009B6BB1574A126812794AB10BF0AAFEB2
:103B1800032289F820204FF47A72C9F81C20D1E7D3
:103B2800002E40F0AA80504AD9F8101010684B4A6D
:103B380088420AD901920BF095FE019A032182F876
:103B4800201040F6B831D161BCE7012182F820107D
:103B5800B8E7009B4FF4806013B106F083FA01E0E8
:103B680006F070FA0022C9F8102086E0002E46D12F
:103B78000BF078FEA6E726B1052289F8202001205F
:103B880000E0304667B1D4F8F420D189374A118073
:103B980051809180334909684988D1804FF0020BE0
:103BA800314A1168D9F81420914201D8002F61D107
:103BB80047F23052C9F81C20032221E02A7842F04B
:103BC80002022A700BF0E7FB274AD9F81C1012688A
:103BD8000A44C9F81820042212E0234A9EB1116849
:103BE800D9F81820914248D9214A92781AB9DAF8B6
:103BF8000020D10741D42A7822F002022A70052237
:103C080089F820205EE71268D9F81C100A44C9F820
:103C1800182032E01349144A09681268C9886420D8
:103C280000FB0122C9F810204FF48060002289F8B7
:103C3800202089F8032006F005FA43E72C1300201A
:103C48003C130020C10F00200000C842AA10002029
:103C580000C07F44E82B0020404B4C009C2B0020E8
:103C680048100020B42A0020982B00209E1D002018
:103C78000300002000287FF425AFBBF1000F02D01D
:103C880058460AF08DFDA64E06F5C370B6F84E11DB
:103C98000AF0E4FC814600282ED1A24BA24F1B68F3
:103CA80013F0006A08D0FB7833B90AF081F89F4B0B
:103CB800012818BF002018702B785A0709D5D8F8A2
:103CC8000030DB0605D4BAF1000F02D0FB78002BD8
:103CD8002FD0974A0023136053609360954A0021C0
:103CE800116051609160944A126802F57A72C4F8C2
:103CF800FC200122FA701AE0D8F80030DF0618D448
:103D08002B78580715D5874B1B68190111D5864F95
:103D1800FB7863B1884B1A68D4F8FC309A4208D90A
:103D28000AF046F828B9814BF870187001E07F4A0C
:103D380013702B785A0736D5D8F80030DB0632D501
:103D48007E4B1B78DF062ED4774B9B7893B196F881
:103D5800E031B9F1000F15D17BB1774B1A68D4F86F
:103D680000319B1A002B08DA0BF015FB744B83F813
:103D7800049118E0B9F1000F0DD110200AF010FDE0
:103D880001230EE03BB16C4A12684FF47A7101FBD3
:103D98000323C4F8003194F8043123B10AF0ECFC91
:103DA800002384F80431002296F8DEB196F8DF117A
:103DB800B6F896E1B6F898C113466248009030F913
:103DC80012709B087745C4BF63F07F03DBB20132F2
:103DD8006745B8BF43F04003042AEED194F80521A3
:103DE80057489A4205D190F80621F92A04D8013299
:103DF80000E0002280F806214B4884F805318378DA
:103E08004F4A484F82462BBB3868C0070AD582F80C
:103E18000731B9F1000F1DD12B78DA071AD50BF04D
:103E280037F917E02B785B0714D592F82C308BB153
:103E3800454BDB7873B992F807310133DBB2032BBA
:103E480082F8073106D911B10BF0A5FA02E0B9F1F1
:103E5800000FF9D094F80631394ADFF8FC90142B9A
:103E680040F0A2809AF802301BF1000B18BF4FF007
:103E7800010B6BB392F805315F2B11D12B7803F04E
:103E8800040303F0FF0113B10BF085FA08E00B20DF
:103E9800029101920AF084FC019A029982F80611B3
:103EA800BBF1000F14D094F805317D2B10D12B787D
:103EB80003F0040303F0FF0213B10BF06CFA07E000
:103EC8000B2001920AF06CFC1D4B019A83F8062125
:103ED8002B7803F0040303F0FF01002B64D194F85E
:103EE8000531174A572B03D14FF47A72174B52E01A
:103EF800D8F80000400735D55A2B33D1144B187821
:103F080020B11970134B01221A704DE092F8083154
:103F180083F0010382F8083103B30C201FE000BFCF
:103F28005C1E00204810002003000020EC2B00201D
:103F3800CC1A00207C2A0020982B0020D01B0020BF
:103F4800E00E00209E1D00209C2B0020E42B00206A
:103F5800951B0020961B0020881000200D200AF0D9
:103F68001FFC21E05D2B00F042845B2B00F04184B4
:103F78005E2B00F04084562B01D106F02DFB9AF8F9
:103F8800023053B994F80531AE4A972B40F00E84AD
:103F9800AD4B4FF4C8721A8006E094F805316F2BC8
:103FA80040F0FB830BF074F8D8F800305A0732D58C
:103FB80094F80831A3B12B785B0711D5009BB3F9AE
:103FC8000620B6F896319A420ADD3B6813F00103E1
:103FD80001BF9E4A322111809A4A08BF82F80831EF
:103FE8003B68D8030AD59A4B1A782AB9994A1278A5
:103FF80012B9964A3221118001220BE0954A1378B2
:104008004BB12B7803F0040303F0FF011BB9924B6B
:10401800117001221A70D9F800A000233B600AF140
:1040280087090AF1D70B99F8002099F8013019F897
:10403800010C9A420BD2494604F0DAFA38B119F861
:10404800022C012303FA02F23B6813433B6009F197
:104058000409D945E7D1814B1B782BB1804F3B68C8
:10406800990700F13F8336E30AF1D6070AF58F79FD
:104078003A787B7817F8010C9A4225D2394604F031
:10408800B7FA08B3BB7897F804C0764A97F803A044
:104098006C480C21013B01FB0C4103EB4303134427
:1040A800D1F81C219A420FD0C1F81C31002390F896
:1040B8004821C1F82031012303FA0CF322EA030353
:1040C80081F818A180F8483106374F45D0D1664BA2
:1040D8001F68664B1B68029394F82C300393644B5B
:1040E800009300230193009B1A68002A00F0E882DD
:1040F80092F800A0BAF1000F00F0E2825B68029922
:10410800CB1A002B0CDB01F5FA7300994B6001996F
:1041180001238B4094F8481121EA030384F84831BD
:10412800039B002B00F0CC82009B517813F8043CD1
:104138000433DBB2002940F082824E4931F9131072
:10414800B6F8943103F1C800814202DD92F802B05A
:1041580015E0C83B994203DA9178C1F1000B0EE0F3
:10416800019A0123934094F8482122EA030384F832
:104178004831029B009A03F5FA735360A0E2019A52
:1041880094F848311341DA0700F19A82BBF1000F25
:10419800CCBF022001200AF039FB0AF1FF33DFF817
:1041A800A490132B00F28482DFE813F0140025009A
:1041B80037006C0085008C00EF005201B901E7015F
:1041C800170282026C007B008C00EF005201C100D4
:1041D8002401890197F80090D944B9F1FA0FA8BFD2
:1041E8004FF0FA0929EAE979384687F8009004F08F
:1041F800E5F901200FE097F80190D944B9F1640F6F
:10420800A8BF4FF0640929EAE979384687F8019090
:1042180004F0D4F902204946DCE197F803A0DA4417
:10422800BAF1640FA8BF4FF0640A2AEAEA7A87F85D
:1042380003A03846D9F84C1104F076F9032051460A
:10424800C8E100BFE00E00206A1B00207C1B002094
:10425800941B0020951B0020961B0020E92B0020B2
:1042680048100020A43C0108B4100020982B00201E
:10427800FC0F00209E1D002000007A440000C84268
:1042880000000000797959446429A8BF642121EA13
:10429800E17179710D200AF011FABAF10D0F00F0F1
:1042A8000782397959446429A8BF642121EAE17158
:1042B80039710E208EE1B979594481F30801B97139
:1042C800052087E1D9F850311A78022A20D107EE63
:1042D80090BAB8EEE70A5FED177A93ED097A80EEA7
:1042E800270A30EE070AB5EEC00AF1EE10FA07D435
:1042F800B4EE670AF1EE10FAC8BFB0EE670A01E043
:104308001FED210A83ED090A0F200AF0C1F90AE01E
:1043180099785944C829A8BFC82121EAE171997040
:104328000F200AF0CBF9BAF10F0F00F0C181D9F8CC
:1043380050311A78022A1ED107EE90BAB8EEE78AF1
:104348005FED327A93ED080A88EE278A38EE000A84
:10435800B5EEC00AF1EE10FA07D4B4EE670AF1EE32
:1043680010FAC8BFB0EE670A01E01FED3B0A83ED03
:10437800080A122056E159785944C829A8BFC8210B
:1043880021EAE1715970122024E1D9F850311A78E4
:10439800022A20D107EE90BAB8EEE70A5FED497A13
:1043A80093ED0C7A80EE270A30EE070AB5EEC00AC4
:1043B800F1EE10FA07D4B4EE670AF1EE10FAC8BFAE
:1043C800B0EE670A01E01FED520A83ED0C0A1020D7
:1043D8000AF05EF90AE0197B5944C829A8BFC82128
:1043E80021EAE171197310200AF068F9BAF1100F87
:1043F80000F05E81D9F850311A78022A1ED107EEF2
:1044080090BAB8EEE78A5FED637A93ED0B0A88EE0F
:10441800278A38EE000AB5EEC00AF1EE10FA07D482
:10442800B4EE670AF1EE10FAC8BFB0EE670A01E011
:104438001FED6D0A83ED0B0A1320F3E0D97A594476
:10444800C829A8BFC82121EAE171D9721320C1E0A7
:10445800D9F850311A78022A22D107EE90BA1FED06
:104468007A0AF8EEE77A87EE800AD3ED0F7A30EE13
:10447800270AB5EEC00AF1EE10FA09D45FED817A89
:10448800B4EE670AF1EE10FAC8BFB0EE670A01E0B1
:104498001FED850A83ED0F0A11200AF0F9F80AE0EA
:1044A800997D5944C829A8BFC82121EAE1719975A5
:1044B80011200AF003F9BAF1110F00F0F980D9F8C8
:1044C80050311A78022A20D107EE90BA1FED960AC9
:1044D800B8EEE78A88EE008A93ED0E0A38EE000AF5
:1044E800B5EEC00AF1EE10FA09D45FED9C7AB4EE8D
:1044F800670AF1EE10FAC8BFB0EE670A01E01FEDD7
:10450800A00A83ED0E0A14208CE0597D5944C8296D
:10451800A8BFC82121EAE171597514205AE0D9F8D9
:1045280050311A78022A1ED107EE90BAB8EEE78AFF
:104538005FEDAE7A93ED0A0A88EE278A38EE000A14
:10454800B5EEC00AF1EE10FA07D4B4EE670AF1EE40
:1045580010FAC8BFB0EE670A01E01FEDB70A83ED95
:104568000A0A09205EE0D9785944C829A8BFC82199
:1045780021EAE171D97009202CE0D9F850311A7874
:10458800022A1ED107EE90BAB8EEE78A5FEDC57A27
:1045980093ED0D0A88EE278A38EE000AB5EEC00AB8
:1045A800F1EE10FA07D4B4EE670AF1EE10FAC8BFBC
:1045B800B0EE670A01E01FEDCE0A83ED0D0A0A206E
:1045C80030E0597B5944C829A8BFC82121EAE171C4
:1045D80059730A200AF072F86AE0D9F850311A784B
:1045E800022A22D107EE90BA9FEDA20AB8EEE78A16
:1045F80088EE008A93ED100A38EE000AB5EEC00A7C
:10460800F1EE10FA09D4DFED9C7AB4EE670AF1EE08
:1046180010FAC8BFB0EE670A01E09FED980A83ED73
:10462800100A0B200AF034F842E0D97D5944C82911
:10463800A8BFC82121EAE171D9750B20CAE7012971
:1046480036D190788E4A32F91390B9F5617F05DB3F
:1046580040F633039945A8BF994601E04FF46179C4
:10466800BAF10C0F24D1874A4FF4966393FBF0F00C
:104678001378A9F5617999FBF0F95FFA89F94B4547
:1046880016D0B9F1040F34BF4B46022313707E4A8B
:104698000AFB036303F2AA73136005F0C7FD5046D3
:1046A80049460AF00BF809F10100C0B20AF0AEF869
:1046B800019A0123934094F84821134384F8483120
:1046C800019B01330193009B0C330093019B042B46
:1046D8007FF409ADC2E4D8F80030DB050FD56B4B89
:1046E800DB7863B16A4B1B689C0708D5694B1B884C
:1046F80013F0010408D1012005F0B4FC04E0012006
:1047080005F0A0FC012300E000233A6850070BD510
:1047180053B1012005F096FC5E4B1B88990706D41F
:10472800022005F09FFC02E0022005F08BFC3B68AC
:104738001A054FF4807002D505F094FC01E005F0ED
:1047480081FC7379082B01D00E2B02D1402005F093
:1047580079FCD8F800305B0540F1868096F8103275
:104768001BB92B7813F0040F02E03B6813F4002FF9
:104778000AD0494B00221A703C2009F0E5FA0028BB
:1047880072D009F053FCF7E703F096FF07B0BDECD1
:10479800028BBDE8F04F09F0E2B9BBF1000F3FF41E
:1047A800F1AB7E2B7FF4EEABFFF7FCBBA72B06D15A
:1047B8003A4A137843F004031370FFF7F5BB00215E
:1047C800BB2B059101D1022303E0B72B04D14FF68F
:1047D800FE73ADF816301EE0BE2B01D1022303E0B4
:1047E800BD2B2FD14FF6FE73ADF8143013E0012026
:1047F80002E0022000E003205FFA80FA0AF1FF33AA
:1048080086F8A83705F078FC05F034FD504609F025
:10481800FDFFFFF7C9BBD9F80030BDF81410B3F895
:1048280064200A44A3F86420BDF81610B3F8662083
:104838000A44A3F8662005F0CFFE002384F8063169
:10484800FFF7B2BB792B04D192F80F3123F00103A3
:1048580006E07A2B7FF4A8AB92F80F3143F00103FE
:1048680082F80F31FFF7A0BB07B0BDEC028BBDE8A3
:10487800F08F00BF00007A440000C842000000002A
:104888009E1D0020A0260020B41000209C2B002094
:10489800401000204410002048260020D01B002093
:1048A8002DE9F04F2DED028B4728A1B0044600F00A
:1048B800608600F2CE802E2800F00F8667D8222866
:1048C80000F0BA8423D8032800F0408214D80128C5
:1048D80000F03182022840F09886042009F016FC86
:1048E800422009F0E0FB542009F0DDFB462009F0E6
:1048F800DAFB4C2000F0C3BD042800F03182052803
:1049080040F083861A2009F001FC002438E22828A8
:1049180000F07C8515D8242800F06385262840F00F
:104928007486C64C062009F0F1FBB4F8580109F06A
:10493800F0FBB4F85A0109F0ECFBB4F85C0100F0A4
:10494800AFBD2A2800F075852C2840F05E86BB4C48
:104958000C2009F0DBFB94F88E0109F0A4FBB4F8F5
:10496800980109F0D6FBB4F8940109F0D2FBB4F829
:10497800960109F0CEFB94F88F0109F094FBB4F886
:104988009C0109F0C6FBB4F89E0100F089BD3A28E5
:1049980000F0E2821DD8342800F07E840DD830283B
:1049A80000F0B185322840F03086012009F0AEFBD6
:1049B800A24B93F8900100F062BD362800F0738591
:1049C800382840F02286042009F0A0FB9B4C00F018
:1049D8000EBD402800F0568511D83B2800F02584EC
:1049E8003D2840F01286954C022009F08FFB94F880
:1049F800E00109F058FB94F8DF0100F040BD4528BC
:104A080000F0F08500F2A485422840F0FE858B4C2A
:104A1800102009F07BFB607909F045FBA06809F0DC
:104A280081FB94F88E0109F03EFBB4F8580109F0B7
:104A380070FBB4F85A0109F06CFBB4F85C0109F09A
:104A480068FBB4F87E0109F064FBB4F8800100F05B
:104A580027BD6F2800F0D08200F2F880662800F0A9
:104A6800CB8100F2C2804D2800F0E98415D849288E
:104A780000F0BB824B2840F0C885704C042009F038
:104A880045FB94F8D60109F00EFB94F8D70109F01C
:104A98000AFBB4F8D80100F003BD642800F089814E
:104AA800652840F0B285664C0B2009F02FFB208862
:104AB80009F02FFB6268634B9A420CBF208960891A
:104AC80080B209F026FBE368C3F3C000C3F3800299
:104AD800800040EA4200C3F340021043C3F340128F
:104AE80040EAC20003F01003184309F012FB218AC0
:104AF8006369247E01F0080203F4475A4AEA020A6D
:104B080003F480424AEA020A03F400424AEA020A2B
:104B180003F480324AEA020A03F400324AEA020A3B
:104B280003F480224AEA020A03F400224AEA020A4B
:104B380003F480124AEA020A434A03F0007B12781F
:104B48004AEA0B0A03F0006311F0010FC2F3800276
:104B58004AEA030314BF4FF002094FF00009134358
:104B680011F0020F14BF4FF004084FF0000843EA99
:104B7800090911F0040F14BF4FF0100C4FF0000C8E
:104B880049EA080811F0400F14BF4FF0200E4FF00B
:104B9800000E48EA0C0C11F0100F14BF4FF4007708
:104BA80000274CEA0E0E11F0200F14BF4FF4806658
:104BB80000264EEA070711F4807F14BF4FF4006502
:104BC80000253E4311F4007F14BF4FF4001000206D
:104BD800354311F4806F40EA050014BF4FF080613F
:104BE8000021014300200346F3E0692800F09A8180
:104BF8000AD8672800F02181682840F0068510202F
:104C080009F084FA002485E16D2800F09E8100F205
:104C1800BF816C2840F0F984094C062009F076FA27
:104C2800B4F8700009F075FAB4F8720009F071FA76
:104C3800B4F974300A2093FBF0F0D4E15C1E002034
:104C48003410002000540040E82B0020772800F0A2
:104C580081834BD8732800F09D833CD8702800F0DE
:104C6800FD81722840F0D184BD4C162009F04EFA1F
:104C7800B4F8940109F04DFAB4F8400109F049FA82
:104C8800B4F8420109F045FAB4F8440109F041FAD0
:104C9800B4F8D80109F03DFA002009F004FA002020
:104CA80009F001FA002009F0FEF994F8830109F0EF
:104CB800FAF994F8900109F0F6F9002009F0F3F9EF
:104CC800A84B5B6D0A20B3F9623093FBF0F080B219
:104CD80009F01FFA8BE3742800F00383752840F06D
:104CE80094842F2009F012FA9F4C96E2A02800F035
:104CF8006A830AD8782800F0AC807B2840F0858445
:104D08003C2009F003FA002431E2F12800F0DC80AD
:104D1800FE2800F04A83F02840F07784914C042064
:104D280009F0F4F9636DB3F8660009F0F2F9636D00
:104D3800B3F86400B4E3032009F0E8F9002009F0AF
:104D4800B2F9204609F0AFF90D2098E309F0DEF931
:104D5800022009F0A8F9012009F0A5F905208EE341
:104D6800062009F0D3F94D2009F09DF94F2009F0EC
:104D78009AF9542009F097F94F2009F094F920E3A3
:104D88007A4B185D013409F08EF90B2CF8D1002408
:104D9800774B185D013409F086F9082CF8D1002406
:104DA800744B185D013409F07EF9072CF8D100F036
:104DB8002ABC072009F0AAF9E72009F074F9684B22
:104DC800587909F070F9002009F06DF9042000F015
:104DD80018BCA3420AD2684A9D5C012202FA05F572
:104DE8000D421CBF9A4010430133F2E709F09AF9CB
:104DF8005B4B93F8A80742E3122009F087F95F4B51
:104E08001B88B3F5806F8CBF082601260025554CFA
:104E180004F1360333F9150090FBF6F0013580B242
:104E280009F077F9032DF2D1A08F09F072F9E08F1C
:104E380009F06FF9B4F84000BBE2102009F066F9F8
:104E480000244F4B185D013409F02DF9102CF8D1CE
:104E5800D9E3702009F05AF90026424D0E246B6DF3
:104E6800744323440136B3F8250109F052F96B6DF8
:104E78002344B3F8270109F04CF96B6D2344B3F8C8
:104E8800290109F046F96B6D234493F82B0109F0C9
:104E98000AF96B6D234493F82C0109F004F96B6D42
:104EA800234493F82D0109F0FEF86B6D234493F821
:104EB8002E0109F0F8F86B6D1C44D4F82F0109F0A5
:104EC80031F9082EC9D19EE37020254C09F01EF94E
:104ED80004F1700594F8D00009F0E5F894F8D100D1
:104EE80009F0E1F894F8D20009F0DDF894F8D3005D
:104EF80009F0D9F894F8D40009F0D5F894F8D50059
:104F080009F0D1F8073494F8CF0009F0CCF8AC4296
:104F1800E0D178E31B4B185D013409F0C4F8102C7C
:104F2800F8D170E3184D2878400000F0FE0009F031
:104F3800EDF800242B789C4280F06583134B33F8FE
:104F4800140009F0E6F80134F4E7062009F0DEF869
:104F5800002009F0E7F834E2042009F0D7F84FE31D
:104F68005C1E002034100020DF3C0108475C01086B
:104F7800535C01082B5C01084D100020080000203C
:104F8800761000208C1000203C2600209E1D00205A
:104F9800072009F0BBF8B94BB94C1888FF28A8BFFF
:104FA800FF20C0B209F07FF8B64B18684FF6FF75BE
:104FB800A842A8BF284620EAE07080B209F0A9F804
:104FC800B4F8760009F0A5F8AF4BA06F93F88331D9
:104FD8003BB10A235843A842A8BF284620EAE070FC
:104FE80001E000F30F0080B25AE2022009F08EF8C7
:104FF800A34BB3F87C0053E2A14C0B2009F086F8D0
:10500800D4F88030187809F04EF8D4F88030587801
:1050180009F049F800262546D5F88030984C3344E5
:105028000136187909F03FF8032EF5D1D4F880300D
:10503800D87909F038F8D4F88030987809F033F83E
:10504800D4F88030D87809F02EF8D4F88030588910
:1050580009F05FF8D4F88030187A10E2884C1E20E6
:1050680009F054F8636D1B78022B4FF000056BD1E3
:10507800636D03EB850393ED080AB2EE048A20EE14
:10508800080A0DF0B3FF80F30800C0B209F00BF86E
:10509800636DDFED7E7A03EB850393ED0B0A20EE5B
:1050A800270A0DF0A3FF80F30800C0B208F0FBFF49
:1050B800636DDFED777A03EB850393ED0E0A20EE3F
:1050C800270A0DF093FF80F30800C0B2013508F0FD
:1050D800EAFF032DCCD1072D636D23D193ED110A7F
:1050E80020EE080A0DF082FF80F30800C0B208F035
:1050F800DAFF636D93ED120A20EE080A0DF076FFD1
:1051080080F30800C0B208F0CEFF636D93F84C300E
:1051180000EE103AB8EE400A0DF068FF80F3080080
:10512800C0B20BE02B44587808F0BDFF636D2B44E8
:10513800D87A08F0B8FF636D2B44587D013508F024
:10514800B2FF0A2DC7D15EE2636D2B44587808F090
:10515800AAFF636D2B44D87A08F0A5FF636D2B4432
:105168000135587D08F09FFF0A2DEDD14BE2444DE3
:105178009FED478A6B6D03EB840393ED080A20EEDD
:10518800080A0DF033FF80B208F0C3FF6B6D03EB24
:10519800840393ED0B0A20EE080A0DF027FF80B276
:1051A80008F0B7FF6B6D03EB840393ED0E0A20EE56
:1051B800080A0DF01BFF013480B208F0AAFF032C87
:1051C800D5D1072C6B6D16D193ED110A20EE080A84
:1051D8000DF00CFF80B208F09CFF6B6D93ED120A86
:1051E80020EE080A0DF002FF80B208F092FF6B6D06
:1051F80093F84C000BE02344587808F08AFF6B6D55
:105208002344D87A08F085FF6B6D2344587D013418
:1052180008F07FFF0A2CD4D1F5E114F8010F00281B
:1052280000F0F18108F03FFFF7E7012008F06EFF7A
:10523800134B5B6D187822E1502008F067FF0025BA
:105248000F4B5C6D134B04EB85040C2194F88520FF
:1052580001FB0233013593F8380008F024FF94F875
:10526800860008F020FF94F8870008F01CFF94F8E7
:10527800880008F018FF142DE2D1C4E1D0130020F3
:1052880034100020281300205C1E00200000C842B3
:1052980000007A44E03C0108482008F037FF002568
:1052A800C54B5C6D062303FB0544013594F8DA0011
:1052B80008F0F9FE94F8D50008F0F5FE94F8D60049
:1052C80008F0F1FE94F8D70008F0EDFE94F8D80045
:1052D80008F0E9FE94F8D90008F0E5FE0C2DDFD1BE
:1052E80091E14FF0000801260027B34B1A7E974240
:1052F80027DA19330024FA5CB04D0C2305F130018C
:105308006343595C914207D12B44586B0EF002FB62
:1053180082462EB9B14605E001341D2CECD10EE0D1
:1053280080440CE0D1450ADA0C2303FB04535B6B81
:1053380013F8090008F0B7FE09F10109F2E701378F
:10534800D3E7002E00F05F815FFA88F008F0DEFEF8
:105358000026C9E7984D287E08F0D8FE00242B7E49
:105368009C4280F05081964BE65C002193480C22C9
:1053780000F1300702FB01F3DA5DB24205D10344C4
:1053880093F8380008F08FFE02E001311D29EDD1B5
:105398000134E4E7082008F0B9FE0124E0B2013442
:1053A80008F081FE092CF9D12DE1082008F0AEFEA5
:1053B800002008F0AEFE002008F0ABFE002008F048
:1053C800A8FE00206CE00C2008F0A0FE7D4B1868B9
:1053D80008F0A8FE7C4B186808F0A4FE7B4B186800
:1053E8000FE1042008F092FE794B986809E194F8DF
:1053F800780108F058FE94F87C0108F054FE94F8FF
:105408007B0108F050FE94F87D0138E0704C0720CD
:1054180008F07CFEB4F87E0108F07BFEB4F8800149
:1054280008F077FE94F8820108F03DFEB4F8840194
:1054380036E0012008F06AFE654B58791FE0654C9C
:10544800654D207800EB4000C0B208F05FFE0026F2
:1054580023789E4205F1020580F0D58015F8020CEC
:1054680008F021FE15F8010C00EB800000EB80002D
:1054780000F2EE2080B208F04CFE0136E8E708F0B2
:1054880012FEC0E0082008F041FE0024504B2344DF
:10549800013493F8860108F006FE082CF6D1B2E034
:1054A80008F037FEAFE0444B494C93F88400C0EB5A
:1054B800C000C0B208F02AFE04F1200594F8F001FB
:1054C8000023464AD25C904200F0A1800C33302B76
:1054D800F7D10834AC42F1D195E040203C4C08F0BB
:1054E80015FE04F14005B4F8A00208F012FE94F885
:1054F800A20208F0D8FD043494F89F0208F0D3FD06
:10550800AC42F0D17FE0E020314C08F0FFFD04F11F
:105518008005B4F8220200F03F0008F0FAFDB4F864
:105528002202C0F3861008F0F4FD94F82002000966
:1055380008F0B9FD94F8200200F00F0008F0B3FD60
:10554800043494F81D0208F0AEFDAC42E1D15AE0F3
:10555800234C0D2008F0DAFD04F062F808F0A3FDF2
:10556800A08808F0DFFD206908F0DCFD04F038F8B9
:1055780047E008F08FFD0546842008F0C7FD28465F
:1055880008F0D0FD164B1C6905F18003A3428CBFBF
:10559800641B802403F0C6FD28462246694604F0B1
:1055A80043F900240546AC422DDA1DF8040008F042
:1055B8007AFD0134F7E700BF34100020E03C010811
:1055C8004D100020ACF7FF1FB0F7FF1FB4F7FF1F07
:1055D8005C1E00203C260020FC1F00204C260020DA
:1055E80008000020132008F091FD0024164B185DD8
:1055F800013408F058FD0B2CF8D1002008F092FD7A
:10560800002008F08FFD012018E0002016E008F0C7
:105618004AFDB4F8F20108F07CFD94F8F40108F0B2
:1056280042FD94F8F50108F03EFD94F8F70108F002
:105638003AFD94F8F60108F036FD4AE721B0BDECD2
:10564800028BBDE8F08F00BF475C010810F80A3CE8
:105658000133DBB20A2B84BF10F8131C044A00F88C
:105668000A3C82BF002322F8113000F80A3C704738
:10567800242B0020334A136C90681944081A40F60A
:105688008C23984270B513469160D06051603BD925
:10569800127893F945108A4210460BD1111F082938
:1056A80008D893F84610182901D8013103E083F887
:1056B800442002E0002183F8461093F94440214930
:1056C800A24219D191F84740B4B10C310024944258
:1056D80006DA1D4D51F8046F25F814600134F6E719
:1056E8000C2805D01849002421F810400130F7E7AC
:1056F800164801780131017083F845200022012104
:105708001A7083F8471070BD92F84710C9B1A0F21B
:10571800EF2440F2DA518C4208D811780B2905D8C9
:105728000B1D0131117042F8230070BD002283F86F
:105738004720074B03F13002002143F8041F93422E
:10574800FAD170BDE8080020242B0020A501002014
:10575800F4080020024A136C01331944116470479D
:10576800E8080020024B53F820301B681960704786
:105778000C270020064B53F820301A681B89A1F526
:105788007A7159434FF47A7391FBF3F111607047C2
:105798000C270020F0B5046D8668236823F0010308
:1057A80023608379054613F0020F40790CBF4FF050
:1057B800000E4FF4005E13F0040F14BF4FF480671F
:1057C800002710F0010F14BF04210021830720686F
:1057D80020F001002060626822F440524EEA020282
:1057E8006260226822F4B05323F00C0348BF41F0F2
:1057F80008013B430B432360A36895B023F440732F
:10580800A360684601F0BAFE284B9C4201D10C9B6C
:105818000EE0274B9C4201D10D9B09E0254B9C4291
:1058280001D10E9B04E0244B9C420CBF0F9B109BA4
:105838002268A879170448BF5B00B3FBF6F206FBA1
:105848001233B3EB560F236828BF01321E0441BF41
:105858004FF6F073C2F34201134041EA03026B7939
:1058680092B213F0020FA28100F0010114BF4FF4AD
:1058780000320022DC0748BF42F480322B6D11B1A0
:1058880059680A4302E0596821EA02025A609A6894
:1058980001074CBF42F0080222F008029A601A6819
:1058A80042F001021A6015B0F0BD00BF0038014097
:1058B8000044004000480040004C00403D4B1B782D
:1058C800012B30B514BF00240324B1B9036A23F0B7
:1058D800010303628169036A21F0F30123F00A03DB
:1058E80041F0010142F001021A4341EA04118161C9
:1058F8000262836923F00C031BE004291DD1016AAD
:105908004FF6EF730B4003628169056A120121F4B7
:1059180073414FF65F7342F0100241F480712B40DF
:1059280092B2134341EA043181610362836923F42B
:10593800406383618369836130BD0829016A1AD194
:105948004FF6FF630B400362C169036A9BB289B2D9
:1059580023F4206343F4807321F0F30143EA022225
:1059680041F0010192B241EA0411C1610262C269C7
:105978004FF6F37319E04EF6FF730B400362C369E9
:10598800056A40F6FF41194045F6FF732B4043F482
:10599800805343EA023241F4807192B241EA043101
:1059A800C1610262C2694FF2FF331340C361C36928
:1059B800C36130BDE408002038B510F80E2C50F84B
:1059C800043C044652B9012200F80E2C20F80C1CA5
:1059D800997A18680222BDE838406FE730F80C2C35
:1059E80020F80A1C891A89B220F8081C074A10F8FE
:1059F8000F0C002522F8101004F80E5C1868997A2C
:105A08002A46FFF75BFF04F8065C38BD242B00200C
:105A1800044B53F820301BB107289CBF1B68196042
:105A2800704700BF100A0020084A13689B050BD571
:105A3800074B00211970074908684FF6FE730340A9
:105A48000B604FF400735360704700BF00000240C2
:105A5800E62B0020300002402DE9F047664D2B6808
:105A680066490A78581C02F0FF068E460AB10346BA
:105A7800F6E72B6095F80880687AAA7AEB683746CB
:105A880039B2202900F09B80DFF880C10CEB81033C
:105A98003CF82110DC789B78C3F1FF039BB2002B04
:105AA80065D0C3F1FF0363434FF03C0C1B12B1FBFD
:105AB800FCF9B9F1050F5DD8DFE809F0030B1A29E5
:105AC8003A4AE01ADAB24143B1FBFCF01044C0B2E2
