:020000040800F2
:1000000000A000204914010873CA0008FDFD000883
:1000100071CA00086FCA00086DCA0008000000001D
:100020000000000000000000000000006BCA000893
:1000300069CA00080000000067CA0008136B0008C6
:10004000B1140108B1140108B1140108B114010878
:10005000B1140108B1140108B1140108B114010868
:10006000B1140108B1140108B1140108B114010858
:10007000B114010839500008EBBD0008B1140108A3
:10008000B1140108B1140108B1140108B114010838
:1000900019CB0008B1140108B1140108B11401080A
:1000A00001DF00082DDF0008F1DE00083DDF000859
:1000B00021DF000811DF0008B1140108B1140108A4
:1000C000B1140108B1140108B1140108B1140108F8
:1000D000B1140108F9E00008EDE00008E1E00008D3
:1000E000216B0008B114010849FA0008B114010895
:1000F000B1140108B1140108B1140108B1140108C8
:10010000000000000000000000000000B114010821
:10011000B1140108B1140108B1140108B1140108A7
:10012000B1140108B1140108B1140108B114010897
:10013000B1140108B1140108000000000000000023
:10014000B1140108B1140108B11401080000000045
:10015000000000000000000000000000000000009F
:100160000000000000000000B1140108B1140108F3
:10017000B1140108000000000000000000000000B1
:0801800000000000B1140108A9
:100188002DE9F04F9D4C2378092B9CBF9C4A3421C4
:100198002DED0E8B98BF01FB032395B094BF9D6A8C
:1001A8000025984E984FF3680DA898479DF834306D
:1001B80023B12378092B0CD900230FE006F074FC37
:1001C800924B1B68EB1A18443B6864339842E8D397
:1001D800EFE78B4A342101FB03239B6A8C4CD7ED54
:1001E800007AD4ED016A8B4A9FED8B9A8B48884D33
:1001F800F5EE406A9BB2F1EE10FA1380B8EE677A1A
:1002080007EE903A04BF864B636027EE097A94EDB7
:10021800016A844AD4ED006A82ED007A37EE066AF4
:10022800F8EE677A87EE067A77EEE67AE7EE276ADF
:10023800FCEEE67AC4ED006A17EE903AA381736883
:10024800764E984740B9784D784F2B6813F0020FD7
:1002580040F0F48000F008BC30463146AA7B07F035
:10026800F9FC95F80F80B8F1000F2CD02B7C93B9CE
:100278003A6842B36B616569654F022D08DC4046F8
:1002880005F039FA07EB8503013598617D61F2E7DE
:1002980001233B7417E000236B6165695C4F022DF5
:1002A80011DC36F9153000EE103A07EB8503B8EE8D
:1002B800C00A986905F0F6F913F01EFB26F8150038
:1002C80001357D61E9E75A4FDFF86C913B88002BD7
:1002D8006CD0636A1B7808EE103AA9F14808A9F1B6
:1002E8003C054FF0000A3988B1F57A7F02BF002338
:1002F800C8F800302B61D8F8002036F91A301A44B3
:1003080007EE903A2B69C8F800200133012B4FEA19
:100318004A0BF8EEE77A2B6106D10023C5ED017A86
:10032800C5ED007AAB601BE0D5ED006A07EE103A28
:1003380037EEE66AB8EEC77A86EE077A36EE877A3F
:10034800D5ED026A85ED017A77EEC77A85ED007AF8
:10035800E6EE276AF0EE667AC5ED036AC5ED026A35
:100368000023012926F80B3029F80B302AD12B69F4
:10037800012BC3BF03F1FF3300EE103AD5ED037A2A
:100388009FED2C0AC4BFB8EEC00A87EE800A13F0AE
:100398009BFB18EE103A5BB1F8EEC87AB4EEE70AA8
:1003A800F1EE10FA04DD4FF47A733B8000231AE073
:1003B800D8F800304FF47A7203F5FA7393FBF2F32E
:1003C80029F80B300AF1010ABAF1030F08F1040801
:1003D80005F1140587D13888012801D106F0C6FB3C
:1003E8003B88013BE1E736F8132039F81310521A1D
:1003F80026F813200133032BF5D124E7140300203A
:100408008000002090130020AC2D0020100F002049
:100418008808002040110020BD3786357C11002057
:1004280083F9223EA41300204C110020EC2D00205B
:100438003C2E002000000000F8080020D04B1B785C
:10044800002B00F0118306F02FFBA36FD4F87CB0CB
:10045800CC4A9BF80010A067C31A0AEE103A002392
:100468004FEA430CDFF844A399B337F91300D2EDF0
:10047800017A06EE900AB8EE4A7AF5EE407AF1EE85
:1004880010FAF8EEE66A27EE097A0DD107EE901A0F
:100498009FEDBD6AF8EEE77A27EE866AF7EE007AF6
:1004A800C7EE867AC2ED017A92ED016AD2ED007A42
:1004B80037EE066A76EEE76A87EE067AE7EE267A80
:1004C800C2ED007AFDEEE77A17EE900A2AF80C00E2
:1004D80003E037F813002AF813000133032B02F165
:1004E8000C02BDD1BAF80210BAF80080BAF804209C
:1004F800A64B2F68049311FB01F918FB089912FB0E
:100508000299642000FB09F0B3F8009017F008077F
:1005180009FB09F990FBF9F9A9F152090DD09C489A
:10052800B0F900703FB1B0F9027027B1B0F90470AA
:10053800003718BF012707F00107B6F90030D4EDDE
:10054800295A93480B910AEE903AB6F90230B0F85E
:1005580000C00A920BEE903AF8EEEBBAB6F9043006
:1005680046888088CDF824C06BEEA5BAF8EEEAAAD2
:100578000BEE103A6AEEA5AA2BEEAB0AB8EECBBA90
:10058800AAEEAA0A0690834DDFED838A2BEE25BAE0
:10059800F8EE4A7AABEE0B0A27EE899A13F094FA32
:1005A800F7EE009AB0EE40CA0698DDF824C00A9A21
:1005B8000B99002F5BD00FFA8CFC07EE90CA33B270
:1005C800B8EEE7DA08EE103A2DEE0D0AB8EEC88A52
:1005D80000B207EE900AA8EE080AF8EEE7CADFEDC7
:1005E8006F7AACEEAC0AB4EEE70AF1EE10FA3EDD33
:1005F8000991069213F068FA89EE800AD5ED017A1E
:1006080095ED007A28EE008A2DEE00DA68EE277A5A
:100618006CEE80CAE7EE0D7A95ED040A95ED027A44
:1006280028EE008AE7EE2C7A95ED037AA7EE0D8A7C
:1006380095ED057AA7EE2C8AB0EE68DA28EE080A5E
:10064800F0EE68CAA7EEA70A13F03EFAD5ED067ACF
:10065800069A099920EE480AA7EE80DAD5ED077ABE
:10066800E7EE80CAD5ED087AE7EE808A03E0F0EE7F
:1006780068CAB0EE68DAB9F1260F3ED80FFA88F8E2
:1006880007EE908A0BB2B8EEE78A07EE903A28EEAA
:10069800080AF8EEE7DA12B207EE902AADEEAD0AD4
:1006A800B8EEE7EADFED3D7AAEEE0E0AB4EEE70A01
:1006B800F1EE10FA21DD13F007FA89EE800AD5ED84
:1006C800076A95ED087A2EEE00EA6DEE80DA66EE9E
:1006D800CE7A28EE008AEDEE877A27EE487A3DEE4C
:1006E80027DAD5ED067AAEEE277A67EEED7A7CEE5C
:1006F80087CAE8EE267A78EEA78ADBED017AF5EE6E
:10070800C07AF1EE10FA4FF000031FDD9FED247A56
:10071800B4EEC7CAF1EE10FA1ED567EE8D6A94EDF5
:100728002A7AA6EE897A67EEAC6A84ED2A7A94ED85
:100738002B7AA6EE897A67EEA87A84ED2B7A94ED67
:100748002C7AA7EE897A84ED2C7A05E0C4F8A830D3
:10075800C4F8AC30C4F8B030124EDBED027A33780E
:10076800590725D4104B1A6844F61F639A42F7EECE
:10077800005AB2EE047A98BFF0EE475A1AE000BF6A
:100788001C2E002008090020DB0FC94008000020AB
:10079800CA11002064150020000000000AD7233C7D
:1007A800C2B8B23E3F2E0020BC2D0020761100209A
:1007B800F7EE005A67EEA55AD4ED2C6A94ED2A7A22
:1007C800D4ED2B7ADFF83C83C34B98ED004ADFF871
:1007D8003893D3ED003AC14F0693E5EEA86AA5EE2B
:1007E8008D7AE5EEAC7A3BEE26BAF6EE006A69EE53
:1007F800266A7BEEA77A3AEE877A27EEA66A27EE74
:10080800267A6BEE266A26EE445A24EE260AD9ED9D
:10081800007AD7ED004A9FEDB28AA7EEC75AA3EE39
:10082800870AF1EE645AA5EEA65AA5EE860A66EE88
:10083800E75A37EE800AE3EE865A67EE867A33EE99
:10084800855AE4EE875AE3EEA67A89ED000A20EE8F
:10085800000A74EE255AA5EE050AE4EE477AA5EEDD
:10086800A50A74EEA77A83ED005AA7EEA70AC8ED89
:10087800005AC7ED007A13F027F989EE800A069B23
:10088800D3ED007AD7ED009A67EE807AC3ED007A4F
:10089800D9ED007A67EE807AC9ED007AD8ED007A52
:1008A80067EE807A29EE800AC8ED007A87ED000AA3
:1008B80006F0F2FBD5ED080A95ED070A894F13F00B
:1008C80001F920EE080A13F017F895ED060A3880AA
:1008D800B1EE400A13F098F8DFED837A37EEC00ADC
:1008E80020EE080A13F008F8D5ED000A95ED030A82
:1008F800788013F0E7F8D4ED2D7AE0EE487AB0EE80
:10090800670A12F0F9FF83B21A0458BFBB80D5ED0D
:10091800085A764BD4ED2E7A1A7895ED010A95EDA2
:10092800065AF4EEE75A44BF00F56160B880F1EE6C
:1009380010FACCBF42F0080222F008021A70BAF985
:100948000030D5ED007A06EE103ABAF9023007EE1B
:10095800103AB8EEC77AB8EEC66ABAF9043027EE8C
:10096800000A06EE903AA7EE860A9BF80130F8EEE8
:10097800E66AD5ED027AA7EEA60A012BD5ED077A2D
:1009880067EE277AE5EE067AE5EEA67AD5ED045A03
:1009980027EE257AD5ED035AA5EE867A95ED056AF8
:1009A800A6EE267AB1EE478A18D1337859070FD4C4
:1009B800D4F8BC30402293FBF2F29B1A07EE103AAF
:1009C800B8EEC77A37EE277ABDEEC77A84ED2F7A6C
:1009D800D4F8BC30402293FBF2F301E0049B1B885F
:1009E800D4ED308A07EE103AB8EEC77A77EEC77AB8
:1009F80094ED317A39EE077A77EEE87A89EE079A3C
:100A0800E9EE278AC4ED308A12F076FFD4F8C85090
:100A1800297805F001F9D4F8CC30B0EE480A18442A
:100A2800C4F8CC0012F068FF297805F0F5F8D4F87E
:100A3800D030B0EE680A1844C4F8D00012F05CFF59
:100A4800697805F0E9F8D4F8D430294A18441AEE40
:100A5800101A1368C4F8D4001944D4F8D8301160B7
:100A68000133C4F8D83003E000233B807B80BB808F
:100A7800204BB3F90620204B1B6859898A420EDBAC
:100A8800B2F5FA6FD879BDBF531A4343A1F5FA609E
:100A9800C0F16400BCBF93FBF0F0643000E0642058
:100AA800164B1749B3F894E193F95E31096806913A
:100AB8009BB2099300210F4B33F91180CEEB080349
:100AC80003F2F31640F2E635AE424FEA410C1DD868
:100AD800002BB8BF5B421BE02000002060150020FF
:100AE8004C3D0F44B0110020DB0FC93F101000200F
:100AF800242E0020BE210020BC1100207C220020D2
:100B0800941100205C150020581500204FF4FA734A
:100B1800022904934FF06406069BC84D26D093F82B
:100B28001D712FB1049BBB42CCBFDB1B0023049378
:100B3800049BDFF840B393FBF6F76FF0630A3BF8CA
:100B480017900AFB073301370FFA89FA3BF9177038
:100B5800CAEB070A0AFB03F393FBF6F6B84B4E44BD
:100B6800F04525F80C6058542ADB2FE093F81E71E5
:100B78002FB1049BBB42CCBFDB1B00230493B14FB6
:100B8800049B93FBF6F907EB490A07EB4907BAF907
:100B9800DCA0B7F9DE706FF0630B0BFB0933CAEB0F
:100BA80007077B4393FBFBFBBDF82430CAEB0B0A1A
:100BB8001AFB03FAA24BA5F804A0F0459E7009DAC7
:100BC8009E4E3CF806305B422CF806300131032972
:100BD8007FF471AF9C4EB6F896118A4205DBB2F5E8
:100BE800FA6FA8BF4FF4FA6200E00A46DFF888C23D
:100BF800924F521A4FF47A736FF063005A43C1F55B
:100C0800FA616423B2FBF1F292FBF3F13CF811E0D4
:100C180000FB012201310FFA8EF03CF91110091A7C
:100C28004A4392FBF3F37344EB80884B1B885A06C4
:100C38003BD5874BDFED877AB3F904309FED860A01
:100C48000A2293FBF2F3B4F8EA209B1A1BB208EECF
:100C5800103AB8EEC88A28EE278A38EE000A04F05F
:100C6800EAFFF0EE408AB0EE480A04F0E4FFB7F974
:100C7800023006EE903AB7F90030F8EEE66A07EE71
:100C8800903A20EE667AF8EEE77AA7EEA87A67EE51
:100C9800807ABDEEC77AE6EEA87A17EE103AFDEE36
:100CA800E77A3B8017EE903A7B8096F89A31002BD2
:100CB80052D0644B9A89B3F8EC00B0FBF2F0674A63
:100CC800441C1278A4B2A3F8EE4012B3B3F8F09023
:100CD80000215C4F35F811C007F1FA0E07F1F20850
:100CE8003EF8113038F811202EF811C0C3EB0C0A69
:100CF80012FB09F223B292FBF3F3534428F81130A4
:100D080001310429E5D1554BA7F8F00000221A70EB
:100D180004E0B3F8F020013AA3F8F020494AB2F809
:100D2800F00003B2002B4FF0000313DDB2F9EE40E0
:100D38004B4931F81320083112FB00F231F8131037
:100D480092FBF4F28A1A3D4921F813200133042B4F
:100D5800EED101E0A2F8F03096F89B01002861D0AE
:100D68003A4B1B885B065DD40FF0B8FC41EC100BC6
:100D780041EC180B314C3B4D12F0D6FCB4F9000095
:100D88005BEC10AB0FF0BAFCB0EE480AF0EE680A64
:100D980006460F4612F01CFDB4F904008DED040B55
:100DA8000FF0ACFC3246804689463B4650465946D1
:100DB8000FF00AFD42464B46CDE90601DDE9040184
:100DC8000FF002FD02460B46DDE906010FF04AFB73
:100DD8000FF094FFB0F5FA7FA8BF4FF4FA70A8425D
:100DE800B8BF284642464B462080594650460FF029
:100DF800EBFC3246804689463B46DDE904010FF0AC
:100E0800E3FC02460B46404649460FF02BFB0FF029
:100E180075FFB0F5FA7FA8BF4FF4FA70A842B8BFC3
:100E28002846A080104A114D137813F0040F9346FA
:100E380024D00F4B20221A8558E000BF2813002029
:100E480030130020880800207C2200205011002048
:100E5800B011002035FA8E3CDB0FC93F701000201E
:100E68007A0900200CFEFFFF3F2E002054110020BD
:100E78000004004812180020FA1700202A68D70733
:100E88005CBF43F001038BF80030974B1B781E07BB
:100E98005EBF9BF8003023F001038BF80030934BC2
:100EA8001A88934B1AB1934A1268940706D4924A47
:100EB80012881AB991490988642908D902221A7036
:100EC8009BF8003023F001038BF8003005E09BF815
:100ED8000010C80758BF02221A7005F0E5FD884BBC
:100EE8001B68C01A002801DB0FF0E2F8854B9B68ED
:100EF8000BB1854898472B68844C854F854E13F471
:100F0800801F00F09580B6F8008008F400681FFA8A
:100F180088F8B8F1000F78D19BF80030590774D5DC
:100F28004FF4006004F0F8FE3B68C4F804311A7806
:100F3800D4F80411022A04BF012284F80821B3F866
:100F48005A2018BF84F808814FF47A735343724AC1
:100F580094F80891128893FBF2F35B429AB26F4BB4
:100F6800A4F80A2193F8008001F1200E002091F8DE
:100F780055C091F85230BCF1000F01D0634504D838
:100F8800B8F1030F05D8022803D14FF0000C81F8FF
:100F980055C0DFF8A4C1B9F1000F19D007EE903A97
:100FA8009EED007AF2EE046AF8EEE77A27EE267AEA
:100FB800B4EEE77AF1EE10FA44BFC7EEA67ACEEDAA
:100FC800007ADEED007AFDEEE77A17EE903A05E05A
:100FD80091F801A09A4538BF4B704B789B012CF8CB
:100FE80010304A4B03F5897C4FF0000A2CF810A00A
:100FF80003F58C7C01312CF81020013003280EF108
:10100800040EB4D1012283F81E2133881A051AD49C
:101018009BF8003003F0040303F0FF089BB994F831
:101028001E3183B105F02CF9384B83F81E810AE094
:1010380033881B0507D59BF80030580703D54FF4B4
:10104800006004F059FE364BDFF8F0901B78B3B11E
:10105800344BB3F90620B9F896319A420FDC99F867
:101068000530012B01D0192B02D199F8E62132B9AC
:101078000E2B04D0082B1EBF2B4B00229A803B68F6
:1010880093F82481B8F1000F5FD0338899075CD0BA
:10109800264BDFED277A93ED080AB4EEE70AF1EE66
:1010A80010FA4DD912F0B0FCD4ED487A20EE270A98
:1010B80012F022FCB0F5617FA8BF4FF4617007EE13
:1010C800900AB8EEE70ADFED1B7A80EE270A04F0F3
:1010D800B2FD07EE908AF8EEE77A27EE800A12F062
:1010E8000BFC80B22DE000BF101000202010002063
:1010F800E42D00204C1100203C2E00205C21002013
:10110800E82D0020901300200A1F002088080020E6
:101118009411002050110020401100200C140020D0
:1011280002000020BE2100202813002064150020A2
:101138008FC2753CEFB6B044940900207C22002091
:101148000020B94AD3881844D080B84B1B784BB1DB
:10115800B74B00221A605A609A60B64B00221A6098
:101168005A609A60B44B3868B9F86A210093B34B57
:101178001E68B34B196800F16403B047B14B187887
:10118800B14B032819D9D4F824215788B7F5FA7F29
:1011980013D2A54AB3F904E0B2F9046086EAE67C02
:1011A800ACEBE67C7942CCEB0102964504DB07EB1D
:1011B8000C027245A8BF72469A802A6812010DD5A2
:1011C800D4F8242104920021B3F802C0B3F80080B7
:1011D800B3F904A09D4E0A460F467FE09C4A126868
:1011E80012F48052ECD19B495F880A708E49B3F89B
:1011F80000E0CE88D4F824C1B3F90480964982422D
:1012080001F1100180F0DC809CF9003051ED045AA6
:10121800DFF850925B4208FB03F307EE903A0FFAAF
:101228008EF306EE903A33B206EE103A3BB2B8EEC1
:10123800E77A07EE903AF8EEE77AB8EEC66A67EE14
:10124800A57A51ED065AE6EE257AF8EEE66A11ED32
:10125800056AE6EE867A51ED036AE7EE267AFDEE38
:10126800E77A17EE903A29F812300132C7E7049B63
:1012780096ED016A93F900305B420AFB03F307EE2F
:10128800903A0FFA8CF306EE903A0FFA88F3B8EE1C
:10129800E77A07EE903AF8EEE77AF8EEE66A67EE54
:1012A800867A96ED026AE6EE867A0DF1340E0FFA2A
:1012B80082F9D6ED036AE7EE267AFDEEE77ACDED00
:1012C800067ABDF818302EF817300FFA83FECE458F
:1012D80007DD1A460B460137103619468742C6D332
:1012E80005E00FFA81F9CE45F5DB1346F1E75B4BD4
:1012F800584E1B685F88B3F800E0521ACEEB07011E
:1013080089B20BB212B29A424FF0000315DD4FF0CA
:10131800010C86F800C083420BD20DF1340C3CF866
:10132800136016FB01F696FBF2F62CF813600133F6
:10133800F1E71FFA8EF6BAB208E03370022192FB89
:10134800F1F20EEB0203BA1A9EB292B2364BDF8864
:101358000021814234D20DAB33F9113007EE903AB7
:101368003BB206EE903A394B03EB0113B8EEE77A3D
:10137800F8EEE66AD3ED007A33B266EEA76A07EEB6
:10138800903AF8EEE77AF4EEE76AF1EE10FA0BD449
:1013980013B207EE903AF8EEE77AF4EEE76AF1EE68
:1013A80010FAD8BFF0EE667A77EE277ADFF8B4E065
:1013B800FDEEE77A17EE903A2EF811300131C8E7C2
:1013C8009BF80020DFF87CE002F0040202F0FF0343
:1013D80012B99EF80020A0E0214B2868DB7806931C
:1013E80010F0006304931A493ED10B68DF0418D447
:1013F8001C4A9EF8007013880126BE420FFA83FC2F
:1014080007D232F916306345B8BF63469BB201363E
:10141800F3E7124A12685288944525DD9A1A92B267
:1014280023E0049A21E000BF2813002004000020D4
:101438003413002084130020022400201803002005
:10144800BC1100200C14002058130020B009002003
:101458009C2A0020402E0020B8090020DC1400201F
:10146800C02D00209811002000220B68AE499EF87C
:1014780000E0B1F90660AD49D1F8E8C1AC4903F420
:10148800805903F010030F680993AA49AA4B096809
:1014980003EB4E000A900A98834235D0049850B95D
:1014A800B9F1000F40F03684B3F800E0C2EB0E0E3D
:1014B800A3F800E003E0B9F1000F40F03684069885
:1014C800B1F80280B3F900A040B1B1F804E0F245E8
:1014D80016DBC245D646A8BFC64611E0B1F800E003
:1014E800F24503DBC245D646A8BFC646A3F800E0CE
:1014F800BCF810E0764505DA099818B1B1F804E0AF
:10150800A3F800E00233C6E7884890F8EC31013BC5
:10151800DBB2182B00F2438109E09342F4D28749E9
:1015280031F81300844921F813000133F5E701224B
:101538009A40834B1340002B00F03181814B7A494C
:101548001B8813F4807F08D07F4B1A88ADF83420AD
:101558005A88ADF836209B8815E07C4B1A88ADF880
:1015680034205A88ADF83620794A9B881268ADF83D
:101578003830D60409D5D0F8E821B1F90660D28907
:10158800964202DA5B42ADF83830724EB6F9023054
:101598004FF47A7203F5E16353434FF4616093FBB0
:1015A800F0F3A3F5FA73ADF84C30B6F9003003F553
:1015B800E1635A43604B92FBF0F21B88A3F2DC53C1
:1015C800A2F5FA72ADF83A30D4F8E831ADF84E2009
:1015D800DB890A88D21AADF83C204A88D21AADF8BD
:1015E8003E208A88D21AADF84020CA88D21AADF8AF
:1015F80042200A89D21AADF844204A89D21AADF895
:1016080046208A89D21AADF84820CA89D31AADF87B
:101618004A300023504A002122F813100133082BC6
:10162800F8D12A684D4B04924D4A1B7812684D49EF
:1016380006924D4D072202FB031A514500F0968091
:101648000B7833B103F1150201239340049A134038
:1016580065D011F806EC069B11F8059C11F8034CAF
:1016680011F801CCCEEBCE0703EB47076420B7F99E
:101678000020B7F902309B1A9BB211F9022C4FEAED
:1016880053085A434FEA490692FBF0F214A8C8EBF4
:10169800020292B2064414B936F81C0C0CE0B5F9F3
:1016A800000036F91C6CB04208DA0444844203DBBB
:1016B800A6423046A8BF2046288008E007DD041B64
:1016C800B44203DB8442A8BF044626462E80D7F8DE
:1016D8000A4011F9046C012000FA09F02042288818
:1016E80012B216FB00F014BF4FF0FF340124642639
:1016F80090FBF6F090420ADB4FFA8CF25A4392FBC9
:10170800F6F2C8EB020212B28242A8BF0246124B9E
:1017180033F81E8002FB048423F81E4000E02B806F
:101728000235073189E700BFBE2100208808002064
:10173800D8140020DC140020981100203621002045
:1017480099209801501100202813002058130020D8
:101758009C2A0020B011002082110020E0140020F3
:10176800A4170020E7140020760A0020A04BA14E01
:101778001F6800250E2202FB057236F8023F92F917
:101788000640E8B214FB03F3642493FBF4F43480BA
:1017980005F068FC01352044082D3080EAD1964FC9
:1017A800964D3B68924E13F0200F32D0002005F082
:1017B80059FC28800446012005F054FC904B6880B1
:1017C8001B68190625D58F4B8F4AD3F810321B7822
:1017D800012B22D13168138891F914E0B2F9022063
:1017E8001EFB03F34FF0320C93FBFCF31FFA83FE4E
:1017F80091F906305B4253436FF0310193FBF1F1ED
:101808000EEB0102A11893FBFCF3734429801844E2
:101818006880D6F800E0002318E0D6F800E0538886
:101828009EF9061011FB03F1322391FBF3F12144D9
:10183800298011889EF9142012FB01F292FBF3F221
:101848001044E5E70133082B2A5311D00E2101FB80
:1018580003E135F91300B1F90020B1F90210904203
:101868004FEA4304EEDB0AB28242A8BF0246E9E728
:10187800644CD4F8249199F90830A3B994F8EC8110
:1018880008F1FF33182B72D8DFE803F03571714F78
:101898007171714871717171715971717171714F93
:1018A800657171593500DFF84CA14FF00008574BAE
:1018B8003AF9021FB9F90620882000FB083005F024
:1018C800FBF932680E2380B203FB0822AAF8000055
:1018D800B2F90030B2F9022000B2984203DB13B229
:1018E8008342A8BF034608F10108B8F1080FAAF817
:1018F8000030DCD1C2E799F8043013B100206989BF
:1019080008E09BF8003003F0040303F0FF00002B0D
:10191800F4D1014603F080FB012629E00020E98884
:1019280003F07AFB0120298905E00020298903F0CA
:1019380073FB6989012003F06FFB022618E0022679
:10194800B01E35F81610C0B2013603F065FB082E3C
:10195800F6D106260CE00326F01E35F81610C0B2A4
:10196800013603F059FB072EF6D1042600E00026C5
:101978003B689A0602D4B8F1050F0AD13046298887
:1019880003F04AFB701CC0B2698803F045FB0236BD
:10199800F6B23B68DB0205D494F858367BB105F003
:1019A800A7FA0CE0DFF8708000257019C0B238F88B
:1019B800021F03F031FB0D2DEED00135F5E7144B76
:1019C8001878002840F0D0813B681D0340F1CC8195
:1019D80094F85936023B052B36D80E4B93F8D0377E
:1019E800E3B1012B20D109F027FAC0F17F001BE0F9
:1019F800A4170020801100209C2A002082110020BA
:101A08005411002088080020B0110020A00A0020EE
:101A1800422E00207C220020C4210020A34BD3F8B2
:101A28005C0603689B689847D4F8603694F8642687
:101A38001344B3F5807FA8BF4FF480738342D4BFAB
:101A4800C4F86036C4F8600694F85936023B082B8F
:101A580000F21A81DFE813F009003F0018011801AD
:101A680058006A00DC00FA000701914B1A68D4F8A4
:101A78006C3664339A4240F2078140200BF0C8FE6E
:101A8800002840F0018140278A4BD4F86826874E09
:101A9800985C1D4670B109F07BFCD6F86036013BB6
:101AA800C6F86036D6F86836013F03F10103C6F878
:101AB8006836E9D1D4F868267C4BAA5C002A40F045
:101AC800E380C3F868264FF0FF32C3F86C26032280
:101AD80083F85926D8E025230093774B019303F127
:101AE8000C0202924920A3F10A025021023309F0A4
:101AF80073FF002840F0C8804FF0FF33C4F86C36FD
:101B0800C4F868060623B8E06C4A05230021009350
:101B180001910291532002F1080309F05DFF0028AA
:101B280040F0B280C4F868060723A6E040200BF016
:101B38006FFE002840F0A880D4F868360C2B00F21D
:101B4800AB80DFE803F0070B0E1219252A2F333775
:101B5800455054005A480BF0E9FF53E059485A4998
:101B680013E05A485A495B4A4AE05B4B5B4893F892
:101B7800CE1793F8CF2743E0574B594893F8A82737
:101B88000C2101FB023393F8AA170BF0CFFF39E0C1
:101B9800514B5448B3F84011F7E74F4B5248B3F84C
:101BA8004211F2E7514B52481969EEE7514B52483E
:101BB8001988EAE7D4F87036D80404D5464B4F485C
:101BC80093F87811E1E7394B0B22C3F8682619E03E
:101BD800414B4B4893F87C1193F87D2193F87B3166
:101BE8000BF0A4FF0EE04748B4F87416CDE73B6845
:101BF800190507D5384B4448B3F88011B3F97E214D
:101C08000BF094FFD4F868360133C4F868363BE02B
:101C18003E4B1B689A0116D5B4F87836234D93B914
:101C2800D5F87C360D933A4B0E201B680E930DA900
:101C380009F052FC4FF48053A5F87636092385F84D
:101C4800593609F0A1FC09F029FC1DE094F880360A
:101C5800002BF6D02D4B1B689B01F2D4134B0822A6
:101C680083F85926EFE7124B1A68D4F86C36C83354
:101C78009A4205D90BF012FE012384F8593603E085
:101C88000BF026FE0028F5D10BF0F2FD00286BD0F2
:101C9800012384F8593667E00BF01AFE0028F3D0C8
:101CA8004FF48053A4F876360923E6E78808002025
:101CB800BC2D0020C06101082A620108DC6301080C
:101CC800708401088A8401089F840108A784010898
:101CD800BB840108C78401087C220020D084010845
:101CE800E1840108EB840108FA84010890130020BC
:101CF80009850108080000201985010823850108C5
:101D080030850108498501085485010854110020CF
:101D1800100F0020BCF80E80B7F806E0CEEB080ADA
:101D2800564502DDC644764516DBBCF80EE0B3F92D
:101D380000807645CBBFB7F802E0B1F804E0B1F80F
:101D480002A0B7F800A0F045FFF6DAABD045C646CA
:101D5800A8BFD646FFF7D4BB4645CCBFB7F802E0CC
:101D6800B7F800E0FFF7CCBB15B0BDEC0E8BBDE8B3
:101D7800F08F00BF2DE9F04F9F4C226802F59C437D
:101D88002DED028B203363609C4B1E7887B0C6B163
:101D98009B4909688A4240F20181013E1E70FDE0BC
:101DA800984F99483B68072D98BF595D974B88BF56
:101DB80029461B689847032D09D904EB45050136C8
:101DC80028810EF009F9F5B28542E9D31FE03A6897
:101DD80005F10E0302EB8303D9881A890028ECD099
:101DE8004FF47A73401A5843531A90FBF3F040F6B5
:101DF800C90300F57A70984205DC40F2EE23984258
:101E0800B8BF184601E040F6CA0080B2D5E7804B5B
:101E1800804F1B68D7F8008042F2010903EA0909DC
:101E2800B9FA89F94FEA59197B4BB9F1000F05D175
:101E380094F82C201A70794A517811701E781EB1C6
:101E4800764B1E7886F001060F23DFF8ECA184F8A4
:101E58002D3000250EF0C0F8854264DA4FEA450BB4
:101E68001EB16F4B33F8150000E03046654BDFF8C4
:101E7800CCE11968CB8A83424FEA8502694B02D8C4
:101E8800098B814219D25EF802205B49904502D243
:101E980033F80B0015E0E8B28DE80A000EF0B4F84C
:101EA800032D019B0DDC0099012291F82DE0AA4039
:101EB8002EEA020281F82D2003E008F596714EF80B
:101EC8000210B9F1000F28D194F8C0100322B1FB19
:101ED800F2F202EB42028A1A0BEB050E5EFA82F26C
:101EE80004EB4202D08594F8C1202AB9022914D9FA
:101EF800414A012182F8C110BAF800203AF8020CD0
:101F08001044BAF802201044474A80B222F80B0065
:101F180000B2032290FBF2F080B223F80B000135E7
:101F28000AF1060A96E794F82D20404BA2F10F0E0D
:101F3800DEF1000242EB0E0284F8DA206AB13C4A74
:101F48001268560109D43A68D9689A60521AC82AA0
:101F58001FD9012283F821201BE0304A012151704A
:101F680011703A689968DA605B68521A9A4282BFBF
:101F78002E4B002283F8212000250EF02DF88542F3
:101F880007DAE8B20EF040F8264B23F815000135C1
:101F9800F3E794F8C030013384F8C0301C4B1A685A
:101FA80012F4805F984605D0214B1B68DD0701D4E9
:101FB8000DF0EAFE134B104E1F682168BB7A002B08
:101FC8003ED0013B17483A7B30F813301AB1C3F5BD
:101FD8003B6308339BB21BB2A3F57A73B3F57A7FE0
:101FE800A8BF4FF47A7323EAE37307EE903A9FEDA4
:101FF800117AF8EEE77A5BE0100F0020B82D002088
:10200800B42D0020B02D00205C2A0020940200206E
:102018009C2A0020BC2D0020E4180020000000208D
:10202800180F0020BE210020D20F0020C02D002054
:102038005411002000007A44400F0020880F00202F
:10204800D8F8002010043FD5D6F8DC208A1A002AD8
:102058003ADB01F59C422032C6F8DC20AC4A5079C4
:10206800AC4A32F81050A8B2FD7A90FBF5F596F814
:10207800E000013000F00F0286F8E020324482F8D8
:10208800E1501A46A448185C01330244102B92B25E
:10209800F8D112B292FBF3F31BB2642BA8BF6423EE
:1020A80023EAE37307EE903A9FED9C7AF8EEE77A1D
:1020B800C7EE877A9A4A9FED9B7A67EE877AFCEE9D
:1020C800E77A17EE903A1380D8F80030964D13F45B
:1020D800807F00F0EA80954BDFF85492994205D949
:1020E80099F8022012B9012289F8022099F80220F1
:1020F800002A00F0DA808E4A2F7892F82160721E4A
:10210800564256418B4A1168002EC1F38063C7F3CB
:1021180080070093924614BF4FF0000B4FF0030B5B
:1021280099F82020052A00F2BA80DFE802F0034D72
:10213800527584A1002F3AD0D4F8F400B4F8F810FE
:1021480004F06EFC012809D17B497C4A09681268B1
:10215800C988642000FB0122C9F81020009B6BB1DC
:10216800754A126812794AB10EF04AF9032289F8C1
:1021780020204FF47A72C9F81C20D1E7002E40F0D5
:102188008E806E4AD9F810101068694A88420AD9B8
:1021980001920EF035F9019A032182F8201040F6D9
:1021A800B831D161BCE7012182F82010B8E7009B63
:1021B8004FF4806013B103F0AFFD01E003F09CFD24
:1021C8000022C9F810206AE0002E46D10EF018F956
:1021D800A6E726B1052289F82020012000E0304634
:1021E80067B1D4F8F420D189554A11805180918083
:1021F800514909684988D1804FF0020B4F4A11684C
:10220800D9F81420914201D8002F45D147F2305215
:10221800C9F81C20032221E02A7842F002022A7021
:102228000DF0B2FD454AD9F81C1012680A44C9F8E5
:102238001820042212E0414A9EB11168D9F81820EA
:1022480091422CD93F4A92781AB9DAF80020D3077C
:1022580025D42A7822F002022A70052289F8202043
:102268005EE71268D9F81C100A44C9F8182016E06D
:102278003149324A09681268C988642000FB012282
:10228800C9F810204FF48060002289F8202089F8CE
:10229800032003F031FD43E700287FF441AFBBF191
:1022A800000F02D0584604F061FC274E254FB6F8BF
:1022B8004E1106F5C37004F0B3FB8246002847D1DF
:1022C8001C4B1B6813F0006908D0FB7833B90DF07C
:1022D80095F91E4B012818BF002018702B78580755
:1022E80009D5D8F80030D90605D4B9F1000F02D0C5
:1022F800FB78002B4BD0114B1B6803F57A73012236
:10230800C4F8FC30114B3A71FA7000221A703EE0A2
:10231800B8160020C8160020F10F00200000C8429F
:10232800B611002000C07F443F2E0020404B4C00D7
:10233800C02D002054110020202E0020BC2D00208C
:10234800BE210020000000207C220020412E002019
:10235800D8F80030DA0615D42B785B0712D5924BE3
:102368001B6818010ED5FB7863B1904B1A68D4F836
:10237800FC309A4209D90DF041F930B98C4BF8700C
:10238800187002E08A4B00221A7000233B712B78E8
:1023980059073AD5D8F80030DA0636D594F800311E
:1023A800DFF81092DB0630D4BB7843B396F8E031FF
:1023B800BAF1000F11D15BB17C4B1A68D9F804311E
:1023C8009B1A002B04DA0DF0DFFC89F808A11CE049
:1023D800102004F0CBFB01230EE03BB1734A1268D6
:1023E8004FF47A7101FB0323C9F8043194F80831DA
:1023F8005BB104F0A3FB002384F8083105E0BAF1CF
:10240800000FE5D099F80831F2E7002296F8DEB11E
:1024180096F8DF11B6F896E1B6F898C11346DFF8DA
:10242800A491CDF8009039F912009B087045C4BFFB
:1024380063F07F03DBB201326045B8BF43F040036D
:10244800042AECD194F809215A489A4205D190F807
:102458000A21F92A04D8013200E0002280F80A2172
:1024680084F80931BB78534ADFF83C9133BBD9F87B
:102478000000C0070AD582F80B31BAF1000F1DD150
:102488002B78DA071AD50DF0E3FA17E02B785B07FB
:1024980014D5494B1B788BB1484BDB7873B992F84C
:1024A8000B310133DBB2032B82F80B3106D911B1A2
:1024B8000DF06AFC02E0BAF1000FF9D094F80A3185
:1024C8003C4ADFF804A1142B40F08F80BB781BF145
:1024D800000B18BF4FF0010B6BB392F809315F2B5B
:1024E80011D12B7803F0040303F0FF0113B10DF0B1
:1024F8004BFC08E00B200291019204F037FB019A93
:10250800029982F80A11BBF1000F14D094F809312E
:102518007D2B10D12B7803F0040303F0FF0213B1D5
:102528000DF032FC07E00B20019204F01FFB214B59
:10253800019A83F80A212B7803F0040303F0FF01C2
:10254800002B52D194F809311A4A572B04D11C4B4D
:102558004FF47A721A8048E0D8F80000400717D57F
:102568005A2B15D192F80C312BB1012382F80C119A
:1025780082F80D3139E092F80E3183F0010382F8C8
:102588000E310BB10C2000E00D2004F0EFFA2CE026
:102598005D2B00F026845B2B00F025845E2B15D183
:1025A800032000F021BC00BF54110020BC2D0020E6
:1025B800412E0020100F0020E4180020C02D00201C
:1025C8003C2E0020BE21002094110020562B01D162
:1025D80003F056FEBB78002B00F0198494F80931FB
:1025E8006F2B40F00E840DF033FAD8F800305F07F7
:1025F80038D594F80E31B74A9BB12B78580710D5C7
:10260800009BB3F90610B6F89631994209DDD9F85E
:10261800003013F0010302BF3221A2F8201182F822
:102628000E31D9F80030D9030DD594F82221A94BE1
:102638002AB993F80C2112B93222A3F820210123D8
:1026480084F822310EE094F80C31A24A53B12B7869
:1026580003F0040303F0FF0123B9012382F80C11EE
:1026680082F80D31DAF800A00023C9F800300AF129
:1026780087070AF1D70B3A787B7817F8010C9A424A
:102688000DD2394607F0CEF848B117F8022C0123CD
:1026980003FA02F2D9F800301343C9F800300437BE
:1026A8005F45E8D18C4B1B783BB18C4B1A6812F014
:1026B800020F994640F036832DE30AF1D6070AF552
:1026C8008F793A787B7817F8010C9A4225D23946E7
:1026D80007F0A8F808B3BB7897F804C0804A97F8C1
:1026E80003A07C480C21013B01FB0C4103EB430395
:1026F8001344D1F828219A420FD0C1F82831002379
:1027080090F85421C1F82C31012303FA0CF322EA82
:10271800030381F824A180F8543106374F45D0D1FE
:10272800704B1F68704B1B680293704B1B780393A8
:102738006F4B009300230193009B1A68002A00F056
:10274800DF8292F800A0BAF1000F00F0D9825B682E
:102758000299CB1A002B0CDB01F5FA7300994B6038
:10276800019901238B4094F8541121EA030384F85A
:102778005431039B002B00F0C382009B517813F85F
:10278800043C0433DBB2002940F07982594931F91D
:102798001310B6F8943103F1C800814202DD92F8B3
:1027A80002B015E0C83B994203DA9178C1F1000BF9
:1027B8000EE0019A0123934094F8542122EA03037E
:1027C80084F85431029B009A03F5FA73536097E238
:1027D800019A94F854311341DA0700F19182BBF160
:1027E800000FCCBF0220012004F0FAF90AF1FF33F0
:1027F800DFF8E090132B00F27B82DFE813F014007F
:10280800250037004B0064008300E6004901B00151
:10281800DE010E0279024B005A008300E6004901EE
:10282800B8001B01800197F80090D944B9F1FA0F5C
:10283800A8BF4FF0FA0929EAE979384687F80090E5
:1028480006F0D6FF01200FE097F80190D944B9F1BE
:10285800640FA8BF4FF0640929EAE979384687F878
:10286800019006F0C5FF02204946D3E197F803A07E
:10287800DA44BAF1640FA8BF4FF0640A2AEAEA7A88
:1028880087F803A03846D9F8581106F067FF0320E7
:102898005146BFE1797959446429A8BF642121EAE6
:1028A800E17179710D2004F0EBF8BAF10D0F00F029
:1028B8001F82397959446429A8BF642121EAE1714A
:1028C80039710E20A6E1B979594481F30801B9712B
:1028D80005209FE1100F0020422E002054110020F7
:1028E80004640108BC110020BC2D0020E41800205D
:1028F80038100020BE21002000007A440000C842A1
:1029080000000000D9F85C311A78022A20D107EEBD
:1029180090BAB8EEE70A5FED077A93ED097A80EE90
:10292800270A30EE070AB5EEC00AF1EE10FA07D40E
:10293800B4EE670AF1EE10FAC8BFB0EE670A01E01C
:102948001FED110A83ED090A0F2004F083F80AE04D
:1029580099785944C829A8BFC82121EAE17199701A
:102968000F2004F08DF8BAF10F0F00F0C181D9F8EB
:102978005C311A78022A1ED107EE90BAB8EEE78ABF
:102988005FED227A93ED080A88EE278A38EE000A6E
:10299800B5EEC00AF1EE10FA07D4B4EE670AF1EE0C
:1029A80010FAC8BFB0EE670A01E01FED2B0A83EDED
:1029B800080A122056E159785944C829A8BFC821E5
:1029C80021EAE1715970122024E1D9F85C311A78B2
:1029D800022A20D107EE90BAB8EEE70A5FED397AFD
:1029E80093ED0C7A80EE270A30EE070AB5EEC00A9E
:1029F800F1EE10FA07D4B4EE670AF1EE10FAC8BF88
:102A0800B0EE670A01E01FED420A83ED0C0A1020C0
:102A180004F020F80AE0197B5944C829A8BFC82146
:102A280021EAE1711973102004F02AF8BAF1100FA5
:102A380000F05E81D9F85C311A78022A1ED107EEBF
:102A480090BAB8EEE78A5FED537A93ED0B0A88EEF9
:102A5800278A38EE000AB5EEC00AF1EE10FA07D45C
:102A6800B4EE670AF1EE10FAC8BFB0EE670A01E0EB
:102A78001FED5D0A83ED0B0A1320F3E0D97A594460
:102A8800C829A8BFC82121EAE171D9721320C1E081
:102A9800D9F85C311A78022A22D107EE90BA1FEDD4
:102AA8006A0AF8EEE77A87EE800AD3ED0F7A30EEFD
:102AB800270AB5EEC00AF1EE10FA09D45FED717A73
:102AC800B4EE670AF1EE10FAC8BFB0EE670A01E08B
:102AD8001FED750A83ED0F0A112003F0BBFF0AE012
:102AE800997D5944C829A8BFC82121EAE17199757F
:102AF800112003F0C5FFBAF1110F00F0F980D9F8E1
:102B08005C311A78022A20D107EE90BA1FED860AA6
:102B1800B8EEE78A88EE008A93ED0E0A38EE000ACE
:102B2800B5EEC00AF1EE10FA09D45FED8C7AB4EE76
:102B3800670AF1EE10FAC8BFB0EE670A01E01FEDB0
:102B4800900A83ED0E0A14208CE0597D5944C82957
:102B5800A8BFC82121EAE171597514205AE0D9F8B3
:102B68005C311A78022A1ED107EE90BAB8EEE78ACD
:102B78005FED9E7A93ED0A0A88EE278A38EE000AFE
:102B8800B5EEC00AF1EE10FA07D4B4EE670AF1EE1A
:102B980010FAC8BFB0EE670A01E01FEDA70A83ED7F
:102BA8000A0A09205EE0D9785944C829A8BFC82173
:102BB80021EAE171D97009202CE0D9F85C311A7842
:102BC800022A1ED107EE90BAB8EEE78A5FEDB57A11
:102BD80093ED0D0A88EE278A38EE000AB5EEC00A92
:102BE800F1EE10FA07D4B4EE670AF1EE10FAC8BF96
:102BF800B0EE670A01E01FEDBE0A83ED0D0A0A2058
:102C080030E0597B5944C829A8BFC82121EAE1719D
:102C180059730A2003F034FF6AE0D9F85C311A7856
:102C2800022A22D107EE90BA1FEDCD0AB8EEE78A44
:102C380088EE008A93ED100A38EE000AB5EEC00A55
:102C4800F1EE10FA09D45FEDD37AB4EE670AF1EE2B
:102C580010FAC8BFB0EE670A01E01FEDD70A83ED8E
:102C6800100A0B2003F0F6FE42E0D97D5944C8292A
:102C7800A8BFC82121EAE171D9750B20CAE701294B
:102C880036D190788C4A32F91390B9F5617F05DB1B
:102C980040F633039945A8BF994601E04FF461799E
:102CA800BAF10C0F24D1854A4FF4966393FBF0F0E8
:102CB8001378A9F5617999FBF0F95FFA89F94B4521
:102CC80016D0B9F1040F34BF4B46022313707C4A67
:102CD8000AFB036303F2AA73136003F001F9504679
:102CE800494603F0CDFE09F10100C0B203F078FFB8
:102CF800019A0123934094F85421134384F85431E2
:102D0800019B01330193009B0C330093019B042B1F
:102D18007FF412ADC9E4D8F80030DB050FD5694B54
:102D2800DB7863B1684B1B689F0708D5674B1B8826
:102D380013F0010708D1012002F0EEFF04E00120A2
:102D480002F0DAFF012300E00023D9F80020500741
:102D58000BD553B1012002F0CFFF5C4B1B889907BC
:102D680006D4022002F0D8FF02E0022002F0C4FFDD
:102D7800D9F800301A054FF4807002D502F0CCFF64
:102D880001E002F0B9FF7379082B01D00E2B02D1B4
:102D9800402002F0B1FFD8F800305B0519D596F84D
:102DA80010321BB92B7813F0040F03E0D9F8003068
:102DB80013F4002F09D0464B00221A703C200CF067
:102DC800E9FB30B10BF0C0FAF8E706F0A3FD0CF010
:102DD800F0FA012384F8603107B0BDEC028BBDE83E
:102DE800F08F012000E00220C7B27B1E86F8A837CA
:102DF80002F0DCFF03F098F8384603F0F1FEFFF725
:102E0800F4BBBBF1000F02D07E2B3FF4ECAB94F87F
:102E18000931304A972B05D14FF4C873A2F8103105
:102E2800FFF7E3BBA72B07D192F8003143F0040367
:102E380082F80031FFF7D9BB0021BB2B059101D1E6
:102E4800022303E0B72B04D14FF6FE73ADF816301A
:102E580009E0BE2B01D1022303E0BD2B1AD14FF6A6
:102E6800FE73ADF81430DAF80030BDF81410B3F87A
:102E780064200A44A3F86420BDF81610B3F866204D
:102E88000A44A3F8662003F0FBF9002384F80A310A
:102E9800FFF7ABBB792B04D192F8173123F001036C
:102EA80006E07A2B7FF4A1AB92F8173143F00103C7
:102EB80082F81731FFF799BBBE210020342100208A
:102EC800BC110020C02D00204C1100205011002002
:102ED800682A0020100F00202DE9F04F2DED028BFD
:102EE800AF4F8DB03D780097002D00F0A980AD4B15
:102EF8001A689846002A00F0C387D8F8000003F043
:102F0800D5FE002800F0BC87A64BA74D186803F033
:102F1800CAFE092801D03F284AD14FF0000A2F687D
:102F2800A24C56462FB1A24821683A4613F0C4F87D
:102F380010B9A24606B926469E4B10349C42F1D3DE
:102F4800C6B1D6F800E0DAF800C02B681EF80340D6
:102F58001CF80300A0420DD15A1C954938B92D2BF5
:102F680005D8914C22602024CC54885402E0CC54DB
:102F78002A60EAE72B680BB1564510D08E480BF053
:102F8800EDFA564507D856F8100B0BF0E7FA09206A
:102F98000BF0DCFAF5E789480BF0E0FA00272B681C
:102FA8009F42AAD2824BD85D0BF0D0FA0137F6E7E0
:102FB8002B68002B40F0EB86042840F046877C48BD
:102FC80005F07CF800F05CBFDBF80000DFF818A221
:102FD80003F06CFE10B3DAF8000003F064FE236817
:102FE80093F84810074600293DD1242875D10122BD
:102FF80083F848202368724F93F84820062AE3D1C3
:1030080093F8490000F056FF0446002800F08D8030
:103018000BF0E6F93368002283F84820694B9B7966
:1030280053B158F8050006F097F903F0B3FF02F022
:1030380093FE654B654ADA604C35982D00F0208781
:10304800DFF8A88105EB080393F84A20012AF3D199
:103058005B4EDFF89491336055F80830C9F80030BA
:103068003446CB46B0E7012904D14D2814BF0022CD
:103078000222BDE7022904D13C2814BF0022032202
:10308800B6E703290CD140284FF0000102D983F894
:103098004810AFE758711971D97198710422A7E7E0
:1030A800042907D1997983F8490080EA01029A71C5
:1030B80005229DE705299DD1587919798842987983
:1030C80006D978409871481C18710B441F7291E713
:1030D800B8420CBF062200228AE73D4B19784A07FE
:1030E80088D42328DAF8001012D10193009B01201C
:1030F80018702C4801603348016036480BF02EFAEE
:103108002E480BF02BFA019B197841F00201197037
:10311800314B1B681B78BB4201BF304B304A1A60E9
:10312800294B04BF294ADA6064E73A6892F84930C3
:103138004A2B00F0238676D8332B00F0608422D8FF
:10314800292B00F0FD8309D8252B00F0B783272B06
:1031580000F0D683232B40F0168675E22D2B00F065
:10316800018408D82B2B40F00E860BF00DF91D4B6F
:10317800587100F003BE2F2B00F0A384312B00F010
:10318800B38400F000BE3E2B00F0298138D8372BDD
:1031980000F067842CD8352B00F08E8200F0F3BD48
:1031A800422E00205821002098170020DC650108D5
:1031B80068170020AC670108188601081D860108F9
:1031C800502100207410002000ED00E00400FA05F2
:1031D8003F2E00204D860108642A0020FC9F002015
:1031E800EFBEADDE7C22002054210020E421002027
:1031F800392B00F093833C2B00F0FC8000F0C3BD1A
:10320800432B00F00C8404D8412B40F0BC850024EB
:10321800FBE3442B00F09C84482B40F0B48507F076
:10322800F7FE00F0ABBDD02B00F0228361D8CA2B8B
:1032380000F0F58017D84E2B00F0B783C82B00F0AC
:10324800A1804C2B40F09F850BF09EF8BD4C84F874
:10325800D6010BF099F884F8D7010BF09FF8A4F881
:10326800D80100F08BBDCD2B00F00E8304D8CC2BF9
:1032780000F0498200F087BDCE2B00F00F83CF2BE2
:1032880040F081850BF08AF86FF4AF67C3199BB2E1
:10329800AC4CC62B98BFA4F894010BF07FF8A4F8A7
:1032A80040010BF07BF8A4F842010BF077F8A4F882
:1032B80044010BF073F8A4F8D8010BF065F80BF093
:1032C80063F80BF061F80BF05FF884F883010BF0FA
:1032D8005BF884F890010BF057F89B4B1F680BF0D4
:1032E8005DF800EB80004000A7F862000BF04CF896
:1032F80017E3D82B00F03C810ED8D32B3CD003D851
:10330800D22B25D000F03FBDD42B00F04382D62B22
:1033180040F03985002434E2F22B00F080820FD887
:10332800EF2B40F03085884C27680BF037F8A7F86A
:10333800660024680BF032F8A4F8640000F01EBDA3
:10334800F32B00F00984FA2B00F0B38200F01BBDC8
:103358007E4B1B7803F0040303F0FF04002B40F0BE
:103368000D850BF011F8774B022883F8A80740F277
:10337800868283F8A84782E20BF010F8744B988095
:1033880000F0FCBC54796408122C03D90CF056F9EF
:1033980000F0F4BC4FF00009A14507D20AF0FEFF87
:1033A80003AB23F8190009F10109F5E722460023C8
:1033B800A34207DA03A931F81300664921F813007C
:1033C8000133F5E7122A05D0624B002123F81210C9
:1033D8000132F7E7604B01221A7000F0CFBC0AF007
:1033E800D3FF584C84F8E0010AF0CEFF84F8DF01DF
:1033F80000F0C4BC544C27680AF0C6FF18B1022874
:10340800A8BF022000E00120387023681B78022B37
:10341800524B14BF524A534A1A6000F0AFBC4A4B91
:103428001A681278022A99466ED1D9F800700AF003
:10343800ABFF07EE900AF8EE677AB2EE048AC7EEA1
:10344800887A07EB840AD9F80070CAED087A0AF07E
:103458009BFF07EE900A9FED447AF8EE677A07EB38
:10346800840AC7EE877AD9F80070CAED0B7A0AF099
:103478008BFF07EE900A9FED3D7AF8EE677A07EB2F
:10348800840AC7EE877A0134032CCAED0E7ACCD1B0
:10349800072CD9F800701CD10AF076FF07EE900AC5
:1034A800F8EE677AC7EE887AC7ED117AD9F8007016
:1034B8000AF06AFF07EE900AF8EE677AC7EE887A94
:1034C800C7ED127AD9F800700AF05EFF87F84C0051
:1034D80015E00AF059FF07EB040A8AF80100D9F849
:1034E80000700AF051FF07EB040AD9F800708AF857
:1034F8000B000AF049FF07EB040A8AF815000134AB
:103508000A2CC5D100F03ABCD9F800700AF03CFF8B
:1035180007EB040A8AF80100D9F800700AF034FFB2
:1035280007EB040AD9F800708AF80B000AF02CFFA0
:1035380007EB040A01340A2C8AF81500E4D100F0DC
:103548001DBC00BF7C220020941100203F2E0020CB
:1035580074100020002D00208D2100201803002069
:10356800CD620008CD6500080000C84200007A441A
:10357800D64F9FEDD78AD7F800A00AF00FFF07EEC5
:10358800900AF8EE677A0AEB840AC7EE887AB94699
:10359800CAED087AD7F800A00AF000FF07EE900AF3
:1035A800F8EE677A0AEB840AC7EE887ACAED0B7AD6
:1035B800D7F800A00AF0F2FE07EE900AF8EE677A54
:1035C8000AEB840AC7EE887A0134032CCAED0E7A16
:1035D800CED1072CD9F800701CD10AF0DFFE07EE17
:1035E800900AF8EE677AC7EE887AC7ED117AD9F8AB
:1035F80000700AF0D3FE07EE900AF8EE677AC7EE7D
:10360800887AC7ED127AD9F800700AF0C7FE87F8F1
:103618004C0015E00AF0C2FE07EB040A8AF8010024
:10362800D9F800700AF0BAFE07EB040AD9F800705E
:103638008AF80B000AF0B2FE07EB040A8AF81500B4
:1036480001340A2CC5D199E30AF09EFE132881465D
:103658003FF69CAE9D4F3C680AF096FE00239D49BC
:103668000C2202FB0312117A814221D10FFA89F947
:1036780004EB8904137884F885300AF085FE84F811
:1036880086000AF081FE84F887000AF07DFE924BDE
:10369800924A1A6084F88800914B386818600021B3
:1036A800853006F0F9F88F4B80F00100187065E35B
:1036B80001331D2BD3D169E60AF066FE0B2881463B
:1036C8003FF664AE814B1C680AF05EFE03283FF6A5
:1036D8005DAE062303FB094484F8DA000AF054FEC1
:1036E80084F8D5000AF050FE84F8D6000AF04CFEA3
:1036F80084F8D7000AF048FE84F8D8000AF044FE9F
:1037080084F8D9003AE35379092B7FF63FAE764C1B
:1037180027680AF039FE387027680AF035FE787095
:103728000AF032FE23686428A8BF642018710AF0E2
:103738002BFE23686428A8BF642058710AF024FE71
:103748002368FF28A8BFFF2098710AF01DFE27688C
:10375800642828BF6420F8710AF016FEB87027683C
:103768000AF012FEF87027680AF018FE33687881AC
:103778005B790A2B40F2028324680AF005FE207266
:10378800FCE20AF00BFE594B23F814000134082C14
:10379800F7D1F3E253790F2B7FF4F8AD0AF0F4FD7B
:1037A800072804463FF6F2AD484FD7F800A00AF0C4
:1037B800F5FD0E235C43A244AAF82501D7F800A022
:1037C8000AF0ECFDA244AAF82701D7F800A00AF0F5
:1037D800E5FDA244AAF82901D7F800A00AF0D4FD13
:1037E800A2448AF82B01D7F800A00AF0CDFDA24424
:1037F8008AF82C01D7F800A00AF0C6FDA2448AF87E
:103808002D01D7F800A00AF0BFFDA2443F688AF84E
:103818002E010AF0CDFD3B19C3F82F01AEE20AF0E4
:10382800B3FD0F2804463FF6B1AD0AF0ADFD304BAD
:10383800C4EBC4041C4484F8D0000AF0A5FD84F845
:10384800D1000AF0A1FD84F8D2000AF09DFD84F8A9
:10385800D3000AF099FD84F8D4000AF095FD84F8A5
:10386800D5000AF091FD84F8D60003F0D3FB85E279
:10387800204B1B785C0700F1818209F007FD02F0FC
:1038880095FA02F051FB79E21A4B1B78580700F1C0
:103898007582194B4FF4C8721A806FE2154B1B786A
:1038A800590700F16B82154A137843F0040313702B
:1038B80064E2104B1B785A07E1D564E20C4B986020
:1038C8000AF076FD02F040FA58E200BF9411002099
:1038D80000007A447064010868100020BC230020AE
:1038E8006C10002002000020BC11002036210020AE
:1038F8007C2200203F2E00202010002010100020E5
:103908000AF04CFDCB4CA4F858010AF047FDA4F886
:103918005A010AF043FDA4F85C012FE20AF034FDD5
:10392800C44C84F878010AF02FFD84F87C010AF071
:103938002BFD84F87B010AF027FD84F87D011DE248
:103948000AF02CFDBB4CA4F87E010AF027FDA4F870
:1039580080010AF019FD84F882010AF01FFDA4F81D
:1039680084010BE20AF010FDB24C84F88E010AF0D3
:1039780015FDA4F898010AF011FDA4F894010AF0C5
:103988000DFDA4F896010AF0FFFC3B6884F88F014E
:103998005B79082B40F2F2810AF000FDA4F89C0143
:1039A8000AF0FCFCA4F89E01E8E154790323B4FB77
:1039B800F3F4122C3FF6EAAC9E4F4FF0000AA245F2
:1039C80080F0DC810AF0E0FC87F8A0010AF0E6FC50
:1039D80040F2ED23984205DD40F6CA039842A8BF9D
:1039E800184601E040F2EE20A0F2EE2019230AF179
:1039F800010A90FBF3F0023787F89F01DFE70AF02E
:103A0800C3FC8C4B83F89001B8E10AF0BDFC894BEC
:103A180023440134082C83F88601F6D1AEE10AF07C
:103A2800B3FC844F7871BC600AF0C2FC02F08CF9D8
:103A38000AF0AAFC87F88E010AF0B0FCA7F8580132
:103A48000AF0ACFCA7F85A010AF0A8FCA7F85C0138
:103A58000AF0A4FCA7F87E010AF0A0FCA7F88001F0
:103A68008CE153790724B3FBF4F2C2EBC2029A1A31
:103A780012F0FF0F7FF48AACB3FBF4F4013CE4B21C
:103A8800FF2C00F07B810AF07FFC5FFA80FA4FFA86
:103A98008AF005F07FFD074600283FF477AC80F8F0
:103AA80000A00AF07BFC78800AF06EFC38710AF0FE
:103AB8006BFC78710AF068FCF8710AF065FCB87163
:103AC800DCE75C4C04F140090AF068FCA4F8A002A9
:103AD8000AF05AFC84F8A2020AF056FC043484F86E
:103AE8009F024C45F0D149E10AF04EFC1F280446DC
:103AF8003FF64CAC33685B79082B7FF447AC0AF08F
:103B08004DFC4C4F883407EB840900F03F00A9F8BE
:103B180002000AF043FCB9F80230800100F4FE50BC
:103B28001843A9F802000AF02FFC000107F8240046
:103B38000AF02AFC17F8243000F00F00184307F8A1
:103B480024000AF021FC89F8010006F0C5FA15E105
:103B5800394B01229A7111E10AF016FCFF288246BE
:103B6800354C6DD14FF0000904F108004946602238
:103B780084F8079012F058FA8DF80B909DF80B30E6
:103B880094F86A202C4F9A424BD99DF80B3007EBDA
:103B9800C30393F86D30DB073CD59DF80B3007EB7A
:103BA800C30393F86C20254B33F91230002B31DD19
:103BB8009DF80B3097F8079007EBC3034FEAC90E3F
:103BC8001B6F58689DF80B3007EBC30A07EB0E0113
:103BD800DAF8703088601A89CA8192B2002101230C
:103BE8008B40134003D101311029F8D100E00B4676
:103BF80004EB0E0109F101098B8104238DF80E30C5
:103C080003A90123ADF80C208DF80F3001F006FB55
:103C180084F807909DF80B300133DBB28DF80B3038
:103C2800ACE701200AF000FCF8790AF0CAFBFFF7BC
:103C3800EFB900BF7C2200207410002098110020EA
:103C4800E3799842BFF4A2AB00200AF0EDFB0AF03A
:103C5800C7FB3368186805F07FFBD9F800000AF045
:103C680073FB02F06BFF72B6DFF8209280234027C7
:103C7800A9F828304FF0010BA9F828704846ADF88C
:103C88000C3003A904238DF80E308DF80FB04FEADD
:103C9800CA0A01F0C3FA484603A9ADF80C708DF8BA
:103CA8000EB08DF80FB001F0B9FA04EB0A00816884
:103CB80083890A6803FA0BF30BFA03F313430B60C7
:103CC800C3898B614846C9F81870038A1F06FCD45B
:103CD80004EB0A0301229868B3F80CE001684FEA84
:103CE8004E0E02FA0EF20A4302609A68DB891385C7
:103CF800664A402111852021916140F60559DFF877
:103D08008CB1BBF81020110605D4B9F1000FF6D01C
:103D180009F1FF39F3E78361ADF80C3004238DF81E
:103D28000E3003A901238DF80F3001F077FAB9F1AD
:103D3800000F13D0554B1A8A1206C9D504EB0A0195
:103D48008A68C989128A11424FF020024FF0400157
:103D580015BF996119859A611A85EBE74023CBF85D
:103D680018302023CBF8183062B60A2002F0C3FEC0
:103D78000BF01FFB3368F32283F8492000200AF078
:103D880053FBFFF745B90BF059FCFFF741B90C2875
:103D980003D13F480AF0E2FB49E00A2801D00D2888
:103DA80047D13C4C3C480AF0D9FB2046232112F06D
:103DB8006EF908B1001B28602B687BB35A1EA15C02
:103DC800202901D11346F8E7324A2B600021D1544B
:103DD800324B334CD3F800A0D4F800B02D4F5846DE
:103DE80012F062F9064632463846594612F064F92E
:103DF8002C4A20B9BB5D53445B78590703D0103473
:103E08009442E9D306E0944204D2701CE368384433
:103E1800984702E024480AF0A1FB00231D482B60C4
:103E28000021302212F000F9009B1B7843B31F4891
:103E380007E07F280FD1013B164A1D482B6000215F
:103E4800D1540AF08BFBFFF758B80C28A1D07F2873
:103E580004D1FFF752B82F2B3FF64FA8A0F120024C
:103E6800D2B25E2A3FF649A813B920283FF445A8E4
:103E78005A1C2A60074AD0540AF068FBFFF73DB87D
:103E88000DB0BDEC028BBDE8F08F00BF0004004808
:103E98002286010868170020B69301082403002031
:103EA800DC650108AC6701082D8601081D8601083C
:103EB800498601082DE9F04F2DED028B4728A1B066
:103EC800044600F05A8600F2CE802E2800F00986BB
:103ED80067D8222800F0B18423D8032800F0408254
:103EE80014D8012800F03182022840F0928604207C
:103EF8000AF09AFA42200AF064FA54200AF061FAA9
:103F080046200AF05EFA4C2000F0BDBD042800F0FF
:103F18003182052840F07D861A200AF085FA0024AF
:103F280038E2282800F0768515D8242800F05D8529
:103F3800262840F06E86C64C06200AF075FAB4F8BA
:103F480058010AF074FAB4F85A010AF070FAB4F891
:103F58005C0100F0A9BD2A2800F06F852C2840F0EC
:103F68005886BB4C0C200AF05FFA94F88E010AF0D0
:103F780028FAB4F898010AF05AFAB4F894010AF049
:103F880056FAB4F896010AF052FA94F88F010AF03A
:103F980018FAB4F89C010AF04AFAB4F89E0100F045
:103FA80083BD3A2800F0E2821DD8342800F07884D6
:103FB8000DD8302800F0AB85322840F02A86012041
:103FC8000AF032FAA24B93F8900100F05CBD362853
:103FD80000F06D85382840F01C8604200AF024FA89
:103FE8009B4C00F008BD402800F0508511D83B28B4
:103FF80000F01C843D2840F00C86954C02200AF005
:1040080013FA94F8E0010AF0DCF994F8DF0100F003
:104018003ABD452800F0EA8500F29E85422840F026
:10402800F8858B4C10200AF0FFF960790AF0C9F97D
:10403800A0680AF005FA94F88E010AF0C2F9B4F8FB
:1040480058010AF0F4F9B4F85A010AF0F0F9B4F892
:104058005C010AF0ECF9B4F87E010AF0E8F9B4F86A
:10406800800100F021BD6F2800F0CF8200F2F880B7
:10407800662800F0CB8100F2C2804D2800F0E3846E
:1040880015D8492800F0BB824B2840F0C285704CF7
:1040980004200AF0C9F994F8D6010AF092F994F8C4
:1040A800D7010AF08EF9B4F8D80100F0FDBC6428F5
:1040B80000F08981652840F0AC85664C0B200AF039
:1040C800B3F920880AF0B3F96268634B9A420CBFCF
:1040D8002089608980B20AF0AAF9E368C3F3C000B6
:1040E800C3F38002800040EA4200C3F34002104359
:1040F800C3F3401240EAC20003F0100318430AF069
:1041080096F9218A6369247E01F0080203F4475A6C
:104118004AEA020A03F480424AEA020A03F4004225
:104128004AEA020A03F480324AEA020A03F4003235
:104138004AEA020A03F480224AEA020A03F4002245
:104148004AEA020A03F480124AEA020A434A03F0DE
:10415800007B12784AEA0B0A03F0006311F0010FA2
:10416800C2F380024AEA030314BF4FF002094FF07A
:104178000009134311F0020F14BF4FF004084FF069
:10418800000843EA090911F0040F14BF4FF0100C9E
:104198004FF0000C49EA080811F0400F14BF4FF027
:1041A800200E4FF0000E48EA0C0C11F0100F14BF4F
:1041B8004FF4007700274CEA0E0E11F0200F14BFC1
:1041C8004FF4806600264EEA070711F4807F14BF7B
:1041D8004FF4006500253E4311F4007F14BF4FF4EF
:1041E80000100020354311F4806F40EA050014BF29
:1041F8004FF080610021014300200346F3E0692865
:1042080000F09A810AD8672800F02181682840F0D8
:10421800008510200AF008F9002485E16D2800F0D7
:104228009E8100F2BF816C2840F0F384094C06207F
:104238000AF0FAF8B4F870000AF0F9F8B4F8720065
:104248000AF0F5F8B4F974300A2093FBF0F0D4E1E1
:104258007C22002040110020005400403F2E002006
:10426800772800F07B834BD8732800F097833CD8DD
:10427800702800F0F481722840F0CB84BD4C1620E1
:104288000AF0D2F8B4F894010AF0D1F8B4F8400171
:104298000AF0CDF8B4F842010AF0C9F8B4F84401BC
:1042A8000AF0C5F8B4F8D8010AF0C1F800200AF0FD
:1042B80088F800200AF085F800200AF082F894F8BF
:1042C80083010AF07EF894F890010AF07AF8002049
:1042D8000AF077F8A84B5B6D0A20B3F9623093FBBC
:1042E800F0F080B20AF0A3F885E3742800F0FD82AC
:1042F800752840F08E842F200AF096F89F4C8DE2A6
:10430800A02800F064830AD8782800F0AC807B28C5
:1043180040F07F843C200AF087F8002428E2F12846
:1043280000F0DC80FE2800F04483F02840F071841F
:10433800914C04200AF078F8636DB3F866000AF02F
:1043480076F8636DB3F86400AEE303200AF06CF806
:1043580000200AF036F820460AF033F80D2092E3E0
:104368000AF062F802200AF02CF820460AF029F830
:10437800012088E306200AF057F84D200AF021F8BA
:104388004F200AF01EF854200AF01BF84F200AF0BC
:1043980018F81AE37A4B185D01340AF012F80B2C5E
:1043A800F8D10024774B185D01340AF00AF8082C7C
:1043B800F8D10024744B185D01340AF002F8072C78
:1043C800F8D100F024BC07200AF02EF8E72009F005
:1043D800F8FF684B587909F0F4FF002009F0F1FF65
:1043E800042000F012BCA3420AD2684A9D5C012254
:1043F80002FA05F50D421CBF9A4010430133F2E75B
:104408000AF01EF85B4B93F8A8073CE312200AF069
:104418000BF85F4B1B88B3F5806F8CBF082601260D
:104428000025554C04F1360333F9150090FBF6F0DE
:10443800013580B209F0FBFF032DF2D1A08F09F0FE
:10444800F6FFE08F09F0F3FFB4F84000B5E2102062
:1044580009F0EAFF00244F4B185D013409F0B1FF61
:10446800102CF8D1D3E3702009F0DEFF0026424D6E
:104478000E246B6D744323440136B3F8250109F00B
:10448800D6FF6B6D2344B3F8270109F0D0FF6B6D9D
:104498002344B3F8290109F0CAFF6B6D234493F84C
:1044A8002B0109F08EFF6B6D234493F82C0109F062
:1044B80088FF6B6D234493F82D0109F082FF6B6D23
:1044C800234493F82E0109F07CFF6B6D1C44D4F84B
:1044D8002F0109F0B5FF082EC9D198E37020254CAB
:1044E80009F0A2FF04F1700594F8D00009F069FF03
:1044F80094F8D10009F065FF94F8D20009F061FF43
:1045080094F8D30009F05DFF94F8D40009F059FF3E
:1045180094F8D50009F055FF073494F8CF0009F056
:1045280050FFAC42E0D172E31B4B185D013409F037
:1045380048FF102CF8D16AE3184D2878400000F0A5
:10454800FE0009F071FF00242B789C4280F05F8305
:10455800134B33F8140009F06AFF0134F4E706201E
:1045680009F062FF002009F06BFF2EE2042009F039
:104578005BFF49E37C220020401100203F640108D2
:10458800BB840108C78401089F84010859110020D1
:104598000800002082110020981100205C2A0020C9
:1045A800BE210020072009F03FFFB54BB54C188805
:1045B800FF28A8BFFF20C0B209F003FFB24B18685C
:1045C8004FF6FF75A842A8BF284620EAE07080B2DF
:1045D80009F02DFFB4F8760009F029FFAB4BA06F66
:1045E80093F883313BB10A235843A842A8BF284611
:1045F80020EAE07001E000F30F0080B254E20220EC
:1046080009F012FFA24B18884EE29E4C0B2009F0CD
:104618000BFFE36F187809F0D4FEE36F587809F0C0
:10462800D0FE00262546EB6F964C334401361879A8
:1046380009F0C7FE032EF6D1E36FD87909F0C1FE61
:10464800E36F987809F0BDFEE36FD87809F0B9FEFA
:10465800E36F588909F0EBFEE36F187A13E2894C8F
:104668001E2009F0E1FE636D1B78022B4FF0000558
:104678006BD1636D03EB850393ED080AB2EE048AF0
:1046880020EE080A0FF038F980F30800C0B209F0EC
:1046980098FE636DDFED7F7A03EB850393ED0B0ADC
:1046A80020EE270A0FF028F980F30800C0B209F0BD
:1046B80088FE636DDFED787A03EB850393ED0E0AD0
:1046C80020EE270A0FF018F980F30800C0B2013570
:1046D80009F077FE032DCCD1072D636D23D193ED1F
:1046E800110A20EE080A0FF007F980F30800C0B29B
:1046F80009F067FE636D93ED120A20EE080A0FF0C9
:10470800FBF880F30800C0B209F05BFE636D93F814
:104718004C3000EE103AB8EE400A0FF0EDF880F396
:104728000800C0B20BE02B44587809F04AFE636DCC
:104738002B44D87A09F045FE636D2B44587D01352A
:1047480009F03FFE0A2DC7D161E2636D2B4458780A
:1047580009F037FE636D2B44D87A09F032FE636D99
:104768002B440135587D09F02CFE0A2DEDD14EE27F
:10477800444D9FED498A6B6D03EB840393ED080A62
:1047880020EE080A0FF0B8F880B209F050FE6B6D01
:1047980003EB840393ED0B0A20EE080A0FF0ACF844
:1047A80080B209F044FE6B6D03EB840393ED0E0AAF
:1047B80020EE080A0FF0A0F8013480B209F037FEA5
:1047C800032CD5D1072C6B6D16D193ED110A20EE71
:1047D800080A0FF091F880B209F029FE6B6D93ED8D
:1047E800120A20EE080A0FF087F880B209F01FFEBF
:1047F8006B6D93F84C000BE02344587809F017FED2
:104808006B6D2344D87A09F012FE6B6D2344587DF2
:10481800013409F00CFE0A2CD4D1F8E114F8010F88
:10482800002800F0F48109F0CCFDF7E7012009F039
:10483800FBFD144B5B6D187825E1502009F0F4FD61
:104848000025104B5C6D154B04EB85040C2194F886
:10485800852001FB0233013593F8380009F0B1FDDA
:1048680094F8860009F0ADFD94F8870009F0A9FDD9
:1048780094F8880009F0A5FD142DE2D1C7E100BF26
:104888006017002040110020B41600207C22002070
:10489800AC2D00200000C84200007A4440640108A2
:1048A800482009F0C1FD0025C54B5C6D062303FBBC
:1048B8000544013594F8DA0009F083FD94F8D50031
:1048C80009F07FFD94F8D60009F07BFD94F8D70035
:1048D80009F077FD94F8D80009F073FD94F8D90031
:1048E80009F06FFD0C2DDFD191E14FF00008012692
:1048F8000027B34B1A7E974227DA19330024FA5C53
:10490800B04D0C2305F130016343595C914207D146
:104918002B44586B11F0C8FB82462EB9B14605E00E
:1049280001341D2CECD10EE080440CE0D1450ADAAC
:104938000C2303FB04535B6B13F8090009F041FDDA
:1049480009F10109F2E70137D3E7002E00F05F8192
:104958005FFA88F009F068FD0026C9E7984D287EBF
:1049680009F062FD00242B7E9C4280F05081964B1A
:10497800E65C002193480C2200F1300702FB01F3AA
:10498800DA5DB24205D1034493F8380009F019FD05
:1049980002E001311D29EDD10134E4E7082009F0D6
:1049A80043FD0124E0B2013409F00BFD092CF9D1D3
:1049B8002DE1082009F038FD002009F038FD00201D
:1049C80009F035FD002009F032FD00206CE00C20D4
:1049D80009F02AFD7D4B186809F032FD7C4B1868F8
:1049E80009F02EFD7B4B18680FE1042009F01CFD2F
:1049F800794B986809E194F8780109F0E2FC94F899
:104A08007C0109F0DEFC94F87B0109F0DAFC94F8EB
:104A18007D0138E0704C072009F006FDB4F87E01EE
:104A280009F005FDB4F8800109F001FD94F8820150
:104A380009F0C7FCB4F8840136E0012009F0F4FC61
:104A4800654B58791FE0654C654D207800EB4000B8
:104A5800C0B209F0E9FC002623789E4205F1020560
:104A680080F0D58015F8020C09F0ABFC15F8010CA4
:104A780000EB800000EB800000F2EE2080B209F02D
:104A8800D6FC0136E8E709F09CFCC0E0082009F0F4
:104A9800CBFC0024504B2344013493F8860109F0E1
:104AA80090FC082CF6D1B2E009F0C1FCAFE0444B11
:104AB800494C93F88000C0EBC000C0B209F0B4FCC8
:104AC80004F1200594F8F0010023464AD25C904294
:104AD80000F0A1800C33302BF7D10834AC42F1D16F
:104AE80095E040203C4C09F09FFC04F14005B4F8E7
:104AF800A00209F09CFC94F8A20209F062FC0434BC
:104B080094F89F0209F05DFCAC42F0D17FE0E02010
:104B1800314C09F089FC04F18005B4F8220200F058
:104B28003F0009F084FCB4F82202C0F3861009F0B3
:104B38007EFC94F82002000909F043FC94F8200256
:104B480000F00F0009F03DFC043494F81D0209F050
:104B580038FCAC42E1D15AE0234C0D2009F064FC4A
:104B680006F07AF909F02DFCA08809F069FC2069A3
:104B780009F066FC06F050F947E009F019FC054613
:104B8800842009F051FC284609F05AFC164B1C6990
:104B980005F18003A3428CBF641B802405F0F0FB61
:104BA80028462246694606F05BFA00240546AC42D0
:104BB8002DDA1DF8040009F004FC0134F7E700BF02
:104BC800401100204064010859110020ACF7FF1F74
:104BD800B0F7FF1FB4F7FF1F7C2200205C2A0020DB
:104BE8001C2400206C2A002008000020132009F053
:104BF8001BFC0024164B185D013409F0E2FB0B2C5A
:104C0800F8D1002009F01CFC002009F019FC012053
:104C180018E0002016E009F0D4FBB4F8F20109F01E
:104C280006FC94F8F40109F0CCFB94F8F50109F0BE
:104C3800C8FB94F8F70109F0C4FB94F8F60109F0F1
:104C4800C0FB4AE721B0BDEC028BBDE8F08F00BF86
:104C5800BB84010810F80A3C0133DBB20A2B84BF7D
:104C680010F8131C044A00F80A3C82BF002322F8FB
:104C7800113000F80A3C7047242D0020334A136C89
:104C880090681944081A40F68C23984270B5134668
:104C98009160D06051603BD9127893F945108A42EF
:104CA80010460BD1111F082908D893F84610182967
:104CB80001D8013103E083F8442002E0002183F8A1
:104CC800461093F944402149A24219D191F847402E
:104CD800B4B10C310024944206DA1D4D51F8046F2A
:104CE80025F814600134F6E70C2805D0184900248B
:104CF80021F810400130F7E71648017801310170BA
:104D080083F84520002201211A7083F8471070BDEE
:104D180092F84710C9B1A0F2EF2440F2DA518C4260
:104D280008D811780B2905D80B1D0131117042F8EC
:104D3800230070BD002283F84720074B03F130029F
:104D4800002143F8041F9342FAD170BDB803002034
:104D5800242D00208E210020C4030020024A136C59
:104D68000133194411647047B8030020024B53F80B
:104D780020301B6819607047DC130020064B53F87D
:104D880020301A681B89A1F57A7159434FF47A7358
:104D980091FBF3F111607047DC130020F0B5046D4E
:104DA8008668236823F0010323608379054613F09E
:104DB800020F40790CBF4FF0000E4FF4005E13F065
:104DC800040F14BF4FF48067002710F0010F14BFC1
:104DD800042100218307206820F001002060626818
:104DE80022F440524EEA02026260226822F4B05372
:104DF80023F00C0348BF41F008013B430B432360F9
:104E0800A36895B023F44073A360684602F0B4FD2C
:104E1800284B9C4201D10C9B0EE0274B9C4201D1B0
:104E28000D9B09E0254B9C4201D10E9B04E0244BCD
:104E38009C420CBF0F9B109B2268A879170448BF9F
:104E48005B00B3FBF6F206FB1233B3EB560F236895
:104E580028BF01321E0441BF4FF6F073C2F342016E
:104E6800134041EA03026B7992B213F0020FA28158
:104E780000F0010114BF4FF400320022DC0748BFE4
:104E880042F480322B6D11B159680A4302E0596827
:104E980021EA02025A609A6801074CBF42F00802F0
:104EA80022F008029A601A6842F001021A6015B0EE
:104EB800F0BD00BF003801400044004000480040F9
:104EC800004C00403D4B1B78012B30B514BF00242B
:104ED8000324B1B9036A23F0010303628169036AF9
:104EE80021F0F30123F00A0341F0010142F001022D
:104EF8001A4341EA041181610262836923F00C03B9
:104F08001BE004291DD1016A4FF6EF730B400362C1
:104F18008169056A120121F473414FF65F7342F00B
:104F2800100241F480712B4092B2134341EA0431DC
:104F380081610362836923F44063836183698361C8
:104F480030BD0829016A1AD14FF6FF630B4003628E
:104F5800C169036A9BB289B223F4206343F4807366
:104F680021F0F30143EA022241F0010192B241EA41
:104F78000411C1610262C2694FF6F37319E04EF67B
:104F8800FF730B400362C369056A40F6FF4119408D
:104F980045F6FF732B4043F4805343EA023241F451
:104FA800807192B241EA0431C1610262C2694FF272
:104FB800FF331340C361C369C36130BDB40300202C
:104FC80038B510F80E2C50F8043C044652B90122AA
:104FD80000F80E2C20F80C1C997A18680222BDE8FB
:104FE80038406FE730F80C2C20F80A1C891A89B26F
:104FF80020F8081C074A10F80F0C002522F810109A
:1050080004F80E5C1868997A2A46FFF75BFF04F8E3
:10501800065C38BD242D0020044B53F820301BB10A
:1050280007289CBF1B681960704700BFE004002078
:10503800084A13689B050BD5074B002119700749CF
:1050480008684FF6FE7303400B604FF4007353601B
:10505800704700BF00000240432E0020300002408D
:105068002DE9F047664D2B6866490A78581C02F00E
:10507800FF068E460AB10346F6E72B6095F80880CE
:10508800687AAA7AEB68374639B2202900F09B8003
:10509800DFF880C10CEB81033CF82110DC789B78A9
:1050A800C3F1FF039BB2002B65D0C3F1FF03634339
:1050B8004FF03C0C1B12B1FBFCF9B9F1050F5DD8A0
:1050C800DFE809F0030B1A293A4AE01ADAB2414339
:1050D800B1FBFCF01044C0B251E0B1FBFCF00CFB9A
:1050E800101189B2DAB2C1F13C01E31A4B432046F0
:1050F800B3FBFCFC94442CE0B1FBFCF00CFB10115E
:105108005FFA83F8E21A89B24A43B2FBFCF24244DE
:10511800D2B2204632E0B1FBFCF90CFB191189B27E
:105128005FFA83F8E01AC1F13C014843B0FBFCF098
:105138004044C0B2224621E0B1FBFCF80CFB181138
:10514800D8B289B2E31A01FB03F2B2FBFCFC224697
:1051580084445FFA8CF412E0B1FBFCF80CFB1811E4
:1051680089B2D8B2C1F13C01E31A4B43B3FBFCF25C
:105178000244D2B203E02246204600E044464FEA09
:10518800042C4CEA004C4CEA020C172306F11701D8
:105198004FF0010808FA03F8C91A18EA0C0F89B287
:1051A800DFF8748014BF4FF011094FF0090913F1AB
:1051B800FF3308F80190E9D218360137B6B2BFB20A
:1051C800114BA04660E7AA72EB60104AE980012300
:1051D8008EF800300E4985F8088040F22A3368724C
:1051E800AE80536000234B620B889BB243F00103EF
:1051F8000B80136843F001031360BDE8F08700BF1C
:10520800D0110020432E0020D81100203000024089
:1052180000440140521800202805002073B50646B6
:105228000D46002401232A88A34013421AD0AA78E5
:10523800009302F003038DF80430EB78022B03D0BF
:10524800032B0CBF032301238DF805303046C2F32E
:1052580001136946C2F381028DF806308DF80720E4
:1052680002F04EFB0134102CDCD102B070BD2DE9E8
:10527800F04F734E357C07460C4687B011469A4668
:1052880000686B1C914622464FF0020B337408F0FD
:1052980059FE3B897868ADF8043001A98DF806B04D
:1052A8008DF807B0FFF7BAFF0023ADF80A30ADF864
:1052B8001230ADF8163070230193BA7A3C68CDF8F5
:1052C8000CA0012306F114082D01ADF808304FF4A5
:1052D8008073A844ADF810B0ADF814300C2A7ED80D
:1052E800DFE802F0077D7D7D0F7D7D7D387D7D7D4A
:1052F8005E00204601A902F00DFAA36943F00803F5
:1053080026E0236A4F4823F010032362236A61686A
:10531800A26922F0807222F4E642844242F4E0421A
:1053280006D000F50060844202D043F0300307E065
:1053380023F0E00321F4406143F0300341F480613D
:105348006160A261C4F838A02362A36943F40063D2
:10535800A36144E0236A3B4823F480732362226AF2
:105368006168E369844223F0730343F0700306D055
:1053780000F50060844202D042F4407207E022F453
:10538800606221F4405142F4407241F480516160FE
:10539800E361C4F83CA02262E36943F008031DE01E
:1053A800236A284823F480532362226A6168E369E8
:1053B800844223F4E64343F4E04342F4405203D0EA
:1053C80000F50060844201D141F480416160E361ED
:1053D800C4F840A02262E36943F40063E3613A7BC6
:1053E8003B681AB15A6C42F400425A641A8892B265
:1053F80042F001021A80BA7A0C2A18D8DFE802F0C3
:10540800071717170B1717170F1717171300721906
:1054180003F134010AE0721903F1380106E0721948
:1054280003F13C0102E0721903F140015161354476
:105438004046A5F81C90AB6107B0BDE8F08F00BFEF
:10544800D0110020002C0140054B98420CBF054AA2
:10545800054A138801339BB213800020704700BFB0
:1054680000540040481100204A110020400070B547
:10547800C5B22D482D4B00684FF420441C60866946
:10548800360404D52646013C002EF8D112E04668C1
:10549800274C344044F0807444F490342C434460E6
:1054A8004FF420441C608669B60726D42646013C82
:1054B800002EF8D11C601AE02146013C0029F9D0E1
:1054C80081690E06F8D544681949214041F00071F8
:1054D80041F48031294341604FF4204119608469C7
:1054E800A4070FD40C460139002CF8D11960FFF736
:1054F800ABFF003018BF012070BD4FF4204481621B
:105508001C60DDE782624FF420421A6081698906D7
:1055180005D41146013A0029F8D11A60E7E71A6064
:105528002023C361012070BD4411002030200020D9
:10553800009800FC144810B5046854B113490B686E
:1055480064225343124AB3FBF4F31380002303602D
:105558000B60002213460F491144087D062803D02A
:10556800496A8B4238BF0B463432B2F5027FF2D11A
:10557800092B05DDB3F5967FA8BF4FF4967300E0BD
:105588000A23054A136010BD800800208408002003
:105598005C210020800000207C080020F0B5012458
:1055A800B0FBF4F58D4201D34C43F9E70026D4B1A2
:1055B800B0FBF4F504FB1500B4FBF1F41EB9002DA3
:1055C80001DC002CF3D1092D03F1010EEFB204DD4B
:1055D800002A14BF3725572500E030253D441D70AB
:1055E80001367346E3E71C70F0BDF0B50124B0FB4B
:1055F800F4F58D4201D34C43F9E70026D4B1B0FB52
:10560800F4F504FB1500B4FBF1F41EB9002D01DC20
:10561800002CF3D1092D03F1010EEFB204DD002AAD
:1056280014BF3725572500E030253D441D7001364D
:105638007346E3E71C70F0BD03685A1C02601970DA
:1056480070472DE9F843089E002B07468846144604
:1056580014BF4FF030094FF02009334613F8012BDF
:105668000AB9254603E0002CFBDD013CF6E7002DD6
:1056780004DD38464946C047013DF8E724EAE474AA
:105688003546A01B284415F8011B11B13846C04700
:10569800F7E7BDE8F883024B186801F00ABB00BFC2
:1056A8007410002090ED056AD0ED017AD0ED004A23
:1056B80090ED024A90ED077AD0ED035A90ED045A26
:1056C80066EE277AF0EE406AE4EE807AD0ED064A7C
:1056D800C0ED056AE4EE247A80ED066AE5EEC77A45
:1056E800D0ED085A80ED087AE5EE657AB0EE670AE3
:1056F800C0ED077A704710B52E4B2DED048B93ED56
:10570800008ADFED2D9A08EE900AB8EE488A242028
:105718000DF08EFF28EE298AB7EE009AC9EE089A96
:105728000446002842D0F8EE688A9FED248A28EEC5
:10573800880A80EE298AB0EE480A0EF027F9F0EEC2
:10574800409AB0EE480A0EF09BF8F0EE408A9FEDC2
:105758001C0A28EE000A80EE290A0EF017F9002329
:10576800A36163612362E361B0EE497A79EE686A06
:10577800A9EE807AF6EE007A66EEA77AA9EEC09ACC
:10578800C7EE877AC6EE876AC4ED007AC4ED027A5E
:10579800F8EE007A68EEA78A89EE079AC8EE878A3B
:1057A800C4ED016AC4ED038A84ED049ABDEC048B50
:1057B800204610BDAC2D0020BD378635DB0FC94013
:1057C800CA92283F10B50278202A034600F101004A
:1057D800F9D0092AF7D02D2A03D10346BFEE000AD3
:1057E80004E02B2A08BF0346B7EE000ADFED387A3B
:1057F8001A46134612F8010BA0F13001CCB2092C5D
:105808000AD807EE101AB8EEC77AF2EE046AA7EEC5
:10581800A67AF0EE477AECE72E2816D1F2EE046A63
:105828001146B0EE666A0B4611F8012B303AD0B239
:1058380009280AD807EE102AB8EEC77A87EE267A22
:1058480066EE866A77EE877AEDE71A7802F0DF026D
:10585800452A35D15A782D2A02D10233012004E095
:105868002B2A14BF013302330020013B002213F816
:10587800011F3039CCB2092C03D80A2404FB0212C8
:10588800F5E7B2F59A7F28BF4FF49A721346B7EE40
:10589800007A072B05D9DFED0F6A083B27EE267A39
:1058A800F7E702F007032BB1F2EE046A27EE267A37
:1058B800013BF8E7F0EE476A20B1C7EE877A03E0CC
:1058C800F7EE006A67EEA67A20EE270A10BD00BF41
:1058D8000000000020BCBE4C30B52DED028B87B017
:1058E800B0EE408A0C220021054603A810F09CFB6C
:1058F800B5EEC08ADFED2A7AF1EE10FACCBF38EEA9
:10590800278A38EE678ADFED277A28EE278A6946E4
:10591800FDEEC87A17EE904A84EAE470A0EBE470D2
:1059280009F0E6FD002CACBF20232D2368468DF836
:105938000C3010F0B9FB012807D130238DF80D3059
:105948008DF80E308DF80F300CE0022805D1302389
:105958008DF80D308DF80E3004E0032804BF302395
:105968008DF80D30694603A810F084FB03A810F0E9
:105978009BFB0338C4B2224603A9284610F0BEFB9D
:1059880000232B552846084910F074FB03AB284622
:10599800191910F06FFB284607B0BDEC028B30BD1B
:1059A8006F12033A00007A447187010870B5064601
:1059B80015460846B6FBF2F414B12046FFF7F6FF89
:1059C80005FB1464024B1B5D00F8013B70BD00BF72
:1059D800738701082DE9F04F814689B08A4616463B
:1059E8001C4600253178002900F0DD80252902D0E9
:1059F8000136484675E07278302A08BFB278A2F1BD
:105A0800300319BFB71C4FF0000BF71C4FF0010B08
:105A1800092B4FF0000819D8A2F13003D9B209298F
:105A280005D80A2202FB083817F8012BF4E7A2F17F
:105A38006103052B02D8A2F1570305E0A2F1410347
:105A4800052B03D8A2F137030A2BEADD6C2A31D1E2
:105A58003A78642A07F1010600F083800BD8252ADA
:105A68003DD003D8002A00F09E80BBE7582A0CD00E
:105A7800632A19D0B6E7732A22D002D86E2A37D003
:105A8800B0E7752A5CD0782AACD1271D2068A2F12E
:105A9800580462424FF01001624155E02CD9582A4F
:105AA80032D0632A2AD13E4648462178271DD0475E
:105AB80001350FE0642A64D00ED9732A14D13E460A
:105AC800236800934846514642460023FFF7B9FD34
