:020000040800F2
:1000000000A000209D0D01087FC700086DFA0008C0
:100010007DC700087BC7000879C700080000000002
:1000200000000000000000000000000077C700088A
:1000300075C700080000000073C700086F5B000868
:10004000050E0108050E0108050E0108050E010840
:10005000050E0108050E0108050E0108050E010830
:10006000050E0108050E0108050E0108050E010820
:10007000050E0108E94D0008F7BA0008050E010851
:10008000050E0108050E0108050E0108050E010800
:1000900025C80008050E0108050E0108050E010817
:1000A00005DC000831DC0008F5DB000841DC000855
:1000B00025DC000815DC0008050E0108050E010806
:1000C000050E0108050E0108050E0108050E0108C0
:1000D000050E0108FDDD0008F1DD0008E5DD000882
:1000E0007D5B0008050E0108B9F60008050E010841
:1000F000050E0108050E0108050E0108050E010890
:10010000000000000000000000000000050E0108D3
:10011000050E0108050E0108050E0108050E01086F
:10012000050E0108050E0108050E0108050E01085F
:10013000050E0108050E0108000000000000000087
:10014000050E0108050E0108050E0108000000005B
:10015000000000000000000000000000000000009F
:100160000000000000000000050E0108050E010857
:10017000050E010800000000000000000000000063
:0801800000000000050E01085B
:100188002DE9F04FA44C2378092B9CBFA34A3421B6
:100198002DED0E8B98BF01FB032393B094BF9F6A8C
:1001A80000279F4D9F4EEB680BA898479DF82C3071
:1001B80023B12378092B0CD900230FE005F0A2FC0A
:1001C800994B1B68FB1A1844336864339842E8D388
:1001D800EFE7924A342101FB03239B6AD6ED000A1C
:1001E800924A9FED939A934C934E9BB2F8EE600A15
:1001F80007EE903A138060EE890A904AB8EE670AD3
:1002080020460121C2ED000A09F0CCFCFCEEC07AC0
:10021800894817EE903AA3816B68984740B9884D92
:10022800DFF834922B6813F0020F40F0CA80DCE349
:1002380025692DB3B71E0020824900F1180301EB90
:10024800000C0B44624605F1FF3E002132F8028F94
:1002580022F8028C1EF9019F9A4218FB0911F5D168
:1002680037F8023FACF8183095F90C201A304E28B0
:1002780013FB02134FF4807293FBF2F33B80DBD144
:100288006D48714F94F862206A4D014607F028FCCA
:100298003B8805F1B00A002B6BD06B6E1B7808EE1B
:1002A800103A05F168084FF0000974353988B1F53E
:1002B8007A7F02BF0023C8F800302B61D8F80020ED
:1002C80036F919301A4407EE903A2B69C8F800201D
:1002D8000133012B4FEA490BF8EEE77A2B6106D17F
:1002E8000023C5ED017AC5ED007AAB601BE0D5EDC2
:1002F800006A07EE103A37EEE66AB8EEC77A86EE7D
:10030800077A36EE877AD5ED026A85ED017A77EEBF
:10031800C77A85ED007AE6EE276AF0EE667AC5EDD3
:10032800036AC5ED026A0023012926F80B302AF872
:100338000B302AD12B69012BC3BF03F1FF3300EE29
:10034800103AD5ED037A9FED410AC4BFB8EEC00A52
:1003580087EE800A12F00EFF18EE103A5BB1F8EE45
:10036800C87AB4EEE70AF1EE10FA04DD4FF47A73B6
:100378003B8000231AE0D8F800304FF47A7203F576
:10038800FA7393FBF2F32AF80B3009F10109B9F17A
:10039800030F08F1040805F1140587D138880128EE
:1003A80001D105F011FC3B88013BE1E736F8132049
:1003B8003AF81310521A26F813200133032BF5D1FB
:1003C8002DE7234B1B78002B00F00F8305F09AFBD9
:1003D800D4F8B830C4F8B800C31A0AEE103A0027A7
:1003E800D4F8BCB0DFF874809BF80010C1B339F9B9
:1003F8001730F8EE4A0A00EE103A164B0C2000FBB4
:100408000730B8EEC00A60EE890A09F0CBFBFDEEB2
:10041800C07A17EE903A25E02C03002098000020BF
:10042800841400207C2E0020500F00208011002012
:10043800BD378635A0080020BC1100208813002095
:100448008C110020B4080020082F002000000000B4
:10045800EC2E002060090020BC2E0020B6110020E0
:1004680039F8173028F817300137032FB8D1B8F802
:1004780000300593B8F80220BDF81430B8F804101D
:100488002F6812FB02F913FB0399A14B11FB019989
:10049800642000FB09F0B3F8009017F0080709FB87
:1004A80009F99A4690FBF9F9A9F152090DD0994832
:1004B800B0F900703FB1B0F9027027B1B0F904701B
:1004C800003718BF012707F00107B6F90030D4ED4F
:1004D800395A904809920AEE903AB6F90230B0F8C3
:1004E80000C008910BEE903AF8EEEBBAB6F904307A
:1004F80046888088CDF81CC06BEEA5BAF8EEEAAA4B
:100508000BEE103A6AEEA5AA2BEEAB0AB8EECBBA00
:10051800AAEEAA0A0690804DDFED808A2BEE25BA56
:10052800F8EE4A7AABEE0B0A27EE899A12F022FE11
:10053800F7EE009AB0EE40CA0698DDF81CC008999C
:10054800099A002F5BD00FFA8CFC07EE90CA33B2E1
:10055800B8EEE7DA08EE103A2DEE0D0AB8EEC88AC2
:1005680000B207EE900AA8EE080AF8EEE7CADFED37
:100578006C7AACEEAC0AB4EEE70AF1EE10FA3EDDA6
:100588000792069112F0F6FD89EE800AD5ED017A00
:1005980095ED007A28EE008A2DEE00DA68EE277ACB
:1005A8006CEE80CAE7EE0D7A95ED040A95ED027AB5
:1005B80028EE008AE7EE2C7A95ED037AA7EE0D8AED
:1005C80095ED057AA7EE2C8AB0EE68DA28EE080ACF
:1005D800F0EE68CAA7EEA70A12F0CCFDD5ED067AB0
:1005E8000699079A20EE480AA7EE80DAD5ED077A31
:1005F800E7EE80CAD5ED087AE7EE808A03E0F0EEF0
:1006080068CAB0EE68DAB9F1260F3ED8BDF91430E1
:1006180007EE903A12B2B8EEE78A07EE902A28EE73
:10062800080AF8EEE7DA09B207EE901AADEEAD0A5D
:10063800B8EEE7EADFED3A7AAEEE0E0AB4EEE70A74
:10064800F1EE10FA21DD12F095FD89EE800AD5ED64
:10065800076A95ED087A2EEE00EA6DEE80DA66EE0E
:10066800CE7A28EE008AEDEE877A27EE487A3DEEBC
:1006780027DAD5ED067AAEEE277A67EEED7A7CEECC
:1006880087CAE8EE267A78EEA78ADBED017AF5EEDE
:10069800C07AF1EE10FA4FF000031FDD9FED217ACA
:1006A800B4EEC7CAF1EE10FA1ED567EE8D6A94ED66
:1006B8003A7AA6EE897A67EEAC6A84ED3A7A94EDD6
:1006C8003B7AA6EE897A67EEA87A84ED3B7A94EDB8
:1006D8003C7AA7EE897A84ED3C7A05E0C4F8E830E4
:1006E800C4F8EC30C4F8F0300F4EDBED027A337802
:1006F80059071DD40D4B1A6844F61F639A42F7EE4A
:10070800005AB2EE047A98BFF0EE475A12E000BFE2
:10071800080000200A1200203C16002000000000FB
:100728000AD7233CC2B8B23E0B2F00208C2E0020E3
:10073800F7EE005A67EEA55AD4ED3C6A94ED3A7A82
:10074800D4ED3B7ADFF85093C74A99ED004AC74B7E
:10075800D2ED003AC64F0692E5EEA86A0593A5EEDB
:100768008D7AE5EEAC7A3BEE26BAF6EE006A69EED3
:10077800266A7BEEA77A3AEE877A27EEA66A27EEF4
:10078800267A6BEE266A26EE445A24EE260AD3ED24
:10079800007AD7ED004A9FEDB78AA7EEC75AA3EEB5
:1007A800870AF1EE645AA5EEA65AA5EE860A66EE09
:1007B800E75A37EE800AE3EE865A67EE867A33EE1A
:1007C800855AE4EE875AE3EEA67A83ED000A20EE16
:1007D800000A74EE255AA5EE050AE4EE477AA5EE5E
:1007E800A50A74EEA77A82ED005AA7EEA70AC9ED0A
:1007F800005AC7ED007A12F0BDFC89EE800A069A0D
:10080800059BD2ED007AD7ED009A67EE807AC2EDAB
:10081800007AD3ED007A67EE807AC3ED007AD9EDDD
:10082800007A67EE807A29EE800AC9ED007A87EDB2
:10083800000A05F05FFCD5ED080A95ED070A8E4F12
:1008480012F096FC20EE080A12F0EAFB95ED060A73
:100858003880B1EE400A12F02DFCDFED887A37EED1
:10086800C00A20EE080A12F0DBFBD5ED000A95ED70
:10087800030A788012F07CFCD4ED3D7AE0EE487AE9
:10088800B0EE670A12F0CCFB83B21A0458BFBB80E3
:10089800D5ED085A7A4BD4ED3E7A1A7895ED010ACF
:1008A80095ED065AF4EEE75A44BF00F56160B8804A
:1008B800F1EE10FACCBF42F0080222F008021A70DA
:1008C800B8F90030D5ED007A06EE103AB8F90230E2
:1008D80007EE103AB8EEC77AB8EEC66AB8F904302F
:1008E80027EE000A06EE903AA7EE860A9BF801303A
:1008F800F8EEE66AD5ED027AA7EEA60A012BD5ED49
:10090800077A67EE277AE5EE067AE5EEA67AD5ED60
:10091800045A27EE257AD5ED035AA5EE867A95ED89
:10092800056AA6EE267AB1EE478A18D133785D07B4
:100938000FD4D4F8FC30402293FBF2F29B1A07EE56
:10094800103AB8EEC77A37EE277ABDEEC77A84ED4B
:100958003F7AD4F8FC30402293FBF2F301E0BAF876
:100968000030D4ED408A07EE103AB8EEC77A77EE39
:10097800C77A94ED417A39EE077A77EEE87A89EE0C
:10098800079AE9EE278AC4ED408A12F049FBD4F8A9
:100998000851297809F05AFBD4F80C31B0EE480A0E
:1009A8001844C4F80C0112F03BFB297809F04EFBFF
:1009B800D4F81031B0EE680A1844C4F8100112F0E7
:1009C8002FFB697809F042FBD4F814312D4A1844FA
:1009D8001AEE101A1368C4F814011944D4F818311F
:1009E80011600133C4F8183106E00023A9F800307B
:1009F800A9F80230A9F80430234BB3F90610234BA9
:100A0800D3F800E0BEF80A2091420FDBB1F5FA6F87
:100A18009EF80750BDBF8B1A6B43A2F5FA65C5F166
:100A28006405BCBF93FBF5F5643500E06425184BFD
:100A3800184AB3F894C193F95E31126805929BB2D3
:100A4800164606930022104B33F91280CCEB0803AC
:100A580003F2F31440F2E63084424FEA42091DD80B
:100A6800002BB8BF5B421BE01C00002030160020A2
:100A7800381600204C3D0F44F0110020DB0FC93F11
:100A880050100020F02E00209E220020FC11002093
:100A98005C230020D4110020341600204FF4FA7390
:100AA800022A059C4FF064002AD094F81D411CB11D
:100AB800A342CCBF1B1B0023B54C93FBF0F76FF090
:100AC800630B34F817A00BFB073B013734F91740C9
:100AD8000FFA8AF7E41BAF4F04FB0BF494FBF0F416
:100AE800544427F809400EEB020424796343AA4CC6
:100AF80093FBF4F364339BB26B4393FBF0F02CE06D
:100B080094F81E411CB1A342CCBF1B1B0023A34C6D
:100B180093FBF0F06FF0630A0AFB003B04EB40071D
:100B280004EB4000B7F91C71B0F91E01C01B00FBB3
:100B38000BFBBDF818009BFBFAFBC7EB0B0717FB79
:100B480000F7944887809EF80600002BB8BF5B42E8
:100B58004343914893FBF0F064307478904B6427DA
:100B6800444394FBF7F49C5403F1030AF47A444396
:100B780094FBF7F40AF802400633747D022A00FB5E
:100B880004F0844C90FBF7F09854864B0DD1E04567
:100B98009F700DDB844DB5F89621914214DBB1F5B9
:100BA800FA6FA8BF4FF4FA610FE0E0459D5404DAEC
:100BB80034F809305B4224F809300132032A06F17F
:100BC80001067FF440AFE5E71146DFF81CE2714EFD
:100BD800891A4FF47A736FF063005943C2F5FA62C9
:100BE8006423B1FBF2F191FBF3F23EF8127000FBC3
:100BF8000211013238B23EF91220121A514391FB08
:100C0800F3F33B44E380694B1B8858063CD5684B9B
:100C1800DFED687AB3F904309FED670A0A2293FB87
:100C2800F2F35E4AB2F834219B1A1BB208EE103A6E
:100C3800B8EEC88A28EE278A38EE000A09F015FAB5
:100C4800F0EE408AB0EE480A09F00FFAB6F9023021
:100C580006EE903AB6F90030F8EEE66A07EE903AFA
:100C680020EE667AF8EEE77AA7EEA87A67EE807A41
:100C7800BDEEC77AE6EEA87A17EE103AFDEEE77AEF
:100C8800338017EE903A738095F89A31002B51D043
:100C9800424B9A89B3F83601B0FBF2F0474A461C3A
:100CA8001278B6B2A3F8386112B3B3F83A910023B8
:100CB8003A4F34F813C007F5A27E07F59E783EF840
:100CC800132038F813102EF813C0C2EB0C0A11FBCE
:100CD80009F132B291FBF2F2524428F813200133A1
:100CE800042BE5D1354BA7F83A0100221A7004E02D
:100CF800B3F83A21013AA3F83A21284AB2F83A015E
:100D080003B2002B4FF0000312DDB2F938612C4911
:100D180031F81320083112FB00F231F8131092FB5E
:100D2800F6F28A1A24F813200133042BEFD101E0DC
:100D3800A2F83A31234B244E1A7812F0040F03D04C
:100D4800224B20221A8560E03168C9075CBF42F057
:100D580001021A701E4A127812075EBF1A7822F032
:100D680001021A701B4A11881B4A19B11B490968EC
:100D78008F0706D41A49098819B91A4800886428BF
:100D880034D9022111701A7822F001021A7033E066
:100D9800E2180020701300200CFEFFFFA0080020BE
:100DA800CA090020781300205C230020901100203D
:100DB800F011002035FA8E3CDB0FC93FB01000203F
:100DC800DC0900200B2F00209411002000040048AB
:100DD8005010002060100020B42E00208C1100203C
:100DE800082F002070220020CA1800201B78D8077E
:100DF80056BF02231170137004F084FEAB4B1B68BE
:100E0800C01A002801DB0EF05BFFA94B9B680BB1F1
:100E1800A8489847A84B1B78ABB1A84BB3F9062054
:100E2800B5F896319A420EDCA54B5B79012B01D0BF
:100E3800192B02D195F8E6212AB90E2B03D0082BDD
:100E48001CBF0023A3809F4B1A6892F82471984610
:100E58009FB39D4B1B889B072FD09C4BDFED9C7A43
:100E680093ED080AB4EEE70AF1EE10FA21D912F070
:100E780021F9984BD3ED537A20EE270A12F0D0F8D7
:100E8800B0F5617FA8BF4FF4617007EE900AB8EE25
:100E9800E70ADFED917A80EE270A09F0E6F807EE17
:100EA800907AF8EEE77A27EE800A12F0B9F880B265
:100EB80000E00020E3881844E080884B1B784BB1A1
:100EC800874B00221A605A609A60864B00221A608B
:100ED8005A609A60844BD8F80000B5F86A210093EC
:100EE800824B1F68824B196800F16403B847814B35
:100EF80078491878804B03281BD9D1F85021B2F8CB
:100F080002C0BCF5FA7F14D2B4F904E0B3F9048046
:100F1800BEF1000FB8BFCEF1000ECCF10007CEEB4A
:100F28000702904504DB0CEB0E024245A8BF42467F
:100F38009A80326817010CD5D1F85091B3F802C0E5
:100F4800B3F80080B3F904A06C4E00210A460F469E
:100F58007DE06B4A126812F48052EDD1694ED1F8E7
:100F680050C132705F88E688B3F800E0B3F90480B6
:100F78006549824201F1100180F00E819CF9003030
:100F880051ED045ADFF888915B4208FB03F307EE42
:100F9800903A0FFA8EF306EE903A33B206EE103A14
:100FA8003BB2B8EEE77A07EE903AF8EEE77AB8EE99
:100FB800C66A67EEA57A51ED065AE6EE257AF8EE8E
:100FC800E66A11ED056AE6EE867A51ED036AE7EE08
:100FD800267AFDEEE77A17EE903A29F812300132B8
:100FE800C7E799F9003096ED016A5B420AFB03F303
:100FF80007EE903A0FFA8CF306EE903A0FFA88F360
:10100800B8EEE77A07EE903AF8EEE77AF8EEE66A95
:1010180067EE867A96ED026AE6EE867A0DF12C0E78
:101028000FFA82FBD6ED036AE7EE267AFDEEE77A41
:10103800CDED057ABDF814302EF817300FFA83FE7F
:10104800DE4507DD1A460B4601371036194687423A
:10105800C7D305E00FFA81FBDE45F5DB1346F1E760
:101068002A4B284E1B685F88B3F800E0521ACEEB73
:10107800070189B20BB212B29A424FF0000349DD60
:101088004FF0010C86F800C083420BD20DF12C0CF6
:101098003CF8136016FB01F696FBF2F62CF8136089
:1010A8000133F1E71FFA8EF6BAB23CE0B82E002001
:1010B800841400201E200020020000209E22002010
:1010C8005C230020D4110020901100203C16002041
:1010D8008FC2753CA0080020EFB6B0440400002081
:1010E8009813002060140020E22400203003002020
:1010F800FC110020E4140020D4130020F40900207F
:101108007C2B00200C2F0020FC090020B4150020A7
:10111800D81100203370022192FBF1F20EEB02038A
:10112800BA1A9EB292B2E7880021814234D20BAB40
:1011380033F9113007EE903A3BB206EE903A6B4B1A
:1011480003EB0113B8EEE77AF8EEE66AD3ED007A1E
:1011580033B266EEA76A07EE903AF8EEE77AF4EE55
:10116800E76AF1EE10FA0BD413B207EE903AF8EEF4
:10117800E77AF4EEE76AF1EE10FAD8BFF0EE667A95
:1011880077EE277ADFF878E1FDEEE77A17EE903A06
:101198002EF811300131C8E7554BDFF884E11A7891
:1011A80002F0040202F0FF0312B99EF800207EE06C
:1011B800504B5149DB780693504B186810F0006388
:1011C80005931DD10B68DE0418D44D4A9EF80070B3
:1011D80013880126BE420FFA83FC07D232F9163073
:1011E8006345B8BF63469BB20136F3E7454A1268C8
:1011F8005288944504DD9A1A92B202E0059A00E0FA
:1012080000220B6840499EF800B0B1F906603F49DA
:10121800D1F814C23E4903F480590F68394903F0E4
:1012280010030793364B096803EB4B0B5B4535D02E
:10123800059850B9B9F1000F40F01684B3F800E0F2
:10124800C2EB0E0EA3F800E003E0B9F1000F40F086
:1012580016840698B1F80280B3F900A040B1B1F83D
:1012680004E0F24516DBC245D646A8BFC64611E0E3
:10127800B1F800E0F24503DBC245D646A8BFC64632
:10128800A3F800E0BCF810E0764505DA079818B135
:10129800B1F804E0A3F800E00233C7E71B4890F870
:1012A8001832013BDBB2182B00F23D8109E0934272
:1012B800F4D2184931F81300114921F81300013309
:1012C800F5E701229A40144B1340002B00F02B81C4
:1012D800124B0D491B8813F4807F23D02388ADF867
:1012E8002C306388ADF82E30A38831E0F409002053
:1012F8000B2F0020902E00207C2B00209411002022
:10130800D8110020B41500209E220020A00800203B
:10131800B01500204A220020992098019011002041
:10132800E4140020B54B1A88ADF82C205A88ADF883
:101338002E20B34A9B881268ADF83030D40409D502
:10134800D0F81422B1F90640D289944202DA5B42FD
:10135800ADF83030AB4CB4F902304FF47A7203F583
:10136800E16353434FF4616093FBF0F3A3F5FA7321
:10137800ADF84430B4F9003003F5E1635A43A24BA9
:1013880092FBF0F21B88A3F2DC53ADF832309F4B8E
:10139800A2F5FA72D3F81432ADF84620DB890A8830
:1013A800D21AADF834204A88D21AADF836208A8885
:1013B800D21AADF83820CA88D21AADF83A200A896C
:1013C800D21AADF83C204A89D21AADF83E208A8953
:1013D800D21AADF84020CA89D31AADF8423000239A
:1013E8008B4A002122F813100133082BF8D1894ABF
:1013F800894B12680592894A1B78126888490692B7
:10140800884E072202FB031B594572D00B7833B173
:1014180003F1150201239340059A134065D011F892
:1014280006CC069B11F805AC11F8034C11F8018C99
:10143800CCEBCC0E03EB4E0E6420BEF90020BEF9B7
:1014480002309B1A9BB211F9022C4FEA53095A43F6
:101458004FEA4A0792FBF0F212A8C9EB020292B2D5
:10146800074414B937F81C0C0CE0B6F9000037F93A
:101478001C7CB84208DA0444844203DBA74238469D
:10148800A8BF2046308008E007DD041BBC4203DB10
:101498008442A8BF044627463780DEF80A4011F97F
:1014A800047C012000FA0AF02042308812B217FBAF
:1014B80000F014BF4FF0FF340124642790FBF7F0CD
:1014C80090420ADB4FFA88F25A4392FBF7F2C9EBD3
:1014D800020212B28242A8BF02464D4B33F81C905A
:1014E80002FB049423F81C4000E0338002360731E5
:1014F8008AE74A4B4C4FD3F8008000260E2202FBA5
:10150800068237F8023F92F90640F0B214FB03F363
:10151800642493FBF4F43C8004F0D2FD01362044AB
:10152800082E3880EAD1364B394E1A683B4F12F0F4
:10153800200F984632D0002004F0C2FD30800446C7
:10154800012004F0BDFD334B70801B68190625D5BA
:101558002E4B2C4AD3F83C321B78012B22D1396808
:10156800138891F914E0B2F902201EFB03F34FF03F
:10157800320C93FBFCF31FFA83FE91F906305B42B1
:1015880053436FF0310193FBF1F10EEB0102A11807
:1015980093FBFCF37344318018447080D7F800E063
:1015A800002318E0D7F800E053889EF9061011FBD5
:1015B80003F1322391FBF3F12144318011889EF924
:1015C800142012FB01F292FBF3F21044E5E7013319
:1015D800082B32532AD00E2101FB03E136F9130000
:1015E800B1F90020B1F9021090424FEA4304EEDB52
:1015F8000AB28242A8BF0246E9E700BFD41300201E
:101608007C2B0020F0110020D8110020A008002019
:10161800C211002094110020B81500209C1600204B
:10162800BF150020BA0A0020C0110020A54CD4F82C
:1016380050A19AF90830A3B994F8189209F1FF3328
:10164800182B72D8DFE803F03571714F717171484A
:1016580071717171715971717171714F65717159D0
:101668003500DFF884B24FF00009974B3BF9021FB1
:10167800BAF90620882000FB093004F04BFB3A68D1
:101688000E2380B203FB0922ABF80000B2F9003048
:10169800B2F9022000B2984203DB13B28342A8BF1A
:1016A800034609F10109B9F1080FABF80030DCD1A4
:1016B800C2E79AF8043013B10020718908E0834B1F
:1016C8001B7803F0040303F0FF00002BF4D101465C
:1016D80003F07AFB012729E00020F18803F074FB6E
:1016E8000120318905E00020318903F06DFB718903
:1016F800012003F069FB022718E00227B81E36F81C
:101708001710C0B2013703F05FFB082FF6D1062788
:101718000CE00327F81E36F81710C0B2013703F0A3
:1017280053FB072FF6D1042700E00027D8F8003034
:101738009A0602D4B9F1050F0AD13846318803F068
:1017480043FB781CC0B2718803F03EFB0237FFB23E
:10175800D8F80030DB0205D494F880367BB104F069
:10176800F5FB0CE0DFF884910026B819C0B239F80F
:10177800021F03F029FB0D2EEED00136F5E7544B7E
:101788001878002840F09A81D8F800301E0340F1FC
:10179800958194F88136023B052B20D84D4B93F860
:1017A800D03733B1012B0AD109F0CCF9C0F17F0051
:1017B80005E0444BD3F8840603689B689847D4F83F
:1017C800883694F88C261344B3F5807FA8BF4FF46D
:1017D80080738342D4BFC4F88836C4F8880694F866
:1017E8008136023B082B00F22E81DFE813F0090056
:1017F8003F002C012C0158008100F0000E011B0154
:10180800354B1A68D4F8943664339A4240F21B81F7
:1018180040200BF07FFE002840F0158140272F4B19
:10182800D4F89026274E985C1D4670B109F036FC16
:10183800D6F88836013BC6F88836D6F89036013F88
:1018480003F10103C6F89036E9D1D4F890261D4B70
:10185800AA5C002A40F0F780C3F890264FF0FF32C8
:10186800C3F89426032283F88126ECE0252300930D
:101878001B4B019303F10C0202924920A3F10A02C7
:101888005021023309F02EFF002840F0DC804FF091
:10189800FF33C4F89436C4F890060623CCE0114A06
:1018A80005230021009301910291532002F10803BE
:1018B80009F018FF002840F0C680C4F890060723F6
:1018C800BAE000BFA0080020E00A00200B2F00208B
:1018D8000E2F00205C2300208C2E0020643A010883
:1018E800CE3A0108803C0108C0110020A422002043
:1018F80040200BF00FFE002840F0A580D4F8903669
:101908000C2B00F2A780DFE803F0070B0E12182358
:10191800282D3135434D51006B480BF089FF50E0BD
:101928006A486B4911E06B486B496C4A47E06C4860
:1019380095F8CE1795F8CF2741E095F8A83769486C
:101948000C2202FB035595F8AA170BF071FF38E03B
:10195800654B6648B3F84011F7E7634B6448B3F842
:101968004211F2E7634B64481969EEE7634B644838
:101978001988EAE7D4F89836D80404D55A4B614850
:1019880093F87811E1E7604B0B22C3F8902618E032
:101998005E4895F87C1195F87D2195F87B310BF020
:1019A80047FF0EE05A48B4F89C16CEE7D8F8003046
:1019B800190506D55748B5F88011B5F97E210BF001
:1019C80037FFD4F890360133C4F890363BE0524BD9
:1019D8001B689A0116D5B4F8A0364B4D93B9D5F8C3
:1019E800A4360B934D4B0E201B680C930BA909F0E2
:1019F800F9FB4FF48053A5F89E36092385F8813604
:101A080009F048FC09F0D0FB1DE094F8A836002B3B
:101A1800F6D0414B1B689B01F2D43B4B082283F85C
:101A28008126EFE73E4B1A68D4F89436C8339A42B9
:101A380005D90BF0B5FD012384F8813603E00BF0DE
:101A4800C9FD0028F5D10BF095FDB8B3012384F842
:101A5800813633E00BF0BEFD0028F4D04FF48053FC
:101A6800A4F89E360923E7E7BCF80E80B7F806E02D
:101A7800CEEB080A564502DDC644764516DBBCF8AF
:101A88000EE0B3F900807645CBBFB7F802E0B1F8B5
:101A980004E0B1F802A0B7F800A0F045FFF6FAABF1
:101AA800D045C646A8BFD646FFF7F4BB4645CCBFCF
:101AB800B7F802E0B7F800E0FFF7ECBB13B0BDECF5
:101AC8000E8BBDE8F08F00BFA85C0108C25C01085E
:101AD800D75C0108DF5C0108F35C0108FF5C0108C2
:101AE800085D0108195D01085C230020235D0108D9
:101AF800325D010884140020415D010808000020BF
:101B0800515D01085B5D0108A0080020685D0108BF
:101B1800815D01088C5D010894110020500F0020A0
:101B28008C2E00202DE9F04F9F4C226802F59C4333
:101B38002DED028B203363609C4B1E7887B0C6B1B5
:101B48009B4909688A4240F20181013E1E70FDE00E
:101B5800984F99483B68072D98BF595D974B88BFA8
:101B680029461B689847032D09D904EB450501361A
:101B780028810EF03BF8F5B28542E9D31FE03A68B8
:101B880005F10E0302EB8303D9881A890028ECD0EB
:101B98004FF47A73401A5843531A90FBF3F040F607
:101BA800C90300F57A70984205DC40F2EE239842AA
:101BB800B8BF184601E040F6CA0080B2D5E7804BAE
:101BC800804F1B68D7F8008042F2010903EA09092F
:101BD800B9FA89F94FEA59197B4BB9F1000F05D1C8
:101BE80094F82C201A70794A517811701E781EB119
:101BF800764B1E7886F001060F23DFF8ECA184F8F7
:101C08002D3000250DF0F2FF854264DA4FEA450BCE
:101C18001EB16F4B33F8150000E03046654BDFF816
:101C2800CCE11968CB8A83424FEA8502694B02D816
:101C3800098B814219D25EF802205B49904502D295
:101C480033F80B0015E0E8B28DE80A000DF0E4FF68
:101C5800032D019B0DDC0099012291F82DE0AA408B
:101C68002EEA020281F82D2003E008F596714EF85D
:101C78000210B9F1000F28D194F8C0100322B1FB6B
:101C8800F2F202EB42028A1A0BEB050E5EFA82F2BE
:101C980004EB4202D08594F8C1202AB9022914D94C
:101CA800414A012182F8C110BAF800203AF8020C22
:101CB8001044BAF802201044474A80B222F80B00B8
:101CC80000B2032290FBF2F080B223F80B0001353A
:101CD8000AF1060A96E794F82D20404BA2F10F0E60
:101CE800DEF1000242EB0E0284F8DA206AB13C4AC7
:101CF8001268560109D43A68D9689A60521AC82AF3
:101D08001FD9012283F821201BE0304A012151709C
:101D180011703A689968DA605B68521A9A4282BF11
:101D28002E4B002283F8212000250DF05FFF85420D
:101D380007DAE8B20DF070FF264B23F815000135DD
:101D4800F3E794F8C030013384F8C0301C4B1A68AC
:101D580012F4805F984605D0214B1B68DD0701D43B
:101D68000DF04AFE134B104E1F682168BB7A002BFA
:101D78003ED0013B17483A7B30F813301AB1C3F50F
:101D88003B6308339BB21BB2A3F57A73B3F57A7F32
:101D9800A8BF4FF47A7323EAE37307EE903A9FEDF6
:101DA800117AF8EEE77A5BE0500F0020882E0020C9
:101DB800842E0020802E00203C2B0020AC02002026
:101DC8007C2B00208C2E002084190020000000208D
:101DD800580F00209E22002012100020902E002074
:101DE8009411002000007A44800F0020C80F0020C2
:101DF800D8F8002010043FD5D6F8DC208A1A002A2B
:101E08003ADB01F59C422032C6F8DC20AC4A507916
:101E1800AC4A32F81050A8B2FD7A90FBF5F596F866
:101E2800E000013000F00F0286F8E020324482F82A
:101E3800E1501A46A448185C01330244102B92B2B0
:101E4800F8D112B292FBF3F31BB2642BA8BF642340
:101E580023EAE37307EE903A9FED9C7AF8EEE77A6F
:101E6800C7EE877A9A4A9FED9B7A67EE877AFCEEEF
:101E7800E77A17EE903A1380D8F80030964D13F4AD
:101E8800807F00F0EA80954BDFF85492994205D99B
:101E980099F8022012B9012289F8022099F8022043
:101EA800002A00F0DA808E4A2F7892F82160721E9C
:101EB800564256418B4A1168002EC1F38063C7F31E
:101EC80080070093924614BF4FF0000B4FF0030BAE
:101ED80099F82020052A00F2BA80DFE802F0034DC5
:101EE800527584A1002F3AD0D4F8F400B4F8F81051
:101EF80003F0C4FD012809D17B497C4A09681268AE
:101F0800C988642000FB0122C9F81020009B6BB12E
:101F1800754A126812794AB106F0E8FF032289F877
:101F280020204FF47A72C9F81C20D1E7002E40F027
:101F38008E806E4AD9F810101068694A88420AD90A
:101F4800019206F0D3FF019A032182F8201040F68F
:101F5800B831D161BCE7012182F82010B8E7009BB5
:101F68004FF4806013B108F0F1F801E008F0DEF8F2
:101F78000022C9F810206AE0002E46D106F0B6FF0C
:101F8800A6E726B1052289F82020012000E0304686
:101F980067B1D4F8F420D189554A118051809180D5
:101FA800514909684988D1804FF0020B4F4A11689E
:101FB800D9F81420914201D8002F45D147F2305268
:101FC800C9F81C20032221E02A7842F002022A7074
:101FD8000DF012FD454AD9F81C1012680A44C9F8D8
:101FE8001820042212E0414A9EB11168D9F818203D
:101FF80091422CD93F4A92781AB9DAF80020D307CF
:1020080025D42A7822F002022A70052289F8202095
:102018005EE71268D9F81C100A44C9F8182016E0BF
:102028003149324A09681268C988642000FB0122D4
:10203800C9F810204FF48060002289F8202089F820
:10204800032008F073F843E700287FF441AFBBF1A1
:10205800000F02D0584603F0B7FD274E254FB6F8BB
:102068004E1106F5C37003F009FD8246002847D1DA
:102078001C4B1B6813F0006908D0FB7833B90CF0CF
:1020880087FD1E4B012818BF002018702B785807B1
:1020980009D5D8F80030D90605D4B9F1000F02D017
:1020A800FB78002B4BD0114B1B6803F57A73012288
:1020B800C4F8FC30114B3A71FA7000221A703EE0F5
:1020C800CC170020DC170020311000200000C84287
:1020D800F611002000C07F440B2F0020404B4C001D
:1020E800902E002094110020901900208C2E0020A2
:1020F8009E220020000000205C2300200D2F0020DD
:10210800D8F80030DA0615D42B785B0712D5924B35
:102118001B6818010ED5FB7863B1904B1A68D4F888
:10212800FC309A4209D90CF033FD30B98C4BF87069
:10213800187002E08A4B00221A7000233B712B783A
:1021480059073AD5D8F80030DA0636D594F8003170
:10215800DFF81092DB0630D4BB7843B396F8E03151
:10216800BAF1000F11D15BB17C4B1A68D9F8043170
:102178009B1A002B04DA0DF03FFC89F808A11CE03B
:10218800102003F021FD01230EE03BB1734A1268D1
:102198004FF47A7101FB0323C9F8043194F808312C
:1021A8005BB103F0F9FC002384F8083105E0BAF1CB
:1021B800000FE5D099F80831F2E7002296F8DEB171
:1021C80096F8DF11B6F896E1B6F898C11346DFF82D
:1021D800A491CDF8009039F912009B087045C4BF4E
:1021E80063F07F03DBB201326045B8BF43F04003C0
:1021F800042AECD194F809215A489A4205D190F85A
:102208000A21F92A04D8013200E0002280F80A21C4
:1022180084F80931BB78534ADFF83C9133BBD9F8CD
:102228000000C0070AD582F80B31BAF1000F1DD1A2
:102238002B78DA071AD50DF043FA17E02B785B07ED
:1022480014D5494B1B788BB1484BDB7873B992F89E
:102258000B310133DBB2032B82F80B3106D911B1F4
:102268000DF0CAFB02E0BAF1000FF9D094F80A3178
:102278003C4ADFF804A1142B40F08F80BB781BF197
:10228800000B18BF4FF0010B6BB392F809315F2BAD
:1022980011D12B7803F0040303F0FF0113B10DF003
:1022A800ABFB08E00B200291019203F08DFC019A30
:1022B800029982F80A11BBF1000F14D094F8093181
:1022C8007D2B10D12B7803F0040303F0FF0213B128
:1022D8000DF092FB07E00B20019203F075FC214BF7
:1022E800019A83F80A212B7803F0040303F0FF0115
:1022F800002B52D194F809311A4A572B04D11C4BA0
:102308004FF47A721A8048E0D8F80000400717D5D1
:102318005A2B15D192F80C312BB1012382F80C11EC
:1023280082F80D3139E092F80E3183F0010382F81A
:102338000E310BB10C2000E00D2003F045FC2CE021
:102348005D2B00F026845B2B00F025845E2B15D1D5
:10235800032000F021BC00BF941100208C2E002027
:102368000D2F0020500F002084190020902E0020EF
:10237800082F00209E220020D4110020562B01D1C6
:1023880008F0A6F9BB78002B00F0198494F80931FD
:102398006F2B40F00E840DF093F9D8F800305F07EA
:1023A80038D594F80E31B74A9BB12B78580710D519
:1023B800009BB3F90610B6F89631994209DDD9F8B1
:1023C800003013F0010302BF3221A2F8201182F875
:1023D8000E31D9F80030D9030DD594F82221A94B34
:1023E8002AB993F80C2112B93222A3F8202101232B
:1023F80084F822310EE094F80C31A24A53B12B78BC
:1024080003F0040303F0FF0123B9012382F80C1140
:1024180082F80D31DAF800A00023C9F800300AF17B
:1024280087070AF1D70B3A787B7817F8010C9A429C
:102438000DD2394606F020FA48B117F8022C0123CC
:1024480003FA02F2D9F800301343C9F80030043710
:102458005F45E8D18C4B1B783BB18C4B1A6812F066
:10246800020F994640F036832DE30AF1D6070AF5A4
:102478008F793A787B7817F8010C9A4225D2394639
:1024880006F0FAF908B3BB7897F804C0804A97F8C1
:1024980003A07C480C21013B01FB0C4103EB4303E7
:1024A8001344D1F828219A420FD0C1F828310023CB
:1024B80090F85421C1F82C31012303FA0CF322EAD5
:1024C800030381F824A180F8543106374F45D0D151
:1024D800704B1F68704B1B680293704B1B780393FB
:1024E8006F4B009300230193009B1A68002A00F0A9
:1024F800DF8292F800A0BAF1000F00F0D9825B6881
:102508000299CB1A002B0CDB01F5FA7300994B608A
:10251800019901238B4094F8541121EA030384F8AC
:102528005431039B002B00F0C382009B517813F8B1
:10253800043C0433DBB2002940F07982594931F96F
:102548001310B6F8943103F1C800814202DD92F805
:1025580002B015E0C83B994203DA9178C1F1000B4B
:102568000EE0019A0123934094F8542122EA0303D0
:1025780084F85431029B009A03F5FA73536097E28A
:10258800019A94F854311341DA0700F19182BBF1B2
:10259800000FCCBF0220012003F050FB0AF1FF33EB
:1025A800DFF8E090132B00F27B82DFE813F01400D1
:1025B800250037004B0064008300E6004901B001A4
:1025C800DE010E0279024B005A008300E600490141
:1025D800B8001B01800197F80090D944B9F1FA0FAF
:1025E800A8BF4FF0FA0929EAE979384687F8009038
:1025F80006F028F901200FE097F80190D944B9F1C5
:10260800640FA8BF4FF0640929EAE979384687F8CA
:10261800019006F017F902204946D3E197F803A084
:10262800DA44BAF1640FA8BF4FF0640A2AEAEA7ADA
:1026380087F803A03846D9F8581106F0B9F80320EE
:102648005146BFE1797959446429A8BF642121EA38
:10265800E17179710D2003F041FABAF10D0F00F024
:102668001F82397959446429A8BF642121EAE1719C
:1026780039710E20A6E1B979594481F30801B9717D
:1026880005209FE1500F00200E2F002094110020FC
:10269800A83C0108FC1100208C2E00208419002081
:1026A800781000209E22002000007A440000C842D2
:1026B80000000000D9F85C311A78022A20D107EE10
:1026C80090BAB8EEE70A5FED077A93ED097A80EEE3
:1026D800270A30EE070AB5EEC00AF1EE10FA07D461
:1026E800B4EE670AF1EE10FAC8BFB0EE670A01E06F
:1026F8001FED110A83ED090A0F2003F0D9F90AE04A
:1027080099785944C829A8BFC82121EAE17199706C
:102718000F2003F0E3F9BAF10F0F00F0C181D9F8E7
:102728005C311A78022A1ED107EE90BAB8EEE78A11
:102738005FED227A93ED080A88EE278A38EE000AC0
:10274800B5EEC00AF1EE10FA07D4B4EE670AF1EE5E
:1027580010FAC8BFB0EE670A01E01FED2B0A83ED3F
:10276800080A122056E159785944C829A8BFC82137
:1027780021EAE1715970122024E1D9F85C311A7804
:10278800022A20D107EE90BAB8EEE70A5FED397A4F
:1027980093ED0C7A80EE270A30EE070AB5EEC00AF0
:1027A800F1EE10FA07D4B4EE670AF1EE10FAC8BFDA
:1027B800B0EE670A01E01FED420A83ED0C0A102013
:1027C80003F076F90AE0197B5944C829A8BFC82143
:1027D80021EAE1711973102003F080F9BAF1100FA2
:1027E80000F05E81D9F85C311A78022A1ED107EE12
:1027F80090BAB8EEE78A5FED537A93ED0B0A88EE4C
:10280800278A38EE000AB5EEC00AF1EE10FA07D4AE
:10281800B4EE670AF1EE10FAC8BFB0EE670A01E03D
:102828001FED5D0A83ED0B0A1320F3E0D97A5944B2
:10283800C829A8BFC82121EAE171D9721320C1E0D3
:10284800D9F85C311A78022A22D107EE90BA1FED26
:102858006A0AF8EEE77A87EE800AD3ED0F7A30EE4F
:10286800270AB5EEC00AF1EE10FA09D45FED717AC5
:10287800B4EE670AF1EE10FAC8BFB0EE670A01E0DD
:102888001FED750A83ED0F0A112003F011F90AE014
:10289800997D5944C829A8BFC82121EAE1719975D1
:1028A800112003F01BF9BAF1110F00F0F980D9F8E3
:1028B8005C311A78022A20D107EE90BA1FED860AF9
:1028C800B8EEE78A88EE008A93ED0E0A38EE000A21
:1028D800B5EEC00AF1EE10FA09D45FED8C7AB4EEC9
:1028E800670AF1EE10FAC8BFB0EE670A01E01FED03
:1028F800900A83ED0E0A14208CE0597D5944C829AA
:10290800A8BFC82121EAE171597514205AE0D9F805
:102918005C311A78022A1ED107EE90BAB8EEE78A1F
:102928005FED9E7A93ED0A0A88EE278A38EE000A50
:10293800B5EEC00AF1EE10FA07D4B4EE670AF1EE6C
:1029480010FAC8BFB0EE670A01E01FEDA70A83EDD1
:102958000A0A09205EE0D9785944C829A8BFC821C5
:1029680021EAE171D97009202CE0D9F85C311A7894
:10297800022A1ED107EE90BAB8EEE78A5FEDB57A63
:1029880093ED0D0A88EE278A38EE000AB5EEC00AE4
:10299800F1EE10FA07D4B4EE670AF1EE10FAC8BFE8
:1029A800B0EE670A01E01FEDBE0A83ED0D0A0A20AA
:1029B80030E0597B5944C829A8BFC82121EAE171F0
:1029C80059730A2003F08AF86AE0D9F85C311A785A
:1029D800022A22D107EE90BA1FEDCD0AB8EEE78A97
:1029E80088EE008A93ED100A38EE000AB5EEC00AA8
:1029F800F1EE10FA09D45FEDD37AB4EE670AF1EE7E
:102A080010FAC8BFB0EE670A01E01FEDD70A83EDE0
:102A1800100A0B2003F04CF842E0D97D5944C8292C
:102A2800A8BFC82121EAE171D9750B20CAE701299D
:102A380036D190788C4A32F91390B9F5617F05DB6D
:102A480040F633039945A8BF994601E04FF46179F0
:102A5800BAF10C0F24D1854A4FF4966393FBF0F03A
:102A68001378A9F5617999FBF0F95FFA89F94B4573
:102A780016D0B9F1040F34BF4B46022313707C4AB9
:102A88000AFB036303F2AA73136007F043FC504682
:102A9800494603F023F809F10100C0B203F0CEF86B
:102AA800019A0123934094F85421134384F8543134
:102AB800019B01330193009B0C330093019B042B72
:102AC8007FF412ADC9E4D8F80030DB050FD5694BA7
:102AD800DB7863B1684B1B689F0708D5674B1B8879
:102AE80013F0010708D1012007F030FB04E00120B2
:102AF80007F01CFB012300E00023D9F80020500751
:102B08000BD553B1012007F011FB5C4B1B889907CB
:102B180006D4022007F01AFB02E0022007F006FBA9
:102B2800D9F800301A054FF4807002D507F00EFB73
:102B380001E007F0FBFA7379082B01D00E2B02D1C4
:102B4800402007F0F3FAD8F800305B0519D596F85D
:102B580010321BB92B7813F0040F03E0D9F80030BA
:102B680013F4002F09D0464B00221A703C200BF0BA
:102B7800DBFF30B10BF06AFAF8E706F003FA0BF066
:102B8800E2FE012384F8603107B0BDEC028BBDE89A
:102B9800F08F012000E00220C7B27B1E86F8A8371C
:102BA80007F01EFB07F0DAFB384603F047F8FFF79B
:102BB800F4BBBBF1000F02D07E2B3FF4ECAB94F8D2
:102BC8000931304A972B05D14FF4C873A2F8103158
:102BD800FFF7E3BBA72B07D192F8003143F00403BA
:102BE80082F80031FFF7D9BB0021BB2B059101D139
:102BF800022303E0B72B04D14FF6FE73ADF816306D
:102C080009E0BE2B01D1022303E0BD2B1AD14FF6F8
:102C1800FE73ADF81430DAF80030BDF81410B3F8CC
:102C280064200A44A3F86420BDF81610B3F866209F
:102C38000A44A3F8662007F04BFD002384F80A3104
:102C4800FFF7ABBB792B04D192F8173123F00103BE
:102C580006E07A2B7FF4A1AB92F8173143F0010319
:102C680082F81731FFF799BB9E22002048220020E6
:102C7800FC110020902E00208C11002090110020C3
:102C8800482B0020500F00202DE9F04F2DED028B2E
:102C9800AF4F8DB03D780097002D00F0A980AD4B67
:102CA8001A689846002A00F0C387D8F8000003F095
:102CB8002BF8002800F0BC87A64BA74D186803F036
:102CC80020F8092801D03F284AD14FF0000A2F6880
:102CD800A24C56462FB1A24821683A4610F03EFE53
:102CE80010B9A24606B926469E4B10349C42F1D331
:102CF800C6B1D6F800E0DAF800C02B681EF8034029
:102D08001CF80300A0420DD15A1C954938B92D2B47
:102D180005D8914C22602024CC54885402E0CC542D
:102D28002A60EAE72B680BB1564510D08E480BF0A5
:102D380097FA564507D856F8100B0BF091FA092068
:102D48000BF086FAF5E789480BF08AFA00272B681A
:102D58009F42AAD2824BD85D0BF07AFA0137F6E788
:102D68002B68002B40F0EB86042840F046877C480F
:102D780003F064FB00F05CBFDBF80000DFF818A28A
:102D880002F0C2FF10B3DAF8000002F0BAFF2368BD
:102D980093F84810074600293DD1242875D101220F
:102DA80083F848202368724F93F84820062AE3D115
:102DB80093F8490000F056FF0446002800F08D8083
:102DC8000BF090F93368002283F84820694B9B790F
:102DD80053B158F8050005F0E9FA03F009F907F0CE
:102DE800D5F9654B654ADA604C35982D00F0208797
:102DF800DFF8A88105EB080393F84A20012AF3D1EC
:102E08005B4EDFF89491336055F80830C9F800300C
:102E18003446CB46B0E7012904D14D2814BF00221F
:102E28000222BDE7022904D13C2814BF0022032254
:102E3800B6E703290CD140284FF0000102D983F8E6
:102E48004810AFE758711971D97198710422A7E732
:102E5800042907D1997983F8490080EA01029A7117
:102E680005229DE705299DD15879197988429879D5
:102E780006D978409871481C18710B441F7291E765
:102E8800B8420CBF062200228AE73D4B19784A0750
:102E980088D42328DAF8001012D10193009B01206E
:102EA80018702C4801603348016036480BF0D8F997
:102EB8002E480BF0D5F9019B197841F002011970E1
:102EC800314B1B681B78BB4201BF304B304A1A603C
:102ED800294B04BF294ADA6064E73A6892F8493016
:102EE8004A2B00F0238676D8332B00F0608422D852
:102EF800292B00F0FD8309D8252B00F0B783272B59
:102F080000F0D683232B40F0168675E22D2B00F0B7
:102F1800018408D82B2B40F00E860BF0B7F81D4B18
:102F2800587100F003BE2F2B00F0A384312B00F062
:102F3800B38400F000BE3E2B00F0298138D8372B2F
:102F480000F067842CD8352B00F08E8200F0F3BD9A
:102F58000E2F00206C22002090160020803E0108D1
:102F68006016002050400108505E0108555E0108B7
:102F780064220020B410002000ED00E00400FA05EF
:102F88000B2F0020855E0108442B0020FC9F0020A9
:102F9800EFBEADDE5C23002068220020C4220020A2
:102FA800392B00F093833C2B00F0FC8000F0C3BD6C
:102FB800432B00F00C8404D8412B40F0BC8500243E
:102FC800FBE3442B00F09C84482B40F0B48507F0C9
:102FD800A5FE00F0ABBDD02B00F0228361D8CA2B30
:102FE80000F0F58017D84E2B00F0B783C82B00F0FF
:102FF800A1804C2B40F09F850BF048F8BD4C84F81D
:10300800D6010BF043F884F8D7010BF049F8A4F87F
:10301800D80100F08BBDCD2B00F00E8304D8CC2B4B
:1030280000F0498200F087BDCE2B00F00F83CF2B34
:1030380040F081850BF034F86FF4AF67C3199BB289
:10304800AC4CC62B98BFA4F894010BF029F8A4F84F
:1030580040010BF025F8A4F842010BF021F8A4F880
:1030680044010BF01DF8A4F8D8010BF00FF80BF091
:103078000DF80BF00BF80BF009F884F883010BF04E
:1030880005F884F890010BF001F89B4B1F680BF0D2
:1030980007F800EB80004000A7F862000AF0F6FF8E
:1030A80017E3D82B00F03C810ED8D32B3CD003D8A3
:1030B800D22B25D000F03FBDD42B00F04382D62B75
:1030C80040F03985002434E2F22B00F080820FD8DA
:1030D800EF2B40F03085884C27680AF0E1FFA7F80D
:1030E800660024680AF0DCFFA4F8640000F01EBD46
:1030F800F32B00F00984FA2B00F0B38200F01BBD1B
:103108007E4B1B7803F0040303F0FF04002B40F010
:103118000D850AF0BBFF774B022883F8A80740F219
:10312800868283F8A84782E20AF0BAFF744B988037
:1031380000F0FCBC54796408122C03D90BF048FD4C
:1031480000F0F4BC4FF00009A14507D20AF0A8FF2F
:1031580003AB23F8190009F10109F5E7224600231A
:10316800A34207DA03A931F81300664921F81300CE
:103178000133F5E7122A05D0624B002123F812101B
:103188000132F7E7604B01221A7000F0CFBC0AF059
:103198007DFF584C84F8E0010AF078FF84F8DF01DD
:1031A80000F0C4BC544C27680AF070FF18B102281C
:1031B800A8BF022000E00120387023681B78022B8A
:1031C800524B14BF524A534A1A6000F0AFBC4A4BE4
:1031D8001A681278022A99466ED1D9F800700AF056
:1031E80055FF07EE900AF8EE677AB2EE048AC7EE4A
:1031F800887A07EB840AD9F80070CAED087A0AF0D1
:1032080045FF07EE900A9FED447AF8EE677A07EBE0
:10321800840AC7EE877AD9F80070CAED0B7A0AF0EB
:1032280035FF07EE900A9FED3D7AF8EE677A07EBD7
:10323800840AC7EE877A0134032CCAED0E7ACCD102
:10324800072CD9F800701CD10AF020FF07EE900A6D
:10325800F8EE677AC7EE887AC7ED117AD9F8007068
:103268000AF014FF07EE900AF8EE677AC7EE887A3C
:10327800C7ED127AD9F800700AF008FF87F84C00F9
:1032880015E00AF003FF07EB040A8AF80100D9F8F1
:1032980000700AF0FBFE07EB040AD9F800708AF800
:1032A8000B000AF0F3FE07EB040A8AF81500013454
:1032B8000A2CC5D100F03ABCD9F800700AF0E6FE35
:1032C80007EB040A8AF80100D9F800700AF0DEFE5C
:1032D80007EB040AD9F800708AF80B000AF0D6FE4A
:1032E80007EB040A01340A2C8AF81500E4D100F02F
:1032F8001DBC00BF5C230020D41100200B2F002030
:10330800B4100020F02D0020A52B00203003002051
:103318001D530008295600080000C84200007A44DE
:10332800D64F9FEDD78AD7F800A00AF0B9FE07EE6E
:10333800900AF8EE677A0AEB840AC7EE887AB946EB
:10334800CAED087AD7F800A00AF0AAFE07EE900A9C
:10335800F8EE677A0AEB840AC7EE887ACAED0B7A28
:10336800D7F800A00AF09CFE07EE900AF8EE677AFC
:103378000AEB840AC7EE887A0134032CCAED0E7A68
:10338800CED1072CD9F800701CD10AF089FE07EEBF
:10339800900AF8EE677AC7EE887AC7ED117AD9F8FD
:1033A80000700AF07DFE07EE900AF8EE677AC7EE25
:1033B800887AC7ED127AD9F800700AF071FE87F89A
:1033C8004C0015E00AF06CFE07EB040A8AF80100CD
:1033D800D9F800700AF064FE07EB040AD9F8007007
:1033E8008AF80B000AF05CFE07EB040A8AF815005D
:1033F80001340A2CC5D199E30AF048FE1328814606
:103408003FF69CAE9D4F3C680AF040FE00239D4964
:103418000C2202FB0312117A814221D10FFA89F999
:1034280004EB8904137884F885300AF02FFE84F8B9
:1034380086000AF02BFE84F887000AF027FE924BDC
:10344800924A1A6084F88800914B38681860002105
:10345800853005F04BFA8F4B80F00100187065E35A
:1034680001331D2BD3D169E60AF010FE0B288146E3
:103478003FF664AE814B1C680AF008FE03283FF64D
:103488005DAE062303FB094484F8DA000AF0FEFD6A
:1034980084F8D5000AF0FAFD84F8D6000AF0F6FDA3
:1034A80084F8D7000AF0F2FD84F8D8000AF0EEFD9F
:1034B80084F8D9003AE35379092B7FF63FAE764C6E
:1034C80027680AF0E3FD387027680AF0DFFD787096
:1034D8000AF0DCFD23686428A8BF642018710AF08C
:1034E800D5FD23686428A8BF642058710AF0CEFD72
:1034F8002368FF28A8BFFF2098710AF0C7FD276836
:10350800642828BF6420F8710AF0C0FDB8702768E5
:103518000AF0BCFDF87027680AF0C2FD33687881AC
:103528005B790A2B40F2028324680AF0AFFD20720F
:10353800FCE20AF0B5FD594B23F814000134082CBD
:10354800F7D1F3E253790F2B7FF4F8AD0AF09EFD23
:10355800072804463FF6F2AD484FD7F800A00AF016
:103568009FFD0E235C43A244AAF82501D7F800A0CA
:103578000AF096FDA244AAF82701D7F800A00AF09D
:103588008FFDA244AAF82901D7F800A00AF07EFD11
:10359800A2448AF82B01D7F800A00AF077FDA244CC
:1035A8008AF82C01D7F800A00AF070FDA2448AF826
:1035B8002D01D7F800A00AF069FDA2443F688AF8F7
:1035C8002E010AF077FD3B19C3F82F01AEE20AF08D
:1035D8005DFD0F2804463FF6B1AD0AF057FD304BAC
:1035E800C4EBC4041C4484F8D0000AF04FFD84F8EE
:1035F800D1000AF04BFD84F8D2000AF047FD84F8A8
:10360800D3000AF043FD84F8D4000AF03FFD84F8A3
:10361800D5000AF03BFD84F8D60002F029FD85E2CA
:10362800204B1B785C0700F1818209F0B5FC06F09D
:10363800D7FD06F093FE79E21A4B1B78580700F184
:103648007582194B4FF4C8721A806FE2154B1B78BC
:10365800590700F16B82154A137843F0040313707D
:1036680064E2104B1B785A07E1D564E20C4B986072
:103678000AF020FD06F082FD58E200BFD4110020B8
:1036880000007A44143D0108A81000209C24002062
:10369800AC10002002000020FC1100204A2200206B
:1036A8005C2300200B2F0020601000205010002009
:1036B8000AF0F6FCCB4CA4F858010AF0F1FCA4F887
:1036C8005A010AF0EDFCA4F85C012FE20AF0DEFCD6
:1036D800C44C84F878010AF0D9FC84F87C010AF01B
:1036E800D5FC84F87B010AF0D1FC84F87D011DE249
:1036F8000AF0D6FCBB4CA4F87E010AF0D1FCA4F871
:1037080080010AF0C3FC84F882010AF0C9FCA4F81D
:1037180084010BE20AF0BAFCB24C84F88E010AF07C
:10372800BFFCA4F898010AF0BBFCA4F894010AF0C5
:10373800B7FCA4F896010AF0A9FC3B6884F88F014D
:103748005B79082B40F2F2810AF0AAFCA4F89C01EC
:103758000AF0A6FCA4F89E01E8E154790323B4FB1F
:10376800F3F4122C3FF6EAAC9E4F4FF0000AA24544
:1037780080F0DC810AF08AFC87F8A0010AF090FC4E
:1037880040F2ED23984205DD40F6CA039842A8BFEF
:10379800184601E040F2EE20A0F2EE2019230AF1CB
:1037A800010A90FBF3F0023787F89F01DFE70AF080
:1037B8006DFC8C4B83F89001B8E10AF067FC894BEB
:1037C80023440134082C83F88601F6D1AEE10AF0CF
:1037D8005DFC844F7871BC600AF06CFC06F0CEFC8E
:1037E8000AF054FC87F88E010AF05AFCA7F8580131
:1037F8000AF056FCA7F85A010AF052FCA7F85C0137
:103808000AF04EFCA7F87E010AF04AFCA7F88001EE
:103818008CE153790724B3FBF4F2C2EBC2029A1A83
:1038280012F0FF0F7FF48AACB3FBF4F4013CE4B26E
:10383800FF2C00F07B810AF029FC5FFA80FA4FFA2E
:103848008AF004F0D1FE074600283FF477AC80F8F0
:1038580000A00AF025FC78800AF018FC38710AF0FC
:1038680015FC78710AF012FCF8710AF00FFCB871B7
:10387800DCE75C4C04F140090AF012FCA4F8A00251
:103888000AF004FC84F8A2020AF000FC043484F86C
:103898009F024C45F0D149E10AF0F8FB1F28044685
:1038A8003FF64CAC33685B79082B7FF447AC0AF0E1
:1038B800F7FB4C4F883407EB840900F03F00A9F868
:1038C80002000AF0EDFBB9F80230800100F4FE5066
:1038D8001843A9F802000AF0D9FB000107F82400F0
:1038E8000AF0D4FB17F8243000F00F00184307F84B
:1038F80024000AF0CBFB89F8010005F025FF15E14B
:10390800394B01229A7111E10AF0C0FBFF28824667
:10391800354C6DD14FF0000904F10800494660228A
:1039280084F807900FF0D2FF8DF80B909DF80B30BC
:1039380094F86A202C4F9A424BD99DF80B3007EB2C
:10394800C30393F86D30DB073CD59DF80B3007EBCC
:10395800C30393F86C20254B33F91230002B31DD6B
:103968009DF80B3097F8079007EBC3034FEAC90E91
:103978001B6F58689DF80B3007EBC30A07EB0E0165
:10398800DAF8703088601A89CA8192B2002101235E
:103998008B40134003D101311029F8D100E00B46C8
:1039A80004EB0E0109F101098B8104238DF80E3017
:1039B80003A90123ADF80C208DF80F3001F006FBA8
:1039C80084F807909DF80B300133DBB28DF80B308B
:1039D800ACE701200AF0AAFBF8790AF074FBFFF7BC
:1039E800EFB900BF5C230020B4100020D8110020DC
:1039F800E3799842BFF4A2AB00200AF097FB0AF0E3
:103A080071FB3368186804F0D1FCD9F800000AF09B
:103A18001DFB02F0C1F872B6DFF820928023402720
:103A2800A9F828304FF0010BA9F828704846ADF8DE
:103A38000C3003A904238DF80E308DF80FB04FEA2F
:103A4800CA0A01F0C3FA484603A9ADF80C708DF80C
:103A58000EB08DF80FB001F0B9FA04EB0A008168D6
:103A680083890A6803FA0BF30BFA03F313430B6019
:103A7800C3898B614846C9F81870038A1F06FCD4AD
:103A880004EB0A0301229868B3F80CE001684FEAD6
:103A98004E0E02FA0EF20A4302609A68DB89138519
:103AA800664A402111852021916140F60559DFF8C9
:103AB8008CB1BBF81020110605D4B9F1000FF6D06F
:103AC80009F1FF39F3E78361ADF80C3004238DF871
:103AD8000E3003A901238DF80F3001F077FAB9F100
:103AE800000F13D0554B1A8A1206C9D504EB0A01E8
:103AF8008A68C989128A11424FF020024FF04001AA
:103B080015BF996119859A611A85EBE74023CBF8AF
:103B180018302023CBF8183062B60A2002F019F8C2
:103B28000AF011FF3368F32283F8492000200AF0D5
:103B3800FDFAFFF745B90BF04BF8FFF741B90C2830
:103B480003D13F480AF08CFB49E00A2801D00D2830
:103B580047D13C4C3C480AF083FB204623210FF018
:103B6800E8FE08B1001B28602B687BB35A1EA15CD5
:103B7800202901D11346F8E7324A2B600021D1549D
:103B8800324B334CD3F800A0D4F800B02D4F584630
:103B98000FF0DCFE06463246384659460FF0DEFE88
:103BA8002C4A20B9BB5D53445B78590703D01034C5
:103BB8009442E9D306E0944204D2701CE368384486
:103BC800984702E024480AF04BFB00231D482B606D
:103BD800002130220FF07AFE009B1B7843B31F4868
:103BE80007E07F280FD1013B164A1D482B600021B2
:103BF800D1540AF035FBFFF758B80C28A1D07F281C
:103C080004D1FFF752B82F2B3FF64FA8A0F120029E
:103C1800D2B25E2A3FF649A813B920283FF445A836
:103C28005A1C2A60074AD0540AF012FBFFF73DB825
:103C38000DB0BDEC028BBDE8F08F00BF000400485A
:103C48005A5E010860160020E46B01083C0300205E
:103C5800803E010850400108655E0108555E010874
:103C6800815E01082DE9F04F2DED028B4728A1B0A8
:103C7800044600F05A8600F2CE802E2800F009860D
:103C880067D8222800F0B18423D8032800F04082A6
:103C980014D8012800F03182022840F092860420CE
:103CA8000AF044FA42200AF00EFA54200AF00BFAFD
:103CB80046200AF008FA4C2000F0BDBD042800F0A8
:103CC8003182052840F07D861A200AF02FFA002458
:103CD80038E2282800F0768515D8242800F05D857C
:103CE800262840F06E86C64C06200AF01FFAB4F863
:103CF80058010AF01EFAB4F85A010AF01AFAB4F890
:103D08005C0100F0A9BD2A2800F06F852C2840F03E
:103D18005886BB4C0C200AF009FA94F88E010AF078
:103D2800D2F9B4F898010AF004FAB4F894010AF048
:103D380000FAB4F896010AF0FCF994F88F010AF039
:103D4800C2F9B4F89C010AF0F4F9B4F89E0100F045
:103D580083BD3A2800F0E2821DD8342800F0788428
:103D68000DD8302800F0AB85322840F02A86012093
:103D78000AF0DCF9A24B93F8900100F05CBD3628FC
:103D880000F06D85382840F01C8604200AF0CEF932
:103D98009B4C00F008BD402800F0508511D83B2806
:103DA80000F01C843D2840F00C86954C02200AF057
:103DB800BDF994F8E0010AF086F994F8DF0100F003
:103DC8003ABD452800F0EA8500F29E85422840F079
:103DD800F8858B4C10200AF0A9F960790AF073F97C
:103DE800A0680AF0AFF994F88E010AF06CF9B4F8FB
:103DF80058010AF09EF9B4F85A010AF09AF9B4F891
:103E08005C010AF096F9B4F87E010AF092F9B4F868
:103E1800800100F021BD6F2800F0CF8200F2F88009
:103E2800662800F0CB8100F2C2804D2800F0E384C0
:103E380015D8492800F0BB824B2840F0C285704C49
:103E480004200AF073F994F8D6010AF03CF994F8C2
:103E5800D7010AF038F9B4F8D80100F0FDBC64289D
:103E680000F08981652840F0AC85664C0B200AF08B
:103E78005DF920880AF05DF96268634B9A420CBFCD
:103E88002089608980B20AF054F9E368C3F3C0005E
:103E9800C3F38002800040EA4200C3F340021043AB
:103EA800C3F3401240EAC20003F0100318430AF0BB
:103EB80040F9218A6369247E01F0080203F4475A15
:103EC8004AEA020A03F480424AEA020A03F4004278
:103ED8004AEA020A03F480324AEA020A03F4003288
:103EE8004AEA020A03F480224AEA020A03F4002298
:103EF8004AEA020A03F480124AEA020A434A03F031
:103F0800007B12784AEA0B0A03F0006311F0010FF4
:103F1800C2F380024AEA030314BF4FF002094FF0CC
:103F28000009134311F0020F14BF4FF004084FF0BB
:103F3800000843EA090911F0040F14BF4FF0100CF0
:103F48004FF0000C49EA080811F0400F14BF4FF079
:103F5800200E4FF0000E48EA0C0C11F0100F14BFA1
:103F68004FF4007700274CEA0E0E11F0200F14BF13
:103F78004FF4806600264EEA070711F4807F14BFCD
:103F88004FF4006500253E4311F4007F14BF4FF441
:103F980000100020354311F4806F40EA050014BF7B
:103FA8004FF080610021014300200346F3E06928B7
:103FB80000F09A810AD8672800F02181682840F02B
:103FC800008510200AF0B2F8002485E16D2800F081
:103FD8009E8100F2BF816C2840F0F384094C0620D2
:103FE8000AF0A4F8B4F870000AF0A3F8B4F8720064
:103FF8000AF09FF8B4F974300A2093FBF0F0D4E18A
:104008005C23002080110020005400400B2F00206A
:10401800772800F07B834BD8732800F097833CD82F
:10402800702800F0F481722840F0CB84BD4C162033
:104038000AF07CF8B4F894010AF07BF8B4F840016F
:104048000AF077F8B4F842010AF073F8B4F84401BA
:104058000AF06FF8B4F8D8010AF06BF800200AF0FB
:1040680032F800200AF02FF800200AF02CF894F813
:1040780083010AF028F894F890010AF024F8002047
:104088000AF021F8A84B5B6D0A20B3F9623093FB64
:10409800F0F080B20AF04DF885E3742800F0FD8254
:1040A800752840F08E842F200AF040F89F4C8DE24E
:1040B800A02800F064830AD8782800F0AC807B2818
:1040C80040F07F843C200AF031F8002428E2F128EF
:1040D80000F0DC80FE2800F04483F02840F0718472
:1040E800914C04200AF022F8636DB3F866000AF0D8
:1040F80020F8636DB3F86400AEE303200AF016F805
:10410800002009F0E0FF204609F0DDFF0D2092E3D2
:104118000AF00CF8022009F0D6FF022009F0D3FFBC
:10412800002088E306200AF001F84D2009F0CBFFB3
:104138004F2009F0C8FF542009F0C5FF4F2009F0AF
:10414800C2FF1AE37A4B185D013409F0BCFF0B2C4F
:10415800F8D10024774B185D013409F0B4FF082C1E
:10416800F8D10024744B185D013409F0ACFF072C1A
:10417800F8D100F024BC072009F0D8FFE72009F0A7
:10418800A2FF684B587909F09EFF002009F09BFFB9
:10419800042000F012BCA3420AD2684A9D5C0122A6
:1041A80002FA05F50D421CBF9A4010430133F2E7AD
:1041B80009F0C8FF5B4B93F8A8073CE3122009F00D
:1041C800B5FF5F4B1B88B3F5806F8CBF08260126AF
:1041D8000025554C04F1360333F9150090FBF6F031
:1041E800013580B209F0A5FF032DF2D1A08F09F0A7
:1041F800A0FFE08F09F09DFFB4F84000B5E2102061
:1042080009F094FF00244F4B185D013409F05BFF5F
:10421800102CF8D1D3E3702009F088FF0026424D16
:104228000E246B6D744323440136B3F8250109F05D
:1042380080FF6B6D2344B3F8270109F07AFF6B6D9B
:104248002344B3F8290109F074FF6B6D234493F8F4
:104258002B0109F038FF6B6D234493F82C0109F00A
:1042680032FF6B6D234493F82D0109F02CFF6B6D21
:10427800234493F82E0109F026FF6B6D1C44D4F8F3
:104288002F0109F05FFF082EC9D198E37020254C53
:1042980009F04CFF04F1700594F8D00009F013FF01
:1042A80094F8D10009F00FFF94F8D20009F00BFF41
:1042B80094F8D30009F007FF94F8D40009F003FF3D
:1042C80094F8D50009F0FFFE073494F8CF0009F000
:1042D800FAFEAC42E0D172E31B4B185D013409F0E1
:1042E800F2FE102CF8D16AE3184D2878400000F04F
:1042F800FE0009F01BFF00242B789C4280F05F83AE
:10430800134B33F8140009F014FF0134F4E70620C6
:1043180009F00CFF002009F015FF2EE2042009F037
:1043280005FF49E35C23002080110020E33C0108DD
:10433800F35C0108FF5C0108D75C010899110020B3
:1043480008000020C2110020D81100203C2B0020BA
:104358009E220020072009F0E9FEB54BB54C1888CD
:10436800FF28A8BFFF20C0B209F0ADFEB24B186805
:104378004FF6FF75A842A8BF284620EAE07080B231
:1043880009F0D7FEB4F8760009F0D3FEAB4BA06F66
:1043980093F883313BB10A235843A842A8BF284663
:1043A80020EAE07001E000F30F0080B254E202203E
:1043B80009F0BCFEA24B18884EE29E4C0B2009F077
:1043C800B5FEE36F187809F07EFEE36F587809F0C0
:1043D8007AFE00262546EB6F964C33440136187951
:1043E80009F071FE032EF6D1E36FD87909F06BFE60
:1043F800E36F987809F067FEE36FD87809F063FEF9
:10440800E36F588909F095FEE36F187A13E2894C37
:104418001E2009F08BFE636D1B78022B4FF0000500
:104428006BD1636D03EB850393ED080AB2EE048A42
:1044380020EE080A0EF0F4FD80F30800C0B209F07F
:1044480042FE636DDFED7F7A03EB850393ED0B0A84
:1044580020EE270A0EF0E4FD80F30800C0B209F050
:1044680032FE636DDFED787A03EB850393ED0E0A78
:1044780020EE270A0EF0D4FD80F30800C0B2013503
:1044880009F021FE032DCCD1072D636D23D193EDC7
:10449800110A20EE080A0EF0C3FD80F30800C0B22E
:1044A80009F011FE636D93ED120A20EE080A0EF072
:1044B800B7FD80F30800C0B209F005FE636D93F8FC
:1044C8004C3000EE103AB8EE400A0EF0A9FD80F329
:1044D8000800C0B20BE02B44587809F0F4FD636D76
:1044E8002B44D87A09F0EFFD636D2B44587D0135D4
:1044F80009F0E9FD0A2DC7D161E2636D2B445878B4
:1045080009F0E1FD636D2B44D87A09F0DCFD636D99
:104518002B440135587D09F0D6FD0A2DEDD14EE228
:10452800444D9FED498A6B6D03EB840393ED080AB4
:1045380020EE080A0EF074FD80B209F0FAFD6B6DEA
:1045480003EB840393ED0B0A20EE080A0EF068FDD6
:1045580080B209F0EEFD6B6D03EB840393ED0E0A58
:1045680020EE080A0EF05CFD013480B209F0E1FD8E
:10457800032CD5D1072C6B6D16D193ED110A20EEC3
:10458800080A0EF04DFD80B209F0D3FD6B6D93ED76
:10459800120A20EE080A0EF043FD80B209F0C9FDA8
:1045A8006B6D93F84C000BE02344587809F0C1FD7B
:1045B8006B6D2344D87A09F0BCFD6B6D2344587D9C
:1045C800013409F0B6FD0A2CD4D1F8E114F8010F32
:1045D800002800F0F48109F076FDF7E7012009F0E2
:1045E800A5FD144B5B6D187825E1502009F09EFD60
:1045F8000025104B5C6D154B04EB85040C2194F8D9
:10460800852001FB0233013593F8380009F05BFD82
:1046180094F8860009F057FD94F8870009F053FDD7
:1046280094F8880009F04FFD142DE2D1C7E100BFCE
:104638007018002080110020C81700205C2300207B
:104648007C2E00200000C84200007A44E43C0108A7
:10465800482009F06BFD0025C54B5C6D062303FB64
:104668000544013594F8DA0009F02DFD94F8D500D9
:1046780009F029FD94F8D60009F025FD94F8D70033
:1046880009F021FD94F8D80009F01DFD94F8D9002F
:1046980009F019FD0C2DDFD191E14FF0000801263A
:1046A8000027B34B1A7E974227DA19330024FA5CA5
:1046B800B04D0C2305F130016343595C914207D199
:1046C8002B44586B0FF042F982462EB9B14605E0EB
:1046D80001341D2CECD10EE080440CE0D1450ADAFF
:1046E8000C2303FB04535B6B13F8090009F0EBFC84
:1046F80009F10109F2E70137D3E7002E00F05F81E5
:104708005FFA88F009F012FD0026C9E7984D287E67
:1047180009F00CFD00242B7E9C4280F05081964BC2
:10472800E65C002193480C2200F1300702FB01F3FC
:10473800DA5DB24205D1034493F8380009F0C3FCAE
:1047480002E001311D29EDD10134E4E7082009F028
:10475800EDFC0124E0B2013409F0B5FC092CF9D1D3
:104768002DE1082009F0E2FC002009F0E2FC00201D
:1047780009F0DFFC002009F0DCFC00206CE00C20D4
:1047880009F0D4FC7D4B186809F0DCFC7C4B1868F8
:1047980009F0D8FC7B4B18680FE1042009F0C6FC2F
:1047A800794B986809E194F8780109F08CFC94F841
:1047B8007C0109F088FC94F87B0109F084FC94F8EA
:1047C8007D0138E0704C072009F0B0FCB4F87E0198
:1047D80009F0AFFCB4F8800109F0ABFC94F8820151
:1047E80009F071FCB4F8840136E0012009F09EFC60
:1047F800654B58791FE0654C654D207800EB40000B
:10480800C0B209F093FC002623789E4205F1020508
:1048180080F0D58015F8020C09F055FC15F8010C4C
:1048280000EB800000EB800000F2EE2080B209F07F
:1048380080FC0136E8E709F046FCC0E0082009F0F2
:1048480075FC0024504B2344013493F8860109F089
:104858003AFC082CF6D1B2E009F06BFCAFE0444B0F
:10486800494C93F88000C0EBC000C0B209F05EFC70
:1048780004F1200594F8F0010023464AD25C9042E6
:1048880000F0A1800C33302BF7D10834AC42F1D1C1
:1048980095E040203C4C09F049FC04F14005B4F88F
:1048A800A00209F046FC94F8A20209F00CFC0434BA
:1048B80094F89F0209F007FCAC42F0D17FE0E020B9
:1048C800314C09F033FC04F18005B4F8220200F001
:1048D8003F0009F02EFCB4F82202C0F3861009F05C
:1048E80028FC94F82002000909F0EDFB94F8200256
:1048F80000F00F0009F0E7FB043494F81D0209F0FA
:10490800E2FBAC42E1D15AE0234C0D2009F00EFC49
:1049180006F028F909F0D7FBA08809F013FC2069F4
:1049280009F010FC06F0FEF847E009F0C3FB054665
:10493800842009F0FBFB284609F004FC164B1C698F
:1049480005F18003A3428CBF641B802405F034F872
:1049580028462246694606F009FA00240546AC4274
:104968002DDA1DF8040009F0AEFB0134F7E700BFAB
:1049780080110020E43C010899110020ACF7FF1FCA
:10498800B0F7FF1FB4F7FF1F5C2300203C2B00206B
:10499800FC2400204C2B002008000020132009F0E4
:1049A800C5FB0024164B185D013409F08CFB0B2C59
:1049B800F8D1002009F0C6FB002009F0C3FB012054
:1049C80018E0002016E009F07EFBB4F8F20109F0C7
:1049D800B0FB94F8F40109F076FB94F8F50109F0BE
:1049E80072FB94F8F70109F06EFB94F8F60109F0F0
:1049F8006AFB4AE721B0BDEC028BBDE8F08F00BF2F
:104A0800F35C010810F80A3C0133DBB20A2B84BFBF
:104A180010F8131C044A00F80A3C82BF002322F84D
:104A2800113000F80A3C7047142E0020334A136CEA
:104A380090681944081A40F68C23984270B51346BA
:104A48009160D06051603BD9127893F945108A4241
:104A580010460BD1111F082908D893F846101829B9
:104A680001D8013103E083F8442002E0002183F8F3
:104A7800461093F944402149A24219D191F8474080
:104A8800B4B10C310024944206DA1D4D51F8046F7C
:104A980025F814600134F6E70C2805D018490024DD
:104AA80021F810400130F7E716480178013101700C
:104AB80083F84520002201211A7083F8471070BD41
:104AC80092F84710C9B1A0F2EF2440F2DA518C42B3
:104AD80008D811780B2905D80B1D0131117042F83F
:104AE800230070BD002283F84720074B03F13002F2
:104AF800002143F8041F9342FAD170BDD00300206F
:104B0800142E0020A62B0020DC030020024A136C80
:104B18000133194411647047D0030020024B53F845
:104B280020301B6819607047B4140020064B53F8F6
:104B380020301A681B89A1F57A7159434FF47A73AA
:104B480091FBF3F111607047B4140020F0B5046DC7
:104B58008668236823F0010323608379054613F0F0
:104B6800020F40790CBF4FF0000E4FF4005E13F0B7
:104B7800040F14BF4FF48067002710F0010F14BF13
:104B8800042100218307206820F00100206062686A
:104B980022F440524EEA02026260226822F4B053C4
:104BA80023F00C0348BF41F008013B430B4323604B
:104BB800A36895B023F44073A360684602F022FE10
:104BC800284B9C4201D10C9B0EE0274B9C4201D103
:104BD8000D9B09E0254B9C4201D10E9B04E0244B20
:104BE8009C420CBF0F9B109B2268A879170448BFF2
:104BF8005B00B3FBF6F206FB1233B3EB560F2368E8
:104C080028BF01321E0441BF4FF6F073C2F34201C0
:104C1800134041EA03026B7992B213F0020FA281AA
:104C280000F0010114BF4FF400320022DC0748BF36
:104C380042F480322B6D11B159680A4302E0596879
:104C480021EA02025A609A6801074CBF42F0080242
:104C580022F008029A601A6842F001021A6015B040
:104C6800F0BD00BF0038014000440040004800404B
:104C7800004C00403D4B1B78012B30B514BF00247D
:104C88000324B1B9036A23F0010303628169036A4B
:104C980021F0F30123F00A0341F0010142F001027F
:104CA8001A4341EA041181610262836923F00C030B
:104CB8001BE004291DD1016A4FF6EF730B40036214
:104CC8008169056A120121F473414FF65F7342F05E
:104CD800100241F480712B4092B2134341EA04312F
:104CE80081610362836923F440638361836983611B
:104CF80030BD0829016A1AD14FF6FF630B400362E1
:104D0800C169036A9BB289B223F4206343F48073B8
:104D180021F0F30143EA022241F0010192B241EA93
:104D28000411C1610262C2694FF6F37319E04EF6CD
:104D3800FF730B400362C369056A40F6FF411940DF
:104D480045F6FF732B4043F4805343EA023241F4A3
:104D5800807192B241EA0431C1610262C2694FF2C4
:104D6800FF331340C361C369C36130BDCC03002066
:104D780038B510F80E2C50F8043C044652B90122FC
:104D880000F80E2C20F80C1C997A18680222BDE84D
:104D980038406FE730F80C2C20F80A1C891A89B2C1
:104DA80020F8081C074A10F80F0C002522F81010EC
:104DB80004F80E5C1868997A2A46FFF75BFF04F836
:104DC800065C38BD142E0020044B53F820301BB16C
:104DD80007289CBF1B681960704700BFF8040020B3
:104DE800084A13689B050BD5074B00211970074922
:104DF80008684FF6FE7303400B604FF4007353606E
:104E0800704700BF000002400F2F00203000024012
:104E18002DE9F047664D2B6866490A78581C02F060
:104E2800FF068E460AB10346F6E72B6095F8088020
:104E3800687AAA7AEB68374639B2202900F09B8055
:104E4800DFF880C10CEB81033CF82110DC789B78FB
:104E5800C3F1FF039BB2002B65D0C3F1FF0363438B
:104E68004FF03C0C1B12B1FBFCF9B9F1050F5DD8F2
:104E7800DFE809F0030B1A293A4AE01ADAB241438B
:104E8800B1FBFCF01044C0B251E0B1FBFCF00CFBEC
:104E9800101189B2DAB2C1F13C01E31A4B43204642
:104EA800B3FBFCFC94442CE0B1FBFCF00CFB1011B0
:104EB8005FFA83F8E21A89B24A43B2FBFCF2424431
:104EC800D2B2204632E0B1FBFCF90CFB191189B2D1
:104ED8005FFA83F8E01AC1F13C014843B0FBFCF0EB
:104EE8004044C0B2224621E0B1FBFCF80CFB18118B
:104EF800D8B289B2E31A01FB03F2B2FBFCFC2246EA
:104F080084445FFA8CF412E0B1FBFCF80CFB181136
:104F180089B2D8B2C1F13C01E31A4B43B3FBFCF2AE
:104F28000244D2B203E02246204600E044464FEA5B
:104F3800042C4CEA004C4CEA020C172306F117012A
:104F48004FF0010808FA03F8C91A18EA0C0F89B2D9
:104F5800DFF8748014BF4FF011094FF0090913F1FD
:104F6800FF3308F80190E9D218360137B6B2BFB25C
:104F7800114BA04660E7AA72EB60104AE980012352
:104F88008EF800300E4985F8088040F22A3368729E
:104F9800AE80536000234B620B889BB243F0010341
:104FA8000B80136843F001031360BDE8F08700BF6E
:104FB800101200200F2F002018120020300002408D
:104FC80000440140F21800204005002073B5064651
:104FD8000D46002401232A88A34013421AD0AA7838
:104FE800009302F003038DF80430EB78022B03D012
:104FF800032B0CBF032301238DF805303046C2F381
:1050080001136946C2F381028DF806308DF8072036
:1050180002F0BCFB0134102CDCD102B070BD2DE9CC
:10502800F04F734E357C07460C4687B011469A46BA
:1050380000686B1C914622464FF0020B337408F04F
:1050480003FE3B897868ADF8043001A98DF806B0F5
:105058008DF807B0FFF7BAFF0023ADF80A30ADF8B6
:105068001230ADF8163070230193BA7A3C68CDF847
:105078000CA0012306F114082D01ADF808304FF4F7
:105088008073A844ADF810B0ADF814300C2A7ED85F
:10509800DFE802F0077D7D7D0F7D7D7D387D7D7D9C
:1050A8005E00204601A902F07BFAA36943F00803D9
:1050B80026E0236A4F4823F010032362236A6168BD
:1050C800A26922F0807222F4E642844242F4E0426D
:1050D80006D000F50060844202D043F0300307E0B8
:1050E80023F0E00321F4406143F0300341F4806190
:1050F8006160A261C4F838A02362A36943F4006325
:10510800A36144E0236A3B4823F480732362226A44
:105118006168E369844223F0730343F0700306D0A7
:1051280000F50060844202D042F4407207E022F4A5
:10513800606221F4405142F4407241F48051616050
:10514800E361C4F83CA02262E36943F008031DE070
:10515800236A284823F480532362226A6168E3693A
:10516800844223F4E64343F4E04342F4405203D03C
:1051780000F50060844201D141F480416160E3613F
:10518800C4F840A02262E36943F40063E3613A7B18
:105198003B681AB15A6C42F400425A641A8892B2B7
:1051A80042F001021A80BA7A0C2A18D8DFE802F015
:1051B800071717170B1717170F1717171300721959
:1051C80003F134010AE0721903F1380106E072199B
:1051D80003F13C0102E0721903F1400151613544C9
:1051E8004046A5F81C90AB6107B0BDE8F08F00BF42
:1051F80010120020002C0140054B98420CBF054AB4
:10520800054A138801339BB213800020704700BF02
:1052180000540040881100208A110020400070B519
:10522800C5B22D482D4B00684FF420441C60866998
:10523800360404D52646013C002EF8D112E0466813
:10524800274C344044F0807444F490342C43446038
:105258004FF420441C608669B60726D42646013CD4
:10526800002EF8D11C601AE02146013C0029F9D033
:1052780081690E06F8D544681949214041F000714A
:1052880041F48031294341604FF420411960846919
:10529800A4070FD40C460139002CF8D11960FFF788
:1052A800ABFF003018BF012070BD4FF4204481626D
:1052B8001C60DDE782624FF420421A60816989062A
:1052C80005D41146013A0029F8D11A60E7E71A60B7
:1052D8002023C361012070BD8411002044210020D7
:1052E800009800FC044A4FF09043128808B19A6174
:1052F80070471A85704700BF0C130020044A4FF00E
:105308009043128808B11A8570479A61704700BFA8
:105318000C1300202DE9F04F2DED028B87B080464D
:105328000593AF4B04929A780C463AB9AD4A126885
:10533800B2F57A7F34BF082204229A70AA4B1B88E0
:105348009D072DD5129BDE890020314603F0BAFA5D
:1053580031460746012003F0B5FA87EAE77580EA87
:10536800E073A3EBE073A5EBE775AB42B8BF2B4640
:10537800C3F5FA70052390FBF3F35BB20A22643B92
:10538800534398F81C20D2105343642293FBF2F342
:1053980013449342A8BF134623EAE373DBB200E049
:1053A80064230193914FE31C0393C1460025039B9B
:1053B80013F8014F0393022D04F11B044FEA450B28
:1053C80005D1874BB3F968305C4363112DE0884BF6
:1053D800854A33F9151010884C432311840724D0CB
:1053E800049A49005242914203DB049A8A42A8BFB8
:1053F8000A46804931F90B400599121B31F91540CD
:10540800C107224457BF98F8124098F808309DF910
:105418000410624355BF01FB02F45A43642213117E
:105428005CBF94FBF2F203EB2213734A042432F9B3
:105438000B2092FBF4F41C1B694B03F16C02022D48
:10544800AA5C029299F80120029902FB04F201FB7E
:1054580002F24FF0640192FBF1F24FEAE21208EE19
:10546800102A0CD198F8511049B1B8EEC80A03F1C6
:105478007000D3ED1F0A04F095FBBDEEC08A5F48AB
:1054880099F80BA050F825E002230EEB040292FBDA
:10549800F3F3544A00F10C0C12885CF825105343BE
:1054A800DB120AFB0313B3F5001F5549A8BF4FF4DD
:1054B80000138B42B8BF0B4652494CF82530097887
:1054C800AE004FEA633A183011B94F490978C1B1B3
:1054D800815983EAE37081EAE17CACEBE17CA0EBE3
:1054E800E370604502DA494973500BE0CCF10000E3
:1054F800834203DB6345A8BF63461846444BF0501C
:1055080000E08351364B03F1800112097450CEEB51
:10551800040498F850104FF6FF7EBEFBF2F2624387
:10552800921189B107EE902A03F1A4000C22B8EE7B
:10553800E70AD3ED1F0A02FB050004F033FBFDEE7A
:10554800C07A17EE903A18E09878431E002B06DDD3
:10555800013B07EB830157F823404C60F6E7002333
:105568003A601946814204DA57F821200131134480
:10557800F8E793FBF0F303EB430399F81540029A1D
:1055880063435A4318EE103A6424534492FBF4F4EC
:10559800204A2412234422F80B30134B1B881A0587
:1055A80006D51D4B1B785B0702D5E8B204F026F937
:1055B8001A4B18EE102A0135F25003F10C02183379
:1055C800032D46F802A0F45009F1010907F120075C
:1055D8007FF4EDAE07B0BDEC028BBDE8F08F00BFE5
:1055E8000C1300207C2E00209011002010130020A6
:1055F80070130020F0110020BC1100208C13002033
:105608000000E0FF0D2F00200C2F0020A413002025
:1056180098130020D41300200B2F0020DC13002047
:105628002DE9F04F2DED088B85B005460293D54B3B
:1056380001929A7888463AB9D34A1268B2F57A7FC5
:1056480034BF082204229A70D04B1B8813F0020F33
:10565800B7EE009A3AD0169BDE890020314603F057
:1056680031F931460446012003F02CF995F84C2015
:105678007AB3002CB8BF64420028B8BF4042A042A9
:10568800B8BF2046C0F5FA7307EE903A9FEDC07A8E
:10569800F8EEE77A6423C7EE877A93FBF2F307EE16
:1056A800103A77EEC97AB8EEC77AB0EE49AAA7EEF3
:1056B80087AAB5EEC0AAF1EE10FA0AD4B4EE49AA48
:1056C800F1EE10FAC8BFB0EE49AA04E0B0EE49AA5C
:1056D80001E09FEDB0AADFF8E8B208F103030093F8
:1056E800A9460BF160080BF16C070BF17806002452
:1056F800009B9FEDA97A13F8011F0093022CA14B80
:10570800B2EE04BA0BD1B3F968000A3100FB01F21A
:1057180007EE902AF8EEE77AC7EE877A37E003F1CA
:105728006400143130F91400414307EE901A974988
:10573800B1F800E0F8EEE77A1EF0030F4FEA440AEA
:10574800C7EE877A23D0019A5142884203DB82420E
:10575800A8BF024611469148029A3AF90000091A70
:1057680032F914000A1807EE102AB8EEC77A1EF0AC
:10577800010F87EE0B7A0BBFD5ED126AD5ED117AC2
:1057880027EE267A67EE277A08BFE7EE0A7A844979
:1057980031F91420D3ED626AD9ED089A9FED818A18
:1057A80007EE102A774AB8EEC77A02F16C01E7EEE5
:1057B800667A615C00EE101A67EEA99AF8EEC0BA34
:1057C800022C69EEAB9A4FEA440AF0EE678AC9EEFA
:1057D800889AF0EE48AA0ED195F8511059B1B0EE5A
:1057E800690A02F17000D2ED1F0A039304F0DAF996
:1057F800039BF0EE409A97ED000A70EE287AB6EE19
:10580800007A27EE877AD3ED1F7A67EE277A99ED2B
:105818000B7A27EE877AD8ED007AE7EE0B7A9FEDC0
:10582800627AF4EEC77AF1EE10FA09D49FED5F7A46
:10583800F4EE477AF1EE10FAC8BFF0EE477A01E0CD
:10584800F0EE477A5A4BC8ED007A1B7813B9594BDA
:105858001B78EBB3D6ED006AF5EEC07AF1EE10FADC
:10586800F5EEC06AD4BFB1EE677AB0EE677AF1EEB2
:1058780010FA00F3EF80B1EE666AB4EEC67AF1EE84
:1058880010FA25D4F5EEC06AF1EE10FAFDEEE77ACB
:1058980004DDB1EE667ABDEEC77A02E0BDEEE67AC7
:1058A80002DDFDEEE66A01E0FDEEC66A17EE903A0B
:1058B80017EE102A934206DB16EE902A9342A8BFF1
:1058C800134607EE103AB8EEC77A88ED007A01E081
:1058D800C6ED007A2B48C7ED008AD0ED1F0A95F86F
:1058E800501098ED00BAC9EE207A38EEC00A20EEC2
:1058F800270A31B10C23A43003FB040004F052F949
:1059080027E0817801F18043013BF43003EBC403C5
:1059180001F1FF3E00EB8303BEF1000F05DD53F8F4
:10592800040D58600EF1FF3EF6E7DFED1A7A8BEDB5
:10593800000A584600238B4205DAB0EC017A01339D
:1059480077EE877AF7E707EE101AB8EEC70A87EE00
:10595800800AD9ED0E7A20EE270ADFED177A20EEBD
:105968002B0A80EE2A8AB4EEE78AF1EE10FA29D4DF
:10597800DFED127AB4EE678AF1EE10FAC8BFB0EE26
:10598800678A21E00C1300207C2E00209011002053
:105998000000FA430000000000004842F011002017
:1059A800BC1100200000C84200007AC300007A43FE
:1059B8000D2F00200C2F0020000096C300009643F6
:1059C80000140020B0EE678A39EE8B0A30EE080A20
:1059D8000DF026FB244BB0F57A7FA8BF4FF47A7000
:1059E8009842B8BF1846214B2AF80300204B1B8861
:1059F8001A0506D51F4B1B785B0702D5E0B203F0EA
:105A0800FDFEFDEEE99A1C4B19EE902ABDEECBBACD
:105A180043F8242003F10C011BEE102ABDEEC88ABE
:105A280041F82420183318EE102A43F824200134B2
:105A3800032C09F104090BF1200B08F1040807F104
:105A4800040706F104067FF453AE05B0BDEC088BDD
:105A5800BDE8F08FB4EEE67AF1EE10FA3FF538AF14
:105A6800FDEEE77A15E700BF18FCFFFFD41300200E
:105A7800901100200B2F0020DC1300200A4B1B681C
:105A880013F4805F094BB3F9063005D0C089421A78
:105A9800934207DD084400E0008A8342B4BF002037
:105AA80001207047012070477C2B00209E22002097
:105AB8001FB5094B1B681B030AD58DF80400012389
:105AC8000D2001A98DED030A8DF8053005F08AFB3C
